:020000022000DC
:1060000000000120756302005D6302005F6302000F
:106010006163020063630200656302000000000028
:1060200000000000000000000000000067630200A4
:1060300069630200000000006B6302006D630200F0
:10604000C19D02006F630200D1A102006F630200D4
:106050006F6302006F63020085A002006F6302009D
:106060006F6302006F6302006F6302006F630200E0
:106070006F6302006F6302006F6302006F630200D0
:106080006F630200F57B02006F6302006F63020022
:106090006F6302006F630200E90203006F63020096
:1060A0006F6302006F6302006F6302006F630200A0
:1060B0006F6302006F630200000000000000000038
:1060C0006F6302006F6302006F6302006F63020080
:1060D0006F6302006F6302006F6302000000000044
:1060E00000000000000000000000000000000000B0
:1060F00000000000000000000000000000000000A0
:10610000000000000000000000000000000000008F
:10611000000000000000000000000000000000007F
:10612000000000000000000000000000000000006F
:10613000000000000000000000000000000000005F
:10614000000000000000000000000000000000004F
:10615000000000000000000000000000000000003F
:10616000000000000000000000000000000000002F
:10617000000000000000000000000000000000001F
:10618000000000000000000000000000000000000F
:1061900000000000000000000000000000000000FF
:1061A00000000000000000000000000000000000EF
:1061B00000000000000000000000000000000000DF
:1061C00000000000000000000000000000000000CF
:1061D00000000000000000000000000000000000BF
:1061E00000000000000000000000000000000000AF
:1061F000000000000000000000000000000000009F
:10620000354936480A1A02D0072291438D4634494F
:1062100034480A1A06D00722914381F309880222E2
:1062200082F3148830483149314A00F044F831484B
:106230003149324A00F03FF831483249324A00F0E1
:106240003AF832483249334A00F035F83248334997
:10625000334A00F030F833483349344A00F02BF821
:1062600033483449344A00F026F83448344900228F
:1062700000F02CF833483449002200F027F8334866
:106280003349091A082902DB002202604160314AC1
:1062900090471F481F49884205D00268043003B464
:1062A000904703BCF7E700208646EC46002000211B
:1062B000294A9047FEE7884207D0521A05D0037852
:1062C00001300B700131013AF9D17047884202D098
:1062D00002700130FAE770470000012000E0002062
:1062E0000000012000000120D431030074220020AE
:1062F00074230020D0630200D0630200A0080300D2
:10630000D43103007422002074220020340A0300D8
:10631000340A0300340A0300340A0300340A030079
:10632000340A0300340A0300340A0300D4310300A2
:10633000D43203007423002074230020742300202F
:106340008C3500208C3500208C3500208C350020C9
:106350008C5500209D63020071B30200FEE7FEE74A
:10636000FEE7FEE7FEE7FEE7FEE7FEE7FEE7FEE705
:1063700000F002B8FFF7FCBF0F484FF00701884359
:1063800085460E4880470E48016841F4700101605F
:10639000BFF34F8FBFF36F8FFFF732BF09480A4932
:1063A0000A4A884207D0521A05D0037801300B7090
:1063B0000131013AF9D1704700000120E56E020079
:1063C00088ED00E0200A03006022002074220020F3
:1063D000F0B595B01D46164608460C4603F05AFA2D
:1063E0001A9B0D93CDE9086500252B46082205A9C7
:1063F00020460A958DF82C500C9503F067FA079B00
:106400000293069B03939DF814308DF8115003F00E
:106410000302012A1DD1BDF81420059DC3F3C20358
:10642000C2F383168DF81030B20008230EA920465F
:1064300003F04CFAC5F3952508AB0093324602AB46
:106440000EA9284600F0C8FB204603F027FA15B035
:10645000F0BD022AF8D1BDF81650C3F3C203C5F34C
:1064600089158DF810300827082D2E4628BF0826DC
:106470003B4632460EA9204603F028FAAD1B08AB76
:1064800002AA31460EA8374400F00AFC002DEBD1D9
:10649000DAE70000014B01221A707047B523002093
:1064A0007047000070B50E4D06460FCD88B06C46A3
:1064B0000FC495E80F00002E84E80F00094A0A482F
:1064C0004FF0060308BF00226946009303F000FC6A
:1064D00008B100F0C5FF054B1E7008B070BD00BFCD
:1064E000340A030095640200742200207423002003
:1064F00007B5044B0093044A4023FFF769FF03B03C
:106500005DF804FB0D6502007523002038B50D48C9
:106510000D4C0E4D002323700378EB5CD2B263B1B7
:10652000043004F0E3FA08B100F09AFF084B1A783F
:1065300012B12378002BFBD038BD0C3004F084F866
:10654000F1E700BF74220020B5230020082C0020B2
:106550007423002008B50848084A0378D35C3BB18F
:10656000043004F027FABDE808400020FFF79ABF86
:106570000C3003F0F3FFF6E774220020082C002013
:106580000120FFF78FBF000008B5FFF7F9FF0448AF
:10659000042100F08BFA034B01225A7108BD00BFA1
:1065A000FC09030088220020037813F0040216D0AF
:1065B00003F00303012B03D0022B09D00120704705
:1065C0000A6800880232C0F3831002440A60F5E7CB
:1065D0000B684288023303EB92130B60EEE7104620
:1065E000704700002DE9F04FDFF81CA187B00F467F
:1065F00000230446861C0DF1070015468DF8073070
:1066000001F08AF9DAF804203A60DAF8083003F584
:1066100080739B1A0AF21C470AF583690AF2144830
:10662000B3421AD30020002D69D004F00F039B0160
:1066300043F0050363F30F00DAF80430DAB20332F3
:1066400033444AF822009DF80700CAF8043001F0EC
:1066500087F9012007B0BDE8F08F0121384602F02C
:1066600085FB484602F09DFB404602F09AFBDAF8B3
:1066700008000290C0B203300AEB800002A9FFF7C5
:1066800093FF029B30BBDAB20AEB8202D16803911E
:106690009A1C0133DBB20AEB83030292D3F80CB0ED
:1066A00001F00303012B22D0022B15D08346404674
:1066B00002F07AFB10B1029BCAF8083059463846FE
:1066C00002F054FBDAF80830DAF8042003F580739E
:1066D0009B1AA5E7D8B2CEE7BDF80E30C3F38913F5
:1066E00003334FEA1B4B02EB93030293DFE7BDF842
:1066F0000C30C3F383134FEA1B4B1344F5E7A40597
:1067000044F0060098E700BF88240020064B0748A5
:1067100010B500221A7003F076F8044610B9044848
:1067200003F094F9204610BD882400200C0A0300D1
:10673000880A030030B50A4C71B10A4A0A49121B93
:10674000D20800239A4201D1002030BD31F82350F5
:10675000854202D00133F5E7034654F83300F4E7ED
:1067600004090300CC09030060220020094B013911
:1067700003EBC000032909D8DFE801F00A02040690
:1067800004207047007970474079704700207047B7
:10679000022070470409030070470000034BD3E94F
:1067A0000130C31A58425841704700BF8824002066
:1067B0002DE9F04186B0FFF7F1FF0546002840F0D3
:1067C000ED80774CC4F81804BFF34F8FA368029391
:1067D000DBB2033304EB830002A9FFF7E5FE029B63
:1067E00018B1D4F81824002A5AD0DAB2991C01330F
:1067F00004EB8202DBB204EB8303D268DB68049310
:1068000002F00303022B0392029154D1BDF80E3023
:106810006448C3F38917502F3E4628BF502606F11F
:10682000080166F38F13C1F30901ADF80E3003F0D0
:1068300002F80546002800F09C8003F02BF80023A6
:10684000082203A9284603F037F80299CB43DBB2AC
:106850000133C9B20331B6EB830F4FEA830204EB75
:10686000810125D95FFA82F80823A6EB080628469D
:1068700003F022F8F6B208F108034B4903F0FC03D9
:106880003246284603F018F8029B033703EB9707BC
:106890000297D4F81834002B43D1D4F8106453E095
:1068A00062689A4294D8A260284606B0BDE8F0819A
:1068B00008233246E5E7012B5BD1BDF80C3039489F
:1068C000C3F38311062928BF062161F3891302311E
:1068D00001F00F018900ADF80C3002F0ACFF054665
:1068E000002846D002F0D6FF0023082203A928463C
:1068F00002F0E2FF0026BDF80C20C2F38312B300C1
:10690000964203F10803C4D202994A1CC9B203316A
:10691000029204EB81010422284602F0CDFF0136E9
:10692000E9E7284602F0BAFFFFF738FF80F00100E0
:10693000C5B2B9E7F3685B7923B1336829461B68B0
:1069400030469847F3681E68002EF3D1284602F0BF
:10695000A5FF0DF107008DF8076000F0DDFFD4F80A
:1069600018340BB9029BA3609DF8070000F0F8FFF4
:10697000DAE7D4F8104454B90C4B0D480D49C01A4D
:10698000C008000440F0020000F05EF8CCE7236885
:1069900020469B689847E3681C68ECE7002583E77E
:1069A000882400200C0A030094240020040903001A
:1069B0002C090300710A03002DE9F34704460E4633
:1069C000924601A9012218469946FFF70BFE1C4F7B
:1069D00010B3019D4FF00008AA1CC84508EB020146
:1069E00025D11848002102F07AF980F31000000444
:1069F00040EA1440E4006B1C04F03804DBB2EDB252
:106A000044F0010407EB8303033544EA881444EAA5
:106A10008624D86047F825403B781BB1FFF7C8FEB5
:106A20000028FBD1FFF7B8FE02B0BDE8F087C9B27D
:106A300007EB81015AF82830CB6008F10108CCE758
:106A400088240020A428002000231A46FFF7B4BFA2
:106A500007B50123019201AAFFF7AEFF03B05DF86D
:106A600004FB07B5CDE9002302236A46FFF7A4FF24
:106A700003B05DF804FB1FB5CDE90123069B03932A
:106A800001AA0323FFF798FF05B05DF804FB1FB5CB
:106A9000CDE90023069B0293079B03936A460423D8
:106AA000FFF78AFF05B05DF804FB000030B50F4C1E
:106AB000D4F8102403460020114631B9D968087172
:106AC0004AB9C4F810340A6030BDC9680D798542EE
:106AD00006D00968F1E7D26814680C601360F3E728
:106AE00001300A28E8D14FF0FF30EDE7882400207C
:106AF00038B5084B0125D3F810441D7004B938BDD2
:106B0000E3685D71236820465B689847E3681C680A
:106B1000F4E700BF8824002030B5C38885B0044660
:106B20000D4633B1144A00921449154A284602F022
:106B30009EF9217A05291DD0637A4BB1A088FFF711
:106B400015FE104B104953F82020284602F08FF90B
:106B5000227A0E4BA08853F8222003920021FFF7DF
:106B6000E9FD039A0A490346284605B0BDE83040CE
:106B700002F07DB905B030BDB40A03009C0A0300E1
:106B8000940A0300200B03001B240300440B0300A2
:106B9000B90A030007B503460846197A052911D03A
:106BA0005B7A2BB1094A0A49019002F060F9019819
:106BB0000849019002F05BF9019803B05DF804EB1D
:106BC00002F04AB9002AF8D0F2E700BFB40A030085
:106BD0001B240300B10A03002DE9F04385B01F46D2
:106BE0000C9D002395F80C902B7306460C4690469E
:106BF00029463846FFF790FFB8F1060F09D8DFE8BD
:106C000008F00412181F283340003146284602F0CD
:106C10002EF9002229463846FFF7BCFF85F80C9074
:106C200005B0BDE8F08322683146284602F01FF91E
:106C3000EFE7D4E900233146284602F018F9E8E7E7
:106C4000A36800933146D4E90023284602F00FF9E7
:106C5000DFE7E3680193A36800933146D4E900239A
:106C6000284602F004F9D4E723690293E36801930C
:106C7000A36800933146D4E90023284602F0F7F8D0
:106C8000C7E76369039323690293E3680193A368E9
:106C900000933146D4E90023284602F0E8F8B8E72B
:106CA00008292DE9F74F80460E4617461C463CD86A
:106CB000002593F80C901D7319461046FFF72CFF22
:106CC000DFF888A0DFF888B0AE4231D918F8052087
:106CD0005946204602F0CBF80135082DF4D1194968
:106CE000194DDFF870A0204602F0C1F84FF0000BFC
:106CF0005E4522D918F80B207E2A05D8104601924D
:106D000009F006FD019A00B92E225146204602F0F4
:106D1000AEF80BF1010BBBF1080FE9D101222146BE
:106D20003846FFF737FF84F80C9003B0BDE8F08FCA
:106D30005146204602F09BF8CEE72946204602F055
:106D400096F8E6E7CD0A0300CB0A0300C90A030060
:106D5000C30A0300CF0A0300054A4FF0A043105CAA
:106D6000D3F8043523FA00F0C04300F00100704767
:106D70005C0B0300044B1A5C012393404FF0A042CC
:106D8000C2F80C35704700BF5C0B0300044B1A5C63
:106D9000012393404FF0A042C2F80835704700BF6E
:106DA0005C0B030008B50020FFF7F0FF0120FFF7A0
:106DB000EDFF0220FFF7EAFFBDE808400320FFF7E0
:106DC000E5BF08B50020FFF7D5FF0120FFF7D2FF90
:106DD0000220FFF7CFFFBDE808400320FFF7CABF3E
:106DE000074A4FF0A041105CD1F8043501228240DF
:106DF00022EA03001340C1F80805C1F80C357047BA
:106E00005C0B0300054A4FF0A043105CD3F810352B
:106E100023FA00F0C04300F001007047580B030054
:106E20000D2809D00E2809D00F2809D010280CBF32
:106E300003204FF0FF30704700207047012070475B
:106E400002207047014B185C704700BF580B0300CD
:106E5000C20708B501460CD54FF0A0430322C3F882
:106E60004427C3F84827C3F84C27C3F85027FFF737
:106E700099FF8B070AD54FF0A0430C22C3F83427A3
:106E8000C3F83827C3F83C27C3F8402708BD4FF0A4
:106E90008053D3F83001421C04BF4FF0704393F885
:106EA000E00F831F58425841704700004FF0704375
:106EB00093F8E02F062A09D1D3F8E83FC3F3031370
:106EC000033B042B02D8024AD05C70470020704775
:106ED0006F0B0300024AD2F80034002BFBD070473E
:106EE00000E0014010B5FFF7D2FF40B14FF08053F2
:106EF000944AD3F82433C3F30423C2F84035FFF790
:106F0000D5FF10B1904B914A5A67FFF7C0FF48B1C7
:106F10004FF080534FF08042D3F84432C3F34233F2
:106F2000C2F83C35FFF7C2FF30B1894AD2F8FC30D5
:106F300023F08073C2F8FC30FFF7A9FF40B14FF097
:106F400080430022C3F80C21C3F81021C3F8382570
:106F5000FFF7ACFF20B14FF080430322C3F8A02518
:106F6000FFF7A4FF60B17B4B0522C3F81026012276
:106F7000C3F888260022C3F818263F22C3F8142637
:106F80004FF08053D3F83021511C09BF4FF07043AC
:106F9000D3F8343193F8E02FD3F8E83F08BFC3F3B8
:106FA0000313062A4DD1033B042B03D86A4AD35C52
:106FB000002B46D04FF08052684BD2F80414C3F82F
:106FC0002015D2F80814C3F82415D2F80C14C3F80D
:106FD0002815D2F81014C3F82C15D2F81414C3F8DD
:106FE0003015D2F81814C3F83415D2F81C14C3F8AD
:106FF0004015D2F82014C3F84415D2F82414C3F86D
:107000004815D2F82814C3F84C15D2F82C14C3F83C
:107010005015D2F83014C3F85415D2F83414C3F80C
:107020006015D2F83814C3F86415D2F83C14C3F8CC
:107030006815D2F84014C3F86C15D2F84424C3F88C
:107040007025FFF724FF48B14FF080534FF0804286
:10705000D3F8583203F04F03C2F8E43EFFF717FFAE
:1070600048B14FF08043D3F80024D20744BF6FF0FB
:107070000102C3F800244FF08053D3F83021062AD0
:107080000ED1D3F83431033B042B02D8344AD35CFD
:1070900033B1344AD2F83C3743F48063C2F83C370A
:1070A0002B4AD2F8883043F47003C2F88830BFF31B
:1070B0004F8FBFF36F8F4FF08053D3F83021062AE4
:1070C0000FD1D3F83431033B042B02D8264AD35CCA
:1070D0003BB14FF01023D3F808224FF08043C3F8A0
:1070E00058254FF01023D3F80022002A03DBD3F8F1
:1070F0000432002B22DA1D4901234FF01020C1F881
:1071000004351524FFF7E6FEC0F80042FFF7E2FE63
:10711000C0F80442FFF7DEFE0023C1F80435FFF794
:10712000D9FEBFF34F8F0A49114BCA6802F4E062DF
:107130001343CB60BFF34F8F00BFFDE70D4B0E4AEB
:107140001A6010BD0030014000C007400DF0ADBA1C
:1071500000ED00E000500040600B030000C0004064
:10716000650B0300001000406A0B030000E00140C3
:107170000400FA05902200200090D003C30710B548
:1071800007D4F023054A4008145C234019431154E6
:1071900010BD0901C9B20F23F4E700BF5029002038
:1071A00030B5094B1C78094B196800239C4202DC5E
:1071B0000022104630BD11F83350854201EBC30266
:1071C000F7D00133F2E700BF4029002060290020FA
:1071D00013B504460191FFF7E3FF38B143682BB1C3
:1071E0000199204602B0BDE81040184702B010BD1A
:1071F000034B044819680022490800F055BA00BF43
:10720000442900209822002010B5C0B2FFF7C8FF23
:107210000446007802F02CFF63785A1E5342534113
:10722000834208D1044BD3E90023134303D1BDE8C3
:107230001040FFF7DDBF10BD4829002037B54308D7
:10724000374AD35CC2074CBF1B0903F00F03044647
:107250000D46042B25D8DFE803F003262F3C400021
:10726000F9B10121FFF78AFF00230DF107008DF826
:10727000073000F051FB0120A4F12003C4F12001EC
:10728000284A20FA01F100FA03F30B43A040D2E9A7
:10729000004120430B43C2E900039DF8070000F0C2
:1072A0005FFB03B030BD002918BF0221204603B0A8
:1072B000BDE83040FFF762BF49B10321FFF75EFF31
:1072C0000121204603B0BDE83040FFF781BF012116
:1072D000ECE70029E5D10421E8E709B10321E5E75E
:1072E000FFF74CFF29462046FFF772FF0DF107001C
:1072F0008DF8075000F010FB0120A4F12003C4F129
:107300002001084A20FA01F100FA03F30B43A040E0
:10731000D2E9004124EA000021EA0303BBE700BFF1
:1073200050290020482900202DE9F041124E134F2A
:1073300000243378A34208DC114BD3E90023134324
:1073400018D0BDE8F041FFF753BF3D6805EBC40816
:1073500015F8340002F08CFE98F801305A1E5342A2
:107360005341181A4142414115F83400FFF766FFB6
:107370000134DEE7BDE8F0814029002060290020CB
:1073800048290020092AF7B505460C4616463ED97D
:1073900002F0A6FDE8B11F4B1F481D601F4B204F98
:1073A0001C70204B002110221E6009F016FA1E4BA3
:1073B00000200021C3E90001013CE4B20326FF2CB8
:1073C0000DD11A4A1A48002103B0BDE8F04000F080
:1073D00059B902F047FD0028DDD003B0F0BD9DF89B
:1073E000063015F834008DF8046005EBC40223F074
:1073F00007038DF8063001A993788DF805303A46D9
:1074000002F078FD013CE4B20028D8D0E5E707207F
:10741000E3E700BF60290020502900204029002018
:107420000972020044290020482900202973020023
:10743000800B030070B5084D084E00242B789C4249
:1074400001D3002070BD3368012113F8340002F02D
:10745000C9FD0134F2E700BF402900206029002067
:107460001FB50021039001AA44F20100CDE90111EA
:1074700000F004F805B05DF804FB000038B572B602
:10748000FFF736FBFFF794F90028FBD1104B114CA6
:10749000114D1249E41AE408240444F00100FFF7F6
:1074A000D3FAD5F8F030DB0700D500BE0C4944F024
:1074B0000200FFF7C9FABFF34F8FEA68094B02F4E5
:1074C000E0621343EB60BFF34F8F00BFFDE700BFE7
:1074D000040903002C09030000ED00E0840B030005
:1074E000900B03000400FA0510B5D0E90243D1E97E
:1074F0000202A04272EB03032CBF0120002010BD4A
:1075000008B50A4800F05FFB094AD2E90031C0180B
:10751000084BD3E9002341F10001904271EB0303D2
:1075200003D210F1807041F1000108BDB8220020A3
:1075300068290020E029002037B505460C460A4896
:1075400001A901F000FB60B10570446001A9064883
:1075500001F023FB18B1054800F03AFB002003B00E
:1075600030BD0420FBE700BFCC290020B82200205A
:10757000294B73B51E7804461EB90026304602B06A
:1075800070BD0028F9D0FFF7BBFFD4E90223904279
:10759000994139D300230DF107008DF8073000F031
:1075A000BBF923692BB94FF0FF324FF0FF33C4E929
:1075B00002239DF8070000F0D3F9D4E9053098477D
:1075C00000250DF107008DF8075000F0A5F923699B
:1075D000C3B1D4E90212B2F1FF3F08BFB1F1FF3FDE
:1075E00005D05B1842F10002C4E9023235469DF82D
:1075F000070000F0B5F9002DBFD00848214602F081
:1076000044FABBE71D46F2E7B3F1FF3F08BFB2F112
:10761000FF3FB2D0F1E700BF70290020AC0B0300A0
:1076200013B5114B114918680190082310485822CE
:1076300001F054FA044698B90E4A0F4801A900F027
:10764000B3F9044660B90C48012100F09FFA012308
:107650000A4A0948194600F001FA094B01221A703A
:10766000204602B010BD00BFA80B03007429002003
:10767000CC29002061770200B8220020FFFF7F00A4
:107680007029002030B56AB103684FF0FF344FF025
:10769000FF355A614A1E5142C3E902455141196101
:1076A000002030BD0720FCE7F7B5044600250DF1AA
:1076B000070017460E468DF8075000F02DF9D4E963
:1076C0000223B3F1FF3F08BFB2F1FF3F07D1FFF73D
:1076D00017FF301841F10001C4E9020101259DF8AE
:1076E000070000F03DF955B12369A76103B1266198
:1076F0002146002003B0BDE8F040FFF71DBF28463B
:1077000003B0F0BD37B5054600240DF107008DF834
:10771000074000F001F9D5E90223B3F1FF3F08BFAC
:10772000B2F1FF3F1FBF4FF0FF324FF0FF33C5E90B
:10773000022301249DF8070000F012F934B1294614
:10774000012003B0BDE83040FFF7F6BE204603B08D
:1077500030BD0000014800F036BA00BFB82200205A
:107760002DE9F743064600F019FA40B1624AD2E922
:10777000003113F1807341F10001C2E900310021B1
:10778000304600F01AFA38B15C4C236823B1206807
:10779000FFF7EEFE002323600121304600F00DFAD2
:1077A00020B1FFF7ADFE564BC3E900015548534CDD
:1077B00001A901F002FA4FF0FF384FF0FF39A0B9EC
:1077C000DFF844814D4D404602F075F9002800F085
:1077D0008580D0E90223B3F1FF3F08BFB2F1FF3F3C
:1077E00032D1404602F061F9EDE70378012B20D059
:1077F000022B08D1444D284602F057F9002877D0D3
:10780000C0E90289F7E75BB94168D1E90223B3F126
:10781000FF3F08BFB2F1FF3F02D03B4802F035F90D
:1078200001A9384801F0F4F901A9364801F0C5F979
:10783000C5E741682368994202D100232360EFE73E
:10784000314802F03BF9EBE7296891B12968D1E9A9
:10785000020182428B412FD22B68D3E90223B3F17C
:10786000FF3F08BFB2F1FF3F03D02968404602F056
:107870000CF9404602F019F9D0E902490746FFF732
:107880003FFE201A69EB0109012879F1000318DB9A
:10789000B0F5350F13D3FFF75DFF1C4A02441C48B7
:1078A0004FF49603002100F0F9F890B92B6813B952
:1078B000304600F0CBF82F6003B0BDE8F0832246DD
:1078C000EDE71348002100F06EF93846FFF750FE4F
:1078D00001E00D28F9D000232B6074E7074B1B68EB
:1078E000002BE9D1304603B0BDE8F04300F0B2B858
:1078F000084B01221A7093E768290020E82900202C
:10790000E0290020CC290020AC0B0300FFFFB400CD
:10791000B82200207029002070B5EFF3108672B6EF
:107920000C4A946801239CB993600B4B0B4DD3F820
:10793000801029401160C3F88050D3F88410516042
:107940004FF0FF32C3F88420047006B962B670BDF0
:107950000370FAE7EC29002000E100E0FC06FFBD1F
:10796000084B9A6810B55AB150B9EFF3108172B64E
:10797000054A1C6814605C685460986001B962B67E
:1079800010BD00BFEC29002000E100E0435882B0A8
:107990003BB10023435043580193019B012002B0A7
:1079A00070471846FBE70000F8B5204B4479204E9D
:1079B00043F824201F4A204B06EBC4049B1A22796B
:1079C000DB081B0432B143F002001C49FFF73CF80E
:1079D0000820F8BD02680C88C2F8084590F90450E8
:1079E0008A7804795201002DD2B219DB14494F195B
:1079F00087F8002301226D0904F01F0402FA04F441
:107A000041F82540427906EBC201012446F83200D4
:107A10000C7143F003000B49FFF716F80020D8E77C
:107A2000094904F00F040A55ECE700BF002A0020C2
:107A3000F8290020040903003C090300B80B0300E7
:107A400000E100E0DA0B030014ED00E0036801221E
:107A50001A607047036801225A60704773B501F1DC
:107A60005005AD000068ADB24FF480348C40002664
:107A7000C0F80843C0F84843465101F5A87145597C
:107A8000019522F07F42019D40F82120C0F8444337
:107A90000BB1C0F8044302B070BD00002DE9F74FF0
:107AA0000D4622F07F4402684FF4803705F15006FE
:107AB0008F408046B60002EB8500C2F84873B6B22C
:107AC000C2F80873D2F8041599464FF0000BD0F8AD
:107AD0004035C0F8401542F806B05B1A9259009242
:107AE00023F07F43012B009A4FEA850A0CD1264BE5
:107AF0004FF4806043F001039847D8F8003043F812
:107B000006B09B590193019BD8F80010D1F8046589
:107B1000C1F84473A31B23F07F43012B1CD11A4BE4
:107B200005F5A875013443F0010341F825404FF4F1
:107B300080609847D8F80030D3F804359E4209D1C8
:107B4000D8F800300020C3F84473C3F8047303B0BE
:107B5000BDE8F08F0D20FAE78A44C9F1FF13CAF897
:107B60004045D1F80405221A013A22F07F4203F57C
:107B70007F439342EED3002AE2D10134CAF8404554
:107B8000D1F804359842DAE7F00B030003680222CB
:107B9000C3F8442309B1C3F80423704700684FF4C5
:107BA0008271FFF7F3BE4FF4803303FA01F10368EB
:107BB000C3F84813C3F808137047503189000068B0
:107BC00089B2FFF7E3BE0368D3F8040570470000ED
:107BD00090F90430002B09DB5A09012103F01F033F
:107BE00001FA03F34032024941F82230704700BFE6
:107BF00000E100E0024B034A1B681068184700BF11
:107C0000002A0020F829002070B5064D0646002401
:107C100055F8043B0BB1304698470134042CF7D19A
:107C200070BD00BF102A00204388033300EB83039C
:107C300099420BD382884FF6FF739A4208D003888B
:107C400033B18068431C5842584170470220704746
:107C500001207047033080B240F2FE33984230B5C5
:107C60001FD8134B1A783AB91C895D892C440444F7
:107C7000A4B2B4F5806F0AD91A7DAAB99A8BDC8BAD
:107C80002244024492B2B2F5806F0DD801220A80DC
:107C90001446142202FB04335A89104458810020F0
:107CA00030BD48F20860FBE748F20660F8E700BF25
:107CB000442A00200B4A0C495388142000FB03116E
:107CC000CB6833B90420496810700122074801F0DD
:107CD00063BB07490523137002238B8001220968C7
:107CE0000023F3E7282A0020442A002060220020F5
:107CF0000C2B002007B5002305490093054A0968AD
:107D00000548082301F0AEFA03B05DF804FB00BF9C
:107D10000C2B0020040C03006022002007B5002378
:107D200001460093034A0448082301F09BFA03B07C
:107D30005DF804FBFC0B03006022002013B5002358
:107D40000C4600930146084A0848042301F08AFAC9
:107D500038B9074B142101FB043101230B7402B025
:107D600010BD48F20D60FAE7F80B03006022002016
:107D7000442A002037B50A480A4B42689C88196893
:107D800053880325033305709BB2002000909B00AD
:107D900001EB8401044801F065FA03B030BD00BF77
:107DA000282A00200C2B00206022002010B501465C
:107DB000044800F0C8FE1C220446002108F00DFD16
:107DC000204610BDF82A002068B10268084B9A428C
:107DD00009D14068074B984207D00133984214BF3D
:107DE000032001207047032070470020704700BF28
:107DF000DEC0ADDEFE011EF12DE9F0410D4602238D
:107E0000154F2B80164600F5805100F108044FF005
:107E100001088C420ED2236801330BD02046FFF7B5
:107E200003FF48B10EB186F80080022809D14FF453
:107E300080632B80BDE8F081A3683A68934200D943
:107E40003B602B886288033313442B8063880333A1
:107E500004EB8304DDE700BF3C2A002038B5144B57
:107E600014220D4602FB00302B68446804F5805153
:107E7000A3B15C88033403EB84048C4215D22368DD
:107E8000013312D02046FFF7CFFE012808D0022888
:107E90000BD00028F1D12C60012038BD0834ECE76C
:107EA0006388033304EB8304E7E70020F5E700BFB2
:107EB000442A0020426873B504460D466AB3234B3A
:107EC000D9688A4229D31B699A4226D812F0030343
:107ED00023D11F490089098988421ED120689168F1
:107EE00088421AD11B4841688A4203D901F5805162
:107EF0008A420DD381698A420CD901F580518A42A8
:107F000008D201222A80B3FA83F0400902B070BD82
:107F10001A46F7E748F20963F5E700262E80019636
:107F2000288801A9FFF79AFF30B92B8801339BB24B
:107F3000012B2B80F3D9E9E7019B226899689142D4
:107F4000EED16360024B1B892381DFE760220020B2
:107F5000282A0020442A00202DE9F8431C461D4B06
:107F60001B7806460F46154673B382B37CB3DFF821
:107F70006C804FF01409A388012B02D948F20960E4
:107F800020E009FB03F318F803302BB9A088214641
:107F9000FFF764FF20B92060A3880133A380EAE7DC
:107FA00023681EB1998832889142EFD11FB1198898
:107FB0003A889142EAD19A68C5E90023064B1B89A9
:107FC0002B810020BDE8F88348F20160FAE748F20F
:107FD0000460F7E7202A0020282A0020442A0020F5
:107FE00008B5074B5888191DFFF738FF18B1BDE8D1
:107FF0000840FFF7BFBEBDE80840FFF75BBE00BF0B
:10800000282A00202DE9F0479F4FDFF8A08288B092
:1080100006463B6823B99D48414600F0CEFD3860D6
:108020003D6829784B1E052B07D8DFE813F02000A8
:1080300074007400060106015E0148F20E64142209
:10804000002103A808F0C9FB41F61D539C4208BF5C
:1080500000243B6804941A78023A042A00F2FC8156
:10806000DFE812F0DD01E9010B0213021A022EB162
:10807000874B00225A604FF40644E0E72B79032B2C
:108080001CD8DFE803F014022A35824A1378022B49
:108090001AD0137D022B4FF0010317D114214B434B
:1080A000D1180020D0544868FFF738FE03E00123C0
:1080B0002B71FFF71FFE002800F0B980744B0022DF
:1080C0005A6048F20D64BAE70023E7E7704A13707C
:1080D0000023536041F61D54B1E76F496F480023F8
:1080E00002222B718A800968012201F055F9E2E72A
:1080F0006B4B684C5B88684A14214B43E11800269F
:108100002E714D6810681560958848600D810221B8
:10811000E6549180C8E7B5F814A0AA7DDFF8749101
:10812000AEB1022AEB8806D9142101FB0A91DA1CB0
:10813000088902440A81142202FB0A99C3F57F438D
:10814000B9F80A20FD331344A9F80A3093E7142341
:1081500003FB0A9318895C6804EB8004062A69D83B
:10816000DFE802F0274E36441D5A040041F61D5444
:10817000AA7DEB88022A06D9142101FB0A91DA1C98
:10818000088902440A81142202FB0A99C3F57F433D
:10819000B9F80A20FD331344A9F80A304FE74148E3
:1081A000414900234360AB690360FFF783FE002869
:1081B0005BD00223AB75002300930423EA18214609
:1081C000364801F04FF8002831D048F20D64CFE76F
:1081D0002B69002B14BF03230123AB7500230093ED
:1081E00005F10C02042304F10801E9E70123AB7552
:1081F0000022EB8800922A699B0004F10C01DFE762
:1082000003290CBF05230623AB7500230093042329
:1082100005F10802E118D3E70623AB75224B198854
:10822000204B5868FFF78AFD04460028A0D108B00B
:10823000BDE8F08748F20E649AE7002E7FF41BAF8A
:108240002B79012B34D0022B3FF444AF002B7FF469
:10825000F4AE02232B710DF10A01EB68039303A81E
:10826000CDE90466FFF726FE10B948F20964E6E698
:108270000498BDF80A108388EB8003882B81FFF7F0
:108280005DFD044627E000BF402A0020F82A0020B8
:10829000202A0020442A00200C2B002060220020ED
:1082A000282A0020042A0020182B0020382A002029
:1082B0007B4B03AA3146A81DFFF74EFE784B0446C0
:1082C00068B999880498FFF739FD044648F20963B4
:1082D0009C423FF4FFAE002C7FF4B1AEA7E708222A
:1082E0003146184608F079FAF0E7002E7FF4C3AE65
:1082F0006C4B1A7BB2B11E731A78013A062A3FF60C
:108300009CAE01A151F822F0B3830200D983020090
:10831000F7830200FD8302003B8002000384020019
:10832000158402001A78072AE6D801A151F822F034
:1083300051830200F9820200F98202007783020071
:108340008B830200AF830200AF83020073830200BD
:108350001A89554901321A8100225A801A730A7803
:10836000B2FA82F252099A720A7DB2FA82F2520984
:10837000DA72012207E04D4958688A884088033242
:1083800002448A8002221A70B6E75C88464A47494E
:10839000142505FB04220868546850608888108101
:1083A00002200C608880002111740622EBE707226E
:1083B000E9E79A7A32B9DA7A8AB900221A705A80D1
:1083C0005A6087E6384900229A72CA68002AF2D1B8
:1083D000097C0029EFD05A80FFF702FE51E7002206
:1083E000DA72314A116A0029E7D192F82420002A72
:1083F000E3D00122EFE7FFF7BDFC42E7FFF75AFCAD
:108400003FE75A88284B142101FB02335868FFF7D5
:1084100085FC36E700225A60FFF76CFC31E7012249
:108420008DF80C201A89ADF818209A88DB68ADF811
:108430001A20059310E002228DF80C201A89ADF85D
:1084400018209A88ADF81A20DA689B7D05929A1F49
:10845000534253418DF81C3003A8FFF7D5FB00268B
:10846000414613483E6000F0D3FB1248012100F062
:1084700089FC00287FF4CDADD9E603228DF80C20CD
:10848000DA88ADF818201A89D0E704228DF80C207C
:10849000DB88ADF81830DFE705238DF80C30DBE71B
:1084A0001C2B0020282A0020442A00200C2B00200E
:1084B000F82A0020082B00204068FFF7A3BD000029
:1084C00008B50548012100F045FC18B9BDE8084091
:1084D000FFF798BD08BD00BF082B00202DE9F34130
:1084E0009846374B1B7806460D46002B5CD000297A
:1084F0005DD009884FF6FF7399425BD06B88002BE3
:1085000058D06B689B0758D14AB92F890DF10201E9
:108510003846FFF79FFB30B102B0BDE8F081138809
:108520005788ADF8023001A8FFF740FC044660B957
:10853000BDF80220234B142101FB02335889033874
:10854000C01B588148F20760E6E780F800800023EE
:108550008375BDF8023083826B68036101211A487C
:1085600000F004FC2B882381B8F1030F6B88A380F3
:1085700004BF0423A3754FF0000508BF3368E06013
:1085800008BFA3611148E780658101A900F005FBE0
:1085900036B1E36833600E4B75601B89B572338169
:1085A000FFF78EFF0020B7E748F20160B4E748F21A
:1085B0000460B1E748F20360AEE748F20260ABE75F
:1085C000202A0020442A00203C2A0020F82A0020EB
:1085D000282A002008B5034607480268042A08D064
:1085E0000168064A42F82130012100F0BFFB00205B
:1085F00008BD48F20B60FBE7142B0020102A002076
:108600002DE9F04FDFF8208289B01422002103A861
:1086100008F0E3F898F8003003F0FF0200923BB155
:1086200003A8FFF7F1FA0027384609B0BDE8F08F3C
:1086300008F1040000F0B2FB0028F4D1009BDFF841
:10864000ECA1D3F8F83F5C1C08BF4FF010234FF0AB
:10865000805208BF5B6911695269581C08BF02FB50
:1086600001F3CAF810306949A3F54053002250467F
:10867000CAF80C3000F0C4FD07460028D4D11C23F2
:1086800063496448DFF8A8B18C2200F027FA03237D
:10869000B9463D4601933C46DAF80C604E443046FC
:1086A000FFF792FB012867D0032817D000283DD19F
:1086B00059494FF0140C0CFB04FC01EB0C0201F8BF
:1086C0000C0056600CF110020CF1080C0A44304604
:1086D0006144FFF791FB45F002054AE03268531C04
:1086E00002D04E4B9A4239D1321D06F580511068A6
:1086F000013033D104329142F9D1DBF800203AB98C
:1087000002220123CBF80060ABF8042000930BE0B9
:1087100014226243404B022099189854404A4E60FC
:10872000548001340881A4B245F0010509F580594F
:10873000B9F5405FB0D1019B012B98BF0025EDB288
:10874000022D03D0062D36D0002D3ED1002388F80F
:10875000003048F20A67C8F8043065E7019B2E49EB
:108760005A1E93B214226243881801934660032074
:1087700088540134A4B2D9E7009B6BB1264B142274
:108780006243991802209854DBF800204A60244A7A
:10879000088154800134A4B200222249CBF8006041
:1087A0003046FFF729FBBBF80420022A0CBF042245
:1087B00008221543BAE7012388F8003003A80023F4
:1087C000C8F80430FFF720FA2EE702A8FFF7EEFA08
:1087D000C8B10123013D03700A2D09D8DFE805F077
:1087E00006080608070807080F110F000023037189
:1087F00002A9084800F0D1F9FFF762FE14E703234D
:10880000F5E70223F3E748F207670DE7F80D0300E9
:108810006C2A0020F82A0020442A0020DEC0ADDEA9
:10882000282A0020102B0020202A0020602200206F
:108830000C2B002073B50D460446C8B1C1B10DF133
:108840000601FFF737FBB0B1BDF806300B4866688C
:10885000142202FB030001210C3000F087FA636848
:108860002E600C336B600123A372002002B070BD38
:1088700048F20460FAE748F20960F7E7442A00206A
:1088800013B50446A8B10DF10601FFF713FB98B12B
:10889000BDF806200B4B142101FB0233DA6872B1DC
:1088A000A27A62B1DA680020013ADA60A07202B0FE
:1088B00010BD48F20460FAE748F20960F7E748F2B1
:1088C0000560F4E7442A002002230022FFF706BED9
:1088D00018B103230022FFF701BE48F2046070477D
:1088E000114B1B7813B50446ABB14FF6FF7398429A
:1088F00014D001A8FFF75AFA98B105230370012399
:108900000371C48001A9094800F047F9FFF7D8FDB9
:10891000002002B010BD48F20160FAE748F203609F
:10892000F7E748F20760F4E7202A0020F82A002041
:108930000F4B1B7807B5A3B101A8FFF737FA98B121
:108940000623037001A90B4800F027F90A4B1A7897
:108950000AB101221A73FFF7B3FD002003B05DF8DE
:1089600004FB48F20160F9E748F20760F6E700BF50
:10897000202A0020F82A0020282A002007B5ADF878
:108980000600ADF804100DF1060001A9FFF7E4FAA6
:1089900003B05DF804FB07B51346ADF806000A46C0
:1089A00000200DF10601FFF7D7FA03B05DF804FBD4
:1089B00007B51346ADF806000A460DF10600002182
:1089C000FFF7CAFA03B05DF804FB20B119B10368E0
:1089D0000B600020704748F2046070472DE9F84FA3
:1089E0003C4B1B780446002B6DD000286ED0DFF87E
:1089F000E8901222002107F0F0FE032323804FF0BD
:108A0000000A4F4614264FF00108D9F80410B9F8AF
:108A10000AB0B9F808500846FFF7D6F9032808BF8E
:108A20002388628804BF03F1FF33238006FB0A73A7
:108A30005D44DB681344638023899B446389A4F805
:108A400008B0ADB22B446381C5F58065A389ADB292
:108A5000AB4238BFA58101F1080501F58051A9425B
:108A600029D92B68013326D02846FFF7DDF80128E5
:108A70000AD0022815D00028F1D1A3880133A380A1
:108A80000AE04FF0010AC0E7E3880133E380E3899D
:108A90006A8803331344E3816B88033305EB830552
:108AA000DDE7E38884F810804D1BE189013301EB99
:108AB000A501E380E18109F11409BAF1000FE0D0CA
:108AC0000020BDE8F88F48F20160FAE748F2046040
:108AD000F7E700BF202A0020442A002010B561B12A
:108AE000B2FBF3F403FB1424A4B244B9C0E90014AC
:108AF00084608281C381204610BD0E20FCE70920DE
:108B0000FAE782B050E8022FC188B2EB324F4FF043
:108B1000000317BF92B241EA014142EA014104E079
:108B20004268B2EB324F08BF012340E80212002A2C
:108B3000E8D18DF807309DF80730002B0CBF1120CD
:108B4000002002B0704737B550E8013F9DB2C4899C
:108B500025448489A54228BF2D1B0489A54202BF54
:108B6000BFF32F8F002207E0C5EA030540E8015458
:108B7000002CE9D14FF001028DF803200193019AF6
:108B80000A609DF8031001F0FF0321B1006810FA9C
:108B900082F003B030BD1846FBE70A884B889A4242
:108BA00009D150E8012FC2EA024240E80123002B1C
:108BB000F7D1012070470020704737B550E8023FD9
:108BC0001FFAA3F5C488A54202BFBFF32F8F00226E
:108BD0000DE0C48925448489A54228BF2D1BC3EA22
:108BE000054540E80254002CE8D14FF001028DF811
:108BF00003200193019A0A609DF8031001F0FF031E
:108C000021B1006800EB124003B030BD1846FBE70D
:108C10000A884B889A4209D150E8022FC2EA2242C0
:108C200040E80223002BF7D1012070470020704755
:108C300001F01F024B090121914000EB830000F07D
:108C400065B84B0910B501F01F040121A14000EBEC
:108C5000830000F04FF8E04000F0010010BD01F08B
:108C60001F0301229A404B0900EB8300D14300F01F
:108C700065B84B0901F01F0150F82300C84000F00F
:108C8000010070472DE9F0474F1E7F0980460E46D0
:108C90000137002558F8254008EB8509E44394FA8C
:108CA000A4F4B4FA84F44FEA451A202C06D1013515
:108CB000AF42EFD834462046BDE8F0875444A64280
:108CC000F5D921464046FFF7BCFF0028F3D0D9F87C
:108CD0000040E44394FAA4F4B4FA84F4E5E710B550
:108CE000034653E8000F0A4643E8002494F0000FBF
:108CF000F7D110BD10B5034653E8000F40EA01025A
:108D000043E8002494F0000FF6D110BD10B50346DF
:108D100053E8002F42EA010043E8000494F0000FFA
:108D2000F6D110BD10B5034653E8000F00EA01026A
:108D300043E8002494F0000FF6D110BD10B50346AF
:108D400053E8002F02EA010043E8000494F0000F0A
:108D5000F6D110BD10B5034653E8000F00EB010239
:108D600043E8002494F0000FF6D110BD10B503467F
:108D700053E8002F02EB010043E8000494F0000FD9
:108D8000F6D110BD10B5034653E8002FA2EB010049
:108D900043E8000494F0000FF6D110BD0121FFF765
:108DA000A9BF0121FFF7B2BF0021FFF7BBBF10B57C
:108DB00090B1D0E9012301689B1ADBB20A60013B44
:108DC000DBB2FF2B026802D10020107110BD1168C8
:108DD0004C1C14600B70F2E70E20F7E737B5054620
:108DE00000240DF107008DF80740FEF795FD2A6875
:108DF0006B68116899420ED9481E106011F8013C49
:108E0000EC68298A01FB0344AB6811791B1ADBB2B9
:108E1000994238BF13719DF80700FEF7A1FD204667
:108E200003B030BD37B5054600230DF107000C46F1
:108E30008DF80730FEF770FD2A681368591C116021
:108E4000E968641A298AB4FBF1F41C709DF80700E4
:108E5000FEF786FD03B030BD826810B504462AB126
:108E600043690168006998470023A36010BD0EB4F0
:108E700003B5039921B104AB01AA019300F076F880
:108E800002B05DF804EB03B070470A2938B5044618
:108E90000D4602D10D21FFF7F8FFA3682268591C87
:108EA000A160D554D4E901329A4204D32046BDE8EA
:108EB0003840FFF7D1BF38BD2DE9F84F9846DDE9BE
:108EC0000A43154682460F460A464FF00109AA4258
:108ED0000FD2C14538BFC14613F0010B01D16CB9A7
:108EE00000240126B8F1010F1BD908F1FF386E43A9
:108EF000F8E709F10109B2FBF5F2E8E79B070ED5A7
:108F0000B8F1000F0CBF30262026A145E9D2013C64
:108F100031465046FFF7B9FF002CF6D1E0E7202696
:108F2000F3E7B7FBF6F39D42E1D9DFF83C80B7FBEE
:108F3000F6F3504618F8031006FB1377FFF7A5FF6A
:108F40003346AB42B6FBF5F6F1D2BBF1000F02D0CF
:108F50000CB1A14501D3BDE8F88F20215046013C5A
:108F6000FFF793FFF4E700BF0C0C03002DE9F74F68
:108F7000054617468846002900F03E8118F8011B77
:108F800049B92B7B002B00F03781284603B0BDE8A0
:108F9000F04FFFF761BF252940F0B780002698F811
:108FA00000302D2B424608F1010823D0302B24D06D
:108FB0002B2B25D000242A2B02F1010123D13B6861
:108FC0001A1D1B683A601C440A4613782E2B26D1C2
:108FD00001324FF0000A104610F8011BA1F1300CCD
:108FE000BCF1090F1DD80A2303FB0A13A3F1300AB1
:108FF0000246F0E746F00106D1E746F00206CEE76A
:1090000046F00406CBE711F8013CA3F13000092833
:10901000DBD80A2202FB0434303C0A46CBE74FF08F
:10902000000A12F8011B01F0FB0068289046F8D0F6
:10903000782909D86F290CD8632962D022D825292C
:1090400063D0582900F0888098F80030002B95D123
:1090500097E770390829F7D801A353F821F000BF2A
:10906000D3910200499002004990020069910200E8
:109070004990020047910200499002004990020085
:1090800059910200642901D06929DDD13A68D2F8EA
:109090000090111D89EAE9723960A2EBE9724FF084
:1090A000010B092A35DCD34538BFD3462CB1B9F1C1
:1090B000000F01DB720700D5013CB30702D5BAF1FE
:1090C000000F03D0F00701D44CBB0024B9F1000F0E
:1090D0002DDAC9F100092D212846FFF7D6FE06F04A
:1090E0000302022A04D1BAF1000F01D11CBB0024F3
:1090F000CDE9004653460A2249462846FFF7DCFEE2
:10910000A2E73B681A1D19783A602846FFF7BDFEB2
:109110009AE70A230BF1010BB2FBF3F2C1E7A34577
:10912000D4D220212846013CFFF7AFFECCE77107DF
:10913000D5D52B21D0E7A345DAD230212846013CF2
:10914000FFF7A3FED2E73968CDE900460A1D3A6071
:1091500053460A220968D0E739680A1D3A60CDE90A
:10916000004653461022F5E73B681A1D3A6016F098
:109170000106D3F8009024D1B9F1000F03D048467E
:1091800007F05EFB0646B4421DD809F1FF3919F815
:10919000011F00293FF458AF2846FFF776FEF6E797
:1091A00028460136FFF771FE19F806100029F7D19D
:1091B000A642BFF449AF20212846013CFFF765FED7
:1091C000F6E70026F0E720212846013CFFF75DFE88
:1091D000D9E73B681A1D3A60302128461C68FFF722
:1091E00054FE78212846FFF750FE00220823CDE9DF
:1091F00000322146102280E703B0BDE8F08F00BFA7
:1092000013B50B46114680B9104B1148114AC01ACC
:109210000E23C0080093104B0004104940F00100D9
:10922000FDF729FC0E2002B010BD4BB9074B0848D2
:109230000B4AC01AC0080E2300930004064BECE74B
:1092400003601B6802B0BDE8104018470409030022
:10925000540903001C0C0300D80D0300210C03006B
:10926000500C03002DE9F743DDF8288088B93E4B08
:109270003E483F4AC01AC0080E243E4B00940004EA
:109280003D4940F00100FDF7F6FB204603B0BDE884
:10929000F0834AB9344B3548384AC01AC0080E2406
:1092A000344B00940004EBE7D0F800E0BEF1000F6F
:1092B00009D12D4B2D48324AC01AC00808242D4B25
:1092C00000940004DCE74BB9274B28482D4AC01A0C
:1092D000C0080924274B00940004D1E74568D5F85D
:1092E0000490B3FBF9F509FB15354DB11E4B1F4832
:1092F000254AC01AC00809241E4B00940004BFE789
:109300008D0709D0184B1948204AC01AC0081024EC
:10931000184B00940004B3E712F0030F09D0124B6E
:1093200012481B4AC01AC0081024124B00940004B3
:10933000A6E7C568A9420DD34D1EEC180569AC42DD
:1093400008D8CDF82880DEF80C40A44603B0BDE86C
:10935000F0436047044B05480E4AC01AC008102469
:10936000044B009400048BE7040903005409030034
:109370001C0C0300C50D0300210C03009E0C030010
:109380004A0C03005D0C0300A40C0300CE0C030088
:10939000E60C0300090D0300F7B580B92A4B2B48F2
:1093A0002B4AC01AC0080E242A4B009400042A49F4
:1093B00040F00100FDF75FFB204603B0F0BDD0F8A0
:1093C00000C0BCF1000F09D11F4B2048234AC01A2E
:1093D000C00808241F4B00940004E8E74AB91A4B60
:1093E0001A481F4AC01AC00809241A4B00940004E6
:1093F000DDE74568D5F800E00EF1FF350D4209D0F4
:10940000114B1248174AC01AC0081024114B00947F
:109410000004CCE7C568A9420CD34D1E0EFB0254D4
:109420000569AC4206D8DCF81040A44603B0BDE89C
:10943000F0406047044B05480B4AC01AC00810248E
:10944000044B00940004B2E704090300540903002C
:109450001C0C0300B20D0300210C03004A0C030096
:109460005D0C0300300D0300560D030029DF70472B
:1094700028DF704770B503689E6886B004460D46C5
:109480006EB114220021684607F0A7F9A36805937E
:10949000237901952BB1012B0DD06846B04706B05A
:1094A00070BD01238DF8003023690293E3680393B4
:1094B00063690493F1E702238DF80030E3681B032E
:1094C0000293F5E70846704700207047024B187A70
:1094D000003818BF01207047C02B0020034B187ABA
:1094E0000122B0FA80F05A7440097047C02B002066
:1094F00008B510461A4607F047F9002008BD0000DD
:1095000008B514220021044807F067F90348FFF763
:10951000F8FA002008BD00BFC02B0020B02B0020AF
:1095200010B5094C094B43602046FFF737FC40B9A2
:1095300006F0C0FE064920741C2306488C22FFF763
:10954000CDFA002010BD00BFC02B0020EC0D0300A1
:10955000242B0020B02B002038B5234D234C2B7A30
:109560003BB923492348FFF728FB206008B968600E
:1095700038BD022324682B72237973B1012B24D0C8
:1095800020460321FFF776FF00232B726B601849FA
:109590001848BDE83840FFF73BBBD4E90523D21A91
:1095A000B2F5805FD4E9031028BF4FF480529208CF
:1095B000012A38BF012219441844FFF757FF50B160
:1095C0001128DDD101232B72D2E7D4E9030318441B
:1095D000FFF74EFFF3E72B7C002BC9D1BDE83840E5
:1095E000022000F009B800BFC02B0020D82B0020BB
:1095F000D42B0020B02B002038B5234C237A002B2D
:1096000041D0022B09D1032830D0204B00221B6807
:10961000E2601A793AB1012A22D0637C7BBBBDE8B3
:109620003840FFF799BFD3E905128D1AB5F5805F71
:1096300094BF521902F580529A619142EDD10228ED
:109640004FF0000308BF19462372104B18BF0D21BD
:109650001868FFF70FFF0E490E48FFF7D9FADCE74D
:109660001A6901321A615B699A42E7E7E3680133DC
:10967000082B01D8E360D0E70023E360DFE7BDE813
:10968000384006F007BE38BDC02B0020D82B002084
:10969000D42B0020B02B0020831E012B01D8FFF714
:1096A000ABBF704700F0FD03012B08D1044B002233
:1096B0005A74421E504250411874FFF74DBF704714
:1096C000C02B002010B5064C201DFFF767FB28B902
:1096D000637C1BB9BDE81040FFF73EBF10BD00BF63
:1096E000C02B00202DE9F34180460D460F4801A90B
:1096F00016461F46FFF727FA0446A8B11C22002190
:1097000007F06BF82D0B0123237101A90748C4F85A
:109710000080A760E5606661FFF73FFAFFF7D2FFC0
:10972000002002B0BDE8F0810420FAE7B02B002051
:109730002DE9F74381468846104801A917461E4681
:10974000FFF701FA0446B0B11C22002107F045F8EA
:1097500000250A9BA36001A9C4E903780748257185
:10976000C4F800906661FFF718FAFFF7ABFF2846D0
:1097700003B0BDE8F0830420FAE700BFB02B00205F
:109780002DE9F84FB0F806A04579D2F800B09DF861
:1097900028900AFB05F5043D88460BEB0301A9421E
:1097A00003F1040488BFA5EB030BB4FBFAF60746EC
:1097B0000AFB1644C2F800B04EB9AAEB04055D4599
:1097C00028BF5D46BBF1000F04D1BDE8F88F3F68AC
:1097D000013EF1E7043408EB06003C442A46B9F1A7
:1097E000000F0DD02146ABEB050B06F0CDFFDA459F
:1097F0002E443F6855464FF0000428BF5D46E1E720
:1098000001462046EFE7FFF7D2BAF8B546790146A0
:10981000721E0546002393422D6803D30024A642FE
:1098200002D8F8BD0133F6E70F682846FFF7FAFAC9
:1098300001343946F3E72DE9F843068ACD1C074683
:10984000FFF7CCFA043E35440446B5FBF6F5F0B11B
:109850004FF48073EDB28380C680013D076081467E
:109860004FF00008A84512D23846FFF7B7FA06466F
:1098700048B163790133637108F10108C9F8000048
:1098800007608146EEE72046FFF7BFFF34462046DB
:10989000BDE8F88301210430FFF768BA10B5012153
:1098A00004460430FFF76EFAC0B220B92046BDE886
:1098B0001040FFF7AABF10BD1FB50392002200920F
:1098C00003AAFFF75DFF05B05DF804FB1FB5039227
:1098D0000122009203AAFFF753FF05B05DF804FBD5
:1098E00033DF704741DF70470D4A08B5002313701E
:1098F0000C4A1360BFF35F8F0B490C4800F0AFF8C0
:109900000B4A0C480121FDF7BDFE024630B9BDE807
:10991000084009484FF48041FDF7C6BE08BD00BFAE
:10992000E52B0020E82B0020280E0300DC2B002074
:10993000399A0200240E0300C022002007B500233C
:109940000DF107008DF80730FDF7E6FFF1EE103A54
:1099500023F09F03E1EE103ABFF35F8F0A4B4022E2
:10996000C3F884219DF80700FDF7FAFF06F0A2FC7A
:1099700020B103B05DF804EBFFF7B4BF20BF40BFD8
:1099800020BF03B05DF804FB00E100E070B5244D9A
:10999000044601212846FFF7A2F9BFF35F8F38B9CB
:1099A000042C0AD01F4B1A781AB1BFF35F8F2860BE
:1099B00070BD1D4A147001221A701C4C1A4E636847
:1099C000BBB9FDF795F8FCF7F3FE0028FBD1164B69
:1099D0001B78023B012B15D8BFF34F8F1449154B51
:1099E000CA6802F4E0621343CB60BFF34F8F00BF3D
:1099F000FDE71B68307898470028D6D0204600F055
:109A000038F8DCE706F056FC08B1FFF769FF4FF0C5
:109A100080430122C3F80025BFF34F8F20BFFDE72D
:109A2000E82B0020E52B0020E42B0020DC2B00207D
:109A300000ED00E00400FA05034B1B7813B104208D
:109A4000FFF7A4BF704700BFE52B0020836800220A
:109A50005A60C3E904229A60DA601A6070470B68A2
:109A60004A684360934208BF0023016008BF436017
:109A70007047436843B10268916852680B4493424F
:109A8000436004BF00234360704770B544680646D6
:109A90000D46206818B1B3682946984718B923685D
:109AA0002B60256070BD2468F3E74368186808B12F
:109AB00002681A60704743681868704743681868FE
:109AC00000B97047884203D102681A6001207047CC
:109AD00003460068F4E7000010B50D49A1F5947243
:109AE000914201D800200FE08C1AE30F03EBE4034E
:109AF0005B1002EBC30452F83330834205D802D224
:109B000004F10802ECE7606810BD2146E8E700BFF9
:109B10003413030008B5FFF7DFFF024B002808BF2E
:109B2000184608BDF711030038B5074C051E04F1AF
:109B3000080318BF1C4623682BB11A6822605B68B3
:109B400028469847F7E738BDF42B002020B9054B8D
:109B500001225A70FFF7E8BF012802D1014A907034
:109B6000F8E77047EC2B002020B9034B01225A7014
:109B7000FFF7DABF704700BFEC2B002038B50E4C62
:109B80002378B3B90D486360A3602361E36000F0FC
:109B9000E7F8054606F08EFB08B900F0EDF8012362
:109BA0002370074BD3F800340BB10123A370284670
:109BB00038BD8525F5E700BFEC2B00204D9B02004A
:109BC0000000014037B50D4C00230DF107008DF862
:109BD0000730FDF7A1FEE368013BE360E36833B9BA
:109BE000074BD3F8005415B900F0D8F8A5709DF8CC
:109BF0000700FDF7B5FE03B030BD00BFEC2B002021
:109C000000000140012813B50CD0032820D038B93A
:109C1000134B0122C3F88020BFF34F8FBFF36F8F28
:109C200002B010BD0F4C00230DF107008DF8073076
:109C3000FDF772FE23780BB9FFF7A0FFE3689DF8EC
:109C400007000133E3600123A370FDF789FEE7E716
:109C500000F092F802B0BDE81040FFF7B3BF00BFBC
:109C600000E100E0EC2B00201FB503788DF80030F8
:109C70004368019383688DF80830C368054A0393ED
:109C8000054B684653F8213052F82110984705B02B
:109C90005DF804FB002C0020042C00201FB5037885
:109CA0008DF800304368019383688DF80830C368ED
:109CB000054A0393054B684653F8213052F82110AA
:109CC000984705B05DF804FB002C0020042C002010
:109CD000F0B5194B90F800C091F81DE043F82C2026
:109CE000164B16460A6943F82C20154B03F80CE076
:109CF0000C4607460FCC89B06D460FC594E80F009F
:109D000085E80F00CDF810C0BEF1000F09D0002E7D
:109D10000C4A694608BF3246381D00F089FD09B07B
:109D2000F0BD002E084A694608BF324607F10C0014
:109D300000F060FBF3E700BF042C0020002C0020A3
:109D4000082C0020699C02009D9C020000F18040CC
:109D5000002382B0036003680193019B02B0704747
:109D6000044A137923B90121106091801846704785
:109D7000852070470C2C0020074B1A68D20704D4AA
:109D8000C02283F8002301221A604FF08043012291
:109D9000C3F81825704700BF00E100E04FF0804293
:109DA00008B50223C2F808334FF48270FFF7CEFFE4
:109DB0000123D360D2F81834DB03FBD408BD0000C4
:109DC0004FF0804110B5D1F8003163B14FF480708D
:109DD000FFF7BCFF0D4B58790122C1F8082310B9D9
:109DE0005A711B6898474FF08042D2F8043163B132
:109DF0004FF48270FFF7AAFF0223C2F80833034B27
:109E0000BDE810401B680120184710BD0C2C002035
:109E100000F1804000F5C040002382B00360036879
:109E20000193019B02B07047800000F1A040D0F880
:109E3000002722F44032C0F80027D0F8003743EA68
:109E40000141C0F800177047054B4FF0FF3207285B
:109E500043F8202084BFC01880F84820704700BF16
:109E6000142C002010B51A4C94F858306BBB4FF0EE
:109E7000FF3222FA03F1C90748BFE11803F10103D9
:109E800048BF81F83020202BF3D10021C8B2013126
:109E9000FFF7DAFF0C29F9D1042200210D4806F062
:109EA0009CFC0D4BC02283F8062340221A604FF41D
:109EB000BE70FFF7ADFF094B4FF00042C3F804231B
:109EC000012384F85830002010BD0820FCE700BFB3
:109ED000142C0020682C002000E100E0006000400D
:109EE000034B93F85800003818BF0120704700BF9B
:109EF000142C0020F0B5394E331893F93030002B74
:109F000069DA8D78C5F34005002D0BBF08230023C7
:109F10000C240824A34201D10420F0BD56F823707C
:109F2000013743D137185CB246F8232087F8304018
:109F300015B9F21882F848008A78550716D4D70761
:109F400036D5820002F1A042D2F8005725F0020572
:109F5000C2F80057224FC50800F0070C012202FA90
:109F60000CF217F805C042EA0C027A558A780D788F
:109F700012F0020225D09B0003F1804303F5C04399
:109F80000002D3F8102522F4473222F44072C3F8BD
:109F900010252D04D3F8102500F4F85005F44035B1
:109FA00028431043C3F810050020B6E70133B1E79A
:109FB0004D7800F5E0724FF0A047AD0047F8225011
:109FC000C8E7083C46FA84F494F8500040EA851546
:109FD00084F85050E8E708209FE700BF142C0020C9
:109FE000682C002038B5204C251895F93020072A18
:109FF00018DD083A44FA82F494F850309B09032B98
:10A000000BD14FF0A043D3F81015C14001F001016E
:10A010000231BDE83840FFF707BF012B0CBF02211A
:10A020000321F6E7D3B2072B1DD8930003F1804339
:10A0300003F5C043D3F8100540F00100C3F8100544
:10A0400002F1400040B2800080B2FFF7E1FE51B162
:10A0500095F9303054F823302BB1012303FA02F282
:10A06000024BC3F8042338BD142C002000600040CC
:10A070004FF0A043D3F8103523FA00F000F00100B0
:10A08000704700002DE9F74F00244E4D01944FF426
:10A090008072012102F1804303F5C04390B21B6836
:10A0A000012B06D1D5F804330B4202D0FFF7B0FEE6
:10A0B0000C430432B2F5907F4FEA4101EAD1414BA3
:10A0C000D3F87C31012B0CD14FF4BE70FFF7A0FE0A
:10A0D0004FF0A04344F00044D3F820250192C3F888
:10A0E0002025E3B2D3B1384F00250126344210D0E9
:10A0F000AB0003F1804303F5C043D3F81005D3F858
:10A10000101557F8253023B1C1F30141C0F30420E5
:10A1100098470135082D4FEA4606E7D1002C48DA6A
:10A12000294D4FF0A048294E4FF00009012716F99C
:10A13000013B5A1C31D0C3F3C20202A90A44DCB26B
:10A1400012F8042C03F03F0A03F0070307FA03F3A5
:10A150001A4222D00AF5E073504658F82330C3F370
:10A16000014BBBF1020F0CBF03210221FFF75CFE84
:10A1700007FA0AF3C8F8203505EB0A0393F93030E3
:10A1800055F823304BB1A109032904D0BBF1020FCC
:10A1900012D1012901D15046984709F10109B9F1BD
:10A1A000040FC4D1D8F820350193C8F82035002B0E
:10A1B000B9D103B0BDE8F08FBBF1030FEDD1022997
:10A1C000E8E700BF00600040142C0020642C002051
:10A1D000014B1B68184700BF702C00200E4B9842A3
:10A1E00037B50C4602D0002003B030BD00230DF17E
:10A1F00007008DF80730FDF78FFB084B1D7915B967
:10A2000001221C601A719DF80700FDF7A9FB002DC3
:10A21000E9D01120E8E700BF00200040702C0020AA
:10A22000034B984201BF034B00221A601A7170471A
:10A2300000200040702C00200023435082B043587F
:10A240000193019B02B070470A4610B54FF48E711E
:10A25000FFF7F2FF136A9168C95C136A0133136256
:10A26000C0F81C1510BD8B690A4610B54FF48471F7
:10A2700023B9FFF7E1FFD0F8183510BDFFF7DCFF79
:10A28000536AD168D0F81805C854536A0133536231
:10A29000F3E700001FB501238DF80030044BCDE932
:10A2A0000110D3E900126846904705B05DF804FB41
:10A2B000782C002030B54D4DD5F804339A0585B083
:10A2C00051D5D5F82431002B4DD04FF4927128464A
:10A2D000FFF7B2FF4FF40173C5F80833444B93F80E
:10A2E00029200AB901226A60404902228DF8002023
:10A2F000D1F88024C1F8802403929A690292DA6826
:10A3000001920022C3E906226846D3E90012904771
:10A310003648D0F81C315BB1354A5169136A99420D
:10A320004DD992F82830002B49D11146FFF78CFF08
:10A330002E48D0F84431002B56D04FF4A271FFF7CD
:10A340007BFF2B4B93F829200AB1012202609A6906
:10A35000002A49D0586AD96800229A6105B0BDE840
:10A360003040FFF797BFD5F804335B07D0D5D5F859
:10A370000831002BCCD01E4C1C482146FFF773FF40
:10A38000636AA2699A42C3D1E369E1684BB1A361F0
:10A390002369E3600023606AE3616362FFF77AFF89
:10A3A000B6E794F829300BB901236B600F4B4FF4DB
:10A3B0000172C3F808230023606AA361EEE70B482B
:10A3C0004FF48E71FFF738FF5369002BB0D05169FD
:10A3D0000291002391688DF8003001915361684625
:10A3E000D2E900139847A3E705B030BD0020004034
:10A3F000782C00202DE9F843534D90F804802C234D
:10A4000003FB0853064693F82A300C469146002B6E
:10A4100040F096804D490068FFF7E0FE07460028AF
:10A4200040F0908022683068511C0BD04FF0A04162
:10A4300001239340C1F8083502F5E0734FF0030C97
:10A4400041F823C061684B1C1FBF01F5E0734FF05A
:10A45000A04C4FF0000E4CF823E0A369C0F824355F
:10A4600094F814C0637DBCF1010F4CEA0303C0F8FB
:10A470006C35C0F81415C0F80C251DD1A268531C0A
:10A480001FBF02F5E0734FF0A0414FF0000C41F800
:10A4900023C0E368591C0BD04FF0A04C0121994018
:10A4A000CCF8081503F5E0714FF0030E4CF821E0ED
:10A4B000C0F80835C0F810252C2202FB08F2AB18B2
:10A4C000C3F804902369AB50B9F1000F20D04FF4CA
:10A4D0008E71247FFFF7B0FE4FF4A2713068FFF752
:10A4E000ABFE32681A4BC2F80433130B42F3073247
:10A4F0006101002AC9B21EDB1648841884F80013D3
:10A500000121520903F01F0301FA03F340F822303E
:10A5100033680422C3F800252C2303FB08530022D0
:10A52000C3E9062283F829205A61012283F82A20F0
:10A530003846BDE8F883084A03F00F03D154E7E733
:10A540000827F5E71127F3E7782C0020B5A20200D1
:10A550008000020000E100E014ED00E0F8B50368BF
:10A560000579304C0022C3F800252C2202FB05425D
:10A570005268A2B12C4AC3F808231A0B43F30733DD
:10A58000002B0CDB02F01F015B0901228A40203303
:10A59000264941F82320BFF34F8FBFF36F8F006828
:10A5A000D0F80C65D0F81415D0F80835D0F810257F
:10A5B0004FF0FF37BE42C0F8147518BF06F5E076BD
:10A5C000C0F80C75C0F80875C0F810751EBF4FF0C4
:10A5D000A0474FF0020C47F826C04E1C1FBF4FF09B
:10A5E000A04601F5E071022746F82170511C1FBFFB
:10A5F0004FF0A04102F5E072022641F822605A1C99
:10A600001FBF03F5E0734FF0A042022142F8231070
:10A61000FFF706FE2C2303FB0544002384F82A30B1
:10A620006360F8BD782C00208402020000E100E0A5
:10A630000279044B2C2101FB02335869003818BF02
:10A6400001207047782C00202DE9F84F064690F83D
:10A65000048089469246FFF7EBFF044600283CD170
:10A66000204F2C2508FB057B4FF48E71CBF814A0EE
:10A67000CBF80890CBF820008BF828003068FFF763
:10A68000DBFD3068012383605946FFF7DDFDDBF811
:10A6900004305D461BBB3068DBF814402B6A9C42DB
:10A6A00011D83368D3F81C21002AFBD00122DA60CC
:10A6B00000202C2303FB087700237B61BDE8F88F83
:10A6C00095F828303BB9D0F81C31002BF8D059460A
:10A6D000FFF7BAFDE2E70F20EBE71120EEE7204697
:10A6E000ECE700BF782C00200023435082B0435891
:10A6F0000193019B02B070471FB501238DF8003014
:10A70000044BCDE90110D3E900126846904705B02B
:10A710005DF804FBA42C00207FB5434AD2F82461E5
:10A72000002E60D010464FF49271FFF7DDFF022338
:10A730008DF80030D2F88034C2F880340393D2F818
:10A740003C350293394BDA6801920022C3E90622B4
:10A750006846D3E9001290473348D0F8443173B1CA
:10A760004FF4A271FFF7C0FF304B9A693AB1002253
:10A77000C3E90622D968D0F83C05FFF7BDFF2A4897
:10A78000D0F82031ABB14FF49071FFF7ADFF01234A
:10A79000C360264B5A6962B1D0F84C150291002271
:10A7A00099688DF8002001915A616846D3E900123A
:10A7B00090471D48D0F858319BB14FF4AC71FFF76A
:10A7C00093FF1A4B5A6962B1D0F84C1502910022DE
:10A7D00099688DF8002001915A616846D3E900120A
:10A7E000904704B070BDD2F81031002BB4D04FF4B4
:10A7F00088711046FFF778FF0C4BD2F83C05996939
:10A800008842A9D1DC69D96864B1D2F8005225F038
:10A810002005C2F800521A699C61DA60DE61FFF718
:10A820006BFF99E79C61FAE700200040A42C002010
:10A830002DE9F8435A4E90F80480242303FB086363
:10A84000044693F820300D469146002B40F0A3803B
:10A8500054490068FFF7C2FC0746002840F09D807D
:10A860002A682068511C0BD04FF0A041012393406F
:10A87000C1F8083502F5E0734FF0030C41F823C02E
:10A8800069684B1C1FBF01F5E0734FF0A04C4FF0FF
:10A89000000E4CF823E0AB69C0F8243595F814C0DD
:10A8A0006B7DBCF1010F4CEA0303C0F86C35C0F8B6
:10A8B0000C25C0F814151DD1AA68531C1FBF02F542
:10A8C000E0734FF0A0414FF0000C41F823C0EB685B
:10A8D000591C0BD04FF0A04C01219940CCF8081521
:10A8E00003F5E0714FF0030E4CF821E0C0F8083595
:10A8F000C0F81025242202FB08F2B318C3F8049014
:10A900002B69B350B9F1000F2FD04FF488712A7F13
:10A91000FFF7EAFE20684FF49071FFF7E5FE20682C
:10A920004FF49271FFF7E0FE20684FF4A271FFF739
:10A93000DBFE4FF4AC712068FFF7D6FE23681A499E
:10A94000C3F80413190B43F307335201002BD2B29F
:10A950001CDB1648C51885F8002301225B0901F0AD
:10A960001F0102FA01F140F8231023680822C3F8FE
:10A970000025242303FB08660023C6E90633736120
:10A98000012386F820303846BDE8F883084B01F0F3
:10A990000F015A54E9E70827F5E71127F3E700BF4D
:10A9A000A42C002019A702001003420000E100E0DF
:10A9B00014ED00E0F8B5444C0579242303FB05436E
:10A9C00002465B680068ABB1404BC0F8083340F307
:10A9D0000733002B4FEA10310CDB01F01F065B0937
:10A9E0000121B14020333A4E46F82310BFF34F8F78
:10A9F000BFF36F8FD0F8003223F02003C0F800328D
:10AA0000242303FB05439B692BB14FF4A271FFF78D
:10AA10006BFE012343604FF4AC71FFF765FE012329
:10AA2000C360242303FB0543D0F858110029FBD051
:10AA3000996919B1D0F844110029F5D00023C0F864
:10AA400000351368D3F80C75D3F81465D3F80825CE
:10AA5000D3F810154FF0FF3C6745C3F80CC518BF7D
:10AA600007F5E077C3F814C5C3F808C5C3F810C5E7
:10AA70001EBF4FF0A0434FF0020C43F827C0771CD5
:10AA80001FBF4FF0A04306F5E076022743F826707B
:10AA90004E1C1FBF01F5E0714FF0A043022643F8A2
:10AAA0002160531C1FBF4FF0A04302F5E07202214A
:10AAB00043F82210FFF7B4FB242303FB05440023D3
:10AAC00084F820306360F8BDA42C002010034200FD
:10AAD00000E100E00279044B242101FB02335869B4
:10AAE000003818BF01207047A42C002001F06043FB
:10AAF000B3F1005F2DE9F0470646884692463BD108
:10AB000090F80490FFF7E6FF0446002836D11D4F69
:10AB10003068242505FB09754FF49071C5F814A021
:10AB2000C5F80880FFF7E0FD4FF4AC713068FFF71F
:10AB3000DBFD33686A69A968C3F84415C3F8482582
:10AB400001229A606A68DAB9D3F82021D3F8580153
:10AB50001AB90028F8D00F2007E00028FBD1012205
:10AB6000DA60D3F85821002AFBD0242303FB0977AD
:10AB700000237B61BDE8F0871020FBE71120F9E797
:10AB80002046F7E7A42C00200220FCF729B900009A
:10AB90002DE9F04780460D46FCF742F903280446AC
:10ABA00010D8012D10D0022D30D05DB91A48FCF715
:10ABB000A9FD1A4B04EB440213449D78184B1B5D0E
:10ABC000AB4219D0BDE8F087144E00EB4003F218F9
:10ABD000F55C5378470053B1DFF84C900E484A4675
:10ABE0004FF48041FCF760FD08B989F800802744E4
:10ABF0003E440B4BB2781A55002DE3D0094B1B682D
:10AC0000002BDFD02846BDE8F047184700EB400492
:10AC1000024804446578EFE700230020CA2C002096
:10AC2000E52C0020E02C0020C82C00200078022118
:10AC3000FFF7AEBF08B5094B1B7853B10020FCF7F6
:10AC4000A5F80120FCF7A2F8BDE808400320FCF7B6
:10AC50009DB8BDE80840FCF7A5B800BFC92C00208E
:10AC6000F8B57A4C237805461BB100232370FFF713
:10AC7000E1FF172D00F28780DFE805F00C1717427F
:10AC80005364757F878C878C949999999999C3C8D7
:10AC9000D0D8E3E3FFF7CEFF6D48FCF733FD6D4BF3
:10ACA000002204461A702046F8BD0020FCF754F834
:10ACB000F0B10020FCF76AF8022D0CBF4FF4E164FC
:10ACC0004FF47A64634B1D7000254FF400464FF437
:10ACD0007A7029464FF4FA620023E4FB060105F07E
:10ACE00057FC2A460146BDE8F8405948FCF7DCBC51
:10ACF000FCF740F8022D0CBFC8244FF4C874E1E7FC
:10AD00000020FCF729F840B10020FCF73FF84FF491
:10AD10004874504B03221A70D6E7FCF72BF8C8246E
:10AD2000F7E70020FCF718F838B10020FCF72EF800
:10AD30004FF47A64474B0422EDE7FCF71BF84FF41D
:10AD4000C874F7E70020FCF707F848B10020FCF7CB
:10AD50001DF8404B05221A7040F6CD410022C2E793
:10AD6000FCF708F8F5E70020FCF73AF8394B062223
:10AD70001A70002240F26661B5E70020FBF7FAFF87
:10AD8000344B07221A7000248DE701202070FCF755
:10AD900027F8EEE701202070FCF722F800224FF49C
:10ADA0000051A0E7FCF70DF82A4B0C22EAE72A48ED
:10ADB0002A4EFCF7A7FCD5F1110504461CD0D8B9E2
:10ADC000012D13D0C820454321464FF400474FF4CE
:10ADD0007A704FF4FA620023C5FB070105F0D8FB37
:10ADE000224601461C48FCF75FFC04460220FBF7A4
:10ADF000C1FF0123337056E70220FBF7C7FF002392
:10AE0000F8E7FFF717FF134B1222BBE7FFF712FF1C
:10AE10000020FBF7AFFF0F4B1322B3E7FFF70AFF4A
:10AE20000120FBF7A7FF0B4B1422ABE7FFF702FF54
:10AE30000020FBF79FFF0120FBF79CFF054B15222D
:10AE4000A0E7FBF7BEFF034B1D709CE7DC2C002046
:10AE500020230020E42C0020E0220020C92C002028
:10AE6000044B1B68DB0703D5034B1878FFF7F8BECC
:10AE7000704700BFD82C0020E42C002010B500291A
:10AE800014BF03240024FBF7DDFF800000F1A04085
:10AE9000D0F8002722F44032C0F80027D0F800375D
:10AEA00043EA0443C0F80037002010BD032801D84E
:10AEB000FBF7A8BF00207047044B1B6813F0010389
:10AEC00001D0FFF7CDBE1846704700BFD82C002038
:10AED00038B51C4B18601C4B10F002040546196075
:10AEE0001AD01A4B1A480E221A700F22DA7010224A
:10AEF0009A7111225A72042140F23332FCF742FA5D
:10AF0000044648B9FCF796FA044628B90146114AA6
:10AF10001148FCF7B7FB0446EB0711D50120FBF7FE
:10AF200097FF6CB921460D4A0D48FCF7ABFB044670
:10AF300030B9BDE838400B4A0B480121FCF7A2BBF1
:10AF4000204638BDD82C0020E02C0020CA2C002040
:10AF5000581303002DAC02007C13030061AE020005
:10AF60008013030089AB020078130300032811D873
:10AF7000012A0AD101290FD100F10E02D2B20D4BE4
:10AF800000EB40001A54002070470129F7D0022935
:10AF900004D049B1072070470022F8E7054B00EBC9
:10AFA000400018444270EEE7024B00EB40001844AA
:10AFB0008270E8E7CA2C0020032802D80121FFF79D
:10AFC0005DBF0620704708B5012202210020FFF76F
:10AFD000CDFF08B1072810D1072202210120FFF779
:10AFE000C5FF08B1072808D100210A220846FFF74B
:10AFF000BDFF10B1072808BF002008BD0388102B33
:10B0000010B502D0112B1ED010BD1A4C2168B1B959
:10B0100001220846FFF7AAFF08B1072824D107221A
:10B0200002210120FFF7A2FF08B107281CD104224A
:10B0300002210020FFF79AFF08B1072814D12368E6
:10B0400001332360E0E70B4A1368013B1360002BD8
:10B05000DAD1FFF7B8FF0028D6D0074B1B68002BCA
:10B06000D2D0BDE810401847034B1B68002BE6D038
:10B070009847E4E7F02C0020EC2C002008B50020D5
:10B08000FFF79AFF08B1062806D10120FFF794FFC9
:10B0900010B1062808BF002008BD00000D4B10B5F8
:10B0A00018600C4629B10120FFF700FF40B10223D0
:10B0B0002370094B1B6853B9BDE81040FFF783BFED
:10B0C000FFF7F4FE08B10B23F2E72070F1E7002050
:10B0D00010BD00BFEC2C0020F02C002076DF704764
:10B0E0007ADF70477CDF70478FDF7047FCF7B8B9B5
:10B0F00008B50020FFF7E0FE08B1FCF7B1F9FFF753
:10B10000BDFF08B1FCF7ACF905F094F818B1BDE843
:10B110000840FCF7A5B908BD03883B2B13B50446CE
:10B1200008D005D8102B0AD0212B1BD002B010BD9F
:10B13000562BFBD1A0881321FFF7D0FF0BE007208F
:10B14000FFF7BAFE08B1FCF78BF90D4BA1880D484B
:10B15000198002F037FB0028E8D002B0BDE81040AB
:10B16000FCF77EB9002380888DF8043001A98DF8A2
:10B170000530FFF7B9FF0028D8D0FCF771F9D5E703
:10B18000442300203C31002010B5044603F0A6FE05
:10B19000204603F0C7FE2046BDE8104003F05ABC2D
:10B1A00010B5204B204A9B1ADB088CB01B040328E7
:10B1B00036D8DFE800F002272F3343F0030420469F
:10B1C0001A49FBF741FC2C22002101A805F005FBE0
:10B1D00044F250624FF496710123CDE905121448F0
:10B1E0008DF8083001A98DF8043000F0C8FE002168
:10B1F000104801F069F9104902462046FBF728FC87
:10B200000CB010BD0D4943F003000CB0BDE8104078
:10B21000FBF71ABC0A4943F00100F6E70949FAE7CF
:10B220000949F8E72C09030004090300841303000B
:10B23000F42C00204DB20200B2130300C913030026
:10B24000EC130300251403005214030013B513215B
:10B250000190FFF743FF019A034660B10748084C8D
:10B260000849241AE408240444F0020002B0BDE8AE
:10B270001040FBF7F6BB02B010BD00BF040903008D
:10B280002C09030079140300022807B50ED1094BDD
:10B2900009480A49C01AC008000440F003000190A0
:10B2A000FBF7D2FB06490198FBF7CEFB012003B068
:10B2B0005DF804FB040903002C090300BA14030021
:10B2C000E7140300032807D14FF08043A922C3F8F5
:10B2D00020250020FEF75ABB7047000008B5037810
:10B2E0004BB9054B3B211888FFF7F8FE18B1BDE8B4
:10B2F0000840FCF7B5B808BD44230020072808B56E
:10B3000013D00A280DD0042819D10D4B1321188809
:10B31000FFF7E4FE30F0080311D0BDE80840FCF769
:10B320009FB8BDE80840FFF7E3BE054B1A884FF60B
:10B33000FF739A4203D1034800F003FEEAE708BD19
:10B3400044230020F42C002008B548B103280BD179
:10B350000220FFF7B1FD38B1BDE80840FCF780B826
:10B36000BDE80840FFF7C4BE08BDFCF779B800008F
:10B3700030B54FF48041AFB00020FBF7C7F908B1FA
:10B38000FCF76EF8FBF700F904F00CFE08B1FCF7CF
:10B3900067F8FCF745F908B1FCF762F8FEF7A4FA84
:10B3A00008B1FCF75DF87F490320FFF791FD08B174
:10B3B000FCF756F803A90020FFF770FE08B1FCF770
:10B3C0004FF89DF80C4004F0F7FE08B1FCF748F880
:10B3D000002303A90120039304F0BAFF08B1FCF78E
:10B3E0003FF803A805F066F808B1FCF739F802F059
:10B3F000F1FF08B1FCF734F80522002103A805F09D
:10B40000ECF931238DF80C3007238DF80D30102323
:10B410008DF80E309DF80F3023F0030343F0030343
:10B420008DF80F309DF8103023F0030343F0030331
:10B4300003A88DF8103003F06DF808B1FCF710F890
:10B44000594803F04FF808B1FCF70AF811235748A0
:10B450008DF8083005F0F4F9544982B202A8FFF7DC
:10B4600041FE08B1FBF7FCFF0822002103A805F00C
:10B47000B4F95023ADF80C30A023ADF80E30002302
:10B48000ADF8103003A84FF4C873ADF81230FFF7D1
:10B4900027FE08B1FBF7E4FF4548002102F080F8E1
:10B4A00008B1FBF7DDFFAC22002103A805F095F9F8
:10B4B00002238DF80C3040F20163ADF80E30012507
:10B4C0003C4B08932C22002121A8ADF81C5005F01C
:10B4D00084F944F250634FF49672CDE9252336483F
:10B4E000364B8DF8885003A92C9300F069FB08B106
:10B4F000FBF7B6FF3048012100F05FFB0023039308
:10B500002F48304B029302A902F04AF908B1FBF729
:10B51000A7FF2D4B039303A804F0C8FC08B1FBF769
:10B520009FFF1C22002103A805F057F900234FF4C8
:10B53000A032CDE90332ADF81A304FF4F0228DF885
:10B540001C30224B059208930322214B8DF81820C2
:10B5500003A8099300F020FE08B1FBF781FF1D4B03
:10B560001D481E49C01AC008000440F003000190A5
:10B57000FBF76AFA022C0FD119490198FBF764FA1C
:10B5800002F0F4FF08B1FBF76BFFFBF711F900289D
:10B59000FBD1FEF7D3F9F8E70321074800F08FFB52
:10B5A000F0E700BFFDB2020089B1020016150300EA
:10B5B0002831002040230020F42C002049B3020051
:10B5C0003C310020EDB00200A1B10200DDB202006A
:10B5D0006BB30200040903002C09030028150300C3
:10B5E0004C15030013DF704738B50023134CD3F814
:10B5F000F85F134BE41AE4086A1C4FEA044404D1D0
:10B600004FF010235D696B1C11D02A460D4944F0A0
:10B610000300FBF71DFA2846FFF7E4FF054620B1BB
:10B62000094944F00100FBF70FFA284638BD0749E5
:10B6300044F00100FBF708FA0425F6E72C090300A3
:10B64000040903005915030084150300B71503000E
:10B6500038B50B4B0B4C0C4A0C49E41AE408240493
:10B6600044F00300FBF7F4F90748FFF7BBFF05467A
:10B6700020B1074944F00100FBF7E6F9284638BD40
:10B68000040903002C09030000600200CF15030029
:10B69000841503006DDF704779DF70477DDF7047E9
:10B6A00064DF70472DE9F04F85B000250E9CBDF892
:10B6B0003CB0B4F800A00191074690461E46A9464A
:10B6C0003A884A450DDC45B12388013BA3EB0A03C8
:10B6D0009BB2FF2B3AD806F80A30002005B0BDE82F
:10B6E000F08F7A6852F82900039000220DF10B01C7
:10B6F00003A8FFF7D5FF0028F0D19DF80B204245A5
:10B7000021D12288002D14BF0020022002EB080165
:10B71000014459451ADC3DB9013292B2019B2280A5
:10B72000B35422880132228022880DF10B01324469
:10B7300003A8FFF7B5FF0028D0D121889DF80B2082
:10B740000A442280012509F10109B9E70C20C5E767
:10B750002DE9F341089FBDF824801546CDE9007816
:10B76000022204461E46FFF79DFF50B933461022C1
:10B7700029462046CDE9087802B0BDE8F041FFF740
:10B7800091BF02B0BDE8F0812DE9F04F002317888A
:10B79000138090F82D3085B006460D46144653B3FD
:10B7A000082F01D80C2027E102A8FFF773FF00281B
:10B7B00040F0228123880822EA54238801339BB277
:10B7C0001B222380EA542088013080B22080062288
:10B7D0000DF10901284404F0D7FF23889DF80820C3
:10B7E00006339BB212F0FE0218BF01222380EA54F6
:10B7F000238801332380B378FBB123880433BB4211
:10B80000D0D802A8FFF748FF002840F0F580238831
:10B810000322EA54238801339BB219222380EA547D
:10B820002388BDF8082001339BB2E9182380EA542D
:10B83000120A4A70238802332380F2789AB123884F
:10B84000D91CB942AED80221E954238801339BB2F6
:10B8500001212380E95423880B449BB22380EA54BE
:10B8600023880B4423807268AAB12388D91CB9426B
:10B8700098D8022192F90020E954238801339BB221
:10B880000A212380E954238801339BB22380EA54A0
:10B890002388013323803389002B40F0A180338A31
:10B8A0005BB1CDE900472B460722032106F11000CA
:10B8B000FFF74EFF002840F09F80338B5BB1CDE94E
:10B8C00000472B461522142106F11800FFF740FF10
:10B8D000002840F09180326A002A40F09080D6F82B
:10B8E0002480B8F1000F30D0B8F804302188981CBB
:10B8F0008A1C0244BA423FF655AFFE283FF652AFCB
:10B9000003336B54238801339BB2FF222380EA5414
:10B91000238801339BB22380B8F80020EA54E91849
:10B92000120A4A702088023080B22080B8F80420C1
:10B930005AB1D8F8081000296BD0284404F024FF2D
:10B940002388B8F804201344238096F82C30002B69
:10B9500040F09880307800284ED03388012B58D0A2
:10B96000228802F1020CBC453FF61CAF012805D12C
:10B970007378023313449F42FFF414AF023FBF1A9F
:10B98000BFB202A905EB0C00ADF80870FFF786FE08
:10B9900090BB3178BDF80830022900F0B980727888
:10B9A0009A4202D39F4280F0B180012940F0B280D8
:10B9B000974293B2C0F0AE80ADF808300821BDF8D0
:10B9C0000830FE2B3FF6EEAE22880133AB542288BE
:10B9D000013292B22280A9542288134423800BE0C2
:10B9E000CDE900472B460622022106F10800FFF7A9
:10B9F000AFFE00283FF453AF05B0BDE8F08FB4F8B8
:10BA000000C00CF10603BB423FF6CCAE11880529FD
:10BA100001D80720F0E76FF4486E01EB0E039BB2EC
:10BA20004FF27D3E7345F4D95388052BF1D96FF45D
:10BA30004860181880B27045EBD94FF6FF7081420C
:10BA400001D09942E5D8052305F80C30238801334D
:10BA50009BB212212380E954238801339BB22380B7
:10BA60001188E954E818090A4170238802339BB20F
:10BA700023805288EA54E918120A4A702388023354
:10BA800023802CE7B36A002BC3D04FF000084FF09F
:10BA90000C0A4FF0160BB16A5FFA88F20AFB02F249
:10BAA00001EB0209B9F80430981CFE283FF67AAE83
:10BAB000208803332B54238801339BB2238005F85D
:10BAC00003B0238801339BB223808A5AEA54E918D1
:10BAD000120A4A702088023080B22080B9F804200F
