:020000022000DC
:1070000000000420757302005D7302005F730200CC
:1070100061730200637302006573020000000000E8
:107020000000000000000000000000006773020084
:1070300069730200000000006B7302006D730200B0
:107040006F7302006F730200C5C202006F7302000B
:107050006F7302006F7302006F7302006F730200A0
:107060006F7302006F7302006F7302006F73020090
:107070006F7302006F7302006F7302006F73020080
:107080006F7302006D8B02006F7302006F7302005A
:107090006F7302006F730200C5DA02006F730200A3
:1070A0006F7302006F7302006F7302006F73020050
:1070B0006F7302006F730200000000000000000008
:1070C0006F7302006F7302006F7302006F73020030
:1070D0006F7302006F7302006F7302006F73020020
:1070E0006F7302006F7302006F73020000000000F4
:1070F000000000006F730200000000006F730200C8
:10710000000000000000000000000000000000007F
:10711000000000000000000000000000000000006F
:10712000000000000000000000000000000000005F
:10713000000000000000000000000000000000004F
:10714000000000000000000000000000000000003F
:10715000000000000000000000000000000000002F
:10716000000000000000000000000000000000001F
:10717000000000000000000000000000000000000F
:1071800000000000000000000000000000000000FF
:1071900000000000000000000000000000000000EF
:1071A00000000000000000000000000000000000DF
:1071B00000000000000000000000000000000000CF
:1071C00000000000000000000000000000000000BF
:1071D00000000000000000000000000000000000AF
:1071E000000000000000000000000000000000009F
:1071F000000000000000000000000000000000008F
:10720000354936480A1A02D0072291438D4634493F
:1072100034480A1A06D00722914381F309880222D2
:1072200082F3148830483149314A00F044F831483B
:107230003149324A00F03FF831483249324A00F0D1
:107240003AF832483249334A00F035F83248334987
:10725000334A00F030F833483349344A00F02BF811
:1072600033483449344A00F026F83448344900227F
:1072700000F02CF833483449002200F027F8334856
:107280003349091A082902DB002202604160314AB1
:1072900090471F481F49884205D00268043003B454
:1072A000904703BCF7E700208646EC46002000210B
:1072B000294A9047FEE7884207D0521A05D0037842
:1072C00001300B700131013AF9D17047884202D088
:1072D00002700130FAE770470000042000E003204C
:1072E0000000042000000420DC0A03002823002002
:1072F000E8230020D0730200D073020090E4020063
:10730000DC0A03002823002028230020D4E6020002
:10731000D4E60200D4E60200D4E60200D4E602007D
:10732000D4E60200D4E60200D4E60200DC0A030040
:107330009C0B0300E8230020E8230020E823002022
:107340007430002074300020783000207830002025
:10735000785000209D730200F5D30200FEE7FEE79F
:10736000FEE7FEE7FEE7FEE7FEE7FEE7FEE7FEE7F5
:1073700000F002B8FFF7FCBF0F484FF00701884349
:1073800085460E4880470E48016841F4700101604F
:10739000BFF34F8FBFF36F8FFFF732BF09480A4922
:1073A0000A4A884207D0521A05D0037801300B7080
:1073B0000131013AF9D1704700000420E9D60200FA
:1073C00088ED00E00CE60200602200202823002067
:1073D000004870476C300020F0B595B01D46164649
:1073E00008460C4604F01CFC1A9B0D93CDE9086579
:1073F00000252B46082205A920460A958DF82C5019
:107400000C9504F029FC079B0293069B03939DF8BF
:1074100014308DF8115003F00302012A1DD1BDF87C
:107420001420059DC3F3C203C2F383168DF81030F8
:10743000B20008230EA9204604F00EFCC5F39525E2
:1074400008AB0093324602AB0EA9284600F0E4FEDA
:10745000204604F0E9FB15B0F0BD022AF8D1BDF8D2
:107460001650C3F3C203C5F389158DF810300827F1
:10747000082D2E4628BF08263B4632460EA9204638
:1074800004F0EAFBAD1B08AB02AA31460EA8374454
:1074900000F026FF002DEBD1DAE70000014B0122BE
:1074A0001A707047292400207047000070B50E4DF7
:1074B00006460FCD88B06C460FC495E80F00002E2D
:1074C00084E80F00094A0A484FF0060308BF00226B
:1074D0006946009304F0B8FE08B100F061FF054B67
:1074E0001E7008B070BD00BFD4E602009D7402009B
:1074F00028230020E823002007B5044B0093044A0A
:107500004023FFF769FF03B05DF804FB1575020027
:10751000E923002038B50D480D4C0E4D0023237093
:107520000378EB5CD2B263B1043005F027FC08B1FC
:1075300000F036FF084B1A7812B12378002BFBD0ED
:1075400038BD0C3005F028F9F1E700BF28230020F2
:1075500029240020FC2A0020E823002008B5084840
:10756000084A0378D35C3BB1043005F077FBBDE8F3
:1075700008400020FFF79ABF0C3005F0A5F8F6E7A9
:1075800028230020FC2A002000230428CB604B6025
:1075900098BF044B044A98BF53F820308A600B60B0
:1075A000704700BF48EB020024EB0200CB680022CA
:1075B0005A717047C368DB6800225A717047CB6804
:1075C00001225A717047C368DB6801225A71704703
:1075D0000D4A8A6070B50D4A0D4C0023121BCB601A
:1075E0004B600B6012091D469A4207D0E668367957
:1075F000FF2E05D0854202D1A3680B6070BD013516
:1076000001331034F0E700BF5CEB0200D4E5020068
:10761000B4E502002DE9F3478368D3F84831C3F39A
:1076200040059B07074606D50022114602B0BDE87B
:10763000F04703F0CDB8144E144CDFF85880DFF853
:107640005890DFF858A0A41B2409A54202D102B02B
:10765000BDE8F087F168B3680A79FF2A07D10C4AC0
:107660000821384602F07CF801351036EDE74879FC
:10767000002814BF41464946CDE90012384652461B
:10768000082102F06DF8EFE7B4E50200D4E502004E
:1076900011E7020000E7020008E7020030E70200FD
:1076A0002DE9F74F154D164C9946641B52F8043CD2
:1076B00006468846174624094FF0000B5C4507D163
:1076C000104A0221304603B0BDE8F04F02F048B83E
:1076D000A9680193184606F083FEAA46019B10355F
:1076E00040B93B46424651463046CC4603B0BDE821
:1076F000F04F60470BF1010BE0E700BFB4E502007B
:10770000D4E5020051E70200014BFFF7C9BF00BFFB
:10771000F17A0200014BFFF7C3BF00BFAD75020055
:10772000014BFFF7BDBF00BFBF750200014BFFF764
:10773000B7BF00BFCD7B0200037813F0040216D060
:1077400003F00303012B03D0022B09D00120704763
:107750000A6800880232C0F3831002440A60F5E729
:107760000B684288023303EB92130B60EEE710467E
:10777000704700002DE9F04FDFF81CA187B00F46DD
:1077800000230446861C0DF1070015468DF80730CE
:1077900001F070F8DAF804203A60DAF8083003F5FE
:1077A00080739B1A0AF21C470AF583690AF214488F
:1077B000B3421AD30020002D69D004F00F039B01BF
:1077C00043F0050363F30F00DAF80430DAB2033252
:1077D00033444AF822009DF80700CAF8043001F04B
:1077E0006DF8012007B0BDE8F08F0121384601F0A7
:1077F000ACFA484601F0C4FA404601F0C1FADAF8A2
:1078000008000290C0B203300AEB800002A9FFF723
:1078100093FF029B30BBDAB20AEB8202D16803917C
:107820009A1C0133DBB20AEB83030292D3F80CB04B
:1078300001F00303012B22D0022B15D083464046D2
:1078400001F0A1FA10B1029BCAF808305946384637
:1078500001F07BFADAF80830DAF8042003F58073D7
:107860009B1AA5E7D8B2CEE7BDF80E30C3F3891353
:1078700003334FEA1B4B02EB93030293DFE7BDF8A0
:107880000C30C3F383134FEA1B4B1344F5E7A405F5
:1078900044F0060098E700BFFC240020012907B54A
:1078A000034604D08168D1F84811890707D5002222
:1078B0001146184603B05DF804EB02F089BF536827
:1078C0000193054B00931368044A022101F048FF1D
:1078D00003B05DF804FB00BF71E7020067E7020038
:1078E0008368D3F848319B0703D50022114602F084
:1078F0006FBF024A022101F033BF00BF86E70200DA
:10790000FFF7EEBF30B599B10A4B0B4A0B49D21ABB
:10791000D20800239A4201D1052006E031F8235015
:107920000468A54202D10360002030BD0133F1E7B5
:107930000846FAE724E50200ACE50200A022002098
:107940002DE9F84F1E4B1F4800221A7004F021F950
:10795000814690BB1C48DFF880801C4CDFF87CA07F
:1079600004F0BBFAA4EB0804E4084D46A54208D194
:107970000023174A19469C421AD022F823100133DB
:10798000F9E700273E4608EBC50BB54209D058F889
:107990003610DBF80000142206F024FC0028C8BFD3
:1079A00001370136B442F0D12AF825700135DDE700
:1079B0000848A200002106F0BEFC4846BDE8F88F4A
:1079C000FC240020D4E5020018EB0200ACE5020024
:1079D000A2220020E422002024E50200A0220020B0
:1079E00007B5019001A8FFF78DFF30B9019A044B4C
:1079F00053F8320003B05DF804FB0020FAE700BF43
:107A000024E50200002310B5CB604B60034B8B6074
:107A10000C460121FFF7E4FF206010BD24EB0200BB
:107A2000094B013903EBC000032909D8DFE801F055
:107A30000A020406042070470079704740797047B5
:107A4000002070470220704724E5020030B5124C38
:107A500000EB400054F8215002FA00F3072202FA2A
:107A600000F06B400D4A03406B40C3F3821044F8B2
:107A7000213002EB8101C3F3C202824238BF0246C9
:107A8000C3F34220824203F0070338BF0246934209
:107A900038BF13464B8030BDE4220020A0220020D6
:107AA00013B50446019101A8114693B1FFF72AFFCF
:107AB00010B1002002B010BD01990B4A04EB440044
:107AC00052F8212007238340134023FA00F0C0B26C
:107AD000F0E7FFF717FF0028EBD1019A034B03EB08
:107AE000C2039879E6E700BFE422002024E5020003
:107AF000294B2A4A2DE9F04F9B1A4FEAD30ACB684B
:107B00005B7985B005460E461BB9254A022101F076
:107B100027FE244B244ADFF8A4800821284601F0E0
:107B20001FFE224A0821284601F01AFE002454456F
:107B300002D105B0BDE8F08FF36893F804900123FB
:107B40001A4621464846FFF7ABFF002307460122AD
:107B500021464846FFF7A4FF0121032881468346BA
:107B6000204628BF4FF00309FFF73AFF5FFA89F973
:107B70000F4A58F82910034658F827000D4F009077
:107B8000CB4598BF1746CDE901170B4A0821284677
:107B900001F0E6FD0134CAE7ACE5020024E502008D
:107BA00099E70200ACE70200B8E70200D6E702005E
:107BB00012EF020097E7020013E8020034EB020024
:107BC00013460A46C168FFF793BF00002DE9F04F46
:107BD0002DED028B054683B09B461646002A5DD0EC
:107BE000DBF80070CB68554993F804A0384606F0DE
:107BF000F7FB0446F0B9012E09D1514A022128466B
:107C000003B0BDEC028BBDE8F04F01F0A9BDDBF87D
:107C100004304C4F57F8041B00930A22184606F014
:107C2000E1FA002800F083800134052C009BF1D19B
:107C3000454A15E04549384606F0D2FB044668B986
:107C4000012E36D04FF00108414B424AA3EB020906
:107C50004FEAD9030093DFF808914FE03E4A3B46D4
:107C60000221284603B0BDEC028BBDE8F04F01F0C5
:107C700077BD00231A4631465046FFF711FFA04258
:107C800011D200213046FFF7ABFE424603460221E7
:107C9000284601F065FD0136BE42EAD103B0BDECD5
:107CA000028BBDE8F08F224631465046FFF7CEFEEC
:107CB000F1E7274F274BDFF8A480FF1AFF080026C3
:107CC000EAE700213846FFF78BFE18EE101A202253
:107CD00006F088FA034608B1013716E00246019023
:107CE00039465046FFF7DCFEA042019B18D32246DE
:107CF00039465046FFF7AAFE08F10108B045CDD23B
:107D00005BF8283008EE103A0027009BBB42D8D120
:107D10005BF828304A460221284601F021FDEBE7B6
:107D200019463846FFF75CFE0C4A0346F3E7022E7D
:107D3000E4B2BED04FF0020886E700BF29E8020097
:107D400030E8020034EB02009BE8020047E8020042
:107D5000ACE5020024E502004FE8020064E80200FE
:107D600087E8020013460A46C168FFF72FBF704735
:107D7000034BD3E90130C31A58425841704700BF42
:107D8000FC2400202DE9F04387B0FFF7F1FF054602
:107D9000002840F00E81884CC4F81804BFF34F8FC0
:107DA000A3680293DBB2033304EB830002A9FFF75D
:107DB000C3FC029B18B1D4F81824002A63D0DAB2AD
:107DC000991C013304EB8202DBB204EB8303D2681B
:107DD000DB68049302F00303022B039202915DD14E
:107DE000BDF80E3075489DF80C50C3F3891847460E
:107DF000502F28BF502707F1080167F38F13C1F3F5
:107E00000901ADF80E3003F0DCFEC5F3C2050646ED
:107E1000002800F0B58003F003FF0023082203A927
:107E2000304603F00FFF0299CB43DBB20133C9B2F6
:107E30000331B7EB830F4FEA830204EB81012AD9A8
:107E40005FFA82F90823A7EB0907304603F0FAFE30
:107E5000FFB209F108035A4903F0FC033A463046E1
:107E600003F0F0FE029B08F1030803EB9803029372
:107E7000D4F81834002B49D1D4F81074DFF8549199
:107E80004FF0070867E062689A428BD8A2602846E4
:107E900007B0BDE8F08308233A46E0E7012B6FD135
:107EA000BDF80C504548C5F38311062928BF0621AB
:107EB00061F38915023101F00F018900ADF80C5012
:107EC00003F07FFEC5F3C2050646002858D003F034
:107ED000A7FE0023082203A9304603F0B3FE0027C3
:107EE000BDF80C20C2F38312BB00974203F10803D4
:107EF000BED202994A1CC9B20331029204EB81013D
:107F00000422304603F09EFE0137E9E7304603F0D5
:107F10008BFEFFF72DFF80F00100C5B2B7E7FB68CD
:107F20005A79B2B11B79BDF8101003EB430259F82E
:107F3000211008FA02F3052D03EA010323FA02F3E4
:107F400008BF0325AB4204D33B6831461B68384663
:107F50009847FB681F68002FE1D1304603F064FEAC
:107F60000DF107008DF8077000F084FCD4F8183488
:107F70000BB9029BA3609DF8070000F09FFCC8E7C7
:107F8000D4F8104474B90F4B5B88012BC1D90E4B48
:107F90000E480F49C01AC008000440F0020000F06B
:107FA00063F8B6E7236820469B689847E3681C6837
:107FB000E8E700256BE700BFFC240020D4E50200C1
:107FC00008250020AC22002024E502003CE5020048
:107FD000B8E80200E42200202DE9F34704460E46EB
:107FE000924601A9012218469946FFF7C3FB1C4F90
:107FF00010B3019D4FF00008AA1CC84508EB020110
:1080000025D11848002100F065FE80F3100000041F
:1080100040EA1440E4006B1C04F03804DBB2EDB21B
:1080200044F0010407EB8303033544EA881444EA6F
:108030008624D86047F825403B781BB1FFF7A2FEA5
:108040000028FBD1FFF793FE02B0BDE8F087C9B26C
:1080500007EB81015AF82830CB6008F10108CCE722
:10806000FC2400201829002000231A46FFF7B4BF83
:1080700007B50123019201AAFFF7AEFF03B05DF837
:1080800004FB07B5CDE9002302236A46FFF7A4FFEE
:1080900003B05DF804FB1FB5CDE90123069B0393F4
:1080A00001AA0323FFF798FF05B05DF804FB000069
:1080B0002DE9F84388461B49D1F8103405460024C1
:1080C0001A468AB9EA681471A3B9C1F8105413604A
:1080D000154B164EF61AF608002703F10709B742AA
:1080E0000DD12046BDE8F883D2681079A04212D0A5
:1080F0001268E6E7DB68196811601D60E8E719F8A7
:108100003720EB6842453946187928BF4246FFF7C9
:108110009DFC0137E3E701340A2CD1D14FF0FF3445
:10812000DFE700BFFC24002024E50200ACE50200EC
:1081300038B5084B0125D3F810441D7004B938BD7B
:10814000E3685D71236820465B689847E3681C68B4
:10815000F4E700BFFC24002030B5C38885B0044696
:108160000D4633B1144A00921449154A284602F0CC
:108170003EFF217A05291DD0637A4BB1A088FFF715
:108180004FFC104B104953F82020284602F02FFFD7
:10819000227A0E4BA08853F8222003920021FFF789
:1081A0001FFC039A0A490346284605B0BDE8304043
:1081B00002F01DBF05B030BDC4EC0200ACEC020003
:1081C000A4EC02001CED0200C4EF020040ED02002E
:1081D000C9EC020007B503460846197A052911D0F3
:1081E0005B7A2BB1094A0A49019002F000FF01981D
:1081F0000849019002F0FBFE019803B05DF804EB22
:1082000002F0EABE002AF8D0F2E700BFC4EC020098
:10821000C4EF020074EE02002DE9F04385B01F4662
:108220000C9D002395F80C902B7306460C46904647
:1082300029463846FFF790FFB8F1060F09D8DFE866
:1082400008F00412181F283340003146284602F077
:10825000CEFE002229463846FFF7BCFF85F80C9079
:1082600005B0BDE8F08322683146284602F0BFFE23
:10827000EFE7D4E900233146284602F0B8FEE8E7EC
:10828000A36800933146D4E90023284602F0AFFEEC
:10829000DFE7E3680193A36800933146D4E9002344
:1082A000284602F0A4FED4E723690293E368019311
:1082B000A36800933146D4E90023284602F097FED4
:1082C000C7E76369039323690293E3680193A36893
:1082D00000933146D4E90023284602F088FEB8E72F
:1082E00008292DE9F74F80460E4617461C463DD813
:1082F00000251B7B2573214610460193FFF72CFFB9
:10830000DFF88CA0DFF88CB0AE4232D918F8052027
:108310005946204602F06BFE0135082DF4D11B4969
:10832000DFF874A0DFF874B0204602F060FE4FF072
:1083300000094E4524D918F809507E2D1ED828462C
:1083400005F0AEFD002814BF2A462E2259462046CD
:1083500002F04DFE09F10109B9F1080FE9D101223E
:1083600021463846FFF736FF019B237303B0BDE873
:10837000F08F5146204602F03AFECDE72E22E5E787
:108380005146204602F033FEE4E700BFDDEC020078
:10839000D9EC0200D3EC0200DBEC0200DFEC0200BF
:1083A0001FB50021039001AA44F20100CDE901119B
:1083B00000F004F805B05DF804FB000010B572B6DB
:1083C000FFF7B6FEFFF7DEFC0028FBD1164C6388F2
:1083D0004BB11648164B1749C01AC008000440F0AC
:1083E0000100FFF741FE144BD3F8F030DB0700D556
:1083F00000BE6388012B09D90C480D4B0F49C01AE8
:10840000C008000440F00200FFF72EFEBFF34F8FBC
:1084100009490B4BCA6802F4E0621343CB60BFF317
:108420004F8F00BFFDE700BFAC2200203CE50200FB
:1084300024E5020054ED020000ED00E060ED0200D2
:108440000400FA0510B5D0E90243D1E90202A042C6
:1084500072EB03032CBF0120002010BD08B50A48B1
:1084600000F06DFB094AD2E90031C018084BD3E98E
:10847000002341F10001904271EB030303D210F19C
:10848000807041F1000108BD58230020B829002068
:10849000202A002037B505460C460A4801A900F0FD
:1084A000A4FB60B10570446001A9064800F0C7FB59
:1084B00018B1054800F048FB002003B030BD04208F
:1084C000FBE700BF4423002058230020294B73B54D
:1084D0001E7804461EB90026304602B070BD002842
:1084E000F9D0FFF7BBFFD4E902239042994139D379
:1084F00000230DF107008DF8073000F0BBF9236968
:108500002BB94FF0FF324FF0FF33C4E902239DF83F
:10851000070000F0D3F9D4E90530984700250DF1A4
:1085200007008DF8075000F0A5F92369C3B1D4E91D
:108530000212B2F1FF3F08BFB1F1FF3F05D05B1857
:1085400042F10002C4E9023235469DF8070000F00E
:10855000B5F9002DBFD00848214603F0F3FDBBE775
:108560001D46F2E7B3F1FF3F08BFB2F1FF3FB2D0C3
:10857000F1E700BFC029002090ED020013B5114BB8
:1085800011491868019008231048582200F0F8FAA1
:10859000044698B90E4A0F4801A900F0B3F9044601
:1085A00060B90C48012100F0ADFA01230A4A0948DC
:1085B000194600F00FFA094B01221A70204602B04A
:1085C00010BD00BF8AED0200C42900204423002012
:1085D000BD86020058230020FFFF7F00C029002035
:1085E00030B56AB103684FF0FF344FF0FF355A6180
:1085F0004A1E5142C3E9024551411961002030BD74
:108600000720FCE7F7B5044600250DF107001746E3
:108610000E468DF8075000F02DF9D4E90223B3F18E
:10862000FF3F08BFB2F1FF3F07D1FFF717FF301838
:1086300041F10001C4E9020101259DF8070000F0A5
:108640003DF955B12369A76103B126612146002098
:1086500003B0BDE8F040FFF71DBF284603B0F0BDF2
:1086600037B5054600240DF107008DF8074000F0EE
:1086700001F9D5E90223B3F1FF3F08BFB2F1FF3F93
:108680001FBF4FF0FF324FF0FF33C5E90223012433
:108690009DF8070000F012F934B12946012003B01B
:1086A000BDE83040FFF7F6BE204603B030BD000005
:1086B000014800F044BA00BF582300202DE9F743D9
:1086C000064600F027FA40B1624AD2E9003113F1C0
:1086D000807341F10001C2E900310021304600F011
:1086E00028FA38B15C4C236823B12068FFF7EEFE0E
:1086F000002323600121304600F01BFA20B1FFF770
:10870000ADFE564BC3E900015548534C01A900F09A
:10871000A6FA4FF0FF384FF0FF39A0B9DFF84481D7
:108720004D4D404603F024FD002800F08580D0E93F
:108730000223B3F1FF3F08BFB2F1FF3F32D1404601
:1087400003F010FDEDE70378012B20D0022B08D1B8
:10875000444D284603F006FD002877D0C0E9028981
:10876000F7E75BB94168D1E90223B3F1FF3F08BFE6
:10877000B2F1FF3F02D03B4803F0E4FC01A93848C6
:1087800000F098FA01A9364800F069FAC5E7416897
:108790002368994202D100232360EFE7314803F0B8
:1087A000EAFCEBE7296891B12968D1E9020182422C
:1087B0008B412FD22B68D3E90223B3F1FF3F08BFCF
:1087C000B2F1FF3F03D02968404603F0BBFC4046AE
:1087D00003F0C8FCD0E902490746FFF73FFE201A24
:1087E00069EB0109012879F1000318DBB0F5350FB9
:1087F00013D3FFF75DFF1C4A02441C484FF4960355
:10880000002100F007F990B92B6813B9304600F049
:10881000D9F82F6003B0BDE8F0832246EDE7134896
:10882000002100F07CF93846FFF750FE01E00D28EA
:10883000F9D000232B6074E7074B1B68002BE9D1AC
:10884000304603B0BDE8F04300F0C0B8084B012249
:108850001A7093E7B8290020282A0020202A002037
:108860004423002090ED0200FFFFB40058230020B5
:10887000C029002070B5EFF3108672B60C4A9468D8
:1088800001239CB993600B4B0B4DD3F8801029400A
:108890001160C3F88050D3F8841051604FF0FF325C
:1088A000C3F88420047006B962B670BD0370FAE79D
:1088B0002C2A002000E100E0FC06FFBD084B9A686E
:1088C00010B55AB150B9EFF3108172B6054A1C6861
:1088D00014605C685460986001B962B610BD00BF56
:1088E0002C2A002000E100E0435882B03BB1002375
:1088F000435043580193019B012002B07047184632
:10890000FBE70000F8B5264C4379264D44F82320B8
:1089100005EBC303244E1B7973B17388012B09D96E
:108920002248234B2349C01AC008000440F002002B
:10893000FFF79AFB0820F8BD03680A88C3F80825EA
:1089400090F904408B7802795B01002CDBB221DBCB
:1089500019490F1987F800330123640902F01F0237
:1089600003FA02F241F82420437905EBC30245F8EB
:10897000330073880121022B117109D90B480C4B6C
:108980000E49C01AC008000440F00300FFF76CFB5A
:108990000020D0E70A4902F00F028B54E4E700BF41
:1089A000402A0020382A0020B022002044E502009E
:1089B00024E502009CED020000E100E0BEED0200B3
:1089C00014ED00E0036801221A6070470368012279
:1089D0005A60704773B501F15005AD000068ADB243
:1089E0004FF480348C400026C0F80843C0F8484358
:1089F000465101F5A8714559019522F07F42019D2C
:108A000040F82120C0F844430BB1C0F8044302B041
:108A100070BD00002DE9F74F0D4622F07F4402683B
:108A20004FF4803705F150068F408046B60002EBC8
:108A30008500C2F84873B6B2C2F80873D2F80415BC
:108A400099464FF0000BD0F84035C0F8401542F879
:108A500006B05B1A9259009223F07F43012B009AD3
:108A60004FEA850A0CD1264B4FF4806043F0010396
:108A70009847D8F8003043F806B09B590193019B02
:108A8000D8F80010D1F80465C1F84473A31B23F093
:108A90007F43012B1CD11A4B05F5A875013443F017
:108AA000010341F825404FF480609847D8F8003022
:108AB000D3F804359E4209D1D8F800300020C3F81D
:108AC0004473C3F8047303B0BDE8F08F0D20FAE7D8
:108AD0008A44C9F1FF13CAF84045D1F80405221AA7
:108AE000013A22F07F4203F57F439342EED3002AFE
:108AF000E2D10134CAF84045D1F804359842DAE7AA
:108B0000D0ED020003680222C3F8442309B1C3F880
:108B10000423704700684FF48271FFF7E5BE4FF4FD
:108B2000803303FA01F10368C3F84813C3F808134C
:108B3000704750318900006889B2FFF7D5BE0368DD
:108B4000D3F804057047000090F90430002B09DBCE
:108B50005A09012103F01F0301FA03F340320249CD
:108B600041F82230704700BF00E100E0024B034AA9
:108B70001B681068184700BF402A0020382A0020D0
:108B800010B561B1B2FBF3F403FB1424A4B244B9F1
:108B9000C0E9001484608281C381204610BD0E208C
:108BA000FCE70920FAE782B050E8022FC188B2EB57
:108BB000324F4FF0000317BF92B241EA014142EA3F
:108BC000014104E04268B2EB324F08BF012340E8A4
:108BD0000212002AE8D18DF807309DF80730002BEB
:108BE0000CBF1120002002B0704737B550E8013F9C
:108BF0009DB2C48925448489A54228BF2D1B0489C0
:108C0000A54202BFBFF32F8F002207E0C5EA03058C
:108C100040E80154002CE9D14FF001028DF8032007
:108C20000193019A0A609DF8031001F0FF0321B13E
:108C3000006810FA82F003B030BD1846FBE70A88DE
:108C40004B889A4209D150E8012FC2EA024240E81B
:108C50000123002BF7D1012070470020704737B562
:108C600050E8023F1FFAA3F5C488A54202BFBFF334
:108C70002F8F00220DE0C48925448489A54228BF96
:108C80002D1BC3EA054540E80254002CE8D14FF003
:108C900001028DF803200193019A0A609DF80310E8
:108CA00001F0FF0321B1006800EB124003B030BDBA
:108CB0001846FBE70A884B889A4209D150E8022FF0
:108CC000C2EA224240E80223002BF7D1012070477C
:108CD0000020704710B5034653E8000F0A4643E8EA
:108CE000002494F0000FF7D110BD10B5034653E8EF
:108CF000000F40EA010243E8002494F0000FF6D18F
:108D000010BD10B5034653E8002F42EA010043E8C6
:108D1000000494F0000FF6D110BD10B5034653E8DF
:108D2000000F00EA010243E8002494F0000FF6D19E
:108D300010BD10B5034653E8002F02EA010043E8D6
:108D4000000494F0000FF6D110BD10B5034653E8AF
:108D5000002F02EB010043E8000494F0000FF6D16D
:108D600010BD10B5034653E8002FA2EB010043E805
:108D7000000494F0000FF6D110BD0121FFF7B5BF3C
:108D80000121FFF7BEBF0021FFF7C7BF0021FFF79A
:108D9000D0BF00002DE9F0478368D3F84831C3F312
:108DA00040059B0788B0074606D50022114608B04B
:108DB000BDE8F04701F00CBD012906D91E4A022189
:108DC00008B0BDE8F04700F0CBBC1C4C1C4EDFF8EF
:108DD00074A04FF06408A946361B1C23B6FBF3F6BB
:108DE000AE4204F11C0402D108B0BDE8F08754F88B
:108DF0001C0C54E90623017900689A1A1B1ADBB28D
:108E0000039308FB03F3B3FBF2F3CDE9019334F8CA
:108E1000043C0093CDE9061254F8083C11FB08F11C
:108E20003846B1FBF2F1CDE904215246082100F0A9
:108E300097FC0135D4E700BFD6ED0200D4E502006F
:108E40000CE60200E9ED020010B590B1D0E9012373
:108E500001689B1ADBB20A60013BDBB2FF2B0268A0
:108E600002D10020107110BD11684C1C14600B70F1
:108E7000F2E70E20F7E737B5054600240DF10700AD
:108E80008DF80740FFF7F6FC2A686B681168994275
:108E90000ED9481E106011F8013CEC68298B01FBCB
:108EA0000344AB6811791B1ADBB2994238BF1371C6
:108EB0009DF80700FFF702FD204603B030BD37B52F
:108EC000054600230DF107000C468DF80730FFF72B
:108ED000D1FC2A681368591C1160E968641A298B4F
:108EE000B4FBF1F41C709DF80700FFF7E7FC03B03A
:108EF00030BD30B18A68B2F8483143F02003A2F89F
:108F000048317047436810B59C6860680368012168
:108F10009B689847A36810B903221A7010BD0422F9
:108F2000FBE70968006805F05BBA00002DE9F8432B
:108F3000089E1D460C46F1B9194E1A49891BB2EB21
:108F4000D10F4FEAD10905D2174F043607EB82073C
:108F5000A14502D100232B6009E056F8348038681F
:108F6000D8F8001005F03CFA18B9C5F80080BDE843
:108F7000F8830134ECE70028ECD00178436839B17C
:108F80003146104698473368002BE3D02E60EEE759
:108F9000110103EB02125B58002BDBD02A60E6E7DD
:108FA00090E40200E8E402007422002030B58368F7
:108FB0000546D3F8400187B0E8B10023092203A990
:108FC000019002F049FEAB68049AC3F840210024E6
:108FD000234601988DF81440092203A9CDE90344E2
:108FE00002F030FE019802F0D6FDAB68D3F84001E4
:108FF00018B9C3F83C0107B030BD234603A90922C4
:1090000002F02AFEA8680394D0F840012346092202
:1090100003A902F017FEEEE708B105F008BA7047A1
:1090200010B584680068FFF7F7FFE37F1844637E9C
:10903000B0FBF3F203FB1200B0FA80F0400910BD60
:1090400010B584680068FFF7E7FFE37F627EA076D3
:1090500053FA80F3B3FBF2F102FB113301332375B2
:10906000A37F53FA80F00131B0FBF2F302FB13004F
:10907000A1750130591C6075E17504F1140010BD33
:1090800010B584680068FFF7C7FFA37F1844637EAC
:10909000B0FBF3F203FB1200B0FA80F0400910BD00
:1090A00007B58368DA7E8A421ED01B228DF8002025
:1090B0005B228DF8012031228DF802203B228DF8B1
:1090C000032033228DF8042001F12F028DF80520B2
:1090D0006D22D9768DF8062000228DF807200449EC
:1090E00000696A4601F083FF03B05DF804FB00BF2E
:1090F000C4EF02000A4609B1FFF7D2BF8168CA7601
:109100000069024A024901F072BF00BF4DF302003C
:10911000C4EF020007B583681A7F8A4218D01B2269
:109120008DF800205B228DF8012034228DF802207A
:1091300001F12F028DF803206D2219778DF804209C
:1091400000228DF80520044900696A4601F04FFFAE
:1091500003B05DF804FB00BFC4EF02002DE9F74344
:10916000002506460F4614460560207840B104F0FD
:109170008FFE68B1002304F8013B33680B2BF4D950
:1091800033680022284647F8232003B0BDE8F08367
:1091900033685A1C326047F82340054694F8008033
:1091A000B8F1000FE9D0002D77D1B8F1270F05D025
:1091B000B8F15C0F79D0B8F1220F66D12046FFF7E5
:1091C0002BFF611C0246204604F0E6FE4546E5E71B
:1091D0002046FFF721FF611C0246204604F0DCFE1A
:1091E0000025DBE7302826D102234FF00008E05CA1
:1091F000A0F13001C9B207295FFA83F918D8013309
:1092000041EAC801052B5FFA81F8F0D1994609F1CE
:10921000FF31214420460191FFF7FEFE0230A0EB12
:1092200009020199204604F0B7FE04F8018BB5E766
:10923000B9F1020FEBD178282DD102214FF00008AF
:10924000635CA3F13002D2B2092AC8B20AD842EA5A
:10925000081303295FFA83F802D14FF00409D6E717
:109260000321EDE7A3F16102052A03D8573B43EA46
:109270000813EEE7A3F14102052A01D8373BF6E7D0
:10928000022808D04FF00309C1E7404604F000FE71
:1092900000287FF472AF013480E7A84598D0B8F178
:1092A0005C0FF8D1607885429CD12046FFF7B4FE70
:1092B00004F1010802464146204604F06DFE444692
:1092C0006CE72DE9F34105460F461446002614B914
:1092D00002B0BDE8F081686803682246D3F80C80CC
:1092E000B91901ABC047019B1E44E41A002BEED113
:1092F000AB681A78032AEAD0D3F848219206FBD546
:10930000B3F848216FF34512A3F84821DFE70000C6
:109310000A46014901F06BBEF8EE020011B1006986
:10932000FFF7F6BF70470000014901F060BE00BFC3
:1093300011EF0200014A024901F059BE5EF302003A
:10934000C4EF0200014A024901F051BE4AF3020093
:10935000C4EF0200014A024901F049BE46F302008F
:10936000C4EF02000A4619B10249006901F03FBE8C
:10937000704700BFFEEE02000A4619B102490069BB
:1093800001F035BE704700BF04EF020038B5054656
:10939000FFF756FE83790278817801339A420446BA
:1093A00001D1012913D0012904D90139C9B22846B4
:1093B000FFF7D8FF2378A1798B4209D9013B591ACD
:1093C000C9B22846FFF7D8FFAB680022DA7738BD6C
:1093D0000131C91AC9B22846FFF7A0FFF4E7F8B572
:1093E0000546FFF72DFE8778C67804462846FFF726
:1093F00017FE18B92846FFF743FE10B12869FFF79A
:1094000093FFB74208D161782378C91A2846C9B2B8
:10941000BDE8F840FFF7B0BFA378E178C91AC9B238
:109420002846FFF79FFF237861788B42EDD9591AC0
:109430002846C9B2BDE8F840FFF770BF2DE9F04FEC
:10944000044685B00E4690460025705D04F020FD70
:1094500020BB5FFA88FA3046FFF7DEFDA3685B7E2B
:10946000401BA3EB080B584506EB050918D94A46E3
:10947000002712F8011B039308460292019104F0A1
:1094800007FDDDE9022318B101990A2931D0BB4655
:1094900008EB07018B422BD90137EAE70135D4E706
:1094A0004B460027B84217D013F8012B0A2A05EBC8
:1094B000070A1BD1206901F08FFD49463A46204634
:1094C000FFF7FFFE2069FFF72FFF5FFA88F12046C4
:1094D0000AF10105FFF722FF2069711901F087FDEC
:1094E000206905B0BDE8F04FFFF71EBF0137D9E78F
:1094F0005F46206901F070FD3A4649462046FFF775
:10950000E0FE3D44705D04F0C3FC38B92069FFF70C
:109510000BFF51462046FFF701FF9CE70135F1E7BD
:109520002DE9F34105468068424F00248022214600
:10953000A0308DF8034004F0FEFE3F49286901F099
:1095400056FD286901F048FD4FF47A7647F001078F
:10955000686803680122D3F810800DF1030101ABA4
:10956000C047019B5BB94FF6C010B847019B002B69
:10957000EED1013EB6B2002EEAD10D2035E09DF8C5
:109580000330AA681B2B48D092F8A0101B29EDD1FC
:10959000522B42D11444002384F8A03092F8A11039
:1095A0005B291FD102F1A20602211D4616F8010B0C
:1095B0004C1C3B28E1B264B21AD1002C20DB01F133
:1095C000A0041444002314F8010BD8B9FA2B28BFC7
:1095D000FA23FA2D13752B4628BFFA23937582F8C8
:1095E000A00002E082F8A0300B2002B0BDE8F081BC
:1095F00005EB850300EB4303303B80299DB2D5D1B9
:109600000C20F2E703EB830300EB43004E1C3038E1
:1096100083B23006F1B2F3D4D5E711190134E4B2C4
:10962000092C81F8A030A1D9002382F8A0300420B1
:10963000DBE700BF70F3020065F3020038B50546B2
:10964000FFF7FEFC027843789A4204468378C2789A
:1096500001D1934213D09A4205D9D21A0B492869F5
:10966000D2B201F0C4FC237861788B4208D9591A30
:10967000C9B22846FFF780FEAB689A7FDA7738BD1B
:10968000C91AC9B22846FFF749FEF5E70AEF0200FA
:10969000F8B51E46C3685B68054698604068036875
:1096A00017461C68284A2B46A0470446002842D18A
:1096B000686902F06EFA044600283CD101464FF476
:1096C000A672A86804F037FEA9682048B1F84831AE
:1096D0001F4A43F02003A1F84831B1F8483167F33D
:1096E0008203A1F84831B1F8483143F00803A1F8EA
:1096F000483101230B7045F218030B83121A154BE6
:109700004FEAD20C21460430614516D1072A04D90C
:10971000114B1048042204F059FC66B19DF8181052
:10972000E868FEF7C5FC0028A1BFEB68DB680122F2
:109730005A71B8BF04242046F8BD50F831703F6814
:1097400043F8047B0131DFE7F38E020090E402006E
:10975000E8E4020074220020238F0200FFF7B1BD6D
:109760000CB473B506AB044653F8046B01938368DD
:10977000D3F848516D0719D5DD7E8D4216D0B3F868
:109780001B50FFF7B7FC206901AA314601F0AEFC7F
:10979000E9B22046FFF7AEFC290A02D02046FFF7C7
:1097A000B9FC02B0BDE8704002B07047206901AA60
:1097B000314601F09BFCF4E782680021D18382F8F6
:1097C00020100368014A0321FFF7CABFC4EF02005B
:1097D00070B583681E78012E04461AD1406803686C
:1097E00000219B689847054688B908212046FFF765
:1097F00057FC31462046FFF78DFC2069064901F0F1
:10980000F6FBA36802221A702046FFF7D5FF284610
:1098100070BD0825FBE700BF10EF0200F8B5044655
:109820008068867FB3187F2B0F46154638DC002AE8
:1098300036D0C37FF61A03F1200113442033F6B269
:109840000144721C184404F0A7FBA068C37F2033B6
:109850002A463946184404F09FFBA76807F1200008
:10986000FFF7DAFBFB7F0F4AB87720333B442046F3
:109870000821FFF775FFA368DA7F1544DD772046DE
:10988000FFF7CEFB18B92046FFF7FAFB10B12069AD
:10989000FFF74AFD26B12046BDE8F840FFF79FBD1F
:1098A000F8BD00BFC4EF02002DE9F0410446806816
:1098B000D0F84861827FC37FC6F30008D51A16F03E
:1098C00001060F46EDB23CD17E2A3ED83DB103F1F0
:1098D0002001213301442A46184404F05DFBA368AB
:1098E000DA7F1A4482F82070002E6AD19A7F013202
:1098F000D2B29A77134483F82080002D6AD0204694
:10990000FFF79EFB8278C3789A4220D1A268D37F6A
:109910002033134408212046314AFFF721FFA91BB9
:10992000C9B22046FFF728FDA268D37F0133D37761
:109930002046FFF775FBF0B12069BDE8F041FFF765
:10994000F3BC7E2ACBD9002DC9D1BDE8F0812069B6
:10995000FFF7F8FCA268D37F203313440821204A84
:109960002046FFF7FDFE2069FFF7E4FC2069012196
:10997000FFF7CEFCD8E72046FFF782FB0028E4D0B3
:109980002046FFF75DFBC2788378013AD21A12F0C5
:10999000FF02054603D01349206901F028FB206926
:1099A000FFF7C2FCE978AB78C91A2046C9B2FFF7C5
:1099B000D9FC297801392046C9B2BDE8F041FFF74A
:1099C000ADBC002D9BD1987F0130C0B29877034485
:1099D00083F82050044920693A4601F008FBA3E7C8
:1099E000C4EF02000AEF0200DFEC020070B58368EA
:1099F00086B00025CDE90355D3F844218DF81450E5
:109A000004460E46002945D1002A3ED0FFF7BEFC91
:109A1000A0683346D0F84401092203A902F01CF9DA
:109A2000A668049BB57FC6F84431002B52D106F1DD
:109A3000A00108460191FFF7EFFA019938B306F14A
:109A4000200004F0ABFCA0682030FFF7E5FA8DF8A9
:109A500014009DF81430A268AB42D377937702D2FA
:109A60002069FFF777FCA3682C4A204620330821A1
:109A7000FFF776FE2046FFF7D3FA18B92046FFF726
:109A8000FFFA10B12069FFF74FFC06B070BD86F8F1
:109A90002000D8E7D3F840119142F6D0D3F83C31FA
:109AA000002BF2D0FFF772FCA668D6F8440140BB49
:109AB00006F1200108460191FFF7AEFAD6F83C31D5
:109AC0000199C6F8443110F0FF0517D006F1A00047
:109AD00004F064FCA06803A9D0F844010023092223
:109AE00002F0BAF8A0689DF8142000F120010923C3
:109AF000D0F84401013202F0AFF8AAE786F8A0508E
:109B0000E8E72B46092203A902F0A6F8A368039A06
:109B10009DF81450C3F84421DCE700BFC4EF0200F5
:109B200038B504468068C37F857FED1A15F0FF05C0
:109B30003BD003F12101203301442A46184404F0AC
:109B40002BFAA268937F013B93772046FFF778FAC0
:109B50008278C3789A4214D1A268D37F2033134409
:109B60002046124A0821FFF7FBFD20690F49104AE1
:109B700001F03DFA691E2046C9B2BDE83840FFF742
:109B8000FBBB2069FFF7DEFB2069FFF7E3FBA26860
:109B9000D37F203313442046044A0821FFF7E0FD19
:109BA0002069BDE83840FFF7C5BB38BDC4EF0200EF
:109BB0005AF302002DE9F041C3685B6890B0044697
:109BC0000D461868002203A902F03BF9002840F076
:109BD0008A808DB1039802F027F8A268D2F8383154
:109BE0000133C2F8383103F00703012B04D00125FB
:109BF000284610B0BDE8F0812046FFF721FA8178B1
:109C00000129064604D90139C9B22046FFF7AAFB4B
:109C10003178012904D90139C9B22046FFF7ACFBDC
:109C20002069FFF797FB2DB1304A02212046FFF74C
:109C300097FDDDE700230822039804A902F00CF841
:109C4000069B0793059B08939DF810308DF82550CF
:109C500003F00302012A25D1BDF81020049E0398C9
:109C6000C3F3C203C2F383178DF82430BA0008236C
:109C70000AA901F0F1FFC6F39526236900933A463D
:109C800007AB0AA93046FEF7C7FA039801F0CCFFEC
:109C9000E3685B680022186803A902F0D2F8002884
:109CA000C8D0A4E7022AF0D1BDF81260C3F3C20302
:109CB000C6F389168DF824304FF00808082E374671
:109CC00028BF0827434603983A460AA901F0C4FF73
:109CD000F61B236907AA39460AA8B844FEF700FB19
:109CE000002EEBD1D1E7002582E700BF13EF020081
:109CF000436801219868FFF75DBFF7B54768019198
:109D0000BD68AB681E78042E0ED0386801A901F03A
:109D1000C5FF044650B9019801F082FF032E03D11C
:109D200021462846FFF746FF03B0F0BDF11E18BFDD
:109D300001212846FFF73EFFE7E700002DE9F04F3D
:109D400083468068A7B0102100F5A470FEF7D9FF04
:109D5000DBF808301B78022B7CD100230D93DBF855
:109D60000400036801221C690DF133010DABA0470B
:109D70000D9B002B53D09DF933309DF83350002BB1
:109D8000EDDBDBF808406378012B00F04D84022BFB
:109D900000F04F84002B40F018850D2D1FD00A2DA8
:109DA0001DD0B4F8482163F38D12A4F84821092D81
:109DB00000F0F48100F2E181002DD0D0082D00F0F8
:109DC000C083284604F06CF80028C8D0D4F8483185
:109DD0001E07C3F3C00040F11584294614E3D4F8EC
:109DE000483113F47F5F05D0D4F84831C3F38713AB
:109DF0009D42DCD1B4F84831A67F65F38D13A4F8F9
:109E00004831B6BBC4F84461DBF81000FFF78CFAA8
:109E1000DBF8083002221A705846FFF7CDFC00210B
:109E20005846FFF7C7FEA8B1DBF80030B64A032159
:109E30005846FFF795FCDBF80830D3F848211207A5
:109E400008D55846B04A20330821FFF789FC584608
:109E5000FFF7C5FADBF8100001F0BEF8DBF80800E8
:109E60006FF0100100F5A47027B0BDE8F04FFEF7C9
:109E700060BF94F82030002B61D1DBF8085005F169
:109E80002000FFF7C9F8002610F0FF04C5F8446170
:109E900024D0D5F83C01002800F0918033460922F7
:109EA00019A901F0D9FE9DF86C309C4240F08780E2
:109EB000DBF80800092300F1A001621CD0F83C0186
:109EC00001F0CAFEDBF8085005F1A00105F1200001
:109ED00004F086FA002870D185F8A0005846FFF7F4
:109EE000ADFB5846FFF79CF818B9DBF81000FFF7F8
:109EF0001BFADBF8082019A9203210A8FFF72EF969
:109F0000109B002B80D0002840F0A2807F4E804D17
:109F1000199BAD1BED080446A54240F0A0807D4A88
:109F2000009202217C4A5846FFF71AFC70E701357F
:109F3000B5F5807F04D1002384F820309DE700250B
:109F40006319EFB293F8200003F0A2FF0028EED1CE
:109F50006FB104F12000721C521B411904F01CF86F
:109F6000DBF80820937FDB1BDBB29377D377DBF83A
:109F70000860B57F05F11F073744BA465FFA87F9D5
:109F800053460293187803F083FF5FFA8AF8A9EB2F
:109F90000804029BE4B20AF1FF3A0028F0D19F4284
:109FA0003FF46BAF2C1BA8EB090334442B44DBB20A
:109FB00084F82000B377F3775FE785F8A060082680
:109FC00004F10A05DBF81400294601F0FAFD044605
:109FD000002837D0DBF80830D3F83C01B0B9C3E92A
:109FE0004F44CDE919009B7F8DF86C3019A92046AC
:109FF0000023092201F026FEDBF808108A7F0923DE
:10A0000001322031204601F01DFE67E700230922BE
:10A0100019A901F021FEDBF808001A940023092297
:10A02000D0F83C0119A901F00DFE00231A93DBF8CA
:10A030000830D3F83C2119929A7F8DF86C20C3F830
:10A040003C41D3E75846FEF7B1FF013EBAD145E7A0
:10A050000346324A02215846FFF782FBD8E672686F
:10A0600002931846116804F0BBF93746029B083684
:10A0700018B10134A542BFF44FAFDBF8080000214E
:10A0800010220430119104F056F97C68E36833B172
:10A0900094E80F00DBF80850043585E80F00D4F889
:10A0A0000890DFF880A019AE4FF0000801250027C6
:10A0B000109BAB4212D974685146204604F090F9C7
:10A0C00020B11749204604F08BF968BBDBF8082063
:10A0D000B2F8483143F00203A2F84831DBF8083007
:10A0E0001B69002B43D0109919AA02EB8802A1EB3F
:10A0F000080158469847DBF80830B3F848216FF359
:10A100004102A3F8482183E6C4EF020090E4020074
:10A11000E8E4020055EF020021F0020041EF0200E6
:10A120006CEF020069EF020015AB0093484611ABDB
:10A130003A462946FEF7FAFE781CCFD0119C002C37
:10A14000CCD02168706804F04BF901370028AFD1FA
:10A15000E3683BB194E80F00DBF80870043787E848
:10A160000F00A846D4F80890013504369FE7A84AA6
:10A1700002215846FFF7F4FABDE71B2D0BD07F2DC7
:10A180007FF41FAED4F848311F077FF5E8AD58467D
:10A19000FFF7C6FCE3E501236370E0E5D4F848313E
:10A1A00019077FF5DCADA37FC3F17F0313F0FF0335
:10A1B00004933FF4D4ADE27F04F1200104F1A00048
:10A1C00004F090F8DBF80850EB7F2B440024D87F94
:10A1D00083F8A04003F05CFE031B18BF012305F1C8
:10A1E000A0020590C5F8444119A90EA80693FEF7F0
:10A1F000B5FF1998FEF710FFCDE90F44C3B20293E3
:10A20000254627460394A24626460E9B2BB1069A66
:10A21000013B1344AB4200F28C80059B002B3DD1E7
:10A2200026AB03EB850353F8340CFEF7F5FEC3B2FF
:10A23000029326AB03EB85034FF00009099309F164
:10A240000103079311AB00934A460FAB29463846EA
:10A25000FEF76CFE0F9B002B54D01968099B029AE5
:10A2600053F8340C0B9103F0BDFF0890C0B9039B69
:10A270000B99013303930846109B0A93FEF7CCFE1B
:10A280000A9B5FFA80F893B9029B049AA8EB030338
:10A290009A4201DDDBB20493CA4626E00023C7E7F9
:10A2A000A046DDF81C904446C9E74E46F9E7A045B4
:10A2B000049B38BFA0465FFA88F8B3B115AB009392
:10A2C000324610AB38462946FEF730FE0F9B089EFB
:10A2D0001868109B1C68029AB118F3B2425CFAB974
:10A2E000049A9A4228BF1A4604920F9B1093079B28
:10A2F000002BDAD1474A04215846FFF731FA444689
:10A300004FF0FF36002F40D00F9B002B3DD00E9B0F
:10A31000069A0135EDB213449D42FFF476AF34E066
:10A32000615C9142DCD10136B6F5807FD3D1FF2349
:10A33000D6E726AB03EB85034FF00008079311AB7C
:10A34000009342460FAB29463846FEF7EFFDB8F1C1
:10A35000FF3F05D12F4A04215846FFF701FAFEE4DA
:10A36000DDF83C90B9F1000F3FF4F9AC079BD9F848
:10A37000001053F8340C04F033F808F101080028F9
:10A38000DDD1D9F80870002FC1D1039B002B3FF419
:10A39000E6AC012B5ED13B783BB111AB009332466A
:10A3A00010AB29463846FEF7C1FD109B1C682046BD
:10A3B000FEF732FE029B984205D01946049A2144CA
:10A3C0005846FFF72BFADBF80840E57F631993F84E
:10A3D000200003F05DFDF8B9D4F84831DA0712D552
:10A3E000B4F8483160F30003A4F8483120215846FE
:10A3F000FFF75AFADBF80820B2F8483143F00103BE
:10A40000A2F84831ABE420215846FFF74DFAA6E404
:10A4100073EF020091EF0200A37FAB427FF69FAC87
:10A420005846FEF70DFEDBF808208478D37F013311
:10A43000D3775846FEF704FE8378A34205D1DBF8B4
:10A4400010000121FEF764FF89E4DBF81000FEF73D
:10A450006BFF84E4DBF80830C94E00225A7726AB44
:10A4600003EB850306930AF10103059311AB5246F2
:10A47000009329460FAB3846FEF758FD0F9B029A12
:10A48000D3F800A0069B514653F8340C03F0AAFE03
:10A4900090BB039B3046013B0393FEF7BDFDDBF809
:10A4A000083007935A7E04EB0008A2EB00095046DF
:10A4B000FEF7B2FD079B5A7F5FFA88F8511CB9FB83
:10A4C000F8F95FFA89F95977B2FBF9F309FB13221E
:10A4D000A8EB0008D2B25FFA88F882B9A94ACDF891
:10A4E00000A0334607215846FFF73AF9414658463F
:10A4F000FEF714FF039B4BB1DDF814A0B3E7A24AAB
:10A50000534607215846FFF72BF9EFE7DBF80030F9
:10A510009E4A58460321FFF723F9DBF808309A4A90
:10A52000203308215846FFF71BF95846FEF757FF1E
:10A53000109B049A1968029B58461944FFF76EF95C
:10A540000DE4D4F848311B077FF509ACA67F002E37
:10A550003FF405ACE07F00283FF401AC361A00F16F
:10A560002001F6B21F30721C2144204403F014FD78
:10A57000DBF80830DA7F013ADA779A7F013A9A7786
:10A58000C6B32A468249DBF8100000F030FD584679
:10A59000FEF756FD8278C3789A4213D1DBF8082083
:10A5A000D37F203313442946774A5846FFF7D8F81B
:10A5B000DBF81000FEF7CEFE31465846FEF7DCFE13
:10A5C000FFF7CDBBDBF81000FEF7BCFEDBF8100098
:10A5D000FEF7C0FEDBF80820D37F20331344584633
:10A5E000694A2946FFF7BCF8DBF81000FEF7A2FE27
:10A5F000FFF7B5BB674A6449DBF8100000F0F7FCD1
:10A60000FFF7ADBBA27F7E2A3FF6A9ABE17F4B1CD3
:10A61000DBB2E37721442344013281F8205083F8F0
:10A620002000A277FFF79BBB5B2D40F0CE8002237A
:10A63000B2E500236370D4F8483119077FF5EFAB1A
:10A64000313D1B2D3FF68BAB01A353F825F000BF26
:10A6500071A70200A5A70200C5A7020063A7020018
:10A660005F9D02005F9D02005F9D02005F9D0200F2
:10A670005F9D02005F9D02005F9D02005F9D0200E2
:10A680005F9D02005F9D02005F9D02005F9D0200D2
:10A69000C1A60200CDA60200D1A602001FA702009B
:10A6A0005F9D020067A702005F9D020075A7020080
:10A6B0005F9D02005F9D02005F9D0200A9A702004E
:10A6C00001215846FFF792F9FFF749BB0021F8E74F
:10A6D0005846FEF7B5FC037842789A42044604D106
:10A6E0008178C27891423FF43AAB62799A4210D1B4
:10A6F0002949DBF81000012200F079FC6179584605
:10A70000FEF73AFEDBF80820D37F0133D377FFF75B
:10A7100026BBDBF810000121FEF7FAFDF2E75846F0
:10A72000FEF78EFC8379027801339A42044603D106
:10A730008378012B3FF413AB012ADBF810000BD117
:10A74000164900F054FC61795846FEF7E7FDDBF846
:10A750000820D37F013BD9E71149012200F047FCD3
:10A76000F5E7032363705846FEF768FFFFF7F7BA73
:10A77000032363705846FEF709FEFFF7F0BA00BFE7
:10A78000DAEC0200BDEF0200C4EF0200C3EF0200EA
:10A79000DFEC020061F302000AEF0200FEEE0200AD
:10A7A00004EF020003236370D4F84831B4F8482161
:10A7B00003F0010383F0010363F30002A4F84821CE
:10A7C000FFF7CDBA03236370DCE40023E4E400BFA9
:10A7D0002DE9F04F8BB0836817466C4A009204460F
:10A7E0006B4A5B680D460821FEF7BAFFA6687068E1
:10A7F000FEF712FCB168033082B211B12046FEF7B9
:10A800001DFE644A00212046FEF7AAFF002F3DD01E
:10A81000002D3BD04FF00C0AA9460AFB075A082628
:10A82000D9F80400FEF7F8FB8046D9F80000FEF7DF
:10A83000F3FB4044B04209F10C0988BF86B2CA4517
:10A84000EED106F10408544B544A00931FFA88F8DD
:10A8500006F107090821204643461FFA89F9FEF749
:10A860007FFF4F494A462046FEF7E8FD2DB1DFF84D
:10A870002CB14FF0000ABA450AD1A368D3F80C8076
:10A88000B8F1000F3ED10BB0BDE8F08F0826D8E735
:10A89000D5E9002373B32AB30192424A00920821FA
:10A8A000414A2046FEF75CFF6868FEF7B5FB03905F
:10A8B0002868FEF7B1FB0399B31C591A091AC9B2EB
:10A8C0002046FEF72BFD394920693A2200F08FFB24
:10A8D000A96899B14A462046FEF7B0FD0AF1010A7F
:10A8E0000C35C8E7009343465A4608212046FEF738
:10A8F00037FFEDE7002AEBD00092F4E72069FEF77E
:10A9000013FDEBE700220592174606AE009605AB55
:10A910000121404602F10109FEF708FB059D3DB10A
:10A920002868FEF779FBB84200D987B24A46EDE7BE
:10A93000B9F1010FA7D01E4ADFF860A029462046D2
:10A94000FEF70EFF2A46BD1CADB205AB00960121F5
:10A95000404602F10109FEF7E9FA059B002B92D06F
:10A960001B68009308212B4652462046FEF7F8FE4E
:10A97000059B596831B17A1D92B22046FEF75EFD03
:10A980004A46E2E72069FEF7CFFCF9E76AF30200E6
:10A99000BEEF0200C7EF020076F30200D1EF020023
:10A9A000D9EF0200E8F40200ECEF0200DFEC020055
:10A9B000F5EF020000221146FFF70ABF022910B589
:10A9C000044608D18368D3F848319B0703D5BDE816
:10A9D0001040FFF7EFBF2069054A064900F007FB6A
:10A9E0002069054A0349BDE8104000F000BB00BFE4
:10A9F00056F30200C4EF020051F30200012906D011
:10AA0000022906D18368D3F848319B0701D5FFF7A7
:10AA1000D1BF024A0221FEF7A3BE00BF73EF0200BE
:10AA200038B58368D3F84821C2F3400592070C4635
:10AA300006D500221146FFF7CBFE2C46204638BD36
:10AA40000029FBD05B68024A0221FEF789FEF5E788
:10AA500003F00200012937B50546144604D103B0BE
:10AA6000BDE83040FFF7A6BF023918BF0121FFF74C
:10AA7000D7FF48B963680193044B0093044A2368E5
:10AA800002212846FEF76CFE03B030BD71E70200DC
:10AA90001EF00200012907B504D103B05DF804EBF4
:10AAA000FFF788BF02290AD153680193084B00932E
:10AAB0001368084AFEF754FE03B05DF804FB8CBF30
:10AAC0000121002103B05DF804EBFFF7A9BF00BF2F
:10AAD00071E702001EF00200013910B518BF012114
:10AAE0000446FFF79DFF40B9044A0549206900F07C
:10AAF0007EFAA36845F218021A8310BD40F30200E3
:10AB0000C4EF02000129F7B50446154633D1856824
:10AB1000FEF706FD18BBA36820691F7D9E7DFA2104
:10AB2000FEF7F6FB20691D49FA2200F060FA204684
:10AB3000FEF7F6FC98B9A368197D6976A368C91B6E
:10AB40009B7D2B762046C9B2FEF716FC297E891B19
:10AB5000C9B2204603B0BDE8F040FEF703BCA368CD
:10AB600045F218021A830E4A0421204603B0BDE8BC
:10AB7000F040FEF7F5BD022994BF00210121FFF747
:10AB80004FFF48B96B680193064B00932B68064A48
:10AB900002212046FEF7E4FD03B0F0BD0AEF0200FB
:10ABA00027F0020071E702001EF002002DE9F041DB
:10ABB000013986B018BF01210546FFF731FF40BBC0
:10ABC000AB68DFF85480D3F840610446EEB1082C3E
:10ABD0001BD030460023092203A901F03DF89DF85F
:10ABE0001420A968304609230132A03101F034F85D
:10ABF000AB68049EA0330093671C234642460021A5
:10AC00002846FEF7ADFD3C46E0E7AB68002283F83E
:10AC1000A02006B0BDE8F08161F00200013910B556
:10AC200018BF01210446FFF7FBFE30B9A368B3F853
:10AC3000482160F38202A3F8482110BD013910B504
:10AC400018BF01210446FFF7EBFE30B9A268B2F845
:10AC5000483143F00403A2F8483110BD013910B562
:10AC600018BF01210446FFF7DBFE30B9A368B3F833
:10AC7000482160F3C302A3F8482110BD013910B583
:10AC800018BF01210446FFF7CBFE30B9A268B2F825
:10AC9000483143F00803A2F8483110BD022973B5CA
:10ACA0000D4694BF0021012104461646FFF7B8FE69
:10ACB000014658B9022D0BD1736801930C4B0093D8
:10ACC0000C4A336829462046FEF74AFD02B070BDA3
:10ACD000A368094AD3F8483113F0080F074B18BF8F
:10ACE0001346074A204602B0BDE87040FEF738BD63
:10ACF00071E702001EF0020027E902006BF002007B
:10AD00006FF00200013910B518BF01210446FFF7AA
:10AD100087FE48B9A368C3F83801E3685B68BDE8FB
:10AD20001040186801F0D5B810BD00007FB501399A
:10AD300018BF01210446FFF773FE0546B8B9E36862
:10AD40005B681E68304601F0C1F8B268A168C3B202
:10AD5000CDE9013264204343B3FBF2F3DBB200934D
:10AD6000D1F83831034A29462046FEF7F9FC04B0F1
:10AD700070BD00BF80F002001A60C0681A4601F082
:10AD80007AB9000010B4074C0378E35C23B15DF896
:10AD9000044B043001F0F2BF5DF8044B0C3001F0BD
:10ADA000FBBC00BFFC2A00204069054A0378D35C45
:10ADB00013B1043002F09CB80C3001F0B7BD00BFF5
:10ADC000FC2A00200378044AD35C13B1043001F05C
:10ADD00045BF0C3001F078BCFC2A002010B50446B9
:10ADE0004069FFF7EFFFA368BDE810401868FDF762
:10ADF00037BC000037B5FF2304460093C068012329
:10AE00006A4601A901F072F898B9009888B163699F
:10AE10000B4D0199C2B21878285C60B1181D01F081
:10AE2000FBFF30B9A3682246186840F26661FDF75F
:10AE3000E9FB03B030BD03F10C0001F0FDFCF0E7CD
:10AE4000FC2A002038B5436893F8283004460D46A4
:10AE50000BB383681868FDF703FC30F008030ED1CC
:10AE600075B16069FFF7AEFF616860690022083163
:10AE700001F0EAF968B96368012283F8292038BD36
:10AE8000636893F8283043B12046BDE83840FFF7A7
:10AE9000B1BF0620F3E70029E3D1064AA0680021EC
:10AEA000FDF79EFB6368012283F828200028EBD081
:10AEB000E5E700BFA9AD020073B50378FF26012BBB
:10AEC00005460C46019623D0022B18D0F3B9017A1F
:10AED000206901F010F901AA206901960123694651
:10AEE00001F092F8019A22B100996069D2B2FFF79D
:10AEF00049FF63680120D3E90021904706E0017A09
:10AF0000E06801F02BF82046FFF774FF02B070BD37
:10AF1000017AE06801F022F82B7A002BF3D0636805
:10AF20000020D3E900219047EDE7000037B51A6013
:10AF300005461A46006901F028F8044608BB68690E
:10AF4000134A0378D35CFBB1043001F00BFFC0B9A6
:10AF5000FF2301932869012301AA694601F054F8EF
:10AF600078B99DF8042000996869FFF70BFF6B68BA
:10AF700093F82930044623B118B90199286901F0E2
:10AF8000BAF8204603B030BD0C3001F0F9FBDEE723
:10AF9000FC2A002038B504464068C0E9002300239D
:10AFA000038501F120020B46083053F8045B40F89A
:10AFB000045B9342F9D1074A60690C6101F044F9DE
:10AFC000054628B9E06800F088FF206900F085FF99
:10AFD000284638BDB9AE0200826810B504462AB1D1
:10AFE00043690168006998470023A36010BD0EB44F
:10AFF00003B5039921B104AB01AA019300F076F8DF
:10B0000002B05DF804EB03B070470A2938B5044676
:10B010000D4602D10D21FFF7F8FFA3682268591CE5
:10B02000A160D554D4E901329A4204D32046BDE848
:10B030003840FFF7D1BF38BD2DE9F84F9846DDE91C
:10B040000A43154682460F460A464FF00109AA42B6
:10B050000FD2C14538BFC14613F0010B01D16CB905
:10B0600000240126B8F1010F1BD908F1FF386E4307
:10B07000F8E709F10109B2FBF5F2E8E79B070ED505
:10B08000B8F1000F0CBF30262026A145E9D2013CC3
:10B0900031465046FFF7B9FF002CF6D1E0E72026F5
:10B0A000F3E7B7FBF6F39D42E1D9DFF83C80B7FB4D
:10B0B000F6F3504618F8031006FB1377FFF7A5FFC9
:10B0C0003346AB42B6FBF5F6F1D2BBF1000F02D02E
:10B0D0000CB1A14501D3BDE8F88F20215046013CB9
:10B0E000FFF793FFF4E700BF08F502002DE9F74FE3
:10B0F000054617468846002900F03E8118F8011BD6
:10B1000049B92B7B002B00F03781284603B0BDE8FE
:10B11000F04FFFF761BF252940F0B780002698F86F
:10B1200000302D2B424608F1010823D0302B24D0CB
:10B130002B2B25D000242A2B02F1010123D13B68BF
:10B140001A1D1B683A601C440A4613782E2B26D120
:10B1500001324FF0000A104610F8011BA1F1300C2B
:10B16000BCF1090F1DD80A2303FB0A13A3F1300A0F
:10B170000246F0E746F00106D1E746F00206CEE7C8
:10B1800046F00406CBE711F8013CA3F13000092892
:10B19000DBD80A2202FB0434303C0A46CBE74FF0EE
:10B1A000000A12F8011B01F0FB0068289046F8D055
:10B1B000782909D86F290CD8632962D022D825298B
:10B1C00063D0582900F0888098F80030002B95D182
:10B1D00097E770390829F7D801A353F821F000BF89
:10B1E00053B30200C9B10200C9B10200E9B20200C2
:10B1F000C9B10200C7B20200C9B10200C9B1020060
:10B20000D9B20200642901D06929DDD13A68D2F8A7
:10B210000090111D89EAE9723960A2EBE9724FF0E2
:10B22000010B092A35DCD34538BFD3462CB1B9F11F
:10B23000000F01DB720700D5013CB30702D5BAF15C
:10B24000000F03D0F00701D44CBB0024B9F1000F6C
:10B250002DDAC9F100092D212846FFF7D6FE06F0A8
:10B260000302022A04D1BAF1000F01D11CBB002451
:10B27000CDE9004653460A2249462846FFF7DCFE40
:10B28000A2E73B681A1D19783A602846FFF7BDFE11
:10B290009AE70A230BF1010BB2FBF3F2C1E7A345D6
:10B2A000D4D220212846013CFFF7AFFECCE771073E
:10B2B000D5D52B21D0E7A345DAD230212846013C51
:10B2C000FFF7A3FED2E73968CDE900460A1D3A60D0
:10B2D00053460A220968D0E739680A1D3A60CDE969
:10B2E000004653461022F5E73B681A1D3A6016F0F7
:10B2F0000106D3F8009024D1B9F1000F03D04846DD
:10B3000003F095F80646B4421DD809F1FF3919F843
:10B31000011F00293FF458AF2846FFF776FEF6E7F5
:10B3200028460136FFF771FE19F806100029F7D1FB
:10B33000A642BFF449AF20212846013CFFF765FE35
:10B34000F6E70026F0E720212846013CFFF75DFEE6
:10B35000D9E73B681A1D3A60302128461C68FFF780
:10B3600054FE78212846FFF750FE00220823CDE93D
:10B3700000322146102280E703B0BDE8F08F00BF05
:10B3800013B50B46114698B9144B5B886BB1144B3F
:10B390001448154AC01A0E23C0080093134B00042A
:10B3A000134940F00100FCF776FE0E2002B010BDFC
:10B3B0006BB90A4B5B88002BF7D0094B09480D4A43
:10B3C000C01AC0080E2300930004084BE8E703608E
:10B3D0001B6802B0BDE81040184700BFCC22002017
:10B3E00024E502007CE5020018F50200E2F6020006
:10B3F0001DF502004CF50200F7B5A0B93C4B5B8887
:10B40000002B6CD03B4B3C483C4AC01AC0080E2471
:10B410003B4B009400043B4940F00100FCF73BFE2D
:10B42000204603B0F0BD6AB9314B5B88002B56D083
:10B43000304B3148344AC01AC0080E24304B0094B7
:10B440000004E8E7D0F800C0BCF1000F0DD1284B94
:10B450005B88002B45D0274B27482C4AC01AC008D0
:10B460000824274B00940004D5E76BB9204B5B8878
:10B47000002B38D01F4B2048254AC01AC008092489
:10B480001F4B00940004C6E78D070CD0184B5B8857
:10B490005BB3184B18481F4AC01AC0081024184B39
:10B4A00000940004B7E7C568A9420BD34D1EEC1801
:10B4B0000569AC4206D8DCF80840A44603B0BDE8F4
:10B4C000F04060470A4B5B887BB10A4B0A48124A3E
:10B4D000C01AC00810240A4B009400049BE70E24F5
:10B4E0009EE708249CE709249AE7102498E700BF08
:10B4F000CC22002024E502007CE5020018F50200C1
:10B50000D0F602001DF5020052F5020046F50200D9
:10B51000DAFF020059F5020070F502002DE9F74349
:10B52000DDF82880B0B9524B5B88002B00F0978083
:10B53000504B5148514AC01AC0080E24504B009439
:10B540000004504940F00100FCF7A5FD204603B07F
:10B55000BDE8F0836AB9464B5B88002B7FD0454B32
:10B560004548494AC01AC0080E24454B00940004BF
:10B57000E7E7D0F800E0BEF1000F0DD13C4B5B884F
:10B58000002B6ED03B4B3C48404AC01AC0080824F0
:10B590003B4B00940004D4E76BB9354B5B88002B20
:10B5A00061D0344B34483A4AC01AC0080924344B9D
:10B5B00000940004C5E74568D5F80490B3FBF9F59D
:10B5C00009FB15356DB12A4B5B88002B4BD0294BFD
:10B5D0002948304AC01AC0080924294B00940004A5
:10B5E000AFE78D070DD0224B5B88002B3DD0214B60
:10B5F0002148294AC01AC0081024214B0094000495
:10B600009FE712F0030F0CD0194B5B886BB3194BFB
:10B610001948224AC01AC0081024194B009400048B
:10B620008FE7C568A9420DD34D1EEC180569AC42E1
:10B6300008D8CDF82880DEF80C40A44603B0BDE859
:10B64000F04360470A4B5B887BB10A4B0A48144AB7
:10B65000C01AC00810240A4B0094000471E70E249D
:10B6600074E7082472E7092470E710246EE700BF2E
:10B67000CC22002024E502007CE5020018F502003F
:10B68000BDF602001DF5020096F5020046F5020027
:10B69000DAFF02009CF50200C6F50200DEF50200AA
:10B6A00001F60200F7B5A0B9374B5B88002B63D0D9
:10B6B000364B3748374AC01AC0080E24364B009420
:10B6C0000004364940F00100FCF7E5FC204603B0D9
:10B6D000F0BDD0F800C0BCF1000F0DD12A4B5B8843
:10B6E000002B4BD0294B2A482D4AC01AC0080824E9
:10B6F000294B00940004E4E76AB9234B5B88002BD4
:10B700003ED0224B2248274AC01AC0080924224BA7
:10B7100000940004D5E74568D5F800E00EF1FF3548
:10B720000D420CD0184B5B8863B3184B18481E4A67
:10B73000C01AC0081024184B00940004C1E7C56863
:10B74000A9420CD34D1E0EFB02540569AC4206D82B
:10B75000DCF81040A44603B0BDE8F04060470A4B57
:10B760005B887BB1094B0A48104AC01AC0081024F4
:10B77000094B00940004A4E70E24A7E70824A5E7DA
:10B780000924A3E71024A1E7CC22002024E502002D
:10B790007CE5020018F50200AAF602001DF5020081
:10B7A00046F50200DAFF020028F602004EF602001B
:10B7B00070B550B90E4D0F4C0026641B1423B4FB1A
:10B7C000F3F4B44208D1002010E00368002BF1D05C
:10B7D000BDE87040DB6918472B6813B90136143592
:10B7E000EFE7DB69284698470028F7D070BD00BF17
:10B7F000602200207422002029DF704728DF704774
:10B8000070B503689E6886B004460D466EB114227A
:10B810000021684602F08FFDA36805932379019506
:10B820002BB1012B0DD06846B04706B070BD012387
:10B830008DF8003023690293E368039363690493EE
:10B84000F1E702238DF80030E3681B030293F5E76C
:10B850000846704700207047024B187A003818BF1E
:10B8600001207047D02A0020034B187A0122B0FA39
:10B8700080F05A7440097047D02A002008B510465D
:10B880001A4602F02FFD002008BD000008B5142262
:10B890000021044802F04FFD0348FDF784F9002021
:10B8A00008BD00BFD02A00206023002010B5094C3D
:10B8B000094B43602046FDF760FA40B902F0E8F812
:10B8C000064920741C2306488C22FDF759F90020F4
:10B8D00010BD00BFD02A002004F70200442A002037
:10B8E0006023002038B5234D234C2B7A3BB92349E4
:10B8F0002348FDF7B4F9206008B9686038BD022319
:10B9000024682B72237973B1012B24D020460321A4
:10B91000FFF776FF00232B726B6018491848BDE8CB
:10B920003840FDF7C7B9D4E90523D21AB2F5805FD4
:10B93000D4E9031028BF4FF480529208012A38BF7F
:10B94000012219441844FFF757FF50B11128DDD1E7
:10B9500001232B72D2E7D4E903031844FFF74EFF0B
:10B96000F3E72B7C002BC9D1BDE83840022000F062
:10B9700009B800BFD02A0020E82A0020E42A0020CD
:10B980006023002038B5234C237A002B41D0022BB2
:10B9900009D1032830D0204B00221B68E2601A79BD
:10B9A0003AB1012A22D0637C7BBBBDE83840FFF767
:10B9B00099BFD3E905128D1AB5F5805F94BF52196E
:10B9C00002F580529A619142EDD102284FF00003B6
:10B9D00008BF19462372104B18BF0D211868FFF7D6
:10B9E0000FFF0E490E48FDF765F9DCE71A690132D1
:10B9F0001A615B699A42E7E7E3680133082B01D8D3
:10BA0000E360D0E70023E360DFE7BDE8384002F001
:10BA10002FB838BDD02A0020E82A0020E42A0020D0
:10BA200060230020831E012B01D8FFF7ABBF7047B6
:10BA300000F0FD03012B08D1044B00225A74421E72
:10BA4000504250411874FFF74DBF7047D02A002074
:10BA500010B5064C201DFDF790F928B9637C1BB981
:10BA6000BDE81040FFF73EBF10BD00BFD02A002048
:10BA70002DE9F34180460D46104801A916461F46A0
:10BA8000FDF7B3F80446B0B118220021043002F0EB
:10BA900052FC2D0B0123237101A90848C4F8008032
:10BAA000A760E5606661FDF7CAF8FFF7D1FF0020E7
:10BAB00002B0BDE8F0810420FAE700BF6023002057
:10BAC0002DE9F34180460F460F4801A916461D4651
:10BAD000FDF78BF80446A8B118220021043002F0CB
:10BAE0002AFC089BA36001A9C4E903670648C4F8BF
:10BAF00000806561FDF7A3F8FFF7AAFF002002B000
:10BB0000BDE8F0810420FAE7602300202DE9F84F1A
:10BB1000B0F806A04579D2F800B09DF828900AFB4D
:10BB200005F5043D88460BEB0301A94203F104042B
:10BB300088BFA5EB030BB4FBFAF607460AFB1644D5
:10BB4000C2F800B04EB9AAEB04055D4528BF5D46BA
:10BB5000BBF1000F04D1BDE8F88F3F68013EF1E76B
:10BB6000043408EB06003C442A46B9F1000F0DD01E
:10BB70002146ABEB050B02F0B5FBDA452E443F68DE
:10BB800055464FF0000428BF5D46E1E701462046D8
:10BB9000EFE7FDF759B9F8B546790146721E05463B
:10BBA000002393422D6803D30024A64202D8F8BD97
:10BBB0000133F6E70F682846FDF781F9013439466D
:10BBC000F3E72DE9F843068BCD1C0746FDF753F943
:10BBD000043E35440446B5FBF6F5F0B14FF48073EE
:10BBE000EDB28380C680013D076081464FF00008BA
:10BBF000A84512D23846FDF73EF9064648B16379AA
:10BC00000133637108F10108C9F80000076081463B
:10BC1000EEE72046FFF7BFFF34462046BDE8F88335
:10BC200001210430FDF791B810B50121044604301C
:10BC3000FDF797F8C0B220B92046BDE81040FFF7E5
:10BC4000AABF10BD1FB503920022009203AAFFF7FE
:10BC50005DFF05B05DF804FB1FB503920122009261
:10BC600003AAFFF753FF05B05DF804FB02681368F1
:10BC70005268934291BFD01A80680130801888BF03
:10BC8000C01A7047036881681A685B688B4234BFCA
:10BC900001330023D31A58425841704773B500232B
:10BCA00004460DF107000D468DF80730FCF7E2FD64
:10BCB0002046FFF7E7FF10B1237C002B3BD1236820
:10BCC000A1685E685A688A4234BF013200225A6015
:10BCD00028B11A6891428CBF013200221A60E268D2
:10BCE0006368511E072920D8DFE801F004101F14F3
:10BCF0001F1F1F182A789A552046FFF7B7FF2368A1
:10BD00009A68824200D29860002415E02A8823F8BD
:10BD10001620F1E72A6843F82620EDE7D5E900016F
:10BD200003EBC603C3E90001E6E7294602FB063040
:10BD300002F0D8FAE0E704249DF80700FCF7BEFD06
:10BD4000204602B070BD13B5002304460DF1070074
:10BD50008DF80730FCF78EFD2046FFF787FF04467D
:10BD60009DF80700FCF7AAFD204602B010BD0000B8
:10BD70002DE9F04F8368D3F84831C3F340059B07A2
:10BD80008BB0064606D5002211460BB0BDE8F04F39
:10BD9000FEF71EBD012906D9204A02210BB0BDE8DD
:10BDA000F04FFDF7DDBC1E4C1E4BDFF88090DFF836
:10BDB00080A01B1B1C22B3FBF2F8A84502D10BB0DC
:10BDC000BDE8F08FE36809932368A768D3F808B04B
:10BDD0002046FFF7B8FF94F810E0134A642303FBF2
:10BDE00000F1BEF1000F18BF4A4603FB0BF3B3FB93
:10BDF000F7F3CDE9043BB1FBF7F1099B0191CDE9E4
:10BE00000672CDE902070093524663690821304665
:10BE1000FDF7A6FC01351C34CFE700BFD6ED0200CC
:10BE2000E8E4020004E5020030F7020039F70200FE
:10BE300045F70200036818685B68C31A5842584106
:10BE4000704773B5002305460DF107000C461646F2
:10BE50008DF80730FCF70EFD2846FFF7EBFF0028B2
:10BE600032D12B6819682EB91A68A868824238BF87
:10BE7000561C1E60EA686B68501E07281ED8DFE853
:10BE800000F0040E1D121D1D1D165B5C23700024A6
:10BE90009DF80700FCF712FD204602B070BD33F894
:10BEA00011302380F3E753F821302360EFE703EBF1
:10BEB000C103D3E90023C4E90023E8E701FB023111
:10BEC000204602F00FFAE2E70524E1E703689868EC
:10BED0007047036800229A607047836800225A60A6
:10BEE000C3E904229A60DA601A6070472DE9F041D4
:10BEF0000646884617461D4683B9B0687368D0E980
:10BF0000031403F1010C0A1B62450ED100243C60AE
:10BF100015B3FCF73BFF0020BDE8F0818068FCF71B
:10BF20002CFF0028E9D01120F6E701EA03022340A4
:10BF30009A4238BF64443B682CBFACEB0204641ADD
:10BF40009C4228BF1C4633683C601344C8F800304C
:10BF5000C3681C44C460DEE72846DDE7034680680A
:10BF60005B68826810B50469013323449B1A8B42D5
:10BF700009D31144C0E90211FCF705FF002814BFE2
:10BF80000020082010BD0420FCE72DE9F84F0746EB
:10BF900080688A469046FCF7F0FE814688BBD7E968
:10BFA00001431A69013414449A68A41AD8F800208D
:10BFB000944228BF1446C8F800407E689D6835400A
:10BFC0000136A6EB050B5C4509D938685146284473
:10BFD0005A4602F087F9AD1B2C44DA444D463868C6
:10BFE00022465146284402F07DF9B868D8F800206E
:10BFF00083681344C0E90233FCF7C8FE4846BDE835
:10C00000F88F4FF01109F9E72DE9F04106460F4688
:10C010001446984673B9B068816842698D1A11D187
:10C020002560B8F1000F02D00430FCF7AFFE2846BF
:10C03000BDE8F08180680430FCF79FFE0028EAD05C
:10C040001125F4E77368D4F800C01A4019408A42F9
:10C050000BD2654500D2256033681A443A604369C3
:10C060002268134443610025E1E701339B1A6345CD
:10C0700038BF2360F0E72DE9F843064680680430B6
:10C080000F469146FCF779FE804688BBB26813697B
:10C090009568ED1AD9F800309D4228BF1D46C9F8B1
:10C0A000005073681169946819401C40A14228BF70
:10C0B0005C1C641AA54208D93368384619442246E4
:10C0C00002F010F92D1B2744002133682A46194439
:10C0D000384602F007F9B068D9F800200369134424
:10C0E000C0E904330430FCF751FE4046BDE8F88354
:10C0F0004FF01108F9E7806808B582680369D21A21
:10C100008A4207D31944C0E904110430FCF73EFE0B
:10C11000002008BD0420FCE70B684A684360934296
:10C1200008BF0023016008BF43607047436843B104
:10C130000268916852680B449342436004BF002335
:10C140004360704770B5446806460D46206818B1D4
:10C15000B3682946984718B923682B60256070BDDD
:10C160002468F3E74368186808B102681A607047EA
:10C170004368186870474368186800B97047884278
:10C1800003D102681A600120704703460068F4E793
:10C1900010B50D49A1F59472914201D800200FE02D
:10C1A0008C1AE30F03EBE4035B1002EBC30452F8B9
:10C1B0003330834205D802D204F10802ECE760680C
:10C1C00010BD2146E8E700BF1CFD020008B5FFF7DF
:10C1D000DFFF024B002808BF184608BDDFFB020046
:10C1E0001FB503788DF800304368019383688DF89C
:10C1F0000830C368054A0393054B684653F821305D
:10C2000052F82110984705B05DF804FBEC2A002095
:10C21000F42A00201FB503788DF80030436801939D
:10C2200083688DF80830C368054A0393054B684658
:10C2300053F8213052F82110984705B05DF804FBFF
:10C24000EC2A0020F42A0020F0B5194B90F800C029
:10C25000DFF86CE043F82C20164B16460A6943F8C9
:10C260002C204B7F0EF80C300C4607460FCC89B0C3
:10C270006D460FC594E80F0085E80F003B78CDF8B8
:10C2800010C01EF803304BB1002E0B4A694608BFA0
:10C290003246381D00F006FC09B0F0BD002E074AFA
:10C2A000694608BF324607F10C0000F03DF9F3E79C
:10C2B000F42A0020EC2A0020E1C1020015C202008D
:10C2C000FC2A0020014B1B68184700BF002B0020F0
:10C2D0000E4B984237B50C4602D0002003B030BD5B
:10C2E00000230DF107008DF80730FCF7C3FA084B67
:10C2F0001D7915B901221C601A719DF80700FCF721
:10C30000DDFA002DE9D01120E8E700BF0020004051
:10C31000002B0020034B984201BF034B00221A6000
:10C320001A71704700200040002B0020002343506A
:10C3300082B043580193019B02B070470A4610B582
:10C340004FF48E71FFF7F2FF136A9168C95C136AAC
:10C3500001331362C0F81C1510BD024608B5006811
:10C360004FF49271FFF7E2FF10684FF48471FFF70A
:10C37000DDFF136801221A6008BD8B690A4610B5FB
:10C380004FF4847123B9FFF7D1FFD0F8183510BDF1
:10C39000FFF7CCFF536AD168D0F81805C854536A28
:10C3A00001335362F3E700001FB501238DF800301D
:10C3B000044BCDE90110D3E900126846904705B05F
:10C3C0005DF804FB082B002030B54D4DD5F8043343
:10C3D0009A0585B051D5D5F82431002B4DD04FF4B6
:10C3E00092712846FFF7A2FF4FF40173C5F8083396
:10C3F000444B93F829200AB901226A60404902227D
:10C400008DF80020D1F88024C1F8802403929A6925
:10C410000292DA6801920022C3E906226846D3E953
:10C42000001290473648D0F81C315BB1354A51694B
:10C43000136A99424DD992F82830002B49D1114600
:10C44000FFF77CFF2E48D0F84431002B56D04FF434
:10C45000A271FFF76BFF2B4B93F829200AB1012241
:10C4600002609A69002A49D0586AD96800229A6104
:10C4700005B0BDE83040FFF797BFD5F804335B0740
:10C48000D0D5D5F80831002BCCD01E4C1C48214605
:10C49000FFF773FF636AA2699A42C3D1E369E16857
:10C4A0004BB1A3612369E3600023606AE3616362C7
:10C4B000FFF77AFFB6E794F829300BB901236B60D8
:10C4C0000F4B4FF40172C3F808230023606AA36185
:10C4D000EEE70B484FF48E71FFF728FF5369002BEE
:10C4E000B0D051690291002391688DF8003001911C
:10C4F00053616846D2E900139847A3E705B030BD01
:10C5000000200040082B00201F2886BF00F01F00DD
:10C51000044B4FF0A04300F5E070022243F82020C6
:10C52000704700BF000300502DE9F843604D90F8BC
:10C5300004802C2303FB0853064693F82A300C464C
:10C540009146002B40F0AF805A490068FFF7C0FECB
:10C550000746002840F0A9802268531C10D01F2AEB
:10C5600087BF554902F01F0313464FF0A041012039
:10C57000984003F5E073C1F80805032041F8230053
:10C580006168481C0DD01F298BBF01F01F030B46AB
:10C5900049484FF0A04003F5E0734FF0000C40F81D
:10C5A00023C03068A369C0F8243594F814C0637DB3
:10C5B000BCF1010F4CEA0303C0F86C35C0F8141548
:10C5C000C0F80C252BD1A368591C0DD01F2B8BBF95
:10C5D00003F01F021A4638494FF0A04102F5E072FD
:10C5E0004FF0000C41F822C0E1684A1C13D01F290B
:10C5F00087BF314A01F01F0C8C464FF0A0424FF02C
:10C60000010E0EFA0CFE0CF5E07CC2F808E54FF0C6
:10C61000030E42F82CE0C0F80815C0F810352C22A3
:10C6200002FB08F2AB18C3F804902369AB50B9F1D0
:10C63000000F20D04FF48E71247FFFF777FE4FF468
:10C64000A2713068FFF772FE32681C4BC2F80433E7
:10C65000130B42F307326101002AC9B21EDB1848EE
:10C66000841884F800130121520903F01F0301FA12
:10C6700003F340F8223033680422C3F800252C234A
:10C6800003FB08530022C3E9062283F829205A61DC
:10C69000012283F82A203846BDE8F883094A03F0CE
:10C6A0000F03D154E7E70827F5E71127F3E700BFA9
:10C6B000082B0020C9C302000003005080000200C4
:10C6C00000E100E014ED00E02DE9F0410368057998
:10C6D000284C0022C3F800252C2202FB054201460B
:10C6E0005268A2B1244AC3F808231A0B43F3073354
:10C6F000002B0CDB02F01F005B090122824020337B
:10C700001E4840F82320BFF34F8FBFF36F8F0B6895
:10C71000D3F80C05D3F81485D3F80865D3F8107551
:10C720004FF0FF329042C3F81425C3F80C25C3F82C
:10C730000825C3F8102501D0FFF7E6FEB8F1FF3F4A
:10C7400002D04046FFF7E0FE7A1C02D03846FFF7E1
:10C75000DBFE731C02D03046FFF7D6FE0868FFF7F9
:10C76000D9FD2C2303FB0544002384F82A306360A1
:10C77000BDE8F081082B00208402020000E100E007
:10C780000279044B2C2101FB02335869003818BF91
:10C7900001207047082B00202DE9F84F064690F83D
:10C7A000048089469246FFF7EBFF044600283CD1FF
:10C7B000204F2C2508FB057B4FF48E71CBF814A07D
:10C7C000CBF80890CBF820008BF828003068FFF7F2
:10C7D000ADFD3068012383605946FFF7AFFDDBF8FC
:10C7E00004305D461BBB3068DBF814402B6A9C426A
:10C7F00011D83368D3F81C21002AFBD00122DA605B
:10C8000000202C2303FB087700237B61BDE8F88F11
:10C8100095F828303BB9D0F81C31002BF8D0594698
:10C82000FFF78CFDE2E70F20EBE71120EEE7204653
:10C83000ECE700BF082B00202DE9F0473A4D0779BF
:10C840002C2303FB075306465C6824B103684FF4AE
:10C850000170C3F808032C2303FB0753986950B1F8
:10C86000D869002841D024B133684FF40172C3F86D
:10C870000423112436E09A61D9605862D8612C23D0
:10C8800003FB075393F829301BB910B93046FFF763
:10C8900064FD4FF02C0808FB075A3068DAF80430C2
:10C8A000002B37D14FF4A271D046FFF73FFD30681F
:10C8B000D0F82491D0F80831D0F84441CBB914B95C
:10C8C000B9F1000FF3D02C2303FB07550023AB6114
:10C8D000B9F1000F24D12CBB95F82910336801223F
:10C8E000B1B11A602046BDE8F0871961DA61012014
:10C8F000C5E7B9F1000FE6D1002CE4D14146FFF7BE
:10C900003CFDDAF82430DAF818209A42CFD8DAE77A
:10C910005A60E7E74FF40173C0F804330024E1E7FD
:10C920000324DFE70F24DDE7082B002003684FF422
:10C930000172C3F8082301225A6070470023435054
:10C9400082B043580193019B02B070471FB5012389
:10C950008DF80030044BCDE90110D3E90012684690
:10C96000904705B05DF804FB342B00207FB5434AA7
:10C97000D2F82461002E60D010464FF49271FFF778
:10C98000DDFF02238DF80030D2F88034C2F8803405
:10C990000393D2F83C350293394BDA6801920022B6
:10C9A000C3E906226846D3E9001290473348D0F81D
:10C9B000443173B14FF4A271FFF7C0FF304B9A6955
:10C9C0003AB10022C3E90622D968D0F83C05FFF746
:10C9D000BDFF2A48D0F82031ABB14FF49071FFF77A
:10C9E000ADFF0123C360264B5A6962B1D0F84C15E4
:10C9F0000291002299688DF8002001915A616846E1
:10CA0000D3E9001290471D48D0F858319BB14FF43C
:10CA1000AC71FFF793FF1A4B5A6962B1D0F84C150D
:10CA20000291002299688DF8002001915A616846B0
:10CA3000D3E90012904704B070BDD2F81031002B3A
:10CA4000B4D04FF488711046FFF778FF0C4BD2F842
:10CA50003C0599698842A9D1DC69D96864B1D2F8EA
:10CA6000005225F02005C2F800521A699C61DA6074
:10CA7000DE61FFF76BFF99E79C61FAE70020004059
:10CA8000342B00201F2886BF00F01F00044B4FF0FE
:10CA9000A04300F5E070022243F82020704700BF59
:10CAA000000300502DE9F843664E90F804802423DB
:10CAB00003FB0863044693F820300D469146002B93
:10CAC00040F0BC8060490068FFF702FC0746002880
:10CAD00040F0B68029684B1C10D01F2987BF5B4AE5
