:1000000000000120750300005D0300005F03000095
:1000100061030000630300006503000000000000AE
:100020000000000000000000000000006703000066
:1000300069030000000000006B0300006D03000076
:100040006F0300006F030000E91500002D18000089
:100050003D1800006F0300006F0300006F030000F5
:100060006F0300006F0300006F0300006F030000C8
:100070006F0300006F0300006F0300006F030000B8
:100080006F0300006F0300006F0300006F030000A8
:100090006F0300006F0300006F0300006F03000098
:1000A0006F0300006F0300006F0300006F03000088
:1000B0006F0300006F03000000000000000000005C
:1000C0006F0300006F0300006F0300006F03000068
:1000D0006F0300006F0300006F03000000000000CA
:1000E0000000000000000000000000000000000010
:1000F0000000000000000000000000000000000000
:1001000000000000000000000000000000000000EF
:1001100000000000000000000000000000000000DF
:1001200000000000000000000000000000000000CF
:1001300000000000000000000000000000000000BF
:1001400000000000000000000000000000000000AF
:10015000000000000000000000000000000000009F
:10016000000000000000000000000000000000008F
:10017000000000000000000000000000000000007F
:10018000000000000000000000000000000000006F
:10019000000000000000000000000000000000005F
:1001A000000000000000000000000000000000004F
:1001B000000000000000000000000000000000003F
:1001C000000000000000000000000000000000002F
:1001D000000000000000000000000000000000001F
:1001E000000000000000000000000000000000000F
:1001F00000000000000000000000000000000000FF
:10020000354936480A1A02D0072291438D463449AF
:1002100034480A1A06D00722914381F30988022242
:1002200082F3148830483149314A00F044F83148AB
:100230003149324A00F03FF831483249324A00F041
:100240003AF832483249334A00F035F832483349F7
:10025000334A00F030F833483349344A00F02BF881
:1002600033483449344A00F026F8344834490022EF
:1002700000F02CF833483449002200F027F83348C6
:100280003349091A082902DB002202604160314A21
:1002900090471F481F49884205D00268043003B4C4
:1002A000904703BCF7E700208646EC46002000217B
:1002B000294A9047FEE7884207D0521A05D00378B2
:1002C00001300B700131013AF9D17047884202D0F8
:1002D00002700130FAE770470000012000E00020C2
:1002E0000000012000000120A838000000000020CC
:1002F00034000020D0030000D0030000C43300000D
:10030000A838000000000020000000201034000089
:1003100010340000103400001034000010340000CD
:10032000103400001034000010340000A838000021
:10033000DC380000340000203400002034000020AD
:100340006C0900206C0900206C0900206C09002059
:100350006C2900209D030000CD250000FEE7FEE78C
:10036000FEE7FEE7FEE7FEE7FEE7FEE7FEE7FEE765
:1003700000F002B8FFF7FCBF0F484FF007018843B9
:1003800085460E4880470E48016841F470010160BF
:10039000BFF34F8FBFF36F8FFFF732BF09480A4992
:1003A0000A4A884207D0521A05D0037801300B70F0
:1003B0000131013AF9D1704700000120992800006D
:1003C00088ED00E010340000000000200000002054
:1003D000F0B595B01D46164608460C4600F0CAFF1B
:1003E0001A9B0D93CDE9086500252B46082205A927
:1003F00020460A958DF82C500C9500F0D7FF079BEE
:100400000293069B03939DF814308DF8115003F06E
:100410000302012A1DD1BDF81420059DC3F3C203B8
:10042000C2F383168DF81030B20008230EA92046BF
:1004300000F0BCFFC5F3952508AB0093324602AB34
:100440000EA9284600F090FB204600F097FF15B05B
:10045000F0BD022AF8D1BDF81650C3F3C203C5F3AC
:1004600089158DF810300827082D2E4628BF08263C
:100470003B4632460EA9204600F098FFAD1B08AB64
:1004800002AA31460EA8374400F0D2FB002DEBD172
:10049000DAE70000014B01221A7070477500002056
:1004A0007047000070B50E4D06460FCD88B06C4603
:1004B0000FC495E80F00002E84E80F00094A0A488F
:1004C0004FF0060308BF00226946009301F04EF882
:1004D00008B100F009FC054B1E7008B070BD00BFEC
:1004E00010340000950400000000002034000020BB
:1004F00007B5044B0093044A4023FFF769FF03B09C
:100500005DF804FB0D0500003500002038B50D48EE
:100510000D4C0E4D002323700378EB5CD2B263B117
:10052000043001F0E7FF08B100F0DEFB084B1A7859
:1005300012B12378002BFBD038BD0C3001F088FDC0
:10054000F1E700BF00000020750000201C0600201D
:100550003400002008B50848084A0378D35C3BB152
:10056000043001F02BFFBDE808400020FFF79ABFE0
:100570000C3001F0F7FCF6E7000000201C0600201C
:100580000120FFF78FBF000008B5FFF7F9FF04480F
:10059000042100F053FA034B01225A7108BD00BF39
:1005A000EC33000014000020037813F0040216D08E
:1005B00003F00303012B03D0022B09D00120704765
:1005C0000A6800880232C0F3831002440A60F5E72B
:1005D0000B684288023303EB92130B60EEE7104680
:1005E000704700002DE9F04FDFF810A10F4685B0ED
:1005F0000446861C0020154600F0CCFBDAF80420E7
:100600003A60DAF8083003F580739B1A0AF21C4747
:100610000AF583690AF21448B34219D30020002D69
:1006200068D004F00F039B0143F0050363F30F0050
:10063000DAF80430DAB2033233444AF822000020F8
:10064000CAF8043000F0A8FB012005B0BDE8F08F27
:100650000121384600F0C5FB484600F0DAFB404671
:1006600000F0D7FBDAF808000090C0B203300AEBC4
:1006700080006946FFF798FF009B30BBDAB20AEBB7
:100680008202D16801919A1C0133DBB20AEB830329
:100690000092D3F80CB001F00303012B22D0022BFF
:1006A00015D08346404600F0B7FB10B1009BCAF856
:1006B00008305946384600F094FBDAF80830DAF88A
:1006C000042003F580739B1AA6E7D8B2CEE7BDF8E5
:1006D0000630C3F3891303334FEA1B4B02EB93033A
:1006E0000093DFE7BDF80430C3F383134FEA1B4BDD
:1006F0001344F5E7A40544F0060099E748010020FB
:10070000064B074810B500221A7000F0ECFD0446B5
:1007100010B9044800F054FE204610BD48010020E6
:10072000FC3300006434000030B50A4C71B10A4A51
:100730000A49121BD20800239A4201D1002030BD81
:1007400031F82350854202D00133F5E7034654F8CF
:100750003300F4E7C4330000EC3300000000002055
:10076000094B013903EBC000032909D8DFE801F088
:100770000A020406042070470079704740797047E8
:100780000020704702207047C4330000704700000B
:10079000034BD3E90130C31A58425841704700BF98
:1007A000480100202DE9FF41FFF7F2FF0546002830
:1007B00040F0E980754CC4F81804BFF34F8FA3686C
:1007C0000093DBB2033304EB83006946FFF7ECFED2
:1007D000009B18B1D4F81824002A5AD0DAB2991C18
:1007E000013304EB8202DBB204EB8303D268DB68E3
:1007F000029302F00303022B0192009154D1BDF841
:1008000006306348C3F38917502F3E4628BF502651
:1008100006F1080166F38F13C1F30901ADF8063044
:1008200000F079FD0546002800F0988000F0A2FD58
:100830000023082201A9284600F0AEFD0099CB4311
:10084000DBB20133C9B20331B6EB830F4FEA830247
:1008500004EB810125D95FFA82F80823A6EB08068C
:10086000284600F099FDF6B208F10803494903F063
:10087000FC033246284600F08FFD009B033703EB54
:1008800097070097D4F81834002B43D1D4F810649C
:1008900053E062689A4294D8A260284604B0BDE84A
:1008A000F08108233246E5E7012B57D1BDF804302B
:1008B0003748C3F38311062928BF062161F3891342
:1008C000023101F00F018900ADF8043000F023FD82
:1008D0000546002842D000F04DFD0023082201A962
:1008E000284600F059FD0026BDF80420C2F383120B
:1008F000B300964203F10803C4D200994A1CC9B25E
:100900000331009204EB81010422284600F044FDEB
:100910000136E9E7284600F031FDFFF739FF80F0A6
:100920000100C5B2B9E7F3685B7923B133682946A2
:100930001B6830469847F3681E68002EF3D128469E
:1009400000F01CFD304600F025FAD4F818340BB93D
:10095000009BA360002000F01FFADEE7D4F81044EB
:1009600054B90D4B0D480E49C01AC008000440F0A0
:10097000020000F05FF8D0E7236820469B689847A4
:10098000E3681C68ECE7002587E700BF480100200A
:10099000FC33000054010020C4330000E4330000A5
:1009A0004D3400002DE9F34704460E46924601A956
:1009B000012218469946FFF715FE1C4F10B3019D02
:1009C0004FF00008AA1CC84508EB020125D11848C1
:1009D000002100F0E3F980F31000000440EA144025
:1009E000E4006B1C04F03804DBB2EDB244F0010407
:1009F00007EB8303033544EA881444EA8624D8606D
:100A000047F825403B781BB1FFF7CCFE0028FBD10F
:100A1000FFF7BCFE02B0BDE8F087C9B207EB810169
:100A20005AF82830CB6008F10108CCE748010020D3
:100A30006405002000231A46FFF7B4BF30B50F4C01
:100A4000D4F8102403460020114631B9D968087142
:100A50004AB9C4F810340A6030BDC9680D798542BE
:100A600006D00968F1E7D26814680C601360F3E7F8
:100A700001300A28E8D14FF0FF30EDE748010020AF
:100A800038B5084B0125D3F810441D7004B938BDA2
:100A9000E3685D71236820465B689847E3681C68DB
:100AA000F4E700BF4801002030B5C38885B0044694
:100AB0000D4633B1144A00921449154A284600F0F5
:100AC00005FA217A05291DD0637A4BB1A088FFF77A
:100AD00047FE104B104953F82020284600F0F6F945
:100AE000227A0E4BA08853F8222003920021FFF7B0
:100AF0001BFE039A0A490346284605B0BDE830406C
:100B000000F0E4B905B030BD903400007834000046
:100B100070340000FC3400009534000020350000E3
:100B20009834000007B503460846197A052911D004
:100B30005B7A2BB1094A0A49019000F0C7F9019884
:100B40000849019000F0C2F9019803B05DF804EB88
:100B500000F0B1B9002AF8D0F2E700BF90340000ED
:100B6000953400008D3400002DE9F04385B01F4618
:100B70000C9D002395F80C902B7306460C4690466E
:100B800029463846FFF790FFB8F1060F09D8DFE88D
:100B900008F00412181F283340003146284600F0A0
:100BA00095F9002229463846FFF7BCFF85F80C90DE
:100BB00005B0BDE8F08322683146284600F086F98A
:100BC000EFE7D4E900233146284600F07FF9E8E753
:100BD000A36800933146D4E90023284600F076F953
:100BE000DFE7E3680193A36800933146D4E900236B
:100BF000284600F06BF9D4E723690293E368019378
:100C0000A36800933146D4E90023284600F05EF93A
:100C1000C7E76369039323690293E3680193A368B9
:100C200000933146D4E90023284600F04FF9B8E795
:100C300008292DE9F74F80460E4617461C463CD83A
:100C4000002593F80C901D7319461046FFF72CFFF2
:100C5000DFF888A0DFF888B0AE4231D918F8052057
:100C60005946204600F032F90135082DF4D11949D2
:100C7000194DDFF870A0204600F028F94FF0000B66
:100C80005E4522D918F80B207E2A05D8104601921D
:100C900001F0DCFF019A00B92E225146204600F0F7
:100CA00015F90BF1010BBBF1080FE9D10122214627
:100CB0003846FFF737FF84F80C9003B0BDE8F08F9B
:100CC0005146204600F002F9CEE72946204600F0C2
:100CD000FDF8E6E7AC340000AA340000A8340000B8
:100CE000A2340000AE3400001FB50021039001AA19
:100CF00044F20100CDE9011100F004F805B05DF8FF
:100D000004FB000038B572B6FFF7BAFEFFF74AFDE4
:100D10000028FBD1104B114C114D1249E41AE40884
:100D2000240444F00100FFF785FED5F8F030DB071E
:100D300000D500BE0C4944F00200FFF77BFEBFF374
:100D40004F8FEA68094B02F4E0621343EB60BFF394
:100D50004F8F00BFFDE700BFC4330000E433000045
:100D600000ED00E034350000403500000400FA05D5
:100D700072B6024A13680133136070470006002000
:100D8000034A1368013B136003B962B6704700BFA2
:100D900000060020FFF7ECBFFFF7F2BF10B50346D7
:100DA00053E8000F0A4643E8002494F0000FF7D1FF
:100DB00010BD10B5034653E8002F42EA010043E896
:100DC000000494F0000FF6D110BD10B5034653E8AF
:100DD000000F00EA010243E8002494F0000FF6D16E
:100DE00010BD10B5034653E8002F02EB010043E8A5
:100DF000000494F0000FF6D110BD10B5034653E87F
:100E0000002FA2EB010043E8000494F0000FF6D19C
:100E100010BD0121FFF7CDBF0021FFF7D6BF10B5F0
:100E200090B1D0E9012301689B1ADBB20A60013B53
:100E3000DBB2FF2B026802D10020107110BD1168D7
:100E40004C1C14600B70F2E70E20F7E738B504462F
:100E50000020FFF79FFF226863681168994213D949
:100E6000481E106011F8013CE568218A01FB03551A
:100E7000A36811791B1ADBB2994200D213710020CA
:100E8000FFF78AFF284638BD0025F8E738B5054644
:100E900000200C46FFF77EFF2A681368591C11607A
:100EA000E968641A298AB4FBF1F41C70BDE8384083
:100EB0000020FFF771BF826810B504462AB143696C
:100EC0000168006998470023A36010BD0EB403B504
:100ED000039921B104AB01AA019300F077F802B0A5
:100EE0005DF804EB03B070470A2938B504460D4697
:100EF00002D10D21FFF7F8FFA3682268591CA160F9
:100F0000D554D4E901329A4204D32046BDE8384092
:100F1000FFF7D1BF38BD00002DE9F84F9846DDE955
:100F20000A43154682460F460A464FF00109AA4277
:100F30000FD2C14538BFC14613F0010B01D16CB9C6
:100F400000240126B8F1010F1BD908F1FF386E43C8
:100F5000F8E709F10109B2FBF5F2E8E79B070ED5C6
:100F6000B8F1000F0CBF30262026A145E9D2013C84
:100F700031465046FFF7B8FF002CF6D1E0E72026B7
:100F8000F3E7B7FBF6F39D42E1D9DFF83C80B7FB0E
:100F9000F6F3504618F8031006FB1377FFF7A4FF8B
:100FA0003346AB42B6FBF5F6F1D2BBF1000F02D0EF
:100FB0000CB1A14501D3BDE8F88F20215046013C7A
:100FC000FFF792FFF4E700BF4D3500002DE9F74F22
:100FD000054617468846002900F03E8118F8011B97
:100FE00049B92B7B002B00F03781284603B0BDE8C0
:100FF000F04FFFF760BF252940F0B780002698F832
:1010000000302D2B424608F1010823D0302B24D08C
:101010002B2B25D000242A2B02F1010123D13B6880
:101020001A1D1B683A601C440A4613782E2B26D1E1
:1010300001324FF0000A104610F8011BA1F1300CEC
:10104000BCF1090F1DD80A2303FB0A13A3F1300AD0
:101050000246F0E746F00106D1E746F00206CEE789
:1010600046F00406CBE711F8013CA3F13000092853
:10107000DBD80A2202FB0434303C0A46CBE74FF0AF
:10108000000A12F8011B01F0FB0068289046F8D016
:10109000782909D86F290CD8632962D022D825294C
:1010A00063D0582900F0888098F80030002B95D143
:1010B00097E770390829F7D801A353F821F000BF4A
:1010C00033120000A9100000A9100000C91100008F
:1010D000A9100000A7110000A9100000A91000002D
:1010E000B9110000642901D06929DDD13A68D2F82C
:1010F0000090111D89EAE9723960A2EBE9724FF0A4
:10110000010B092A35DCD34538BFD3462CB1B9F1E0
:10111000000F01DB720700D5013CB30702D5BAF11D
:10112000000F03D0F00701D44CBB0024B9F1000F2D
:101130002DDAC9F100092D212846FFF7D5FE06F06A
:101140000302022A04D1BAF1000F01D11CBB002412
:10115000CDE9004653460A2249462846FFF7DCFE01
:10116000A2E73B681A1D19783A602846FFF7BCFED3
:101170009AE70A230BF1010BB2FBF3F2C1E7A34597
:10118000D4D220212846013CFFF7AEFECCE7710700
:10119000D5D52B21D0E7A345DAD230212846013C12
:1011A000FFF7A2FED2E73968CDE900460A1D3A6092
:1011B00053460A220968D0E739680A1D3A60CDE92A
:1011C000004653461022F5E73B681A1D3A6016F0B8
:1011D0000106D3F8009024D1B9F1000F03D048469E
:1011E00001F0A3FD0646B4421DD809F1FF3919F8F4
:1011F000011F00293FF458AF2846FFF775FEF6E7B8
:1012000028460136FFF770FE19F806100029F7D1BD
:10121000A642BFF449AF20212846013CFFF764FEF7
:10122000F6E70026F0E720212846013CFFF75CFEA8
:10123000D9E73B681A1D3A60302128461C68FFF741
:1012400053FE78212846FFF74FFE00220823CDE900
:1012500000322146102280E703B0BDE8F08F00BFC6
:101260002DE9F84FB0F806A04579D2F800B09DF806
:1012700028900AFB05F5043D88460BEB0301A942C3
:1012800003F1040488BFA5EB030BB4FBFAF6074691
:101290000AFB1644C2F800B04EB9AAEB04055D453E
:1012A00028BF5D46BBF1000F04D1BDE8F88F3F6851
:1012B000013EF1E7043408EB06003C442A46B9F14C
:1012C000000F0DD02146ABEB050B01F0E3FCDA4536
:1012D0002E443F6855464FF0000428BF5D46E1E7C5
:1012E00001462046EFE7FFF79ABDF8B5467901467B
:1012F000721E0546002393422D6803D30024A642A4
:1013000002D8F8BD0133F6E70F682846FFF7BEFDA7
:1013100001343946F3E72DE9F843068ACD1C074628
:10132000FFF794FD043E35440446B5FBF6F5F0B1F5
:101330004FF48073EDB28380C680013D0760814623
:101340004FF00008A84512D23846FFF77FFD064649
:1013500048B163790133637108F10108C9F80000ED
:1013600007608146EEE72046FFF7BFFF3446204680
:10137000BDE8F88301210430FFF733BD10B501212A
:1013800004460430FFF739FDC0B220B92046BDE85D
:101390001040FFF7AABF10BD1FB5039200220092B4
:1013A00003AAFFF75DFF05B05DF804FB1FB50392CC
:1013B0000122009203AAFFF753FF05B05DF804FB7A
:1013C000836800225A60C3E904229A60DA601A60D6
:1013D000704700001FB503788DF800308388ADF8A2
:1013E000043083688DF80630C3688DF807300369D0
:1013F00002934369054A0393054B684653F821302D
:1014000052F82110984705B05DF804FB040600204F
:101410000C060020024B4FF4807043F00103184784
:10142000603500002DE9F047154690F80090324AEB
:1014300042F82950314A42F829304B7B07460C4686
:101440006BB30868496882008B0002F1A04203F187
:10145000A04340F20C66C2F800674FF0010AC3F8DF
:1014600000674FF0A0460AFA00F00AFA01F1C6F848
:101470000805C6F8081540F20D61C2F80017C3F858
:101480000017FFF7C7FF4FF00008D6F81025636874
:1014900022FA03F3DB070DD5B8F1000F1DD1002DA3
:1014A000174A4B4608BF2A462146381DBDE8F0477B
:1014B00000F0CCB923680AFA03F3C6F80C35FFF73D
:1014C000A9FF23680AFA03F3C6F8083508F10108F2
:1014D000FFF7A0FFB8F1090FD7D1636801264FF0DD
:1014E000A04806FA03F3C8F80C35FFF793FF6368CA
:1014F0009E40C8F80865D2E70C06002004060020CC
:10150000D51300001FB503788DF8003043680193B0
:1015100083688DF80830C368054A0393054B684615
:1015200053F8213052F82110984705B05DF804FBBC
:1015300014060020180600201FB503788DF800302F
:101540004368019383688DF80830C368054A0393A4
:10155000054B684653F8213052F82110984705B0E2
:101560005DF804FB1406002018060020F0B5194BA6
:1015700090F800C091F81DE043F82C20164B164659
:101580000A6943F82C20154B03F80CE00C4607467B
:101590000FCC89B06D460FC594E80F0085E80F00A9
:1015A000CDF810C0BEF1000F09D0002E0C4A6946DC
:1015B00008BF3246381D00F03FFE09B0F0BD002ED6
:1015C000084A694608BF324607F10C0000F016FCD5
:1015D000F3E700BF18060020140600201C060020B8
:1015E0000515000039150000014B1B68184700BFA6
:1015F0002006002038B50B4B98420C4601D0002045
:1016000038BD0020FFF7C6FB074B1D7915B9012235
:101610001C601A710020FFF7BFFB002DEFD01120D6
:10162000EEE700BF0020004020060020034B984258
:1016300001BF034B00221A601A717047002000405E
:10164000200600200023435082B043580193019BA1
:1016500002B070470B7B032B2AD8DFE803F0222669
:101660001A028B685A0304D5D0F84C350A699A429D
:1016700007D18B685B031BD4D0F84C354A699A427A
:1016800016D000230622C0F80035C0F80025184601
:101690007047D0F84C350A699A42F2D1D0F83C35FF
:1016A000ECE7D0F84C350A69E9E7D0F83C35FAE7C1
:1016B00001207047F0B5D0F8243187B004460D46BC
:1016C000EBB14FF49271FFF7BDFFD0F80431B3B91D
:1016D000AB68C0F808330223AB60AB68C0F80433D2
:1016E000D0F860311BB1D0F800329B0502D4012341
:1016F00023626361012385F82E3007B0F0BDD4F872
:101700000431002B41D04FF482712046FFF79AFF3D
:101710002B6A5F0609D495F82E3033B92946FFF7B6
:1017200099FF80F0010085F82E002B6A5E073ED4F9
:1017300005F10C070FCF01AE0FC63B6833604FF4C5
:10174000B0712046FFF77EFF4FF4AE71FFF77AFFCE
:1017500095F8303013B195F82E3043B30023C4F818
:101760000032AB602F4BC4F8083344F30733002B2F
:101770004FEA14321BDB02F01F015B0901228A4091
:101780006033294941F8232011E04FF4A471204629
:10179000FFF758FF2B7B23BB05F10C070FCF01AEE2
:1017A0000FC63B68336095F83030002BD7D0D4F8A3
:1017B000C434C4F8C434980725D501238DF800300B
:1017C00095F830300BB985F82F302B6A5B0703D5BD
:1017D00095F82E30002B90D0D5E900316846984717
:1017E0008BE74FF40073C4F8003240F20223AB6081
:1017F00003F1CE73C4F80833AB68C4F80433012393
:10180000A360236279E7590701D50223D6E7DA07F7
:1018100001D50323D2E795F82E30002BCED0042338
:10182000CCE700BF02029C0100E100E00149024850
:10183000FFF740BF280600200030004002494FF06B
:101840004020FFF737BF00BF5C0600202DE9F84FAE
:101850000679314D4FF0340A0AFB06FA05EB0A0708
:101860009B4697F82D3080460C469146002B4FD171
:101870002A4B006853F82610FFF7BCFE002849D118
:101880002168637B87F8323001F5E0724FF0A043A6
:10189000B860C7F804B087F82F0087F8300040F22E
:1018A0000C6745F80A9043F82270626802F5E07C04
:1018B00043F82C70D8F80030C3F80815C3F80C258D
:1018C000A268C3F82425B9F1000F14D0227B43F39A
:1018D000073152010029C3F30733D2B213DB104C96
:1018E000671887F800230122490903F01F0302FA51
:1018F00003F344F82130342303FB0655012385F814
:101900002D30BDE8F88F074903F00F03CA54F2E702
:101910000820F6E71120F4E72806002070350000C3
:1019200000E100E014ED00E0036802790621C3F84D
:101930000015044B342101FB0233022283F82D20D1
:10194000704700BF280600202DE9F843DFF8C88261
:1019500090F804900468342606FB0986002386F874
:101960002E30CB6803F06043B3F1005F0D4617469D
:1019700003D010263046BDE8F883A64BC4F80833E0
:1019800096F82F3023B1B368C4F804331126F1E779
:1019900012F0140F0CBF0123002386F82F308E465F
:1019A000BEE80F0006F10C0CACE80F00DEF80030CA
:1019B000CCF80030C7F3001386F8303037626B780C
:1019C000C4F8883520464FF48271FFF73BFE4FF490
:1019D0009271FFF737FE4FF4B071FFF733FE4FF40B
:1019E000A471FFF72FFE17F0010318BF0123C4F8FD
:1019F000503517F0020318BF0123C4F840352B7887
:101A0000032B00F2B580DFE803F084A069022B69A4
:101A100003F06043B3F1005FABD14FF48073C4F8BF
:101A20000032EA686B68C4F844254FF4A871C4F822
:101A30004835FFF707FE01232362A360D4F8503135
:101A4000002BFBD04FF4A8712046FFF7FBFDAB68DD
:101A50002A69C4F84425C4F84835342303FB0983B4
:101A60004FF480229A60082300263A0704D42A788B
:101A7000032A1CBF0122E250342303FB09F308EBC5
:101A8000030258F80330002B75D10125D4F8482102
:101A9000D4F80431002B40F08980003A18BF0122AD
:101AA000D4F82431002B00F088804FF49271204646
:101AB000FFF7C8FDD4F86011D4F8003209B19805D9
:101AC00004D4256265610029E0D00022D90574D5CF
:101AD0004FF4A4712046FFF7B5FDD7E76B68EA68BD
:101AE000C4F84425C4F848352B6903F06042B2F1CC
:101AF000005F7FF43EAFAA68C4F834354FF48453D6
:101B0000C4F83825C4F80032342303FB09830222C9
:101B100012E06B68EA68C4F8442517F0200FC4F897
:101B200048354FF034030BD04FF48072C4F80022D4
:101B300003FB09834FF480229A600123236292E71A
:101B40004FF40072C4F80022DFE76B68EA68C4F85B
:101B50003425C4F838354FF48053C4F800323423A8
:101B600003FB098302229A600123236200237BE79F
:101B70000823072679E77B0744BF002393607D068F
:101B800006D4342303FB09839A6842F002029A6068
:101B9000342303FB0988D8F8083043F40073C8F8ED
:101BA0000830D8F80830C4F80433E3E64FF4827103
:101BB0002046FFF747FD012272E7002A3FF466AF97
:101BC0003421D4F8C434C4F8C43401FB09820020A1
:101BD00082F82F0093B113F0010F14BF4FF40246A7
:101BE000032648F2012213F0020F18BF164613F025
:101BF000040F48F2022318BF1E46BBE67B063FF5E2
:101C0000B9AE09FB01812046FFF724FD002808BF7B
:101C10000326AFE602029C012806002010B586B01C
:101C2000012402930023CDE903328DF805101A46F2
:101C300001A98DF804400593FFF786FE06B010BD9C
:101C40000023435082B043580193019B02B0704778
:101C50000A4610B54FF48E71FFF7F2FF136A9168D0
:101C6000C95C136A01331362C0F81C1510BD8B697F
:101C70000A4610B54FF4847123B9FFF7E1FFD0F89D
:101C8000183510BDFFF7DCFF536AD168D0F818058E
:101C9000C854536A01335362F3E700001FB50123B0
:101CA0008DF80030044BCDE90110D3E900126846ED
:101CB000904705B05DF804FB9006002030B54D4D0F
:101CC000D5F804339A0585B051D5D5F82431002BC9
:101CD0004DD04FF492712846FFF7B2FF4FF40173D5
:101CE000C5F80833444B93F829200AB901226A60E9
:101CF000404902228DF80020D1F88024C1F88024C8
:101D000003929A690292DA6801920022C3E90622DC
:101D10006846D3E9001290473648D0F81C315BB1D1
:101D2000354A5169136A99424DD992F82830002BEF
:101D300049D11146FFF78CFF2E48D0F84431002BD3
:101D400056D04FF4A271FFF77BFF2B4B93F829205D
:101D50000AB1012202609A69002A49D0586AD968FA
:101D600000229A6105B0BDE83040FFF797BFD5F873
:101D700004335B07D0D5D5F80831002BCCD01E4CEE
:101D80001C482146FFF773FF636AA2699A42C3D1D8
:101D9000E369E1684BB1A3612369E3600023606AF2
:101DA000E3616362FFF77AFFB6E794F829300BB975
:101DB00001236B600F4B4FF40172C3F8082300231B
:101DC000606AA361EEE70B484FF48E71FFF738FFAE
:101DD0005369002BB0D051690291002391688DF8AE
:101DE0000030019153616846D2E900139847A3E798
:101DF00005B030BD00200040900600202DE9F843DA
:101E0000534D90F804802C2303FB0853064693F8A7
:101E10002A300C469146002B40F096804D490068D0
:101E2000FFF7E8FB0746002840F090802268306802
:101E3000511C0BD04FF0A04101239340C1F808354D
:101E400002F5E0734FF0030C41F823C061684B1CAE
:101E50001FBF01F5E0734FF0A04C4FF0000E4CF89F
:101E600023E0A369C0F8243594F814C0637DBCF165
:101E7000010F4CEA0303C0F86C35C0F81415C0F824
:101E80000C251DD1A268531C1FBF02F5E0734FF053
:101E9000A0414FF0000C41F823C0E368591C0BD05F
:101EA0004FF0A04C01219940CCF8081503F5E071E2
:101EB0004FF0030E4CF821E0C0F80835C0F81025AB
:101EC0002C2202FB08F2AB18C3F804902369AB5034
:101ED000B9F1000F20D04FF48E71247FFFF7B0FED0
:101EE0004FF4A2713068FFF7ABFE32681A4BC2F8AC
:101EF0000433130B42F307326101002AC9B21EDB1F
:101F00001648841884F800130121520903F01F03B6
:101F100001FA03F340F8223033680422C3F80025A5
:101F20002C2303FB08530022C3E9062283F829204F
:101F30005A61012283F82A203846BDE8F883084A0E
:101F400003F00F03D154E7E70827F5E71127F3E77C
:101F500090060020BD1C00008000020000E100E0AF
:101F600014ED00E0F8B503680579304C0022C3F8A1
:101F700000252C2202FB05425268A2B12C4AC3F86C
:101F800008231A0B43F30733002B0CDB02F01F016D
:101F90005B0901228A402033264941F82320BFF300
:101FA0004F8FBFF36F8F0068D0F80C65D0F8141511
:101FB000D0F80835D0F810254FF0FF37BE42C0F8F2
:101FC000147518BF06F5E076C0F80C75C0F80875F2
:101FD000C0F810751EBF4FF0A0474FF0020C47F835
:101FE00026C04E1C1FBF4FF0A04601F5E07102272E
:101FF00046F82170511C1FBF4FF0A04102F5E0725E
:10200000022641F822605A1C1FBF03F5E0734FF00F
:10201000A042022142F82310FFF708FB2C2303FB08
:102020000544002384F82A306360F8BD9006002040
:102030008402020000E100E00279044B2C2101FB44
:1020400002335869003818BF0120704790060020FD
:102050002DE9F84F064690F8048089469246FFF72E
:10206000EBFF044600283CD1204F2C2508FB057BC4
:102070004FF48E71CBF814A0CBF80890CBF8200069
:102080008BF828003068FFF7DBFD306801238360A0
:102090005946FFF7DDFDDBF804305D461BBB3068B9
:1020A000DBF814402B6A9C4211D83368D3F81C210A
:1020B000002AFBD00122DA6000202C2303FB0877E2
:1020C00000237B61BDE8F88F95F828303BB9D0F844
:1020D0001C31002BF8D05946FFF7BAFDE2E70F207C
:1020E000EBE71120EEE72046ECE700BF900600206A
:1020F0000023435082B043580193019B02B07047C4
:102100001FB501238DF80030044BCDE90110D3E950
:1021100000126846904705B05DF804FBBC0600203D
:102120007FB5434AD2F82461002E60D010464FF4A8
:102130009271FFF7DDFF02238DF80030D2F8803472
:10214000C2F880340393D2F83C350293394BDA68F5
:1021500001920022C3E906226846D3E900129047A3
:102160003348D0F8443173B14FF4A271FFF7C0FF88
:10217000304B9A693AB10022C3E90622D968D0F8F7
:102180003C05FFF7BDFF2A48D0F82031ABB14FF432
:102190009071FFF7ADFF0123C360264B5A6962B10E
:1021A000D0F84C150291002299688DF80020019119
:1021B0005A616846D3E9001290471D48D0F858315B
:1021C0009BB14FF4AC71FFF793FF1A4B5A6962B1A0
:1021D000D0F84C150291002299688DF800200191E9
:1021E0005A616846D3E90012904704B070BDD2F836
:1021F0001031002BB4D04FF488711046FFF778FFF0
:102200000C4BD2F83C0599698842A9D1DC69D968A0
:1022100064B1D2F8005225F02005C2F800521A69C4
:102220009C61DA60DE61FFF76BFF99E79C61FAE77A
:1022300000200040BC0600202DE9F8435A4E90F8DB
:102240000480242303FB0863044693F820300D46E2
:102250009146002B40F0A38054490068FFF7CAF96B
:102260000746002840F09D802A682068511C0BD04A
:102270004FF0A04101239340C1F8083502F5E07307
:102280004FF0030C41F823C069684B1C1FBF01F5D8
:10229000E0734FF0A04C4FF0000E4CF823E0AB6918
:1022A000C0F8243595F814C06B7DBCF1010F4CEAE1
:1022B0000303C0F86C35C0F80C25C0F814151DD107
:1022C000AA68531C1FBF02F5E0734FF0A0414FF006
:1022D000000C41F823C0EB68591C0BD04FF0A04C08
:1022E00001219940CCF8081503F5E0714FF0030E79
:1022F0004CF821E0C0F80835C0F81025242202FB74
:1023000008F2B318C3F804902B69B350B9F1000F69
:102310002FD04FF488712A7FFFF7EAFE20684FF430
:102320009071FFF7E5FE20684FF49271FFF7E0FE31
:1023300020684FF4A271FFF7DBFE4FF4AC71206808
:10234000FFF7D6FE23681A49C3F80413190B43F3A9
:1023500007335201002BD2B21CDB1648C51885F892
:10236000002301225B0901F01F0102FA01F140F88C
:10237000231023680822C3F80025242303FB0866E2
:102380000023C6E906337361012386F820303846FE
:10239000BDE8F883084B01F00F015A54E9E708271C
:1023A000F5E71127F3E700BFBC060020212100005C
:1023B0001003420000E100E014ED00E0F8B5444CE9
:1023C0000579242303FB054302465B680068ABB133
:1023D000404BC0F8083340F30733002B4FEA10316D
:1023E0000CDB01F01F065B090121B14020333A4E9E
:1023F00046F82310BFF34F8FBFF36F8FD0F8003232
:1024000023F02003C0F80032242303FB05439B691B
:102410002BB14FF4A271FFF76BFE012343604FF421
:10242000AC71FFF765FE0123C360242303FB054362
:10243000D0F858110029FBD0996919B1D0F844118E
:102440000029F5D00023C0F800351368D3F80C75C7
:10245000D3F81465D3F80825D3F810154FF0FF3CD6
:102460006745C3F80CC518BF07F5E077C3F814C576
:10247000C3F808C5C3F810C51EBF4FF0A0434FF006
:10248000020C43F827C0771C1FBF4FF0A04306F58E
:10249000E076022743F826704E1C1FBF01F5E0715D
:1024A0004FF0A043022643F82160531C1FBF4FF09A
:1024B000A04302F5E072022143F82210FFF7B6F8BC
:1024C000242303FB0544002384F820306360F8BD17
:1024D000BC0600201003420000E100E00279044B3A
:1024E000242101FB02335869003818BF01207047CE
:1024F000BC06002001F06043B3F1005F2DE9F04716
:102500000646884692463BD190F80490FFF7E6FFD6
:102510000446002836D11D4F3068242505FB097577
:102520004FF49071C5F814A0C5F80880FFF7E0FDDE
:102530004FF4AC713068FFF7DBFD33686A69A96856
:10254000C3F84415C3F8482501229A606A68DAB9CD
:10255000D3F82021D3F858011AB90028F8D00F2059
:1025600007E00028FBD10122DA60D3F85821002AC5
:10257000FBD0242303FB097700237B61BDE8F087B0
:102580001020FBE71120F9E72046F7E7BC06002002
:102590001FB51D221423CDE900234FF0CC71022377
:1025A000CDE90213002307481A466946FEF73AFFB1
:1025B00008B1FEF799FB0448FFF7B6F905B05DF8DE
:1025C00004FB00BF083600000C3600002DE9F34183
:1025D00000210846FEF794F808B1FEF785FBFDF7E9
:1025E000D3FF1E4800F010F9FEF7DCF8054600287E
:1025F000FAD11B4E1B4FDFF87C80FFF7C9FF012487
:10260000264301230DF10702E1B23846FFF706FB2E
:1026100040B92146404600F0F7F8FEF7C3F800281D
:10262000FBD101251048214600F0EEF8FEF7BAF87C
:102630000028FBD14FF47A400134B047802CE0D120
:102640003DB90A4800F0E0F8FEF7ACF80028FBD1ED
:10265000FEE7074800F0D8F8FAE700BF833500002E
:10266000003600000C360000BF350000CE350000FB
:10267000E4350000993500000369C26893429CBFAD
:1026800080681B18013B981A70472DE9F843D0E980
:1026900002940546A9EB04084068904520440F4683
:1026A000144404D900F0F6FAEC60BDE8F883424621
:1026B000A4EB090400F0EEFA6868224607EB080173
:1026C000F0E72DE9F843C5680646894617464FF0FE
:1026D00000083469B3687068A54228BFE418013C5B
:1026E000621B5C1BBC4228BF3C46944228BF144678
:1026F00049462844224600F0CDFAB3682544AB424F
:1027000008BF00253F1BA044A144F560E1D140462D
:10271000BDE8F88310B5114C114AA2610223C4E947
:102720000433104BE361A2644FF400730E4A0F4967
:102730002362E26400231022E01DA3626362E3626D
:10274000A3656365E365226500F0CDFA084920467C
:1027500000F0C9FA2023A37110BD00BFE0060020DD
:1027600018360000680700205807002021360000B6
:102770002536000070B5164B182400FB04451D4497
:1027800004FB00331646DC6A012C0ED0022C18D054
:10279000E4B92846FFF770FF864204D8324628463F
:1027A000FFF773FF3446204670BD2846FFF764FFED
:1027B0008642344628BF044622462846FFF765FF76
:1027C000F1E72846BDE87040FFF77BBF0024EAE749
:1027D000E006002070B50B4B1B7804460D461646EC
:1027E0000BB9FFF797FF0020FEF7D4FA32462946CF
:1027F0002046FFF7BFFF04460020FEF7CDFA204633
:1028000070BD00BFE00600200FB410B5A2B024AB2D
:10281000802153F8042B019302A800F02DFA8028A0
:1028200004460ADD802202A90020FFF7D3FF2046DC
:1028300022B0BDE8104004B070470028F7DD024622
:10284000F1E74FF08053D3F83001421C04BF4FF042
:10285000704393F8E00F831F5842584170470000BF
:102860004FF0704393F8E02F062A09D1D3F8E83FE0
:10287000C3F30313033B042B02D8024AD05C704716
:10288000002070473B360000024AD2F80034002B8B
:10289000FBD0704700E0014010B5FFF7D2FF40B118
:1028A0004FF08053944AD3F82433C3F30423C2F87F
:1028B0004035FFF7D5FF10B1904B914A5A67FFF7AB
:1028C000C0FF48B14FF080534FF08042D3F84432FC
:1028D000C3F34233C2F83C35FFF7C2FF30B1894A37
:1028E000D2F8FC3023F08073C2F8FC30FFF7A9FF68
:1028F00040B14FF080430022C3F80C21C3F81021EF
:10290000C3F83825FFF7ACFF20B14FF08043032216
:10291000C3F8A025FFF7A4FF60B17B4B0522C3F8E5
:1029200010260122C3F888260022C3F818263F2269
:10293000C3F814264FF08053D3F83021511C09BF3F
:102940004FF07043D3F8343193F8E02FD3F8E83FD9
:1029500008BFC3F30313062A4DD1033B042B03D84E
:102960006A4AD35C002B46D04FF08052684BD2F8B5
:102970000414C3F82015D2F80814C3F82415D2F8AB
:102980000C14C3F82815D2F81014C3F82C15D2F87B
:102990001414C3F83015D2F81814C3F83415D2F84B
:1029A0001C14C3F84015D2F82014C3F84415D2F80B
:1029B0002414C3F84815D2F82814C3F84C15D2F8DB
:1029C0002C14C3F85015D2F83014C3F85415D2F8AB
:1029D0003414C3F86015D2F83814C3F86415D2F86B
:1029E0003C14C3F86815D2F84014C3F86C15D2F83B
:1029F0004424C3F87025FFF724FF48B14FF08053FB
:102A00004FF08042D3F8583203F04F03C2F8E43E4F
:102A1000FFF717FF48B14FF08043D3F80024D207E7
:102A200044BF6FF00102C3F800244FF08053D3F885
:102A30003021062A0ED1D3F83431033B042B02D8BF
:102A4000344AD35C33B1344AD2F83C3743F4806320
:102A5000C2F83C372B4AD2F8883043F47003C2F8EE
:102A60008830BFF34F8FBFF36F8F4FF08053D3F891
:102A70003021062A0FD1D3F83431033B042B02D87E
:102A8000264AD35C3BB14FF01023D3F808224FF015
:102A90008043C3F858254FF01023D3F80022002AB2
:102AA00003DBD3F80432002B22DA1D4901234FF057
:102AB0001020C1F804351524FFF7E6FEC0F80042E7
:102AC000FFF7E2FEC0F80442FFF7DEFE0023C1F884
:102AD0000435FFF7D9FEBFF34F8F0A49114BCA687F
:102AE00002F4E0621343CB60BFF34F8F00BFFDE7FA
:102AF0000D4B0E4A1A6010BD0030014000C0074067
:102B00000DF0ADBA00ED00E0005000402C360000A2
:102B100000C0004031360000001000403636000092
:102B200000E001400400FA051C0000200090D003E2
:102B30007F2805D8034B185C034B5B5C184070473B
:102B4000002070474C360000CC360000A0F1610335
:102B5000192B98BF20387047A0F14103192B98BF5B
:102B6000203070477F2805D8034B185C034B5B5C13
:102B700018407047002070474C360000CC360000EB
:102B8000A0F16103192B98BF20387047A0F14103D1
:102B9000192B98BF203070477F299ABF0170012000
:102BA0006FF02E0070475AB10A787F2A0AD800B118
:102BB0000260002119605960501A18BF0120704747
:102BC000002070476FF02E00704710B5044608468D
:102BD000A2684AB12368616803F1010C8C4508BF03
:102BE00000208B4208D2D054E3682BB12168626880
:102BF000914201D22146984723680133236010BDDA
:102C000070B54C1E09D41646C5B229463046FFF7AA
:102C1000DCFF013CB4F1FF3FF7D170BD10F0100FA5
:102C200008D108B510F4007F14BF30202020FFF732
:102C3000E7FF08BD7047000008B5034B5B689B6861
:102C40001B68984708BD00BF2000002008B5092177
:102C5000FFF7F2FF08BD037853B159B101440346B1
:102C600013F8012F12B18B42FAD10B46181A704794
:102C70000346FBE70346F9E710B584B00C4611465E
:102C800002900022039201941A46684600F07EF8F2
:102C900004B010BD844640EA010313F0030F18D1BD
:102CA0008446202A0BD32DE9F007B1E8F807A0E805
:102CB000F807A2F12002202AF7D2BDE8F007042A83
:102CC00007D351F8043B40F8043BA2F10402042A64
:102CD000F7D2002A05D011F8013B00F8013B013A78
:102CE000F9D160467047024610F0030F16D111F07B
:102CF000030F13D12DE9F0004FF001374FF080336F
:102D000051F8044BA4EB070525EA04051D4002D148
:102D100042F8044BF4E7A1F10401F0BC11F8013BC7
:102D200002F8013B002BF9D1704700F1010110F0CE
:102D3000030F11D010F8012B002A23D010F0030F3D
:102D40000AD010F8012B002A1CD010F0030F03D07A
:102D500010F8012B002A15D02DE970004FF0013238
:102D60004FF0803350F8044BA4EB020525EA04052C
:102D70001D4000D1F6E7A0F1040070BC10F8012B53
:102D8000002AFBD1A0EB0100704700002DE9F04FB5
:102D900089B007460392002303600C4614F8011B18
:102DA000002900F0FC82DFF818B5EBE2002507E00F
:102DB0005E2868D145F4805501E045F040051C4689
:102DC000234613F8010B3028F2D81F2837D9A0F179
:102DD0002002102A33D801A151F822F0BB2D0000A7
:102DE0003F2E00003F2E0000212E00003F2E00004D
:102DF0003F2E00003F2E0000272E00003F2E000037
:102E00003F2E00003F2E00002D2E00003F2E000020
:102E1000332E00003F2E00003F2E0000392E000010
:102E200045F08005CBE745F40045C8E745F02005AF
:102E3000C5E745F01005C2E745F40075BFE72A284D
:102E400021D1039A111D0391D2F800A0BAF1000F0D
:102E5000BCBFCAF1000A45F010051878A31C2AEA85
:102E6000EA7A2E2826D00021742847D07A2845D027
:102E70006C2800F0A8804C2800F0AB80682800F097
:102E8000B8801C463DE0A0F13002D2B2092A88BFCA
:102E90004FF0000AE3D84FF0000A0AEB8A0A3038F4
:102EA00000EB4A0A13F8010BA0F13002D2B2092A52
:102EB000F3D9D4E718782A280AD1039A111D03916F
:102EC0001168587802330029CEDB45F48075CBE7D2
:102ED0000133A0F13002D2B2092A88BF0021F4D810
:102EE000002101EB8101303800EB410113F8010BA7
:102EF000A0F13002D2B2092AF3D9E4E71C4614F853
:102F0000010B002800F05782A0F12503DBB2532B00
:102F100062D8A0F12503532B5ED8DFE813F07600CA
:102F20005D005D005D005D005D005D005D005D00B9
:102F30005D005D005D005D005D005D005D005D00A9
:102F40005D005D005D005D005D005D005D005D0099
:102F50005D005D005D005D005D005D005D005D0089
:102F60005D005D005D005D005D005D005D005D0079
:102F70005D005D005D005D005D005D005D005D0069
:102F80005D005D00EC005D005D005D005D005D00CA
:102F90005D005D005D005D005D007B0021015D0066
:102FA0005D005D005D0021015D005D005D005D0074
:102FB00095000F01D2005D005D00A6005D001A01C2
:102FC0005D005D00EE001C4614F8010B45F00105A4
:102FD00097E745F001051C46B54B1E68002E00F032
:102FE000CE8103AB0193009153462A463946B04740
:102FF000C5E11878682803D05C1C45F0040580E71B
:1030000045F008059C1C58787BE725213846FFF7DA
:10301000DCFDB4E1039B1A1D03921E780AF1FF3A0E
:103020003A4651462846FFF7F9FD31463846FFF744
:10303000CCFDA94619F0100F00F0A1813A46514687
:103040002020FFF7DDFD9AE115F0080F06D03A6861
:10305000039B191D03911B681A7090E1039B1A1DB5
:1030600003921B683A681A6089E1039B1A1D039258
:10307000D3F800808F4BB8F1000F08BF9846464642
:1030800025F4007915F4807F16D04046FFF7E3FD64
:103090000546AAEB050A3A4651464846FFF7BEFDEB
:1030A000002DC7D016F8011B3846FFF78EFDA8EBA0
:1030B0000603EB42F6D1BDE74046FFF736FE054674
:1030C000E7E7039B1A1D03921B6815F0800F0CBFE6
:1030D0000026232645F4807508211A46002B00F0AF
:1030E0002A8105AB4FF0000805F4005CA646604657
:1030F0008C460146D2E045F4005515F0800F1BD0F8
:1031000043F2780643F25803782818BF1E4615F498
:10311000807F01D025F4007515F4804F32D0039BD9
:103120001A1D03921B6815F0040F1FD01BB2002B51
:1031300020DA5B422D262DE00026E8E715F0800F0F
:103140000CBF0026302615F4807FE5D025F40075ED
:10315000E2E715F4807F07D025F400750026DBE751
:1031600045F480450026D7E70026D5E715F0080F7F
:10317000DDD0DBB215F0200F61D115F0400F18BF84
:10318000202607E0039B1A1D03921B6815F0040F0D
:1031900050D09BB215F4807F14BF25F40075012137
:1031A0005838202800F2AF8001A252F820F000BF6A
:1031B000DB30000007330000073300000733000056
:1031C0000733000007330000073300000733000017
:1031D0000733000007330000073300000733000007
:1031E0006B32000007330000073300000733000094
:1031F000073300006B320000073300000733000084
:10320000073300000733000007330000433200009B
:10321000DB300000073300000733000007330000F5
:10322000073300006B320000073300000733000053
:10323000DB30000015F0080FACD0DBB2AAE72B267C
:10324000A8E71A464FF00008002B5ED005A84FF003
:10325000000803F00703303300F8013B08F10108D0
:10326000D2081346002AF4D14FE018464FF0000868
:10327000002B4AD04FF0000805F4004E4FF02C0907
:1032800073468E4619462FE002F00F000A4C205C70
:1032900003F8010B08F10108120906D00029F3D048
:1032A00002F00F00054C205CF2E7744661462CE00A
:1032B00068090020A0380000803800009038000025
:1032C000CDCCCCCC08AB03EB080CABFB0032D20866
:1032D00002EB8203A0EB430330330CF80C3C08F103
:1032E000010809280DD910460029EBD008F0030386
:1032F000032BE7D108AB434403F80C9C08F1010809
:10330000E0E7714601E04FF00008A1EB080121EA77
:10331000E179AAEB090AAAEB080AFF2E0ED9AAF155
:10332000020AC6F307213846FFF74FFCF1B23846D0
:10333000FFF74BFC04E04FF00008E6E7002E3DD11C
:103340003A4651462846FFF769FC3A46494630203E
:10335000FFF756FCB8F1000F0EDD0DF1140908F16E
:10336000FF38C84498F8001046463846FFF72DFC51
:10337000C14508F1FF38F5D115F0100F09D114F847
:10338000011B61B125293FF411AD3846FFF71DFC43
:10339000F5E73A4651462020FFF732FCEFE7BB68DD
:1033A0002BB13A6879688A423CBF00219954386849
:1033B00009B0BDE8F08F4FF0FF30F9E70AF1FF3AAE
:0433C000B4E700BFAF
:1033C40066350000000000006A35000000000000BF
:1033D40078350000000000007D350000000000008A
:0833E4005E3400000000030349
:1033EC0030340000000000003C34000014000020C9
:1033FC0078000020400100204801002080000020BF
:04340C0018000000A4
:10341000FFFFFFFFFFFFFFFFFFFFFFFFFFFFFFFFBC
:1034200000000000000000000000D60106010000BE
:10343000F104000055050000A104000075617274DC
:103440005F6C6F675F6261636B656E6400426163AE
:103450006B656E647320666C75736865640061707B
:1034600070000000680500207F000000E8050020D3
:103470001B5B313B33316D0025734C6F67732064E8
:10348000726F70706564202825642925730D0A0009
:103490001B5B306D002573003C25733E2025733A7D
:1034A0002000202530327800202020007C00256379
:1034B000001B5B313B33306D001B5B313B33326DA6
:1034C000001B5B313B33336D001B5B313B33346D91
:1034D000001B5B313B33356D001B5B313B33366D7D
:1034E000001B5B313B33376D007761726E696E672D
:1034F00000696E666F006465627567009034000055
:10350000B134000070340000B9340000C134000050
:10351000C9340000D1340000D9340000E134000087
:10352000000000003A350000E9340000F1340000EA
:10353000F6340000466174616C206572726F72002F
:1035400053797374656D2072657365740030313220
:10355000333435363738394142434445460000005C
:103560000338FDD87047505253005457494D00005E
:103570002D1800003D18000055415254005541528D
:10358000544500545749207363616E6E6572207311
:103590007461727465642E0A00545749206465761C
:1035A0006963652064657465637465642061742073
:1035B0006164647265737320307825782E0A006424
:1035C00065746563742E2E2E307825780A004E6F50
:1035D000206465766963652077617320666F756E18
:1035E000642E0A00446576696365207761732066FE
:1035F0006F756E642E0A00000000000000000000DD
:103600000338FDD870470000000000000030004083
:1036100000000000010000005465726D696E616C6D
:1036200000525454005345474745520000000101E1
:103630000100000001010000000001010000000085
:1036400043000000504F5349580000002020202024
:103650002020202020682828282820202020202002
:103660002020202020202020202020204810101062
:10367000101010101010101010101010848484847A
:10368000848484848484101010101010108181812F
:10369000818181010101010101010101010101019A
:1036A000010101010101011010101010108282822D
:1036B000828282020202020202020202020202026A
:1036C0000202020202020210101010200007032062
:1036D0000417020108571040800000004036000027
:1036E000443700005838000053756E004D6F6E006F
:1036F000547565005765640054687500467269002A
:1037000053617400000000004A616E00466562006B
:103710004D617200417072004D6179004A756E0012
:103720004A756C0041756700536570004F63740003
:103730004E6F76004465630000000000414D00506C
:103740004D0000007C380000783800007838000018
:1037500078380000783800007838000078380000A9
:10376000783800007838000078380000FFFFFFFF4D
:10377000FFFFFFFFFFFFFFFFFFFF0000B837000064
:10378000E8360000F4370000083700003C3700003E
:103790009C3700004C380000A8370000256D2F250D
:1037A000642F257900000000256120256220256511
:1037B000202554202559000053756E646179004D11
:1037C0006F6E646179005475657364617900576543
:1037D000646E6573646179005468757273646179AD
:1037E000004672696461790053617475726461792D
:1037F000000000004A616E75617279004665627270
:1038000075617279004D6172636800417072696C14
:10381000004D6179004A756E65004A756C7900410A
:1038200075677573740053657074656D62657200B9
:103830004F63746F626572004E6F76656D6265727C
:1038400000446563656D62657200000025483A2595
:103850004D3A255300000000312B00004D2B000095
:10386000592B0000652B0000812B00008D2B0000E0
:10387000992B0000A72B0000000000002E00000084
:1038800030313233343536373839616263646566D6
:103890003031323334353637383941424344454686
:0838A000286E756C6C29000014
:1038A8000000000000200040000000000020004050
:1038B8000000000000000000FF0000000090D0039E
:1038C800DC360000DC360000DC360000DC360000A8
:0438D800DC360000DA
:040000030000037581
:00000001FF
