:02000002E0001C
:10000000000004205D030E0045030E0047030E00B0
:1000100049030E004B030E004D030E0000000000CC
:100020000000000000000000000000004F030E0070
:1000300051030E000000000053030E0055030E0094
:10004000D93F0E0057030E0057030E0057030E0052
:1000500057030E0057030E0057030E0057030E0000
:1000600057030E0057030E0057030E0057030E00F0
:1000700057030E0057030E0057030E0057030E00E0
:10008000315C0E00A9330E0057030E0057030E001B
:1000900057030E0057030E0057030E0057030E00C0
:1000A00057030E0057030E0057030E0057030E00B0
:1000B00057030E0057030E00000000000000000070
:1000C00057030E0057030E0057030E0057030E0090
:1000D000F9580E0057030E0057030E00094F0E008B
:1000E00057030E0057030E00BD860E0000000000EF
:1000F0000000000057030E000000000057030E0030
:1001000000000000000000000000000000000000EF
:1001100000000000000000000000000000000000DF
:1001200000000000000000000000000000000000CF
:1001300000000000000000000000000000000000BF
:1001400000000000000000000000000000000000AF
:10015000000000000000000000000000000000009F
:10016000000000000000000000000000000000008F
:10017000000000000000000000000000000000007F
:10018000000000000000000000000000000000006F
:10019000000000000000000000000000000000005F
:1001A000000000000000000000000000000000004F
:1001B000000000000000000000000000000000003F
:1001C000000000000000000000000000000000002F
:1001D000000000000000000000000000000000001F
:1001E000000000000000000000000000000000000F
:1001F00000000000000000000000000000000000FF
:10020000314932480A1A02D0072291438D463049BB
:1002100030480A1A06D00722914381F30988022246
:1002200082F314882C482D492D4A00F03CF82D48C3
:100230002D492E4A00F037F82D482E492E4A00F05D
:1002400032F82E482E492F4A00F02DF82E482F491B
:100250002F4A00F028F82F482F49304A00F023F8A1
:100260002F483049304A00F01EF83048304900220B
:1002700000F024F82F483049002200F01FF82F4AE0
:1002800090471F481F49884205D00268043003B4D4
:10029000904703BCF7E700208646EC46002000218B
:1002A000274A9047FEE7884207D0521A05D00378C4
:1002B00001300B700131013AF9D17047884202D008
:1002C00002700130FAE770470000042000F80320B4
:1002D000000004200000042050950E001C000020A7
:1002E000A4000020B8030E00B8030E00548F0E00C7
:1002F00050950E001C0000201C0000208C8F0E006A
:100300008C8F0E008C8F0E008C8F0E008C8F0E0049
:100310008C8F0E008C8F0E008C8F0E0050950E006F
:10032000D8950E00A4000020A4000020A400002006
:1003300084410020844100208441002085030E0078
:1003400025550E00FEE7FEE7FEE7FEE7FEE7FEE7C7
:10035000FEE7FEE7FEE7FEE700F002B8FFF7FCBFAE
:100360000F484FF00701884385460E4880470E48E6
:10037000016841F470010160BFF34F8FBFF36F8FCD
:10038000FFF73EBF09480A490A4A884207D0521A75
:1003900005D0037801300B700131013AF9D1704773
:1003A00000000420F55C0E0088ED00E0788F0E0060
:0803B000080000201C000020E1
:1003B8000020704710B504461A4803F00BFA1A4B90
:1003C80018481C6003F01DFA48B3184B002140F68A
:1003D80003020330C3E9021258601970144B15491F
:1003E80059601549C3E90212144A1A61144A5A613C
:1003F80003F0F2FB852800D090B9002003F04AFCF6
:1004080070B902F019FE0F4801F084FA40B90E489D
:1004180001F022FB20B9BDE8104001F0E7BA032043
:1004280010BD00BF648F0E002C010020D0190020E1
:10043800B819002061040E0055040E006019002050
:100448005C8F0E00B08F0E008C8F0E00011F0148CC
:1004580003F0F7B9648F0E0013B5074C0A4601ABD9
:100468000146204603F02AFB019A0448214602F07F
:1004780059FA02B010BD00BF471900208C8F0E003A
:1004880001F048BC083810B5062820D8DFE800F08D
:1004980008141B1F1F1F0400BDE8104001F0C0BA5C
:1004A80004F056FA08B901F0B9FA094B1B6873B1A0
:1004B8000120BDE81040184701F0C4FA044B1B683E
:1004C8002BB10220F5E7BDE8104001F0ABBA10BD32
:1004D8002C01002003780BB901F01CBC014A04214F
:1004E80000F092BE89040E00F8B5E9B9134E144C19
:1004F800144F3178124803F015FB054660B93846A9
:10050800D4E9011206F048FE0F4803F07AF918B151
:100518000330C4E9010525700C480122314602F078
:1005280023FA0028E5D0F8BD0229FCD1BDE8F8403F
:1005380002490648012202F017BA00BF78190020C4
:10054800D0190020B8190020648F0E008C8F0E007F
:10055800074B1B5C1F2B86BF064903F01F034FF098
:10056800A041012202FA03F3C1F80835704700BF21
:10057800BC8F0E000003005008B50020FFF7E8FF0D
:100588000120FFF7E5FF0220FFF7E2FFBDE8084082
:100598000320FFF7DDBF00000A4B185C1F288ABF45
:1005A800094B4FF0A04300F01F00D3F804250121A8
:1005B800814021EA02000A40C3F80805C3F80C2567
:1005C800704700BFBC8F0E0000030050C20710B573
:1005D80004460CD54FF0A0430322C3F83427C3F8D0
:1005E8003827C3F83C27C3F84027FFF7C5FFA30700
:1005F8000AD54FF0A0430C22C3F82C27C3F83027A4
:10060800C3F86027C3F8642710BD0023C0E902328D
:100618008B881A44B1F9063002611A44C0E9001106
:1006280042610888003818BF012070474268118865
:1006380038B50346002937D0148A02F11001416009
:100648002CB9C2680168FFF7E0FF204638BD9078F2
:10065800118900F03005302D14D1947C04F0300459
:10066800302C1BD190881969091A19610021908AC8
:10067800B2F91620084419690144196111445961F5
:100688000120E3E700F0F004202C07D15089414312
:10069800002DECD1986801309860E8E700F0C000C0
:1006A800802808BF0421F3E70846CFE770B54668FD
:1006B80004460D4663681A88AA4204D19B7803F061
:1006C8000F03082B07D12046FFF7B0FF6368B3423A
:1006D800F0D1002070BD0120FCE743681A44426055
:1006E80011B101399A4201D10120704713F8010B69
:1006F80001F8010FF6E770B54568AA7802F00F0611
:10070800082E86B003461FD103691C6800260CB961
:1007180006B070BD236862689D68267329466846DE
:10072800FFF773FF6368049304F10C030593AB7838
:1007380003F0C003802B08BF231D684608BF04933D
:10074800FFF7D9FFA468E2E712F0C00122D102F056
:10075800300010280CD15A691170072EEC681869FE
:100768000BD10146204606B0BDE8704000F01AB82B
:100778009006F2D55B691980CAE72A89214624B117
:1007880006B0BDE8704008F039B806B0BDE8704062
:1007980008F05DB88029BBD100690021920601608C
:1007A800B6D5E7E77FB50A4601466846FFF72DFF4D
:1007B80030B16846FFF79FFF6846FFF737FFF7E756
:1007C80007B05DF804FB836810B504460BB9002038
:1007D80010BD0368012298470028F8D0A368013BA0
:1007E800A360F5E72DE9F3410F460DF107018046B7
:1007F800FFF7E9FF054620B90025284602B0BDE805
:10080800F0819DF907309DF80740002B13DA04F0BA
:100818007F0407260DF107014046FFF7D4FF0028A3
:10082800EAD09DF8072002F07F03B3401C4313066B
:1008380006F1070601D43C60DFE7232EEAD1DBE7A7
:1008480030B5044685B01546A9B90268114B9A42DD
:1008580011D0102D06D82A4669462046FFF7F0FF2A
:1008680005B030BD102269462046FFF7E9FF002891
:10087800F6D0103DEDE7A368AB4201D20020EFE7C8
:1008880023682A46204698470028F7D0A268521BBA
:10089800A260E5E7E3060E00F7B50E4601A9074694
:1008A8001546FFF79FFFA0B1019A511C4FF00004B5
:1008B80004D2B37803F0C003802B01D1204608E0AE
:1008C80033898B42FAD329463846FFF7B9FF019B93
:1008D800EC5403B0F0BD73B50D4601A906461446A5
:1008E800FFF780FF98B1019AB2F5803F11D2AB783B
:1008F80003F0C003802B02F102010AD02B898B423E
:1009080007D32146304621F8022BFFF799FF02B0A2
:1009180070BD0020FBE7000010B5034C8260002288
:10092800C0E90041C26010BDE3060E002DE9F341A5
:10093800002580460E462F462C460DF107014046FD
:10094800FFF741FFC0B19DF807C0A4F120030CF0E8
:100958007F02C4F1200102FA03F322FA01F10B43EA
:10096800A2401CF0800F45EA020547EA030704F19C
:10097800070404D1C6E9005702B0BDE8F081462C4F
:10098800DBD10020F8E737B50D4669461446FFF776
:10099800CDFF70B12B89082B0DD1DDE90032C4E9F8
:1009A8000032DDE90001914208BF98420CBF0120E6
:1009B800002003B030BD042B03D1009B236000222C
:1009C800EFE7022B03D1009B23809BB2F7E7012BB3
:1009D80004D1009B237003F0FF03F0E70020E8E751
:1009E80037B50D4669461446FFF7A0FF30B12B898D
:1009F800082BDDE9001203D1C4E9001203B030BDB1
:100A0800042B4FEAE17009D121600B46024682426D
:100A180008BF8B420CBF01200020EFE7022B03D157
:100A28000BB22380DA17F2E7012B02D14BB2237005
:100A3800F8E70020E2E7F7B51F4600233B700D46B4
:100A48000B70136001A904461646FFF7CBFE30B9B8
:100A5800A36813B901233B70002003B0F0BD019CCB
:100A6800002CF7D0E30804F0070433602C70F4E797
:100A780013B50446052925D8DFE801F0030F17242C
:100A88002422012201A92046FFF7DAFE18B19DF9B8
:100A98000430002BF5DB02B010BD082200212046EF
:100AA80002B0BDE81040FFF7CBBE01A9FFF79AFEE0
:100AB8000028F0D0019A00212046FFF7C1FEEAE79E
:100AC8000422EBE70020E6E773B50D4601A90446CA
:100AD800FFF788FE064618B90026304602B070BDFA
:100AE80094E80F0085E80F0001998A42F4D3A960C1
:100AF800A3685B1AA360F0E72DE9F0435668B37862
:100B080013F0C00489B007468C46154603D0402C24
:100B180069D000240CE003F00F02604903F03003B1
:100B2800202B51F8228025D006D8E3B1102B17D0FE
:100B3800204609B0BDE8F083302BF9D16B693188C4
:100B48001980072A09D121463289286907F07FFED2
:100B58006B682969D868FFF725FE2A69696840E04B
:100B68006B6901221A702A693146434609B0BDE80B
:100B7800F0431847BCF1020FD5F8149024D1042A89
:100B880022D804A9FFF7A0FF04460028C1D0069B7D
:100B98002BB16968B9F800304A899A4205D8059B93
:100BA8007B60069B002BC3D0B3E708892A6903FB47
:100BB800002204A8C04728B1B9F800300133A9F8C9
:100BC8000030E4E70446EAE7B9F8003072899A424F
:100BD8009FD931892A69581C03FB0122A9F8000012
:100BE80031463846C1E7D2F81080464656F8043BED
:100BF80023B909B0BDE8F043FFF73ABF022914D181
:100C080004A9FFF761FF002883D0D8F8003069688D
:100C1800324604A89847044600283FF47AAF069B5A
:100C2800002BF2D1059B7B6082E7012926D005299C
:100C38002CD000297FF46DAF0C460DF10409013466
:100C48000B2C3FF466AF012249463846FFF7F8FD02
:100C580000283FF45EAF19F9013B002BEFDB104B86
:100C6800049301ABCDE90534002307936968D8F8EC
:100C78000030324604A89847044659E7082201A9DB
:100C8800FFF7DEFD08240028E9D142E704220DEB36
:100C98000201FFF7D5FD0424F5E700BFC08F0E0061
:100CA800E3060E002DE9F04F91B00446002604A893
:100CB800CDE90266FFF7A9FCA3683BBBDDE9053473
:100CC80004A89D78FFF7B2FC0028F7D115F0300F83
:100CD80003D1059B1B8803B10134002C00F0A980C7
:100CE800630902A90022934240F09C8010AA02EBFB
:100CF800830304F01F0453F8383CC4F120044FF078
:100D0800FF30E040C31A584258410DE00DF103038B
:100D180001AA0DF102012046FFF78DFE38B99DF8B2
:100D28000330002BCAD1002011B0BDE8F08F019923
:100D380004A8FFF7BBFC002850D1019BB3427DD328
:100D4800059D059A937803F00F03082B7FD004A81C
:100D5800FFF76CFC059B9D42F3D14FF0FF36019FD6
:100D6800B7426BD3089B9DF802A0D4F808801D6891
:100D78004FF00109A368002D5DD098459CD12B68E0
:100D8800D3F800B0BBF1000F08D053463A462946C5
:100D98002046D8470028C6D0AD68EBE7D3F808B09E
:100DA800BBF800309F42F7D16A6859460AA8FFF796
:100DB8002CFC6B680E9305F10C030F939BF8023023
:100DC80003F0C003802B04BF2B1D0E930AAA85F8DD
:100DD8000C9051462046FFF78FFEDBE7059B9B787A
:100DE80013F0300F0FD1069A3F2A0CD8510910ABD7
:100DF80003EB810102F01F020123934051F8382CC4
:100E0800134341F8383CE5682DB19DF8022001995B
:100E180004AB2046A8479DF8021004AA2046FFF715
:100E28006BFE10E051F8045B01357FF47DAF0132B1
:100E380059E7012078E798457FF43EAF9DF8021006
:100E48002046FFF715FE00287FF436AF6BE71688BB
:100E580085E737B50C460546114620460192FFF74F
:100E6800A1FC019A2146284603B0BDE83040FFF7AF
:100E780019BF70B586B0CE6801920C4602A9054626
:100E8800FFF722FE68B1E06858B1A378019A03F031
:100E98003003202B314602A805D1FFF7DAFF039B68
:100EA8006B6006B070BDFFF7FDFEF8E713B50C46A2
:100EB8006946FFF73BFD60B1DDE900134A0842EAE5
:100EC800C372C9074FEA530344BFD243DB43C4E9A3
:100ED800002302B010BD37B50D4669461446FFF72A
:100EE800E5FF70B12B89082B0DD1DDE90032C4E98B
:100EF8000032DDE90001914208BF98420CBF012091
:100F0800002003B030BD042B03D1009B2360DA1707
:100F1800EFE7022B03D1BDF900302380F7E7012B5F
:100F280003D19DF900302370F1E70020E9E713B5FC
:100F380004220C460DEB0201FFF782FC08B1019B6D
:100F4800236002B010BD1146FFF7F1BF13B50822A8
:100F58000C466946FFF774FC18B1DDE90023C4E9C3
:100F6800002302B010BD1146FFF7F0BF38B52022AC
:100F7800044608300D4607F041FC2022A91804F168
:100F8800280007F03BFC002038BD00002DE9F7439E
:100F9800DFF86C809946184B036004460E464046BD
:100FA8000121174602F0DEFB0546BFF35F8FF8B953
:100FB80000F0E6F80A9ACDF800903B4606F10801E1
:100FC800204606F01BFA044600F0E8F8BFF35F8FEE
:100FD800C8F8005044B1094948F2165248F2425341
:100FE8008C4214BF14461C46204603B0BDE8F0836B
:100FF80048F20454F8E700BFDD55AABB8408F000A6
:10100800E02900200E4B984214D00AD8B8B10D49F7
:1010180048F2165248F20153884214BF1046184647
:101028007047094B984208D0084948F2165248F2CE
:101038000353F1E748F20350704748F202507047F3
:101048000102F0000002F0000202F0000F02F000BE
:1010580008B5083006F03CFABDE80840FFF7D2BFF3
:1010680013681F2B2DE9F34106460F46144620D975
:10107800DFF84C800121404602F074FB0546BFF3BF
:101088005F8FC8B900F07CF8394606F1080006F011
:101098008BFA019000F082F8BFF35F8F0198C8F8CF
:1010A8000050FFF7AFFF08B92023236002B0BDE866
:1010B800F08148F21450F9E748F20450F6E700BF0F
:1010C800E02900202DE9F04105460E461948012186
:1010D800144602F047FBBFF35F8F38BB00F050F8AF
:1010E800DFF854800835B4F5805F274628BF4FF4F1
:1010F800805731463A46404607F080FB3A4641461B
:10110800284606F0FFF9E41B3E4468B9002CEAD1F2
:1011180000F044F8BFF35F8F064B00222046BDE87D
:10112800F0411A60FFF76EBF0446F1E748F2045039
:10113800BDE8F081E0290020E0190020024B0020E2
:10114800C3F80005704700BF00A0025038B50A4B2D
:1011580000251D60BFF35F8F084C0123C4F80035DC
:1011680006F052FAC4F8005520B1052848F2035099
:1011780018BF032038BD00BFE029002000A002509E
:10118800044B0122C3F80025034B4FF480625A60D8
:10119800704700BF00A0025000E100E0064B0022AB
:1011A800C3F80025054B4FF48062C3F88420BFF3D1
:1011B8004F8FBFF36F8F704700A0025000E100E02F
:1011C8004B1C30B5DB00044612F003009BB20DD176
:1011D800074D2A601A44074B1A60074B1870074BD3
:1011E8001870074B1C80074B198030BD0720FCE79F
:1011F800EC290020E8290020E4290020F429002017
:10120800F0290020F22900202DE9F047DFF8B4800A
:10121800B8F800308B4206460D46174645D30020E5
:1012280001F082FF234B244A244819780088147857
:10123800E3B2844238BF0133C9B234BFDBB2002302
:1012480099422CD014781178CBB2884286BF0133EA
:10125800DBB200231370002001F068FF4FF6FF7324
:101268009C4224D0DFF86090D9F800204FEAC40AE5
:1012780042F8347002EBC403A6B19DB1104BB8F824
:1012880000001B682A4604FB0030314607F0B6FA16
:10129800D9F80030534400209D80BDE8F0874FF610
:1012A800FF74D8E700209880F7E70920F5E70420C5
:1012B800F3E700BFF4290020E4290020F2290020E8
:1012C800E8290020F0290020EC29002070B5104CF6
:1012D800104D22782B789A4200D170BD0E480F4AE3
:1012E8002378126806880E4802EBC301006852F89A
:1012F8003320898803FB060090470A492278098829
:10130800D3B2914286BF0133DBB200232370E0E7FA
:10131800F4290020E4290020F0290020EC290020ED
:10132800E8290020F229002010B5D0E90243D1E9CC
:101338000202A04272EB03032CBF0120002010BD63
:1013480008B50A4802F015F8094AD2E90031C01870
:10135800084BD3E9002341F10001904271EB0303EC
:1013680003D210F1807041F1000108BD2000002077
:10137800002A0020782A002037B505460C460A487E
:1013880001A902F07AF960B10570446001A9064824
:1013980002F09DF918B1054801F0F0FF002003B0F4
:1013A80030BD0420FBE700BF642A00202000002095
:1013B800234B70B51E78044616B90026304670BD1A
:1013C8000028FAD0FFF7BCFFD4E9022390429941E4
:1013D8002FD3002001F0A8FE23692BB94FF0FF326C
:1013E8004FF0FF33C4E90223002001F09FFED4E947
:1013F80005309847002001F097FE25696DB1D4E9C2
:101408000212B2F1FF3F08BFB1F1FF3F0FD06918D8
:1014180042F10002C4E902123546002001F086FEBE
:10142800002DCAD00748214602F022FBC6E7002556
:10143800F3E7B3F1FF3F08BFB2F1FF3FBDD0F1E7DB
:10144800082A00200C900E0013B5114B114918689A
:10145800019008231048582202F0FCF8044698B975
:101468000E4A0F4801A901F08DFE044660B90C48E8
:10147800012101F061FF01230A4A0948194601F0D8
:10148800C3FE094B01221A70204602B010BD00BFEE
:1014980008900E000C2A0020642A00207D150E00FA
:1014A80020000020FFFF7F00082A002030B56AB125
:1014B80003684FF0FF344FF0FF355A614A1E51421E
:1014C800C3E9024551411961002030BD0720FCE7FE
:1014D800F8B50446002017460D4601F025FED4E96C
:1014E8000223B3F1FF3F08BFB2F1FF3F15D1FFF769
:1014F80027FF281841F10001C4E902010126002054
:1015080001F014FE5EB12369A76103B1256121468C
:101518000020BDE8F840FFF72FBF0026EFE7304670
:10152800F8BD38B50446002001F0FEFDD4E90223D9
:10153800B3F1FF3F08BFB2F1FF3F1FBF4FF0FF32CB
:101548004FF0FF33C4E90223012508BF002500201E
:1015580001F0ECFD2DB121460120BDE83840FFF730
:101568000BBF284638BD0000014801F002BF00BF8C
:10157800200000202DE9F743064601F0E5FE40B1C2
:10158800624AD2E9003113F1807341F10001C2E9E6
:1015980000310021304601F0E6FE38B15C4C23688A
:1015A80023B12068FFF704FF0023236001213046A0
:1015B80001F0D9FE20B1FFF7C3FE564BC3E9000185
:1015C8005548534C01A902F092F84FF0FF384FF0FC
:1015D800FF39A0B9DFF844814D4D404602F05EFA6C
:1015E800002800F08580D0E90223B3F1FF3F08BF4F
:1015F800B2F1FF3F32D1404602F04AFAEDE70378F4
:10160800012B20D0022B08D1444D284602F040FA85
:10161800002877D0C0E90289F7E75BB94168D1E9CA
:101628000223B3F1FF3F08BFB2F1FF3F02D03B48AE
:1016380002F01EFA01A9384802F084F801A93648D8
:1016480002F055F8C5E741682368994202D10023A2
:101658002360EFE7314802F024FAEBE7296891B1FB
:101668002968D1E9020182428B412FD22B68D3E944
:101678000223B3F1FF3F08BFB2F1FF3F03D029684F
:10168800404602F0F5F9404602F002FAD0E9024974
:101698000746FFF755FE201A69EB0109012879F181
:1016A800000318DBB0F5350F13D3FFF75DFF1C4AB5
:1016B80002441C484FF49603002101F0C5FD90B97F
:1016C8002B6813B9304601F097FD2F6003B0BDE8D1
:1016D800F0832246EDE71348002101F03AFE384630
:1016E800FFF766FE01E00D28F9D000232B6074E7B0
:1016F800074B1B68002BE9D1304603B0BDE8F04327
:1017080001F07EBD084B01221A7093E7002A0020E1
:10171800802A0020782A0020642A00200C900E00DD
:10172800FFFFB40020000020082A002043681B683F
:1017380018470000024B5B6803B11847704700BFA9
:10174800842A0020020600F00F034CBF0248034819
:10175800DB001844704700BF902A0020D82A0020D8
:1017680008B5FFF7EFFF016009B14B6819684160E0
:1017780008BD00000378052B0BD1074AD2F8843442
:10178800D2F88024D2B222B9044ADBB2052B08BFB2
:101798001046034B1B6818470070024030900E003B
:1017A800842A0020012805D0022805D030B9044831
:1017B800FFF7E0BF0348FBE70348F9E7704700BFBE
:1017C8002C900E0028900E0024900E00FFF7D2BF38
:1017D8000148FFF7CFBF00BF34900E00024B01460F
:1017E800D3E90002104700BFD82A002038B5831E6D
:1017F800DBB2062B98BF1A4A1A4D98BFD25C2B78D9
:10180800A3F10203DBB288BF0022062B9ABF14495A
:10181800CB5C00239342044603D0B2B1124802F0D5
:10182800FBF9022C14D0A4F10800424242412B7863
:10183800022B0FD0A3F108014B424B41934202D037
:1018480052B103F0CBF82C7038BD02F00FFAE8E77C
:101858000122ECE70123F1E703F0B6F8F3E700BF54
:1018680018900E00292B0020280000202DE9F04FA9
:1018780087B000260546884691461F4602966B6843
:1018880000225C682946012302A8A047044638B90B
:101898008DF8060004908246564503D8052028E0B6
:1018A8000136ECE76B680DF10602D3F804B029465F
:1018B800012304A8D8476B680DF10702D3F804B0D8
:1018C8002946012304A8D8479DF8073043459DF8C9
:1018D800063013D14C450FD1109A13603B7087F82E
:1018E80001806A68023B54682946BA1C04A8A047CC
:1018F800002007B0BDE8F08F0134E4B26A68023B0B
:10190800D2F804B02946002204A8D8479DF806302A
:101918009A44C1E72DE9F74305462B4803F074F8CC
:10192800044600284CD1294B1870294B1860294BC4
:10193800014618604822284806F089FF27484822AF
:10194800214606F084FF264B95B9264A1D72C3E945
:101958000025002002F09EF918B1852801D003F077
:10196800D9FD214F002697F8089007F1090814E0DF
:1019780095E8070083E807000028EAD1194A1A60A9
:10198800E7E7A37823443946985CFFF7E9FE013579
:101998006378EAB29342F4D80136F4B2A14504D987
:1019A80004EB440444440025F2E70B230E488DF869
:1019B800043001A9FFF7BAFE044608B102F0FAFEA6
:1019C800204603B0BDE8F083D5170E00292B002070
:1019D800202B0020242B0020902A0020D82A002029
:1019E800842A00201D1D0E0050900E0010B502F034
:1019F800A7FF10B90823184610BD02F0A9FF044636
:101A08000028F7D1044802F060F903460028F2D014
:101A180003F080FD2346EEE720900E0002F0D4BECE
:101A280003F0FCBA4FF08043D3F83824920702D56C
:101A38000348FFF79FBED3F83824D107F4D4704782
:101A480039900E0007B5822301A88DF80430FFF7FE
:101A580091FE03B05DF804FB2DE9F74300F109019D
:101A680090F80890054600270E46FBB24B452AD24F
:101A780091F801800024E3B298450AD98B780A19B5
:101A88000134D05CFFF75EFE0368002BF3D0112011
:101A980028E001370331E8E7A27823442946985C17
:101AA800FFF75EFE01376278FBB29A42F4D808F17C
:101AB80001082B7A5FFA88F4A34216D904EB440490
:101AC80034440027EFE74FF00008F2E713681A687C
:101AD800002AFBD11D6001A90B2328468DF804308C
:101AE800FFF724FE03B0BDE8F083014BEFE700BF2A
:101AF800202B0020024B1878003818BF01207047AF
:101B0800282B0020030710B5044604D403F098F8E6
:101B1800204603F049FB2046BDE8104003F0F0BA28
:101B280003F0BCBA014B1868704700BF202B002097
:101B3800F0B50A4B0246186878B1057A0023861D6D
:101B4800DCB2A54201D80368F5E7013303EB43078C
:101B5800F75D9742F4D101B10C70F0BD202B002045
:101B68001146FFF7E3BD08B500F00F03082B07D8AF
:101B7800FFF7E8FD006818B1BDE80840FFF7D6BDDB
:101B8800102008BD38B5054B05461C6804B938BD9A
:101B980029462046FFF7CAFD2368F6E7202B0020D8
:101BA80038B5074B05461C680CB9062038BD2946D0
:101BB8002046FFF7BBFD0628F8D12368F3E700BFEE
:101BC800202B002013B50446019102F063FF50B1A9
:101BD800064B1B78022B06D10199204602B0BDE8BE
:101BE800104002F067BF082002B010BD292B00206A
:101BF80013B50446019102F04DFF50B1064B1B7816
:101C0800022B06D10199204602B0BDE8104002F02F
:101C1800C5BF082002B010BD292B0020F8B54368C5
:101C28009B6805460C46164613B92EB1072002E0FC
:101C380098470628F9D0F8BD2B7AA34213D909355D
:101C480004EB44042C446778F3B29F4201D8002087
:101C5800F1E762789A4208D9A219A378D05CFFF715
:101C680051FF0136F0E77378FFDE00231B78FBE7AE
:101C78004368DB6870B505460C4603B198472B7A74
:101C8800A34213D9093504EB44042C440025667893
:101C9800EBB29E4200D870BD62789A4209D96219A7
:101CA800A378D05C03F0FAF90135F1E700235B78FB
:101CB800FFDE00231B78FBE743681B6903B1184765
:101CC8001846704770B5084B1C6804B970BD267A71
:101CD8000025E9B28E4201D82368F5E700222046A4
:101CE800FFF79CFF0135F4E7202B002070B5084B67
:101CF8001C6804B970BD267A0025E9B28E4201D865
:101D08002368F5E72046FFF7B3FF0135F5E700BF85
:101D1800202B002038B503780F2B044610D9A3F1E7
:101D2800800283F08003052B00D938BD052AFCD832
:101D3800DFE812F067002C00490073007E00E00025
:101D48000F2BF2D801A252F823F000BF5B1E0E0041
:101D58008B1E0E00EB1E0E00AF1E0E00CD1E0E00D9
:101D6800FD1E0E000F1F0E00331D0E00391F0E0042
:101D78003D1F0E00411F0E00331D0E00331D0E00C7
:101D8800331D0E00331D0E00071F0E006B48FFF7B2
:101D980025FD6A48FFF7F6FE0D20FFF7CBFCFFF79D
:101DA800A5FF00F0D2FE664B1B6853B9654B187A45
:101DB80000F0010002F0A0FD0120BDE83840FFF767
:101DC80015BD0120F4E7FFF791FF03F005F90020A6
:101DD800FFF70CFD5C48FFF7D5FE5B48FFF7FEFCFC
:101DE8000E20FFF7A7FC594B1B78023BDBB2062BF2
:101DF8009BD8574AD35C002B97D0BDE8384001F0F8
:101E080035BF524B1B78062B05D003F0FD03052B7D
:101E18008BD10220D1E70820CFE74C4B1B78032B4E
:101E280083D103F015F900283FF47FAF0420C4E7FD
:101E3800464B1B78032B05D103F00AF910B1042097
:101E4800FFF7D4FC02F08EFD00283FF46EAF0620A9
:101E5800B3E73E4B1B78032B01D0082B02D13D483A
:101E6800FFF758FF0020FFF765FC354B1D68002D74
:101E78003FF45BAF28462146FFF758FC2B685D68A6
:101E8800F5E7FFF733FF00F057FE0220FFF7AEFC3F
:101E98000120FFF74FFC2046FFF7A0FC2046BDE8D5
:101EA8003840FFF76FBE294B1B78082B06D102205C
:101EB800FFF79CFC02F09CFD0320EAE70520FFF7F2
:101EC80095FCF9E70320FFF735FC2348FFF786FC6C
:101ED8002148FFF757FE1D4B1B78062B99D1072089
:101EE8006BE70320FFF782FC0220FFF723FC204664
:101EF800FFF748FE2046BDE83840FFF76FBC0F20CB
:101F0800FFF718FCCAE78078FFF71CFC21464368F6
:101F18000068984700283FF408AFA07802073FF40C
:101F280004AF03073FF501AFBDE8384002F07ABEC1
:101F38000820E5E70920E3E70A20E1E738900E00EA
:101F4800242B0020842A002037900E00292B002003
:101F580018900E0036900E0035900E00C36903B13C
:101F68001847704703680022C3E91E22C3E92022EC
:101F78001A845A62DA6203F134025A677047CA69EE
:101F88009A4210B543600CD38C690460086F1844FA
:101F98000867D01A1C44C86100388C6118BF01203A
:101FA80010BD01F1280202608B670020F8E710B528
:101FB800044658B90868037B202B09D100F10E01AB
:101FC8000722183006F01AFC204610BD0320FCE753
:101FD8000620FAE7F0B504680D7A002C00F0878037
:101FE800A4F213347C2C00F222837C2C00F21F8391
:101FF800DFE814F085008F009D00A900B500C1003E
:10200800CD00D9001D031D031D031D031D031D0362
:10201800EF00FB001D031D031D031D031801240110
:1020280032011D031D031D03450151017F011D03DD
:102038001D031D031D03670173017F011D031D039C
:102048001D031D031D031D038B011D031D031D031C
:102058001D039F01AB01B701C301CF011D031D0380
:10206800DB01E701F301FF010B021D031D031C0245
:102078002802340240021D031D034C025802640268
:1020880070027C021D031D031D031D031D031D0398
:102098001D031D031D031D031D031D031D031D0338
:1020A8001D031D031D031D031D039B02A7021D0322
:1020B8001D031D03C0021D031D031D031D03DD02B7
:1020C8001D031D031D031D03DD021D031D031D0349
:1020D8001D031D031D03E902F5021D031D031D0356
:1020E8001D0313031D031D031D031D0313030824F0
:1020F800047123B940F2133303600120F0BD0AB123
:10210800047914700B24012B04710ED84FF4457315
:10211800F2E700240AB10679165501340E7D0671DE
:102128009C4205D340F21533E6E70124F2E7002488
:102138000AB106791655013402269C42067103D36A
:1021480040F21633D8E700240AB10679165501344F
:1021580002269C42067103D340F21733CCE70024D1
:102168000AB106791655013402269C42067103D33A
:102178004FF44673C0E700240AB1067916550134B6
:102188004E7E06719C4203D340F21933B4E7002413
:102198000AB106791655013400269C42067103D30C
:1021A80040F21A33A8E700240AB1067916559D4E65
:1021B8000027013437709B4E3678AE4202D340F286
:1021C8009A3399E70926A342067103D840F22133CE
:1021D80092E700240AB106791655013404269C4278
:1021E800067103D340F2223386E700240AB1067948
:1021F80016558C4E0F7A3678DFF82CC2B74204F1A8
:10220800010440F2188201F1090706EB460607EBC4
:10221800060E9C42BE5DCCF800E0067103D340F286
:10222800273369E700240AB10679165501340026D8
:102238009C42067103D34FF44A735DE700240AB148
:1022480006791655784E36680134767806719C42C0
:1022580003D340F229334FE700240AB10679165513
:10226800714E0F7D36683678B74204F101041ED1ED
:1022780002269C42067103D340F22D333CE700242A
:102288000AB106791655013402269C42067103D319
:1022980040F22E3330E700240AB10679165501348E
:1022A8004E7E06719C4225D340F22F3324E78F7D62
:1022B800B74223D10A269C42067103D34FF44D73CB
:1022C8001AE700240AB106791655013400269C4203
:1022D800067103D340F235330EE700240AB10679BC
:1022E8001655013400269C42067103D340F236335A
:1022F80002E700240AB10679165501340026A342E4
:10230800067103D840F23D33F6E600240AB1067997
:102318001655454E0F7D36683678B74204F10104EC
:1023280040F0E98005269C42067103D340F242330F
:10233800E2E600240AB106791655013424269C42A7
:10234800067103D340F24333D6E600240AB1067976
:102358001655013400269C42067103D34FF451737D
:10236800CAE600240AB106791655013410269C42A3
:10237800067103D340F24533BEE600240AB106795C
:102388001655013401269C42067103D340F24633A8
:10239800B2E600240AB106791655013405269C4296
:1023A800067103D340F24933A6E600240AB1067940
:1023B8001655013424269C42067103D340F24A3351
:1023C8009AE600240AB106791655013401269C4282
:1023D800067103D340F24B338EE600240AB1067926
:1023E8001655013403269C42067103D34FF45373E8
:1023F80082E600240AB10679165501348E7D0671ED
:102408009C4203D340F24D3376E600240AB10679A4
:102418001655013404269C42067108D34FF45473B0
:102428006AE600BF2B2B0020302B002000240AB1C5
:1024380006791655013424269C42067103D340F2CE
:10244800513359E600240AB106791655013402269B
:102458009C42067103D340F252334DE600240AB180
:1024680006791655013402269C42067103D340F2C0
:10247800533341E600240AB106791655013405267E
:102488009C42067103D340F2563335E600240AB164
:1024980006791655013424269C42067103D340F26E
:1024A800573329E600240AB1067916550134062661
:1024B8009C42067103D34FF456731DE600240AB1FB
:1024C8000679165501340E7D06719C4203D340F2FD
:1024D800593311E600240AB10679165501348E7D68
:1024E80006719C4203D340F25A3305E600240AB130
:1024F800067916550134534E36687778524E377040
:10250800524E00273770514E37784F4E3678B742C3
:1025180004D34F4F3E7801363E704CE60726A3425F
:10252800067103D840F26E33E6E500240AB1067955
:102538001655013405269C42067103D340F26F33C9
:10254800DAE500240AB1067916553E4E3F4F366843
:102558003F7896F801C0BC4504F1010470D996F89B
:1025680002C03E449C4216F80C60067103D340F248
:102578007333C1E500240AB106791655314E0F7D33
:1025880036683678B74204F1010406D103269C4226
:1025980006710DD34FF45E73AEE58F7DB7420BD154
:1025A80002269C42067103D340F27D33A4E5002441
:1025B8000AB10679165501344026A342067103D89C
:1025C8004FF4617398E500240AB106791655013471
:1025D80000269C42067103D340F285338CE5002423
:1025E8000AB106791655174E0F7D36683678B74208
:1025F80004F1010407D10E6A9C42367806710DD3A6
:1026080040F28A3378E58F7DB7420BD100269C4291
:10261800067103D340F28F336EE500240AB10679C0
:1026280016550134094F3E7801363E706BE700239A
:102638000360184662E50023CCF800301B78FFDE03
:102648000023FBE7302B00202A2B00202C2B002016
:102658002B2B0020037A012B08D9427B012A00F199
:102668000C0306D9827B13445878704700235B78A3
:10267800FFDE00231B78FBE72DE9F0470B7888B0D5
:1026880005460E460E2B1AD8DFE813F060003B0112
:102698006000600019000F00A60019001900380139
:1026A800190060006000600060004A78D1094FEAB4
:1026B800521335D013F0030303D0012B21D0062485
:1026C8001BE002F01F02012AF9D1B478062CF6D1DA
:1026D80005A8039300F0A8FC03AB0093F2783179C6
:1026E800034607462846FFF7C1F8052805D0039A90
:1026F8003946701C00F044FA0446204608B0BDE88C
:10270800F087B378212BDAD1B6F80720072AD6D17B
:102718000168701C183108B0BDE8F04700F030BA05
:10272800012BCCD1B3780768202B11D0222BC6D12E
:10273800B6F80730002BC2D13A8CB6F803303B8488
:1027480002F0010203F001018A4220D10024D4E7FB
:10275800B6F80730072BB2D14FF4E462BA810020F3
:102768000E37CDE90573079000F0DEFC05A90020BF
:10277800FFF728FA044630B9684B03A9CDE90335B9
:1027880000F0ECF90446002000F0D0FCB5E78CB26C
:10279800C1F10301C9B2FFF7E1FB002CD6D12B7AB6
:1027A800012B40F2B4806B7B05F10C02002B00F08A
:1027B800B080AB7BD05C02F065FB2846FFF74AFF90
:1027C80002F060FB07F13403C7E91E44C7E920445F
:1027D8007C62FC627B6790E7037A002B00F09B80A9
:1027E800837A00F10901002B00F09380C27AB37854
:1027F8008A5C9A42AAD01B06F77809D527B1032F1D
:1028080014BF0324002478E70121FFF7A7FB9DE705
:1028180007F0FD03012B99D0002F76D10668FFF74A
:1028280019FF3F4BB46A059306F10C0381460693E2
:10283800C4B9F36FB467C6E91F43F36A63B1D6E955
:102848000B0106F1240383E80300F46205A9484656
:10285800FFF7CEF9044600E0746200212846FFF72E
:102868007DFB4AE7D6F884A0706A544528BF5446D1
:1028780006F134082246414605F0C0FFF36F2344B1
:10288800C6E91F73AAEB0403B367F36A4444746789
:102898002BB306F1240406F12C0898E8030084E819
:1028A8000300B36F706AF7621BB9736A002BCDD14E
:1028B80016E0B26A716F9A4214D805F09FFFB36AA6
:1028C800B26FC6F88030D21AB267726F1A44726754
:1028D80000212846FFF742FBF36A002BDDD1736223
:1028E8000024BAE71A4605F089FFB26FB36AF267A7
:1028F8009B1AB362736A13447362D6E70321FFF726
:102908002DFB2846FFF72EFB20E70324F5E6637826
:10291800FFDE1B78FCE75B78FAE700BFB71F0E0005
:10292800871F0E001FB503681B8CDC0714D5037ABC
:10293800012B13D9437B00F10C0493B1837BE05C3A
:102948009306CDE901120CBF0123002301A90393CB
:10295800FFF738F904B010BD0820FBE700235B78C7
:10296800FFDE1B78FCE700002DE9F3410468238CA7
:10297800DB0780460F46164646D5002000F0D4FBFC
:10298800656A002D38D1A16FB14213D3616F324609
:10299800384605F033FFA36FC4F880609B1BA3671C
:1029A800636F33446367002000F0C0FB284602B021
:1029B800BDE8F081C4E909764046FFF74BFE134BAA
:1029C800009304F10C030646019369B10A463846A0
:1029D800616F05F013FFA36FA26AD21AA262626A3E
:1029E800C4E91E531A44626269463046FFF700F98B
:1029F800051E08BF9225D6E7E36A1BB9C4E90B7622
:102A08009225D0E71125CEE70825CFE7871F0E00CE
:102A1800002070472DE9F04F2DED028B4B6885B0F3
:102A280080460C4601926BB90B681B681B684BB952
:102A38008D683DB9C0E90055284605B0BDEC028B4C
:102A4800BDE8F08F02F0EAF8019BE7689F4228BFD3
:102A58001F4604F110034FF0000A08EE103A8146B1
:102A6800564601254FB3A3686168BB429B4628BF01
:102A7800BB4629B35A4609EB060005F0BFFE002302
:102A88006360A268E368A2EB0B02A3EB0B03A260EE
:102A9800E360A7EB0B075E440ABBBAF1000F03D053
:102AA8002268126812682260DBB12368DBB96360B0
:102AB8001EB1019BB34288BF0025C8E90096BBE759
:102AC800002BDED021684B6818EE100AD3F804A05A
:102AD80009EB06025B46D0474FF0010AD1E7002B0D
:102AE800C0D10025BEE70023029321684B6800226D
:102AF800D3F804B002A80123D84708B92061B1E788
:102B0800A3680133A360F0E7084B1A7882420CD01F
:102B1800052818BF064A187018BF137805481CBF47
:102B280023F002031370FFF7F5B87047402B00201D
:102B38005C2B002060900E0008B50020FEF7E2FF35
:102B4800BDE808408020FEF7DDBF08B50020FEF78D
:102B5800E7FFBDE808408020FEF7E2BF38B505462C
:102B68000C4602F0EDF8A84205BFD4E90001034B7A
:102B78001020C3E9000108BF002038BD602B0020E9
:102B88007FB5C38893421E4628BF164693420D461A
:102B9800144620D9802001F077FFB4FBF0F202FB45
:102BA8001044B4FA84F4640900200394CDE9015672
:102BB80000F0BAFA01A98020FFF704F8044620B90A
:102BC80006498020FFF7CAFF0446002000F0AEFA4D
:102BD800204604B070BD0024E6E700BF94900E00C4
:102BE8002DE9F04F0B780E2B89B00D4613D8A3B101
:102BF800013B0D2B11D8DFE813F012001A00160064
:102C080010002A00F60110001000100010001A0031
:102C1800E001E401F401852B13D00624DDE1032053
:102C2800FFF772FFF9E7A94800F0CEFD08B90024C4
:102C3800D3E1A74B0122DA65BFF36F8FBFF34F8F44
:102C4800F5E7A44B1B78032BE7D10420E8E705231D
:102C5800A14D8DF814300DF1150002F001F8002394
:102C68002B609DF8153003F01F07032F00F25E81DB
:102C7800DFE817F00400F60053013E0013F0600F80
:102C8800C3F3411834D1DB099DF8161000F0A28077
:102C9800062916D0082900F08F8049BB8F4C0222E4
:102CA800204605F0D4FD237843F0010222708C4AB7
:102CB8001278920744BF43F0030323700222874926
:102CC8000EE09DF81830022B16D0032B64D0012B90
:102CD8000ED1BDF81B30002B00F06C818149122207
:102CE8000DF11500FFF74CFF0446062C40F0268135
:102CF80005A8FEF755FF0EE1BDF81B60002E00F099
:102D08005981092E28BF0926FEF70CFF4FF0090943
:102D1800044654BB714C74493246204605F06EFD9A
:102D28002771A4F80290FEF7E5FE18B1E37943F0A5
:102D38002003E371FEF7F6FE6C4BC3E900049E60C6
:102D4800BDF81B20DA60002000F0EEF96849802009
:102D5800FEF74EFF044620B966498020FFF7FEFEC5
:102D68000446002000F0E2F9BFE7CDF80C804FF0F0
:102D7800000A63680022D3F804B02146012303A89F
:102D8800D84730B9237A1F442368D1441C68FFB25E
:102D9800BFE70AF1010AECE7BDF81B30002B00F091
:102DA8000981BDF819109DF8170000F08DF901464A
:102DB80000289DD0027893E7464A1278052A03D165
:102DC800464A137001227AE7042A91D1434B83F8CB
:102DD8000080F7E703290FD009292BD0012987D1D3
:102DE800BDF81730012B83D1FEF784FE60B13C4A51
:102DF800137823F002030FE0BDF81730012B7FF49E
:102E080077AFFEF777FE18B90F2401F08FFFE4E0E3
:102E1800334A137843F0020313702B68002B00F039
:102E2800C98001F08DFF044600287FF400AF01F04F
:102E38003DFFD2E0274B1B78043B012B01D9082426
:102E4800E3E79DF817302BB9FEF750FF0420FFF792
:102E58005BFEE2E7012B57D1FEF734FF0520F6E7CA
:102E68009DF8190003A9FEF763FE064608B9102469
:102E7800CBE79DF80C1005AAFEF772FE062804465B
:102E88005CD19DF8152012F0600FBED1114B9DF852
:102E98000C1018789DF81630D2092DD07BB10A2B6A
:102EA800B3D10528CBD130460192FEF705FF0B4977
:102EB800019A08700DF11500FFF762FE2BE0052856
:102EC800BDD106490B800222F4E700BF682B002021
:102ED80000700240402B0020602B00206C2B00204B
:102EE8005C2B002080900E0061900E00442B002087
:102EF8009C900E0094900E000B2B86D105289ED135
:102F0800BDF81730FF2B01D907247EE79DF817205D
:102F18003046FEF783FE044610E09DF819000307CB
:102F280006D19DF8153013F0600F0BD006246CE71E
:102F380005A9FEF718FE06280446F2D0002C3FF437
:102F48006CAF62E79DF81620344B9DF819401B784A
:102F5800012A1DD0032A0CD0002AE7D1052B02D064
:102F680027077FF46CAF204601F068FE2C490880E3
:102F7800A9E72607DAD4BDF81720002AD6D12007FA
:102F8800D4D0052B7FF45BAF204601F04BFE44E71D
:102F98002107CBD4BDF81720002AC7D12207C5D0F6
:102FA800052B7FF44CAF204601F04AFE204602F084
:102FB800FBF832E701F0B0FE39E60020FFF7A4FD88
:102FC80035E64FF08043D3F8384414F0010401D0BB
:102FD8000220F3E70120FFF797FD204609B0BDE87E
:102FE800F08F0120EAE7C87803283FF416AE0D4EAB
:102FF80033688BB100227168326098470446002814
:103008007FF403AF336823B1AB78002B7FF40FAEA6
:103018000DE701F081FEE0E70E24F6E6402B0020E4
:103028006C2B0020602B002008B14023036001486E
:10303800704700BF6C2B002070B54FF0805286B0EF
:10304800D2F8A830D2F8A42000926FEA83436FEA3E
:1030580093430B4A0B4E9BB20D2102A805F0A9FB26
:1030680002AD002402A805F025FC844201D306B075
:1030780070BD15F8013B06F8013B0134F2E700BFCB
:10308800A4900E00AC2B002010B50E4B53F8204036
:1030980023780BB9A01C10BD0020FFF7C5FF013C29
:1030A80000235A1CA15C39B9DBB201335B00DBB2E7
:1030B80043F440730380EEE7D3B220F813101346AD
:1030C800EFE700BFFC900E00034608B9FFF7DCBF2E
:1030D800012807D0022805D0032803D0042801D0EE
:1030E800052809D1054800EB4303587820B1044B63
:1030F80053F82030002BE9D10020704714910E00BE
:10310800FC900E0072B6024A1368013313607047D0
:10311800BC2B0020034A1368013B136003B962B655
:10312800704700BFBC2B0020FFF7ECBFFFF7F2BFD2
:1031380030B53AB11368DB430A4D0144814204D1EA
:10314800D84330BD4FF0FF33F6E710F8012B53405A
:10315800082213F0010418BF2C46013A84EA5303ED
:10316800F7D1EBE72083B8ED435882B03BB1002399
:10317800435043580193019B012002B07047184601
:10318800FBE7000070B5184C4379184D44F823202C
:1031980005EBC3031B792BBB03680A88C3F8082512
:1031A80090F904408B7802795B01002CDBB214DBC8
:1031B8000F490E1986F800330123640902F01F0233
:1031C80003FA02F241F82420437905EBC3020121F6
:1031D80045F833001171002070BD064902F00F0256
:1031E8008B54F1E70820F7E7C82B0020C02B0020FC
:1031F80000E100E014ED00E0036801221A60704766
:10320800036801225A60704773B501F15005AD009B
:103218000068ADB24FF480348C400026C0F80843F3
:10322800C0F84843465101F5A8714559019522F067
:103238007F42019D40F82120C0F844430BB1C0F8FB
:10324800044302B070BD00002DE9F74F0D4622F08F
:103258007F4402684FF4803705F150068F4080465E
:10326800B60002EB8500C2F84873B6B2C2F808731C
:10327800D2F8041599464FF0000BD0F84035C0F845
:10328800401542F806B05B1A9259009223F07F432A
:10329800012B009A4FEA850A0CD1264B4FF4806027
:1032A80043F001039847D8F8003043F806B09B591B
:1032B8000193019BD8F80010D1F80465C1F8447354
:1032C800A31B23F07F43012B1CD11A4B05F5A875CE
:1032D800013443F0010341F825404FF480609847DA
:1032E800D8F80030D3F804359E4209D1D8F8003018
:1032F8000020C3F84473C3F8047303B0BDE8F08F2B
:103308000D20FAE78A44C9F1FF13CAF84045D1F8FD
:103318000405221A013A22F07F4203F57F439342C3
:10332800EED3002AE2D10134CAF84045D1F8043579
:103338009842DAE720910E0003680222C3F844237A
:1033480009B1C3F80423704700684FF48271FFF78E
:103358000BBF4FF4803303FA01F10368C3F8481335
:10336800C3F80813704750318900006889B2FFF725
:10337800FBBE0368D3F804057047000090F90430D9
:10338800002B09DB5A09012103F01F0301FA03F39B
:103398004032024941F82230704700BF00E100E0A6
:1033A800024B034A1B681068184700BFC82B00204F
:1033B800C02B002017490A68002A38B5164B25DCAF
:1033C8005C789A88D87BB4B15C7B251A954207DC77
:1033D80000225A705A699C8002B105320A6001E0E5
:1033E80002449A8019790D4800F02DF980B1BDE8A2
:1033F800384002F08FB89C7B2518954204DB0122E7
:103408005A709C801A69E7E7121AEAE7FF3AE5E77B
:1034180038BD00BF202C0020CC2B0020FC2B002026
:1034280038B543780546002B3CD082789A4239D289
:10343800C378002B36D0C368002B33D01A4C5422E3
:103448000021204605F003FA1422294604F10C0055
:1034580005F0D4F9EA78AB781344A3804FF480736D
:103468002380EB68A360A3622B69227B6362FF233E
:1034780084F8202084F821300C4A0D4BE36204F1D3
:10348800200104F1300000F089F860B90123A3702D
:10349800A978EB78194404F13000C9B2BDE8384086
:1034A80000F0D1B8072038BDCC2B0020BD330E006A
:1034B80028910E000146014800F0A2B8FC2B00201C
:1034C800014800F0B1B800BFFC2B0020014B186187
:1034D800704700BFCC2B0020014B5861704700BFDC
:1034E800CC2B00200178036AC26821B1C3F80C25EF
:1034F800002343707047C3F80825F9E738B5037D02
:103508000446002B3FD18369DBB9E378A2789A425D
:103518001FD12078236AE168C0B1C3F808150123D8
:103528000532637022612379022B0ED1E369216988
:1035380018682246FDF7CCFF38B1BDE8384001F0E5
:10354800E9BF98472379022BDFD038BDC3F80C15A3
:10355800E5E733B92046FFF7C5FFA37805332361B4
:10356800E1E72578216AE06855B1C1F8080513FB41
:1035780002F31B1201210533617023612175D2E723
:10358800C1F80C05F3E7FFF7ADFF00238278037558
:10359800C378D31A53431B12E0E7000070B58D6857
:1035A8000B780370C0E902554B68826103624B785F
:1035B80083700446C868104AE0610021FDF776FF71
:1035C80040B90E4E032135B92046FFF78BFF012382
:1035D8002371284670BDEB070BD51F288BBF00F061
:1035E8001F03034632464FF0A04203F5E07342F84A
:1035F800231001306D08E6E705350E000003005082
:10360800022370B50371C1600D46FFF76BFF816837
:103618008669044629430025816005758561FFF7A1
:103628006DFFA661284670BD38B5C36904461868A1
:10363800FDF777FF05462046FFF754FF0DB9012334
:103648002371284638BD83788B4226BFC17000207D
:103658000720704710B561B1B2FBF3F403FB1424E3
:10366800A4B244B9C0E9001484608281C3812046B1
:1036780010BD0E20FCE70920FAE737B550E8013FF6
:103688009DB2C48925448489A54228BF2D1B04897D
:10369800A54202BFBFF32F8F002207E0C5EA03054A
:1036A80040E80154002CE9D14FF001028DF80320C5
:1036B8000193019A0A609DF8031001F0FF0321B1FC
:1036C800006810FA82F003B030BD1846FBE70A889C
:1036D8004B889A4209D150E8012FC2EA024240E8D9
:1036E8000123002BF7D1012070470020704737B520
:1036F80050E8023F1FFAA3F5C488A54202BFBFF3F2
:103708002F8F00220DE0C48925448489A54228BF53
:103718002D1BC3EA054540E80254002CE8D14FF0C0
:1037280001028DF803200193019A0A609DF80310A5
:1037380001F0FF0321B1006800EB124003B030BD77
:103748001846FBE70A884B889A4209D150E8022FAD
:10375800C2EA224240E80223002BF7D10120704739
:103768000020704710B5034653E8000F0A4643E8A7
:10377800002494F0000FF7D110BD10B5034653E8AC
:10378800000F40EA010243E8002494F0000FF6D14C
:1037980010BD10B5034653E8000F00EA010243E8E4
:1037A800002494F0000FF6D110BD10B5034653E87D
:1037B800002F02EA010043E8000494F0000FF6D15C
:1037C80010BD0121FFF7D9BF0021FFF7E2BF00219B
:1037D800FFF7EBBF10B590B1D0E9012301689B1A40
:1037E800DBB20A60013BDBB2FF2B026802D100208A
:1037F800107110BD11684C1C14600B70F2E70E209C
:10380800F7E738B504460020FFF78EFC22686368A6
:103818001168994213D9481E106011F8013CE568F7
:10382800218A01FB0355A36811791B1ADBB299425F
:1038380000D213710020FFF779FC284638BD002517
:10384800F8E738B5054600200C46FFF76DFC2A68F6
:103858001368591C1160E968641A298AB4FBF1F4E9
:103868001C70BDE838400020FFF760BC0B4610B460
:10387800114628B123B103605DF8044B1B68184753
:103888000E205DF8044B70472DE9F04308B302B3EE
:10389800D0F800E0BEF1000F1ED0FBB14568D5F8A6
:1038A8000490B3FBF9F509FB1535BDB942EA010CE3
:1038B8001CF0030F14D1C568A94211D34D1EEC1892
:1038C8000569AC420CD8DEF80C40A446BDE8F043CC
:1038D80060470E20BDE8F0830820FBE70920F9E7E0
:1038E8001020F7E7F0B5D8B1D0F800C0BCF1000F50
:1038F80018D0CAB14568D5F800E00EF1FF350D4281
:1039080014D1C568A94211D34D1E0EFB0254056996
:10391800AC420BD8DCF81040A446BDE8F040604744
:103928000E20F0BD0820FCE70920FAE71020F8E790
:1039380070B550B90E4D0F4C0026641B1423B4FB10
:10394800F3F4B44208D1002010E00368002BF1D052
:10395800BDE87040DB6918472B6813B90136143588
:10396800EFE7DB69284698470028F7D070BD00BF0D
:10397800080000201C000020014B43600020704715
:103988002C910E000846704700207047024B1868BB
:10399800003818BF01207047242C002008B50248C1
:1039A800FFF715FF002008BD242C002008B510469D
:1039B8001A4604F023FF002008BD00002DE9F0415D
:1039C800804686B011480F4616461D46FFF7F9FE99
:1039D8000446C8B9AA083146384600F0B9F90B4878
:1039E800FFF7F5FED8F8083053B101228DF8002012
:1039F8000C9A0592CDE90147CDE9036568469847D9
:103A0800204606B0BDE8F0811124F9E7242C0020F7
:103A18002DE9F043814687B014480E46154698466E
:103A2800FFF7CFFE0446F0B90746BD4215D10F484F
:103A3800FFF7CDFED9F808305BB102228DF80020DF
:103A48000022CDE90126CDE90325CDF8148068468A
:103A58009847204607B0BDE8F08306EB073000F032
:103A680049F90137E1E71124F3E700BF242C0020CE
:103A780070B5446806460D46206818B1B3682946F3
:103A8800984718B923682B60256070BD2468F3E750
:103A98004368186808B102681A6070474368186874
:103AA80070474368186800B97047884203D10268B4
:103AB8001A600120704703460068F4E7F0B578B350
:103AC80071B36BB300241C608E18DB274FF0DC0C3D
:103AD8004FF0DD0E1A688E4202F1010400EB020578
:103AE80004D11C60C0232B700020F0BD0D78C02DC0
:103AF80005D0DB2D0CD01C600C78845406E01C60CB
:103B080087541A68541C1C6000F802C00131E1E7B0
:103B18001C6085541A68541C1C6000F802E0F5E724
:103B28000E20E2E710B580B3D0E902239A422ED0E6
:103B38000378012B0FD0022B21D053B9C02928D0EC
:103B4800DB2902D10123037003E04368541C84601D
:103B58009954112006E0DC2905D0DD290AD002237A
:103B680003700B2010BD511C43688160C02199541B
:103B78000023E8E7511C81604368DB21F7E7C0298F
:103B8800E7D1002303708360E3E70E20EAE704200F
:103B9800E8E71846E6E7000038B5074C051E04F1CB
:103BA800080318BF1C4623682BB11A6822605B689B
:103BB80028469847F7E738BD302C002020B9054B38
:103BC80001225A70FFF7E8BF012802D1014A90701C
:103BD800F8E77047282C002038B50C4C23789BB99F
:103BE8000B486360A3602361E36000F0E7F80546D3
:103BF80000F0F0F801232370064BD3F800340BB122
:103C08000123A370284638BD8525F5E7282C002018
:103C1800C53B0E000000014038B5134C63780546DB
:103C280003F0FF0073B115B16B68002098470020BE
:103C3800FFF77AFA6368013363600020BDE8384013
:103C4800FFF774BAFFF770FA25B1A26813463BB9BB
:103C58002A60A5606368002BECD100F0D1F8E9E791
:103C68009D42F7D01B68F2E7282C002038B5084C95
:103C78000020FFF759FA6368013B6360656815B96E
:103C880000F0CAF86570BDE838400020FFF74EBA6A
:103C9800282C002010B5074C23784BB9064B002878
:103CA80008BF184600F008F908B90123237010BDB1
:103CB8008520FCE73C2C002058910E0008B500F048
:103CC8002AF9BDE8084000F02DB907B50190FFF7C3
:103CD800F5FF019800F012F900F016F9002003B082
:103CE8005DF804FB024AD2F80034002BFBD0704781
:103CF80000E001400A4908B50223C1F80435BFF3C2
:103D08006F8FBFF34F8FC1F80805FFF7EBFF002354
:103D1800C1F80435BFF36F8FBFF34F8F08BD00BFE5
:103D280000E0014010B5094C0123C4F80435BFF385
:103D38006F8FBFF34F8F0160FFF7D4FF0023C4F8E4
:103D48000435BFF36F8FBFF34F8F10BD00E0014004
:103D580070B50E4E01231546C6F80435BFF36F8FB4
:103D6800BFF34F8F0024AC4207D10023C6F80435B7
:103D7800BFF36F8FBFF34F8F70BD51F8243040F8F9
:103D88002430FFF7AFFF0134EDE700BF00E001404A
:103D980010B5034653E8000F00EA010243E8002487
:103DA80094F0000FF6D110BD00F18040002382B0DE
:103DB800036003680193019B02B07047044A1379BA
:103DC80023B90121106091801846704785207047FB
:103DD800402C0020084B1A68D20704D4C02283F86C
:103DE800002301221A604FF080420123C2F81835DF
:103DF800024A1370704700BF00E100E0482C002021
:103E080008B54FF48070FFF7CFFF4FF080430122D1
:103E1800C3F804231A6008BD4FF08042012108B599
:103E28004FF48070C2F80813FFF7BEFF5160D2F854
:103E38000C3403F00113B3F1011FF8D0014B002239
:103E48005A7108BD402C00204FF0804110B5D1F8C0
:103E5800003163B14FF48070FFF7A6FF0D4B58791E
:103E68000122C1F8082310B95A711B6898474FF00E
:103E78008042D2F8043163B14FF48270FFF794FFA7
:103E88000223C2F80833034BBDE810401B68012029
:103E9800184710BD402C002000F1804382B01A68FA
:103EA800002A14BF0120002004D000221A601B68D9
:103EB8000193019B02B070470E4A1378C3B9037887
:103EC8004FF08041C3F34003C1F88035037803F015
:103ED8000103C1F87835084B1968C90704D4C02113
:103EE80083F8001301211960012313700020704723
:103EF80085207047582C002000E100E0014B026843
:103F08001A607047542C00204FF080434FF46072C1
:103F1800C3F8042370474FF080434FF46072C3F82E
:103F280008237047014B00221A607047542C002068
:103F38004FF0804310B5D3F80443620707D54FF418
:103F48008470FFF7A9FF10B11E4B1B689847A306A2
:103F580008D54FF48A70FFF79FFF18B11A4B00205D
:103F68001B689847600608D54FF48C70FFF794FFDC
:103F780018B1154B01201B689847210608D54FF446
:103F88008E70FFF789FF18B1104B00201B68984707
:103F9800E20508D54FF49070FFF77EFF18B10B4B80
:103FA80001201B689847A3050AD54FF49270FFF7C4
:103FB80073FF28B1054BBDE810401B680220184765
:103FC80010BD00BF4C2C0020502C0020542C002089
:103FD80008B5FFF7ADFFBDE80840FFF735BF0000A3
:103FE800020713D400F00F0310F0800F084A0BBF2C
:103FF80003F5887303F5847302EB830352F82300F7
:1040080008BF5868431E58425841704700207047FF
:104018000070024010F0080F074B06D0D3F8C00418
:1040280010F4803F18BF0020704700F00F0000F523
:10403800947053F820007047007002404FF080538E
:10404800D3F83001A0F108035842584170470000E6
:104058004FF08053D3F83021082A06D1D3F83431F1
:10406800052B04D8034AD05C704700207047012014
:10407800704700BF59910E0030B54C680D689C42DE
:1040880029BFC0E900530021E41AED1832BFC0E986
:1040980000514C600D60934203D1201E18BF0120CF
:1040A80030BD0020FCE74B6810B59A420C6828BF69
:1040B8001A46C0E90042981A0B6848601A4400384A
:1040C8000A6018BF012010BD30B54C680B68A242C9
:1040D80028BF2246002A14BF1D460025C0E9005209
:1040E800A4EB02041A444C600A6014BF01200020AB
:1040F80030BD0000054B10F0800FA3F1900208BFFF
:10410800134600F00F0003EB00107047CC2D002081
:1041180010F0800F14BF0023102300F00F00184484
:104128007047000008B5FFF789FF18B1034B00225C
:10413800C3F81C2C024B00221A7008BD0070024004
:104148005A2C002007B5094A00231370084AADF815
:10415800053013708DF8073001238DF80430054BB6
:1041680001A81B68984703B05DF804FB592C002090
:10417800602E00205C2E002070470000F8B54B68C8
:104188000B4F93420C4628BF134606461A46096849
:1041980038461D4604F032FB60682268401BC6E9B9
:1041A80000752A4460600038226018BF0120F8BDFD
:1041B800642E0020F8B54B68934228BF1346064684
:1041C8000D461C468BB10A4F09681A46384604F05A
:1041D80015FB37606B6874601B1B6B602B68201EB7
:1041E80023442B6018BF0120F8BD0360F2E700BF2D
:1041F800642E002008B50020FEF796FF0A4BD3F87E
:10420800001C032261B949F27531C3F8001CC3F8D8
:10421800142DC3F8001CBDE808400020FEF786BF37
:10422800C3F8142DF7E700BF00E0064008B50020EA
:10423800FEF77AFF0A4BD3F8001C61B949F27532D0
:10424800C3F8002CC3F8141DC3F8002CBDE80840BF
:104258000020FEF76BBF0022C3F8142DF6E700BF5D
:1042680000E0064008B50146FFF75CFF0846FFF787
:1042780041FF827B032A0AD10846FFF749FF012143
:104288008140BDE808400448C943FFF781BD036881
:10429800002BF1D008BD00BFC82C00208720FFF7F5
:1042A800E1BF8620FFF7DEBF8520FFF7DBBF842054
:1042B800FFF7D8BF8320FFF7D5BF8220FFF7D2BF13
:1042C8008120FFF7CFBF000008B5FFF72BFF084B91
:1042D80093F89E20032A06D1BDE8084005486FF0F0
:1042E8000101FFF755BDD3F89030002BF4D008BD7D
:1042F8003C2D0020C82C0020012273B502FA01F5DC
:104308001E491F4E0B6810F0800F43EA0503044650
:104318000B6027D000F00F021A4B33F8123003F16C
:10432800804303F51C331A684AB100221A60BFF3B0
:104338006F8FBFF34F8F802811D0FFF793FF31683D
:1043480029400AD106238DF804308DF806408DF8EF
:1043580007100D4B01A81B68984702B070BDFFF706
:10436800B3FFECE733681D42F7D106238DF804301C
:104378008DF806008DF80720EBE700BF382D0020E8
:10438800C82C002068910E005C2E002008B5054B53
:104398001A781046FFF7BCFEBDE8084001461046F3
:1043A800FFF7AABF602E0020FFF78EBF07B50023D6
:1043B8008DF804300B4BD3F82025ADF80620D3F840
:1043C800C034094A002B13680CBF4FF480714FF0BA
:1043D80001210B431360054B01A81B68984703B0E4
:1043E8005DF804FB00700240382D00205C2E002090
:1043F80007B5FFF797FE0D4B93F88E20032A11D0CF
:10440800D3F8803073B90A486FF08071FFF7C0FCA9
:1044180006238DF804300823ADF80630054B01A8B3
:104428001B68984703B05DF804FB00BF3C2D0020D3
:10443800C82C00205C2E002007B5FFF773FE114B37
:1044480093F81E21032A07D10F486FF4807103B037
:104458005DF804EBFFF79CBCD3F8103173B90A4838
:104468006FF48071FFF794FC06238DF804308823DD
:10447800ADF80630054B01A81B68984703B05DF8F6
:1044880004FB00BF3C2D0020C82C00205C2E00201F
:104498002DE9F04F5D4E337885B0002B6DD15C4C23
:1044A8005C4B19682368194067D011F0012367D065
:1044B80093FAA3F1002966D0B1FA81F10F2964D9E2
:1044C800A1F110085FFA88F84046FFF713FE4FF095
:1044D800010B4FFA88FA0BFA01F1BAF1000F814685
:1044E8006FEA010B54DA03688289416802A8984789
:1044F80008B9C9F80000FFF7A1FD18B1464B8222A0
:10450800C3F81C2C01232168039A3370D9F80830AA
:1045180001EA0B011344BAF1000F2160C9F8083011
:1045280008F0080002993C4B08F00F085EDA0028F2
:1045380054D0C3F8A016C3F8A426042303EB8803B9
:1045480003F1804303F51C3301221A60BFF36F8F18
:10455800BFF34F8F314B324A2F4913EA2A0338BF32
:10456800134633F8183003F1804303F51C331A68F7
:104578001AB9D1F80021002AF9D005B0BDE8F08FAA
:1045880091FAA1F196E720219AE741F080089BE78C
:104598004046FFF73FFDB9F80C20D9F80410D9F8C8
:1045A80000500346074602A8A847029A002A9FD04F
:1045B800039A97429CD9022789F80E7059461548E4
:1045C800FFF7E6FB06238DF80430164B8DF80680BE
:1045D8001B688DF8077001A8984761E7142000FB55
:1045E8000833C3F80016C3F80426A6E728B1C3F8B1
:1045F800A017C3F8A4272823A0E7142000FB08333A
:10460800C3F80017C3F80427F5E700BF5A2C0020A9
:10461800382D0020C82C00200070024068910E0040
:1046280084910E005C2E002037B50446FFF77AFD12
:104638002046FFF75FFD837B032B0DD12046FFF754
:1046480067FD01218140C9430F48FFF7A1FB03B073
:10465800BDE83040FFF71CBF0568002DF7D12046A4
:10466800FFF756FD01218140C9430748FFF790FB3A
:1046780006238DF80430054B8DF806401B688DF82D
:10468800075001A89847E2E7C82C00205C2E0020BC
:104698000720FFF7C9BF0620FFF7C6BF0520FFF7B1
:1046A800C3BF0420FFF7C0BF0320FFF7BDBF022030
:1046B800FFF7BABF0120FFF7B7BF000038B5134BAB
:1046C800D3F86C44C3F86C44BFF36F8FBFF34F8FBC
:1046D80001251CB9BDE83840FFF7DABE94FAA4F109
:1046E80071B1B1FA81F30F2B19460BDDA1F110005E
:1046F800C0B205FA01F324EA0304FFF7FDFDE8E779
:104708002021F3E743F08000F3E700BF0070024088
:10471800254B13B5D3F80044C3F80044BFF36F8F9B
:10472800BFF34F8FBFF36F8FBFF34F8FE1050ED5E8
:104738001E4B01221A700023ADF805308DF80730A2
:1047480002238DF804301A4B01A81B689847A2056C
:104758000DD5164A00231370ADF805308DF80730D3
:1047680003238DF80430124B01A81B689847630592
:1047780018D50E4A1378ABB1002313700A4A0121E9
:10478800C2F808159165BFF36F8FBFF34F8FADF86F
:1047980005308DF8073004238DF80430044B01A848
:1047A8001B68984702B010BD00700240592C0020C9
:1047B8005C2E0020024A00231360024A13707047DF
:1047C8005C2E00205B2C002008B5454B4FF400629E
:1047D800C3F80024BFF36F8FBFF34F8FFFF738FC88
:1047E80008B1FFF707FDFFF729FC98B10020FEF795
:1047F8009BFC3C4BD3F8001CC022002967D149F22E
:104808007531C3F8001CC3F8142CC3F8001C002031
:10481800FEF78CFC324B0122C3F80025BFF36F8FE3
:10482800BFF34F8FD3F800241205FBD54FF4006275
:10483800C3F80024BFF36F8FBFF34F8FFFF7FEFB62
:1048480090B10020FEF770FC264BD3F8001C00291D
:1048580040D149F27532C3F8002CC3F8141CC3F8D0
:10486800002C0020FEF762FCFFF7F2FB30B1FFF7E7
:10487800DDFCFFF7EDFB08B1FFF7BCFCFFF7DEFB43
:10488800174B50B140F2E372C3F800284022C3F836
:104898000428BFF36F8FBFF34F8F00218022C3F826
:1048A8001C25C3F83015104B40F2FF121A600F4B4D
:1048B8001960FFF737FC0E4B19700E4B02221A7065
:1048C800FFF7C6FB50B1BDE80840FFF7AFBCC3F81F
:1048D800142C9CE70022C3F8142CC2E708BD00BFC3
:1048E8000070024000E00640382D0020C82C00204F
:1048F800602E00205B2C00200C4B00221A700C4A02
:104908000C4B002818BF13460B4AC2F804330B4B54
:10491800C02183F82713802159600123C2F8043588
:10492800BFF36F8FBFF34F8F704700BF592C002024
:104938000714E0010714C0010070024000E100E024
:10494800024B1878003818BF012070475B2C0020F4
:10495800034B1878012894BF00200120704700BF3E
:104968005B2C002010B50020FEF7DEFB134B1B78F4
:1049780003F0FF04BBB1124AD2F82C35DBB1002397
:10498800C2F82C35FFF75AFB68B10E4BD3F8001C60
:10499800C02269B949F27531C3F8001CC3F8142C58
:1049A800C3F8001C04460020FEF7C0FB204610BDDB
:1049B800C3F8142CF6E71C46F5E700BF592C002075
:1049C8000070024000E00640024B034AC3F8082387
:1049D800704700BF0070024004148001024B034A74
:1049E800C3F80423704700BF00700240041480011C
:1049F800014B00221A707047592C002008B5FFF7A8
:104A080079FB818108BD000073B51D4B1C78002C13
:104A180033D11C4A106001221A702546264615F02B
:104A2800080F65F07F00C0B20CBF40214FF4007141
:104A38000190FFF7E3FF0198FFF75CFB0135092DB3
:104A4800867306608660EAD1402100252046FFF77C
:104A5800D5FF2046FFF74EFB0134E4B2092C8573DD
:104A68000560856002D1002002B070BD14F0080F07
:104A780014BF4FF400714021E8E70820F4E700BFB5
:104A88005B2C00205C2E002008B5FFF733FB8089E3
:104A980008BD0000064A10F0800F00F00F0314BF95
:104AA800D2F81005D2F81405D84000F0010070477C
:104AB800007002402DE9F047804600208A46FEF744
:104AC80033FB18F00F0503D1294B1B7843454AD116
:104AD800284B294F1C683E684046FFF719FBE44302
:104AE800A4B24FF00109344309FA00F914EA0904A1
:104AF8003BD14046FFF7FEFA0C2218F0800F034620
:104B080002FB05F52BD01D4ADAF80010154401F018
:104B18006041DAF80820B1F1005F02F0010219D112
:104B2800B2B9174A1A609AE8070085E80700002218
:104B38009A609A735D60134B46EA090680223E60CC
:104B4800C3F804210020FEF7F1FA2046BDE8F087FB
:104B58000D4AE7E70AB90D4AE4E70D4AE2E70D4ACC
:104B680015440D4ADEE71024ECE71124EAE700BFFC
:104B7800602E0020382D0020C82C0020CC2C0020CE
:104B8800AF400E0000E100E0D1400E0085410E006C
:104B9800BD410E005C2C002081400E002DE9F04143
:104BA800074600200E46FEF7BFFA3B0703D1174B16
:104BB8001B78BB4225D1164B16491C680D68384630
:104BC800FFF7A6FAE443A4B201232C4303FA00F842
:104BD80014EA080417D13846FFF78CFA33680360E3
:104BE800736843600C4B846045EA0805802284732F
:104BF8000D60C3F804210020FEF798FA2046BDE8AE
:104C0800F0811024F7E71124F5E700BF602E00209B
:104C1800382D0020C82C002000E100E00048704733
:104C2800642E0020044B40F48070C3F81805BFF3CD
:104C38006F8FBFF34F8F704700700240FFF7D0B9F6
:104C4800064BC3F80C05BFF34F8F40F48070C3F8D0
:104C58000C05BFF36F8FBFF34F8F70470070024092
:104C680010B508220021044603F0F1FD0E4BD3F8DD
:104C780080242270D3F884246270D3F88824D3F86F
:104C88008C1442EA01226280D3F89024D3F8941459
:104C980042EA0122A280D3F89824D3F89C3442EA4D
:104CA8000323E38010BD00BF00700240034B0122C4
:104CB800DA64BFF36F8FBFF34F8F70470070024005
:104CC80013B5FFF72FFA114B9A7B032A07D1104827
:104CD8006FF4803102B0BDE81040FFF759B81C6886
:104CE8007CB96FF480310A48FFF752F806238DF833
:104CF8000430084BADF806401B6801A8984702B07D
:104D080010BD02B0BDE81040FFF7D0BF3C2D002019
:104D1800C82C00205C2E0020034B01221A65BFF32B
:104D28006F8FBFF34F8F704700700240034B012213
:104D38005A65BFF36F8FBFF34F8F70470070024003
:104D4800014B1878704700BF602E002010B504464C
:104D58000020FEF7E9F92046FFF7DAF90D490122AC
:104D68000B6802FA00F023EA000314F008020B6053
:104D78000AD104F00F04084B04F5947443F8242076
:104D8800BFF36F8FBFF34F8FBDE810400020FEF7D1
:104D9800CDB900BF382D002000700240F7B5044699
:104DA8000020FEF7C1F92046FFF7A4F90546204682
:104DB800FFF7AEF9012214F0800F02FA00F22D4835
:104DC80018D1036832EA03010AD02046FFF7BEFF74
:104DD8000323AB73002003B0BDE8F040FEF7A6B98B
:104DE80023EA020329600360234B186820EA0200C3
:104DF8001860EDE7230715D4802C204B2ED004F043
:104E08000F0101F2DA314900C3F80018D3F8041889
:104E1800D3F80468C9B241F002013143C3F8041859
:104E2800D3F80438144E0168336861EA030717425F
:104E3800D0D0134321EA02013360002301602B60C4
:104E48000323AB738DF807300D4B8DF8064006220F
:104E58001B688DF8042001A89847BBE740F2B4719D
:104E6800C3F80018D3F80418D3F80468C9B241F09D
:104E78000401D2E7C82C0020382D00200070024021
:104E88005C2E0020FFF78ABF73B5184B184CD3F877
:104E980080542368174EDA43174B31781B6892B257
:104EA80008461A43FFF734F9012303FA00F01042C9
:104EB80002D00846FFF772FF6FF0011105F0800578
:104EC8000D483570FEF764FF236843F00103236043
:104ED8000023ADF805308DF8073005238DF8043030
:104EE800064B01A81B68984702B070BD00700240CD
:104EF800382D0020602E0020C82C00205C2E0020B9
:104F08001C4BD3F8041300232DE9F04101241D465E
:104F180071B9194F03F4000623F400044FF0010897
:104F2800D4B9FFF7B5FA1EB3BDE8F041FFF7ACBF3F
:104F380091FAA1F21148B2FA82F29600304404FACA
:104F480002F206682EB10560BFF36F8FBFF34F8F73
:104F5800134321EA0201DBE794FAA4F5B5FA85F5D3
:104F680057F8253008FA05F5984724EA0504D7E7E5
:104F7800BDE8F0810070024098910E000071024077
:104F8800F8B5134E134B34681B68240C24041C43D7
:104F980001271CB940F2FF133360F8BD94FAA4F559
:104FA80085B1B5FA85F30F2B1D460DDDA5F110006F
:104FB800C0B2030701D4FFF7F1FE07FA05F524EAAA
:104FC8000504E6E72025F1E743F08000F1E700BF9C
:104FD800382D0020C82C002038B50E4C8025C4F888
:104FE800845163681B0613D5FFF7CAFF0A4B0022DA
:104FF800C3F80425BFF36F8FBFF34F8FC4F88450F5
:10500800BFF34F8FBFF36F8F4FF0FF32C3F8082302
:1050180038BD00BF00E100E00070024008B5FFF7AE
:10502800DBFF094BD3F80423C3F808230022C3F895
:105038000025BFF36F8FBFF34F8FFFF773F8034B54
:1050480001221A7008BD00BF007002405B2C0020CE
:1050580010B50020FEF768F80E4B1B7803F0FF042C
:105068002BB900240020FEF761F8204610BDFFF799
:1050780087FF094AD2F8003413F40073F1D10121F3
:10508800C2F82C15D2F80014890544BFC2F82C3593
:105098001C46E7E7592C00200070024010B5044672
:1050A800FFF77CFE134A04F00F0064B2002C4FF0A7
:1050B8000103B4BFD2F81015D2F8141503FA00F39F
:1050C8006FEA0303B5BF0B400B40C2F81035C2F8B6
:1050D8001435BFF36F8FBFF34F8F074A074B13EA9F
:1050E800240338BF13461A5C01239340014AC2F8CF
:1050F800083310BD007002407A910E005F910E00D7
:1051080038B5254A254B45B2002DA8BF134600F0F7
:105118000F010446585C224A4FF0010303FA00F0DD
:10512800C2F804032ADAD2F81005C840C00731D4FF
:10513800D2F810058B400343C2F81035BFF36F8FC8
:10514800BFF34F8F31B3002D24DB14F0080521D1B4
:105158002846FDF7E9FF2046FFF7F8FD2046FEF751
:10516800D7FF104901220B6802FA00F023EA000376
:105178000B602846BDE83840FDF7D8BFD2F81405C3
:10518800C840C00706D4D2F814058B400343C2F8C0
:105198001435D3E738BD00BF7A910E005F910E0039
:1051A80000700240C82C0020030610B5044605D440
:1051B800FEF716FF10B12046FFF7C8FD034BC3F8F2
:1051C8001845BFF36F8FBFF34F8F10BD00700240BB
:1051D80028B139B10023C1E900301846704748F2B8
:1051E8001050704748F21350704730B1036848F2C6
:1051F80040508B4208BF0020704748F2105070475B
:1052080028B148F21150914208BF0020704748F277
:105218001050704770B506460C461D46FFF7D8FF7C
:1052280050B9B3794AB1AB420AD111462046FBF7CF
:105238009DFE08B9044B236070BD48F21050FBE78F
:1052480048F21150F8E700BF7052464D2DE9F0437F
:1052580083B00D4602AF04461149D7F8208028468E
:1052680016469946FFF7C1FF98B96B68796A5A796B
:1052780040465200FFF7C4FF58B976B10CB9AAB03E
:1052880002ACCDF800804B46324629462046FBF753
:105298007DFE0437BD46BDE8F08348F21050F8E7BC
:1052A8007052464D10B5044638B149B10B6841609B
:1052B800984708B9044B236010BD48F20150FBE73A
:1052C80048F21050F8E700BF6E524648F0B4134653
:1052D80048B10768094EB7420AD161B12AB143689B
:1052E800F0BC5B68184748F201531846F0BC704799
:1052F80048F20253F9E748F21053F6E76E5246486F
:10530800F0B460B107680C4EB7420CD171B1436874
:105318001568DC68A5420CD3F0BC9B68184748F2B6
:105328000150F0BC704748F20250FAE748F21350B7
:10533800F7E748F21450F4E76E524648F7B50446CA
:10534800DDE9086715460193FFF7ACFF68B9019AD4
:1053580029462046FFF7BAFF38B93A463146204673
:1053680003B0BDE8F040FFF7CBBF03B0F0BD0000CD
:10537800F8B50A4F0A4C0B4EE41B0123E4083370BE
:105388000025A54203D1022333700020F8BD57F849
:10539800353098470028F9D10135F2E7548F0E00CF
:1053A8005C8F0E00A42E002001390144814200D2F6
:1053B800704703780A7800F8012B01F80139F5E7FE
:1053C800013A02440139824200D2704711F8013F84
:1053D80002F80139F7E770B516460D46FFF7F0FFFA
:1053E8003246A9193044BDE87040FFF7E9BF38B527
:1053F8000D460446FFF7D8FF29466019BDE8384036
:10540800FFF7D2BFBFF34F8F0549064BCA6802F4B6
:10541800E0621343CB60BFF34F8F00BFFDE700BFCF
:1054280000ED00E00400FA0530B52E4D297887B06C
:10543800044641B92C4A2D48FCF738F808B1FFF763
:10544800E1FF01232B70072C14D8DFE804F0153591
:10545800401313041304FEF733F80028EFD124484F
:10546800FCF75FF80028EAD14FF48040FEF722F8F5
:105478000028E4D107B030BD0120FBF7A7F84FF0B2
:105488008043D3F81824D2035CBF01229A60FBF74B
:10549800DBFF0028D3D1174D0FCD01AC0FC42B680B
:1054A800236042F26663CDE9023301A8FF238DF839
:1054B8000530FDF7B5FFD5E741F23330FEF706F8C2
:1054C80041F2333007B0BDE83040FEF705B8FDF7CC
:1054D800F7FF0028B3D1064A40F266611046FBF791
:1054E800F7FFC5E7A52E002001550E0050920E00CB
:1054F800500000203C920E0008B5024640F266615A
:10550800FBF7E6FF08B1FFF77DFFBDE80840012083
:10551800FBF742B808B5FFF775FF000008B500F0C3
:105528004DFB4FF48051002000F024F908B1FFF73B
:1055380069FF0548C0F57E2100F01CF90028F6D166
:10554800024800F053F8F2E700000E0031540E0054
:10555800014B01221A707047C8320020BFF34F8FE9
:105568000549064BCA6802F4E0621343CB60BFF3F7
:105578004F8F00BFFDE700BF00ED00E00400FA0513
:10558800024B034800221A7001F018B8C8320020F4
:1055980065550E00042810B5044609D8022811D80C
:1055A80015D00D4B1B68ABB12046BDE8104018471D
:1055B800831F012BF5D8094B094800221A7000F007
:1055C800FDFFEEE70749002000F0D6F9E9E700F013
:1055D80041FFE6E710BD00BFCC320020C8320020F2
:1055E80065550E0089550E00002070474B4B70B56D
:1055F8001860002000F0F8FF0446002840F0898079
:1056080000F086FA01287FD0022800F08480002864
:105618007FD14FF08043D3F80024D0031AD54FF43C
:105628008032C3F8002426463D4D2B6A012B2DD12C
:105638004FF440535A683B4B9A421AD001F058F83D
:10564800AA690146002E4AD0374801F011FB00280C
:1056580049D11BE0D3F8202502F0F902A92A06D186
:10566800D3F8202502F05602C3F82025DBE70126EF
:10567800DAE76A6B1EB995F86032012BDED02B4849
:105688004FF4805101F0F4FA0028D7D100F0DAFA8B
:10569800274A20211820FBF793FD08B1FFF73AFFAE
:1056A8004FF08043D3F80024D20742BFD3F8002438
:1056B80042F00102C3F80024FFF796FF48BB2046DA
:1056C8001C4900F059F91C4800F016FC08BB00F012
:1056D800DFFAFBF7FBFD20BF40BF20BFF7E795F8D7
:1056E800A132012BB0D14FF08043D3F80034D90751
:1056F800CCD400F086FF60B9104B1870104800F049
:105708005DFF00F021F804E00C4B0E481C7000F01F
:1057180055FF032070BD4FF4A024B7E7CC3200201A
:10572800F0390020DBE5B151913C0020503C0020CD
:10573800A82E002089550E009D550E00C832002065
:1057480059550E0065550E0008B5074B4FF0FF324E
:10575800C3F88020C3F8802100F029FCBDE8084088
:105768004FF4805000F028B800E100E080F308888A
:105778000847000070B50546C1F30B00A8B9B5F598
:105788007F2F12D80B4E3268072A10D8130103F165
:10579800804404F5F0340132C4F80058C4F8041801
:1057A8000221C4F80818326070BD0720FCE7042005
:1057B800FAE700BFD032002010B504461448C0F5FF
:1057C8008011FFF7D7FF08B1FFF7A4FE00F090FFA4
:1057D800104B9B6903F6FF7323F47F6323F00F03D9
:1057E80019180020FFF7C6FF08B1FFF793FEEFF383
:1057F80005830023D4E9000183F3148883F3108818
:1058080083F3118883F31388BDE81040FFF7AEBF18
:1058180000000E00F03900201FB518490B7853BB63
:105828004FF08043A024D3F81824D2035CBF012290
:105838009A60134B0022C3F80021D3F800010390AB
:105848000398C3F84021D3F8400102900298C3F8A6
:105858004421D3F84401019001980A4880F8244370
:10586800102444600220C3F8082501229A601A60B7
:10587800C3F804030A7004B010BD00BFD83200207A
:105888000040024000E100E037B56FF07F42154C60
:10589800057BD4F804358A4228BF0A46891A13447E
:1058A8004A1E942A23F07F4305F5A8729BBF963BB6
:1058B80096314160416044F822300B4B4FF4F86058
:1058C80043F001039847094BAA00134400221A60C9
:1058D8001B680193019B4FF48033AB40C4F8043339
:1058E80003B030BD0040024060920E0040410240CB
:1058F8001C4BD3F804212DE9F34152B11A490A6827
:1059080001320A600022C3F80421D3F8043100935D
:10591800009B164C164DDFF84C80164E00272B685E
:1059280073B12F602B68227B0193019B4FF4803366
:105938009340C8F80833616851B12046FFF7A4FFC7
:105948000435B54204F11004E9D102B0BDE8F08194
:10595800A16811B12046FFF797FF2368002BEFD00D
:105968009847EDE700400240D43200207000002044
:10597800404102404841024070B50B4B1D682A7BEC
:105988004FF480339340094A0E46C2F80833044660
:1059980040B1FFF741FF2E6021462846BDE8704020
:1059A800FFF772BF70BD00BF9000002000400240AA
:1059B80070B5074B1D6804460E46A860FFF72CFF1C
:1059C8002E6021462846BDE87040FFF75DBF00BF46
:1059D80094000020014B01221A707047D932002030
:1059E8002DE9F74F06468846A8EB06052D0B02F66B
:1059F800FF77144600F026F9082D28BF08252B0349
:105A0800DFF868B001933F0B0CB9234629E0BD428B
:105A18002CBFBA46AA464FF000025146304634BF62
:105A2800DDF80490A14600F099FA0346C8B909F1D7
:105A3800030222F003024146304600F081FA034691
:105A480078B9DBF830304B44CBF8303000F0BCFD8F
:105A5800A7EB0A07A4EB09044E44C84403460028F0
:105A6800D2D0184603B0BDE8F08F00BFF03900204F
:105A780010B500F063FE124A916C01F500535C68A2
:105A8800104B9C4218D1D2E90C32934216D088426E
:105A980004D1BDE81040002000F096BDD21A02F6ED
:105AA800FF7222F47F6222F00F0219441844FFF7B4
:105AB80097FF0028EDD010BD0320FCE70020FAE78F
:105AC800F0390020DBE5B15138B50F4BDA6A5D6A71
