:020000022000DC
:1070000000000420757302005D7302005F730200CC
:1070100061730200637302006573020000000000E8
:107020000000000000000000000000006773020084
:1070300069730200000000006B7302006D730200B0
:10704000319502006F7302005D970200D9A502001E
:107050006F7302006F730200E1950200F5A8020051
:107060006F7302006F7302006F7302006F73020090
:107070006F7302006F7302006F7302006F73020080
:107080006F730200C98602006F7302006F73020003
:107090006F7302006F730200C5D602006F730200A7
:1070A0006F7302006F7302006F7302006F73020050
:1070B0006F7302006F730200000000000000000008
:1070C0006F7302006F7302006F7302006F73020030
:1070D0006F7302006F7302006F7302006F73020020
:1070E0006F7302006F7302006F73020000000000F4
:1070F000000000006F730200000000006F730200C8
:10710000000000000000000000000000000000007F
:10711000000000000000000000000000000000006F
:10712000000000000000000000000000000000005F
:10713000000000000000000000000000000000004F
:10714000000000000000000000000000000000003F
:10715000000000000000000000000000000000002F
:10716000000000000000000000000000000000001F
:10717000000000000000000000000000000000000F
:1071800000000000000000000000000000000000FF
:1071900000000000000000000000000000000000EF
:1071A00000000000000000000000000000000000DF
:1071B00000000000000000000000000000000000CF
:1071C00000000000000000000000000000000000BF
:1071D00000000000000000000000000000000000AF
:1071E000000000000000000000000000000000009F
:1071F000000000000000000000000000000000008F
:10720000354936480A1A02D0072291438D4634493F
:1072100034480A1A06D00722914381F309880222D2
:1072200082F3148830483149314A00F044F831483B
:107230003149324A00F03FF831483249324A00F0D1
:107240003AF832483249334A00F035F83248334987
:10725000334A00F030F833483349344A00F02BF811
:1072600033483449344A00F026F83448344900227F
:1072700000F02CF833483449002200F027F8334856
:107280003349091A082902DB002202604160314AB1
:1072900090471F481F49884205D00268043003B454
:1072A000904703BCF7E700208646EC46002000210B
:1072B000294A9047FEE7884207D0521A05D0037842
:1072C00001300B700131013AF9D17047884202D088
:1072D00002700130FAE770470000042000E003204C
:1072E000000004200000042040070300E82A0020DA
:1072F000082C0020D0730200D0730200F0F60200C8
:1073000040070300E82A0020E82A002004F80200D1
:1073100004F8020004F8020004F8020004F8020075
:1073200004F8020004F8020004F802004007030019
:1073300060080300082C0020082C0020082C0020E6
:107340007C4300207C4300208443002084430020B1
:10735000846300209D730200E1BA0200FEE7FEE7AD
:10736000FEE7FEE7FEE7FEE7FEE7FEE7FEE7FEE7F5
:1073700000F002B8FFF7FCBF0F484FF00701884349
:1073800085460E4880470E48016841F4700101604F
:10739000BFF34F8FBFF36F8FFFF732BF09480A4922
:1073A0000A4A884207D0521A05D0037801300B7080
:1073B0000131013AF9D1704700000420BD8F02006D
:1073C00088ED00E004F80200E82A0020E82A002006
:1073D00000487047744300207047000007B5044B15
:1073E0000093044A402300F032F803B05DF804FB38
:1073F000F9730200092C00202DE9F8438846144651
:10740000B2B10F4B0F4E0325002743F0010922466E
:1074100008EB0701002004F049FE0744241A48B98C
:1074200033782BB14FF47A40C847013D02D1357013
:10743000BDE8F88301233370002CE8D1F8E700BFE2
:1074400010F80200082C0020704704F05FBEF0B571
:1074500095B01D46164608460C4601F0DBFC1A9B0B
:107460000D93CDE9086500252B46082205A9204685
:107470000A958DF82C500C9501F0E8FC079B0293BF
:10748000069B03939DF814308DF8115003F003020E
:10749000012A1DD1BDF81420059DC3F3C203C2F318
:1074A00083168DF81030B20008230EA9204601F093
:1074B000CDFCC5F3952508AB0093324602AB0EA96F
:1074C000284600F033FB204601F0A8FC15B0F0BDC3
:1074D000022AF8D1BDF81650C3F3C203C5F38915CB
:1074E0008DF810300827082D2E4628BF08263B4669
:1074F00032460EA9204601F0A9FCAD1B08AB02AA3A
:1075000031460EA8374400F075FB002DEBD1DAE7C9
:1075100008B5FFF79AFF0448042100F071FA034B05
:1075200001225A7108BD00BFF4F70200E82A0020CA
:10753000037813F0040216D003F00303012B03D0E9
:10754000022B09D0012070470A6800880232C0F37C
:10755000831002440A60F5E70B684288023303EBAC
:1075600092130B60EEE71046704700002DE9F04FD4
:10757000DFF81CA187B00F4600230446861C0DF1DE
:10758000070015468DF8073000F030FFDAF80420C8
:107590003A60DAF8083003F580739B1A0AF21C4748
:1075A0000AF583690AF21448B3421AD30020002D69
:1075B00069D004F00F039B0143F0050363F30F0050
:1075C000DAF80430DAB2033233444AF822009DF884
:1075D0000700CAF8043000F02DFF012007B0BDE815
:1075E000F08F0121384601F04CF9484601F061F96D
:1075F000404601F05EF9DAF808000290C0B20330AC
:107600000AEB800002A9FFF793FF029B30BBDAB2BE
:107610000AEB8202D16803919A1C0133DBB20AEBB8
:1076200083030292D3F80CB001F00303012B22D0A4
:10763000022B15D08346404601F03EF910B1029B63
:10764000CAF808305946384601F01BF9DAF8083014
:10765000DAF8042003F580739B1AA5E7D8B2CEE7C9
:10766000BDF80E30C3F3891303334FEA1B4B02EB13
:1076700093030293DFE7BDF80C30C3F383134FEAA3
:107680001B4B1344F5E7A40544F0060098E700BF40
:107690001C2D0020064B074810B500221A7001F07F
:1076A00072FB044610B9044801F0F0FB204610BDFF
:1076B0001C2D002050F702004CF8020030B50A4C97
:1076C00071B10A4A0A49121BD20800239A4201D119
:1076D000002030BD31F82350854202D00133F5E758
:1076E000034654F83300F4E764F70200F4F70200AD
:1076F000E82A0020094B013903EBC000032909D80F
:10770000DFE801F00A0204060420704700797047A0
:1077100040797047002070470220704764F70200EC
:1077200070470000034BD3E90130C31A5842584157
:10773000704700BF1C2D00202DE9F04186B0FFF7F7
:10774000F1FF0546002840F0ED80774CC4F818049E
:10775000BFF34F8FA3680293DBB2033304EB8300C4
:1077600002A9FFF7E5FE029B18B1D4F81824002AFD
:107770005AD0DAB2991C013304EB8202DBB204EB7B
:107780008303D268DB68049302F00303022B0392A5
:10779000029154D1BDF80E306448C3F38917502FBD
:1077A0003E4628BF502606F1080166F38F13C1F349
:1077B0000901ADF80E3001F0FEFA0546002800F090
:1077C0009C8001F027FB0023082203A9284601F032
:1077D00033FB0299CB43DBB20133C9B20331B6EBC1
:1077E000830F4FEA830204EB810125D95FFA82F807
:1077F0000823A6EB0806284601F01EFBF6B208F1A6
:1078000008034B4903F0FC033246284601F014FB01
:10781000029B033703EB97070297D4F81834002B29
:1078200043D1D4F8106453E062689A4294D8A260BD
:10783000284606B0BDE8F08108233246E5E7012B73
:107840005BD1BDF80C303948C3F38311062928BF3A
:10785000062161F38913023101F00F018900ADF8AF
:107860000C3001F0A8FA0546002846D001F0D2FA03
:107870000023082203A9284601F0DEFA0026BDF8FD
:107880000C20C2F38312B300964203F10803C4D262
:1078900002994A1CC9B20331029204EB810104220D
:1078A000284601F0C9FA0136E9E7284601F0B6FAA0
:1078B000FFF738FF80F00100C5B2B9E7F3685B79E4
:1078C00023B1336829461B6830469847F3681E6821
:1078D000002EF3D1284601F0A1FA0DF107008DF832
:1078E000076000F083FDD4F818340BB9029BA36045
:1078F0009DF8070000F09EFDDAE7D4F8104454B973
:107900000C4B0D480D49C01AC008000440F002009D
:1079100000F05EF8CCE7236820469B689847E36850
:107920001C68ECE7002583E71C2D002050F70200BF
:10793000282D002064F702009CF7020034F80200B2
:107940002DE9F34704460E46924601A90122184646
:107950009946FFF70BFE1C4F10B3019D4FF0000836
:10796000AA1CC84508EB020125D11848002100F0E7
:1079700059FF80F31000000440EA1440E4006B1C3F
:1079800004F03804DBB2EDB244F0010407EB8303EA
:10799000033544EA881444EA8624D86047F8254031
:1079A0003B781BB1FFF7C8FE0028FBD1FFF7B8FEFC
:1079B00002B0BDE8F087C9B207EB81015AF8283060
:1079C000CB6008F10108CCE71C2D002038310020E5
:1079D00000231A46FFF7B4BF07B50123019201AA9D
:1079E000FFF7AEFF03B05DF804FB07B5CDE9002358
:1079F00002236A46FFF7A4FF03B05DF804FB000012
:107A000030B50F4CD4F8102403460020114631B98C
:107A1000D96808714AB9C4F810340A6030BDC96821
:107A20000D79854206D00968F1E7D26814680C60C8
:107A30001360F3E701300A28E8D14FF0FF30EDE79B
:107A40001C2D002038B5084B0125D3F810441D70BB
:107A500004B938BDE3685D71236820465B689847C8
:107A6000E3681C68F4E700BF1C2D002030B5C38814
:107A700085B004460D4633B1144A00921449154AA4
:107A8000284600F07CFF217A05291DD0637A4BB18E
:107A9000A088FFF72FFE104B104953F820202846EE
:107AA00000F06DFF227A0E4BA08853F8222003923B
:107AB0000021FFF703FE039A0A490346284605B052
:107AC000BDE8304000F05BBF05B030BD78F8020083
:107AD00060F8020058F80200E4F80200F2FF020029
:107AE00008F902007DF8020007B503460846197A36
:107AF000052911D05B7A2BB1094A0A49019000F09F
:107B00003EFF01980849019000F039FF019803B049
:107B10005DF804EB00F028BF002AF8D0F2E700BFC0
:107B200078F80200F2FF020075F802002DE9F04338
:107B300085B01F460C9D002395F80C902B730646CC
:107B40000C46904629463846FFF790FFB8F1060FDD
:107B500009D8DFE808F00412181F28334000314626
:107B6000284600F00CFF002229463846FFF7BCFFEC
:107B700085F80C9005B0BDE8F083226831462846B0
:107B800000F0FDFEEFE7D4E900233146284600F07F
:107B9000F6FEE8E7A36800933146D4E900232846BF
:107BA00000F0EDFEDFE7E3680193A3680093314640
:107BB000D4E90023284600F0E2FED4E723690293CB
:107BC000E3680193A36800933146D4E90023284673
:107BD00000F0D5FEC7E76369039323690293E36866
:107BE0000193A36800933146D4E90023284600F0AE
:107BF000C6FEB8E708292DE9F74F80460E4617461E
:107C00001C463DD800251B7B257321461046019359
:107C1000FFF72CFFDFF88CA0DFF88CB0AE4232D932
:107C200018F805205946204600F0A9FE0135082D18
:107C3000F4D11B49DFF874A0DFF874B0204600F0DF
:107C40009EFE4FF000094E4524D918F809507E2DAC
:107C50001ED8284606F0D8FF002814BF2A462E2238
:107C60005946204600F08BFE09F10109B9F1080FD1
:107C7000E9D1012221463846FFF736FF019B2373E5
:107C800003B0BDE8F08F5146204600F078FECDE706
:107C90002E22E5E75146204600F071FEE4E700BFE2
:107CA00091F802008DF8020087F802008FF80200B8
:107CB00093F802001FB50021039001AA44F20100CD
:107CC000CDE9011100F004F805B05DF804FB0000F7
:107CD00038B572B6FFF7B6FEFFF72EFD0028FBD1D0
:107CE000104B114C114D1249E41AE408240444F0DD
:107CF0000100FFF76DFED5F8F030DB0700D500BEC0
:107D00000C4944F00200FFF763FEBFF34F8FEA68AF
:107D1000094B02F4E0621343EB60BFF34F8F00BFE7
:107D2000FDE700BF64F702009CF7020000ED00E0F1
:107D300027F9020033F902000400FA0549B152B1F3
:107D4000531E1A4007D1826001608380C2601046D2
:107D500070470E2070470920704710B58468C268CC
:107D60008388121B934208D3C26813400268D1541F
:107D7000C3680133C360002010BD0420FCE78268A3
:107D8000C3689A420AD08268838813400268D35C31
:107D90000B708368013383600020704705207047B3
:107DA00010B5D0E90243D1E90202A04272EB03030D
:107DB0002CBF0120002010BD08B50A4800F06DFC62
:107DC000094AD2E90031C018084BD3E9002341F138
:107DD0000001904271EB030303D210F1807041F176
:107DE000000108BDF02A0020D831002050320020C8
:107DF00037B505460C460A4801A900F082FC60B17F
:107E00000570446001A9064800F0A5FC18B10548BA
:107E100000F048FC002003B030BD0420FBE700BFA9
:107E20003C320020F02A0020294B73B51E7804460E
:107E30001EB90026304602B070BD0028F9D0FFF709
:107E4000BBFFD4E902239042994139D300230DF1BD
:107E500007008DF8073000F0C9FA23692BB94FF0FD
:107E6000FF324FF0FF33C4E902239DF8070000F012
:107E7000E1FAD4E90530984700250DF107008DF8A7
:107E8000075000F0B3FA2369C3B1D4E90212B2F18A
:107E9000FF3F08BFB1F1FF3F05D05B1842F1000280
:107EA000C4E9023235469DF8070000F0C3FA002D00
:107EB000BFD00848214601F008F8BBE71D46F2E7AD
:107EC000B3F1FF3F08BFB2F1FF3FB2D0F1E700BF0F
:107ED000E031002050F9020013B5114B1149186828
:107EE000019008231048582200F0F8FB044698B986
:107EF0000E4A0F4801A900F0C1FA044660B90C48C7
:107F0000012100F0ADFB01230A4A0948194600F09F
:107F10000FFB094B01221A70204602B010BD00BFB2
:107F20004AF90200E43100203C32002019800200AE
:107F3000F02A0020FFFF7F00E031002030B56AB159
:107F400003684FF0FF344FF0FF355A614A1E51422B
:107F5000C3E9024551411961002030BD0720FCE70B
:107F6000F7B5044600250DF1070017460E468DF8BB
:107F7000075000F03BFAD4E90223B3F1FF3F08BFFA
:107F8000B2F1FF3F07D1FFF717FF301841F10001B1
:107F9000C4E9020101259DF8070000F04BFA55B134
:107FA0002369A76103B126612146002003B0BDE823
:107FB000F040FFF71DBF284603B0F0BD37B50546BA
:107FC00000240DF107008DF8074000F00FFAD5E905
:107FD0000223B3F1FF3F08BFB2F1FF3F1FBF4FF0D5
:107FE000FF324FF0FF33C5E9022301249DF807005B
:107FF00000F020FA34B12946012003B0BDE830403A
:10800000FFF7F6BE204603B030BD0000014800F087
:1080100044BB00BFF02A00202DE9F743064600F0DC
:1080200027FB40B1624AD2E9003113F1807341F17C
:108030000001C2E900310021304600F028FB38B1D0
:108040005C4C236823B12068FFF7EEFE0023236019
:108050000121304600F01BFB20B1FFF7ADFE564B6F
:10806000C3E900015548534C01A900F084FB4FF0CF
:10807000FF384FF0FF39A0B9DFF844814D4D40463D
:1080800000F039FF002800F08580D0E90223B3F129
:10809000FF3F08BFB2F1FF3F32D1404600F025FF5D
:1080A000EDE70378012B20D0022B08D1444D284660
:1080B00000F01BFF002877D0C0E90289F7E75BB921
:1080C0004168D1E90223B3F1FF3F08BFB2F1FF3F9E
:1080D00002D03B4800F0F9FE01A9384800F076FBD9
:1080E00001A9364800F047FBC5E74168236899427B
:1080F00002D100232360EFE7314800F0FFFEEBE7F9
:10810000296891B12968D1E9020182428B412FD2BD
:108110002B68D3E90223B3F1FF3F08BFB2F1FF3F61
:1081200003D02968404600F0D0FE404600F0DDFE56
:10813000D0E902490746FFF73FFE201A69EB010923
:10814000012879F1000318DBB0F5350F13D3FFF7E1
:108150005DFF1C4A02441C484FF49603002100F0C6
:1081600007FA90B92B6813B9304600F0D9F92F609F
:1081700003B0BDE8F0832246EDE71348002100F08C
:108180007CFA3846FFF750FE01E00D28F9D00023B5
:108190002B6074E7074B1B68002BE9D1304603B016
:1081A000BDE8F04300F0C0B9084B01221A7093E714
:1081B000D831002058320020503200203C320020BC
:1081C00050F90200FFFFB400F02A0020E031002047
:1081D0000648074A03780749D35C012213B10430EB
:1081E00001F052BF0C3001F0FBBC00BFF82A0020A8
:1081F000D4320020843200200648074A0378074919
:10820000D35C012213B1043001F0F0BE0C3001F058
:1082100097BC00BFF82A0020D4320020853200200D
:1082200037B50578012D0DD0022D30D075B91F4915
:108230001F48FFF7A4FD002834D103B0BDE830404B
:10824000FFF7DABF037A1BB9FFF7C2FF03B030BDF7
:108250004368184C19782046FFF77FFD80B18DF8F0
:1082600000500190144B68461B689847A168E3686A
:10827000A2885B1A9A42E7D2104B01221A70E5E7F6
:10828000A268E3689A42F1D08DF80000EAE7C3687B
:108290008DF800500193FFF79BFF074B68461B6862
:1082A0009847D3E703238DF80030F6E785320020A6
:1082B00074320020603200205C32002070320020D6
:1082C000F0B51F46234B89B004461A600D460029BD
:1082D0003DD08A8820480968FFF730FD002834D156
:1082E000AA89A9681D48FFF729FD00282DD11C4E39
:1082F0000FCE6D460FC596E80F0085E80F00636945
:108300000693237C174A18488DF81C70003B18BF51
:1083100001238DF81430637C002B14BF0E2300233F
:108320008DF81530E3680293A368039323680193E3
:1083300069466368009301F083F830B90B4B1870FD
:108340002368013301D0FFF743FF09B0F0BD0720D8
:10835000FBE700BF5C320020603200207432002056
:108360005CF9020021820200F82A0020703200200D
:1083700070B5084D014608482E78FFF700FD044609
:1083800036B100232B70FFF723FF08B1FFF792FCF3
:10839000204670BD703200206032002010B50146CA
:1083A0000E48FFF7DAFC0446A8B90D480D4A0378D9
:1083B000D35C63B1043001F00DFE60B90A4907488F
:1083C000FFF7DDFC38B9BDE81040FFF715BF0C30F2
:1083D00001F0AAFBF1E7204610BD00BF7432002077
:1083E000F82A0020D43200208532002070B5EFF347
:1083F000108672B60C4A946801239CB993600B4BAB
:108400000B4DD3F8801029401160C3F88050D3F889
:10841000841051604FF0FF32C3F88420047006B915
:1084200062B670BD0370FAE78832002000E100E018
:10843000FC06FFBD084B9A6810B55AB150B9EFF36E
:10844000108172B6054A1C6814605C6854609860BC
:1084500001B962B610BD00BF8832002000E100E023
:10846000435882B03BB10023435043580193019BD2
:10847000012002B070471846FBE70000F8B5204B1A
:108480004479204E43F824201F4A204B06EBC404B5
:108490009B1A2279DB081B0432B143F002001C490D
:1084A000FFF796FA0820F8BD02680C88C2F8084564
:1084B00090F904508A7804795201002DD2B219DB68
:1084C00014494F1987F8002301226D0904F01F0495
:1084D00002FA04F441F82540427906EBC201012476
:1084E00046F832000C7143F003000B49FFF770FAB5
:1084F0000020D8E7094904F00F040A55ECE700BF53
:108500009C3200209432002064F70200ACF7020095
:108510007CF9020000E100E09EF9020014ED00E0A9
:10852000036801221A607047036801225A6070478D
:1085300073B501F15005AD000068ADB24FF4803461
:108540008C400026C0F80843C0F84843465101F566
:10855000A8714559019522F07F42019D40F82120E4
:10856000C0F844430BB1C0F8044302B070BD000032
:108570002DE9F74F0D4622F07F4402684FF4803713
:1085800005F150068F408046B60002EB8500C2F828
:108590004873B6B2C2F80873D2F8041599464FF082
:1085A000000BD0F84035C0F8401542F806B05B1A11
:1085B0009259009223F07F43012B009A4FEA850ADB
:1085C0000CD1264B4FF4806043F001039847D8F854
:1085D000003043F806B09B590193019BD8F8001076
:1085E000D1F80465C1F84473A31B23F07F43012B2A
:1085F0001CD11A4B05F5A875013443F0010341F86D
:1086000025404FF480609847D8F80030D3F80435FF
:108610009E4209D1D8F800300020C3F84473C3F853
:10862000047303B0BDE8F08F0D20FAE78A44C9F166
:10863000FF13CAF84045D1F80405221A013A22F086
:108640007F4203F57F439342EED3002AE2D1013407
:10865000CAF84045D1F804359842DAE7B0F902008B
:1086600003680222C3F8442309B1C3F80423704706
:1086700000684FF48271FFF7F3BE4FF4803303FAC2
:1086800001F10368C3F84813C3F808137047503169
:108690008900006889B2FFF7E3BE0368D3F80405D8
:1086A0007047000090F90430002B09DB5A090121C2
:1086B00003F01F0301FA03F34032024941F822306C
:1086C000704700BF00E100E0024B034A1B681068DE
:1086D000184700BF9C3200209432002010B561B1D1
:1086E000B2FBF3F403FB1424A4B244B9C0E90014B0
:1086F00084608281C381204610BD0E20FCE70920E2
:10870000FAE737B550E8013F9DB2C4892544848912
:10871000A54228BF2D1B0489A54202BFBFF32F8F9E
:10872000002207E0C5EA030540E80154002CE9D126
:108730004FF001028DF803200193019A0A609DF821
:10874000031001F0FF0321B1006810FA82F003B0BA
:1087500030BD1846FBE70A884B889A4209D150E899
:10876000012FC2EA024240E80123002BF7D1012089
:1087700070470020704737B550E8023F1FFAA3F555
:10878000C488A54202BFBFF32F8F00220DE0C48929
:1087900025448489A54228BF2D1BC3EA054540E82E
:1087A0000254002CE8D14FF001028DF80320019310
:1087B000019A0A609DF8031001F0FF0321B10068DF
:1087C00000EB124003B030BD1846FBE70A884B8827
:1087D0009A4209D150E8022FC2EA224240E802231D
:1087E000002BF7D1012070470020704701F01F02D5
:1087F0004B090121914000EB830000F01EB801F00D
:108800001F0301229A404B0900EB8300D14300F083
:108810002CB84B0901F01F0150F82300C84000F0AC
:108820000100704710B5034653E8000F0A4643E8BD
:10883000002494F0000FF7D110BD10B5034653E8A3
:10884000002F42EA010043E8000494F0000FF6D143
:1088500010BD10B5034653E8000F00EA010243E8DB
:10886000002494F0000FF6D110BD10B5034653E874
:10887000002F02EA010043E8000494F0000FF6D153
:1088800010BD10B5034653E8002F02EB010043E88A
:10889000000494F0000FF6D110BD10B5034653E864
:1088A000002FA2EB010043E8000494F0000FF6D182
:1088B00010BD0121FFF7C1BF0021FFF7CABF10B5EE
:1088C00090B1D0E9012301689B1ADBB20A60013B39
:1088D000DBB2FF2B026802D10020107110BD1168BD
:1088E0004C1C14600B70F2E70E20F7E737B5054615
:1088F00000240DF107008DF80740FFF777FD2A6887
:108900006B68116899420ED9481E106011F8013C3D
:10891000EC68298A01FB0344AB6811791B1ADBB2AE
:10892000994238BF13719DF80700FFF783FD204679
:1089300003B030BD37B5054600230DF107000C46E6
:108940008DF80730FFF752FD2A681368591C116033
:10895000E968641A298AB4FBF1F41C709DF80700D9
:10896000FFF768FD03B030BD826810B504462AB138
:1089700043690168006998470023A36010BD0EB4E5
:1089800003B5039921B104AB01AA019300F06EF87D
:1089900002B05DF804EB03B07047826830B404683D
:1089A000551C8560A154D0E901329A4202D330BCF3
:1089B000FFF7DABF30BC70472DE9F84F9846DDE984
:1089C0000A43154682460F460A464FF00109AA425D
:1089D0000FD2C14538BFC14613F0010B01D16CB9AC
:1089E00000240126B8F1010F1BD908F1FF386E43AE
:1089F000F8E709F10109B2FBF5F2E8E79B070ED5AC
:108A0000B8F1000F0CBF30262026A145E9D2013C69
:108A100031465046FFF7C1FF002CF6D1E0E7202693
:108A2000F3E7B7FBF6F39D42E1D9DFF83C80B7FBF3
:108A3000F6F3504618F8031006FB1377FFF7ADFF67
:108A40003346AB42B6FBF5F6F1D2BBF1000F02D0D4
:108A50000CB1A14501D3BDE8F88F20215046013C5F
:108A6000FFF79BFFF4E700BFB6F902002DE9F74FCF
:108A7000054617468846002900F03E8118F8011B7C
:108A800049B92B7B002B00F03781284603B0BDE8A5
:108A9000F04FFFF769BF252940F0B780002698F80E
:108AA00000302D2B424608F1010823D0302B24D072
:108AB0002B2B25D000242A2B02F1010123D13B6866
:108AC0001A1D1B683A601C440A4613782E2B26D1C7
:108AD00001324FF0000A104610F8011BA1F1300CD2
:108AE000BCF1090F1DD80A2303FB0A13A3F1300AB6
:108AF0000246F0E746F00106D1E746F00206CEE76F
:108B000046F00406CBE711F8013CA3F13000092838
:108B1000DBD80A2202FB0434303C0A46CBE74FF094
:108B2000000A12F8011B01F0FB0068289046F8D0FB
:108B3000782909D86F290CD8632962D022D8252931
:108B400063D0582900F0888098F80030002B95D128
:108B500097E770390829F7D801A353F821F000BF2F
:108B6000D38C0200498B0200498B0200698C020001
:108B7000498B0200478C0200498B0200498B02009E
:108B8000598C0200642901D06929DDD13A68D2F8F4
:108B90000090111D89EAE9723960A2EBE9724FF089
:108BA000010B092A35DCD34538BFD3462CB1B9F1C6
:108BB000000F01DB720700D5013CB30702D5BAF103
:108BC000000F03D0F00701D44CBB0024B9F1000F13
:108BD0002DDAC9F100092D212846FFF7DEFE06F047
:108BE0000302022A04D1BAF1000F01D11CBB0024F8
:108BF000CDE9004653460A2249462846FFF7DCFEE7
:108C0000A2E73B681A1D19783A602846FFF7C5FEAF
:108C10009AE70A230BF1010BB2FBF3F2C1E7A3457C
:108C2000D4D220212846013CFFF7B7FECCE77107DC
:108C3000D5D52B21D0E7A345DAD230212846013CF7
:108C4000FFF7ABFED2E73968CDE900460A1D3A606E
:108C500053460A220968D0E739680A1D3A60CDE90F
:108C6000004653461022F5E73B681A1D3A6016F09D
:108C70000106D3F8009024D1B9F1000F03D0484683
:108C800006F004FA0646B4421DD809F1FF3919F876
:108C9000011F00293FF458AF2846FFF77EFEF6E794
:108CA00028460136FFF779FE19F806100029F7D19A
:108CB000A642BFF449AF20212846013CFFF76DFED4
:108CC000F6E70026F0E720212846013CFFF765FE85
:108CD000D9E73B681A1D3A60302128461C68FFF727
:108CE0005CFE78212846FFF758FE00220823CDE9D4
:108CF00000322146102280E703B0BDE8F08F00BFAC
:108D00002DE9F84FB0F806A04579D2F800B09DF8EB
:108D100028900AFB05F5043D88460BEB0301A942A8
:108D200003F1040488BFA5EB030BB4FBFAF6074676
:108D30000AFB1644C2F800B04EB9AAEB04055D4523
:108D400028BF5D46BBF1000F04D1BDE8F88F3F6836
:108D5000013EF1E7043408EB06003C442A46B9F131
:108D6000000F0DD02146ABEB050B06F011F9DA45EB
:108D70002E443F6855464FF0000428BF5D46E1E7AA
:108D800001462046EFE7FFF79ABDF8B54679014660
:108D9000721E0546002393422D6803D30024A64289
:108DA00002D8F8BD0133F6E70F682846FFF7C2FD89
:108DB00001343946F3E72DE9F843068ACD1C07460E
:108DC000FFF794FD043E35440446B5FBF6F5F0B1DB
:108DD0004FF48073EDB28380C680013D0760814609
:108DE0004FF00008A84512D23846FFF77FFD06462F
:108DF00048B163790133637108F10108C9F80000D3
:108E000007608146EEE72046FFF7BFFF3446204665
:108E1000BDE8F88301210430FFF733BD10B501210F
:108E200004460430FFF739FDC0B220B92046BDE842
:108E30001040FFF7AABF10BD1FB503920022009299
:108E400003AAFFF75DFF05B05DF804FB1FB50392B1
:108E50000122009203AAFFF753FF05B05DF804FB5F
:108E6000064B10B500241C70054B1C60BFF35F8FD0
:108E70000449054800F013F8204610BDA832002030
:108E8000AC320020D0F90200A0320020836800221A
:108E90005A60C3E904229A60DA601A6070470B686E
:108EA0004A684360934208BF0023016008BF4360E3
:108EB0007047436843B10268916852680B4493421B
:108EC000436004BF00234360704770B544680646A2
:108ED0000D46206818B1B3682946984718B9236829
:108EE0002B60256070BD2468F3E74368186808B1FB
:108EF00002681A60704743681868704743681868CA
:108F000000B97047884203D102681A600120704797
:108F100003460068F4E7000010B50D49A1F594720E
:108F2000914201D800200FE08C1AE30F03EBE40319
:108F30005B1002EBC30452F83330834205D802D2EF
:108F400004F10802ECE7606810BD2146E8E700BFC5
:108F5000DCFE020008B5FFF7DFFF024B002808BF68
:108F6000184608BD9FFD020010B50446C0B2FFF7C9
:108F700015FA204610BD4FF08053D3F83001A0F110
:108F800008035842584170474FF08053D3F83021BE
:108F9000082A06D1D3F83431052B02D8024AD05C16
:108FA00070470020704700BFE2FE0200024AD2F87C
:108FB0000034002BFBD0704700E0014010B5FFF7F4
:108FC000DAFF40B14FF080430022C3F80C21C3F810
:108FD0001021C3F83825FFF7CEFF002846D04FF008
:108FE0008052654BD2F80414C3F82015D2F8081447
:108FF000C3F82415D2F80C14C3F82815D2F81014AD
:10900000C3F82C15D2F81414C3F83015D2F818147C
:10901000C3F83415D2F81C14C3F84015D2F8201444
:10902000C3F84415D2F82414C3F84815D2F828140C
:10903000C3F84C15D2F82C14C3F85015D2F83014DC
:10904000C3F85415D2F83414C3F86015D2F83814A4
:10905000C3F86415D2F83C14C3F86815D2F840146C
:10906000C3F86C15D2F84424C3F87025FFF78CFFC1
:1090700018B1424B424AC3F88C26FFF785FF18B15E
:10908000404BFB22C3F81825FFF77EFF70B14FF06D
:1090900080414FF08053D1F8E42ED3F8583222F0BB
:1090A0000F0203F00F031343C1F8E43EFFF76CFF18
:1090B00020B1354B4FF40072C3F84026FFF75BFF39
:1090C00048B14FF08043D3F80024D20744BF6FF07B
:1090D0000102C3F800242D4AD2F8883043F470030B
:1090E000C2F88830BFF34F8FBFF36F8F4FF08053BC
:1090F000D3F83021082A0ED1D3F83431052B02D809
:10910000234AD35C3BB14FF01023D3F808224FF031
:109110008043C3F858254FF01023D3F80022002ACB
:1091200003DBD3F80432002B22DA1A4901234FF073
:109130001020C1F804351224FFF738FFC0F80042B0
:10914000FFF734FFC0F80442FFF730FF0023C1F8F7
:109150000435FFF72BFFBFF34F8F0C490E4BCA6846
:1091600002F4E0621343CB60BFF34F8F00BFFDE713
:109170000A4B0B4A1A6010BD00C00040005000406E
:109180004881030000F000400090024000ED00E044
:10919000DCFE020000E001400400FA050C2B002078
:1091A0000090D003074B1B5C1F2B8ABF064A4FF071
:1091B000A04203F01F03D2F80405D840C04300F0DA
:1091C00001007047ECFE020000030050074B1B5CDF
:1091D0001F2B86BF064903F01F034FF0A041012259
:1091E00002FA03F3C1F80C35704700BFECFE020031
:1091F00000030050074B1B5C1F2B86BF064903F082
:109200001F034FF0A041012202FA03F3C1F8083511
:10921000704700BFECFE02000003005008B50020BC
:10922000FFF7E8FF0120FFF7E5FF0220FFF7E2FF6D
:10923000BDE808400320FFF7DDBF08B50020FFF7B9
:10924000C5FF0120FFF7C2FF0220FFF7BFFFBDE807
:1092500008400320FFF7BABF0A4B185C1F288ABFDB
:10926000094B4FF0A04300F01F00D3F80425012163
:10927000814021EA02000A40C3F80805C3F80C2522
:10928000704700BFECFE020000030050014B185C69
:10929000704700BFE8FE020038B5074C051E04F118
:1092A000080318BF1C4623682BB11A6822605B684C
:1092B00028469847F7E738BDB832002020B9054B5B
:1092C00001225A70FFF7E8BF012802D1014A9070CD
:1092D000F8E77047B032002020B9034B01225A70E2
:1092E000FFF7DABF704700BFB032002038B50E4C30
:1092F0002378B3B90D486360A3602361E36000F095
:10930000E7F8054604F0C4F908B900F0EDF80123C8
:109310002370074BD3F800340BB10123A370284608
:1093200038BD8525F5E700BFB0320020BD920200B0
:109330000000014037B50D4C00230DF107008DF8FA
:109340000730FFF753F8E368013BE360E36833B9A4
:10935000074BD3F8005415B900F0D8F8A5709DF864
:109360000700FFF767F803B030BD00BFB032002040
:1093700000000140012813B50CD0032820D038B9D3
:10938000134B0122C3F88020BFF34F8FBFF36F8FC1
:1093900002B010BD0F4C00230DF107008DF807300F
:1093A000FFF724F823780BB9FFF7A0FFE3689DF8D7
:1093B00007000133E3600123A370FFF73BF8E7E701
:1093C00000F092F802B0BDE81040FFF7B3BF00BF55
:1093D00000E100E0B03200201FB503788DF80030C6
:1093E0004368019383688DF80830C368054A039386
:1093F000054B684653F8213052F82110984705B0C4
:109400005DF804FBC4320020CC3200201FB5037885
:109410008DF800304368019383688DF80830C36885
:10942000054A0393054B684653F8213052F8211042
:10943000984705B05DF804FBC4320020CC32002010
:10944000F0B5194B90F800C0DFF86CE043F82C2021
:10945000164B16460A6943F82C204B7F0EF80C3049
:109460000C4607460FCC89B06D460FC594E80F0037
:1094700085E80F003B78CDF810C01EF803304BB1E3
:10948000002E0B4A694608BF3246381D00F0C6FC64
:1094900009B0F0BD002E074A694608BF324607F101
:1094A0000C0000F071FAF3E7CC320020C432002047
:1094B000D99302000D940200D432002000F18040C4
:1094C000002382B0036003680193019B02B07047E0
:1094D000044A137923B9012110609180184670471E
:1094E00085207047D8320020074B1A68D20704D471
:1094F000C02283F8002301221A604FF0804301222A
:10950000C3F81825704700BF00E100E04FF080422B
:1095100008B50223C2F808334FF48270FFF7CEFF7C
:109520000123D360D2F81834DB03FBD408BD00005C
:109530004FF0804110B5D1F8003163B14FF4807025
:10954000FFF7BCFF0D4B58790122C1F8082310B971
:109550005A711B6898474FF08042D2F8043163B1CA
:109560004FF48270FFF7AAFF0223C2F80833034BBF
:10957000BDE810401B680120184710BDD8320020FC
:1095800000F1804000F5C040002382B00360036812
:109590000193019B02B0704703681F2B83BF03F048
:1095A0001F03036001484FF0A040704700030050C4
:1095B00007B5019001A8FFF7EFFF019B00EB8300C7
:1095C000D0F8003723F44033C0F80037D0F8003724
:1095D00043EA0141C0F8001703B05DF804FB000046
:1095E0002DE9FF470024CDE90244584D4FF4807225
:1095F000012102F1804303F5C04390B21B68012BA7
:1096000006D1D5F804330B4202D0FFF7B9FF0C4363
:109610000432B2F5907F4FEA4101EAD14B4BD3F8C7
:109620007C31012B11D14FF4BE70FFF7A9FF4FF031
:10963000A04344F00044D3F820250292C3F820252B
:10964000D3F820280392C3F82028E3B2D3B1404FC7
:1096500000250126344210D0AB0003F1804303F50E
:10966000C043D3F81005D3F8101557F8253023B1AF
:10967000C1F30141C0F3052098470135082D4FEA99
:109680004606E7D1002C59DA314D324C324E4FF0BC
:109690000008012716F9013B5A1C3CD0C3F3C20154
:1096A000103169445FFA83F911F8081C03F03F0296
:1096B00003F0070307FA03F319422CD001A8019223
:1096C000FFF76AFF019B03F5E07350F82330C3F303
:1096D000014ABAF1020F0CBF032102211046FFF725
:1096E00067FF01A80192FFF757FF019B07FA03F3F9
:1096F000C0F82035AB1893F9303055F8233053B10A
:109700004FEA9911032904D0BAF1020F19D10129A6
:1097100001D11046984708F10108B8F1040FB9D1FA
:109720004FF0A043D3F820250292C3F82025D4F8A7
:1097300020350393C4F820351343A7D104B0BDE806
:10974000F087BAF1030FE6D10229E1E7006000409B
:10975000E03200200003005040330020014B1B6822
:10976000184700BF4C3300200E4B984237B50C46CB
:1097700002D0002003B030BD00230DF107008DF8AA
:109780000730FEF733FE084B1D7915B901221C6026
:109790001A719DF80700FEF74DFE002DE9D011204B
:1097A000E8E700BF002000404C3300200023435076
:1097B00082B043580193019B02B070470A4610B52E
:1097C0004FF48E71FFF7F2FF136A9168C95C136A58
:1097D00001331362C0F81C1510BD024608B50068BD
:1097E0004FF49271FFF7E2FF10684FF48471FFF7B6
:1097F000DDFF136801221A6008BD8B690A4610B5A7
:109800004FF4847123B9FFF7D1FFD0F8183510BD9C
:10981000FFF7CCFF536AD168D0F81805C854536AD3
:1098200001335362F3E700001FB501238DF80030C8
:10983000044BCDE90110D3E900126846904705B00A
:109840005DF804FB5433002030B54D4DD5F804339A
:109850009A0585B051D5D5F82431002B4DD04FF461
:1098600092712846FFF7A2FF4FF40173C5F8083341
:10987000444B93F829200AB901226A604049022228
:109880008DF80020D1F88024C1F8802403929A69D1
:109890000292DA6801920022C3E906226846D3E9FF
:1098A000001290473648D0F81C315BB1354A5169F7
:1098B000136A99424DD992F82830002B49D11146AC
:1098C000FFF77CFF2E48D0F84431002B56D04FF4E0
:1098D000A271FFF76BFF2B4B93F829200AB10122ED
:1098E00002609A69002A49D0586AD96800229A61B0
:1098F00005B0BDE83040FFF797BFD5F804335B07EC
:10990000D0D5D5F80831002BCCD01E4C1C482146B0
:10991000FFF773FF636AA2699A42C3D1E369E16802
:109920004BB1A3612369E3600023606AE361636272
:10993000FFF77AFFB6E794F829300BB901236B6083
:109940000F4B4FF40172C3F808230023606AA36130
:10995000EEE70B484FF48E71FFF728FF5369002B99
:10996000B0D051690291002391688DF800300191C7
:1099700053616846D2E900139847A3E705B030BDAC
:1099800000200040543300202DE9F843604D90F84A
:1099900004802C2303FB0853064693F82A300C4618
:1099A0009146002B40F0AF805A490068FFF7DCFE7B
:1099B0000746002840F0A9802268531C10D01F2AB7
:1099C00087BF554902F01F0313464FF0A041012005
:1099D000984003F5E073C1F80805032041F823001F
:1099E0006168481C0DD01F298BBF01F01F030B4677
:1099F00049484FF0A04003F5E0734FF0000C40F8E9
:109A000023C03068A369C0F8243594F814C0637D7E
:109A1000BCF1010F4CEA0303C0F86C35C0F8141513
:109A2000C0F80C252BD1A368591C0DD01F2B8BBF60
:109A300003F01F021A4638494FF0A04102F5E072C8
:109A40004FF0000C41F822C0E1684A1C13D01F29D6
:109A500087BF314A01F01F0C8C464FF0A0424FF0F7
:109A6000010E0EFA0CFE0CF5E07CC2F808E54FF092
:109A7000030E42F82CE0C0F80815C0F810352C226F
:109A800002FB08F2AB18C3F804902369AB50B9F19C
:109A9000000F20D04FF48E71247FFFF787FE4FF424
:109AA000A2713068FFF782FE32681C4BC2F80433A3
:109AB000130B42F307326101002AC9B21EDB1848BA
:109AC000841884F800130121520903F01F0301FADE
:109AD00003F340F8223033680422C3F800252C2316
:109AE00003FB08530022C3E9062283F829205A61A8
:109AF000012283F82A203846BDE8F883094A03F09A
:109B00000F03D154E7E70827F5E71127F3E700BF74
:109B100054330020499802000003005080000200E6
:109B200000E100E014ED00E00279044B2C2101FB80
:109B300002335869003818BF0120704754330020A1
:109B40002DE9F84F064690F8048089469246FFF7C3
:109B5000EBFF044600283CD1204F2C2508FB057B59
:109B60004FF48E71CBF814A0CBF80890CBF82000FE
:109B70008BF828003068FFF719FE306801238360F6
:109B80005946FFF71BFEDBF804305D461BBB30680F
:109B9000DBF814402B6A9C4211D83368D3F81C219F
:109BA000002AFBD00122DA6000202C2303FB087777
:109BB00000237B61BDE8F88F95F828303BB9D0F8D9
:109BC0001C31002BF8D05946FFF7F8FDE2E70F20D3
:109BD000EBE71120EEE72046ECE700BF543300200E
:109BE0002DE9F0473A4D07792C2303FB075306462E
:109BF0005C6824B103684FF40170C3F808032C2398
:109C000003FB0753986950B1D869002841D024B1AB
:109C100033684FF40172C3F80423112436E09A61CB
:109C2000D9605862D8612C2303FB075393F829307D
:109C30001BB910B93046FFF7D0FD4FF02C0808FBD8
:109C4000075A3068DAF80430002B37D14FF4A2718C
:109C5000D046FFF7ABFD3068D0F82491D0F808313A
:109C6000D0F84441CBB914B9B9F1000FF3D02C238B
:109C700003FB07550023AB61B9F1000F24D12CBBC6
:109C800095F8291033680122B1B11A602046BDE869
:109C9000F0871961DA610120C5E7B9F1000FE6D15B
:109CA000002CE4D14146FFF7A8FDDAF82430DAF8B9
:109CB00018209A42CFD8DAE75A60E7E74FF40173E9
:109CC000C0F804330024E1E70324DFE70F24DDE7D5
:109CD000543300200023435082B043580193019B2A
:109CE00002B070471FB501238DF80030044BCDE959
:109CF0000110D3E900126846904705B05DF804FBF7
:109D0000803300207FB5434AD2F82461002E60D012
:109D100010464FF49271FFF7DDFF02238DF80030FB
:109D2000D2F88034C2F880340393D2F83C350293E1
:109D3000394BDA6801920022C3E906226846D3E96A
:109D4000001290473348D0F8443173B14FF4A271F8
:109D5000FFF7C0FF304B9A693AB10022C3E90622EF
:109D6000D968D0F83C05FFF7BDFF2A48D0F820316C
:109D7000ABB14FF49071FFF7ADFF0123C360264BE9
:109D80005A6962B1D0F84C150291002299688DF899
:109D9000002001915A616846D3E9001290471D489E
:109DA000D0F858319BB14FF4AC71FFF793FF1A4BC9
:109DB0005A6962B1D0F84C150291002299688DF869
:109DC000002001915A616846D3E90012904704B01F
:109DD00070BDD2F81031002BB4D04FF4887110460A
:109DE000FFF778FF0C4BD2F83C0599698842A9D15E
:109DF000DC69D96864B1D2F8005225F02005C2F8B8
:109E000000521A699C61DA60DE61FFF76BFF99E727
:109E10009C61FAE700200040803300202DE9F843E0
:109E2000664E90F80480242303FB0863044693F8ED
:109E300020300D469146002B40F0BC806049006800
:109E4000FFF792FC0746002840F0B68029684B1CBB
:109E500010D01F2987BF5B4A01F01F030B464FF04C
:109E6000A0420120984003F5E073C2F808050320E2
:109E700042F823006A68501C0DD01F2A8BBF02F0E5
:109E80001F0313464F484FF0A04003F5E0734FF017
:109E9000000C40F823C02068AB69C0F8243595F861
:109EA00014C06B7DBCF1010F4CEA0303C0F86C35A4
:109EB000C0F80C15C0F814252BD1AB68591C0DD077
:109EC0001F2B8BBF03F01F021A463E494FF0A041E3
:109ED00002F5E0724FF0000C41F822C0E9684A1C1C
:109EE00013D01F2987BF374A01F01F0C8C464FF053
:109EF000A0424FF0010E0EFA0CFE0CF5E07CC2F809
:109F000008E54FF0030E42F82CE0C0F80815C0F841
:109F10001035242202FB08F2B318C3F804902B6911
:109F2000B350B9F1000F2FD04FF488712A7FFFF79B
:109F3000D1FE20684FF49071FFF7CCFE20684FF4FB
:109F40009271FFF7C7FE20684FF4A271FFF7C2FEBF
:109F50004FF4AC712068FFF7BDFE23681A49C3F8BF
:109F60000413190B43F307335201002BD2B21CDB4D
:109F70001648C51885F8002301225B0901F01F016E
:109F800002FA01F140F8231023680822C3F80025E3
:109F9000242303FB08660023C6E90633736101230B
:109FA00086F820303846BDE8F883094B01F00F01F0
:109FB0005A54E9E70827F5E71127F3E78033002033
:109FC000059D0200000300501003420000E100E084
:109FD00014ED00E00279044B242101FB023358699F
:109FE000003818BF012070478033002001F0604323
:109FF000B3F1005F2DE9F0470646884692463BD113
:10A0000090F80490FFF7E6FF0446002836D11D4F74
:10A010003068242505FB09754FF49071C5F814A02C
:10A02000C5F80880FFF756FE4FF4AC713068FFF7B3
:10A0300051FE33686A69A968C3F84415C3F8482516
:10A0400001229A606A68DAB9D3F82021D3F858015E
:10A050001AB90028F8D00F2007E00028FBD1012210
:10A06000DA60D3F85821002AFBD0242303FB0977B8
:10A0700000237B61BDE8F0871020FBE71120F9E7A2
:10A080002046F7E780330020F8B501F06043B3F1D4
:10A09000005F04460F465ED10379304D242101FB59
:10A0A0000351496821B100684FF40476C0F8086391
:10A0B000242000FB03539E6956B1D869002839D08B
:10A0C00021B123684FF40472C3F80423112030E057
:10A0D0009A61DF60DE6120684FF48871FFF7FAFD56
:10A0E00020684FF4A271FFF7F5FD2368C3F83475BB
:10A0F000C3F8382516BB01221A602479242202FBFA
:10A10000045252680ABBD3F81011D3F84421D3F893
:10A110002401114302D10028F5D00A46242303FB71
:10A1200004550023984218BF03209A42AB6118BF20
:10A130000F20F8BD1F61DA610126CCE7D3F80022B9
:10A1400042F02002C3F80022D7E74FF40472C3F8AC
:10A1500004230020EDE71020EBE700BF8033002050
:10A160001FB503788DF800308388ADF8043083681C
:10A170008DF80630C3688DF8073003690293436990
:10A18000054A0393054B684653F8213052F82110D5
:10A19000984705B05DF804FBA4330020AC330020E1
:10A1A000024B4FF4807043F00103184720FF020078
:10A1B0001F2886BF054A00F01F004FF0A042012370
:10A1C00003FA00F0C2F80805704700BF0003005012
:10A1D0002DE9F047154690F80080394A42F828509A
:10A1E000384A42F828304B7B06460C46A3B3086831
:10A1F000DFF8D8904FF0A04100F5E07340F20C6218
:10A2000041F82320636803F5E073002741F8232019
:10A21000FFF7CEFF6068FFF7CBFF236803F5E0731D
:10A2200040F20D6241F82320636803F5E0734FF0BC
:10A23000010A41F82320FFF7B3FF63681F2B8ABF91
:10A240004A464FF0A04203F01F03D2F8102522FA2D
:10A2500003F3DB070BD507BB002D1B4A434608BFA2
:10A260002A462146301DBDE8F04700F013BA2368A6
:10A270001F2B86BF03F01F034A464FF0A0420AFA85
:10A2800003F3C2F80C35FFF78BFF01372068FFF7A7
:10A290008FFFFFF785FF092FCFD163681F2B86BF84
:10A2A0000A4903F01F034FF0A041012202FA03F311
:10A2B000C1F80C35FFF774FF6068FFF779FFCBE753
:10A2C000AC330020A433002061A102000003005041
:10A2D0000023435082B043580193019B02B0704762
:10A2E0008B6A4A6B9A4210B54FF0010305D2496A56
:10A2F0008A5CC0F81C251A4604E091F82C201AB19B
:10A30000C3610022104610BD0C6A640603D5C36108
:10A3100081F82D30F6E74361EDE770B5D0F80461C0
:10A3200005460C4626B14FF48271FFF7D1FF012696
:10A3300094F82F2022B34FF492712846FFF7C8FFFC
:10A340004FF48E71FFF7C4FF4FF48471FFF7C0FF25
:10A35000002E69D094F82F20002384F82D3092BB72
:10A36000A36A616B99421CBF1646052386F001065D
:10A370001CBFC5F80025C5F8003584F82F6023E020
:10A38000D5F824314BB14FF492712846FFF7A0FF66
:10A3900001236B6184F82F30DAE7D5F81C31ABB1BB
:10A3A0004FF48E712846FFF793FF636B01336363AD
:10A3B000D5F8243113B14FF49271E7E72146FFF746
:10A3C0008FFF0028C4D10022104670BDD5F8083197
:10A3D000002BBDD04FF484712846FFF779FFD5F8E4
:10A3E0002431002BE7D1636BA16A8B42B0D2616A42
:10A3F000D5F81805C854636BA16A0133481E83421F
:10A40000636308D1206A400610D40223C5F80032E5
:10A4100001232B629CE78B42FAD1236A5B0697D516
:10A42000022384F82D30CFE70122CDE78B42EFD114
:10A43000F6E7000037B5314B01930D464FF48271BA
:10A44000FFF746FF4FF49271FFF742FF4FF48E7112
:10A45000FFF73EFF4FF48471FFF73AFF0023C0F887
:10A4600000326B6385F82F300123036295F82D20AD
:10A470009A4218BF836029460446FFF731FF2B68D4
:10A4800083B140F28623AB60AB68C4F8043300208C
:10A4900003B030BD29462046FFF73FFF28B1019B9E
:10A4A000013B0193019B002BF4DC95F82F0050B980
:10A4B000019B002BECDC0023C4F800350523C4F815
:10A4C00000350320E4E7D4F8C434C4F8C43493B1AD
:10A4D00013F0010F14BF4FF40240032048F2012291
:10A4E00013F0020F18BF104613F0040F48F20223B6
:10A4F00018BF1846DCE70320DAE700BFA08601009A
:10A5000037B5344B01930D464FF48271FFF7E0FEEF
:10A510004FF49271FFF7DCFE4FF48E71FFF7D8FE17
:10A520004FF48471FFF7D4FE00236B6385F82F305E
:10A53000AB6A012B044617D12B6A5B0614D40223A5
:10A54000C4F800320123236295F82D20022A18BF97
:10A5500023602B6893B140F28623AB60AB68C4F8EC
:10A560000433002003B030BD0123E9E7294620462B
:10A57000FFF7D3FE28B1019B013B0193019B002B08
:10A58000F4DC95F82F0050B9019B002BEADC002386
:10A59000C4F800350523C4F800350320E2E7D4F8F9
:10A5A000C434C4F8C43493B113F0010F14BF4FF492
:10A5B0000240032048F2012213F0020F18BF104698
:10A5C00013F0040F48F2022318BF1846DCE70320FB
:10A5D000DAE700BFA0860100F0B52B4C2B4887B00E
:10A5E0002146FFF79AFE002840D194F82F70D4F846
:10A5F00020C0FFB9237B9A1E012A1BD8616AA26979
:10A60000914217D1E2696262CCF3401C62691F4833
:10A61000A262032B84F82CC084F82D70214604D14B
:10A6200007B0BDE8F040FFF705BF07B0BDE8F04058
:10A63000FFF766BF164E0FCE01AD0FC533682B6016
:10A64000FFB1124AD2F8C434C2F8C43499070FD506
:10A6500001238DF8003000231CF0040F84F8303003
:10A6600000D01FB1D4E900316846984707B0F0BD6B
:10A670005A0701D50223ECE7DB074CBF0323042371
:10A68000E7E78DF80070E6E7B433002000300040C3
:10A69000C03300202DE9F84F07793A4E4FF03C0ABD
:10A6A0000AFB07FA06EB0A059B4695F82E30804612
:10A6B0000C469146002B61D133490068FFF754F8EE
:10A6C00000285DD12168637B85F838301F298CBF55
:10A6D00001F01F030B4603F5E07388BF2B4AA86007
:10A6E00098BF4FF0A04240F20C6C85F8300042F861
:10A6F00023C06268C5F804B01F2A8CBF02F01F0394
:10A70000134685F82D0085F8310003F5E07388BF06
:10A710001E4D46F80A9098BF4FF0A04545F823C05B
:10A72000D8F80030C3F80815C3F80C25A268C3F8A0
:10A730002425B9F1000F14D0227B43F307315201D5
:10A740000029C3F30733D2B213DB114C651885F827
:10A7500000230122490903F01F0302FA03F344F81E
:10A7600021303C2303FB0766012386F82E30BDE829
:10A77000F88F084903F00F03CA54F2E70820F6E700
:10A780001120F4E7B4330020D9A5020000030050E3
:10A7900000E100E014ED00E0036802790521C3F850
:10A7A0000015044B3C2101FB0233022283F82E20CA
:10A7B000704700BFB43300202DE9F047314F0479D2
:10A7C000D0F800903C2303FB04730D4693F82D3022
:10A7D000012B944604D10B78012B06D1082011E0FF
:10A7E000022B02D10B78012BF8D13C26264BC9F85D
:10A7F000083306FB047696F830302BB1B368C9F8FD
:10A8000004331120BDE8F0878CF00403C3F3800308
:10A8100086F83030C6F820C0A846B8E80F0006F128
:10A820000C0EAEE80F00D8F80030CEF800306B68A0
:10A83000B362EB6873626B78C9F888352B78C4EB28
:10A84000041A012B07EB8A0A17D09BB9CCF3401CE2
:10A850003C2303FB0473514683F82CC04846FFF7A2
:10A86000E9FD3C235C433A193B59002BCAD182F8DD
:10A870003030C7E74FF0010CEAE751464846FFF792
:10A880003FFEEEE7B43300208642040010B586B0E8
:10A890000024CDE902349DF820308DF80510A34244
:10A8A000CDE9042401A914BF202222468DF80440DA
:10A8B000FFF782FF06B010BD10B586B001240293E9
:10A8C0000023CDE903328DF805101A4601A98DF851
:10A8D00004400593FFF770FF06B010BD00F1804003
:10A8E00000F5E040002382B0036003680193019B00
:10A8F00002B07047F0B5524B524CD3F8043185B0DA
:10A90000002B3DD094F82E204FF48270FFF7E6FF25
:10A910002AB394F82F3013BB494AD2F80031002BE8
:10A9200032D04FF48070FFF7D9FF638B94F82D007D
:10A93000834250D921891B1A9BB289B26383CB1AF7
:10A94000616801EB4303C2F82C36C2F830064FF4BD
:10A950008270FFF7C3FF3A4B01225A6014E063682C
:10A9600002932389ADF80C30E36800218DF80410C0
:10A9700033BB2374236801A89847002384F82F3041
:10A9800094F82E30002BC7D12D4BD3F810315BB18A
:10A990004FF48870FFF7A2FF0023237402238DF881
:10A9A000043001A823689847254BD3F81431EBB144
:10A9B0004FF48A70FFF792FF0023237405B0F0BDB7
:10A9C000208B608363602081E160002AD2D11C4B20
:10A9D00001221A60CEE7BAD1E368012184F82F1072
:10A9E00013B100216183AEE76383B0E766694FF07E
:10A9F00000470125002EE1D0B6FA86F227FA02F3CD
:10AA00004632920026EA030602F1804303F5E04352
:10AA10001B68002BEED01046A2F58C72FFF75EFF8C
:10AA2000D30882F00402C2F380028DF808308DF85A
:10AA3000045023688DF8092001A89847DAE700BF81
:10AA400000700040F033002038B5204A92F82C30D6
:10AA50000446002B37D111601D490078C1F8F0057C
:10AA60006078C1F8F4050125E078137482F82D3080
:10AA7000536182F82F306FF0004382F82E0082F885
:10AA80002C504FF48270C1F80833FFF727FF4FF4C2
:10AA90008070FFF723FF4FF48A70FFF71FFFA37842
:10AAA0000C485B01DBB280F807338023036002238C
:10AAB000C1F8043392F82E300BB1C1F80453C1F839
:10AAC0000055002038BD0820FCE700BFF03300200F
:10AAD0000070004000E100E030B5224B1A7C002AF3
:10AAE0003ED100F10C0403EB4402127922B993F831
:10AAF0002D20013283F82D2003EB4403CA790C7A10
:10AB00008D781A715C714B782D021B0105F4E0659C
:10AB100003F030032B430D7805F003052B43CD786C
:10AB20002D0305F480552B430D792D0405F4E02504
:10AB30002B434D7989792D0505F48015090601F01F
:10AB400080712B430B43010101F1804101F5E0418C
:10AB50000020C1F81835C1F81445C1F8102530BDE2
:10AB60001120FCE7F033002070B5264A264B05463D
:10AB70001220C2F808031C7C022C03D1C2F8040383
:10AB8000112070BD187C01281CD1D86818B102238F
:10AB9000C2F80433F4E7DD60198393F82E305BB913
:10ABA000D2F80031002BFBD04FF48070FFF796FEF7
:10ABB000C2F82C56C2F83016124B0222C3F80423F6
:10ABC0000020DEE7022093F82E40C2F8040301269D
:10ABD00000201E745D601981D8603CB1598393F8E0
:10ABE0002D30C2F82C56C2F83036CAE7C2F82C56BF
:10ABF0004FF48070C2F83016FFF770FE16602046E2
:10AC0000BFE700BF00700040F0330020074B197C05
:10AC10000129CAB208D193F82E00054B10B11A6071
:10AC2000002070475A60704708207047F0330020BA
:10AC3000007000401F288ABF094B4FF0A04300F06E
:10AC40001F0003EB8000D0F8003723F44033C0F836
:10AC50000037D0F8003743EA0141C0F800177047C9
:10AC60000003005008B5094B1B7853B10020FEF7D4
:10AC7000C1FA0120FEF7BEFABDE808400320FEF746
:10AC8000B9BABDE80840FEF7C9BA00BF20340020B9
:10AC9000F8B57A4C237805461BB100232370FFF7E3
:10ACA000E1FF172D00F28780DFE805F00C1717424F
:10ACB0005364757F878C878C949999999999C3C8A7
:10ACC000D0D8E3E3FFF7CEFF6D48FDF777F96D4B82
:10ACD000002204461A702046F8BD0020FEF762FAF2
:10ACE000F0B10020FEF786FA022D0CBF4FF4E164AC
:10ACF0004FF47A64634B1D7000254FF400464FF407
:10AD00007A7029464FF4FA620023E4FB060103F04F
:10AD1000E1FD2A460146BDE8F8405948FDF720B953
:10AD2000FEF754FA022D0CBFC8244FF4C874E1E7B3
:10AD30000020FEF737FA40B10020FEF75BFA4FF42F
:10AD40004874504B03221A70D6E7FEF73FFAC82426
:10AD5000F7E70020FEF726FA38B10020FEF74AFA9E
:10AD60004FF47A64474B0422EDE7FEF72FFA4FF4D5
:10AD7000C874F7E70020FEF715FA48B10020FEF787
:10AD800039FA404B05221A7040F6CD410022C2E745
:10AD9000FEF71CFAF5E70020FEF75EFA394B0622B3
:10ADA0001A70002240F26661B5E70020FEF70EFA45
:10ADB000344B07221A7000248DE701202070FEF723
:10ADC0004BFAEEE701202070FEF746FA00224FF41E
:10ADD0000051A0E7FEF731FA2A4B0C22EAE72A4895
:10ADE0002A4EFDF7EBF8D5F1110504461CD0D8B971
:10ADF000012D13D0C820454321464FF400474FF49E
:10AE00007A704FF4FA620023C5FB070103F062FD7C
:10AE1000224601461C48FDF7A3F804460220FEF72F
:10AE2000D5F90123337056E70220FEF7E3F900233A
:10AE3000F8E7FFF717FF134B1222BBE7FFF712FFEC
:10AE40000020FEF7C3F90F4B1322B3E7FFF70AFF09
:10AE50000120FEF7BBF90B4B1422ABE7FFF702FF13
:10AE60000020FEF7B3F90120FEF7B0F9054B1522DB
:10AE7000A0E7FEF7E2F9034B1D709CE73434002095
:10AE8000302B002035340020102B002020340020EF
:10AE9000044B1B6813F0010301D0FFF7F9BE1846FD
:10AEA000704700BF30340020032811D8012A0AD18E
:10AEB00001290FD100F10E02D2B20D4B00EB400080
:10AEC0001A54002070470129F7D0022904D049B153
:10AED000072070470022F8E7054B00EB40001844BC
:10AEE0004270EEE7024B00EB400018448270E8E746
:10AEF00021340020032808B506D8FEF7C7F903213E
:10AF0000FFF798FE002008BD0620FCE708B50122E7
:10AF100002210020FFF7C8FF08B1072810D107223F
:10AF200002210120FFF7C0FF08B1072808D1002146
:10AF30000A220846FFF7B8FF10B1072808BF002013
:10AF400008BD00000388102B10B502D0112B1ED0B5
:10AF500010BD1A4C2168B1B901220846FFF7A4FFC1
:10AF600008B1072824D1072202210120FFF79CFF06
:10AF700008B107281CD1042202210020FFF794FF0A
:10AF800008B1072814D1236801332360E0E70B4A96
:10AF90001368013B1360002BDAD1FFF7B7FF0028DD
:10AFA000D6D0074B1B68002BD2D0BDE81040184705
:10AFB000034B1B68002BE6D09847E4E73C340020A5
:10AFC0003834002008B50020FFF794FF08B10628A8
:10AFD00006D10120FFF78EFF10B1062808BF002020
:10AFE00008BD000007B5084B8DF8070018680DF183
:10AFF0000702012353210430FFF75EFC08B1FCF780
:10B0000059FE03B05DF804FB4834002013B5064B2D
:10B010001C6800230093D3B20A460146201DFFF7A7
:10B0200035FC02B010BD00BF4834002013B5084BFA
:10B030000222186001A92D235320ADF80430FFF738
:10B04000E5FF04460020FFF7CDFF204602B010BD0B
:10B050004834002007B52D238DF804300222102338
:10B0600001A953208DF80530FFF7D0FF08B1FCF798
:10B0700021FE0020FFF7B6FF03B05DF804FB07B523
:10B080002D238DF804300222082301A953208DF8C6
:10B090000530FFF7BBFF08B1FCF70CFE0020FFF7FF
:10B0A000A1FF03B05DF804FB07B531238DF8043030
:10B0B00002220B2301A953208DF80530FFF7A6FFCC
:10B0C00008B1FCF7F7FD0020FFF78CFF03B05DF837
:10B0D00004FB07B580F3080025238DF80500022244
:10B0E00001A953208DF80430FFF790FF08B1FCF759
:10B0F000E1FD0020FFF776FF03B05DF804FB07B524
:10B1000080F3080024238DF80500022201A95320B2
:10B110008DF80430FFF77AFF08B1FCF7CBFD002073
:10B12000FFF760FF03B05DF804FB07B5322301228F
:10B1300001A953208DF80430FFF768FF08B1FCF730
:10B14000B9FD03B05DF804FB08B5FFF7EEFF074B50
:10B15000074A1868532106230430FFF7ADFB18B1E6
:10B16000BDE80840FCF7A6BD08BD00BF483400207C
:10B170004034002070B5144606460D46FFF7E4FF44
:10B18000054BB3F900203260B3F902202A60B3F90D
:10B190000430236070BD00BF40340020014600F140
:10B1A00008020431FFF7E6BFF0B5114B8DB0002265
:10B1B000044603A8CDE90623CDE90823CDE90A23F7
:10B1C000FFF7ECFF03AD06AE04F11807F6E8022323
:10B1D00055F8040BCDE9002302F038FFDDE9002328
:10B1E00002F0FEFCE4E80201BC42EFD10DB0F0BD7C
:10B1F0000000F03F76DF704777DF70477ADF7047F7
:10B200007CDF70477FDF70478FDF7047B1DF7047AB
:10B2100033DF70471F2886BF00F01F00044B4FF03C
:10B22000A04300F5E070032243F82020704700BFE0
:10B2300000030050FCF73EBD08B50020FFF728FED4
:10B2400008B1FCF737FDFFF7BDFE08B1FCF732FD92
:10B25000FFF7DEFF18B1BDE80840FCF72BBD08BDC5
:10B2600008B503784BB9054B3B211888FFF7C2FF9F
:10B2700018B1BDE80840FCF71DBD08BDA82B002093
:10B2800008B548B103280BD10220FFF701FE38B101
:10B29000BDE80840FCF70EBDBDE80840FFF7CCBF95
:10B2A00008BD000010B5037813B1012B0AD010BD02
:10B2B000074C084823881844FDF75AF823880133BF
:10B2C0002380F4E7BDE810404068FCF7F3BC00BF02
:10B2D0004A3900205B3500202DE9F041067805460B
:10B2E0009EBB00691A4CDFF8788003F03FFE194BD3
:10B2F00019491870194BE41AE4082404C2B244F046
:10B300000300FCF769FB44F00104AA8A96420AD3C1
:10B310002B69134413F8013C0D2B16D10A20FDF7BD
:10B320003DF81128F9E72B69985DFDF737F80746D6
:10B3300048B11128F7D0024641462046FCF74CFBA5
:10B340003846FCF7B7FC0136DFE7BDE8F08100BF07
:10B350009CF70200F02B002030FF020064F702008F
:10B3600044FF020038B5054D044645F001054FF491
:10B370007A40A847013CFAD138BD00BF4000030025
:10B380000C4B4A881B889A4212D10A8840F67723D0
:10B390009A420DD1084A09488B880949801A033B13
:10B3A000C0089BB200041A4640F00300FCF71DBB26
:10B3B000704700BFA82B002064F702009CF7020032
:10B3C0006FFF0200FCF776BC2028054B4FF001020E
:10B3D00038BF4FF0A04302FA00F0C3F80C057047E5
:10B3E000000300501F2886BF054A00F01F004FF0E1
:10B3F000A042012303FA00F0C2F80805704700BF1D
:10B4000000030050384BD3F8103513F0080F37B550
:10B41000364C374DC3F3C00142D0364B364837491E
:10B42000C01AC008000440F003000190FCF7D0FAF5
:10B43000002323702B78019873B93149FCF7C8FABF
:10B44000304803F091FC4FF47A70FFF78BFF2D48E2
:10B4500003F08AFC01232B70FCF76EF90028FBD166
:10B46000294B01221A70294B1860294B002000211A
:10B47000C3E90001274B1B785F2B4FF00F0007D962
:10B48000FFF7A2FF142003B0BDE83040FFF7AABFCA
:10B49000FFF7A8FF142003B0BDE83040FFF794BFCA
:10B4A0001420FFF79FFF0F20FFF79CFF164B29701A
:10B4B00019702378B3B9184B1B78012B10D10E48A3
:10B4C0000C4B1649C01AC008000440F00300FCF7FA
:10B4D0007FFAFCF731F90028FBD1114803F044FC56
:10B4E0000123237003B030BD000300505935002004
:10B4F0005835002064F702009CF702008BFF020021
:10B5000093FF0200A4FF020048390020BC3E002047
:10B5100050350020114000205A350020B3FF0200B2
:10B52000C0FF020030B50388212B85B0044673D0DC
:10B5300007D8112B4FD0132B7CD0102B0DD005B07A
:10B5400030BD522B00F08580562B01D03B2BF6D11D
:10B55000A0881321FFF74EFE73E0424B4248434957
:10B56000C01AC008000440F00300FCF731FA404B59
:10B57000404801221A7003F0F7FB0720FFF788FC10
:10B5800008B1FCF797FB3C4DA1883C48298001F0AD
:10B590004DFE2988044608220320FFF72DFE14B132
:10B5A0002046FCF787FB1120FFF70EFF6420FFF712
:10B5B000D9FE1120FFF716FF6420FFF7D3FE1120FC
:10B5C000FFF702FF6420FFF7CDFE112005B0BDE8B4
:10B5D0003040FFF707BF234B23482949C01AC00852
:10B5E000000440F003000190FCF7F2F9204B2549DC
:10B5F000019800221A70FCF7EBF9234803F0B4FB22
:10B600004FF47A70FFF7AEFE1F4803F0ADFB1A4B04
:10B610004FF6FF721A8092E7002380888DF80C3075
:10B6200003A98DF80D30FFF7EFFD002887D0FCF758
:10B6300041FB84E71048002300881A468521FFF764
:10B64000E1FD00283FF47BAF05B0BDE83040FCF7DA
:10B6500031BB094800231A4619460088FFF7D6FD7A
:10B66000EFE700BF64F702009CF70200CDFF020085
:10B670005A350020C0FF0200A82B0020B03D00205A
:10B68000D7FF020093FF0200A4FF020008B54FF0AD
:10B69000A043D3F810351B030DD40748074B0849C6
:10B6A000C01AC008000440F00300FCF791F9FCF751
:10B6B00043F80028FBD108BD9CF7020064F70200A4
:10B6C000E4FF020008B50849084801F08FFC08B102
:10B6D000FCF7F0FA0548F72101F09CFC18B1BDE831
:10B6E0000840FCF7E7BA08BD81B30200983D00208E
:10B6F0001FB50E221523CDE900234FF0CD610223A3
:10B70000CDE90213002307481A466946FEF760FD9B
:10B7100008B1FCF7CFFA0448FFF73EF805B05DF832
:10B7200004FB00BF540003005800030008B50A489A
:10B73000FFF77CFC08B1FCF7BDFAFFF78BFCFFF7C5
:10B740009EFC4B20FFF7C5FC4B20FFF7D8FCBDE863
:10B750000840FFF7A9BC00BF5400030030B5421EEB
:10B76000002308440139CC1AA34200DB30BD12F893
:10B77000014F10F8015D157001330470F3E7F8B55F
:10B780000E464B1EC1F1010504460A21EF1884B98B
:10B79000D51BBA42B8BF00252A4630213D44F019D6
:10B7A00003F01FFC30462946FFF7D8FF74552846A2
:10B7B000F8BD94FBF1F001FB1044303403F8014F65
:10B7C0000446E3E7000000002DE970432DED028BF5
:10B7D000BDEEC08A04460E460022014618EE100A4D
:10B7E000F0EE408AFFF7CBFF054656B32E232354D5
:10B7F000304602F02BFC9FED160B41EC110B02F0D2
:10B800001BFFB8EEC88A59EC108B78EEC87A013568
:10B8100017EE900A02F02EFC42464B4602F0E0F989
:10B8200002F042FCBDEC028B07EE900AFDEEE77AD7
:10B8300025443246294617EE900ABDE87043FFF7CB
:10B840009EBFBDEC028BBDE8708300BFAFF30080EC
:10B85000000000000000244030B5284B91B0D3E92F
:10B86000000102F0CDFB04460120FFF77BFD244BD5
:10B87000D3E9000102F0C4FB05460120FFF772FD89
:10B880000120FFF76FFD1F491F4A204B086812680F
:10B890001F491B680968AA1A5243E31A03FB0323D2
:10B8A000401A00FB003002F0D1FB41EC100B02F01B
:10B8B00077FF51EC100B02F0A3FB009C204400EB3F
:10B8C000D07044109620FFF74DFD124B1A78124BA2
:10B8D00094420ADD1149086838B91A6801321A60C1
:10B8E00001220A60186811B030BD9442FADA0B4A9E
:10B8F0001168012904BF00211160F3E72035002001
:10B9000030350020CC3F0020C43F0020C03F002045
:10B91000C83F0020F02B0020BC3E0020443900200E
:10B920002DE9F8430E461249DFF844901746984631
:10B9300003F08AFA0025014609B9BDE8F883ECB2A4
:10B94000022C09D1304603F07FFB4946002003F06A
:10B950007BFA01350146EFE7032C01D13846F2E7C7
:10B96000042C01D14046EEE7052CEED10898EAE719
:10B97000EBFF020008B54FF47A720448002103F08F
:10B9800030FB034B00221A8008BD00BF5B3500204E
:10B990004A39002002486422002103F022BB00BF84
:10B9A000B534002070B588B0FFF730F9254B264D2F
:10B9B0001A78264E264C642A84BF64221A7018789E
:10B9C0000A22294603F09CF9224BD3E9000102F038
:10B9D0006BFB022100EE100A3046FFF7F5FE1E4B0E
:10B9E0001E49E41AE408240444F003042A462046CD
:10B9F000FBF7F2FF1A4B1B4A1B781B491B480295A9
:10BA0000CDE903631A4B01931A4B00931A4B03F0D1
:10BA1000C5F9164A19492046FBF7DEFFFBF78CFEF5
:10BA20000028FBD16423ADF81E30154B0F491B884D
:10BA300014480DF11E0201F071FDFFF7ABFF08B0D5
:10BA400070BD00BF11400020502B00204C3400205E
:10BA50009CF702005035002064F70200EDFF020061
:10BA600048390020532B0020F5FF0200B534002098
:10BA70004C3900205739002019350020F2FF020010
:10BA8000A82B0020AC2B002008B51420FFF7C2FB28
:10BA90000F20FFF7BFFB1120FFF7BCFB0C20FFF7C7
:10BAA000B9FB2920FFF7B6FB1420FFF79BFC0F2002
:10BAB000FFF798FC1120FFF795FC0C20FFF792FC94
:10BAC0002920FFF78FFC054B0022C3F80C274FF00D
:10BAD000A0430C22C3F84C2708BD00BF0003005050
:10BAE0002DE9F04FB04F0FCFB5B008AE0FC697E8B5
:10BAF0000300AE4BAE4A04934FF4807386E8030014
:10BB0000CDE906230593AB4A072304A908A8FCF74F
:10BB1000D7FB08B1FCF7CEF84FF480410020FBF7CB
:10BB2000B9FD08B1FCF7C6F8FBF7F2FCFFF7ACFF74
:10BB3000FCF7D2F908B1FCF7BDF89F4A9F480121F4
:10BB4000FCF7FCF908B1FCF7B5F89D4A9D480121C6
:10BB5000FCF7F4F908B1FCF7ADF89B4A9B480121CA
:10BB6000FCF7ECF908B1FCF7A5F8FDF779F908B195
:10BB7000FCF7A0F801F04EFD08B1FCF79BF800239C
:10BB800008A90120089301F0D7FD08B1FCF792F84D
:10BB900008A801F091FE08B1FCF78CF811238C493C
:10BBA0008DF81030092204A8FFF72AFB08B1FCF732
:10BBB00081F80023ADF824301023ADF820303C2369
:10BBC000ADF8223008A84FF4C873ADF82630FFF75F
:10BBD00015FB08B1FCF76EF8FFF774FD7D4B7E484E
:10BBE000089308A901F010FB08B1FCF763F87B4B40
:10BBF0007B48049304A901F017FC08B1FCF75AF83C
:10BC0000AC22002108A803F0ECF902238DF82030C3
:10BC100006238DF823300123ADF86C308DF89C306D
:10BC20004FF448736F4A2A936F48704B1C9208A9CF
:10BC3000319300F002FD08B1FCF73CF86A4801219D
:10BC400000F0F8FC1422002108A803F0CAF94FF410
:10BC5000F0234FF4A032CDE9092303238DF82C30D3
:10BC6000634B0D9308A8634B0E9300F09FFF08B140
:10BC7000FCF720F8604B614861495B4EC01AC00870
:10BC8000000440F00300FBF7A3FE5E4803F06CF8ED
:10BC90004FF47A70FFF766FB5A4803F065F896F8A0
:10BCA000541008220120FFF7A7FA0321304600F0C4
:10BCB00039FD08B1FBF7FEFF00F052F9FFF718FD60
:10BCC000FFF734FDFFF731FA00224FF4A0314E4860
:10BCD000FCF746F900224FF480414C48FCF740F94C
:10BCE0004B4800224FF40051FCF73AF928A7D7E956
:10BCF00000670FF2A409D9E90089DDE90823454965
:10BD0000DFF820B1DFF820A1C1E90023DDE90A2333
:10BD1000CBE90023DDE90C2308A8CAE90023FFF7DB
:10BD200043FA3C491EA3D3E90023D1E9000101F005
:10BD300057FF394B3246C3E900013B46DBE90001BE
:10BD400001F04EFF354B4246C3E90001DAE900013C
:10BD50004B4601F045FFDFF8D4C0DFF8D4A002461F
:10BD60000B46CCE900232E4B002201F039FF21F0D5
:10BD70000045DAE900232946044602F009F908B132
:10BD8000CAE90045FFF768FD54E000BFAFF300804B
:10BD90000E7F8FF27ACD6E3F200FD8309E9C6C3F85
:10BDA0009F27F96C78D56E3F28000300BC3D00202A
:10BDB000C03E0020A5B20200A5B902005000030059
:10BDC00005B402004C0003008DB6020048000300D9
:10BDD0000A00030035B20200B03D0020D9B20200D3
:10BDE000AC2B0020622B00206439002081B20200BD
:10BDF00061B20200C5B3020064F702009CF70200C2
:10BE000014000300A4FF0200D02B0020882B002088
:10BE1000682B0020203500202835002038350020F0
:10BE200000002440303500204035002048350020F7
:10BE300050350020FBF780FC82460028FAD1194BD0
:10BE4000194918680A2202F05BFF1849184802F0E5
:10BE5000DDFF834600283FF450AF3220FFF782FA1F
:10BE60001FFA8AF35846039303F010F9039B114A13
:10BE700098420FD8104B114A11490E480093114BAC
:10BE8000FFF74EFDFFF776FD64220021094803F01D
:10BE9000A8F832E71BF803100D290AF1010AE9D0CE
:10BEA000D154DDE7BC3E00201935002021000300FD
:10BEB0005B350020513400205639002060390020C5
:10BEC000573900204C39002010B50378002B3AD1A7
:10BED00040680121B0F90040FEF746FE08B1FBF7CB
:10BEE000E9FE4FF4167214FB02F2002ABCBF02F501
:10BEF0007F523F32062392135A431348134B144C7C
:10BF000014492260C01AC008000440F00300FBF787
:10BF100063FD226864235343A3F5033340F2EE210B
:10BF2000A3F55673B3FBF1F30B49DBB2142B0B7083
:10BF30000A4906D940F6D4039A428CBF0023012354
:10BF400003B101230B7010BD9CF7020064F70200DF
:10BF50000C4000206400030011400020104000202D
:10BF60001FB50F4A10685168127A01AB03C30D491F
:10BF70000D481A70FEF768FD08B1FBF79BFE01A99A
:10BF80000020FEF7A9FD08B1FBF794FE0748012148
:10BF9000FEF7EAFD08B1FBF78DFE05B05DF804FB86
:10BFA0007A000300C9BE020083000300084000209D
:10BFB0000369C26893429CBF80681B18013B981AB2
:10BFC00070472DE9F843D0E902940546A9EB04082F
:10BFD0004068904520440F46144404D902F0D8FF2D
:10BFE000EC60BDE8F8834246A4EB090402F0D0FF00
:10BFF0006868224607EB0801F0E72DE9F843C568B9
:10C000000646894617464FF000083469B3687068E1
:10C01000A54228BFE418013C621B5C1BBC4228BF40
:10C020003C46944228BF144649462844224602F022
:10C03000AFFFB3682544AB4208BF00253F1BA044B7
:10C04000A144F560E1D14046BDE8F88310B5114C3C
:10C05000114AA2610223C4E90433104BE361A264D4
:10C060004FF400730E4A0F492362E264002310224A
:10C07000E01DA3626362E362A3656365E365226515
:10C0800002F0E2FF0849204602F0DEFF2023A37100
:10C0900010BD00BF14400020870003009C4000201A
:10C0A0008C400020900003009400030070B5164BF4
:10C0B000182400FB04451D4404FB00331646DC6ACB
:10C0C000012C0ED0022C18D0E4B92846FFF770FFDF
:10C0D000864204D832462846FFF773FF344620468E
:10C0E00070BD2846FFF764FF8642344628BF0446E9
:10C0F00022462846FFF765FFF1E72846BDE8704075
:10C10000FFF77BBF0024EAE714400020FFF79EBF43
:10C110006DDF704779DF70477DDF704764DF704700
:10C120002DE9F04F85B000250E9CBDF83CB0B4F869
:10C1300000A00191074690461E46A9463A884A4506
:10C140000DDC45B12388013BA3EB0A039BB2FF2B17
:10C150003AD806F80A30002005B0BDE8F08F7A68BA
:10C1600052F82900039000220DF10B0103A8FFF7FC
:10C17000D5FF0028F0D19DF80B20424521D122881F
:10C18000002D14BF0020022002EB08010144594594
:10C190001ADC3DB9013292B2019B2280B35422884D
:10C1A0000132228022880DF10B01324403A8FFF7EF
:10C1B000B5FF0028D0D121889DF80B200A442280A9
:10C1C000012509F10109B9E70C20C5E72DE9F34183
:10C1D000089FBDF824801546CDE900780222044668
:10C1E0001E46FFF79DFF50B93346102229462046D0
:10C1F000CDE9087802B0BDE8F041FFF791BF02B089
:10C20000BDE8F0812DE9F04F00231788138090F8E6
:10C210002D3085B006460D4614465BB3082F01D875
:10C220000C2028E102A8FFF773FF002840F02381CB
:10C230002388DDF809100822EA54238801339BB2D1
:10C240001B222380EA54238801339BB2EA182380FF
:10C25000E950BDF80D30938023889DF808200633FF
:10C260009BB212F0FE0218BF01222380EA542388F9
:10C2700001332380B378FBB123880433BB42CFD88A
:10C2800002A8FFF747FF002840F0F580238803222B
:10C29000EA54238801339BB219222380EA5423886D
:10C2A000BDF8082001339BB2E9182380EA54120A32
:10C2B0004A70238802332380F2789AB12388D91CEC
:10C2C000B942ADD80221E954238801339BB2012140
:10C2D0002380E95423880B449BB22380EA542388AB
:10C2E0000B4423807268AAB12388D91CB94297D81D
:10C2F000022192F90020E954238801339BB20A21DC
:10C300002380E954238801339BB22380EA54238895
:10C31000013323803389002B40F0A180338A5BB145
:10C32000CDE900472B460722032106F11000FFF755
:10C330004DFF002840F09F80338B5BB1CDE9004773
:10C340002B461522142106F11800FFF73FFF0028A5
:10C3500040F09180326A002A40F09080D6F8248024
:10C36000B8F1000F30D0B8F804302188981C8A1C2E
:10C370000244BA423FF654AFFE283FF651AF0333B2
:10C380006B54238801339BB2FF222380EA54238815
:10C3900001339BB22380B8F80020EA54E918120A4E
:10C3A0004A702088023080B22080B8F804205AB148
:10C3B000D8F8081000296BD0284402F0E9FD238842
:10C3C000B8F804201344238096F82C30002B40F05A
:10C3D0009880307800284ED03388012B58D022889E
:10C3E00002F1020CBC453FF61BAF012805D1737862
:10C3F000023313449F42FFF413AF023FBF1ABFB290
:10C4000002A905EB0C00ADF80870FFF785FE90BBA4
:10C410003178BDF80830022900F0B98072789A426C
:10C4200002D39F4280F0B180012940F0B280974250
:10C4300093B2C0F0AE80ADF808300821BDF80830E6
:10C44000FE2B3FF6EDAE22880133AB542288013239
:10C4500092B22280A9542288134423800BE0CDE9B4
:10C4600000472B460622022106F10800FFF7AEFE28
:10C4700000283FF453AF05B0BDE8F08FB4F800C01A
:10C480000CF10603BB423FF6CBAE1188052901D85B
:10C490000720F0E76FF4486E01EB0E039BB24FF2FA
:10C4A0007D3E7345F4D95388052BF1D96FF448606C
:10C4B000181880B27045EBD94FF6FF70814201D059
:10C4C0009942E5D8052305F80C30238801339BB247
:10C4D00012212380E954238801339BB223801188E1
:10C4E000E954E818090A4170238802339BB223807B
:10C4F0005288EA54E918120A4A70238802332380CA
:10C500002CE7B36A002BC3D04FF000084FF00C0AA1
:10C510004FF0160BB16A5FFA88F20AFB02F201EBE8
:10C520000209B9F80430981CFE283FF679AE20883D
:10C5300003332B54238801339BB2238005F803B0C7
:10C54000238801339BB223808A5AEA54E918120ADD
:10C550004A702088023080B22080B9F804205AB195
:10C56000D9F80810002993D0284402F011FD23883F
:10C57000B9F804201344238096F82C2008F1010810
:10C580005FFA88F39A42C5D823E7092156E79F420C
:10C59000FBD2ADF8087050E730B5C8B1F2B1002455
:10C5A000651C8D4206DA1588A54212D805196D78EA
:10C5B0009D420ED1A14211D9005D48B1013880B22F
:10C5C00030B10234A3B210FA84F4A14206DB138026
:10C5D00030BD055D01352C44A4B2E1E70020F7E74A
:10C5E00013B513460022ADF806200DF106020446ED
:10C5F000FFF7D2FF10B1BDF80630E01802B010BD51
:10C6000072DF704773DF704738B5012204460D466C
:10C61000B0F81414D0F81004FFF7E2FF00B1057071
:10C6200004F13C0204F5826104F15400BDE8384095
:10C63000FFF7E6BF80F830107047F8B504460F46A4
:10C6400000296BD0002869D091F87A301BB191F89D
:10C650009830002B64D14FF0000C84F802C007F131
:10C6600078060FCE251D0FC50FCE0FC596E8070023
:10C6700085E8070084F830C0D7F8A4306363D7F8A2
:10C68000A830A36304F582624FF6FF73C4F826C492
:10C69000A4F82434C4F82024C4F829C422780AB9A0
:10C6A00084F8543094F82430002B14BFEE231F2359
:10C6B00004F15501C4F81014A4F8143404F214421F
:10C6C0003846FFF79FFD40BB94F82430002B14BF81
:10C6D000EE231F2304F23121C4F81814A4F81C34EB
:10C6E00004F21C4207F13C00FFF78CFDA8B9A369D6
:10C6F000A4F848304FF480730125A4F850306369E2
:10C700002064014684F83C50636404F13C0204F167
:10C710005400FFF775FF00B92570F8BD0E20FCE747
:10C720000720FAE7F8B5067804460D46002E00F01B
:10C7300006810023C0F82634C0F82934C3888170EC
:10C7400000F226470BB1012903D0E37943B1022D52
:10C7500006D1636BABB1012284F82D2408209847E1
:10C7600004F2274304F22D4113F8012B12B9994228
:10C77000FAD116466B1E032B53D8DFE803F0050BE6
:10C780000F1284F82D34EBE7A3791BB194F8243011
:10C7900003B95EB9E3790BB1002E44D1237A002BA3
:10C7A00043D1637A002B0CBF00250425636BA57071
:10C7B000002B3CD0033D012D39D86279002A36D0B8
:10C7C00094F82E249ABB84F83024012284F82F2474
:10C7D0000720984704F13C0518220021284602F062
:10C7E00000FCE26A0123511E994284F83C3001D9D1
:10C7F000042A00D1D3B284F8513094F8243043B1E4
:10C80000A26A511E012902D9042A18BF012284F804
:10C810005220A278042A1CD8DFE802F0780D2336D3
:10C820005A000025C2E70225C0E70325BEE7002322
:10C8300084F82F34CEE7012384F831300023C4E993
:10C840001073C4F82034022384F83C308023A4F809
:10C850004830A378002B5DD1636B002B6BD1002097
:10C8600068E0002B14BF0723032384F83C302369BE
:10C87000A4F8483000230222C4F82034E36884F886
:10C88000312027646364E4E762696264A269A4F802
:10C89000482013B1062384F83C306379B3B194F88F
:10C8A0002E349BB994F8303483B1022384F850308D
:10C8B00004212046FFF7A8FE0028CAD1052384F8EA
:10C8C000313004F58263C4F82034C2E70323F6E76D
:10C8D000E2696264226AA4F8482013B1062384F84E
:10C8E0003C30637983B194F82E346BB994F83034CA
:10C8F00053B1022384F8503004212046FFF784FE10
:10C900000028A6D10623DAE70423D8E7002384F819
:10C9100031309EE7D4F820142A4604F15400FFF782
:10C920006FFE38B994F8301094F85400FFF76AFE9F
:10C93000002891D0F8BD94F8310098478FE708207F
:10C94000F8E70388112B10B50C460AD0262B1FD010
:10C95000102B05D1C37B012B02D18388A1F824348D
:10C9600010BD0022838881F82E24B1F824249A4235
:10C97000F6D10B79002BF3D101212046FFF7D2FE2F
:10C980000028EDD0A36B002BEAD0BDE8104018477B
:10C99000037A013B012BE3D8897805230131B1FBF0
:10C9A000F3F303EB8303C91AC9B2E6E775DF7047F7
:10C9B00076DF70477ADF70477BDF7047034B1A885A
:10C9C00082420CBF18460020704700BFB8420020CA
:10C9D000024B9B6903B11847704700BF9C4200207F
:10C9E00073B585B22846FFF7E9FF044638B3174E02
:10C9F000027A337B9A420CD200F10A012846FFF7F3
:10CA0000D5FFF0B111281AD002B0BDE87040FFF791
:10CA1000DFBF00230372337C43B13B212846FFF77D
:10CA2000C7FF30F0080301D0FFF7D2FF736933B1BD
:10CA300000228DF80420ADF8065001A8984702B0F6
:10CA400070BD237A01332372F9E700BF9C420020B6
:10CA500037B50B46497A0F4A79B9D2E901141D7AE4
:10CA60000246002D18BF21465868FBF779FA78B1C5
:10CA700003B0BDE83040FFF7ABBF00211972536926
:10CA800033B10122ADF806008DF8042001A89847C3
:10CA900003B030BD9C4200204B8802889A4212D8D5
:10CAA00042889A420FD380888B8840F2F3118842E3
:10CAB00094BF021A421A9A4205D80844984234BFD9
:10CAC0000020012070470020704700000388122BCF
:10CAD00070B5014659D004D8102B1ED0112B44D06C
