:1000000000000420750300005D0300005F03000092
:1000100061030000630300006503000000000000AE
:100020000000000000000000000000004505000086
:100030006903000000000000650500006D0300007A
:100040000D1900006F0300006F0300006F03000034
:100050006F0300006F030000BD1900006F03000074
:100060006F0300006F0300006F0300006F030000C8
:100070006F0300006F0300006F0300006F030000B8
:100080006F030000650600006F0300006F030000AF
:100090006F0300006F0300006F0300006F03000098
:1000A0006F0300006F0300006F0300006F03000088
:1000B0006F0300006F03000000000000000000005C
:1000C0006F0300006F0300006F0300006F03000068
:1000D0006F0300006F0300006F0300006F03000058
:1000E0006F0300006F0300006F03000000000000BA
:1000F000000000006F030000000000006F0300001C
:1001000000000000000000000000000000000000EF
:1001100000000000000000000000000000000000DF
:1001200000000000000000000000000000000000CF
:1001300000000000000000000000000000000000BF
:1001400000000000000000000000000000000000AF
:10015000000000000000000000000000000000009F
:10016000000000000000000000000000000000008F
:10017000000000000000000000000000000000007F
:10018000000000000000000000000000000000006F
:10019000000000000000000000000000000000005F
:1001A000000000000000000000000000000000004F
:1001B000000000000000000000000000000000003F
:1001C000000000000000000000000000000000002F
:1001D000000000000000000000000000000000001F
:1001E000000000000000000000000000000000000F
:1001F00000000000000000000000000000000000FF
:10020000354936480A1A02D0072291438D463449AF
:1002100034480A1A06D00722914381F30988022242
:1002200082F3148830483149314A00F044F83148AB
:100230003149324A00F03FF831483249324A00F041
:100240003AF832483249334A00F035F832483349F7
:10025000334A00F030F833483349344A00F02BF881
:1002600033483449344A00F026F8344834490022EF
:1002700000F02CF833483449002200F027F83348C6
:100280003349091A082902DB002202604160314A21
:1002900090471F481F49884205D00268043003B4C4
:1002A000904703BCF7E700208646EC46002000217B
:1002B000294A9047FEE7884207D0521A05D00378B2
:1002C00001300B700131013AF9D17047884202D0F8
:1002D00002700130FAE770470000042000E00320BC
:1002E00000000420000004203C1F0000000000204B
:1002F00004000020D0030000D0030000101F000005
:100300003C1F00000000002000000020101F000023
:10031000101F0000101F0000101F0000101F000021
:10032000101F0000101F0000101F00003C1F0000E5
:10033000401F0000040000200400002004000020F2
:10034000CC110020CC110020CC110020CC110020B9
:10035000CC3100209D030000AD1B0000FEE7FEE74E
:10036000FEE7FEE7FEE7FEE7FEE7FEE7FEE7FEE765
:1003700000F002B8FFF7FCBF0F484FF007018843B9
:1003800085460E4880470E48016841F470010160BF
:10039000BFF34F8FBFF36F8FFFF732BF09480A4992
:1003A0000A4A884207D0521A05D0037801300B70F0
:1003B0000131013AF9D1704700000420711C00009E
:1003C00088ED00E0101F0000000000200000002069
:1003D000074B1B5C1F2B86BF064903F01F034FF022
:1003E000A041012202FA03F3C1F80835704700BFAB
:1003F000101F00000003005008B50020FFF7E8FFC1
:100400000120FFF7E5FF0220FFF7E2FFBDE808400B
:100410000320FFF7DDBFC20710B504460CD54FF02F
:10042000A0430322C3F83427C3F83827C3F83C2776
:10043000C3F84027FFF7E0FFA3070AD54FF0A0431A
:100440000C22C3F82C27C3F83027C3F86027C3F861
:10045000642710BD38B5430704461CBF20F00704CD
:10046000083400F065FD0C4A13681BB90B4B23F0F0
:10047000070313600A490B6840F6F7701C44844276
:1004800008D8A34206D215680C601D4400F0DEFDBA
:10049000284638BD0025F9E70400002010000020A0
:1004A00008100020704700F108034FF0FF32C0E948
:1004B000022343600361002303607047002303614C
:1004C000704743684B609A688A609A685160996087
:1004D0000368086101330360704730B50C68631C22
:1004E0000AD103695A684A6091608B605960036859
:1004F00008610133036030BD00F108021346526801
:100500001568A542FAD9EDE7D0E9011203698A60BE
:1005100051605968814208BF5A60002202611A681E
:10052000013A1A60186870470548006880F3088827
:1005300062B661B6BFF34F8FBFF36F8F00DF00BFAE
:1005400000000000064B19680868B0E8F04F80F31F
:100550000988BFF36F8F4FF0000080F31188704758
:1005600020100020EFF30980BFF36F8F144B1A683F
:100570001EF0100F08BF20ED108A20E9F04F106028
:100580004DF8043D4FF0400080F31188BFF34F8FCA
:10059000BFF36F8F00F022FE4FF0000080F3118850
:1005A00008BC19680868B0E8F04F1EF0100F08BFCB
:1005B000B0EC108A80F30988BFF36F8F704700BFDB
:1005C00020100020402383F31188FEE74FF0807352
:1005D00040E90213054B40F80C3C6FF0020340F871
:1005E000202C40F8243C4438704700BFC50500006B
:1005F0000F4C08B5E02384F8223000F06BF80D4B67
:1006000000221A60D4F888300B4A43F47003C4F80F
:100610008830536B43F040435363236943F0100326
:100620002361FFF781FF402383F31188FEE700BFBA
:1006300000ED00E00C10002000EF00E0402383F309
:100640001188024A13680133136070470C100020B0
:10065000034A1368013B13600BB983F31188704799
:100660000C10002073B5194B0022C3F84021D3F8B9
:10067000401101910199EFF31186402181F3118816
:10068000D3F80445C3F80021D3F800310093009B50
:1006900000F056FC201A20F07F4424F0010020B125
:1006A00000F07EFE022818BF01240025013C09D27B
:1006B00025B1074B4FF080525A6040BF86F3118836
:1006C00002B070BD00F04AFC0543EFE700100140A6
:1006D00000ED00E008B5002001F0B8F8094B1F223A
:1006E000C3F808250122C3F804239A601A60022285
:1006F000C3F84423044BE02283F811234FF4003263
:100700001A6008BD0010014000E100E07FB5054619
:1007100072B6284CD4F8046500F028FE002845D0B5
:10072000254BAB4228BF2B46F21822F07F42012115
:10073000C4F80813C4F840250022C4F84021D4F8B6
:1007400040210192019A4FF48032C4F80423BFF390
:100750004F8F3DB1194A20BFD2F80001D2F80411E1
:100760000143F8D04FF48032C4F808230022C4F8C3
:100770004021D4F8401103910399C4F80021D4F822
:1007800000210292029A0122C4F80423D4F804053D
:100790000A4A801B20F07F4098424FF4003128BF66
:1007A0001846C2F8801108B100F0D0FB62B604B060
:1007B00070BD00BF00100140FDFFFF0000E100E040
:1007C00010B50446FFF73AFFA46BFFF741FFB4FAF8
:1007D00084F0400910BDF8B51546026C866B0446DE
:1007E00052B9076847BB406800F0EAFD67600546FC
:1007F0000136A6632846F8BD65B9806801F02CFB78
:10080000A368226C13446268A3609342F0D3236808
:10081000A360EDE7C06801F01FFB226CE368514262
:100820009B1A2268E36093423EBF63685B18E360F3
:10083000022D01D116B1013E0025D9E73546D7E793
:10084000034610B41A6C08466AB1DC68596814444F
:100850008C4228BF1968DC6028BFD960D9685DF870
:10086000044B01F0F9BA5DF8044B704770B50446CB
:10087000FFF7E4FE94F8455004F124066DB2002D14
:1008800014DCFF2384F84530FFF7E2FEFFF7D6FEC5
:1008900094F8445004F110066DB2002D12DCFF23D1
:1008A00084F84430BDE87040FFF7D2BE636A002B85
:1008B000E7D0304600F0E4FC08B100F051FD013D06
:1008C0006DB2DCE72369002BE9D0304600F0D8FC9C
:1008D00008B100F045FD013D6DB2DEE738B50446D4
:1008E0000D46FFF7ABFED4E90F312268A2604B43FF
:1008F000D0185B1A13446060E3600020FF23A063FC
:1009000084F8443084F845309DB923696BB104F113
:10091000100000F0B5FC40B10A4B4FF080525A6015
:1009200040BFBFF34F8FBFF36F8FFFF791FE0120E2
:1009300038BD04F11000FFF7B6FD04F12400FFF705
:10094000B2FDF2E700ED00E070B5064648434830DE
:100950000D46FFF77FFD044648B155B100F148034D
:10096000C4E90F65236001212046FFF7B7FF204649
:1009700070BD0346F4E700002DE9FF474FF0000883
:10098000DFF8F8A0019204460F461E46C146FFF765
:1009900055FEA26BE36B9A4201D3022E1AD1324666
:1009A00039462046FFF717FF636A1BB104F12400A4
:1009B00000F066FC40B1314B4FF080525A6040BFAE
:1009C000BFF34F8FBFF36F8FFFF742FE012004B0DC
:1009D000BDE8F087019D1DB9FFF73AFE0020F6E75C
:1009E000B8F1000F02D102A800F086FCFFF730FE3C
:1009F00000F09EFAFFF722FE94F84430FF2B08BF68
:100A000084F8449094F84530FF2B08BF84F8459053
:100A1000FFF71EFE01A902A800F07AFC38BBFFF721
:100A20000DFEA26BE36B9A420FD1FFF711FE019905
:100A300004F1100000F000FC2046FFF717FF00F063
:100A400005FB50B14FF00108A1E7FFF701FE20467A
:100A5000FFF70CFF00F0FAFAF4E74FF08053CAF802
:100A6000043040BFBFF34F8FBFF36F8FEAE72046DC
:100A7000FFF7FCFE00F0EAFAB0E700BF00ED00E08F
:100A8000F8B504461746EFF31186402282F3118829
:100A9000806BE26B904201D3022B1ED194F845503B
:100AA0001A466DB22046FFF796FE6B1C10D1636AA2
:100AB0000BB9012009E004F1240000F0E1FB00285B
:100AC000F7D0002FF5D00120386086F31188F8BDEB
:100AD00001356DB284F84550EBE70020F5E70000E2
:100AE0002DE9F04385B00027DFF8E4900192044639
:100AF0000E46B846FFF7A2FDA56BDDB13146204694
:100B0000013DFFF79DFEA56323696BB104F1100061
:100B100000F0B6FB40B12E4B4FF080525A6040BF00
:100B2000BFF34F8FBFF36F8FFFF792FD012005B02A
:100B3000BDE8F083019D1DB9FFF78AFD0020F6E7AF
:100B400017B902A800F0D8FBFFF782FD00F0F0F91A
:100B5000FFF774FD94F84430FF2B08BF84F84480FD
:100B600094F84530FF2B08BF84F84580FFF770FDEF
:100B700001A902A800F0CCFBF8B92046FFF720FE3F
:100B8000A8B1019904F1240000F056FB2046FFF7BC
:100B90006DFE00F05BFA40B94FF08053C9F80430A5
:100BA00040BFBFF34F8FBFF36F8F0127A2E72046EF
:100BB000FFF75CFE00F04AFAF7E72046FFF756FE23
:100BC00000F044FA2046FFF7FBFD0028EDD0B5E722
:100BD00000ED00E0054B1A6812B19A682AB90122AB
:100BE00043F8321003EBC203586070471010002026
:100BF00070B504460D461646FFF720FD94F84430C4
:100C0000FF2B04BF002384F8443094F84530FF2BB9
:100C100004BF002384F84530FFF71AFDA36B2BB9FE
:100C20003246294604F1240000F016FB2046BDE8B8
:100C30007040FFF71BBE0000F8B51A4B1A4E1D6836
:100C40000446306804300F46FFF75EFC40B9326856
:100C50001649D06A0B680122824023EA02030B6026
:100C6000631C07D137B131681148BDE8F840043141
:100C7000FFF727BC33682C195C6007D30D4B18684D
:100C80003168BDE8F8400431FFF727BC0A4B18680B
:100C900031680431FFF721FC084B1A68A24288BF73
:100CA0001C60F8BDF4100020201000207C100020F3
:100CB000CC1000202810002024100020AC100020B0
:100CC000094B0A4A1B681268D06A58B9084A126868
:100CD000012A08D8012B06D8064B1868064B1B685A
:100CE000C01A7047002070477C10002020100020A0
:100CF0002C100020AC100020F4100020064A1368CD
:100D00001968064B19B94FF0FF321A607047126824
:100D1000D268D2685268F8E724100020AC10002096
:100D20002DE9F84F9500074628460E469846FFF7EE
:100D300091FB8146002800F09E804820FFF78AFB47
:100D40000446002800F09480C0F830902A46A5217F
:100D5000484601F0AAF8D4F830B0731E04F134020A
:100D6000033613F8011F02F8011B09B19E42F8D1A6
:100D70000A9E022E28BF02264FF0000A04F1040941
:100D8000C4E90E6AE662484684F837A0043DFFF7DE
:100D900095FBC6F1030604F118005D44FFF78EFBD6
:100DA000C4F840A02461A661646284F844A042466D
:100DB000394625F00700FFF709FC0B9B206003B1C3
:100DC0001C60FFF73BFC324B324E1A68324F013247
:100DD0001A603268002A51D134601B68012B1FD180
:100DE0002E48DFF8E8802E4DFFF75DFB2D48FFF71A
:100DF0005AFB2D48FFF757FB4046FFF754FB2846A8
:100E0000FFF751FB2948FFF74EFB2948FFF74BFB43
:100E10002848FFF748FB284BC3F80080274B1D608C
:100E2000274A28491368086801331360E26A0125DC
:100E300005FA02F303430B60184B142000FB023049
:100E40004946FFF73EFBFFF703FC3B686BB1336895
:100E5000DA6AE36A9A4208D21B4B4FF080525A601A
:100E600040BFBFF34F8FBFF36F8F2846BDE8F88FA9
:100E70004846FFF717FB4FF0FF35F6E73B68002BBE
:100E8000CED13368DA6AE36A9A4298BF3460C7E722
:100E90006810002020100020C81000202C10002016
:100EA000941000204010002054100020B4100020A6
:100EB000E0100020CC10002024100020281000207A
:100EC000781000207C10002000ED00E08010002051
:100ED00013B5114B01930024104911480094234687
:100EE0003C22FFF71DFF012813D100F0EDFA012885
:100EF0000FD1402383F311880A4B4FF0FF321A6061
:100F0000094B1860094B1C6002B0BDE81040FFF7A8
:100F10006FBB02B010BD00BFA8100020141F00005E
:100F200059110000AC100020C8100020F41000205F
:100F3000024A136801331360704700BF7410002029
:100F4000014B1868704700BFF4100020024A136874
:100F500018441060704700BFF41000202DE9F84FCE
:100F60002F4B1B68002B54D12E4B1D6801351D6083
:100F70005DB92D4A2D4B1168186810602C4A196014
:100F8000136801331360FFF7B9FE2A4F3B68AB4289
:100F90004FF0000607D9284B1B68002B0CBF3046CA
:100FA0000120BDE8F88FDFF88090DFF89880DFF847
:100FB00098A0D9F800301B681BB94FF0FF333B6095
:100FC000E9E7D9F80030DB68DC6863689D42F6D356
:100FD00004F1040B5846FFF797FAA36A1BB104F11A
:100FE0001800FFF791FAE26AD8F800100123934045
:100FF00014200B4300FB02A05946C8F80030FFF74D
:1010000060FA0E4BE26A1B68DB6A9A4228BF01262F
:10101000CFE70B4A1368013313600026BBE700BF1C
:1010200074100020F410002024100020281000204C
:10103000B0100020AC100020F8100020201000207C
:10104000701000207C1000202C1000202DE9F341AE
:10105000FFF7F4FA2B4B1A68013A1A601C6834B196
:101060000024FFF7F5FA204602B0BDE8F081264BD8
:101070001B68002BF4D0254D254EDFF8A8801FE01B
:10108000EB68DC6804F11800FFF73EFA211D084602
:101090000191FFF739FAE26A30680199012707FAEE
:1010A00002F30343142000FB02803360FFF709FAC8
:1010B000184BE26A1B68DB6A9A4201D3164B1F6029
:1010C0002B68002BDCD10CB1FFF718FE134D2C68F8
:1010D00044B1114E0127FFF741FF00B13760013CD9
:1010E000F9D12C600C4B1B68002BB9D00C4B4FF086
:1010F00080525A6040BFBFF34F8FBFF36F8F012400
:10110000AFE700BF7410002068100020B41000206A
:101110007C10002020100020F8100020701000200B
:1011200000ED00E02C10002008B548B9094B4FF045
:1011300080525A6040BFBFF34F8FBFF36F8F08BD1F
:101140000021FFF7F5FEFFF777FDFFF77FFF00288F
:10115000ECD0F4E700ED00E0F8B51B4C1B4F1C4E43
:101160002368DBB91B4B1B68012B08D91A4B4FF0C6
:1011700080525A6040BFBFF34F8FBFF36F8FFFF7AE
:101180009FFD0128EBD9FFF7D3FEFFF799FD01285A
:1011900001D9FFF7BBFAFFF759FFE0E7FFF74EFA77
:1011A000FB68DD68281DFFF7AFF93368013B33604A
:1011B0002368013B2360FFF74BFA286BFFF772F9B6
:1011C0002846FFF76FF9CBE76C100020E0100020F5
:1011D000681000202C10002000ED00E0114B1A6870
:1011E000114B30B512B101221A6030BD1A600F4B9D
:1011F0000F491B68B3FA83F3C3F11F03142505FBE2
:1012000003F2881808324468646844600A449442CF
:1012100004BF6268426005FB03135B68DA68054B34
:10122000E2E700BF74100020F81000207C100020BE
:101230002C1000202010002010B5064B0C46196819
:101240001831FFF74AF920460121BDE81040FFF7A9
:10125000F3BC00BF2010002038B5084B0D461968BC
:1012600014461831FFF72DF9002C21460CBF2846F3
:101270004FF0FF30BDE83840FFF7DEBC2010002003
:10128000C36837B5DC6804F1180108460191FFF71F
:101290003BF9134B01991B6803BB211D08460191C3
:1012A000FFF732F90F48E26A05680199012393407C
:1012B0002B4303600C4B142000FB0230FFF701F9B5
:1012C0000A4BE26A1B68DB6A9A4285BF084B012021
:1012D00000201860FFF712FD03B030BD0548EDE7B0
:1012E000741000207C1000202C1000202010002002
:1012F000F8100020B4100020034B1B680360034B60
:101300001B684360704700BFB0100020F41000203D
:1013100070B50C460546FFF791F90F4B1968236825
:101320005A1C10D00D482E6800686A68864201D0A9
:101330008A420FD9881A83420AD95B1A1344236060
:101340002846FFF7D9FF0024FFF782F9204670BD39
:10135000002323600124F7E7F4100020B0100020E0
:10136000014B01221A607047F8100020084B1868E2
:1013700060B9084B1B6853B9074B1868074B1B68CB
:10138000013B984214BF01200220704700207047A3
:10139000B4100020F8100020CC10002068100020AD
:1013A000054B1B6833B1054B1B68002B0CBF02209B
:1013B0000020704701207047C810002074100020E2
:1013C000F7B5044610B9002003B0F0BDC36BC16A85
:1013D000826B013B9142C363F5D0002BF3D1011D19
:1013E00008460191FFF790F8104F114A019950B942
:1013F000E06A14264643BB592BB913680125854082
:1014000023EA05031360A36BE362C3F10300A06149
:101410001068012404FA03F50543142000FB03704F
:101420001560FFF74EF82046CEE700BF2C100020D5
:101430007C100020F8B50F4CFFF700F92568ADB916
:101440000D4F0E4E3846FFF72EF83046FFF72BF8BB
:101450000B4B1F600B4B2A46102120201E60FFF70C
:1014600073FA206010B10849FFF7B4FBBDE8F840FB
:10147000FFF7EEB8301100200411002018110020F1
:10148000FC10002000110020191F0000914208B537
:10149000416000610AD8D21A83699A420DD2084B82
:1014A000011D1868FFF719F8002008BD9A4201D203
:1014B000994202D2034B011DF3E70120F5E700BF7B
:1014C00000110020FC10002007B5FFF7B3FF084B08
:1014D000186848B1074B0193022300930649074857
:1014E00000235022FFF71CFC03B05DF804FB00BF93
:1014F00030110020341100201E1F0000D9150000FB
:101500007FB50F4C0546206816461A4680B105295E
:10151000CDE9001602950DDCFFF742FF00230228FB
:1015200008BF089A206818BF1A466946FFF724FAD0
:1015300004B070BD00236946FFF7A2FAF8E700BFC8
:10154000301100202DE9FF47DFF888800646FFF7BD
:10155000F7FCD8F800308342054634D91B4F4FF0D2
:1015600000093B681A685AB9194A11683960136052
:10157000012328463360C8F8005004B0BDE8F08766
:10158000DB68DC68D3F800A0211D08460391FEF754
:10159000BBFF636A20469847E3690399012BE0D1BA
:1015A000A36953449A4505D2386863602461FEF705
:1015B00094FFD6E70023CDF8009052461946204606
:1015C000FFF79EFFCDE70023D3E700BFFC1000200C
:1015D000001100202C1100202DE9F047594E88B051
:1015E0004FF0000833681D68002D5BD0DB68D3F82E
:1015F0000090554FFFF79CFC04A8FFF7A3FF049C45
:101600008246002C6AD1002D4ED0484552D3FFF7B8
:101610001DFD3368DB68DD68281DFEF775FFEB698B
:10162000012B0ED1A9694B46524649442846FFF783
:101630002DFF30B1009423464A4621462846FFF745
:101640005FFF6B6A284698473868002204A9FFF7B5
:1016500047FA0028C6D0049B0698002B41DB069C65
:101660006369002B44D103A8FFF76CFF049B02467B
:10167000092BE9D801A151F823F000BFF9160000A9
:10168000F9160000F9160000491600002B1700009B
:101690003B170000F9160000F9160000491600007B
:1016A0002B170000A946A4E7284B1B681C68B4FA56
:1016B00084F4640938682246A9EB0A01FFF798FA16
:1016C000FFF7C4FC0028BFD1214B4FF080525A6075
:1016D00040BFBFF34F8FBFF36F8FB5E7FFF7B6FC87
:1016E000B2E7059B07999847049B002BACDBB6E754
:1016F000201DFEF709FFB6E7A169059B20461944A6
:10170000FFF7C4FE00289FD0636A20469847E3692C
:10171000012B99D1A2690599CDF8008000230A44D4
:1017200020461946FFF7ECFE8EE70599A1610346B6
:1017300001442046FFF7AAFE86E72046FEF7B2FEE8
:1017400082E700BFFC1000203011002000110020B3
:1017500000ED00E01FB50021039001AA44F2010052
:10176000CDE9011100F004F805B05DF804FB0000BC
:1017700072B6094BD3F8F020D20700D500BEBFF3F4
:101780004F8FD968054A01F4E0610A43DA60BFF37C
:101790004F8F00BFFDE700BF00ED00E00400FA0539
:1017A00072B6024A13680133136070473811002083
:1017B000034A1368013B136003B962B6704700BF68
:1017C00038110020FFF7ECBFFFF7F2BF38B5074C28
:1017D000051E04F1080318BF1C4623682BB11A68C4
:1017E00022605B6828469847F7E738BD441100201F
:1017F00020B9054B01225A70FFF7E8BF012802D13A
:10180000014A9070F8E770473C11002038B50C4C45
:1018100023789BB90B486360A3602361E36000F009
:1018200049F8054600F052F801232370064BD3F81F
:1018300000340BB10123A370284638BD8525F5E798
:101840003C110020F11700000000014038B5134C96
:10185000A378054603F0FF0073B115B16B68012052
:1018600098470020FFF7AEFFE3680133E3600020F4
:10187000BDE83840FFF7A8BFFFF7A4FF25B12269F4
:1018800013463BB92A602561E368002BECD100F0D8
:101890002FF8E9E79D42F7D01B68F2E73C110020E2
:1018A00000F18040002382B0036003680193019B34
:1018B00002B07047044A137923B901211060918066
:1018C000184670478520704750110020074B1A6852
:1018D000D20704D4C02283F8002301221A604FF0FB
:1018E00080430122C3F81825704700BF00E100E0E3
:1018F00008B54FF48270FFF7D3FF4FF08043022208
:10190000C3F8042301229A6008BD00004FF0804113
:1019100010B5D1F8003163B14FF48070FFF7C0FF0C
:101920000D4B58790122C1F8082310B95A711B6870
:1019300098474FF08042D2F8043163B14FF482707F
:10194000FFF7AEFF0223C2F80833034BBDE8104097
:101950001B680120184710BD5011002000F1804085
:1019600000F5C040002382B0036003680193019B2F
:1019700002B0704703681F2B83BF03F01F0303608F
:1019800001484FF0A04070470003005007B5019098
:1019900001A8FFF7EFFF019B00EB8300D0F80037B1
:1019A00023F44033C0F80037D0F8003743EA014150
:1019B000C0F8001703B05DF804FB00002DE9FF47F5
:1019C0000024CDE90244584D4FF48072012102F108
:1019D000804303F5C04390B21B68012B06D1D5F8B4
:1019E00004330B4202D0FFF7B9FF0C430432B2F5C7
:1019F000907F4FEA4101EAD14B4BD3F87C31012B68
:101A000011D14FF4BE70FFF7A9FF4FF0A04344F08F
:101A10000044D3F820250292C3F82025D3F82028CB
:101A20000392C3F82028E3B2D3B1404F012600252A
:101A3000344210D0AB0003F1804303F5C043D3F828
:101A40001005D3F8101557F8253023B1C1F3014123
:101A5000C0F3052098470135082D4FEA4606E7D127
:101A6000002C59DA314D324C324E4FF0000801272C
:101A700016F9013B5A1C3CD0C3F3C20104A801442F
:101A80005FFA83F911F8081C03F03F0203F0070323
:101A900007FA03F319422CD001A80192FFF76AFF5D
:101AA000019B03F5E07350F82330C3F3014ABAF108
:101AB000020F0CBF032102211046FFF767FF01A8A8
:101AC0000192FFF757FF019B07FA03F3C0F8203597
:101AD000AB1893F9303055F8233053B14FEA9911D0
:101AE000032904D0BAF1020F19D1012901D11046FE
:101AF000984708F10108B8F1040FB9D14FF0A0439D
:101B0000D3F820250292C3F82025D4F8203503937A
:101B1000C4F820351343A7D104B0BDE8F087BAF16B
:101B2000030FE6D10229E1E70060004058110020D0
:101B300000030050B81100201F288CBF094A4FF045
:101B4000A0424FF00103D2F8041588BF00F01F0037
:101B500003FA00F020EA01030840C2F80835C2F891
:101B60000C0570470003005008B50C20FFF7E4FF98
:101B70004FF4C870FFF7D8FAF7E708B52920FFF748
:101B8000DBFFC820FFF7D0FAF8E700001F2886BF68
:101B900000F01F00044B4FF0A04300F5E07003225B
:101BA00043F82020704700BF0003005013B5FFF733
:101BB0002DFE08B1FFF7CEFD0120FEF72CFC112011
:101BC000FFF7E4FF0C20FFF7E1FF2920FFF7DEFF1E
:101BD00002240E4B0E4901934FF4827200230D48EC
:101BE0000094FFF79DF80C4B0C490D48CDE90043DC
:101BF0004FF482720023FFF793F80A4A136943F007
:101C000004031361FFF764F9FEE700BFC41100206D
:101C1000261F00007B1B0000C81100202B1F0000A6
:101C2000691B000000ED00E04FF08053D3F8300155
:101C3000A0F1080358425841704700004FF080530C
:101C4000D3F83021082A06D1D3F83431052B02D835
:101C5000024AD05C70470020704700BF361F00006A
:101C6000024AD2F80034002BFBD0704700E001405C
:101C700010B5FFF7D9FF40B14FF080430022C3F801
:101C80000C21C3F81021C3F83825FFF7CDFF002839
:101C900046D04FF08052654BD2F80414C3F820159B
:101CA000D2F80814C3F82415D2F80C14C3F8281578
:101CB000D2F81014C3F82C15D2F81414C3F8301548
:101CC000D2F81814C3F83415D2F81C14C3F8401510
:101CD000D2F82014C3F84415D2F82414C3F84815D8
:101CE000D2F82814C3F84C15D2F82C14C3F85015A8
:101CF000D2F83014C3F85415D2F83414C3F8601570
:101D0000D2F83814C3F86415D2F83C14C3F8681537
:101D1000D2F84014C3F86C15D2F84424C3F87025E7
:101D2000FFF78CFF18B1424B424AC3F88C26FFF7ED
:101D300085FF18B1404BFB22C3F81825FFF77EFF43
:101D400070B14FF080414FF08053D1F8E42ED3F8BA
:101D5000583222F00F0203F00F031343C1F8E43EA0
:101D6000FFF76CFF20B1354B4FF40072C3F84026EB
:101D7000FFF75AFF48B14FF08043D3F80024D20751
:101D800044BF6FF00102C3F800242D4AD2F8883016
:101D900043F47003C2F88830BFF34F8FBFF36F8FE7
:101DA0004FF08053D3F83021082A0ED1D3F83431C4
:101DB000052B02D8234AD35C3BB14FF01023D3F854
:101DC00008224FF08043C3F858254FF01023D3F872
:101DD0000022002A03DBD3F80432002B22DA1A494E
:101DE00001234FF01020C1F804351224FFF738FF0B
:101DF000C0F80042FFF734FFC0F80442FFF730FF9D
:101E00000023C1F80435FFF72BFFBFF34F8F0C49B8
:101E10000E4BCA6802F4E0621343CB60BFF34F8FEE
:101E200000BFFDE70A4B0B4A1A6010BD00C000401E
:101E3000005000404881030000F000400090024044
:101E400000ED00E0301F000000E001400400FA0552
:101E5000000000200090D003844640EA010313F004
:101E6000030F18D18446202A0BD32DE9F007B1E8DF
:101E7000F807A0E8F807A2F12002202AF7D2BDE86F
:101E8000F007042A07D351F8043B40F8043BA2F1C1
:101E90000402042AF7D2002A05D011F8013B00F809
:101EA000013B013AF9D1604670478446002A2DD0A3
:101EB00010F0030F04D000F8011B013A26D0F7E719
:101EC000C9B241EA012141EA0141202A12D3A2F11B
:101ED00020022DE9F0030B460C460D460E460F4638
:101EE00088468946A0E8FA03203AFBD2BDE8F00311
:101EF00020320BD0042A05D340F8041B043A05D045
:101F0000042AF9D200F8011B013AFBD16046704760
:101F10000D0E0F1049444C4500546D725100546D24
:101F20007220537663004C454430004C45443100E8
:0C1F3000000000000101010000000000A2
:041F3C000090D0033E
:040000030000037581
:00000001FF
