:020000022000DC
:1060000000000120756302005D6302005F6302000F
:106010006163020063630200656302000000000028
:1060200000000000000000000000000067630200A4
:1060300069630200000000006B6302006D630200F0
:10604000118102006F630200398302003989020066
:106050006F6302006F630200C1810200458C020081
:106060006F6302006F6302006F6302006F630200E0
:106070006F6302006F6302006F6302006F630200D0
:106080006F630200DD6E02006F6302006F63020047
:10609000796F02006F63020091BA02006F63020021
:1060A0006F6302006F6302006F6302006F630200A0
:1060B0006F6302006F630200000000000000000038
:1060C0006F6302006F6302006F6302006F63020080
:1060D0006F6302006F6302006F6302000000000044
:1060E00000000000000000000000000000000000B0
:1060F00000000000000000000000000000000000A0
:10610000000000000000000000000000000000008F
:10611000000000000000000000000000000000007F
:10612000000000000000000000000000000000006F
:10613000000000000000000000000000000000005F
:10614000000000000000000000000000000000004F
:10615000000000000000000000000000000000003F
:10616000000000000000000000000000000000002F
:10617000000000000000000000000000000000001F
:10618000000000000000000000000000000000000F
:1061900000000000000000000000000000000000FF
:1061A00000000000000000000000000000000000EF
:1061B00000000000000000000000000000000000DF
:1061C00000000000000000000000000000000000CF
:1061D00000000000000000000000000000000000BF
:1061E00000000000000000000000000000000000AF
:1061F000000000000000000000000000000000009F
:10620000354936480A1A02D0072291438D4634494F
:1062100034480A1A06D00722914381F309880222E2
:1062200082F3148830483149314A00F044F831484B
:106230003149324A00F03FF831483249324A00F0E1
:106240003AF832483249334A00F035F83248334997
:10625000334A00F030F833483349344A00F02BF821
:1062600033483449344A00F026F83448344900228F
:1062700000F02CF833483449002200F027F8334866
:106280003349091A082902DB002202604160314AC1
:1062900090471F481F49884205D00268043003B464
:1062A000904703BCF7E700208646EC46002000211B
:1062B000294A9047FEE7884207D0521A05D0037852
:1062C00001300B700131013AF9D17047884202D098
:1062D00002700130FAE770470000012000E0002062
:1062E000000001200000012064D30200982A002051
:1062F000482B0020D4630200D4630200DCC20200F9
:1063000064D30200982A0020982A0020E8C30200E3
:10631000E8C30200E8C30200E8C30200E8C30200C9
:10632000E8C30200E8C30200E8C3020062D302002F
:1063300014D40200482B0020482B0020482B0020BA
:106340008C3C00208C3C00208C3C00208C3C0020AD
:106350008C5C00209D6302003DA10200FEE7FEE789
:10636000FEE7FEE7FEE7FEE7FEE7FEE7FEE7FEE705
:10637000704700BF1048804710484FF0070188431E
:1063800085460F4880470F48016841F4700101605D
:10639000BFF34F8FBFF36F8FFFF732BF0A480B4930
:1063A0000B4A884207D0521A05D0037801300B708F
:1063B0000131013AF9D170477163020000000120F8
:1063C000697C020088ED00E0E8C30200982A002002
:0463D000982A0020E7
:1063D4007047000007B5044B0093044A402300F0C3
:1063E40032F803B05DF804FBF5630200492B00208A
:1063F4002DE9F84388461446B2B10F4B0F4E0325DE
:10640400002743F00109224608EB0701002004F0AD
:106414005BF80744241A48B933782BB14FF47A4017
:10642400C847013D02D13570BDE8F88301233370BC
:10643400002CE8D1F8E700BFF0C30200482B00208D
:10644400704704F071B8F0B595B01D46164608467D
:106454000C4601F017FB1A9B0D93CDE90865002546
:106464002B46082205A920460A958DF82C500C9538
:1064740001F024FB079B0293069B03939DF81430C1
:106484008DF8115003F00302012A1DD1BDF8142028
:10649400059DC3F3C203C2F383168DF81030B20016
:1064A40008230EA9204601F009FBC5F3952508AB86
:1064B4000093324602AB0EA9284600F079FB204631
:1064C40001F0E4FA15B0F0BD022AF8D1BDF8165077
:1064D400C3F3C203C5F389158DF810300827082DBE
:1064E4002E4628BF08263B4632460EA9204601F018
:1064F400E5FAAD1B08AB02AA31460EA8374400F0FA
:10650400BBFB002DEBD1DAE708B5FFF79AFF04488F
:10651400042100F0B7FA034B01225A7108BD00BFF1
:10652400D8C30200982A0020037813F0040216D07E
:1065340003F00303012B03D0022B09D00120704781
:106544000A6800880232C0F3831002440A60F5E747
:106554000B684288023303EB92130B60EEE710469C
:10656400704700002DE9F04FDFF830A187B00F46E7
:1065740000230446861C0DF1070015468DF80730EC
:1065840000F02AFFDAF800103960DAE90132134426
:1065940001335B1A0AF21C470AF583690AF21448AC
:1065A400B3421CD30020002D73D004F00F039B01D1
:1065B40043F0050363F30F00DAF80020DAF808303B
:1065C4001340033332444AF823009DF80700CAF805
:1065D400002000F025FF012007B0BDE8F08F012165
:1065E400384600F07EFF484600F093FF404600F036
:1065F40090FFDAF80400DAF808B0029000EA0B0021
:1066040003300AEB800002A9FFF78EFF029B50BB08
:106614000BEA03020AEB820203F1020CD268039232
:10662400013303EA0B0B0AEB8B0B02F00302012A82
:10663400DBF80C10CDF808C023D0022A16D083460C
:10664400404600F069FF10B1029BCAF80430594675
:10665400384600F046FFDAE901231344DAF8002053
:1066640001339B1A9CE70BEA0300C9E7BDF80E301F
:10667400C3F3891303334FEA114B0CEB93030293D7
:10668400DEE7BDF80C30C3F383134FEA114B6344C8
:10669400F5E7A40544F006008EE700BF5C2C00205B
:1066A4000B4B0C48FF2210B59A600022C3F8182443
:1066B400C3E90022C3F8142483F8202401F09BF9D1
:1066C400044610B9044801F043FA204610BD00BF47
:1066D4005C2C002044C302002CC4020030B50A4CD8
:1066E40071B10A4A0A49121BD20800239A4201D105
:1066F400002030BD31F82350854202D00133F5E744
:10670400034654F83300F4E758C30200D8C3020028
:10671400982A0020094B013903EBC000032909D84A
:10672400DFE801F00A02040604207047007970478C
:1067340040797047002070470220704758C3020018
:10674400034BD3E90030C31A58425841704700BF85
:106754005C2C00202DE9F04387B0FFF7F1FF0646DB
:10676400002840F0FE80804CC4F81804BFF34F8F1B
:106774006368A56802932B40033304EB830002A9EA
:10678400FFF7D2FE029B18B1D4F81824002A62D075
:1067940005EA0302991C013304EB82022B4004EB4B
:1067A4008303D268DB68049302F00303022B039291
:1067B400029163D1BDF80E306C48C3F38917502F92
:1067C400B84628BF4FF0500808F1080168F38F134A
:1067D400C1F30901ADF80E3001F025F90646002891
:1067E40000F0AA8001F04EF90023082203A93046E4
:1067F40001F05AF9029925EA01020132B8EB820F3D
:106804004FEA820333D95FFA88F863B32940DDB2D3
:10681400A8EB050803315FFA88F9A846544D04EB48
:10682400810108234246304601F03EF93DB108F1AA
:106834000803DBB24A462946304601F035F9029B8B
:10684400033703EB97070297D4F81834002B4BD186
:10685400D4F810545BE0226893428CD362603046D3
:1068640007B0BDE8F08342491D469946D9E729405F
:1068740003310823424604EB8101DDE7012B5BD1A0
:10688400BDF80C303948C3F38311062928BF06210B
:1068940061F38913023101F00F018900ADF80C3066
:1068A40001F0C1F80646002846D001F0EBF80023B9
:1068B400082203A9304601F0F7F80027BDF80C20A0
:1068C400C2F38312BB00974203F10803BCD20299BE
:1068D4004A1C29400331029204EB81010422304610
:1068E40001F0E2F80137E9E7304601F0CFF8FFF7AD
:1068F40027FF80F00100C6B2B1E7EB685B7923B1F2
:106904002B6831461B6828469847EB681D68002DA4
:10691400F3D1304601F0BAF80DF107008DF80750B5
:1069240000F05AFDD4F818340BB9029B63609DF84B
:10693400070000F075FDDAE7D4F8104454B90D4BA4
:106944000D480E49C01AC008000440F0020000F0CF
:1069540063F8CCE7236820469B689847E3681C6883
:10696400ECE700267BE700BF5C2C002044C3020058
:10697400682C002058C3020098C3020014C402000B
:106984002DE9F74F224E04460F46924601A90122F3
:106994001846D6F808909B46FFF7E4FD20B3019D06
:1069A4004FF00008AA1CD84508EB020126D119486B
:1069B400002100F067FD80F31000000440EA144059
:1069C400E4006B1C04F0380403EA090305EA090532
:1069D40044F0010406EB8303033544EA881444EAD3
:1069E4008724D86046F8254096F820341BB1FFF779
:1069F400B1FE0028FBD103B0BDE8F08F09EA010124
:106A040006EB81015AF82830CB6008F10108CAE787
:106A14005C2C00207830002000231A46FFF7B0BF1A
:106A240007B50123019201AAFFF7AAFF03B05DF89D
:106A340004FB07B5CDE9002302236A46FFF7A0FF54
:106A440003B05DF804FB1FB5CDE90023069B029358
:106A5400079B03936A460423FFF792FF05B05DF892
:106A640004FB7FB5CDE90123089B0393099B0493A1
:106A74000A9B059301AA0523FFF782FF07B05DF87F
:106A840004FB000030B50F4CD4F81024034600205A
:106A9400114631B9D96808714AB9C4F810340A608A
:106AA40030BDC9680D79854206D00968F1E7D2681E
:106AB40014680C601360F3E701300A28E8D14FF042
:106AC400FF30EDE75C2C002038B5084B0125D3F8E6
:106AD400104483F8205404B938BDE3685D71236819
:106AE40020465B689847E3681C68F4E75C2C002048
:106AF40030B5C38885B004460D4633B1144A0092BC
:106B04001449154A284600F06AFD217A05291DD04A
:106B1400637A4BB1A088FFF7FDFD104B104953F881
:106B24002020284600F05BFD227A0E4BA08853F803
:106B3400222003920021FFF7D1FD039A0A4903465C
:106B4400284605B0BDE8304000F049BD05B030BD71
:106B540058C4020040C4020038C40200C4C4020085
:106B640049CC0200E8C402005DC4020007B5034634
:106B74000846197A052911D05B7A2BB1094A0A49CA
:106B8400019000F02CFD01980849019000F027FDC8
:106B9400019803B05DF804EB00F016BD002AF8D0AC
:106BA400F2E700BF58C4020049CC020055C40200F9
:106BB4002DE9F04385B01F460C9D002395F80C90F9
:106BC4002B7306460C46904629463846FFF790FF3D
:106BD400B8F1060F09D8DFE808F00412181F2833AB
:106BE40040003146284600F0FAFC00222946384687
:106BF400FFF7BCFF85F80C9005B0BDE8F083226870
:106C04003146284600F0EBFCEFE7D4E90023314697
:106C1400284600F0E4FCE8E7A36800933146D4E991
:106C24000023284600F0DBFCDFE7E3680193A36858
:106C340000933146D4E90023284600F0D0FCD4E781
:106C440023690293E3680193A36800933146D4E96E
:106C54000023284600F0C3FCC7E763690393236954
:106C64000293E3680193A36800933146D4E90023B7
:106C7400284600F0B4FCB8E708292DE9F74F804610
:106C84000E4617461C463DD800251B7B257321461E
:106C940010460193FFF72CFFDFF88CA0DFF88CB0CF
:106CA400AE4232D918F805205946204600F097FC28
:106CB4000135082DF4D11B49DFF874A0DFF874B056
:106CC400204600F08CFC4FF000094E4524D918F8FA
:106CD40009507E2D1ED8284605F0D2F9002814BF8D
:106CE4002A462E225946204600F079FC09F1010972
:106CF400B9F1080FE9D1012221463846FFF736FFE2
:106D0400019B237303B0BDE8F08F5146204600F089
:106D140066FCCDE72E22E5E75146204600F05FFCF5
:106D2400E4E700BF71C402006DC4020067C402003E
:106D34006FC4020073C402001FB50021039001AAAE
:106D440044F20100CDE9011100F004F805B05DF84A
:106D540004FB000038B572B6FFF7B6FEFFF7FAFC85
:106D64000028FBD1104B114C114D1249E41AE408D0
:106D7400240444F00100FFF74FFED5F8F030DB07A0
:106D840000D500BE0C4944F00200FFF745FEBFF3F6
:106D94004F8FEA68094B02F4E0621343EB60BFF3E0
:106DA4004F8F00BFFDE700BF58C3020098C3020025
:106DB40000ED00E0FCC4020008C502000400FA056E
:106DC40010B58468C2688388121B934208D3C268D2
:106DD40013400268D154C3680133C360002010BD5E
:106DE4000420FCE78268C3689A420AD082688388D8
:106DF40013400268D35C0B70836801338360002006
:106E04007047052070470000094B5A789978013281
:106E1400D2B2914208BF0022197891421FBF02707A
:106E24005878182202FB003014BF04300020704749
:106E34001831002073B5054600240DF107000E46F5
:106E44008DF8074000F0C8FA0DF10600FFF7DCFFEB
:106E540090B10670094B9DF8062045605A709DF864
:106E6400070000F0DDFA24B9054B4FF48012C3F893
:106E74000021204602B070BD0424F0E71831002040
:106E840000E100E0024B4FF43C6043F0010318477B
:106E940020C5020038B50C4B0C4C4FF40032C3F83B
:106EA400802001254FF48033C4F84833C4F80833F4
:106EB4006560FFF7E7FF064BA56000241C60FFF741
:106EC400E1FF044B1C7038BD00E100E000100140FC
:106ED4003432002025320020F8B51F4B1F491B68AF
:106EE4000025C1F84051C1F84451C1F84851C1F8D6
:106EF4004C51C1F80051C1F804514BB3D1F80445C9
:106F040017490968641A24F07F442F461A68A2427C
:106F140009D8A41A15441A7CDE691AB1D3E90520EC
:106F24001F749047AEB90F4A0F4B11781B788B42F0
:106F340005D10133DBB2022B08BF00231370127892
:106F44000A4B43F822500A4B4FF48012C3F8002135
:106F5400F8BD3346DAE700BF3832002000100140A4
:106F64003432002031320020303200202832002018
:106F740000E100E02DE9F04FA14AA2491378097815
:106F8400A14D994285B03CD00133DBB2022B08BF3E
:106F9400002313709D4912789D4B0F6853F822000B
:106FA4003B1823F07F4300220B602B6816461446DF
:106FB400944613B942B12B6006E0196881420ED998
:106FC40002B12B60091A196001272B68DFF848A267
:106FD40001934FF00008BEB9DFF844B260E0401AF4
:106FE4000C44D968D3F81CE0C3F800C031B13A1995
:106FF40022F07F42C3E90121DE611E46734601226D
:10700400D7E700263746E0E73446F6697F4B6068E9
:107014001B68DFF810C2A168C21A22F07F426245E1
:1070240000F2A6800A442260012222742A68002306
:10703400C4E90133E361002A40F0A3802C60CAE76D
:107044009BF802105A1CD2B291428BF8002004BF64
:1070540000228BF80020182202FB03B32A68197956
:107064009C68022975D003297FD0012918D1207C7E
:10707400B0B9D3E90312A2605A69E2609A69654B18
:10708400A2611A78002A18BF01466160BEE78C42EB
:1070940000F094808946C9690029F8D1002323743B
:1070A4009BF800309BF801209A42C9D12B68B8F1B3
:1070B400000F04D1019A9A4201D1002F43D0002B32
:1070C40079D0D3F800A0544D504BD5F804751C6802
:1070D400DFF854813E1B98F8003026F07F460336D3
:1070E4009BB94FF48033C5F84433C5F804334B4B94
:1070F4004FF400324FF00109C3F880211A60C5F83B
:107104000090FFF7BFFE88F80090B2452CBF5444AE
:10711400A41924F07F44C5F84045D5F80435DB1B99
:1071240023F07F43E41B033324F07F44A3420AD9B2
:10713400D5F80435C5F84035FFF7A4FE374B4FF4B6
:107144000032C3F80021334B00221A7005B0BDE8A9
:10715400F08F114691469FE71174D2690123002AEA
:10716400FAD1002B9CD02A609AE700231946F6E74F
:107174001B1A23F07F438B4234BFCB1A00232360B6
:1071840052E721681368994213D85B1A1360E261CD
:1071940054E7091AD8691A4638B103461868884270
:1071A400F7D3401A1860184613462160E061DC6189
:1071B40011E71346F2E7FFF76DFEC4E74C4511D122
:1071C400D3692B6073B9DFF844E00120CDE90212E2
:1071D400CAF80800CEF800300E4B1870FFF752FEC4
:1071E400DDE902120B68C969C9F81C1011B10868FD
:1071F40003440B602B68934218BF4FF001084DE71E
:107204003032002031320020383200203432002065
:1072140028320020243200200010014000E100E068
:1072240018310020FEFF7F002532002008B5FFF74B
:1072340031FE104B00200B2218809A700E4B186000
:107244000E4B18700E4B18700E4B4FF48012C02169
:10725400C3F8802183F814131A6002F18042A2F566
:107264006F22C2F8080583F81113074BD2F80425DE
:107274001A6008BD18310020383200203032002056
:107284003132002000E100E034320020074B9B78CB
:107294004BB132B128B10368187C20B959745A61D2
:1072A4007047072070470820704700BF183100203E
:1072B4002DE9F743DFF8848098F8023005460E463E
:1072C4001746ABB3A0B3042930D9436983B3437CD5
:1072D4000024012B0DF107000CBF8946A1468DF84F
:1072E400074000F079F80DF10600FFF78DFDD8B1E5
:1072F400012303700F4B4560D3F80435C0E90497AC
:10730400C0E902369DF8063088F801309DF8070080
:1073140000F086F824B9084B4FF48012C3F800211A
:10732400204603B0BDE8F0830424EFE70724F7E721
:107334000824F5E70010014000E100E018310020C6
:10734400064A92783AB130B1426922B100220274FD
:107354000221FFF76FBD0820704700BF18310020DD
:107364000648074A03780749D35C012213B1043065
:1073740001F08EB80C3001F029B800BFA02A00201B
:10738400803200204C32002010B501460E48FFF731
:1073940017FD0446A8B90D480D4A0378D35C63B1C0
:1073A400043001F069F860B90A490748FFF71AFD8B
:1073B40038B9BDE81040FFF7D3BF0C3000F0FAFF36
:1073C400F1E7204610BD00BF3C320020A02A002077
:1073D400803200204C32002070B5EFF3108672B674
:1073E4000C4A946801239CB993600B4B0B4DD3F862
:1073F400801029401160C3F88050D3F88410516084
:107404004FF0FF32C3F88420047006B962B670BD31
:107414000370FAE75032002000E100E0FC06FFBDF3
:10742400084B9A6810B55AB150B9EFF3108172B68F
:10743400054A1C6814605C685460986001B962B6BF
:1074440010BD00BF5032002000E100E001F01F0237
:107454004B090121914000EB830000F01EB801F0BC
:107464001F0301229A404B0900EB8300D14300F033
:107474002CB84B0901F01F0150F82300C84000F05C
:107484000100704710B5034653E8000F0A4643E86D
:10749400002494F0000FF7D110BD10B5034653E853
:1074A400002F42EA010043E8000494F0000FF6D1F3
:1074B40010BD10B5034653E8000F00EA010243E88B
:1074C400002494F0000FF6D110BD10B5034653E824
:1074D400002F02EA010043E8000494F0000FF6D103
:1074E40010BD10B5034653E8002F02EB010043E83A
:1074F400000494F0000FF6D110BD10B5034653E814
:10750400002FA2EB010043E8000494F0000FF6D131
:1075140010BD0121FFF7C1BF0021FFF7CABF10B59D
:1075240090B1D0E9012301689B1ADBB20A60013BE8
:10753400DBB2FF2B026802D10020107110BD11686C
:107544004C1C14600B70F2E70E20F7E737B50546C4
:1075540000240DF107008DF80740FFF73DFF2A686E
:107564006B68116899420ED9481E106011F8013CED
:10757400EC68298A01FB0344AB6811791B1ADBB25E
:10758400994238BF13719DF80700FFF749FF204661
:1075940003B030BD37B5054600230DF107000C4696
:1075A4008DF80730FFF718FF2A681368591C11601B
:1075B400E968641A298AB4FBF1F41C709DF8070089
:1075C400FFF72EFF03B030BD826810B504462AB120
:1075D40043690168006998470023A36010BD0EB495
:1075E40003B5039921B104AB01AA019300F076F825
:1075F40002B05DF804EB03B070470A2938B50446BD
:107604000D4602D10D21FFF7F8FFA3682268591C2B
:10761400A160D554D4E901329A4204D32046BDE88E
:107624003840FFF7D1BF38BD2DE9F84F9846DDE962
:107634000A43154682460F460A464FF00109AA42FC
:107644000FD2C14538BFC14613F0010B01D16CB94B
:1076540000240126B8F1010F1BD908F1FF386E434D
:10766400F8E709F10109B2FBF5F2E8E79B070ED54B
:10767400B8F1000F0CBF30262026A145E9D2013C09
:1076840031465046FFF7B9FF002CF6D1E0E720263B
:10769400F3E7B7FBF6F39D42E1D9DFF83C80B7FB93
:1076A400F6F3504618F8031006FB1377FFF7A5FF0F
:1076B4003346AB42B6FBF5F6F1D2BBF1000F02D074
:1076C4000CB1A14501D3BDE8F88F20215046013CFF
:1076D400FFF793FFF4E700BF26C502002DE9F74F3B
:1076E400054617468846002900F03E8118F8011B1C
:1076F40049B92B7B002B00F03781284603B0BDE845
:10770400F04FFFF761BF252940F0B780002698F8B5
:1077140000302D2B424608F1010823D0302B24D011
:107724002B2B25D000242A2B02F1010123D13B6805
:107734001A1D1B683A601C440A4613782E2B26D166
:1077440001324FF0000A104610F8011BA1F1300C71
:10775400BCF1090F1DD80A2303FB0A13A3F1300A55
:107764000246F0E746F00106D1E746F00206CEE70E
:1077740046F00406CBE711F8013CA3F130000928D8
:10778400DBD80A2202FB0434303C0A46CBE74FF034
:10779400000A12F8011B01F0FB0068289046F8D09B
:1077A400782909D86F290CD8632962D022D82529D1
:1077B40063D0582900F0888098F80030002B95D1C8
:1077C40097E770390829F7D801A353F821F000BFCF
:1077D40047790200BD770200BD770200DD78020020
:1077E400BD770200BB780200BD770200BD770200BE
:1077F400CD780200642901D06929DDD13A68D2F834
:107804000090111D89EAE9723960A2EBE9724FF028
:10781400010B092A35DCD34538BFD3462CB1B9F165
:10782400000F01DB720700D5013CB30702D5BAF1A2
:10783400000F03D0F00701D44CBB0024B9F1000FB2
:107844002DDAC9F100092D212846FFF7D6FE06F0EE
:107854000302022A04D1BAF1000F01D11CBB002497
:10786400CDE9004653460A2249462846FFF7DCFE86
:10787400A2E73B681A1D19783A602846FFF7BDFE57
:107884009AE70A230BF1010BB2FBF3F2C1E7A3451C
:10789400D4D220212846013CFFF7AFFECCE7710784
:1078A400D5D52B21D0E7A345DAD230212846013C97
:1078B400FFF7A3FED2E73968CDE900460A1D3A6016
:1078C40053460A220968D0E739680A1D3A60CDE9AF
:1078D400004653461022F5E73B681A1D3A6016F03D
:1078E4000106D3F8009024D1B9F1000F03D0484623
:1078F40004F0C2FC0646B4421DD809F1FF3919F858
:10790400011F00293FF458AF2846FFF776FEF6E73B
:1079140028460136FFF771FE19F806100029F7D141
:10792400A642BFF449AF20212846013CFFF765FE7B
:10793400F6E70026F0E720212846013CFFF75DFE2C
:10794400D9E73B681A1D3A60302128461C68FFF7C6
:1079540054FE78212846FFF750FE00220823CDE983
:1079640000322146102280E703B0BDE8F08F00BF4B
:107974002DE9F84FB0F806A04579D2F800B09DF88B
:1079840028900AFB05F5043D88460BEB0301A94248
:1079940003F1040488BFA5EB030BB4FBFAF6074616
:1079A4000AFB1644C2F800B04EB9AAEB04055D45C3
:1079B40028BF5D46BBF1000F04D1BDE8F88F3F68D6
:1079C400013EF1E7043408EB06003C442A46B9F1D1
:1079D400000F0DD02146ABEB050B04F0CFFBDA45CD
:1079E4002E443F6855464FF0000428BF5D46E1E74A
:1079F40001462046EFE7FFF792BDF8B54679014608
:107A0400721E0546002393422D6803D30024A64228
:107A140002D8F8BD0133F6E70F682846FFF7BAFD30
:107A240001343946F3E72DE9F843068ACD1C0746AD
:107A3400FFF78CFD043E35440446B5FBF6F5F0B182
:107A44004FF48073EDB28380C680013D07608146A8
:107A54004FF00008A84512D23846FFF777FD0646D6
:107A640048B163790133637108F10108C9F8000072
:107A740007608146EEE72046FFF7BFFF3446204605
:107A8400BDE8F88301210430FFF72BBD10B50121B7
:107A940004460430FFF731FDC0B220B92046BDE8EA
:107AA4001040FFF7AABF10BD1FB503920022009239
:107AB40003AAFFF75DFF05B05DF804FB1FB5039251
:107AC4000122009203AAFFF753FF05B05DF804FBFF
:107AD40041DF7047064B10B500241C70054B1C6039
:107AE400BFF35F8F0449054800F03BF8204610BD02
:107AF400643200206832002040C502005C3200205D
:107B040007B500230DF107008DF80730FFF764FC7B
:107B1400F1EE103A23F09F03E1EE103ABFF35F8FCA
:107B24000A4B4022C3F884219DF80700FFF778FC34
:107B340003F092FF20B103B05DF804EBFFF7C8BF78
:107B440020BF40BF20BF03B05DF804FB00E100E0AC
:107B5400836800225A60C3E904229A60DA601A60DA
:107B640070470B684A684360934208BF0023016072
:107B740008BF43607047436843B102689168526824
:107B84000B449342436004BF0023436070470000EA
:107B940010B50D49A1F59472914201D800200FE06F
:107BA4008C1AE30F03EBE4035B1002EBC30452F8FB
:107BB4003330834205D802D204F10802ECE760684E
:107BC40010BD2146E8E700BF44CA020008B5FFF72C
:107BD400DFFF024B002808BF184608BD06C9020093
:107BE400BFF34F8F0549064BCA6802F4E0621343A2
:107BF400CB60BFF34F8F00BFFDE700BF00ED00E097
:107C04000400FA054FF0704393F8E02F062A10D1D0
:107C1400D3F8E42F12070CD1D3F8E80F00F0F003E7
:107C2400302B08D000F0E000A0F140035842584146
:107C3400704700207047012070474FF0704393F85D
:107C4400E02F062A0CD1D3F8E42F120708D1D3F879
:107C5400E80F00F0F000A0F130035842584170479B
:107C64000020704708B5FFF7CDFF40B14FF08053B7
:107C7400934AD3F82433C3F30423C2F84035FFF7FF
:107C8400DCFF10B18F4B904A5A67FFF7BBFF48B136
:107C94004FF080534FF08042D3F84432C3F3423361
:107CA400C2F83C35FFF7C9FF30B1884AD2F8FC303E
:107CB40023F08073C2F8FC30FFF7A4FF40B14FF00B
:107CC40080430022C3F80C21C3F81021C3F83825DF
:107CD400FFF7B3FF20B14FF080430322C3F8A02580
:107CE400FFF7ABFF60B17A4B0522C3F810260122DF
:107CF400C3F888260022C3F818263F22C3F81426A6
:107D04004FF0704393F8E02F062A50D1D3F8E42FB4
:107D140010074CD1D3F8E83F03F0F003502B46D1C1
:107D24004FF080526B4BD2F80414C3F82015D2F8EC
:107D34000814C3F82415D2F80C14C3F82815D2F883
:107D44001014C3F82C15D2F81414C3F83015D2F853
:107D54001814C3F83415D2F81C14C3F84015D2F81B
:107D64002014C3F84415D2F82414C3F84815D2F8E3
:107D74002814C3F84C15D2F82C14C3F85015D2F8B3
:107D84003014C3F85415D2F83414C3F86015D2F87B
:107D94003814C3F86415D2F83C14C3F86815D2F843
:107DA4004014C3F86C15D2F84424C3F87025FFF7C7
:107DB40029FF48B14FF080534FF08042D3F8583236
:107DC40003F04F03C2F8E43EFFF71CFF48B14FF045
:107DD4008043D3F80024D10744BF6FF00102C3F8F5
:107DE40000244FF08053D3F83021062A0AD1D3F867
:107DF4003431062B01BF384AD2F83C3743F4806350
:107E0400C2F83C37314AD2F8883043F47003C2F8E0
:107E14008830BFF34F8FBFF36F8F4FF01023D3F829
:107E24000C22D2071DD52D4B0122C3F80425D3F80B
:107E34000024002AFBD04FF01022D2F80C3223F099
:107E44000103C2F80C32254BD3F80024002AFBD0DE
:107E54000022C3F80425D3F80024002AFBD0FFF73E
:107E6400BFFED3F80022002A03DBD3F80432002B30
:107E740022DA1A4B0122C3F80425D3F80024002A7D
:107E8400FBD04FF010221521C2F80012D3F80024C1
:107E9400002AFBD04FF010231522C3F804220F4B05
:107EA400D3F80024002AFBD00022C3F80425D3F819
:107EB4000024002AFBD0D2E7094B0A4A1A6008BD05
:107EC4000030014000C007400DF0ADBA00ED00E005
:107ED4000050004000C000400010004000E001409D
:107EE400B42A00200090D003054A4FF0A043105C50
:107EF400D3F8043523FA00F0C04300F001007047C2
:107F040048CA0200044B1A5C012393404FF0A0427C
:107F1400C2F80C35704700BF48CA0200044B1A5C13
:107F2400012393404FF0A042C2F80835704700BFC8
:107F340048CA020008B50020FFF7F0FF0120FFF750
:107F4400EDFF0220FFF7EAFFBDE808400320FFF73A
:107F5400E5BF08B50020FFF7D5FF0120FFF7D2FFEA
:107F64000220FFF7CFFFBDE808400320FFF7CABF98
:107F7400074A4FF0A041105CD1F804350122824039
:107F840022EA03001340C1F80805C1F80C35704714
:107F940048CA0200014B185C704700BF44CA020083
:107FA40038B5074C051E04F1080318BF1C462368A6
:107FB4002BB11A6822605B6828469847F7E738BDFA
:107FC4007432002020B9054B01225A70FFF7E8BF34
:107FD400012802D1014A9070F8E770476C32002002
:107FE40020B9034B01225A70FFF7DABF704700BF74
:107FF4006C32002038B50B4C237883B90A4863608F
:10800400A3602361E36000F059F8054603F024FD02
:1080140008B900F05FF801232370284638BD852590
:10802400FBE700BF6C320020C97F020037B50B4C60
:1080340000230DF107008DF80730FFF7CDF9E36851
:10804400013BE360E56815B900F056F8A5709DF8AA
:108054000700FFF7E5F903B030BD00BF6C32002024
:10806400012813B508D003281CD018B9114B0122DC
:10807400C3F8802002B010BD0F4C00230DF107009F
:108084008DF80730FFF7A8F923780BB9FFF7B2FF93
:10809400E3689DF807000133E3600123A370FFF751
:1080A400BFF9E7E700F016F802B0BDE81040FFF7AB
:1080B400BDBF00BF00E100E06C320020044A137928
:1080C40023B90121106091801846704785207047BC
:1080D40084320020074B1A68D2075FBFC02283F89E
:1080E400002301221A604FF080430122C3F81825AF
:1080F400704700BF00E100E04FF080430122DA60E6
:10810400D3F81824D203FBD4704700004FF0804307
:1081140007B5D3F800217AB10022C3F80021D3F8BF
:1081240000210092009A0122C3F808230F4B5879CA
:1081340010B95A711B6898474FF08043D3F8042153
:1081440082B10022C3F80421D3F804210192019AD8
:108154000222C3F80823054B1B68012003B05DF815
:1081640004EB184703B05DF804FB00BF8432002021
:1081740000F1804000F5C040002382B00360036832
:108184000193019B02B07047800000F1A040D0F839
:10819400002722F44032C0F80027D0F8003743EA21
:1081A4000141C0F800177047C208012300F007001E
:1081B40003FA00F08B5C1843885470472DE9F04FA4
:1081C40087B00024584D03944FF48072012102F1CA
:1081D400804303F5C04390B21B68012B06D1D5F848
:1081E40004330B4202D0FFF7C3FF0C430432B2F551
:1081F400907F4FEA4101EAD14B4BD3F87C31012BFC
:108204000AD14FF4BE70FFF7B3FF4FF0A04344F020
:108214000044D3F810350393E3B2D3B1434F0025A0
:108224000126344210D0AB0003F1804303F5C04370
:10823400D3F81005D3F8101557F8253023B1C1F33E
:108244000141C0F3042098470135082D4FEA460642
:10825400E7D1002C61DA00224FF0FF33CDE904238B
:10826400DFF8C880DFF8C89000273E464FF0A04BE7
:1082740019F9014B631C45D0C4F3C20318336B4492
:108284000122E5B204F03F0004F0070402FA04F40A
:1082940013F8042C224235D008EB0002AD0992F900
:1082A400302058F822A0BAF1000F09D1032D29D1AA
:1082B40004A901930090FFF777FFDDE9000301E0D3
:1082C400032DF5D000F5E07113F80C3C5BF8211098
:1082D4002342C1F3014105D0022913D1032D0CD14E
:1082E400294604E003290DD1032D06D10221009073
:1082F4000136FFF749FF0098F6B2BAF1000F01D03A
:108304002946D0470137042FB2D136B14FF0A043EC
:10831400039AD3F81035934202D107B0BDE8F08F29
:108324000393049B05939DE7006000408C3200207A
:10833400DC320020014B1B68184700BFE8320020E4
:108344000E4B984237B50C4602D0002003B030BD26
:1083540000230DF107008DF80730FFF73DF8084BB7
:108364001D7915B901221C601A719DF80700FFF7E9
:1083740057F8002DE9D01120E8E700BF00200040A5
:10838400E83200200023435082B043580193019BFC
:1083940002B070470A4610B54FF48E71FFF7F2FF32
:1083A400136A9168C95C136A01331362C0F81C151F
:1083B40010BD00000279044B2C2101FB02335869E3
:1083C400003818BF01207047F03200202DE9F84F23
:1083D400064689469246FFF7EDFF044600283DD144
:1083E40096F804801F4F2C2508FB057B4FF48E71F3
:1083F400CBF82000CBF814A08BF82800CBF8089019
:108404003068FFF7BFFF3068012383605946FFF7E8
:10841400C1FFDBF804305D4613BB30682A6A6B6920
:108424009A4211D33368D3F81C21002AFBD00122CD
:10843400DA6000202C2303FB087700237B61BDE86E
:10844400F88F95F828303BB9D0F81C31002BF8D0C0
:108454005946FFF79FFFE1E70F20EBE71120EEE716
:108464002046ECE7F03200200023435082B043580A
:108474000193019B02B070470279044B242101FB54
:1084840002335869003818BF012070471C3300209C
:1084940001F06043B3F1005F2DE9F04706468846DA
:1084A400924635D190F80490FFF7E6FF044688BB66
:1084B4001A4F3068242505FB09754FF49071C5F8EF
:1084C40014A0C5F80880FFF7CFFF4FF4AC713068F3
:1084D400FFF7CAFF33686A69A968C3F84415C3F88B
:1084E400482501229A606A68B2B9D3F82021D3F8EA
:1084F40058014AB90028F8D00F20242303FB097738
:1085040000237B61BDE8F087002818BF0F20F4E743
:108514001020F7E71120F5E72046F3E71C3300208D
:108524001FB503788DF800308388ADF80430836874
:108534008DF80630C3688DF80730036902934369E8
:10854400054A0393054B684653F8213052F821102D
:10855400984705B05DF804FB403300204833002001
:10856400024B4FF4807043F00103184770CA0200B5
:108574002DE9F047154690F80090324A42F8295008
:10858400314A42F829304B7B07460C466BB30868E6
:10859400496882008B0002F1A04203F1A04340F23B
:1085A4000C66C2F800674FF0010AC3F800674FF089
:1085B400A0460AFA00F00AFA01F1C6F80805C6F85E
:1085C400081540F20D61C2F80017C3F80017FFF751
:1085D400C7FF4FF00008D6F81025636822FA03F3AA
:1085E400DB070DD5B8F1000F1DD1002D174A4B46FE
:1085F40008BF2A462146381DBDE8F04700F0FCB903
:1086040023680AFA03F3C6F80C35FFF7A9FF2368B9
:108614000AFA03F3C6F8083508F10108FFF7A0FFCA
:10862400B8F1090FD7D1636801264FF0A04806FAC4
:1086340003F3C8F80C35FFF793FF63689E40C8F84E
:108644000865D2E748330020403300202585020026
:108654000023435082B043580193019B02B07047FA
:108664002DE9F0470E78089F9DF824A004460D4696
:108674009846002E5BD1D0F82431D2F800903BB15B
:108684004FF49271FFF7E4FF012363612B7014E050
:10869400D0F81C313BB34FF48E71FFF7D9FFD0F8FB
:1086A4002431002BECD113689F4212D918F80330FF
:1086B400C0F81C35136801331360B94535D1D4F8BB
:1086C400043193B34FF482712046FFF7C1FF0026B3
:1086D40004E00123BAF1000F03D0C3613046BDE8C2
:1086E400F0874361E9E7D0F80831002BE5D04FF477
:1086F4008471FFF7ADFFD0F82431002BC0D113688B
:108704009F42DAD9D0F8181508F80310136801331A
:1087140013607A1E934205D10223C0F8003201236C
:108724002362CAE79F42FAD1C7E70126D6E74FF48E
:108734009271FFF78DFF4FF48E71FFF789FF4FF4AD
:108744008471FFF785FFBAE72DE9FF470C4605461C
:108754001F4620463B4B03934FF482719DF83080B3
:10876400FFF776FF4FF49271FFF772FF4FF48E71AB
:10877400FFF76EFF4FF48471FFF76AFF0023C4F81C
:1087840000326B6385F82E3001232362A360164602
:108794006A6B97421DD9B35CC4F81C356B6B01330B
:1087A4006B632B68E3B905F1340A05F12E09039BC9
:1087B400002B1FDC95F82E3053BB0020039B002BAD
:1087C40015DC0023C4F800350523C4F80035032064
:1087D4000DE0B8F1000F01D0E361E2E76361E0E787
:1087E40040F28623AB60AB68C4F80433002004B0C5
:1087F400BDE8F087CDE90078334652464946204625
:10880400FFF72EFF0028D5D0039B013B0393CEE74F
:10881400D4F8C434C4F8C434002BCED013F0010F00
:1088240014BF4FF40240032048F2012213F0020F58
:1088340018BF104613F0040F48F2022318BF18465D
:10884400BCE700BFA08601002DE9FF470C460546A2
:108854001E462046364B03934FF48271FFF7F8FE11
:108864004FF49271FFF7F4FE4FF48E71FFF7F0FEB0
:108874004FF48471FFF7ECFE0023012ED5F800803D
:108884006B6385F82E3017464FF0010306BF0222B2
:10889400C4F80022C4F8003223622360B8F1000F48
:1088A40015D105F1340A05F12E09039B002B18DCC0
:1088B40095F82E301BBB0020039B002B0EDC0023FD
:1088C400C4F800350523C4F80035032006E040F25F
:1088D4008623AB60AB68C4F80433002004B0BDE861
:1088E400F087CDE900683B46524649462046FFF7EB
:1088F400B7FE0028DCD0039B013B0393D5E7D4F8F3
:10890400C434C4F8C434002BD5D013F0010F14BF01
:108914004FF40240032048F2012213F0020F18BF63
:10892400104613F0040F48F2022318BF1846C3E799
:10893400A0860100F0B52D4C2D4894F82C3089B058
:1089440004F134020193A36A009304F12E01636AD3
:10895400FFF786FEE0B994F82EC0276ABCF1000F39
:108964001FD1217B8B1E012B1BD8626AA3699A42FB
:1089740017D1E26963696262C7F340170329A362EE
:1089840084F82C7006D11A4900972046FFF7DCFEC4
:1089940009B0F0BD1649204609B0BDE8F040FFF724
:1089A40053BF144E0FCE03AD0FC533682B60BCF11B
:1089B400000F17D00E4AD2F8C434C2F8C434990751
:1089C4000CD501238DF80830002384F82F307B0761
:1089D400DED4D4E9003102A89847D9E75A07F3D581
:1089E4000223EFE78DF808C0EEE700BF5033002004
:1089F400003000405C3300202DE9F84F0679334DF8
:108A04004FF03C0A0AFB06FA05EB0A079B4697F867
:108A14002D3080460C469146002B53D12C490068DA
:108A2400FFF78EFC00284FD12168637B87F838302C
:108A340001F5E0724FF0A043B860C7F804B087F8BE
:108A44002F0087F8300040F20C6745F80A9043F88D
:108A54002270626802F5E07C43F82C70D8F800308C
:108A6400C3F80815C3F80C25A268C3F82425B9F186
:108A7400000F1FD043F307310029227BB4BF154CEC
:108A840001F16044C3F30733B8BF03F00F074FEAA3
:108A94004212A8BF04F56144D2B2B4BFE25584F8CF
:108AA400002303F01F03012202FA03F349090A4ACF
:108AB40042F821303C2303FB0655012385F82D3071
:108AC400BDE8F88F0820FBE71120F9E750330020B8
:108AD4003989020014ED00E000E100E00368027946
:108AE4000521C3F80015044B3C2101FB023302228B
:108AF40083F82D20704700BF503300202DE9F74F35
:108B04002D4F0679D0F800902C4BC9F808333C253A
:108B140005FB0675C6EB061C95F82F308E461446E9
:108B240007EB8C0C03F0FF0B33B1AB68C9F80433CB
:108B3400112003B0BDE8F08F82F00403C3F3800377
:108B440085F82F302A628A46BAE80F0005F10C082E
:108B5400A8E80F00DAF80030C8F80030DEF8043076
:108B6400AB62DEF80C206A629EF80110C9F8881521
:108B74009EF80010012917D0A1B9C4F340143C2178
:108B840001FB0671604681F82C4000944946FFF7CA
:108B9400DBFD3C235E43BA19BB59002BC9D182F8D3
:108BA4002F30C6E70124EAE785F82CB04946604631
:108BB400FFF74AFEEDE700BF503300208642040071
:108BC400F0B587B004460F4615460021142201A8CB
:108BD4001E4603F0FCFA9DF830308DF80570002B2A
:108BE40014BF2022002201A9204602960495FFF713
:108BF40085FF07B0F0BDF0B587B004460F461546B3
:108C04000021142201A81E4603F0E1FA01230022E8
:108C140001A920468DF804308DF80570029604955C
:108C2400FFF76CFF07B0F0BD00F1804000F5E040B5
:108C3400002382B0036003680193019B02B0704774
:108C4400F0B5524B524CD3F8043185B0002B3DD0D3
:108C540094F82E204FF48270FFF7E6FF2AB394F8BD
:108C64002F3013BB494AD2F80031002B32D04FF4D5
:108C74008070FFF7D9FF638B94F82D00834250D99D
:108C840021891B1A9BB289B26383CB1A616801EBF9
:108C94004303C2F82C36C2F830064FF48270FFF753
:108CA400C3FF3A4B01225A6014E06368029323899C
:108CB400ADF80C30E36800218DF8041033BB237445
:108CC400236801A89847002384F82F3094F82E30A5
:108CD400002BC7D12D4BD3F810315BB14FF4887002
:108CE400FFF7A2FF0023237402238DF8043001A8A8
:108CF40023689847254BD3F81431EBB14FF48A70AD
:108D0400FFF792FF0023237405B0F0BD208B60832E
:108D140063602081E160002AD2D11C4B01221A60D9
:108D2400CEE7BAD1E368012184F82F1013B10021F2
:108D34006183AEE76383B0E766694FF000470125BE
:108D4400002EE1D0B6FA86F227FA02F346329200F8
:108D540026EA030602F1804303F5E0431B68002B77
:108D6400EED01046A2F58C72FFF75EFFD30882F0B6
:108D74000402C2F380028DF808308DF80450236891
:108D84008DF8092001A89847DAE700BF0070004079
:108D94008C33002038B51E4B044693F82C00A8BB36
:108DA4001C4A19602178C2F8F0156178C2F8F415EC
:108DB400E5781874012183F82D00586183F82F0099
:108DC40083F82E5083F82C106FF00043C2F8083358
:108DD4004FF48270FFF728FF4FF48070FFF724FFF1
:108DE4004FF48A70FFF720FFA3780B485B01DBB2D6
:108DF40080F80733802303600223C2F804330DB1E3
:108E0400C2F80413C2F80015002038BD0820FCE79E
:108E14008C3300200070004000E100E070B52A4B64
:108E24001A7C02F0FF05002A4BD10A79012A9CBF63
:108E3400264CC4F8005500F10C0503EB45042479D5
:108E440024B993F82D40013483F82D4003EB4503F6
:108E5400CC790D7A8E781C715D714B7836021B01CA
:108E640006F4E06603F0300333430E7806F003069D
:108E74003343CE78360306F480563343160406F49F
:108E8400E02633434E798979360506F480160906BF
:108E9400334301F080710B430C4901EB00160001D0
:108EA40000F1804000F5E040012AC6F81835C0F80A
:108EB4001455C0F8104502D80123C1F8003500202C
:108EC40000E0112070BD00BF8C3300200070004012
:108ED40070B5264A264B05461220C2F808031C7CAE
:108EE400022C03D1C2F80403112070BD187C0128A0
:108EF4001CD1D86818B10223C2F80433F4E7DD604A
:108F0400198393F82E305BB9D2F80031002BFBD0D3
:108F14004FF48070FFF788FEC2F82C56C2F8301662
:108F2400124B0222C3F804230020DEE7022093F848
:108F34002E40C2F80403012600201E745D601981CE
:108F4400D8603CB1598393F82D30C2F82C56C2F83E
:108F54003036CAE7C2F82C564FF48070C2F8301687
:108F6400FFF762FE16602046BFE700BF00700040B6
:108F74008C330020074B197C0129CAB208D193F81D
:108F84002E00054B10B11A60002070475A607047DC
:108F9400082070478C3300200070004008B5094B4E
:108FA4001B7853B10020FEF7B9FF0120FEF7B6FF8E
:108FB400BDE808400320FEF7B1BFBDE80840FEF756
:108FC400B9BF00BFBC330020F8B57A4C23780546FE
:108FD4001BB100232370FFF7E1FF172D00F28780F8
:108FE400DFE805F00C1717425364757F878C878C74
:108FF400949999999999C3C8D0D8E3E3FFF7CEFF20
:109004006D48FEF79DF96D4B002204461A70204608
:10901400F8BD0020FEF768FFF0B10020FEF77EFFE8
:10902400022D0CBF4FF4E1644FF47A64634B1D705E
:1090340000254FF400464FF4FA7029464FF47A7233
:109044000023E4FB060102F039FF2A460146BDE88D
:10905400F8405948FEF72CB9FEF754FF022D0CBF17
:10906400C8244FF4C874E1E70020FEF73DFF40B187
:109074000020FEF753FF4FF44874504B03221A703C
:10908400D6E7FEF73FFFC824F7E70020FEF72CFFE2
:1090940038B10020FEF742FF4FF47A64474B0422B4
:1090A400EDE7FEF72FFF4FF4C874F7E70020FEF753
:1090B4001BFF48B10020FEF731FF404B05221A7018
:1090C40041F69A110022C2E7FEF71CFFF5E70020E3
:1090D400FEF74EFF394B06221A70002240F6CD41AE
:1090E400B5E70020FEF70EFF344B07221A70002468
:1090F4008DE701202070FEF73BFFEEE70120207092
:10910400FEF736FF00224FF48041A0E7FEF721FF6F
:109114002A4B0C22EAE72A482A4EFEF711F9D5F128
:10912400110504461CD0D8B9012D13D0C8204543DD
:1091340021464FF400474FF4FA704FF47A7200233B
:10914400C5FB070102F0BAFE224601461C48FEF7A1
:10915400AFF804460220FEF7D5FE0123337056E72C
:109164000220FEF7DBFE0023F8E7FFF717FF134B9F
:109174001222BBE7FFF712FF0020FEF7C3FE0F4BDE
:109184001322B3E7FFF70AFF0120FEF7BBFE0B4BE8
:109194001422ABE7FFF702FF0020FEF7B3FE012025
:1091A400FEF7B0FE054B1522A0E7FEF7D2FE034BF7
:1091B4001D709CE710340020E0330020113400209F
:1091C400C0330020BC33002010B5002914BF032491
:1091D4000024FEF7DFFE800000F1A040D0F8002755
:1091E40022F44032C0F80027D0F8003743EA0443A1
:1091F400C0F80037002010BD044B1B6813F00103B6
:1092040001D0FFF7E1BE1846704700BF0C340020C0
:10921400032811D8012A0AD101290FD100F10E0225
:10922400D2B20D4B00EB40001A54002070470129C4
:10923400F7D0022904D049B1072070470022F8E78B
:10924400054B00EB400018444270EEE7024B00EB84
:10925400400018448270E8E700340020032802D854
:109264000121FFF7B1BF0620704708B50122022192
:109274000020FFF7CDFF08B1072810D107220221F3
:109284000120FFF7C5FF08B1072808D100210A22F1
:109294000846FFF7BDFF10B1072808BF002008BD2E
:1092A4000388102B10B502D0112B1ED010BD1A4C00
:1092B4002168B1B901220846FFF7AAFF08B10728BF
:1092C40024D1072202210120FFF7A2FF08B10728B9
:1092D4001CD1042202210020FFF79AFF08B10728BD
:1092E40014D1236801332360E0E70B4A1368013B80
:1092F4001360002BDAD1FFF7B8FF0028D6D0074B54
:109304001B68002BD2D0BDE810401847034B1B68E4
:10931400002BE6D09847E4E71834002014340020EA
:1093240008B50020FFF79AFF08B1062806D10120EE
:10933400FFF794FF10B1062808BF002008BD76DFB0
:10934400704777DF70477ADF70477CDF70477FDFD5
:1093540070478FDF7047B1DF704733DF7047FDF729
:10936400EBBC08B50020FFF747FF08B1FDF7E4FCAC
:10937400FFF7D6FF08B1FDF7DFFCBDE80840FFF7B3
:10938400ECBF0000024B800143F00103184700BF0B
:10939400B0CC020010B504464FF47A70FFF7F2FF28
:1093A400013CF9D110BD000008B503784BB9054B59
:1093B4003B211888FFF7C3FF18B1BDE80840FDF74B
:1093C400BBBC08BDD22A002008B548B103280BD184
:1093D4000220FFF711FF38B1BDE80840FDF7ACBC2F
:1093E400BDE80840FFF7BDBF08BD00002DE9F0410E
:1093F4000578064645BB154C154BDFF85880E41A32
:10940400E408240444F00104B28A95420AD333697F
:10941400134413F8013C0D2B16D10A20FDF7B4FFB9
:109424001128F9E73369585DFDF7AEFF074648B1E7
:109434001128F7D0024641462046FDF7F1FA384696
:10944400FDF77AFC0135DFE7BDE8F08198C302003F
:1094540058C3020084CA020007B50B460021024625
:10946400009103485521FFF7ABFB03B05DF804FB03
:10947400C0CC0200F8B54FF0A044164B03254FF4BE
:10948400806600271F604FF49670C4F82857C4F80C
:109494000865C4F82857C4F80C65FFF773FF0E4835
:1094A400522303700723437087702946FFF7D4FFC4
:1094B400C4F828577820C4F80865FFF76BFFC4F890
:1094C40028574FF49670C4F80C65BDE8F840FFF7D0
:1094D40059BF00BF443500203C35002002460B46EE
:1094E40001485521FFF787BBC0CC02002DE9F347A3
:1094F4004FF0A0454FF003084FF48067E34CC5F8E4
:1095040028870A20C5F80875FFF744FF4FF00209C1
:10951400C5F828874FF49670C5F80C75FFF732FF2D
:109524000023494620466370D94E84F80090FFF723
:1095340093FFC5F828874846C5F80875FFF72AFF42
:10954400C5F828874FF49670C5F80C75FFF71AFF15
:1095540049463046FFF7C2FFC5F828874FF4967096
:10956400C5F80875C5F82887C5F80C75FFF70AFF14
:10957400C84DC94B3278C949ED1A25FA08F52D04AE
:1095840045EA080573782846FDF753FAFDF7E2F833
:109594000028FBD14FF0A047012303216070A07085
:1095A400BA4823704FF00309FFF756FF4FF4806861
:1095B40040F2DC50FFF7EEFEC7F828970220C7F808
:1095C4000885FFF7E7FEC7F828974FF49670C7F8A9
:1095D4000C85FFF7D7FE0221AD48FFF77FFFC7F8E0
:1095E40028974FF49670C7F80885C7F82897C7F8E6
:1095F4000C85FFF7C7FEAA492846FDF70DFAFDF7CB
:10960400A9F80028FBD14FF0A0474FF0020A5146B9
:109614004FF003094FF4806860709C4884F800A000
:10962400FFF71AFFC7F828975046C7F80885FFF7D1
:10963400B1FEC7F828974FF49670C7F80C85FFF76A
:10964400A1FE51469248FFF749FFC7F828974FF407
:109654009670C7F80885C7F82897C7F80C85FFF7F0
:1096640091FE737832788F492846FDF7E2F9FDF7C9
:1096740071F80028FBD14FF0A047FF234FF00308F7
:1096840002214FF480698148237084F80180FFF738
:10969400E3FEC7F828870220C7F80895FFF77AFE8B
:1096A400C7F828874FF49670C7F80C95FFF76AFE41
:1096B4004FF49670FFF766FE04217548FFF70EFF1E
:1096C400C7F828874FF49670C7F80895C7F8288715
:1096D400C7F80C95FFF756FEF3780193B37800931F
:1096E4003278737870492846FDF7ADF9FDF732F802
:1096F4000028FBD14FF0A047102303214FF00309AA
:109704004FF4806860704FF0020A6048237084F858
:1097140002A0FFF7A1FEC7F828975046C7F80885AE
:10972400FFF738FEC7F828974FF49670C7F80C85F2
:10973400FFF728FE01215648FFF7D0FEC7F8289707
:109744004FF49670C7F80885C7F82897C7F80C85B2
:10975400FFF718FE327855492846FDF761F9FCF702
:10976400F9FF0028FBD150234FF0A04723700723B3
:1097740004214FF003094FF480686370E0700A23FA
:109784004248A370FFF768FEC7F828970220C7F87D
:109794000885FFF7FFFDC7F828974FF49670C7F8C0
:1097A4000C85FFF7EFFD01213948FFF797FEC7F855
:1097B40028974FF49670C7F80885C7F82897C7F814
:1097C4000C85FFF7DFFD327839492846FDF728F983
:1097D400FCF7C0FF0028FBD14FF0A0471023032162
:1097E4004FF003094FF48068284823704FF0020AB1
:1097F4006423A37084F801A0FFF72EFEC7F828970E
:109804005046C7F80885FFF7C5FDC7F828974FF4F9
:109814009670C7F80C85FFF7B5FD01211C48FFF7CA
:109824005DFEC7F828974FF49670C7F80885C7F807
:109834002897C7F80C85FFF7A5FD32781D492846FF
:10984400FDF7EEF8FCF786FF0028FBD14FF0A047A8
:10985400412303214FF003094FF4806823706070A3
:10986400FF230A48A370FFF7F7FDC7F828970220E3
:10987400C7F80885FFF78EFDC7F828974FF4967050
:10988400C7F80C85FFF77EFD022115E03C3500206A
:109894001038002098C3020058C30200AFCA020067
:1098A400D7CA0200E7CA02000FCB020022CB020093
:1098B40033CB020044CB02009548FFF70FFEC7F8F4
:1098C40028974FF49670C7F80885C7F82897C7F803
:1098D4000C85FFF757FD737832788E492846FDF7DB
:1098E400A8F8FCF737FF0028FBD141234FF0A0472D
:1098F4002370042303214FF003094FF48068864842
:1099040063700F23A370FFF7A7FDC7F82897022001
:10991400C7F80885FFF73EFDC7F828974FF49670FF
:10992400C7F80C85FFF72EFD02217948FFF7D6FD15
:10993400C7F828974FF49670C7F80885C7F8289792
:10994400C7F80C85FFF71EFD7378327873492846F3
:10995400FDF76FF8FCF7FEFE0028FBD150232370BF
:109964000723637019234FF0A047A3701323062124
:109974004FF003094FF48068E37060715623664822
:109984002371FFF769FDC7F828970220C7F80885F7
:10999400FFF700FDC7F828974FF49670C7F80C85B9
:1099A400FFF7F0FC01215A48FFF798FDC7F8289704
:1099B4004FF49670C7F80885C7F82897C7F80C8540
:1099C400FFF7E0FC327856492846FDF729F8FCF702
:1099D400C1FE0028FBD15023237007234FF0A0477A
:1099E4006370172305214FF003094FF48068A370B7
:1099F400E070112348482371FFF72EFDC7F828971C
:109A04000220C7F80885FFF7C5FCC7F828974FF46C
:109A14009670C7F80C85FFF7B5FC01213C48FFF7A9
:109A24005DFDC7F828974FF49670C7F80885C7F806
:109A34002897C7F80C85FFF7A5FC327839492846E2
:109A4400FCF7EEFFFCF786FE0028FBD150232370C1
:109A540018234FF0A047A37030234FF003080521CB
:109A64004FF480692C48E3704FF0070A20232371D8
:109A740084F801A0FFF7F0FCC7F828870220C7F894
:109A84000895FFF787FCC7F828874FF49670C7F846
:109A94000C95FFF777FC01211D48FFF71FFDC7F860
:109AA40028874FF49670C7F80895C7F82887C7F831
:109AB4000C95FFF767FC0127522341461648237093
:109AC40084F801A0A770FFF7C7FC40F2D110FFF79C
:109AD40061FC0F483946FFF701FD327812492846E8
:109AE400FCF79EFFFCF736FE0028FBD14FF0A043A5
:109AF4000322C3F828274FF48062C3F808250246DE
:109B04000A484FF4003102B0BDE8F047FDF7D0BB7E
:109B14001038002056CB02003C3500206FCB0200E9
:109B240086CB02009CCB0200B5CB0200D0370020CC
:109B340030B50388212B85B0054656D007D8112BA4
:109B440038D0132B5FD0102B0CD005B030BD522B66
:109B540067D0562B01D03B2BF7D1A8881321FFF7F0
:109B6400EEFB57E0334B344C3449E41AE408240444
:109B740044F003042046FCF74FFF0720FFF73CFBAB
:109B840008B1FDF7D9F8A9882D4D2E48298001F098
:109B94003DFD08B1FDF7D0F8298804220320FFF722
:109BA400D0FBFFF7A3FC2849204605B0BDE83040B0
:109BB400FCF732BF1F4B20482449C01AC0080004D8
:109BC40040F003000190FCF727FF1D4B4FF6FF7296
:109BD4001A80FFF74FFC01981D49FCF71DFF1D4833
:109BE40005B0BDE83040FDF7ABBB002380888DF89D
:109BF4000C3003A98DF80D30FFF7ABFB0028A4D07F
:109C0400FDF79AF8A1E70E48002300881A4685213B
:109C1400FFF79DFB002898D005B0BDE83040FDF764
:109C24008BB8074800231A4619460088FFF793FBB0
:109C3400F0E700BF58C3020098C30200C7CB02007C
:109C4400D22A0020F4370020D5CB0200DECB02005C
:109C5400EFCB0200D03700202DE9F0474FF0A043AE
:109C64000322C3F828274FF48062ADF53D6DC3F895
:109C74000C254FF49670FFF785FB444B444DDFF8F9
:109C84003881DFF83891DFF838A112240221002648
:109C940004A81E608DF810408DF81160FFF7DCFBFE
:109CA4006420FFF76FFB022106A8FFF717FC0123CE
:109CB40002219DF819708DF8113004A88DF8104018
:109CC400FFF7CAFB6420FFF75DFB07EB4701C90000
:109CD400013106A8C9B2FFF701FC2E482E4B9DF8AE
:109CE40018201A602D1AED082D0445F0030506AC62
:109CF400F3B29F420CD84FF0A0430322C3F82827A5
:109D04004FF48062C3F808250DF53D6DBDE8F0877A
:109D1400224960790860A079E17994F80CC06378ED
:109D2400E278DFF8A0E0C8F8003001EB00211C481D
:109D3400A37801601B49207A0860607AA17A01EB5C
:109D44000021194801601949E07A0860617B01EB40
:109D54000C21DFF874C0CCF8001094F814C0CEF8CD
:109D640000C002EB032223790091CDE9010C1049D4
:109D7400C9F800202846CAF80030FCF772FE0D49E5
:109D84002846FCF749FE01361834B1E73435002083
:109D940098C3020058C30200203900205C3500201B
:109DA40060350020383500200C3800201839002098
:109DB400F7CB02001FCB02000838002054350020E6
:109DC4005835002010390020143900202DE9F341C2
:109DD4007E4B7F4C7F4F80493A68804EE41AE408FA
:109DE400240444F00304013220463A60FCF718FED0
:109DF4007B497C4B0022D1E9000101F0AFFF02F066
:109E040049F8794982B220463280FCF709FE33884A
:109E1400B3F58C7F2ED2754D2B680133032B2B6049
:109E240007D173492046FCF7F7FD724A00231370EB
:109E34002B60FFF711FF704BDFF840821A686F4BFD
:109E44006F4D1B680A2193FBF1F3C8F800306D4B8A
:109E540092FBF1F21B682A60013B012B9CBF00239B
:109E64002B603B68042B12DC00232B600023C8F812
:109E740000300FE05F4B1A78002ADAD101221A7001
:109E8400FFF734FB60492046FCF7C6FDD1E72B6899
:109E9400002BEBD05D4FFFF76DF85D4938780A224F
:109EA40002F0F6F83B78092B71D85A495A4802F067
:109EB400C1F95749584802F01FF95849D8F8000029
:109EC4000A2202F0E5F8D8F80030092B64D8544986
:109ED400544802F0AFF95149524802F00DF9524981
:109EE40028680A2202F0D4F82B68092B59D84F4964
:109EF4004F4802F09FF94C494D4802F0FDF84D4996
:109F040030880A2202F0C4F83388092B53D84A490E
:109F14004A4802F08FF94749484802F0EDF8474AA9
:109F240047492046FCF77CFD4649474802F082F940
:109F34003F49454802F0E0F84349444802F07AF9C1
:109F44003849424802F0D8F84049414802F072F9D1
:109F540031493F4802F0D0F83D493E4802F06AF9E1
:109F640036493C4802F0C8F820463A4A3A49FCF7D8
:109F740057FD1623ADF80630384B35491B88384851
:109F84000DF1060201F0AEFC02B0BDE8F0810B3B1E
:109F9400582B92D8334989E70B3B582B9FD8324929
:109FA40096E7A3F10B02582A01D83049A0E7632BA6
:109FB400A5DD2F499CE7A3F10B02582A01D82D49AE
:109FC400A6E7632BABD92C49A2E700BF58C3020014
:109FD40098C302004435002006CC02002439002036
:109FE400003800200000244010CC02004835002036
:109FF40019CC02004C3500205435002014390020BF
:10A0040050350020103900202ACC02002D390020C0
:10A01400012B0020152B0020C22A0020FD2A00203D
:10A024002E2B00200D2B0020052B00201E2B0020A2
:10A03400C72A0020092B0020272B0020F82A002003
:10A0440040CC0200B82A00201C340020EC3400204C
:10A054002C340020843400204CCC0200D22A00206E
:10A06400D42A0020122B00202B2B00201B2B002095
:10A07400192B0020242B0020222B00201C39002027
:10A084000D4B4A881B889A4214D10A8840F67723DC
:10A094009A420FD18B88094A09480A49033B9BB26B
:10A0A4001380094A801AC00800041A4640F00300CD
:10A0B400FCF7BFBC704700BFD22A0020D02A002082
:10A0C40098C3020051CC020058C30200FCF734BE0E
:10A0D40008B50849084801F079F908B1FCF72CFEE5
:10A0E4000548F72101F086F918B1BDE80840FCF7EE
:10A0F40023BE08BD85A00200BC3700201FB51D2269
:10A104001423CDE900234FF0CD610223CDE90213DE
:10A11400002307481A466946FEF72AFA08B1FCF7F5
:10A124000BFE0448FEF7DAFC05B05DF804FB00BF43
:10A13400BCCC0200C0CC020000B54FF40041AFB06B
:10A144000020FCF7ADFA08B1FCF7F6FDFCF7DCF9EA
:10A15400FDF76CF808B1FCF7EFFD5C4A5C4801219F
:10A16400FDF794F808B1FCF7E7FDFDF7B3FC08B17F
:10A17400FCF7E2FD01F032FC08B1FCF7DDFD002341
:10A1840003A90120039301F0BBFC08B1FCF7D4FD43
:10A1940003A801F075FD08B1FCF7CEFD11234D496C
:10A1A4008DF80830062202A8FFF7CFF808B1FCF7B3
:10A1B400C3FD0023ADF810304FF4A073ADF80C309C
:10A1C4004FF40273ADF80E3003A84FF4C873ADF822
:10A1D4001230FFF7B8F808B1FCF7AEFDFFF778FFCF
:10A1E4003D4B3E48039303A901F0FEF908B1FCF787
:10A1F400A3FD3B4B3B48029302A901F0F9FA08B1D5
:10A20400FCF79AFDAC22002103A801F0E0FF022331
:10A214008DF80C3006238DF80F300123ADF858303B
:10A224008DF888304FF448732F4A25932F48304BCC
:10A23400179203A92C9300F006FC08B1FCF77CFDEF
:10A244002A48012100F0FCFB1422002103A801F09C
:10A25400BEFF4FF470234FF42032CDE904230323CF
:10A264008DF81830234B089303A8234B099300F06F
:10A27400A9FE08B1FCF760FD204B214821491B4C85
:10A28400C01AC008000440F003000190FCF7C4FBAE
:10A294001D490198FCF7C0FB94F8541004220120D6
:10A2A400FFF74FF80321204600F04AFC08B1FCF701
:10A2B40043FDFFF723FFFFF7DDF800F05FF8FCF73D
:10A2C40049FA0028FBD1FDF71BFCF8E7D19D0200F9
:10A2D400B8CC02006DCC020063930200F437002076
:10A2E400F1930200D42A0020CC2A002064350020F7
:10A2F400CD930200AD930200D1A0020058C3020026
:10A3040098C3020074CC02007ECC020010B503781E
:10A314006BBB40680121B0F90040FEF7D9FD08B1DC
:10A32400FCF70AFD4FF4167314FB03F3002BB8BFBC
:10A3340003F2FF3306229B1253430D4A1360642237
:10A344005A43A2F521324FF4D271883AB2FBF1F2AA
:10A354000849D2B2142A0A70074A06D940F6D40131
:10A364008B428CBF0023012303B10123137010BD62
:10A37400283900202D3900202C3900201FB50F4A20
:10A3840010685168127A01AB03C30D490D481A7065
:10A39400FEF700FD08B1FCF7CFFC01A90020FEF791
:10A3A4003DFD08B1FCF7C8FC07480121FEF790FD0C
:10A3B40008B1FCF7C1FC05B05DF804FBCCCC02008D
:10A3C40011A30200D5CC0200263900200369C2681B
:10A3D40093429CBF80681B18013B981A70472DE973
:10A3E400F843D0E902940546A9EB04084068904577
:10A3F40020440F46144404D901F0C0FEEC60BDE8CB
:10A40400F8834246A4EB090401F0B8FE68682246CA
:10A4140007EB0801F0E72DE9F843C56806468946CD
:10A4240017464FF000083469B3687068A54228BF26
:10A43400E418013C621B5C1BBC4228BF3C469442AE
:10A4440028BF144649462844224601F097FEB368C3
:10A454002544AB4208BF00253F1BA044A144F5603E
:10A46400E1D14046BDE8F88310B5114C114AA26110
:10A474000223C4E90433104BE361A2644FF4007374
:10A484000E4A0F492362E26400231022E01DA362F6
:10A494006362E362A3656365E365226501F0CAFE56
:10A4A4000849204601F0C6FE2023A37110BD00BF59
:10A4B40030390020D9CC0200B8390020A839002056
:10A4C400E2CC0200E6CC020070B5164B182400FB67
:10A4D40004451D4404FB00331646DC6A012C0ED0EF
:10A4E400022C18D0E4B92846FFF770FF864204D83E
:10A4F40032462846FFF773FF3446204670BD28468F
:10A50400FFF764FF8642344628BF044622462846A5
:10A51400FFF765FFF1E72846BDE87040FFF77BBF12
:10A524000024EAE730390020FFF79EBF6DDF704753
:10A5340079DF70477DDF704764DF70472DE9F04FA6
:10A5440085B000250E9CBDF83CB0B4F800A0019184
:10A55400074690461E46A9463A884A450DDC45B151
:10A564002388013BA3EB0A039BB2FF2B3AD806F8DE
:10A574000A30002005B0BDE8F08F7A6852F829004F
:10A58400039000220DF10B0103A8FFF7D5FF00286B
:10A59400F0D19DF80B20424521D12288002D14BF13
:10A5A4000020022002EB0801014459451ADC3DB9A0
:10A5B400013292B2019B2280B3542288013222805C
:10A5C40022880DF10B01324403A8FFF7B5FF0028E0
:10A5D400D0D121889DF80B200A442280012509F15D
:10A5E4000109B9E70C20C5E72DE9F341089FBDF83F
:10A5F40024801546CDE90078022204461E46FFF762
:10A604009DFF50B93346102229462046CDE90878EB
:10A6140002B0BDE8F041FFF791BF02B0BDE8F081A0
:10A624002DE9F04F00231788138090F82D3085B062
:10A6340006460D4614465BB3082F01D80C2028E1CA
:10A6440002A8FFF773FF002840F023812388DDF878
:10A6540009100822EA54238801339BB21B22238069
:10A66400EA54238801339BB2EA182380E950BDF8E9
:10A674000D30938023889DF8082006339BB212F096
:10A68400FE0218BF01222380EA5423880133238069
:10A69400B378FBB123880433BB42CFD802A8FFF7B9
:10A6A40047FF002840F0F58023880322EA542388DA
:10A6B40001339BB219222380EA542388BDF8082071
:10A6C40001339BB2E9182380EA54120A4A702388A2
:10A6D40002332380F2789AB12388D91CB942ADD8C9
:10A6E4000221E954238801339BB201212380E954D8
:10A6F40023880B449BB22380EA5423880B44238091
:10A704007268AAB12388D91CB94297D8022192F958
:10A714000020E954238801339BB20A212380E954A1
:10A72400238801339BB22380EA5423880133238096
:10A734003389002B40F0A180338A5BB1CDE9004717
:10A744002B460722032106F11000FFF74DFF0028D6
:10A7540040F09F80338B5BB1CDE900472B46152237
:10A76400142106F11800FFF73FFF002840F0918004
:10A77400326A002A40F09080D6F82480B8F1000FA5
:10A7840030D0B8F804302188981C8A1C0244BA429C
:10A794003FF654AFFE283FF651AF03336B54238882
:10A7A40001339BB2FF222380EA54238801339BB2F6
:10A7B4002380B8F80020EA54E918120A4A70208865
:10A7C400023080B22080B8F804205AB1D8F80810BA
:10A7D40000296BD0284401F0D1FC2388B8F8042068
:10A7E4001344238096F82C30002B40F09880307866
:10A7F40000284ED03388012B58D0228802F1020C55
:10A80400BC453FF61BAF012805D1737802331344CE
:10A814009F42FFF413AF023FBF1ABFB202A905EB78
:10A824000C00ADF80870FFF785FE90BB3178BDF8D9
:10A834000830022900F0B98072789A4202D39F420C
:10A8440080F0B180012940F0B280974293B2C0F009
:10A85400AE80ADF808300821BDF80830FE2B3FF675
:10A86400EDAE22880133AB542288013292B22280A9
:10A87400A9542288134423800BE0CDE900472B46DA
:10A884000622022106F10800FFF7AEFE00283FF47D
:10A8940053AF05B0BDE8F08FB4F800C00CF1060367
:10A8A400BB423FF6CBAE1188052901D80720F0E75B
:10A8B4006FF4486E01EB0E039BB24FF27D3E73457D
:10A8C400F4D95388052BF1D96FF44860181880B275
:10A8D4007045EBD94FF6FF70814201D09942E5D81B
:10A8E400052305F80C30238801339BB21221238001
:10A8F400E954238801339BB223801188E954E81872
:10A90400090A4170238802339BB223805288EA5497
:10A91400E918120A4A702388023323802CE7B36AA9
:10A92400002BC3D04FF000084FF00C0A4FF0160B69
:10A93400B16A5FFA88F20AFB02F201EB0209B9F884
:10A944000430981CFE283FF679AE208803332B543C
:10A95400238801339BB2238005F803B02388013395
:10A964009BB223808A5AEA54E918120A4A70208852
:10A97400023080B22080B9F804205AB1D9F8081006
:10A98400002993D0284401F0F9FB2388B9F8042066
:10A994001344238096F82C2008F101085FFA88F309
:10A9A4009A42C5D823E7092156E79F42FBD2ADF866
:10A9B400087050E770B5C0B14AB116880024B4429B
:10A9C40003D305196D789D4208D0A14201D8002017
:10A9D4000BE0055D01352C44A4B2F0E7A142F6D9A1
:10A9E400A31C1380005D013880B270BD13B51346FB
:10A9F4000022ADF806200DF106020446FFF7DAFF47
:10AA040010B1BDF80630E01802B010BD72DF704717
:10AA140073DF704738B5012204460D46B0F838128A
:10AA2400D0F83402FFF7E2FF00B1057004F13C02F4
:10AA340004F50D7104F15400BDE83840FFF7E6BF9A
:10AA440080F830107047F8B504460F46002973D0DB
:10AA5400002871D091F87A301BB191F89830002B0E
:10AA64006CD1D7F8A030042B68D0D7F89C30042BD5
:10AA740064D04FF0000C84F802C007F178060FCEC2
:10AA8400251D0FC50FCE0FC596E8070085E8070002
:10AA940084F830C0D7F8A4306363D7F8A830A36330
:10AAA40004F50D724FF6FF73C4F84AC2A4F8483295
:10AAB400C4F84422C4F84DC222780AB984F8543048
:10AAC40094F82430002B14BFEE231F2304F1550106
:10AAD400C4F83412A4F8383204F50E723846FFF77D
:10AAE4009FFD40BB94F82430002B14BFEE231F239A
:10AAF40004F24311C4F83C12A4F8403204F5107275
:10AB040007F13C00FFF78CFDA8B9A369A4F848300D
:10AB14004FF480730125A4F8503063692064014622
:10AB240084F83C50636404F13C0204F15400FFF7E0
:10AB34006DFF00B92570F8BD0E20FCE70720FAE789
:10AB4400F8B5067804460D46002E00F00381002374
:10AB5400C0F84A32C0F84D32C388817000F24A27E7
:10AB64000BB1012903D0E37943B1022D06D1636B04
:10AB7400A3B1012284F851220820984704F24B2201
:10AB840004F2512112F8013B5BB99142FAD16A1ED9
:10AB9400032A4FD8DFE802F0070D111484F851326C
:10ABA400ECE73346F3E7A2791AB194F8242002B90A
:10ABB4005BB9E2790AB1002B3ED1237A002B3DD157
:10ABC400637A002B0CBF00250425636BA570002B52
:10ABD40036D0033D012D33D862798AB394F85222DA
:10ABE40072BB84F85422012284F853220720984728
:10ABF40004F13C0518220021284601F0E8FAE26A33
:10AC04000123511E994284F83C3098BFD3B284F892
:10AC1400513094F8243088BF00261BB1A6B1A26A33
:10AC240084F85220A278042A1ED8DFE802F07A0FB2
:10AC340025385C000025C8E70225C6E70325C4E7DC
:10AC4400002384F85332D3E70122E9E7012384F88F
:10AC540031300023C4E91073C4F84432022384F869
:10AC64003C308023A4F84830A378002B5DD1636B7B
:10AC7400002B6BD1002068E0002B14BF07230323B3
:10AC840084F83C302369A4F8483000230222C4F835
:10AC94004432E36884F8312027646364E4E762693A
:10ACA4006264A269A4F8482013B1062384F83C30F6
:10ACB4006379B3B194F852329BB994F8543283B1A6
:10ACC400022384F8503004212046FFF7A3FE002815
:10ACD400CAD1052384F8313004F50D73C4F8443225
:10ACE400C2E70323F6E7E2696264226AA4F8482013
:10ACF40013B1062384F83C30637983B194F852325B
:10AD04006BB994F8543253B1022384F850300421BF
:10AD14002046FFF77FFE0028A6D10623DAE70423A6
:10AD2400D8E7002384F831309EE7D4F844122A4649
:10AD340004F15400FFF76AFE38B994F8301094F81F
:10AD44005400FFF765FE002891D0F8BD94F8310057
:10AD540098478FE70820F8E70388112B10B50C46B5
:10AD64000AD0262B1FD0102B05D1C37B012B02D177
:10AD74008388A1F8483210BD0022838881F85222CA
:10AD8400B1F848229A42F6D10B79002BF3D1012174
:10AD94002046FFF7D5FE0028EDD0A36B002BEAD0A8
:10ADA400BDE810401847037A013B012BE3D88978AA
:10ADB40005230131B1FBF3F303EB8303C91AC9B2D1
:10ADC400E6E7704775DF704776DF70477ADF7047D4
:10ADD4007BDF7047034B1A8882420CBF1846002061
:10ADE400704700BFD43B0020024B9B6903B1184756
:10ADF400704700BFB83B002073B585B22846FFF703
:10AE0400E9FF044638B3174E027A337B9A420CD2D8
:10AE140000F10A012846FFF7D5FFF0B111281AD036
:10AE240002B0BDE87040FFF7DFBF00230372337C3C
:10AE340043B13B212846FFF7C7FF30F0080301D098
:10AE4400FFF7D2FF736933B100228DF80420ADF807
:10AE5400065001A8984702B070BD237A01332372CB
:10AE6400F9E700BFB83B002037B50B46497A0F4AD3
:10AE740079B9D2E901141D7A0246002D18BF214682
:10AE84005868FCF715FA78B103B0BDE83040FFF715
:10AE9400ABBF00211972536933B10122ADF806002A
:10AEA4008DF8042001A8984703B030BDB83B0020BA
:10AEB4004B8802889A4212D842889A420FD38088DB
:10AEC4008B8840F2F311884294BF021A421A9A42C4
:10AED40005D80844984234BF002001207047002060
:10AEE400704700000388122B70B5014659D004D86E
:10AEF400102B1ED0112B44D070BD502BFCD12F4BE6
:10AF0400C288DB899A42F7D1038A022BF4D186885E
:10AF14003046FFF75FFF05460028EDD001F112002F
:10AF240000F063F938BB6868FCF70AFA0028E3D03C
:10AF340009E0C37B012BDFD14FF6FF70FFF74AFF17
:10AF4400054620B90420BDE87040FFF74DBF1C4AF8
:10AF54008E880680002303721368C0F80A30536891
:10AF6400C0F80E3010310A30FFF7A2FF134B68729D
:10AF7400DB89002BC0D129463046BDE87040FFF77D
:10AF840073BF8088FFF726FF04460028B4D04068CA
:10AF9400FCF7D6F908B1FFF727FF4FF6FF732380BC
:10AFA400AAE786883046FFF715FF05460028A3D098
:10AFB40008310A30FFF77CFF6872DCE7B83B0020F9
:10AFC400E83B0020F8B5064648B305460FCD154FBB
:10AFD4003C460FC495E8070084E807003068124C2B
:10AFE4003C60B0B1FFF7F2FEC0B932681368236069
:10AFF400536863600D480E4A4FF6FF7303800D4B90
:10B0040040F8043F0021FCF741F9002818BF032051
:10B0140004E02046FFF7DCFE0028EBD0F8BD0E204C
:10B02400FCE700BFB83B0020E83B0020D43B0020F5
:10B03400FDAD0200F03B002073B50191019C064672
:10B044006CB100252C46294601A8FCF712FA18B168
:10B0540006EB440301349D800135142DF3D13046B1
:10B06400346002B070BD00002DE9F0470388848885
:10B07400112B8CB005463DD01A2B42D0102B19D180
:10B08400DFF8C080D8F80830DB430093D8F8041008
:10B094006846FCF71AFA009901A8FFF7CDFF0DF1F5
:10B0A40008090027019B9F4207D3132C12D90420BF
:10B0B400FBF742FE0CB0BDE8F08739F802AB00267E
:10B0C4000136514608EB8600FCF7C9F91D2EF7D16D
:10B0D4000137E7E716482146FCF7B8F91548214639
:10B0E400FCF7B4F9EB7B012BE4D013482146FCF7C1
:10B0F400ADF9DFE70E4821460CB0BDE8F047FCF798
:10B10400AEB9037A0D481F2B4FEA131521460AD90D
:10B11400FCF79CF9022D0A482146EDD00CB0BDE89D
:10B12400F047FCF793B9FCF79AF905482146E3E7A1
:10B13400183C0020143C00201C3C0020203C002033
:10B14400243C0020103C00201328014602D8024869
:10B15400FCF78FB900207047143C002010B504465A
:10B16400FFF7F2FF002814BF2046142010BD70B56D
:10B174000546164608460AB90E2070BD0023136022
:10B18400002DF9D02B68002BF6D0EB8813F00304C4
:10B194000ED1FFF7E3FFC0B214280BD02B79834202
:10B1A4000AD9EA882B6800FB023030602046E4E7C5
:10B1B4000720E2E70520E0E70420DEE7AADF704786
:10B1C400002301380B70042806D8DFE800F00306DA
:10B1D400080A0C0011230B7070472123FBE731236D
:10B1E400F9E71223F7E72223F5E7008800F00100CE
:10B1F4007047F0B58B7891B00C46012B38BF012312
:10B2040000278DF80E3005460B88607CADF80C30B5
:10B214006946ADF800708DF80270FFF7D1FFA07C8D
:10B224000DF10101FFF7CCFF1646237BE27B217D64
:10B2340043EAC203227C43EA02139DF80220B94286
:10B2440022F0190203F0190314BF02210121134350
:10B2540061F342031C22394609A88DF8023000F03C
:10B26400B6FF637B13F0300F14D00DF10901E07CBD
:10B27400ADF808708DF80A70FFF7A2FF11238DF85E
:10B2840008309DF80A30012102AA61F342038DF8C7
:10B294000A300E92637B8DF82430A37B8DF8253021
:10B2A4000023CDE90633089303AB0493A388ADF8D8
:10B2B4001C30A368CDF814D01BB1E288ADF8182077
:10B2C4000893A36973B301A90022ADF804208A701E
:10B2D4001A88ADF82C205A88ADF82E205A680D91A2
:10B2E400187B0A92FFF76CFFA3690DF10501587BE7
:10B2F400FFF766FFA3699A7A197A41EAC201DA7AFA
:10B304009B7B41EA02119DF80620002B01F01901F4
:10B3140022F0190214BF02230123114363F34201F3
:10B324008DF80610E36903B10C93334604AA09A906
:10B334002846FFF743FF11B0F0BD90DF7047A5DF4B
:10B344007047B5DF704700007FB50023ADF80810E3
:10B35400ADF80A106A4602A90646ADF80C30ADF8FD
:10B364000E300093ADF80430FFF7E7FF054600B355
:10B37400114B124CE41AE408FCF728FC240444F0B2
:10B38400010403460E4932462046FBF752FBBDF842
:10B394000020BDF8023052EA030103D009492046D7
:10B3A400FBF747FBBDF804201AB107492046FBF719
:10B3B40037FB284604B070BD58C30200B0C3020076
:10B3C400EDCC020037CD020076CD020080B14FF003
:10B3D400F7130360FB230371F723C380172303814F
:10B3E40041F6FB3200230161438182811846704794
:10B3F4000E20704730B1A1F11703E02B04D801806F
:10B40400002070470E2070470720704713B503468D
:10B4140080880C46B8B91A88242A00F09C8014D875
:10B42400112A74D0232A00F0A780102A3ED0A37AD0
:10B434004BB1E1880020FFF782FF002840F0A28092
:10B444004FF48073638102B010BD3A2A68D0552A44
:10B45400EDD1DB88C988A072172B38BF17238B4224
:10B4640028BF0B462381FFF76CFF60B1FCF7AEFBEE
:10B474004E4B4F4902464F481B1ADB081B0443F04E
:10B484000100FBF7CDFAE27A002AD0D12369002B20
:10B49400CDD040F67721ADF802202289ADF8001016
:10B4A400ADF80420694620469847C0E7DB7B0A795B
:10B4B4000A73012B13D0022B14D0E18823898B4209
:10B4C40005D20020FFF73BFF70B90123E372217B13
:10B4D400637B8B42ABD20020FFF736FFA7E70B88D4
:10B4E400E380EAE74B88FBE7112802D10123A3722A
:10B4F400EDE7FCF76BFB2D4B2F4902462D481B1A39
:10B50400DB081B0443F00100FBF78AFADFE7F723AB
:10B51400CB8017230B8141F6FB3348818B8186E76F
:10B524005B89CA88934228BF1346172B0A6938BF20
:10B5340017230B8162B1C97A51B140F67721ADF876
:10B544000010ADF80200ADF804306946204690477B
:10B55400002363816BE71A7A0B694A73002B3FF46B
:10B5640066AF4DF67A218DF80500ADF80010ADF800
:10B5740002008DF8042095E7197A237B994228BFAD
:10B584001946A9E711283FF45EAFFCF71FFB074BF0
:10B594000949024607481B1ADB081B0443F0010053
:10B5A40002B0BDE81040FBF73BBA00BFB0C30200D5
:10B5B400FDCD020058C30200CCCD0200B0DF7047BD
:10B5C40066DF704710B5002104464088FFF7F8FF96
:10B5D400034608B9237210BD112801D10123F9E7EC
:10B5E4006368BDE81040184760B159B10378DE2B99
:10B5F4000AD00B684360DE2303704FF6FF73438069
:10B60400002070470E2070470820704728B1037847
:10B61400DE2B04D14180002070470E2070470820A3
:10B624007047F0B5054685B00C46002942D0002885
:10B6340040D00B78DE2B3DD182884B889A4204D1CE
:10B644000B7A13B10846FFF7BDFF2B88112B33D0BB
:10B65400512B0FD0012B2DD12B7A012B2AD1A98864
:10B664006288914226D12046237205B0BDE8F0409D
:10B67400FFF7A8BFAE886388B3421BD1AF79022F0E
:10B6840018D1AD7B2B1F022B14D800211022684641
:10B6940000F09DFD052D18BF4FF4C0736946304678
:10B6A40018BFADF804308DF80070FFF787FF08B1BC
:10B6B4006368984705B0F0BD6388AA889A4204BFBE
:10B6C4004FF6FF736380F5E7A8DF7047ADDF70477F
:10B6D400AEDF704762DF704770B505468AB00C462E
:10B6E40000295ED000285CD00388502B33D0572B20
:10B6F4006BD0102B55D181886069002601AA019670
:10B70400FFF735FD0223218AA888ADF80A6002AA52
:10B71400CDF80CD0ADF80830FFF7D8FF002840D1A1
:10B72400A369002B3DD00398FFF75FFD002838D0B4
:10B73400019E0EB1012333701822002104A800F0E9
:10B7440046FD02238DF81030AB88ADF8183005940F
:10B75400A369079623E08188606902AAFFF707FDC1
:10B764001822002104A800F032FDAB882189ADF82D
:10B774001830EB88029A05949942079218D12E8AC0
:10B78400022E15D16AB105F11200FFF72EFD029BBE
:10B7940048B101221A708DF81060A3690BB104A896
:10B7A40098470AB070BD187003238DF81030F4E781
:10B7B400A2899A42F5D1A369002BF2D005F11202B5
:10B7C40008922A8AADF82420E9E78188606902AAF0
:10B7D400FFF7CDFC01460028E3D1029E3378002B0D
:10B7E400DFD0182204A800F0F2FC0123AAE700002D
:10B7F400F0B53A4B8FB002AD04460A4603F1100C83
:10B804002F46186859682E4603C6083363453546E3
:10B81400F7D1002C5FD0002A5DD01368A3612146C4
:10B824003846FFF757FF002853D12246012512F866
:10B83400023B8DF8063001A92846ADF80450FFF705
:10B8440043FF002845D10146202206A800F0BFFC92
:10B8540022460223ADF8183012F80C3B8DF81A304A
:10B86400BDF824301E4E6088079623F44F6323F0FE
:10B874000F0343F440632B4306A9ADF824308DF83D
:10B8840029508DF82A50FFF7B4FC10BB0146202242
:10B8940006A800F09CFC22460323ADF8183012F8E9
:10B8A400043B8DF81A30BDF824306088079623F4E1
:10B8B400875323F01F0343F480532B43ADF8243004
:10B8C40006A940F201138DF82950ADF82A30FFF78C
:10B8D40090FC0FB0F0BD0E20FBE700BF41CE02008C
:10B8E400F4000100F0B50F4687B016461C46054625
:10B8F40010B3406901AA1946FFF739FCD0B94FF6D5
:10B90400FF739C421AD0019BC3B11B78C3B1338827
:10B91400F42B17D8AB88CDF80B008DF80F00ADF8D9
:10B92400083002A901232046CDE904678DF80A30C6
:10B93400FFF7CEFE07B0F0BD0E20FBE70520F9E7C8
:10B944000820F7E70720F5E710DF704713B5044632
:10B9540009496846FCF705F9019808B902B010BD19
:10B96400D0E900212046904718B16846FCF703F956
:10B97400F2E71120F2E700BF60CE020013B50446DF
:10B9840007496846FCF7EDF8019B0BB902B010BDFE
:10B994002046D3E9002190476846FCF7ECF8F3E72A
:10B9A40078CE02000B4991F816335A09EC2313415F
:10B9B400DB0706D5084B9A683AB94FF480030B604D
:10B9C400704742F20200FBF7B7B91A6842F48002EA
:10B9D4001A60704700E100E050320020F7B5194FBB
:10B9E4003C7864BB184E012520463570FFF7AEFF46
:10B9F400112821D02046FFF7C1FF144B8DF80340D6
:10BA0400186801900DF10300FBF7E6FC104901A84A
:10BA1400FFF79AFF0446B0FA80F0400938709DF8A9
:10BA24000300FBF7FDFC3CB90A4B34701C70FFF7B4
:10BA3400B9FF2846FFF7A2FF204603B0F0BD082453
:10BA4400FAE700BF893C0020883C002059CE020060
:10BA5400596D02008A3C0020014B1878704700BFE2
:10BA6400893C002007B508496846FCF77AF8019B31
:10BA740013B903B05DF804FBD3E90020904768468E
:10BA8400FCF779F8F3E700BF6CCE0200FFF7EABFDA
:10BA940060DF704769DF704761DF704730B5134D71
:10BAA400ADF5017D4FF4FA740DF1020103A8ADF870
:10BAB4000240FFF7F1FF70B9294601A8FCF751F8DD
:10BAC400029B002BF0D003A8D3E90021904701A8E2
