:020000022000DC
:1060000000000120896302007163020073630200D3
:1060100075630200776302007963020000000000EC
:106020000000000000000000000000007B63020090
:106030007D630200000000007F63020081630200B4
:1060400083630200836302008363020083630200B0
:1060500083630200836302008363020083630200A0
:106060008363020083630200836302008363020090
:106070008363020083630200836302008363020080
:106080008363020083630200836302008363020070
:1060900083630200836302004D6F0200836302008A
:1060A0008363020083630200836302008363020050
:1060B0008363020083630200000000000000000010
:1060C0008363020083630200836302008363020030
:1060D0008363020083630200836302000000000008
:1060E00000000000000000000000000000000000B0
:1060F00000000000000000000000000000000000A0
:10610000000000000000000000000000000000008F
:10611000000000000000000000000000000000007F
:10612000000000000000000000000000000000006F
:10613000000000000000000000000000000000005F
:10614000000000000000000000000000000000004F
:10615000000000000000000000000000000000003F
:10616000000000000000000000000000000000002F
:10617000000000000000000000000000000000001F
:10618000000000000000000000000000000000000F
:1061900000000000000000000000000000000000FF
:1061A00000000000000000000000000000000000EF
:1061B00000000000000000000000000000000000DF
:1061C00000000000000000000000000000000000CF
:1061D00000000000000000000000000000000000BF
:1061E00000000000000000000000000000000000AF
:1061F000000000000000000000000000000000009F
:106200003A493B480A1A02D0072291438D46394940
:1062100039480A1A06D00722914381F309880222DD
:1062200082F3148835483649364A00F041F836483A
:106230003649374A00F03CF836483749374A00F0CB
:1062400037F837483749384A00F032F83748384984
:10625000384A00F02DF838483849394A00F028F813
:1062600038483949394A00F023F839483949002279
:1062700000F036F838483949002200F031F8384843
:106280003849091A00F0BAFE374A9047254826498E
:10629000884205D00268043003B4904703BCF7E796
:1062A00000208646EC4600200021304A9047FEE759
:1062B000884214D0521A12D003460B4313430324CE
:1062C000234206D1036804300B600431043AF9D14B
:1062D0007047037801300B700131013AF9D17047F2
:1062E000884202D002700130FAE7704700000120B6
:1062F00000E0002000000120000001209472020054
:10630000685900206C590020E4630200E463020035
:10631000147002009472020068590020685900202D
:106320001C7002001C7002001C7002001C70020035
:106330001C7002001C7002001C7002001C70020025
:1063400094720200987202006C5900206C5900206F
:106350006C5900209059002090590020905900203D
:106360009059002090790020B1630200016602007C
:10637000FEE7FEE7FEE7FEE7FEE7FEE7FEE7FEE7F5
:10638000FEE7FEE700F002B8FFF7FCBF0F484FF052
:106390000701884385460E4880470E48016841F44E
:1063A00070010160BFF34F8FBFF36F8FFFF728BFFE
:1063B00009480A490A4A884207D0521A05D0037888
:1063C00001300B700131013AF9D170470000012012
:1063D0002D6C020088ED00E01C700200685900205E
:0463E00068590020D8
:1063E40086B003900291019201238DF817309DF835
:1063F4001730204A039B13601E4A029B53601D4AB8
:10640400019B9360039B44F20102934212D0039BCD
:1064140044F20202934220D1019B164AD360154BE9
:10642400DB681B68134A9361124BDB685B68114A93
:10643400D36112E0019B0F4A13610E4B1B699B68E9
:106444000C4A53610B4B1B691B680A4A9361094B45
:106454001B695B68074AD36100BF72B600BF00BF07
:106464009DF81730DBB2002BFAD162B600BF00BF33
:1064740006B070476C59002000B583B002900091BB
:10648400019244F2010071466A4600F003F803B039
:1064940000BD00BF00B587B003900291019272B6AF
:1064A40000BF039B44F20202934217D0039B44F2C1
:1064B4000202934218D8039B44F20102934210D083
:1064C400039B44F2010293420ED8039B012B0DD08F
:1064D400039B41F2010293420AD005E0019B05931C
:1064E40007E0019B049304E000BF02E000BF00E06A
:1064F40000BF084B1B6803F00103002B00D000BE53
:10650400019A02990398FFF76BFF00BF07B05DF88B
:1065140004FB00BFF0ED00E000B585B00346009138
:10652400ADF80630BDF806300293009B039302AB2E
:106534001A46002144F20200FFF7ACFF00BF05B089
:106544005DF804FB00B583B001900091019B002B22
:1065540003D110495020FFF7DFFF009B002B03D12C
:106564000C495120FFF7D8FF019B009A1A60019B48
:106574001B681A68019B5A60019B5A68019B1B683F
:106584005B689A4202D1019B00225A6000BF03B0AB
:106594005DF804FB1C70020000B583B00190019B00
:1065A400002B03D114496320FFF7B6FF019B1B683E
:1065B400002B03D110496420FFF7AEFF019B5B68F9
:1065C400002B14D0019B5B681A46019B1B689B68D7
:1065D40013441A46019B5A60019B5A68019B1B682D
:1065E4005B689A4204D1019B00225A6000E000BF1C
:1065F40003B05DF804FB00BF1C70020000231846C2
:1066040070470000BFF34F8F00BF064BDB6803F4F5
:10661400E0620449044B1343CB60BFF34F8F00BFC8
:1066240000BFFDE700ED00E00400FA0582B01D4B59
:106634001B68B3F1FF3F0AD11B4B1B68DBB201930C
:106644001A4B1B681B0903F00F03009305E0154B5D
:106654001B680193164B1B680093019B062B1DD1ED
:10666400009B033B042B17D801A252F823F000BF70
:10667400896602008D66020091660200956602003A
:106684009966020001230AE0012308E0012306E0E1
:10669400012304E0012302E0012300E00023184663
:1066A40002B0704730010010E00F00F0E80F00F076
:1066B4003401001082B0174B1B68DBB20193164BF8
:1066C4001B681B0903F00F030093019B062B1DD1CC
:1066D400009B033B042B17D801A252F823F000BF00
:1066E400F9660200FD660200016702000567020008
:1066F4000967020001230AE0002308E0002306E002
:10670400002304E0002302E0002300E000231846F5
:1067140002B07047E00F00F0E80F00F082B01D4BAC
:106724001B68B3F1FF3F0AD11B4B1B68DBB201931B
:106734001A4B1B681B0903F00F03009305E0154B6C
:106744001B680193164B1B680093019B062B1DD1FC
:10675400009B033B042B17D801A252F823F000BF7F
:10676400796702007D670200816702008567020085
:106774008967020001230AE0012308E0012306E0FF
:10678400012304E0012302E0012300E00023184672
:1067940002B0704730010010E00F00F0E80F00F085
:1067A4003401001082B0174B1B68DBB20193164B07
:1067B4001B681B0903F00F030093019B062B1DD1DB
:1067C400009B033B042B17D801A252F823F000BF0F
:1067D400E9670200ED670200F1670200F567020055
:1067E400F967020001230AE0002308E0002306E021
:1067F400002304E0002302E0002300E00023184605
:1068040002B07047E00F00F0E80F00F082B01D4BBB
:106814001B68B3F1FF3F0AD11B4B1B68DBB201932A
:106824001A4B1B681B0903F00F03009305E0154B7B
:106834001B680193164B1B680093019B062B1DD10B
:10684400009B033B042B17D801A252F823F000BF8E
:10685400696802006D6802007168020075680200D0
:106864007968020001230AE0012308E0012306E01D
:10687400012304E0012302E0012300E00023184681
:1068840002B0704730010010E00F00F0E80F00F094
:106894003401001082B0174B1B68DBB20193164B16
:1068A4001B681B0903F00F030093019B062B1DD1EA
:1068B400009B033B042B17D801A252F823F000BF1E
:1068C400D9680200DD680200E1680200E5680200A0
:1068D400E968020001230AE0002308E0002306E03F
:1068E400002304E0002302E0002300E00023184614
:1068F40002B07047E00F00F0E80F00F082B0174BD1
:106904001B68DBB20193164B1B681B0903F00F03D2
:106914000093019B062B1DD1009B033B042B17D82E
:1069240001A252F823F000BF416902004569020048
:10693400496902004D6902005169020001230AE01D
:10694400002308E0002306E0002304E0002302E023
:10695400002300E00023184602B07047E00F00F067
:10696400E80F00F082B01D4B1B68B3F1FF3F0AD162
:106974001B4B1B68DBB201931A4B1B681B0903F00A
:106984000F03009305E0154B1B680193164B1B681E
:106994000093019B062B1DD1009B033B042B17D8AE
:1069A40001A252F823F000BFC1690200C5690200C8
:1069B400C9690200CD690200D169020000230AE01E
:1069C400002308E0012306E0012304E0012302E0A0
:1069D400012300E00023184602B070473001001084
:1069E400E00F00F0E80F00F03401001082B01D4BFE
:1069F4001B68B3F1FF3F0AD11B4B1B68DBB2019349
:106A04001A4B1B681B0903F00F03009305E0154B99
:106A14001B680193164B1B680093019B062B1DD129
:106A2400009B033B042B17D801A252F823F000BFAC
:106A3400496A02004D6A0200516A0200556A020066
:106A4400596A020001230AE0012308E0012306E059
:106A5400012304E0012302E0012300E0002318469F
:106A640002B0704730010010E00F00F0E80F00F0B2
:106A74003401001082B01D4B1B68B3F1FF3F0AD1F3
:106A84001B4B1B68DBB201931A4B1B681B0903F0F9
:106A94000F03009305E0154B1B680193164B1B680D
:106AA4000093019B062B1DD1009B033B042B17D89D
:106AB40001A252F823F000BFD16A0200D56A020095
:106AC400D96A0200DD6A0200E16A020001230AE0D9
:106AD400012308E0012306E0012304E0012302E08E
:106AE400012300E00023184602B070473001001073
:106AF400E00F00F0E80F00F03401001082B0154BF5
:106B04001B680193144B1B680093019B062B1DD13A
:106B1400009B033B042B17D801A252F823F000BFBB
:106B2400396B02003D6B0200416B0200456B0200B1
:106B3400496B020000230AE0002308E0002306E07A
:106B4400012304E0012302E0012300E000231846AE
:106B540002B07047300100103401001082B0154BB0
:106B64001B680193144B1B680093019B062B1DD1DA
:106B7400009B033B042B17D801A252F823F000BF5B
:106B8400996B02009D6B0200A16B0200A56B0200D1
:106B9400A96B020000230AE0002308E0002306E0BA
:106BA400002304E0012302E0012300E0002318464F
:106BB40002B07047300100103401001008B5FFF72F
:106BC400CDFF0346002B07D04FF010234FF0804237
:106BD400D3F80832C2F8583500BF08BD00BF044BD3
:106BE400D3F80034002BFAD000BF00BF704700BFB9
:106BF40000E0014000B583B00190054A019BC2F852
:106C04000435FFF7EBFF00BF03B05DF804FB00BFE2
:106C140000E00140024B034A1A6000BF704700BF06
:106C2400685900200090D00308B5FFF7FFFC034625
:106C3400002B06D0964B1B681B0A964A03F01F03D1
:106C44001360FFF737FD0346002B02D0924B934AA3
:106C54001A60FFF763FD0346002B06D0904B1B68B8
:106C64005B0B904A03F007031360FFF79BFD034699
:106C7400002B05D08C4BDB688B4A23F08073D360E8
:106C8400FFF7C4FD0346002B0ED04FF080430022D3
:106C9400C3F80C214FF080430022C3F810214FF0B9
:106CA40080430022C3F83825FFF7F4FD0346002B88
:106CB40002D07E4B03221A60FFF720FE0346002B0E
:106CC4000BD07B4B05221A607A4B01221A607A4B57
:106CD40000221A60794B3F221A60FFF743FE0346F5
:106CE400002B76D04FF08053754AD3F80434C2F8A1
:106CF40020354FF08053724AD3F80834C2F8243553
:106D04004FF080536E4AD3F80C34C2F828354FF054
:106D140080536B4AD3F81034C2F82C354FF08053AB
:106D2400674AD3F81434C2F830354FF08053644ABC
:106D3400D3F81834C2F834354FF08053604AD3F88E
:106D44001C34C2F840354FF080535D4AD3F82034E8
:106D5400C2F844354FF08053594AD3F82434C2F86A
:106D640048354FF08053564AD3F82834C2F84C358E
:106D74004FF08053524AD3F82C34C2F850354FF0B8
:106D840080534F4AD3F83034C2F854354FF080530F
:106D94004B4AD3F83434C2F860354FF08053484A34
:106DA400D3F83834C2F864354FF08053444AD3F8EA
:106DB4003C34C2F868354FF08053414AD3F840342C
:106DC400C2F86C354FF080533D4AD3F84434C2F8CE
:106DD4007035FFF70BFE0346002B05D0394B1B68BB
:106DE400394A03F04F031360FFF744FE0346002BB8
:106DF4000DD04FF08043D3F8003403F00103002B8F
:106E040005D04FF080436FF00102C3F80024FFF770
:106E140075FE0346002B05D02C4B1B682B4A43F40C
:106E2400806313602A4BD3F88830294A43F47003F3
:106E3400C2F88830BFF34F8F00BFBFF36F8F00BF1E
:106E4400FFF7BCFE4FF01023D3F80032002B05DB14
:106E54004FF01023D3F80432002B15DA0120FFF78A
:106E6400C9FE4FF010231522C3F80022FFF7B6FE27
:106E74004FF010231522C3F80422FFF7AFFE0020C1
:106E8400FFF7B8FEFFF7BEFBFFF7C4FE00BF08BD67
:106E9400240300104035014074C007400DF0ADBA22
:106EA400440200103C050040F0ED00E0A005004065
:106EB40010560040885600401856004014560040B2
:106EC40000C0004058020010E40E00403C1700408F
:106ED40000ED00E000B583B00190019B002B03D1CD
:106EE4000449C420FFF718FB019B5B68184603B0F4
:106EF4005DF804FBBC70020000B585B06B46114917
:106F04001846FFF71FFB10E06B461846FFF7E2FF39
:106F14000390039B1B680293039B5A68029B1046D1
:106F240098476B461846FFF737FB6B461846FFF742
:106F3400D1FF0346002BE7D100BF00BF05B05DF8C9
:106F440004FB00BF9C71020008B5FFF7D5FF00BF2A
:106F540008BD000000B583B00190019B002B03D154
:106F64000449C420FFF7D8FA019B5B68184603B0B4
:106F74005DF804FBA87102004BDF704700BF1846A0
:106F840000B589B0019004AB1846FFF7F5FF0790F0
:106F9400079B002B03D0079B052B20D124E002ABD9
:106FA40013491846FFF7CEFA11E002AB1846FFF773
:106FB400D1FF0690069B1B680593049A069B5968AB
:106FC400059B1046984702AB1846FFF7E5FA02AB5B
:106FD4001846FFF7BFFF0346002BE6D1D3E7054A67
:106FE4006B210798FFF748FA00BF09B05DF804FB6E
:106FF40088720200FC710200082938BF7047002221
:10700400C0E9002145F68C11C2F200010860704706
:08701400856F0200000000007E
:10701C00433A5C55736572735C4D696E68205475A8
:10702C00616E5C446F63756D656E74735C6F6666E0
:10703C006963655C67656E696F5F61636164656DEB
:10704C00795F696F745C332E496F545F4669726D5A
:10705C00776172655C322E4669726D776172655F1D
:10706C00766572325C4669726D776172655C636FCE
:10707C006D706F6E656E74735C6C6962726172694F
:10708C0065735C6578706572696D656E74616C5F53
:10709C0073656374696F6E5F766172735C6E726632
:1070AC005F73656374696F6E5F697465722E6300DC
:1070BC002E2E2F2E2E2F2E2E2F2E2E2F2E2E2F2EDF
:1070CC002E2F636F6D706F6E656E74732F6C6962AB
:1070DC007261726965732F6578706572696D656E22
:1070EC0074616C5F73656374696F6E5F76617273E4
:1070FC002F6E72665F73656374696F6E5F6974651A
:10710C00722E6800433A5C55736572735C4D696E00
:10711C0068205475616E5C446F63756D656E747335
:10712C005C6F66666963655C67656E696F5F6163FA
:10713C006164656D795F696F745C332E496F545F60
:10714C004669726D776172655C322E4669726D7735
:10715C006172655F766572325C4669726D776172D9
:10716C00655C636F6D706F6E656E74735C736F6668
:10717C00746465766963655C636F6D6D6F6E5C6E70
:10718C0072665F7364682E630000000001000007E4
:10719C00147002001C700200080000002E2E2F2E0E
:1071AC002E2F2E2E2F2E2E2F2E2E2F2E2E2F636F78
:1071BC006D706F6E656E74732F6C6962726172693B
:1071CC0065732F6578706572696D656E74616C5F3F
:1071DC0073656374696F6E5F766172732F6E72661E
:1071EC005F73656374696F6E5F697465722E680096
:1071FC00433A5C55736572735C4D696E68205475C7
:10720C00616E5C446F63756D656E74735C6F6666FE
:10721C006963655C67656E696F5F61636164656D09
:10722C00795F696F745C332E496F545F4669726D78
:10723C00776172655C322E4669726D776172655F3B
:10724C00766572325C4669726D776172655C636FEC
:10725C006D706F6E656E74735C736F667464657657
:10726C006963655C636F6D6D6F6E5C6E72665F7388
:10727C0064685F736F632E6300000000147002007B
:08728C0014700200080000006C
:047294000090D00393
:0400000320006389ED
:00000001FF
