:020000022000DC
:106000000000012019620200016202000362020026
:10601000056202000762020009620200000000003F
:106020000000000000000000000000000B62020001
:106030000D620200000000000F6202001162020007
:10604000F1CE02001362020089D402009DEB02002F
:10605000136202001362020085D3020045D80200D9
:106060001362020013620200136202001362020054
:106070001362020013620200136202001362020044
:106080001362020095FD0200136202001362020017
:10609000D5FD020013620200A92B03001362020067
:1060A0001362020013620200136202001362020014
:1060B00013620200136202000000000000000000F2
:1060C00013620200136202001362020013620200F4
:1060D000136202001362020013620200000000005B
:1060E00000000000000000000000000000000000B0
:1060F00000000000000000000000000000000000A0
:10610000000000000000000000000000000000008F
:10611000000000000000000000000000000000007F
:10612000000000000000000000000000000000006F
:10613000000000000000000000000000000000005F
:10614000000000000000000000000000000000004F
:10615000000000000000000000000000000000003F
:10616000000000000000000000000000000000002F
:10617000000000000000000000000000000000001F
:10618000000000000000000000000000000000000F
:1061900000000000000000000000000000000000FF
:1061A00000000000000000000000000000000000EF
:1061B00000000000000000000000000000000000DF
:1061C00000000000000000000000000000000000CF
:1061D00000000000000000000000000000000000BF
:1061E00000000000000000000000000000000000AF
:1061F000000000000000000000000000000000009F
:10620000FEE7FEE7FEE7FEE7FEE7FEE7FEE7FEE766
:10621000FEE7FEE700F002B8FFF7FCBF0F484FF0C3
:106220000701884385460E4880470E48016841F4BF
:1062300070010160BFF34F8FBFF36F8F00F01AB88A
:1062400009480A490A4A884207D0521A05D00378F9
:1062500001300B700131013AF9D170470000012083
:10626000ED94020088ED00E044400300D82A0020AD
:10627000D82A0020354936480A1A02D0072291430D
:106280008D46344934480A1A06D00722914381F3D7
:106290000988022282F3148830483149314A00F0DB
:1062A00044F831483149324A00F03FF83148324928
:1062B000324A00F03AF832483249334A00F035F8B1
:1062C00032483349334A00F030F833483349344ACE
:1062D00000F02BF833483449344A00F026F83448AB
:1062E0003449002200F02CF833483449002200F0F1
:1062F00027F833483349091A082902DB00220260D3
:106300004160314A90471F481F49884205D00268C2
:10631000043003B4904703BCF7E700208646EC4600
:1063200000200021294A9047FEE7884207D0521AF0
:1063300005D0037801300B700131013AF9D1704773
:10634000884202D002700130FAE770470000012055
:1063500000E0002000000120000001208C63030009
:10636000D82A0020D02B0020D0630200D063020086
:10637000403F03008C630300D82A0020D82A002065
:1063800044400300444003004440030044400300F1
:1063900044400300444003004440030044400300E1
:1063A0008C63030084640300D02B0020D02B0020DA
:1063B000D02B0020903F0020903F0020903F0020F5
:1063C000903F0020905F002041620200A9810200FE
:1063D00000B583B001900091019B002B01D1054BCA
:1063E00001930099019807F059FB0346184603B042
:1063F0005DF804FB0041030000B587B00190019BEC
:106400001B78002B53D1019B5B681B88ADF81630BD
:10641000019B5B680121184607F042FC0490049B35
:106420000393039B002B04D0234A1E21039808F0FA
:106430005FFEBDF916304FF4167202FB03F3002B1A
:1064400001DA03F2FF339B121A4613465B00134432
:106450005B001A46194B1A60184B1B68642202FB3A
:1064600003F3A3F5E033A3F59C73154AA2FB0323C2
:106470005B09DAB2134B1A70124B1B78142B94BFC2
:1064800001230023DAB20D4B1B6840F6D4018B4286
:1064900094BF01230023DBB21343DBB2002B03D0F4
:1064A000094B01221A7002E0074B00221A7000BF4C
:1064B00007B05DF804FB00BF44400300D42B00206C
:1064C000B5814E1BD82B0020D92B002000B589B0F8
:1064D0001B4A01AB07CA03C31A701A490020FFF711
:1064E00077FF0790079B0693069B002B04D0164A64
:1064F0003A21069808F0FCFD01AB1946002007F090
:106500003DFB0790079B0593059B002B04D00E4A8B
:106510003D21059808F0ECFD01210C4807F0C0FB77
:106520000790079B0493049B002B04D0064A40214C
:10653000049808F0DDFD00BF09B05DF804FB00BF62
:10654000F4400300F963020044400300D02B002014
:1065500076DF704700BF184677DF704700BF1846E8
:106560007ADF704700BF18467CDF704700BF1846CF
:106570007FDF704700BF18468FDF704700BF1846A7
:10658000B1DF704700BF184633DF704700BF1846C1
:1065900000B585B00190019B002B0AD0074B43F05A
:1065A00001030393019B9B010293039B029898476D
:1065B00000E000BF05B05DF804FB00BF60440300CD
:1065C00000B583B00190019B1B68184600F0C0F82D
:1065D0000346002B04D105494FF4F67000F04CF946
:1065E0004FF0A043184603B05DF804FB04410300DC
:1065F00000B585B00190084611461A4603468DF84D
:1066000003300B468DF8023013468DF8013001AB94
:106610001846FFF7D5FF03909DF803209DF8023040
:106620005B001A439DF801309B001A439DF8183017
:106630001B0242EA03019DF81C301B04019A194316
:10664000039B02F5E07243F8221000BF05B05DF82D
:1066500004FB00B585B00390002301930023009351
:106660000023012201210398FFF7C2FF00BF05B0FC
:106670005DF804FB00B585B003900B468DF80B3038
:106680009DF80B300022019200220092002200218E
:106690000398FFF7ADFF00BF05B05DF804FB00B540
:1066A00085B0019001AB1846FFF78AFF0390019B6C
:1066B000012202FA03F31946039800F035F800BFEF
:1066C00005B05DF804FB00B585B0019001AB18463C
:1066D000FFF776FF0390019B012202FA03F31946AC
:1066E000039800F02BF800BF05B05DF804FB00B57F
:1066F00085B0019001AB1846FFF762FF0390039845
:1067000000F00AF80246019B22FA03F303F00103AA
:10671000184605B05DF804FB82B00190019BD3F8E8
:106720001035184602B0704782B001900091019B6D
:10673000009AC3F8082500BF02B0704782B00190EC
:106740000091019B009AC3F80C2500BF02B070476E
:1067500084B00190019B5B09029300230393029B89
:10676000002B03D14FF0FF33039300BF019B03F0D5
:106770001F030193039A019B22FA03F303F0010321
:10678000002B14BF01230023DBB2184604B070476E
:1067900000B583B00190019B002B0AD04FF47A70B2
:1067A000FFF7F6FE019B013B0193019B002BF5D106
:1067B00000E000BF03B05DF804FB00B583B00190BA
:1067C000019B0433184607F0B9FD00BF03B05DF824
:1067D00004FB00B589B0059003921A460B468DF86C
:1067E000133013468DF8123000230793059B181DB4
:1067F0009DF812209DF813109DF828300093134641
:10680000039A08F0E1F80790079B184609B05DF875
:1068100004FB00B587B0039001921A460B468DF831
:106820000B3013468DF80A3000230593039B181D87
:106830009DF80A309DF80B10019A08F0EDF80590CC
:10684000059B184607B05DF804FB00B583B003460E
:106850008DF807300A20FFF7FCFE9DF80730002B6B
:1068600003D10A20FFF72FFF02E00A20FFF717FFEE
:1068700000BF03B05DF804FB00B583B00346009190
:10688000ADF80630BDF80630009A1946034808F006
:106890002FFC00BF03B05DF804FB00BFEFBEADDE10
:1068A00000B585B009F09CFA0390039B0293029B0C
:1068B000002B05D00D4A4FF48271029808F018FCA5
:1068C0000B4A01210B4809F0BFFA0390039B019387
:1068D000019B002B05D0054A40F20911019808F0F0
:1068E00007FC00BF05B05DF804FB00BF34410300A6
:1068F000CD7402004044030000B587B09DF800301D
:10690000012262F303038DF800309DF8003001226C
:1069100062F307138DF800306B4606221C491846B7
:10692000FFF722FE0590059B0493049B002B05D0E6
:10693000184A4FF48E71049808F0DAFB01AB082274
:10694000002118460DF0CCFA4FF4A073ADF80430D6
:106950004FF40273ADF806300023ADF808304FF461
:10696000C873ADF80A3001AB1846FFF7F9FD059082
:10697000059B0393039B002B05D0064A4FF49371AC
:10698000039808F0B5FB00BF07B05DF804FB00BF3B
:10699000C44103003441030000B583B00190054AAF
:1069A00040F23311019808F0A3FB00BF03B05DF87B
:1069B00004FB00BF3441030000B587B00190019B88
:1069C0001B78002B44D1002305932BE0019B1A690F
:1069D000059B13441B78184609F01EFB0490049B8A
:1069E000002B19D0049B112B16D01B4A1B4BD31A1A
:1069F000DB081B0443F00103049A194918460BF005
:106A00003BF9049B0393039B002B05D0154A40F2EE
:106A10005111039808F06CFB049B112BD6D0059BF9
:106A200001330593019B9B8A1A46059B9342CDD364
:106A3000019B1A69019B9B8A013B13441B780D2B18
:106A400006D100BF0A2009F0E7FA0346112BF9D05E
:106A500000BF07B05DF804FBEC3F0300AC3F030050
:106A6000CC4103003441030000B587B000230193FB
:106A7000174B019301AB1946164805F087FA0590AC
:106A8000059B0493049B002B05D0134A40F26B1125
:106A9000049808F02DFB02AB0422002118460DF0EB
:106AA0001FFA0E4B029302AB19460D4805F0AEFCDF
:106AB0000590059B0393039B002B05D0064A40F2EB
:106AC0007311039808F014FB00BF07B05DF804FBD6
:106AD00099690200A02E002034410300B969020028
:106AE0003C2B002000B585B00190019B1B78002B4A
:106AF00011D10B4B1B883B211846FFF729FD039052
:106B0000039B0293029B002B05D0064A40F2891199
:106B1000029808F0EDFA00BF05B05DF804FB00BF75
:106B2000582B00203441030000B583B00190054A82
:106B30004FF4CA71019808F0DBFA00BF03B05DF8AA
:106B400004FB00BF3441030000B58BB001AB1C2235
:106B5000002118460DF0C4F9002301934FF42033AF
:106B600002934FF47023039303238DF81030002316
:106B7000ADF8123000238DF814300C4B06930C4BFB
:106B8000079301AB184604F0CFF90990099B0893CD
:106B9000089B002B05D0074A40F2AB11089808F07B
:106BA000A7FA00BF0BB05DF804FB00BFE56A020066
:106BB000296B02003441030000B583B0002002F0CD
:106BC00069F90190019B0093009B002B05D0064AB8
:106BD0004FF4DB71009808F08BFAFFF7D5FC0190B9
:106BE00000BF03B05DF804FB3441030000B585B07D
:106BF00003468DF807309DF80730002B11D0032B8A
:106C000012D1022002F046F90390039B0293029BEB
:106C1000002B0BD0084A4FF4E871029808F068FA8C
:106C200004E0FFF7C9FF02E000BF00E000BF00BFC3
:106C300005B05DF804FB00BF3441030000B58DB022
:106C400001900091019B1B88562B00F0F880562B79
:106C500000F30881522B00F0CB80522B00F302810D
:106C6000212B2DDC102BC0F2FD80103B112B00F2EC
:106C7000F98001A252F823F0C96C0200536D0200A2
:106C8000656E0200C96D0200656E0200656E02004D
:106C9000656E0200656E0200656E0200656E0200A0
:106CA000656E0200656E0200656E0200656E020090
:106CB000656E0200656E0200656E0200956D020051
:106CC0003B2B00F0A980CDE06E4A6F4BD31ADB0856
:106CD0001B0443F003036D4918460AF0BFFF072069
:106CE00002F0D8F80B900B9B0593059B002B05D069
:106CF000674A40F2E911059808F0FAF9019B9A8871
:106D0000644B1A80634B1B881946634805F060F991
:106D10000B900B9B0493049B002B05D05C4A4FF413
:106D2000F671049808F0E4F95A4B1B8804221946BE
:106D30000320FFF711FC00F049FE524A524BD31AD0
:106D4000DB081B0443F00303544918460AF086FF8E
:106D500093E04C4A4C4BD31ADB081B0443F003036B
:106D60004F4918460AF07AFF4A4B4FF6FF721A80D5
:106D700001F0E2F9434A444BD31ADB081B0443F009
:106D80000303484918460AF069FF474B184609F0C3
:106D9000C1F872E000238DF80C3000238DF80D301F
:106DA000019B9B8803AA11461846FFF7E5FB0B9051
:106DB0000B9B0793079B002B56D0354A40F20721C7
:106DC000079808F095F94FE0324B1888002300220D
:106DD0008521FFF7CDFB0B900B9B0693069B002BA9
:106DE00044D02B4A40F20D21069808F081F93DE08D
:106DF000284B1888002300220021FFF7C1FB0B90CD
:106E00000B9B0993099B002B32D0214A40F213219E
:106E1000099808F06DF92BE0019B9B881321184617
:106E2000FFF796FB0B900B9B0893089B002B21D040
:106E3000174A40F21A21089808F05AF91AE0019B03
:106E40009B8813211846FFF783FB0B900B9B0A933B
:106E50000A9B002B10D00E4A40F221210A9808F01C
:106E600047F909E000BF08E000BF06E000BF04E00A
:106E700000BF02E000BF00E000BF00BF0DB05DF842
:106E800004FB00BFEC3F0300AC3F0300F8410300EC
:106E900034410300582B0020A02E0020084203009C
:106EA0001442030028420300682E002000B587B07A
:106EB0000BF0F8FD0590059B0493049B002B05D077
:106EC000164A4FF40D71049808F012F9002301934B
:106ED00001AB194601200BF09DFE0590059B039325
:106EE000039B002B05D00D4A40F23A21039808F08D
:106EF000FFF801AB18460BF0ABFF0590059B029322
:106F0000029B002B05D0054A40F23E21029808F072
:106F1000EFF800BF07B05DF804FB00BF3441030089
:106F200000B583B001900091009B5A88114B1B88DB
:106F30009A421AD1009B1B8840F67722934214D1C3
:106F4000009B9B88033B9AB20B4B1A800B4A0C4B5D
:106F5000D31ADB081B0443F00300074B1B881A46B7
:106F6000054B1B8807490AF098FE00BF03B05DF887
:106F700004FB00BF582B00205A2B0020EC3F0300DD
:106F8000AC3F03003042030000B585B01149124800
:106F900004F0FCFE0390039B0293029B002B05D0A0
:106FA0000E4A40F25921029808F0A2F8F7210A4847
:106FB00004F017FF0390039B0193019B002B05D066
:106FC000064A4FF41771019808F092F800BF05B017
:106FD0005DF804FB216F02008C2E00203441030079
:106FE00000B5AFB001ABAC22002118460CF078FF21
:106FF00002238DF8043000238DF8063006238DF827
:1070000007300123ADF85030124B159301238DF852
:1070100080304FF448732393002324930E4B2A931C
:1070200001AB19460D4803F01DFC2D902D9B2C93B0
:107030002C9B002B05D00A4A40F2DA212C9808F04C
:1070400057F80121054803F000FC00BF2FB05DF8A0
:1070500004FB00BF5C2B0020ED6B0200AC2E002077
:107060003441030000B583B04FF4004100200AF022
:107070001FFB0190019B0093009B002B05D0064A4B
:1070800040F2F721009808F033F80AF0A7FA00BFA1
:1070900003B05DF804FB00BF3441030000B583B0CA
:1070A0000AF074F80190019B0093009B002B05D01F
:1070B000044A40F20331009808F01AF800BF03B008
:1070C0005DF804FB3441030008B50AF03BFE0346BB
:1070D00083F00103DBB2002B01D00AF06DF800BF92
:1070E00008BD000000B583B00321094803F092FCFD
:1070F0000190019B0093009B002B05D0054A40F2B4
:107100001931009807F0F4FF00BF03B05DF804FBED
:10711000AC2E00203441030000B587B06B4600223E
:107120001A605A609A60DA601D2300931423019359
:107130004FF0CD63029302238DF80C306946002393
:1071400000220B4805F01CFD0590059B0493049B51
:10715000002B05D0074A4FF44C71049807F0C8FF84
:107160000348FFF72AFB00BF07B05DF804FB00BF30
:10717000444403003441030030B5ADF6244D0023F0
:10718000CDF8143C0023CDF8103C0023CDF8183C7A
:107190000020FFF75AFB4FF49670FFF7F9F9994B6F
:1071A00000221A6012238DF8043C00238DF8053C60
:1071B0005523D9B20DF604420023009302239248CE
:1071C000FFF707FB6420FFF7E3F95523D9B213AAB1
:1071D00002238D48FFF71DFB0DF54263A3F6D43360
:1071E0005B788DF80F3C0DF54263A3F6D4335B78E2
:1071F000CDF8143C12238DF8043C01238DF8053C96
:107200005523D9B20DF604420023009302237E4891
:10721000FFF7DFFA6420FFF7BBF95523D9B29DF8D9
:107220000F3C1A4652001344DB00DBB20133DBB2E1
:1072300013AA7548FFF7EDFA0DF54263A3F6D433B0
:107240001B781A46714B1A600123CDF8183C0023B5
:107250008DF81F3CC7E0DDF8183CCDF8103C0DF56B
:107260004263A3F6D432DDF8103C13441B781A466F
:10727000674B1A60DDF8103C01330DF54262A2F64F
:10728000D432D35C1B02DDF8102C02320DF54261C2
:10729000A1F6D4318A5C13445E4A1360DDF8103CD9
:1072A00003330DF54262A2F6D432D35C1A465A4B30
:1072B0001A60DDF8103C04330DF54262A2F6D432B8
:1072C000D35C1A46554B1A60DDF8103C05330DF5BA
:1072D0004262A2F6D432D35C1B02DDF8102C0632D7
:1072E0000DF54261A1F6D4318A5C13444C4A136017
:1072F000DDF8103C07330DF54262A2F6D432D35CC0
:107300001A46484B1A60DDF8103C08330DF542620E
:10731000A2F6D432D35C1B02DDF8102C09320DF535
:107320004261A1F6D4318A5C13443F4A1360DDF810
:10733000103C0A330DF54262A2F6D432D35C1A46F1
:107340003A4B1A60DDF8103C0B330DF54262A2F6A1
:10735000D432D35C1B02DDF8102C0C320DF54261E7
:10736000A1F6D4318A5C1344314A1360DDF8103C35
:1073700013330DF54262A2F6D432D35C1A462D4B7C
:107380001A60DDF8183C1833CDF8183C2A4A2B4B0C
:10739000D31ADB081B0443F003001E4B1B681C467A
:1073A0001D4B1B681D46224B1B681A461F4B1B6852
:1073B0001946204B1B680293019100922B462246EE
:1073C0001F490AF096FC1C4A1C4BD31ADB081B040D
:1073D00043F003031B4918460AF040FC9DF81F3C8C
:1073E00001338DF81F3C9DF81F3CDDF8142C9A42A8
:1073F0003FF731AF0120FFF728FA00BF0DF6244D0B
:1074000030BD00BFE0320020444403003C2E002089
:10741000402E0020442E0020482E00204C2E00201C
:10742000502E0020542E0020582E0020602E0020C8
:107430005C2E0020642E0020EC3F0300AC3F0300D4
:107440004C4203005C42030008B500F0FDFE00F072
:107450002EFF00F0DFFF00BF08BD000000B583B0C5
:1074600005238DF8073023E000F038FF03468DF840
:1074700006309DF8063003F00103002B13D00023E3
:107480008DF8053000F0CEFF01F02AF810EE103A2A
:1074900018460CF097F802460B460B49C1E9002349
:1074A00000F0B8FF01E000F0B5FFC820FFF770F969
:1074B0009DF807305A1E8DF80720002BD4D100BF4D
:1074C00000BF03B05DF804FB182D002070B586B036
:1074D000924B1B680133914A1360914A914BD31A26
:1074E000DB081B0443F003038C4A12688E491846DC
:1074F0000AF0C2FB8D4BD3E900014FF000028C4B28
:107500000BF07EFF02460B46104619460CF036F88B
:1075100003469AB2874B1A80814A824BD31ADB0802
:107520001B0443F00303834A1288834918460AF078
:10753000A3FB804B1B88B3F58C7F1AD27F4B1B6853
:1075400001337E4A13607D4B1B68032B28D1744A9C
:10755000744BD31ADB081B0443F003037849184625
:107560000AF07CFB774B00221A70744B00221A60E1
:1075700016E0744B1B7883F00103DBB2002B0FD0B5
:10758000704B01221A7000F021FA654A654BD31A3C
:10759000DB081B0443F003036B4918460AF05EFB4B
:1075A000FFF7EAFD694B1B68694A82FB03129210E0
:1075B000DB17D31A674A1360674B1B68644A82FB68
:1075C00003129210DB17D31A644A1360644B1B68D2
:1075D000012B0CBF01230023DAB2614B1B68022B85
:1075E0000CBF01230023DBB21343DBB2002B02D01C
:1075F000584B00221A60494B1B68042B02DC554B88
:1076000000221A60534B1B68002B02D1534B0022FF
:107610001A6006F0E9FB534B1B780A2252491846C0
:107620000BF020FD4F4B1B78002B03D04D4B1B78EC
:10763000092B08D84D494E480CF008FC4A494C48E3
:107640000CF0D3FB18E0474B1B78092B0CD9454BAA
:107650001B78632B08D8474945480CF0F7FB424993
:1076600043480CF0C2FB07E0434941480CF0EEFBF5
:107670003D493F480CF0B9FB384B1B680A223F4993
:1076800018460BF0EFFC354B1B68002B0CDB334B23
:107690001B68092B08DC3A493A480CF0D7FB3749FC
:1076A00038480CF0A2FB0FE02C4B1B680A2B0BDDBB
:1076B0002A4B1B68632B07DC334932480CF0C6FBAE
:1076C0002E4930480CF091FB224B1B680A222F49AF
:1076D00018460BF0C7FC1F4B1B68002B0CDB1D4B27
:1076E0001B68092B08DC2A492A480CF0AFFB274904
:1076F00028480CF07AFB5DE0164B1B680A2B4DDD29
:10770000144B1B68632B49DC234922480CF09EFB79
:107710001E4920480CF069FB4CE000BFE432002019
:10772000EC3F0300AC3F030060420300202D00202B
:1077300000002440282D00206C420300E832002085
:1077400078420300EC3200208C420300442E0020DB
:10775000676666662C2D00205C2E0020302D0020F0
:10776000642E0020D82B0020DC2A0020EC2A0020E8
:10777000E02A0020E82A0020F02A00200C2B00201C
:107780001C2B0020102B0020182B0020F42A002096
:10779000042B0020F82A0020002B0020704B1B68CF
:1077A000632B07DD6F4970480CF050FB6F496E4842
:1077B0000CF01BFBFFF752FE6D4BD3E90023104684
:1077C00019460BF0B5FE0646694BD3E90045684BF8
:1077D000D3E90023104619460BF0AAFE03461846CB
:1077E0000BF0DEFE02460B46204629460BF004FE57
:1077F00002460B46104619464FF000025D4B0BF057
:10780000FFFD02460B46104619460BF091FE03465B
:1078100000933346584A594959480CF01FF8594AC1
:10782000594BD31ADB081B0443F00303544A57494E
:1078300018460AF021FA0AF085FA0346002BFAD11D
:107840000B20FEF754FF05900220FEF750FF049036
:10785000049B0A224E4918460BF004FC049B012BA2
:107860000BD1059B002B08D14A494B480CF0EEFA8E
:10787000474949480CF0B9FA0DE0049B002B0AD1A6
:10788000059B012B07D1434943480CF0DFFA4049DF
:1078900041480CF0AAFA3B4A3B4BD31ADB081B04C5
:1078A00043F003033C4A3D4918460AF0E5F90AF063
:1078B00049FA0346002BFAD139493A480CF0C6FA86
:1078C000354938480CF091FA274936480CF08DFAC2
:1078D000344935480CF0BAFA344933480CF085FA8B
:1078E000314933480CF0B2FA324931480CF07DFA94
:1078F000244A254BD31ADB081B0443F003032D4A0B
:107900002D4918460AF0B8F90AF01CFA0346002B74
:10791000FAD1274929480CF099FA194927480CF05F
:1079200064FA184A184BD31ADB081B0443F003030C
:10793000224A234918460AF09FF90AF003FA03463F
:10794000002BFAD11B23ADF80E301E4B1B880DF116
:107950000E021A491C4804F0FFFD00BF06B070BDBE
:107960002C2D0020082B0020F82A0020F42A0020CB
:10797000182D002000005940D82A0020A4420300FE
:10798000DC2B0020EC3F0300AC3F0300B0420300BF
:10799000282B0020302B00202C2B0020BC42030081
:1079A000202B0020FC2B00200C2C0020102B002072
:1079B000542C0020E02A0020C8420300AC2C0020F8
:1079C000D0420300582B00203C2B002010B582B081
:1079D0000120FEF73AFF0A20FEF7DAFE0020FEF74C
:1079E00034FF4FF49670FEF7D3FDC94B02221A7094
:1079F000C74B00225A705523D9B2002300930223AB
:107A0000C34AC448FEF7E5FE0120FEF71EFF022030
:107A1000FEF7BEFE0020FEF718FF4FF49670FEF74B
:107A2000B7FD5523D9B20223BB4ABA48FEF7F1FE8F
:107A30000120FEF70AFF0020FEF707FF4FF49670C3
:107A4000FEF7A6FDB54AB64BD31ADB081B0443F07C
:107A50000300B14B1B781A46AF4B5B78B1490AF073
:107A60001CF90AF06FF90346002BFAD1A84B01224A
:107A70001A70A74B00225A70A54B00229A7055230A
:107A8000D9B2002300930323A14AA248FEF7A1FE26
:107A900040F2DC50FEF77CFE0120FEF7D6FE02200D
:107AA000FEF776FE0020FEF7D0FE4FF49670FEF74C
:107AB0006FFD5523D9B20223974A9648FEF7A9FED7
:107AC0000120FEF7C2FE0020FEF7BFFE4FF49670C5
:107AD000FEF75EFD914A924BD31ADB081B0443F07C
:107AE0000303914918460AF0B9F80AF02BF9034646
:107AF000002BFAD1864B02221A70854B00225A7055
:107B00005523D9B2002300930223814A8148FEF70E
:107B100060FE0120FEF799FE0220FEF739FE0020EC
:107B2000FEF793FE4FF49670FEF732FD5523D9B25F
:107B30000223794A7748FEF76CFE0120FEF785FEA6
:107B40000020FEF782FE4FF49670FEF721FD734A87
:107B5000734BD31ADB081B0443F003006E4B1B78F6
:107B60001A466D4B5B7871490AF097F80AF0EAF80B
:107B70000346002BFAD1664BFF221A70644B032296
:107B80005A705523D9B2002300930223604A6148FA
:107B9000FEF71FFE0120FEF758FE0220FEF7F8FD5B
:107BA0000020FEF752FE4FF49670FEF7F1FC4FF402
:107BB0009670FEF7EDFC5523D9B20423564A55487A
:107BC000FEF727FE0120FEF740FE0020FEF73DFEF7
:107BD0004FF49670FEF7DCFC504A514BD31ADB0889
:107BE0001B0443F003004C4B1B7819464A4B5B784F
:107BF0001C46494B9B781A46474BDB780193009211
:107C000023460A464A490AF05CF80AF09BF8034604
:107C1000002BFAD13E4B10221A703D4B00225A70B5
:107C20003B4B02229A705523D9B2002300930323C1
:107C3000374A3848FEF7CDFD0120FEF706FE022048
:107C4000FEF7A6FD0020FEF700FE4FF49670FEF74B
:107C50009FFC5523D9B201232F4A2E48FEF7D9FDA8
:107C60000120FEF7F2FD0020FEF7EFFD4FF49670C5
:107C7000FEF78EFC294A2A4BD31ADB081B0443F07B
:107C80000303254A12782B49184609F0F5FF0AF03C
:107C900059F80346002BFAD11D4B50221A701C4B89
:107CA00007225A701A4B0A229A70194B0022DA7076
:107CB0005523D9B2002300930423154A1548FEF733
:107CC00088FD0120FEF7C1FD0220FEF761FD0020C6
:107CD000FEF7BBFD4FF49670FEF75AFC5523D9B260
:107CE00001230D4A0B48FEF794FD0120FEF7ADFD80
:107CF0000020FEF7AAFD4FF49670FEF749FC074AF4
:107D0000074BD31ADB081B0443F0030314E000BF46
:107D1000342D0020444403003C2D0020EC3F0300A0
:107D2000AC3F0300D4420300FC4203000C430300B9
:107D30003443030048430300C74A1278C749184632
:107D400009F09AFF09F0FEFF0346002BFAD1C44B5D
:107D500010221A70C24B02225A70C14B64229A70D0
:107D60005523D9B2002300930323BD4ABD48FEF733
:107D700030FD0120FEF769FD0220FEF709FD00201D
:107D8000FEF763FD4FF49670FEF702FC5523D9B25F
:107D90000123B14AB348FEF73CFD0120FEF755FD33
:107DA0000020FEF752FD4FF49670FEF7F1FBAE4A4D
:107DB000AE4BD31ADB081B0443F00303A64A127828
:107DC000AB49184609F058FF09F0BCFF0346002BE9
:107DD000FAD1A34B41221A70A14B00225A70A04B3A
:107DE000FF229A705523D9B20023009303239C4AA3
:107DF0009C48FEF7EEFC0120FEF727FD0220FEF76F
:107E0000C7FC0020FEF721FD4FF49670FEF7C0FB83
:107E10005523D9B20223904A9248FEF7FAFC01207A
:107E2000FEF713FD0020FEF710FD4FF49670FEF7ED
:107E3000AFFB8D4A8D4BD31ADB081B0443F00300C4
:107E4000854B1B781A46844B5B788A4909F025FFDD
:107E500009F078FF0346002BFAD1814B41221A70BA
:107E60007F4B04225A707E4B0F229A705523D9B251
:107E70000023009303237A4A7A48FEF7AAFC0120E4
:107E8000FEF7E3FC0220FEF783FC0020FEF7DDFC9A
:107E90004FF49670FEF77CFB5523D9B202236E4A4D
:107EA0007048FEF7B6FC0120FEF7CFFC0020FEF77D
:107EB000CCFC4FF49670FEF76BFB6B4A6B4BD31AFE
:107EC000DB081B0443F00300634B1B781A46624B2C
:107ED0005B78694909F0E1FE09F034FF0346002BA5
:107EE000FAD15F4B50221A705D4B07225A705C4BDF
:107EF00019229A705A4B1322DA70594B56221A7172
:107F0000574B00225A715523D9B200230093062300
:107F1000534A5448FEF75DFC0120FEF796FC022010
:107F2000FEF736FC0020FEF790FC4FF49670FEF74B
:107F30002FFB5523D9B20123474A4A48FEF769FC73
:107F40000120FEF782FC0020FEF77FFC4FF49670C4
:107F5000FEF71EFB444A454BD31ADB081B0443F0D3
:107F600003033D4A12784549184609F085FE09F099
:107F7000E9FE0346002BFAD1394B50221A70384BD8
:107F800007225A70364B17229A70354B0022DA704E
:107F9000334B11221A715523D9B2002300930523C4
:107FA0002F4A3048FEF715FC0120FEF74EFC022058
:107FB000FEF7EEFB0020FEF748FC4FF49670FEF74C
:107FC000E7FA5523D9B20123234A2648FEF721FCBC
:107FD0000120FEF73AFC0020FEF737FC4FF49670C4
:107FE000FEF7D6FA204A214BD31ADB081B0443F0D4
:107FF0000303194A12782249184609F03DFE09F098
:10800000A1FE0346002BFAD1154B50221A70144BD7
:1080100007225A70124B18229A70114B3022DA70D4
:108020000F4B20221A715523D9B200230093052348
:108030000B4A0C48FEF7CDFB0120FEF706FC0220A0
:10804000FEF7A6FB0020FEF700FC4FF49670FEF74B
:108050009FFA5523D9B215E03C2D00205C43030064
:10806000342D002044440300EC3F0300AC3F0300E8
:108070007043030084430300A0430300B84303009C
:10808000D04303000123254A2548FEF7C2FB012007
:10809000FEF7DBFB0020FEF7D8FB4FF49670FEF7EF
:1080A00077FA204B52221A701E4B07225A701D4B32
:1080B00001229A705523D9B2002300930323194A51
:1080C0001748FEF786FB40F2D110FEF761FB5523FF
:1080D000D9B20123114A1248FEF79BFB124A134BF7
:1080E000D31ADB081B0443F003030C4A127810492F
:1080F000184609F0C1FD09F025FE0346002BFAD110
:108100000120FEF7A2FB0B4B00224FF40031184672
:1081100007F0CAFE00BF02B010BD00BF3C2D00201A
:1081200044440300342D0020EC3F0300AC3F030027
:10813000EC430300682E002000B583B0174B0022EB
:108140001A600120FEF781FB0020FEF77EFB4FF452
:108150009670FEF71DFA124B52221A70104B07222E
:108160005A700F4B00229A705523D9B20023009306
:1081700003230B4A0B48FEF72CFB0120FEF765FB9F
:108180007820FEF705FB0020FEF75FFB4FF49670AA
:10819000FEF7FEF900BF03B05DF804FBE4320020F7
:1081A000342D00204444030008B5FEF75BFFFEF7C2
:1081B00077FBFEF773FFFEF779FEFEF79DFBFEF7F8
:1081C000E3FEFEF751FCFEF70BFFFEF7BDFC194A7C
:1081D000194BD31ADB081B0443F003031749184655
:1081E00009F03CFD134A144BD31ADB081B0443F07F
:1081F00003031349184609F031FD00210B20FEF757
:1082000039FA00210220FEF735FA0E4B93F854306C
:10821000042219460120FEF79FF9FEF763FFFEF7DF
:108220007BFFFFF711F9FFF787FFFEF74FF9FEF726
:108230004BFFFCE7EC3F0300AC3F030000440300AE
:108240000C440300AC2E002008B500F029F80346CA
:10825000302B11D00E4A0F4BD31ADB081B0443F00E
:1082600003030D49184609F0F9FC09F06BFD0346BC
:10827000002BFAD1002309E000F030F800F070F88C
:108280002222002105480BF02BFE0123184608BDD1
:10829000EC3F0300AC3F030068440300F0320020D1
:1082A00008B5FF2000F028F80346184608BD08B5B9
:1082B0000122FE21012000F055F800BF08BD08B5DD
:1082C000062000F019F80346002B01D0202303E01C
:1082D000072000F011F80346184608BD00B583B02A
:1082E000002000F009F803468DF807309DF80730AC
:1082F000184603B05DF804FB00B585B003468DF861
:1083000007300DF1070101230122502000F0A6F9EA
:108310000DF10F0301221946502000F079F99DF864
:108320000F30184605B05DF804FB00B585B0034674
:108330000A468DF8073013468DF806309DF8073051
:108340008DF80C309DF806308DF80D3003A9002310
:108350000222502000F082F900BF05B05DF804FB56
:1083600000BF704700B585B003468DF807300B4657
:108370008DF8063013468DF805309DF80730184605
:10838000FFF7BAFF03468DF80F309DF80F209DF8D8
:10839000063013408DF80F309DF80F209DF8053002
:1083A0001343DAB29DF8073011461846FFF7BDFFB8
:1083B00000BF05B05DF804FB00B585B001900B4629
:1083C0008DF8033008238DF80E300DF10E010123D6
:1083D0000122502000F042F900238DF80F300CE00C
:1083E0009DF80F305A1C8DF80F201A46019B13443C
:1083F00001221946502000F00BF99DF803305A1E57
:108400008DF80320002BEBD19DF80F30184605B0F6
:108410005DF804FB08B501211420FFF786FF00BFBB
:1084200008BD000010B582B0FFF749FF03468DF884
:1084300007309DF8073003F00103DBB2002B04D0B6
:108440009DF80730013B8DF807309DF8073019463D
:108450002148FFF7B1FF00238DF806302DE01E4BB9
:1084600093F820300133DAB21B4B83F820201A4BEB
:1084700093F8203003F00F03DAB2174B83F8202073
:108480009DF80630144AD25C9DF80630013312493B
:10849000CB5C114991F820100C461946104600F0AB
:1084A0002FF8F0EE407A0D4AA3001344C3ED007A92
:1084B0009DF8063002338DF806309DF807305B08D2
:1084C000DBB29DF806209A42C9D39DF807305B08BD
:1084D000DBB2184602B010BDF03200201433002089
:1084E000054B93F82030054A9B0013441B6807EEA8
:1084F000903AB0EE670A7047F03200201433002043
:1085000000B583B003460A468DF8073013468DF850
:1085100006309DF90730002B1DDA9DF807301A024E
:108520009DF80630134318460BF03AF818A3D3E928
:1085300000230AF065FF02460B464FF000004FF0A3
:1085400000010AF059FF02460B46104619460BF08F
:1085500053F8034614E09DF807301A029DF80630E0
:10856000134318460BF01CF809A3D3E900230AF0C3
:1085700047FF02460B46104619460BF03DF80346EE
:1085800007EE903AB0EE670A03B05DF804FB00BF57
:108590007B14AE47E17A743F00B589B00590039231
:1085A0001A460B468DF8133013468DF8123000230F
:1085B0000793059B181D9DF812209DF813109DF838
:1085C000283000931346039A06F0FEF90790079BA4
:1085D000184609B05DF804FB00B587B0039001921E
:1085E0001A460B468DF80B3013468DF80A300023DF
:1085F0000593039B181D9DF80A309DF80B10019AF6
:1086000006F00AFA0590059B184607B05DF804FBD2
:1086100000B585B0034600918DF807301346ADF8DC
:108620000430BDF80430DBB29DF80710009A094809
:10863000FFF7D2FF0390039B0293029B002B04D011
:10864000054A2E21029806F053FD00BF05B05DF8E3
:1086500004FB00BF7C4403008C44030000B587B0DA
:10866000029111461A4603468DF80F300B46ADF8BD
:108670000C3013468DF80E30BDF80C30DAB29DF890
:108680000F109DF80E3000931346029A0848FFF72A
:1086900083FF0590059B0493049B002B04D0054A9F
:1086A0003421049806F024FD00BF07B05DF804FBF8
:1086B0007C4403008C44030000B583B00190019B0F
:1086C0001B68184600F09DF80346002B04D10549AD
:1086D0004FF4F670FEF7D0F84FF0A043184603B001
:1086E0005DF804FB3445030000B585B0019001AB93
:1086F0001846FFF7E1FF0390019B012202FA03F302
:108700001946039800F069F800BF05B05DF804FB56
:1087100000B585B0019001AB1846FFF7CDFF03907F
:10872000019B012202FA03F31946039800F05FF857
:1087300000BF05B05DF804FB00B585B0019001AB4A
:108740001846FFF7B9FF0390039BD3F80435029353
:10875000029BDA43019B012101FA03F31A40039BB8
:10876000C3F80825019B01229A40029B1A40039BF3
:10877000C3F80C2500BF05B05DF804FB00B583B05D
:1087800001900091009B002B03D10198FFF7C0FFDF
:1087900002E00198FFF7A8FF00BF03B05DF804FBFB
:1087A00000B585B0019001AB1846FFF785FF039037
:1087B000039800F00AF80246019B22FA03F303F043
:1087C0000103184605B05DF804FB82B00190019BDF
:1087D000D3F80435184602B0704782B0019000917A
:1087E000019B009AC3F8082500BF02B0704782B011
:1087F00001900091019B009AC3F80C2500BF02B0C4
:10880000704784B00190019B5B090293002303939E
:10881000029B002B03D14FF0FF33039300BF019B5A
:1088200003F01F030193039A019B22FA03F303F061
:108830000103002B14BF01230023DBB2184604B050
:108840007047000000B585B00190019B032B03D950
:1088500011493A20FEF710F8104A019B13441B7887
:108860001846FFF79DFF0346002B14BF012300238A
:108870008DF80F309DF80F30002B14BF012300231B
:10888000DBB283F00103DBB203F00103DBB2184675
:1088900005B05DF804FB00BF64450300E04503003C
:1088A00000B583B00190019B032B03D907494120F8
:1088B000FDF7E2FF064A019B13441B78002118468E
:1088C000FFF75CFF00BF03B05DF804FB64450300E5
:1088D000E045030000B583B00190019B032B03D951
:1088E00007494720FDF7C8FF064A019B13441B7840
:1088F00001211846FFF742FF00BF03B05DF804FBFB
:1089000064450300E045030000B583B000230193F4
:1089100005E00198FFF7DEFF019B01330193019B06
:10892000032BF6D900BF00BF03B05DF804FB00B510
:1089300083B00023019305E00198FFF7B1FF019B8D
:1089400001330193019B032BF6D900BF00BF03B095
:108950005DF804FB00B583B00190019B032B03D9A4
:1089600007495F20FDF788FF064A019B13441B78E7
:108970001846FFF7E1FE00BF03B05DF804FB00BF3F
:1089800064450300E045030000B583B00C4B1B7841
:10899000002B0FD00023019308E0019B022B02D093
:1089A0000198FFF797FF019B01330193019B032B74
:1089B000F3D901E0FFF7A8FF00BF03B05DF804FBA7
:1089C0005C3300202DE9D04F92B003468DF83F3044
:1089D0000023119300231093CC4B1B78002B04D061
:1089E000CA4A00231370FFF7CFFF9DF83F30172BC3
:1089F00000F23F8201A252F823F000BF5D8A02001C
:108A0000758A0200758A0200118B0200AD8B02008C
:108A1000298C0200BD8C0200DD8C0200ED8C02006E
:108A2000198D0200378D0200558D0200738D0200F2
:108A3000818D0200818D0200818D0200818D0200F6
:108A4000818D0200158E0200238E0200378E0200F7
:108A50004B8E0200658E0200658E0200FFF794FFC8
:108A6000AB4B184607F056FA1190AA4A9DF83F30D2
:108A70001370FFE10020FFF7E5FE0346002B0DD049
:108A80000020FFF727FF9DF83F30022B02D14FF463
:108A9000E16301E04FF47A6310930BE00020FFF7ED
:108AA000FFFE9DF83F30022B01D1C82301E04FF4B7
:108AB000C8731093974A9DF83F301370944C109BE5
:108AC0000022009301924FF000024FF00003DDE915
:108AD00000673946CB03314643EA51433146CA0366
:108AE00012F5FA71029143F1000303934FF47A7285
:108AF0004FF00003DDE902010AF0A4FD02460B4637
:108B0000134600221946204607F0CEF91190B1E134
:108B10000020FFF797FE0346002B0DD00020FFF743
:108B2000D9FE9DF83F30032B02D14FF4487301E08A
:108B30004FF47A6310930BE00020FFF7B1FE9DF82D
:108B40003F30032B01D1C82301E04FF4C8731093C9
:108B5000704A9DF83F3013706D4C109B00220493B7
:108B600005924FF000024FF00003DDE9046739463B
:108B7000CB03314643EA51433146CA0312F5FA7139
:108B8000069143F1000307934FF47A724FF000030C
:108B9000DDE906010AF056FD02460B4613460022A7
:108BA0001946204607F080F9119063E10020FFF795
:108BB00049FE0346002B06D00020FFF78BFE4FF442
:108BC0007A63109305E00020FFF76AFE4FF4C87344
:108BD0001093504A9DF83F3013704D4C109B00226B
:108BE0009A4693464FF000024FF000034FEACB3312
:108BF00043EA5A434FEACA3212F5FA71089143F137
:108C0000000309934FF47A724FF00003DDE9080185
:108C10000AF018FD02460B4613460022194620466C
:108C200007F042F9119025E10020FFF70BFE034603
:108C3000002B0CD00020FFF74DFE9DF83F30052B98
:108C400001D1C82301E04FF47A6310930BE00020B8
:108C5000FFF726FE9DF83F30052B01D1C82301E028
:108C60004FF4C87310932B4A9DF83F301370284C73
:108C7000109B0022984691464FF000024FF00003EF
:108C80004FEAC93343EA58434FEAC83212F5FA7142
:108C90000A9143F100030B934FF47A724FF00003F3
:108CA000DDE90A010AF0CEFC02460B46134600221B
:108CB0001946204607F0F8F81190DBE00020FFF796
:108CC00049FE144A9DF83F301370114B002240F6C4
:108CD000CD41184607F0E8F81190CBE00020FFF7EF
:108CE000DFFD0C4A9DF83F301370C3E0074B0122B3
:108CF0001A700120FFF72EFE054B002240F6CD41F1
:108D0000184607F0D1F81190B4E000BF55330020A9
:108D10006033002054330020594B01221A70012087
:108D2000FFF718FE574B00224FF48041184607F01A
:108D3000BBF811909EE0524B01221A700120FFF700
:108D400009FE504B002240F6CD41184607F0ACF822
:108D500011908FE04A4B01221A700120FFF7FAFDB3
:108D6000484B00224FF48041184607F09DF81190BF
:108D700080E0FFF7DCFD444A9DF83F30137079E056
:108D8000424B184607F0C6F811909DF83F30C3F1EA
:108D900011031093109B002B35D0119B002B32D167
:108DA000109B012B28D9394C109B9BB21A46C82323
:108DB00002FB03F3DA171E4617464FF000024FF08E
:108DC0000003FB0343EA5643F20312F5FA710C91D8
:108DD00043F100030D934FF47A724FF00003DDE985
:108DE0000C010AF02FFC02460B46134600221946DE
:108DF000204607F059F811900220FFF751FD244B4F
:108E000001221A7036E00220FFF764FD204B002299
:108E10001A702FE0FFF7B8FD1B4A9DF83F30137022
:108E200028E0FFF7B1FD0020FFF73AFD164A9DF854
:108E30003F3013701EE0FFF7A7FD0120FFF730FD64
:108E4000114A9DF83F30137014E0FFF79DFD00209C
:108E5000FFF726FD0120FFF723FD0B4A9DF83F3069
:108E6000137007E0FFF763FD074A9DF83F3013706A
:108E700000E000BF119B184612B0BDE8D08F00BFC4
:108E8000553300206033002054330020803300200D
:108E90005C33002000B585B003468DF80730002311
:108EA0000393084B1B6803F00103002B05D09DF8CA
:108EB00007301846FFF786FD0390039B184605B060
:108EC0005DF804FB58330020BFF34F8F00BF064B03
:108ED000DB6803F4E0620449044B1343CB60BFF347
:108EE0004F8F00BF00BFFDE700ED00E00400FA0572
:108EF00082B01D4B1B68B3F1FF3F0AD11B4B1B68AF
:108F0000DBB201931A4B1B681B0903F00F0300939C
:108F100005E0154B1B680193164B1B680093019BE2
:108F2000062B1DD1009B033B042B17D801A252F83E
:108F300023F000BF498F02004D8F0200518F0200C5
:108F4000558F0200598F020001230AE0012308E037
:108F5000012306E0012304E0012302E0012300E0F5
:108F60000023184602B0704730010010E00F00F0F7
:108F7000E80F00F03401001082B0174B1B68DBB221
:108F80000193164B1B681B0903F00F030093019B11
:108F9000062B1DD1009B033B042B17D801A252F8CE
:108FA00023F000BFB98F0200BD8F0200C18F020005
:108FB000C58F0200C98F020001230AE0002308E0E8
:108FC000002306E0002304E0002302E0002300E089
:108FD0000023184602B07047E00F00F0E80F00F0E1
:108FE00082B01D4B1B68B3F1FF3F0AD11B4B1B68BE
:108FF000DBB201931A4B1B681B0903F00F030093AC
:1090000005E0154B1B680193164B1B680093019BF1
:10901000062B1DD1009B033B042B17D801A252F84D
:1090200023F000BF399002003D9002004190020001
:10903000459002004990020001230AE0012308E064
:10904000012306E0012304E0012302E0012300E004
:109050000023184602B0704730010010E00F00F006
:10906000E80F00F03401001082B0174B1B68DBB230
:109070000193164B1B681B0903F00F030093019B20
:10908000062B1DD1009B033B042B17D801A252F8DD
:1090900023F000BFA9900200AD900200B190020041
:1090A000B5900200B990020001230AE0002308E015
:1090B000002306E0002304E0002302E0002300E098
:1090C0000023184602B07047E00F00F0E80F00F0F0
:1090D00082B01D4B1B68B3F1FF3F0AD11B4B1B68CD
:1090E000DBB201931A4B1B681B0903F00F030093BB
:1090F00005E0154B1B680193164B1B680093019B01
:10910000062B1DD1009B033B042B17D801A252F85C
:1091100023F000BF299102002D910200319102003D
:10912000359102003991020001230AE0012308E091
:10913000012306E0012304E0012302E0012300E013
:109140000023184602B0704730010010E00F00F015
:10915000E80F00F03401001082B0174B1B68DBB23F
:109160000193164B1B681B0903F00F030093019B2F
:10917000062B1DD1009B033B042B17D801A252F8EC
:1091800023F000BF999102009D910200A19102007D
:10919000A5910200A991020001230AE0002308E042
:1091A000002306E0002304E0002302E0002300E0A7
:1091B0000023184602B07047E00F00F0E80F00F0FF
:1091C00082B0174B1B68DBB20193164B1B681B095F
:1091D00003F00F030093019B062B1DD1009B033B63
:1091E000042B17D801A252F823F000BF019202000D
:1091F00005920200099202000D92020011920200F3
:1092000001230AE0002308E0002306E0002304E035
:10921000002302E0002300E00023184602B070475C
:10922000E00F00F0E80F00F082B01D4B1B68B3F1B7
:10923000FF3F0AD11B4B1B68DBB201931A4B1B6823
:109240001B0903F00F03009305E0154B1B68019306
:10925000164B1B680093019B062B1DD1009B033B03
:10926000042B17D801A252F823F000BF819202000C
:1092700085920200899202008D9202009192020072
:1092800000230AE0002308E0012306E0012304E0B4
:10929000012302E0012300E00023184602B07047DA
:1092A00030010010E00F00F0E80F00F03401001072
:1092B00082B01D4B1B68B3F1FF3F0AD11B4B1B68EB
:1092C000DBB201931A4B1B681B0903F00F030093D9
:1092D00005E0154B1B680193164B1B680093019B1F
:1092E000062B1DD1009B033B042B17D801A252F87B
:1092F00023F000BF099302000D93020011930200B6
:10930000159302001993020001230AE0012308E0EB
:10931000012306E0012304E0012302E0012300E031
:109320000023184602B0704730010010E00F00F033
:10933000E80F00F03401001082B01D4B1B68B3F140
:10934000FF3F0AD11B4B1B68DBB201931A4B1B6812
:109350001B0903F00F03009305E0154B1B680193F5
:10936000164B1B680093019B062B1DD1009B033BF2
:10937000042B17D801A252F823F000BF91930200EA
:1093800095930200999302009D930200A19302001D
:1093900001230AE0012308E0012306E0012304E0A1
:1093A000012302E0012300E00023184602B07047C9
:1093B00030010010E00F00F0E80F00F03401001061
:1093C00082B0154B1B680193144B1B680093019BE3
:1093D000062B1DD1009B033B042B17D801A252F88A
:1093E00023F000BFF9930200FD93020001940200F4
:1093F000059402000994020000230AE0002308E01B
:10940000002306E0012304E0012302E0012300E041
:109410000023184602B070473001001034010010DC
:1094200082B0154B1B680193144B1B680093019B82
:10943000062B1DD1009B033B042B17D801A252F829
:1094400023F000BF599402005D9402006194020071
:10945000659402006994020000230AE0002308E0FA
:10946000002306E0002304E0012302E0012300E0E2
:109470000023184602B0704730010010340100107C
:1094800008B5FFF7CDFF0346002B07D04FF01023A0
:109490004FF08042D3F80832C2F8583500BF08BDFB
:1094A00000BF044BD3F80034002BFAD000BF00BF3C
:1094B000704700BF00E0014000B583B00190054A4D
:1094C000019BC2F80435FFF7EBFF00BF03B05DF866
:1094D00004FB00BF00E00140024B034A1A6000BFDA
:1094E000704700BF602B00200090D00308B5FFF745
:1094F000FFFC0346002B06D0A44B1B681B0AA44AA2
:1095000003F01F031360FFF737FD0346002B02D063
:10951000A04BA14A1A60FFF763FD0346002B06D05B
:109520009E4B1B685B0B9E4A03F007031360FFF71B
:109530009BFD0346002B05D09A4BDB68994A23F02C
:109540008073D360FFF7C4FD0346002B0ED04FF0AD
:1095500080430022C3F80C214FF080430022C3F85F
:1095600010214FF080430022C3F83825FFF7F4FDA7
:109570000346002B02D08C4B03221A60FFF720FE1B
:109580000346002B0BD0894B05221A60884B012221
:109590001A60884B00221A60874B3F221A60FFF73F
:1095A00043FE0346002B76D04FF08053834AD3F816
:1095B0000434C2F820354FF08053804AD3F8083481
:1095C000C2F824354FF080537C4AD3F80C34C2F8EB
:1095D00028354FF08053794AD3F81034C2F82C352F
:1095E0004FF08053754AD3F81434C2F830354FF039
:1095F0008053724AD3F81834C2F834354FF0805390
:109600006E4AD3F81C34C2F840354FF080536B4A91
:10961000D3F82034C2F844354FF08053674AD3F86A
:109620002434C2F848354FF08053644AD3F82834C4
:10963000C2F84C354FF08053604AD3F82C34C2F84E
:1096400050354FF080535D4AD3F83034C2F854356A
:109650004FF08053594AD3F83434C2F860354FF094
:109660008053564AD3F83834C2F864354FF08053EB
:10967000524AD3F83C34C2F868354FF080534F4A11
:10968000D3F84034C2F86C354FF080534B4AD3F8CE
:109690004434C2F87035FFF70BFE0346002B05D0AB
:1096A000474B1B68474A03F04F031360FFF744FE24
:1096B0000346002B0DD04FF08043D3F8003403F065
:1096C0000103002B05D04FF080436FF00102C3F877
:1096D0000024FFF775FE0346002B05D03A4B1B68AC
:1096E000394A43F480631360384BD3F88830374AE3
:1096F00043F47003C2F88830BFF34F8F00BFBFF34D
:109700006F8F00BFFFF7BCFE4FF01023D3F80C3271
:1097100003F00103012B13D10120FFF7CDFE4FF021
:109720001023D3F80C324FF0102223F00103C2F8BB
:109730000C32FFF7B5FE0020FFF7BEFEFFF7C4FBBB
:109740004FF01023D3F80032002B05DB4FF010232D
:10975000D3F80432002B15DA0120FFF7ADFE4FF0ED
:1097600010231522C3F80022FFF79AFE4FF01023B2
:109770001522C3F80422FFF793FE0020FFF79CFE9A
:10978000FFF7A2FBFFF7A8FE00BF08BD24030010EF
:109790004035014074C007400DF0ADBA44020010DE
:1097A0003C050040F0ED00E0A005004010560040F0
:1097B00088560040185600401456004000C0004033
:1097C00058020010E40E00403C17004000ED00E09D
:1097D0006DDF704700BF184679DF704700BF18463D
:1097E0007DDF704700BF184664DF704700BF184632
:1097F00082B003460091ADF80630BDF80630DAB20B
:10980000009B1A70BDF806301B0A9AB2009B013308
:10981000D2B21A700223184602B0704700B589B060
:10982000039002911346ADF80630029B1B8803F1AA
:109830000902BDF806309A4201D90C2353E004AB6B
:109840001846FFF7C5FF0790079B0693069B002B62
:1098500001D0069B47E0029B1B881A46039B1344DA
:1098600008221A70029B1B8801339AB2029B1A804D
:10987000029B1B881A46039B13441B221A70029BEF
:109880001B8801339AB2029B1A80029B1B881A46DE
:10989000039B981804AB0133062219460AF0EEFA2E
:1098A000029B1B8806339AB2029B1A809DF81030E7
:1098B00023F00103DBB2002B07D1029B1B881A4661
:1098C000039B134400221A7006E0029B1B881A4671
:1098D000039B134401221A70029B1B8801339AB226
:1098E000029B1A800023184609B05DF804FB00B5FE
:1098F00089B0039002910192ADF80230039B1B786E
:10990000012B05D1039B5B78002B01D1072391E04C
:10991000019B1B889A1CBDF802309A420ED8039B0B
:109920001B78012B0CD1019B1B881A46039B5B788B
:1099300013449A1CBDF802309A4201D90C2379E0F5
:10994000019B1B88BDF80220D31A9BB2023BADF8E5
:109950001C30BDF81C30ADF81230019B1B8802335F
:10996000029A13440DF1120211461846FFF738FF10
:109970000690069B0593059B002B01D0059B59E0A3
:10998000039B1B78022B06D0039B5B781A46BDF81D
:1099900012309A4209D3BDF81230BDF81C209A4209
:1099A00003D309238DF81F3016E008238DF81F30EC
:1099B000039B1B78012B0BD1039B5B781A46BDF8E8
:1099C0001C30934204D3039B5B78ADF8123003E064
:1099D000BDF81C30ADF81230BDF81230FE2B01D9A5
:1099E0000C2327E0BDF81230DAB2019B1B88194620
:1099F000029B0B440132D2B21A70019B1B880133C7
:109A00009AB2019B1A80019B1B881A46029B134441
:109A10009DF81F201A70019B1B8801339AB2019B8D
:109A20001A80019B1A88BDF8123013449AB2019B28
:109A30001A800023184609B05DF804FB00B589B010
:109A4000039002911346ADF80630029B1B881A1D45
:109A5000BDF806309A4201D90C233AE00DF1160305
:109A60001846FFF7B9FE0790079B0693069B002B4D
:109A700001D0069B2DE0029B1B881A46039B1344D2
:109A800003221A70029B1B8801339AB2029B1A8030
:109A9000029B1B881A46039B134419221A70029BCF
:109AA0001B8801339AB2029B1A80BDF81620029BD4
:109AB0001B881946039B0B4419461046FFF798FE76
:109AC00003461A46029B1B8813449AB2029B1A80D3
:109AD0000023184609B05DF804FB84B0029101929E
:109AE0001A4603468DF80F301346ADF80C30019B33
:109AF0001B88DA1CBDF80C309A4201D90C2328E0EF
:109B0000019B1B881A46029B134402221A70019B78
:109B10001B8801339AB2019B1A80019B1B881A464D
:109B2000029B134401221A70019B1B8801339AB2D5
:109B3000019B1A80019B1B881A46029B13449DF8C7
:109B40000F201A70019B1B8801339AB2019B1A8067
:109B50000023184604B0704784B0029101921A465F
:109B600003468DF80F301346ADF80C30019B1B886F
:109B7000DA1CBDF80C309A4201D90C2328E0019B75
:109B80001B881A46029B134402221A70019B1B88F1
:109B900001339AB2019B1A80019B1B881A46029BD3
:109BA00013440A221A70019B1B8801339AB2019B4D
:109BB0001A80019B1B881A46029B13449DF80F20B4
:109BC0001A70019B1B8801339AB2019B1A800023F3
:109BD000184604B0704700B58FB0039001930B4650
:109BE0008DF80B3013468DF80A3000238DF8333092
:109BF000109B1B88ADF8303000230D9370E0039B61
:109C00005A680D9B9B001A4405AB106818600DF153
:109C10001B0105AB00221846FFF7E6FD0A900A9BE0
:109C20000993099B002B01D0099B7BE09DF81B3019
:109C30009DF80A209A4250D19DF83330002B01D074
:109C4000002300E002238DF82330109B1B881A4666
:109C50009DF81B301A449DF823301A44BDF8443057
:109C60009A4201DD0C235DE09DF8333083F001035F
:109C7000DBB2002B16D0109B1B8801339AB2109BCD
:109C80001A80109B1B881A46019B13449DF80B20D9
:109C90001A70109B1B8801339AB2109B1A80012303
:109CA0008DF83330109B1B881A46019B1A440DF126
:109CB0001B0105AB1846FFF797FD0A900A9B079317
:109CC000079B002B01D0079B2CE0109B1B889DF865
:109CD0001B2013449AB2109B1A800D9B01330D93E5
:109CE000039B1B881A460D9B934288DB9DF83330FB
:109CF000002B16D0109B1A88BDF83030D31A9BB2B7
:109D0000013BADF82E30BDF82E30FF2B01D90C23CE
:109D100008E0BDF83030019A1344BDF82E20D2B2CD
:109D20001A70002318460FB05DF804FB00B58BB025
:109D3000059003930B468DF8133013468DF81230BF
:109D40009DF81310BDF8343001930C9B0093039BD6
:109D500002220598FFF73FFF0990099B0893089B93
:109D6000002B01D0089B14E09DF81210BDF8343090
:109D700001930C9B0093039B10220598FFF72BFF88
:109D80000990099B0793079B002B01D0079B00E0DC
:109D9000002318460BB05DF804FB82B00190019BD4
:109DA0001B88052B0AD9019B1B88B3F5486F07D97F
:109DB000019B1B884FF6FF72934201D0072325E0D9
:109DC000019B5B88052B0AD9019B5B88B3F5486F23
:109DD00007D9019B5B884FF6FF72934201D007239E
:109DE00014E0019B1B884FF6FF7293420DD0019B3C
:109DF0005B884FF6FF72934207D0019B1A88019B44
:109E00005B889A4201D9072300E00023184602B07C
:109E1000704700B587B0039002910192ADF802300F
:109E2000019B1B889A1DBDF802309A4201D90C2370
:109E30004BE00398FFF7B1FF0590059B0493049B4B
:109E4000002B01D0049B40E0019B1B881A46029B1B
:109E5000134405221A70019B1B8801339AB2019B9F
:109E60001A80019B1B881A46029B134412221A7007
:109E7000019B1B8801339AB2019B1A80039B1A88AD
:109E8000019B1B881946029B0B4419461046FFF79D
:109E9000AFFC03461A46019B1B8813449AB2019BF0
:109EA0001A80039B5A88019B1B881946029B0B440E
:109EB00019461046FFF79CFC03461A46019B1B8877
:109EC00013449AB2019B1A800023184607B05DF82C
:109ED00004FB00B587B0039002910192ADF8023007
:109EE000039B9B8802330593019B1B881A46059BA5
:109EF00013449A1CBDF802309A4201D90C2353E056
:109F0000059BFE2B01D90C234EE0059BDAB2019B89
:109F10001B881946029B0B440132D2B21A70019B76
:109F20001B8801339AB2019B1A80019B1B881A4639
:109F3000029B1344FF221A70019B1B8801339AB2C3
:109F4000019B1A80039B1A88019B1B881946029B60
:109F50000B4419461046FFF74BFC03461A46019B7B
:109F60001B8813449AB2019B1A80039B9B88002B89
:109F700019D0039B9B68002B01D1072314E0019BA0
:109F80001B881A46029B9818039B9968039B9B8821
:109F90001A4609F073FF019B1A88039B9B881344A0
:109FA0009AB2019B1A800023184607B05DF804FBA3
:109FB00000B589B0039002910192ADF80230039B85
:109FC0009B6A002B01D1072371E000238DF81F301D
:109FD00065E0039B996A9DF81F2013465B001344BC
:109FE0009B000B440693069B9B8802330593059BBD
:109FF000FE2B01D90C235AE0059BDAB2019B1B888A
:10A000001946029B0B440132D2B21A70019B1B8885
:10A0100001339AB2019B1A80019B1B881A46029B4E
:10A02000134416221A70019B1B8801339AB2019BBC
:10A030001A80069B1A88019B1B881946029B0B44B9
:10A0400019461046FFF7D4FB03461A46019B1B88AE
:10A0500013449AB2019B1A80069B9B88002B19D04F
:10A06000069B9B68002B01D1072320E0019B1B88E6
:10A070001A46029B9818069B9968069B9B881A466D
:10A0800009F0FCFE019B1A88069B9B8813449AB238
:10A09000019B1A809DF81F3001338DF81F30039B00
:10A0A00093F82C309DF81F209A4292D30023184633
:10A0B00009B05DF804FB00B595B0059004910392DA
:10A0C00000231393039B1B88ADF84A30039B0022A7
:10A0D0001A80059B93F82D30002B0ED0BDF84A3026
:10A0E0001A4603990498FFF799FB1390139B119359
:10A0F000119B002B01D0119BD8E0059B9B78002B76
:10A100000ED0BDF84A301A4603990498FFF796FC22
:10A110001390139B1093109B002B01D0109BC5E054
:10A12000059BDB78002B10D0059BDB7858B2BDF87F
:10A130004A30039A0499FFF7D0FC1390139B0F93B6
:10A140000F9B002B01D00F9BB0E0059B5B68002BA1
:10A1500011D0059B5B6893F90000BDF84A30039A63
:10A160000499FFF7F9FC1390139B0E930E9B002BA1
:10A1700001D00E9B9AE0059B1B89002B14D0059BF8
:10A1800003F10800BDF84A300193039B0093049B40
:10A1900006220221FFF7CAFD1390139B0D930D9B1E
:10A1A000002B01D00D9B81E0059B1B8A002B14D056
:10A1B000059B03F11000BDF84A300193039B009307
:10A1C000049B07220321FFF7B1FD1390139B0C930F
:10A1D0000C9B002B01D00C9B68E0059B1B8B002B7C
:10A1E00014D0059B03F11800BDF84A300193039B7E
:10A1F0000093049B15221421FFF798FD1390139BE5
:10A200000B930B9B002B01D00B9B4FE0059B1B6A14
:10A21000002B0FD0059B186ABDF84A30039A0499A9
:10A22000FFF7F7FD1390139B0A930A9B002B01D0B5
:10A230000A9B3BE0059B5B6A002B0FD0059B586A8D
:10A24000BDF84A30039A0499FFF743FE1390139B1D
:10A250000993099B002B01D0099B27E0059B93F8EC
:10A260002C30002B0ED0BDF84A30039A0499059883
:10A27000FFF79EFE1390139B0893089B002B01D0C1
:10A28000089B13E0059B1B78002B0ED0BDF84A30CD
:10A29000039A04990598FFF72AFB1390139B0793E1
:10A2A000079B002B01D0079B00E0139B184615B0BD
:10A2B0005DF804FB86B0039001921A460B46ADF898
:10A2C0000A3013468DF80930039B002B02D0019B06
:10A2D000002B01D100235BE00023ADF816300CE029
:10A2E000BDF81630039A13441B781A46BDF8163091
:10A2F00013449BB20133ADF81630BDF816305A1C2A
:10A30000BDF80A309A420FDA019B1B88BDF816206F
:10A310009A42E5D3BDF816300133039A13441B78F3
:10A320009DF809209A42DBD1BDF81620BDF80A300D
:10A330009A4201D300232BE0BDF816300233ADF86A
:10A340001430BDF81630039A13441B78002B07D045
:10A35000BDF81630039A13441B78013B9BB200E012
:10A360000023ADF81230BDF81230002B08D0BDF834
:10A370001420BDF812301A44BDF80A309A4201DDAB
:10A38000002305E0019BBDF814201A80BDF81230AF
:10A39000184606B0704700B585B001900B46ADF881
:10A3A000023013468DF801300023ADF80C309DF8D3
:10A3B000013003AABDF802100198FFF77BFF0346A6
:10A3C000ADF80E30BDF80E30002B01D1002304E0B3
:10A3D000BDF80C301A46019B1344184605B05DF8D1
:10A3E00004FB72DF704700BF184673DF704700BF81
:10A3F000184682B00190019B93F83034184602B0A1
:10A40000704784B00190002303930AE0019A039BF4
:10A4100013441B78002B01D0012306E0039B01337A
:10A420000393039B052BF1D90023184604B0704712
:10A4300082B003468DF807309DF807305A1C074B51
:10A4400083FB02135910D317C91A0B469B000B4408
:10A45000D11ACBB2184602B0704700BF6766666675
:10A4600082B001900091009BDB7B012B04D1009B0B
:10A470009A88019BA3F8242400BF02B0704700B55E
:10A4800085B001900091019B002283F82E24009B4F
:10A490009A88019BB3F824349A4216D1019B1B7908
:10A4A00083F00103DBB2002B0FD00121019800F0F3
:10A4B000B1FA0390039B002B07D0019B9B6B002BF1
:10A4C00003D0019B9B6B0398984700BF05B05DF8D4
:10A4D00004FB00B585B001900091009B1B88262BE2
:10A4E0001ED1009B1B7A012B03D0009B1B7A022BF1
:10A4F00017D1019B9B781846FFF79AFF0346194630
:10A50000019800F087FA0390039B002B09D0019B70
:10A510009B6B002B05D0019B9B6B0398984700E039
:10A5200000BF05B05DF804FB00B585B001900B4697
:10A530008DF80330019B03F227431846FFF761FFB4
:10A5400003468DF80F309DF80330013B032B33D8C1
:10A5500001A252F823F000BF69A502008DA50200F8
:10A56000A1A50200ADA50200019B9B79002B0DD097
:10A57000019B93F8243083F00103DBB2002B05D05C
:10A580009DF80F30002B01D0012316E0019BDB79F1
:10A59000002B05D09DF80F30002B01D002230CE0DA
:10A5A000019B1B7A002B01D0032306E0019B5B7A01
:10A5B000002B01D0042300E00023184605B05DF80D
:10A5C00004FB00BF82B001900091019B012283F83F
:10A5D0003120019B0022C3F82024019B03F2264274
:10A5E000009B5A60009B00229A60009B02221A7016
:10A5F000009B80229A810023184602B0704782B0E7
:10A6000001900091019B022283F83120019B93F875
:10A610002430002B03D0009B07221A7002E0009B1D
:10A6200003221A70019B1B699AB2009B9A81019BBD
:10A630000022C3F82024019B03F22642009B5A60AB
:10A64000019BDA68009B9A600023184602B07047AD
:10A6500000B583B00190019B5B79002B0FD0019B6B
:10A6600093F82E3483F00103DBB2002B07D001985E
:10A67000FFF7BFFE0346002B01D0012300E00023BB
:10A6800003F00103DBB2184603B05DF804FB00B52C
:10A6900085B001900B468DF80330019BD3F8100470
:10A6A000019BB3F8143401221946FFF774FE03909E
:10A6B000039B002B03D0039B9DF803201A70019B82
:10A6C00003F15400019B03F58261019B3C331A4660
:10A6D000FFF787FE0346184605B05DF804FB00B59A
:10A6E00085B001900091019B5A69009B9A60019B83
:10A6F0009B699AB2009B9A81019B93F82430002BAE
:10A7000004D0019B062283F83C2003E0019B012238
:10A7100083F83C200198FFF79BFF0346002B13D0E2
:10A72000009B02221A7504210198FFF7B0FF0390E5
:10A73000039B0293029B002B01D0029B0FE0019B25
:10A74000052283F8312003E0019B032283F83120A6
:10A75000019B03F58262019BC3F820240023184665
:10A7600005B05DF804FB00B585B001900091019B38
:10A77000DA69009B9A60019B1B6A9AB2009B9A81DE
:10A78000019B93F82430002B04D0019B062283F810
:10A790003C2003E0019B012283F83C200198FFF755
:10A7A00057FF0346002B13D0009B02221A75042189
:10A7B0000198FFF76CFF0390039B0293029B002B11
:10A7C00001D0029B0FE0019B062283F8312003E0B9
:10A7D000019B042283F83120019B03F58262019BD7
:10A7E000C3F820240023184605B05DF804FB82B0AE
:10A7F0000190019B9B78002B06D0019B93F82030A1
:10A80000002B01D000230AE0019B9B6A042B03D09C
:10A81000019B5B6A042B01D1002300E00123184651
:10A8200002B0704784B00190019B93F82430002B54
:10A8300003D0EE23ADF80E3002E01F23ADF80E304A
:10A84000BDF80E30184604B0704782B001900B4638
:10A850008DF80330019B9DF8032083F8302000BF62
:10A8600002B0704730B587B001900091009B002B7B
:10A8700002D0019B002B01D10E23B8E0009B78335E
:10A880001846FFF7B4FF034683F00103DBB2002B49
:10A8900001D00723ABE0019B00229A70019A009B34
:10A8A000141D03F178050FCD0FC40FCD0FC495E82B
:10A8B000070084E80700019B002283F83020009BFA
:10A8C000D3F8A420019B5A63009BD3F8A820019BD6
:10A8D0009A63019B4FF6FF72A3F82424019B03F5B2
:10A8E0008262019BC3F82024019B03F226430722C6
:10A8F0000021184609F0F4FA019B1B7883F001034C
:10A90000DBB2002B03D0019BFF2283F85420019B74
:10A9100003F15502019BC3F810240198FFF782FF51
:10A9200003461A46019BA3F814240098019B03F1E7
:10A930005501019B03F214431A46FFF7BCFB059037
:10A94000059B0493049B002B01D0049B4FE0019BCB
:10A9500003F23122019BC3F818240198FFF762FF2C
:10A9600003461A46019BA3F81C24009B03F13C00FC
:10A97000019BD3F81814019B03F21C431A46FFF7FE
:10A980009AFB0590059B0393039B002B01D0039B2F
:10A990002DE0019B012283F85120019B9B699AB213
:10A9A000019BA3F84820019B012283F83C20019BD6
:10A9B00000221A64019B002283F85020019B5A69EF
:10A9C000019B5A64019B03F15400019B3C331A46DE
:10A9D0000021FFF706FD0590059B0293029B002BCB
:10A9E00001D0029B03E0019B01221A70059B1846CF
:10A9F00007B030BD82B00190019B1B68012B03D0D2
:10AA0000019B1B68022B01D1012300E000231846A3
:10AA100002B0704700B585B001900B468DF8033049
:10AA2000019B1B7883F00103DBB2002B01D00823CC
:10AA300009E1019B9DF803209A70019B03F22643D4
:10AA400007220021184609F04BFA019B9B79002B45
:10AA500003D0019B9B78012B0FD0019BDB79002B4E
:10AA600003D0019B9B78012B07D0019BDB79002B46
:10AA700014D0019B9B78022B10D1019B5B6B002BA8
:10AA800008D0019B012283F82D24019B5B6B0820D9
:10AA9000984703E0019B002283F82D249DF80330A2
:10AAA00019460198FFF740FD03461A46019B9A702C
:10AAB000019B5B6B002B20D0019B9B78032B03D069
:10AAC000019B9B78042B18D1019B5B79002B14D040
:10AAD000019B93F82E3483F00103DBB2002B0CD0E2
:10AAE000019B002283F83024019B012283F82F244C
:10AAF000019B5B6B0720984703E0019B002283F8D2
:10AB00002F24019B3C3318220021184609F0E8F954
:10AB1000019B012283F83C20019B2C331846FFF750
:10AB200069FF0346002B06D0019BDB6ADAB2019B6A
:10AB300083F8512003E0019B012283F85120019BFF
:10AB400093F82430002B12D0019B28331846FFF7CE
:10AB500051FF0346002B06D0019B9B6ADAB2019B92
:10AB600083F8522003E0019B012283F85220019BCD
:10AB7000002283F85020019B9B78042B31D801A23E
:10AB800052F823F0D9AB020099AB0200A9AB020046
:10AB9000B9AB0200C9AB0200019B3C3319460198D6
:10ABA000FFF710FD03901DE0019B3C33194601980F
:10ABB000FFF725FD039015E0019B3C3319460198F2
:10ABC000FFF78DFD03900DE0019B3C331946019882
:10ABD000FFF7C9FD039005E0019B002283F83120B7
:10ABE00000E000BF019B9B78002B20D0019B03F16C
:10ABF0005400019BD3F82014019B3C331A46FFF705
:10AC0000F0FB0390039B002B01D0039B1BE0019BF7
:10AC100093F85420019B93F8303019461046FFF703
:10AC2000E4FB0390039B002B01D0039B0BE0019BF3
:10AC30005B6B002B06D0019B5B6B019A92F8312075
:10AC4000104698470023184605B05DF804FB00BF86
:10AC500000B585B001900091009B0393019B1B8878
:10AC6000262B10D0262B13DC102B02D0112B05D055
:10AC70000EE001990398FFF7F3FB0AE001990398AE
:10AC8000FFF7FDFB05E001990398FFF722FC00E0C8
:10AC900000BF00BF05B05DF804FB75DF704700BF63
:10ACA000184676DF704700BF18467ADF704700BF4E
:10ACB00018467BDF704700BF1846000084B003468B
:10ACC000ADF806300023039316E00F49039A1346AC
:10ACD0009B0013449B000B441B88BDF806209A423E
:10ACE00007D1039A13469B0013449B00064A134462
:10ACF00006E0039B01330393039B002BE5D0002365
:10AD0000184604B0704700BFC033002082B00190E5
:10AD10000B46ADF80230019BBDF802201A80019B62
:10AD200000221A72019B054903F10A020B4603CB6C
:10AD30001060516000BF02B0704700BFF0330020C8
:10AD400082B00190019B4FF6FF721A8000BF02B0E3
:10AD5000704788B00390029111461A460B46ADF831
:10AD600006301346ADF80430039B9B881A46BDF8A5
:10AD7000063013440793039B9B881946039B9B88CB
:10AD8000BDF80620934228BF13469BB2CB1A069308
:10AD9000039BDB881A46BDF8043013440593039BDC
:10ADA000DB881946039BDB88BDF80420934228BF4B
:10ADB00013469BB2CB1A0493029B5A88039B1B88B1
:10ADC0009A4205D3029B5A88039B5B889A4201D919
:10ADD00000231CE0029B9B881A46069B934205D8E1
:10ADE000029B9B881A46079B934201D200230EE0E8
:10ADF000029BDB881A46049B934205D8029BDB88A2
:10AE00001A46059B934201D2002300E00123184615
:10AE100008B0704700B583B00190064B9B69002BCA
:10AE200003D0044B9B690198984700BF03B05DF8BD
:10AE300004FB00BFD433002000B585B00346009169
:10AE4000ADF80630BDF8063000991846FFF725FF2B
:10AE50000390039B002B05D0039B112B02D003987A
:10AE6000FFF7D8FF039B002B0CBF01230023DBB2AD
:10AE7000184605B05DF804FB00B589B00190019B50
:10AE80000793079B9BB21846FFF718FF0690069B97
:10AE9000002B42D0069B1A7A224B1B7B9A4215D27A
:10AEA000079B9AB2069B0A3319461046FFF7C4FF68
:10AEB00003468DF813309DF81330002B2DD0069BE0
:10AEC0001B7A0133DAB2069B1A7226E0069B002237
:10AED0001A72144B1B7C002B0FD0079B9BB23B219B
:10AEE0001846FFF7DEFE0590059B002B05D0059B5D
:10AEF000082B02D00598FFF78DFF0A4B5B69002BEA
:10AF00000BD000238DF80C30079B9BB2ADF80E30B0
:10AF1000044B5B6903AA1046984700BF09B05DF86F
:10AF200004FB00BFD433002030B587B00190019BF3
:10AF3000002B01D10E2353E02B4A019B14461D46E2
:10AF40000FCD0FC495E8070084E80700264B274A79
:10AF50001A60019B1B68002B11D0019B1B681846CF
:10AF6000FFF7A3FE0490049B002B01D0049B37E065
:10AF7000019B1A681D4B1068516803C308E01B4809
:10AF8000FFF797FE0490049B002B01D0049B27E061
:10AF90000023059320E0059A13469B0013449B0071
:10AFA000134A134403930398FFF7CAFE059B5B0102
:10AFB000104A1A44039B5A60039B04330E4A002133
:10AFC000184604F041FF0490049B002B01D003239A
:10AFD00006E0059B01330593059B002BDBD0002386
:10AFE000184607B030BD00BFD4330020F033002036
:10AFF000C0330020A033002079AE020000B587B036
:10B0000003460091ADF80630009B5B7A002B1AD105
:10B01000009B1B7A002B03D1164B5B68059302E063
:10B02000144B9B680593009B5B68BDF8062005994F
:10B03000184604F039FF0490049B002B16D00498A6
:10B04000FFF7E8FE12E0009B00221A72094B5B69D1
:10B05000002B0BD001238DF80C30BDF80630ADF875
:10B060000E30044B5B6903AA1046984700BF07B037
:10B070005DF804FBD433002000B585B00190019B3E
:10B08000DB7B8DF80F30019B9B88ADF80C309DF871
:10B090000F30012B2CD14FF6FF70FFF70FFE0290FF
:10B0A000029B002B03D10420FFF7B4FE21E0BDF882
:10B0B0000C3019460298FFF729FE029B03F10A00A3
:10B0C000019B03F110014FF6FF7340F2F312FFF7FB
:10B0D00040FE03461A46029B5A72074BDB89002B3F
:10B0E00007D1BDF80C3002991846FFF787FF00E042
:10B0F00000BF05B05DF804FBD433002000B587B075
:10B100000190019B9B88ADF81630BDF816301846AB
:10B11000FFF7D4FD0490049B002B0ED0049B5B68CA
:10B12000184604F0F7FE0390039B002B02D003980F
:10B13000FFF770FE0498FFF703FE00BF07B05DF84D
:10B1400004FB000000B587B00190019B0633059316
:10B15000059B1A88194BDB899A422BD1059B5B8989
:10B16000022B27D1019B9B88ADF81230BDF812301D
:10B170001846FFF7A3FD0390039B002B1AD0059BF5
:10B180000C33184600F075FA0346002B06D0BDF8C4
:10B19000123003991846FFF731FF0BE0039B5B6801
:10B1A000184604F0B7FE0290029B002B02D00298D2
:10B1B000FFF730FE00BF07B05DF804FBD43300207A
:10B1C00000B585B00190019B9B88ADF80E30BDF8AD
:10B1D0000E301846FFF772FD0290029B002B15D02F
:10B1E000029B03F10A00019B03F108014FF6FF7374
:10B1F00040F2F312FFF7ADFD03461A46029B5A7266
:10B20000BDF80E3002991846FFF7F8FE00BF05B0F2
:10B210005DF804FB00B583B001900091019B1B8891
:10B22000502B12D0502B18DC122B12D0122B14DC06
:10B23000102B02D0112B04D00FE00198FFF71CFF58
:10B240000CE00198FFF75AFF08E00198FFF77AFF3A
:10B2500004E00198FFF7B4FF00E000BF00BF03B0B7
:10B260005DF804FB30B58FB001900091002302938C
:10B27000009B002B1AD000230D9314E06B460D9910
:10B28000184604F0EBFF0346002B09D0029B5A1C22
:10B2900002920D9A92B25B0038336B4423F82C2C47
:10B2A0000D9B01330D930D9B132BE7D9019B1D467D
:10B2B00002AC0FCC0FC50FCC0FC594E8070085E892
:10B2C000070001980FB030BD00B583B00346ADF85C
:10B2D0000630BDF80630132B01D900230CE0BDF871
:10B2E00006301946064804F088FFBDF806301946B6
:10B2F000044804F082FF0123184603B05DF804FB04
:10B3000000340020FC33002000B585B00346ADF8C2
:10B310000630002303930DE0039B9B00094A13446E
:10B320000433BDF806201146184604F07EFF039B47
:10B3300001330393039B1D2BEED900BF00BF05B063
:10B340005DF804FBF833002000B583B00346ADF888
:10B350000630BDF806301946034804F066FF00BF0A
:10B3600003B05DF804FB00BF0034002030B59BB093
:10B37000184B9B68DB431893164B5A6818AB114661
:10B38000184604F0CAFF189A6B4611461846FFF794
:10B3900069FF0DAC6D460FCD0FC40FCD0FC495E8FE
:10B3A000070084E80700002319930BE0199B5B005A
:10B3B00068336B4433F8303C1846FFF7A5FF199B00
:10B3C000013319930D9B199A9A42EFD300BF00BF26
:10B3D0001BB030BDF833002000B583B001900B46A0
:10B3E000ADF8023013468DF801309DF80130002B86
:10B3F00006D0BDF802301946019804F0FEFE05E0C3
:10B40000BDF802301946019804F00FFF00BF03B0E9
:10B410005DF804FB00B585B001900091019B9B880D
:10B42000ADF80E30019B1B88103B0A2B00F2888080
:10B4300001A252F823F000BF65B40200A1B40200DB
:10B4400041B5020041B5020041B5020041B502001C
:10B4500041B5020041B5020041B502000BB5020042
:10B46000ADB40200FFF782FFBDF80E301846FFF7BB
:10B470002BFF034683F00103DBB2002B05D0324AD9
:10B48000F021042003F034FE57E0019BDB7B022B0C
:10B4900053D1BDF80E3019462C4804F0AEFE4CE0F6
:10B4A000BDF80E301846FFF74FFF49E0019B1B7AAD
:10B4B000C3F30313DBB28DF80D309DF80D30032B71
:10B4C0008CBF01230023DAB2BDF80E3019462048A4
:10B4D000FFF782FF9DF80D30022B8CBF0123002364
:10B4E000DAB2BDF80E3019461A48FFF775FF9DF81D
:10B4F0000D30012B8CBF01230023DAB2BDF80E30D2
:10B5000019461548FFF768FF1AE0019B1B7A002BCC
:10B5100015D1019B5B7AC3F3C003DBB2002B14BFD0
:10B52000012300238DF80C309DF80C20BDF80E305F
:10B5300019460748FFF750FF01E000BF00E000BFD9
:10B5400000BF05B05DF804FBE445030004340020AF
:10B55000103400200C3400200834002000B583B0E3
:10B560000346ADF80630BDF80630132B01D9002391
:10B5700006E0BDF806301946034804F06FFE0346A6
:10B58000184603B05DF804FBFC33002000B583B01F
:10B590000346ADF80630BDF806301846FFF7DEFF6B
:10B5A0000346002B02D0BDF8063000E014231846F5
:10B5B00003B05DF804FB00B587B003900B46019221
:10B5C000ADF80A30019B002B01D10E2338E0019B1E
:10B5D00000221A60039B002B01D10E2330E0039B55
:10B5E0001B68002B01D10E232AE0039BDB8803F0AC
:10B5F00003039BB2002B01D0072321E0BDF80A30E2
:10B600001846FFF7C3FF03468DF817309DF8173033
:10B61000142B01D1052313E0039B1B799DF8172000
:10B620009A4201D304230BE0039B1B689DF817206B
:10B630000399C98801FB02F21A44019B1A60002396
:10B64000184607B05DF804FB82B00190019B1B789F
:10B650001AB2019B01331B781BB21B021BB21343AE
:10B660001BB29BB2184602B07047AADF704700BFFA
:10B67000184600B585B001900198FFF7E5FF034635
:10B68000ADF80E30BDF80E3003F00103002B14BFEF
:10B6900001230023DBB2184605B05DF804FB00006F
:10B6A00082B0034600918DF80730009A137823F09A
:10B6B0000F031370009A137823F0F00313709DF8B2
:10B6C0000730052B5BD801A252F823F0E5B6020043
:10B6D000FBB6020015B702002FB7020049B70200FF
:10B6E00063B70200009A137823F00F031370009AD7
:10B6F000137823F0F003137040E0009A13780121CF
:10B7000061F303031370009A1378012161F30713A7
:10B71000137033E0009A1378012161F3030313706F
:10B72000009A1378022161F30713137026E0009A40
:10B730001378012161F303031370009A1378032136
:10B7400061F30713137019E0009A1378022161F373
:10B7500003031370009A1378012161F30713137028
:10B760000CE0009A1378022161F303031370009A2E
:10B770001378022161F30713137000BF00BF00BFED
:10B7800002B0704700B595B0034602910192ADF842
:10B790000E30029B9B78002B03D101238DF81E30C5
:10B7A00003E0029B9B788DF81E30029B1B88ADF84E
:10B7B0001C3006AB03220021184608F091FB029BC7
:10B7C0005B7C06AA11461846FFF76AFF029B9A7C2B
:10B7D00006AB013319461046FFF762FF029BDA7B86
:10B7E0009DF81A3062F3C3038DF81A30029B1A7C5D
:10B7F0009DF81A3062F304138DF81A30029B1A7BFD
:10B800009DF81A3062F300038DF81A30029B1B7DFD
:10B81000002B01D0022200E001229DF81A3062F3D1
:10B8200042038DF81A300DAB1C220021184608F097
:10B8300057FB029B5B7B03F01003DBB2002B06D1AE
:10B84000029B5B7B03F02003DBB2002B24D004AB14
:10B8500003220021184608F043FB029BDA7C04AB6C
:10B86000013319461046FFF71BFF9DF810300122E7
:10B8700062F303038DF810309DF81030012262F35B
:10B8800007138DF810309DF81230012262F3420345
:10B890008DF8123004AB1293029B5B7B8DF8343031
:10B8A000029B9B7B8DF8353008AB14220021184693
:10B8B00008F016FB07AB089306AB0993029B9B8825
:10B8C000ADF82C30029B9B68002B06D0029BDB88D6
:10B8D000ADF82830029B9B680C93029B9B69002B60
:10B8E0004FD005AB03220021184608F0F9FA029B5D
:10B8F0009B691B88ADF83C30029B9B695B88ADF867
:10B900003E30029B9B695B680E9305AB1193029BD3
:10B910009B691B7B05AA11461846FFF7C1FE029BD7
:10B920009B695A7B05AB013319461046FFF7B8FEF9
:10B93000029B9B699A7A9DF8163062F3C3038DF8D7
:10B940001630029B9B69DA7A9DF8163062F3041375
:10B950008DF81630029B9B691A7A9DF8163062F3B7
:10B9600000038DF81630029B9B699B7B002B01D056
:10B97000022200E001229DF8163062F342038DF8A6
:10B980001630029BDB69002B02D0029BDB6910930F
:10B9900008AA0DA9BDF80E00019BFFF766FE03463D
:10B9A000184615B05DF804FB90DF704700BF1846DD
:10B9B000A5DF704700BF1846B5DF704700BF1846C7
:10B9C00082B00190019BF7221A80019B17225A80B6
:10B9D000019B00221A71019B00225A71019BFB22DC
:10B9E0009A71019B1B22DA7100BF02B07047000000
:10B9F00030B589B003460A46ADF806301346ADF8B7
:10BA00000430BDF80430ADF81430BDF80430ADF8A2
:10BA100016300023ADF818300023ADF81A3003AB10
:10BA200000221A609A8003AA05A9BDF806301846BC
:10BA3000FFF7BAFF0790079B002B39D01E4A1F4B18
:10BA4000D31ADB081B0443F00104BDF80650079825
:10BA500005F04EFC03462A461949204606F01DF91A
:10BA6000BDF80C30002B03D1BDF80E30002B0ED0EA
:10BA7000114A124BD31ADB081B0443F00100BDF836
:10BA80000C301A46BDF80E300E4906F006F9BDF826
:10BA90001030002B0CD0084A084BD31ADB081B04CB
:10BAA00043F00103BDF810200749184606F0E4F8FA
:10BAB000079B184609B030BD0C400300AC3F0300A3
:10BAC0007C460300C84603000847030000B585B064
:10BAD00001900091009B9B88ADF80E30BDF80E30B0
