:02000002F0000C
:10100000000004205D130F0045130F0047130F006D
:1010100049130F004B130F004D130F000000000089
:10102000000000000000000000000000C9460F00A2
:1010300051130F000000000053130F0055130F0051
:1010400057130F0057130F0057130F0057130F00BC
:1010500057130F0057130F0057130F0057130F00AC
:1010600057130F0057130F0057130F0057130F009C
:1010700057130F0057130F0057130F0057130F008C
:1010800009550F0057130F0057130F0057130F0088
:1010900057130F0057130F00AD3E0F0057130F00EB
:1010A00057130F0057130F0057130F0057130F005C
:1010B00057130F0057130F0000000000000000003E
:1010C00057130F0057130F0057130F0057130F003C
:1010D000A14E0F0057130F0057130F0057130F00A7
:1010E00057130F0057130F00F5950F000000000075
:1010F0000000000057130F000000000057130F00FE
:1011000000000000000000000000000000000000DF
:1011100000000000000000000000000000000000CF
:1011200000000000000000000000000000000000BF
:1011300000000000000000000000000000000000AF
:10114000000000000000000000000000000000009F
:10115000000000000000000000000000000000008F
:10116000000000000000000000000000000000007F
:10117000000000000000000000000000000000006F
:10118000000000000000000000000000000000005F
:10119000000000000000000000000000000000004F
:1011A000000000000000000000000000000000003F
:1011B000000000000000000000000000000000002F
:1011C000000000000000000000000000000000001F
:1011D000000000000000000000000000000000000F
:1011E00000000000000000000000000000000000FF
:1011F00000000000000000000000000000000000EF
:10120000314932480A1A02D0072291438D463049AB
:1012100030480A1A06D00722914381F30988022236
:1012200082F314882C482D492D4A00F03CF82D48B3
:101230002D492E4A00F037F82D482E492E4A00F04D
:1012400032F82E482E492F4A00F02DF82E482F490B
:101250002F4A00F028F82F482F49304A00F023F891
:101260002F483049304A00F01EF8304830490022FB
:1012700000F024F82F483049002200F01FF82F4AD0
:1012800090471F481F49884205D00268043003B4C4
:10129000904703BCF7E700208646EC46002000217B
:1012A000274A9047FEE7884207D0521A05D00378B4
:1012B00001300B700131013AF9D17047884202D0F8
:1012C00002700130FAE770470000042000F80320A4
:1012D00000000420000004208CD40F008C59002052
:1012E000E0590020B8130F00B8130F009C980F00AE
:1012F0008CD40F008C5900208C590020A4990F0029
:10130000A4990F00A4990F00A4990F00A4990F00AD
:10131000A4990F00A4990F00A4990F008CD40F007A
:10132000E0D40F00E0590020E0590020E0590020EF
:10133000F4B10020F4B10020F4B1002085130F00B7
:1013400071450F00FEE7FEE7FEE7FEE7FEE7FEE77A
:10135000FEE7FEE7FEE7FEE700F002B8FFF7FCBF9E
:101360000F484FF00701884385460E4880470E48D6
:10137000016841F470010160BFF34F8FBFF36F8FBD
:10138000FFF73EBF09480A490A4A884207D0521A65
:1013900005D0037801300B700131013AF9D1704763
:1013A0000000042019560F0088ED00E090990F000E
:0813B000785900208C5900203F
:1013B8007047000007B5044B0093044A402300F02F
:1013C80032F803B05DF804FBD9130F00E15900208F
:1013D8002DE9F84388461446B2B10F4B0F4E03254A
:1013E800002743F00109224608EB0701002003F01B
:1013F800EFF90744241A48B933782BB14FF47A40EF
:10140800C847013D02D13570BDE8F8830123337028
:10141800002CE8D1F8E700BFB0990F00E059002090
:10142800704703F005BAF0B595B01D461646084654
:101438000C4601F030FD1A9B0D93CDE90865002597
:101448002B46082205A920460A958DF82C500C95A4
:1014580001F048FD079B0293069B03939DF8143007
:101468008DF8115003F00302012A1DD1BDF8142094
:10147800059DC3F3C203C2F383168DF81030B20082
:1014880008230EA9204601F02DFDC5F3952508ABCC
:101498000093324602AB0EA9284600F0E5FB204631
:1014A80001F0FDFC15B0F0BD022AF8D1BDF81650C8
:1014B800C3F3C203C5F389158DF810300827082D2A
:1014C8002E4628BF08263B4632460EA9204601F084
:1014D80009FDAD1B08AB02AA31460EA8374400F03F
:1014E80027FC002DEBD1DAE708B5FFF79AFF07488C
:1014F800042100F025FB002803DA0549412000F00B
:10150800A7FD044B01225A7108BD00BF50990F0076
:10151800C4990F008C590020037813F0040216D0E8
:1015280003F00303012B03D0022B09D001207047DD
:101538000A6800880232C0F3831002440A60F5E7A3
:101548000B684288023303EB92130B60EEE71046F8
:10155800704700002DE9F04FDFF834A187B00F463F
:1015680000230446861C0DF1070015468DF8073048
:1015780000F002FDDAF804203A60DAF80830424F49
:1015880003F580639B1AA7F10409A7F10808B34281
:101598001BD30020002D72D004F00F039B0143F0F1
:1015A800050363F30F00DAF80430C3F309020332CA
:1015B80033444AF822009DF80700CAF8043000F0C6
:1015C8000BFD012007B0BDE8F08F0121384600F07F
:1015D80030FE484600F048FE404600F045FEDAF886
:1015E80008000290C0F3090003300AEB800002A94A
:1015F800FFF792FF029B8346C8B9C3F309020AEBBF
:101608008202D16803919A1C0133C3F309030AEBE0
:1016180083030292D86801F00303012B27D0022B21
:1016280008D01A494FF4C27000F012FD0CE0C3F361
:101638000900D9E7BDF80E30C3F3891303334FEA25
:10164800104B02EB93030293404600F010FE10B1DA
:10165800029BCAF808305946384600F0EAFDDAF825
:101668000830DAF8042003F580639B1A8FE7BDF889
:101678000C30C3F383134FEA104B1344E3E7A4057C
:1016880044F006008FE700BF106B00206A9A0F0035
:10169800F45A0020064B074810B500221A7001F0D2
:1016A800B3FB044610B9044801F030FC204610BDD5
:1016B800F45A002028990F00109B0F0030B50A4CEF
:1016C80071B10A4A0A49121BD20800239A4201D171
:1016D800002030BD31F82350854202D00133F5E7B0
:1016E800034654F83300F4E7B8980F0028990F0020
:1016F80078590020094B013903EBC000032909D8A8
:10170800DFE801F00A0204060420704700797047F8
:10171800407970470020704702207047B8980F0042
:1017280070470000034BD3E90130C31A58425841AF
:10173800704700BFF45A00202DE9F04387B0FFF747
:10174800F1FF0646002840F0F080794C04F58055FA
:10175800A861BFF34F8FA3680293C3F30903033350
:1017680004EB830002A9FFF7D7FE029B10B1AA6918
:10177800002A5DD0C3F30902991C013304EB8202ED
:10178800C3F3090304EB8303D268DB68049302F014
:101798000303022B0392029155D1BDF80E30654820
:1017A800C3F389184746502F28BF502707F108016F
:1017B80067F38F13C1F30901ADF80E3001F03CFB5C
:1017C8000646002800F09D8001F065FB00230822F2
:1017D80003A9304601F072FB0299CB43C3F3090316
:1017E8000133C1F309010331B7EB830F4FEA8302D9
:1017F80004EB810124D95FFA82F90823A7EB0907D2
:10180800304601F05BFBFFB209F108034A4903F0D7
:10181800FC033A46304601F051FB029B08F10308ED
:1018280003EB98030293AB69002B43D12F6954E073
:1018380062689A4291D8A260304607B0BDE8F0834A
:1018480008233A46E6E7012B5BD1BDF80C3039484E
:10185800C3F38311062928BF062161F389130231D6
:1018680001F00F018900ADF80C3001F0E5FA0646E9
:10187800002846D001F00FFB0023082203A93046B8
:1018880001F01CFB0027BDF80C20C2F38312BB003B
:10189800974203F10803C6D202994A1CC1F3090111
:1018A8000331029204EB81010422304601F006FB69
:1018B8000137E8E7304601F0F2FAFFF733FF80F02E
:1018C8000100C6B2B8E7FB685B7923B13B683146D3
:1018D8001B6838469847FB681F68002FF3D13046CD
:1018E80001F0DDFA0DF107008DF8077000F044FBF8
:1018F800AB690BB9029BA3609DF8070000F06CFB75
:10190800DBE72C6954B90D4B0D480E49C01AC008C5
:10191800000440F0020000F075F8CEE72368204686
:101928009B689847E3681C68ECE7002684E700BFDB
:10193800F45A002028990F00005B0020B8980F0087
:10194800B8980F00F89A0F002DE9F34704460F46A0
:10195800914601A9012218461E46FFF7FBFDDFF854
:10196800A08078B3019D0023A81CB34203EB0001BB
:1019780034D11F48002100F021FC80F3100A1D4BD0
:101988001D4A4FEA14499B1AB9EBD30F04D31B49DC
:1019980040F2A91000F05CFB6B1CC3F30903E400E0
:1019A80008EB830304F0380449EA0A40C5F3090543
:1019B80044F00104D860033544EA861343EA8723D8
:1019C80048F8253098F800301BB1FFF7B5FE00281D
:1019D800FBD1FFF7A5FE02B0BDE8F087C1F309010E
:1019E80008EB810159F82320CA600133BDE700BF25
:1019F800106B002028990F00B8980F006A9A0F0002
:101A0800F45A002000231A46FFF79EBF07B50123AA
:101A1800019201AAFFF798FF03B05DF804FB07B530
:101A2800CDE9002302236A46FFF78EFF03B05DF875
:101A380004FB1FB5CDE90123069B039301AA0323E9
:101A4800FFF782FF05B05DF804FB1FB5CDE9002361
:101A5800069B0293079B03936A460423FFF774FFD0
:101A680005B05DF804FB7FB5CDE90123089B03931E
:101A7800099B04930A9B059301AA0523FFF764FFBA
:101A880007B05DF804FB00002DE9F7430446D01CBD
:101A98008846164601A900228008FFF75BFD264DFF
:101AA80098B3019FB81C0190C0F30900C0F580638A
:101AB800B6EB830F00F103004FEA830905EB8000C2
:101AC8002AD83246414607F037FE1C48002100F06C
:101AD80075FB80F310007B1CC3F30903C7F30907E8
:101AE800220C05EB8303033742EA0040E400D86088
:101AF80004F0380455F8273044F0020444EA8652CA
:101B080003F47C131A4345F827202B787BB9FFF799
:101B180007FE03B0BDE8F0834A46414607F00CFED5
:101B2800A6EB090208EB090105F10C00CBE7FFF76A
:101B380003FE0028FBD1EAE7F45A0020106B0020CE
:101B480030B50E4C226903460020114629B9D968E0
:101B5800087142B923610A6030BDC9680D798542B0
:101B680006D00968F2E7D26814680C601360F3E7DE
:101B780001300A28E9D14FF0FF30EDE7F46A002080
:101B880038B5084B03F58052012514691D7004B956
:101B980038BDE3685D71236820465B689847E36851
:101BA8001C68F4E7F45A002030B5C38885B00446B1
:101BB8000D4633B1144A00921449154A284600F0DC
:101BC80001FC217A05291DD0637A4BB1A088FFF763
:101BD80091FD104B104953F82020284600F0F2FBE5
:101BE800227A0E4BA08853F8222003920021FFF797
:101BF80065FD039A0A490346284605B0BDE830400A
:101C080000F0E0BB05B030BD3C9B0F00249B0F00EB
:101C18001C9B0F00AC9B0F00CDCD0F00D09B0F007D
:101C2800419B0F0007B503460846197A052911D0CC
:101C38005B7A2BB1094A0A49019000F0C3FB01986D
:101C48000849019000F0BEFB019803B05DF804EB71
:101C580000F0A6BB002AF8D0F2E700BF3C9B0F00BB
:101C6800CDCD0F00399B0F002DE9F04385B01F46FD
:101C78000C9D002395F80C902B7306460C46904655
:101C880029463846FFF790FFB8F1060F09D8DFE874
:101C980008F00412181F283340003146284600F087
:101CA80091FB002229463846FFF7BCFF85F80C90C7
:101CB80005B0BDE8F08322683146284600F082FB73
:101CC800EFE7D4E900233146284600F07BFBE8E73C
:101CD800A36800933146D4E90023284600F072FB3C
:101CE800DFE7E3680193A36800933146D4E9002352
:101CF800284600F067FBD4E723690293E368019361
:101D0800A36800933146D4E90023284600F05AFB23
:101D1800C7E76369039323690293E3680193A368A0
:101D280000933146D4E90023284600F04BFBB8E77E
:101D380008292DE9F74F80460E4617461C463CD821
:101D4800002593F80C901D7319461046FFF72CFFD9
:101D5800DFF888A0DFF888B0AE4231D918F805203E
:101D68005946204600F02EFB0135082DF4D11949BB
:101D7800194DDFF870A0204600F024FB4FF0000B4F
:101D88005E4522D918F80B207E2A05D81046019204
:101D980007F096FC019A00B92E225146204600F021
:101DA80011FB0BF1010BBBF1080FE9D10122214610
:101DB8003846FFF737FF84F80C9003B0BDE8F08F82
:101DC8005146204600F0FEFACEE72946204600F0AC
:101DD800F9FAE6E7559B0F00539B0F00519B0F0044
:101DE8004B9B0F00579B0F004B1C30B5DB00044684
:101DF80012F003009BB20DD1074D2A601A44074B1D
:101E08001A60074B1870074B1870074B1C80074B5C
:101E1800198030BD0720FCE7B46B0020B06B0020B0
:101E2800AC6B0020BC6B0020B86B0020BA6B0020A4
:101E38002DE9F347DFF8C080B8F800308B4206463A
:101E48000D4617464CD300240DF107008DF80740C6
:101E580000F092F8244B254A25481B78008892F810
:101E680000C084455FFA8CF138BF4C1CDBB238BF28
:101E7800E4B2A3422ED014781178CBB2884286BF40
:101E88000133DBB2002313709DF8070000F0A4F8BB
:101E98004FF6FF739C4225D0DFF86090D9F80020F8
:101EA8004FEAC40A42F8347002EBC403AEB1A5B1DC
:101EB800104BB8F800001B682A4604FB0030314676
:101EC80007F03AFCD9F80030534400209D8002B056
:101ED800BDE8F0874FF6FF74D6E700209880F6E754
:101EE8000920F4E70420F2E7BC6B0020AC6B00206B
:101EF800BA6B0020B06B0020B86B0020B46B0020D8
:101F080070B5104C104D22782B789A4200D170BDD4
:101F18000E480F4A2378126806880E4802EBC30160
:101F2800006852F83320898803FB060090470A4965
:101F380022780988D3B2914286BF0133DBB20023ED
:101F48002370E0E7BC6B0020AC6B0020B86B00206E
:101F5800B46B0020B06B0020BA6B0020EFF3058350
:101F6800C3F308032BB9EFF31480C04300F001005A
:101F7800704701207047000070B50446FFF7EEFF78
:101F8800012803D01049432000F062F8EFF31086CF
:101F980072B60E4A9068012398B993600C4B0D4DA8
:101FA800D3F8801029401160C3F88050D3F884100A
:101FB80051604FF0FF32C3F88420207006B962B632
:101FC80070BD2370FAE700BFE49B0F00C06B0020D0
:101FD80000E100E0FC06FFBD10B50446FFF7BEFFB8
:101FE800012803D00949512000F032F8084B9A68BB
:101FF8005AB154B9EFF3108172B6064A18681060E6
:10200800586850609C6001B962B610BDE49B0F002F
:10201800C06B002000E100E030B53AB11368DB4343
:102028000A4D0144814204D1D84330BD4FF0FF33FB
:10203800F6E710F8012B5340082213F0010418BFEB
:102048002C46013A84EA5303F7D1EBE72083B8ED35
:1020580007B5CDE900016A46002144F2020002F00A
:1020680059FA03B05DF804FB10B561B1B2FBF3F4A3
:1020780003FB1424A4B244B9C0E90014846082812B
:10208800C381204610BD0E20FCE70920FAE782B084
:1020980050E8022FC188B2EB324F4FF0000317BF50
:1020A80092B241EA014142EA014104E04268B2EBDE
:1020B800324F08BF012340E80212002AE8D18DF808
:1020C80007309DF80730002B0CBF1120002002B00C
:1020D800704737B550E8013F9DB2C48925448489CB
:1020E800A54228BF2D1B0489A54202BFBFF32F8F2D
:1020F800002207E0C5EA030540E80154002CE9D1B5
:102108004FF001028DF803200193019A0A609DF8AF
:10211800031001F0FF0321B1006810FA82F003B048
:1021280030BD1846FBE70A884B889A4209D150E827
:10213800012FC2EA024240E80123002BF7D1012017
:1021480070470020704737B550E8023F1FFAA3F5E3
:10215800C488A54202BFBFF32F8F00220DE0C489B7
:1021680025448489A54228BF2D1BC3EA054540E8BC
:102178000254002CE8D14FF001028DF8032001939E
:10218800019A0A609DF8031001F0FF0321B100686D
:1021980000EB124003B030BD1846FBE70A884B88B5
:1021A8009A4209D150E8022FC2EA224240E80223AB
:1021B800002BF7D1012070470020704710B5034667
:1021C80053E8000F0A4643E8002494F0000FF7D1C3
:1021D80010BD10B5034653E8000F40EA010243E87A
:1021E800002494F0000FF6D110BD10B5034653E853
:1021F800002F42EA010043E8000494F0000FF6D1F2
:1022080010BD10B5034653E8000F00EA010243E889
:10221800002494F0000FF6D110BD10B5034653E822
:10222800002F02EA010043E8000494F0000FF6D101
:1022380010BD10B5034653E8002F02EB010043E838
:10224800000494F0000FF6D110BD10B5034653E812
:10225800002FA2EB010043E8000494F0000FF6D130
:1022680010BD0121FFF7B5BF0121FFF7BEBF002157
:10227800FFF7C7BF0021FFF7D0BF000010B5044625
:10228800002834D003681BB91A49FF20FFF7E0FE85
:10229800636823B917494FF48070FFF7D9FEA36824
:1022A80023B9144940F20110FFF7D2FEE36823B9BD
:1022B80010494FF48170FFF7CBFE238A23B90D49EB
:1022C80040F20310FFF7C4FED4E9012321689B1AEA
:1022D800DBB20A60013BDBB2FF2B226802D100208F
:1022E800107110BD1168481C10600B70F2E70E20C9
:1022F800F7E700BF799C0F0037B5044620B91349AA
:102308004FF49270FFF7A4FE00250DF107008DF839
:102318000750FFF731FE22686368116899420ED9A9
:10232800481E106011F8013CE568218A01FB03553D
:10233800A36811791B1ADBB2994238BF13719DF853
:102348000700FFF749FE284603B030BD799C0F000F
:1023580037B50C46054620B9104940F24710FFF73B
:1023680077FE24B90D494FF4A470FFF771FE0023DE
:102378000DF107008DF80730FFF7FEFD2A68136896
:10238800591C1160E968641A298AB4FBF1F41C70BD
:102398009DF80700FFF720FE03B030BD799C0F00C1
:1023A80010B5044618B906493120FFF751FEA26856
:1023B8002AB163692168206998470023A36010BD8A
:1023C800009D0F000EB433B5059D044618B9114998
:1023D8004220FFF73DFE63691BB90E494320FFF712
:1023E80037FE23681BB90B494420FFF731FE6368A9
:1023F8001BB908494520FFF72BFE35B106AB01AAEA
:1024080029462046019300F079F802B0BDE8304033
:1024180003B07047009D0F000A2938B504460D46E1
:1024280002D10D21FFF7F8FFA3682268591CA160AB
:10243800D554D4E901329A4204D32046BDE8384045
:10244800FFF7AEBF38BD00002DE9F84F9846DDE92B
:102458000A43154682460F460A464FF00109AA422A
:102468000FD2C14538BFC14613F0010B01D16CB979
:1024780000240126B8F1010F1BD908F1FF386E437B
:10248800F8E709F10109B2FBF5F2E8E79B070ED579
:10249800B8F1000F0CBF30262026A145E9D2013C37
:1024A80031465046FFF7B8FF002CF6D1E0E720266A
:1024B800F3E7B7FBF6F39D42E1D9DFF83C80B7FBC1
:1024C800F6F3504618F8031006FB1377FFF7A4FF3E
:1024D8003346AB42B6FBF5F6F1D2BBF1000F02D0A2
:1024E8000CB1A14501D3BDE8F88F20215046013C2D
:1024F800FFF792FFF4E700BF019E0F002DE9F74FA9
:1025080088461746054620B9AF4940F25220FFF7E2
:102518009FFD6B6923B9AC494FF41570FFF798FD1F
:102528002B6823B9A84940F25520FFF791FD6B6845
:1025380023B9A54940F25620FFF78AFDB8F1000FEC
:1025480000F03E8118F8011B49B92B7B002B00F0E5
:102558003781284603B0BDE8F04FFFF721BF252992
:1025680040F0B780002698F800302D2B424608F13D
:10257800010823D0302B24D02B2B25D000242A2B44
:1025880002F1010123D13B681A1D1B683A601C4403
:102598000A4613782E2B26D101324FF0000A104636
:1025A80010F8011BA1F1300CBCF1090F1DD80A234A
:1025B80003FB0A13A3F1300A0246F0E746F00106CE
:1025C800D1E746F00206CEE746F00406CBE711F85D
:1025D800013CA3F130000928DBD80A2202FB0434AD
:1025E800303C0A46CBE74FF0000A12F8011B01F015
:1025F800FB0068289046F8D0782909D86F290CD8AC
:10260800632962D022D8252963D0582900F0888010
:1026180098F80030002B95D197E770390829F7D83A
:1026280001A353F821F000BFA3270F0019260F00BC
:1026380019260F0039270F0019260F0017270F003A
:1026480019260F0019260F0029270F00642901D029
:102658006929DDD13A68D2F80090111D89EAE9723A
:102668003960A2EBE9724FF0010B092A35DCD3453A
:1026780038BFD3462CB1B9F1000F01DB720700D582
:10268800013CB30702D5BAF1000F03D0F00701D41B
:102698004CBB0024B9F1000F2DDAC9F100092D2136
:1026A8002846FFF7B9FE06F00302022A04D1BAF160
:1026B800000F01D11CBB0024CDE9004653460A2275
:1026C80049462846FFF7C0FEA2E73B681A1D19785D
:1026D8003A602846FFF7A0FE9AE70A230BF1010BA0
:1026E800B2FBF3F2C1E7A345D4D220212846013C2E
:1026F800FFF792FECCE77107D5D52B21D0E7A3458C
:10270800DAD230212846013CFFF786FED2E7396845
:10271800CDE900460A1D3A6053460A220968D0E707
:1027280039680A1D3A60CDE9004653461022F5E79C
:102738003B681A1D3A6016F00106D3F8009024D1C0
:10274800B9F1000F03D0484607F074F80646B442C2
:102758001DD809F1FF3919F8011F00293FF458AFB6
:102768002846FFF759FEF6E728460136FFF754FEDC
:1027780019F806100029F7D1A642BFF449AF202165
:102788002846013CFFF748FEF6E70026F0E720213F
:102798002846013CFFF740FED9E73B681A1D3A601E
:1027A800302128461C68FFF737FE78212846FFF7B6
:1027B80033FE00220823CDE900322146102280E7AB
:1027C80003B0BDE8F08F00BF7D9D0F0070B50D46CA
:1027D8001646044618B908495520FFF739FC1DB9B3
:1027E80005495620FFF734FC2B6825603146204602
:1027F800BDE87040184700BF119E0F002DE9F04159
:10280800DDF818800E4617461D46044618B92249B9
:102818008820FFF71DFC1FB91F498920FFF718FC06
:1028280023681BB91C498A20FFF712FC45BB1A49CB
:102838008B20FFF70DFCB20703D017499120FFF753
:1028480007FCBB0703D014499220FFF701FCE3689B
:102858009E4204D322696B1E3344934203D90E4926
:102868009320FFF7F5FB2368CDF81880D3F80CE028
:102878003A462B4631462046F446BDE8F0416047CB
:1028880063685A68B5FBF2F302FB1353002BD2D0EE
:1028980001498E20CDE700BF119E0F002DE9F041C0
:1028A8000D4616461F46044618B919499E20FFF7DB
:1028B800CFFB23681BB916499F20FFF7C9FB1EB938
:1028C8001349A020FFF7C4FB63681B68013B2B4238
:1028D80003D00F49A320FFF7BBFBE3689D4207D352
:1028E80063681A686B1E02FB06332269934203D998
:1028F8000749A520FFF7ACFB2368D3F810E0324660
:102908003B4629462046F446BDE8F041604700BFF3
:10291800119E0F0070B550B90E4D0F4C0026641B68
:102928001423B4FBF3F4B44208D1002010E0036888
:10293800002BF1D0BDE87040DB6918472B6813B94C
:1029480001361435EFE7DB69284698470028F7D0A9
:1029580070BD00BF785900208C590020014B43609E
:1029680000207047AC9E0F00084670470020704753
:10297800024B1868003818BF01207047CC6B002044
:1029880008B50248FFF776FC002008BDCC6B002094
:1029980008B510461A4606F0CFFE002008BD000014
:1029A8002DE9F041804686B011480F4616461D466F
:1029B800FFF757FC0446C8B9AA083146384601F063
:1029C80013FC0B48FFF756FCD8F8083053B1012226
:1029D8008DF800200C9A0592CDE90147CDE90365F1
:1029E80068469847204606B0BDE8F0811124F9E70B
:1029F800CC6B00202DE9F043814687B014480E4681
:102A080015469846FFF72DFC0446F0B90746BD4227
:102A180015D10F48FFF72EFCD9F808305BB1022218
:102A28008DF800200022CDE90126CDE90325CDF857
:102A3800148068469847204607B0BDE8F08306EB47
:102A4800073001F0B9FB0137E1E71124F3E700BFD4
:102A5800CC6B002029DF704728DF704770B503680A
:102A68009E6886B004460D466EB114220021684661
:102A780006F08BFEA3680593237901952BB1012BF2
:102A88000DD06846B04706B070BD01238DF8003000
:102A980023690293E368039363690493F1E70223CC
:102AA8008DF80030E3681B030293F5E7084670478A
:102AB80000207047024B187A003818BF0120704771
:102AC800BC6D0020034B187A0122B0FA80F05A74CA
:102AD80040097047BC6D002008B510461A4606F03C
:102AE8002BFE002008BD000008B514220021044870
:102AF80006F04BFE0348FFF7CAFA002008BD00BFE6
:102B0800BC6D0020AC6D002010B5094C094B43602A
:102B18002046FFF7A6FB48B901F0AAF90649207438
:102B28001C2306484FF4EE72FFF79EFA002010BDF2
:102B3800BC6D0020D89E0F00D06B0020AC6D00202B
:102B480038B5224D224C2B7A3BB922492248FFF74F
:102B5800FAFA206008B9686038BD022324682B722D
:102B6800237973B1012B22D020460321FFF776FF8A
:102B780000232B726B6017491748BDE83840FFF7F0
:102B88000DBBD4E90523D21A142AD4E9031028BFAF
:102B980014229208012A38BF012219441844FFF769
:102BA80059FF50B11128DFD101232B72D4E7D4E9A2
:102BB80003031844FFF750FFF3E72B7C002BCBD11E
:102BC800BDE83840022000F009B800BFBC6D002005
:102BD800D46D0020D06D0020AC6D002038B5224C9B
:102BE800237A002B3FD0022B09D103282ED01F4B6C
:102BF80000221B68E2601A793AB1012A20D0637C6E
:102C08006BBBBDE83840FFF79BBFD3E905128D1AAF
:102C1800142D94BF521914329A619142EFD10228AF
:102C28004FF0000308BF19462372104B18BF0D213F
:102C38001868FFF713FF0E490E48FFF7AFFADEE7F3
:102C48001A6901321A615B699A42E7E7E36801335E
:102C5800082B01D8E360D2E70023E360DFE7BDE893
:102C6800384001F0F5B838BDBC6D0020D46D0020A7
:102C7800D06D0020AC6D0020831E012B01D8FFF71A
:102C8800ADBF704700F0FD03012B08D1044B0022B3
:102C98005A74421E504250411874FFF751BF704792
:102CA800BC6D002010B5064C201DFFF7DAFA28B9D4
:102CB800637C1BB9BDE81040FFF742BF10BD00BFE1
:102CC800BC6D00202DE9F34180460D460F4801A94F
:102CD80016461F46FFF7FDF90446A8B11C2200213D
:102CE80006F053FD2D0B0123237101A90748C4F8F1
:102CF8000080A760E5606661FFF715FAFFF7D2FF6D
:102D0800002002B0BDE8F0810420FAE7AC6D002095
:102D18002DE9F74381468846104801A917461E4603
:102D2800FFF7D7F90446B0B11C22002106F02DFDAB
:102D380000250A9BA36001A9C4E903780748257107
:102D4800C4F800906661FFF7EEF9FFF7ABFF28467D
:102D580003B0BDE8F0830420FAE700BFAC6D0020A3
:102D68002DE9F74F99469DF83030009388469346F1
:102D7800064618B92349B620FFF76AF9F28871792F
:102D88004A43043A4A4505D81E490192C420FFF730
:102D98005FF9019ADBF80070B6F806A007EB0901A5
:102DA800914209F1040488BFA2EB0907B4FBFAF5C4
:102DB800CBF800700AFB154445B9AAEB040BBB45D8
:102DC80028BFBB462FB903B0BDE8F08F3668013D78
:102DD800F2E7009B043408EB050034445A466BB113
:102DE8002146A7EB0B0706F0A7FCBA455D443668F9
:102DF800D3464FF0000428BFBB46E3E70146204610
:102E0800EFE700BF049F0F00FFF738BAF8B546791F
:102E18000146721E0546002393422D6803D3002401
:102E2800A64202D8F8BD0133F6E70F682846FFF737
:102E38008FFA01343946F3E72DE9F843068ACD1CA9
:102E48000746FFF759FA043E35440446B5FBF6F544
:102E5800F0B14FF48073EDB28380C680013D076006
:102E680081464FF00008A84512D23846FFF744FAC9
:102E7800064648B163790133637108F10108C9F85E
:102E8800000007608146EEE72046FFF7BFFF3446A3
:102E98002046BDE8F88301210430FFF7CAB910B510
:102EA800012104460430FFF7D0F9C0B220B920460A
:102EB800BDE81040FFF7AABF10BD00001FB51446BB
:102EC80003920022009203AAFFF74AFF039BA34242
:102ED80003D00349F620FFF7BBF804B010BD00BFCC
:102EE800049F0F001FB5144603920122009203AA03
:102EF800FFF736FF039BA34204D003494FF48070C9
:102F0800FFF7A6F804B010BD049F0F0083680022E5
:102F18005A60C3E904229A60DA601A6070470000B8
:102F280038B50D46044618B909495020FFF790F8FE
:102F38001DB907495120FFF78BF82B686A68636051
:102F4800934208BF0023256008BF636038BD00BFF7
:102F58008B9F0F0010B5044618B90B496320FFF783
:102F680077F823681BB908496420FFF771F863688C
:102F780043B12268916852680B449342636004BF6E
:102F88000023636010BD00BF8B9F0F0010B50D4973
:102F9800A1F59472914201D800200FE08C1AE30F3A
:102FA80003EBE4035B1002EBC30452F833308342B3
:102FB80005D802D204F10802ECE7606810BD21468A
:102FC800E8E700BF20A50F0008B5FFF7DFFF024BB9
:102FD800002808BF184608BDE5A30F000023C0E974
:102FE80002328B881A44B1F9063002611A44C0E9EA
:102FF800001142610888003818BF012070474268F4
:10300800118838B50346002937D0148A02F1100117
:1030180041602CB9C2680168FFF7E0FF204638BD5F
:103028009078118900F03005302D14D1947C04F08B
:103038003004302C1BD190881969091A19610021B4
:10304800908AB2F91620084419690144196111449B
:1030580059610120E3E700F0F004202C07D15089E2
:103068004143002DECD1986801309860E8E700F002
:10307800C000802808BF0421F3E70846CFE770B5F1
:10308800466804460D4663681A88AA4204D19B78AC
:1030980003F00F03082B07D12046FFF7B0FF636842
:1030A800B342F0D1002070BD0120FCE743681A4408
:1030B800426011B101399A4201D10120704713F8D9
:1030C800010B01F8010FF6E770B54568AA7802F020
:1030D8000F06082E86B003461FD103691C68002618
:1030E8000CB906B070BD236862689D6826732946CE
:1030F8006846FFF773FF6368049304F10C030593B4
:10310800AB7803F0C003802B08BF231D684608BFB7
:103118000493FFF7D9FFA468E2E712F0C00122D1B7
:1031280002F0300010280CD15A691170072EEC6893
:1031380018690BD10146204606B0BDE8704000F082
:103148001AB89006F2D55B691980CAE72A89214620
:1031580024B106B0BDE8704006F0EEBA06B0BDE88E
:10316800704006F012BB8029BBD10069002192068D
:103178000160B6D5E7E77FB50A4601466846FFF71E
:103188002DFF30B16846FFF79FFF6846FFF737FF0E
:10319800F7E707B05DF804FB836810B504460BB980
:1031A800002010BD0368012298470028F8D0A368C2
:1031B800013BA360F5E72DE9F3410F460DF1070147
:1031C8008046FFF7E9FF054620B90025284602B0EA
:1031D800BDE8F0819DF907309DF80740002B13DA10
:1031E80004F07F0407260DF107014046FFF7D4FFDE
:1031F8000028EAD09DF8072002F07F03B3401C4363
:10320800130606F1070601D43C60DFE7232EEAD156
:10321800DBE7000030B5044685B01546A9B9026859
:10322800114B9A4211D0102D06D82A4669462046DD
:10323800FFF7F0FF05B030BD102269462046FFF7C2
:10324800E9FF0028F6D0103DEDE7A368AB4201D2B4
:103258000020EFE723682A46204698470028F7D041
:10326800A268521BA260E5E7B5300F00F7B50E461D
:1032780001A907461546FFF79EFFA0B1019A511C08
:103288004FF0000404D2B37803F0C003802B01D1BF
:10329800204608E033898B42FAD329463846FFF79F
:1032A800B9FF019BEC5403B0F0BD73B50D4601A9FD
:1032B80006461446FFF77FFF98B1019AB2F5803FA2
:1032C80011D2AB7803F0C003802B02F102010AD0BF
:1032D8002B898B4207D32146304621F8022BFFF772
:1032E80099FF02B070BD0020FBE7000010B5034C49
:1032F80082600022C0E90041C26010BDB5300F00F5
:103308002DE9F341002580460E462F462C460DF147
:1033180007014046FFF740FFC0B19DF807C0A4F180
:1033280020030CF07F02C4F1200102FA03F322FA11
:1033380001F10B43A2401CF0800F45EA020547EA61
:10334800030704F1070404D1C6E9005702B0BDE839
:10335800F081462CDBD10020F8E737B50D466946E9
:103368001446FFF7CDFF70B12B89082B0DD1DDE98D
:103378000032C4E90032DDE90001914208BF9842F9
:103388000CBF0120002003B030BD042B03D1009BEB
:1033980023600022EFE7022B03D1009B23809BB21E
:1033A800F7E7012B04D1009B237003F0FF03F0E73C
:1033B8000020E8E737B50D4669461446FFF7A0FF39
:1033C80030B12B89082BDDE9001203D1C4E90012C2
:1033D80003B030BD042B4FEAE17009D121600B46E0
:1033E8000246824208BF8B420CBF01200020EFE753
:1033F800022B03D10BB22380DA17F2E7012B02D19B
:103408004BB22370F8E70020E2E7F7B51F46002328
:103418003B700D460B70136001A904461646FFF772
:10342800CAFE30B9A36813B901233B70002003B06A
:10343800F0BD019C002CF7D0E30804F007043360CA
:103448002C70F4E713B50446052925D8DFE801F008
:10345800030F17242422012201A92046FFF7DAFED0
:1034680018B19DF90430002BF5DB02B010BD08221D
:103478000021204602B0BDE81040FFF7CBBE01A9ED
:10348800FFF799FE0028F0D0019A00212046FFF7A7
:10349800C1FEEAE70422EBE70020E6E773B50D4634
:1034A80001A90446FFF787FE064618B900263046EC
:1034B80002B070BD94E80F0085E80F0001998A42B8
:1034C800F4D3A960A3685B1AA360F0E72DE9F04381
:1034D8005668B37813F0C00489B007468C46154681
:1034E80003D0402C69D000240CE003F00F0260499F
:1034F80003F03003202B51F8228025D006D8E3B101
:10350800102B17D0204609B0BDE8F083302BF9D135
:103518006B6931881980072A09D1214632892869BF
:1035280006F033F96B682969D868FFF724FE2A6921
:10353800696840E06B6901221A702A69314643467E
:1035480009B0BDE8F0431847BCF1020FD5F8149054
:1035580024D1042A22D804A9FFF7A0FF0446002892
:10356800C1D0069B2BB16968B9F800304A899A42E4
:1035780005D8059B7B60069B002BC3D0B3E7088961
:103588002A6903FB002204A8C04728B1B9F8003013
:103598000133A9F80030E4E70446EAE7B9F8003057
:1035A80072899A429FD931892A69581C03FB0122E2
:1035B800A9F8000031463846C1E7D2F810804646DF
:1035C80056F8043B23B909B0BDE8F043FFF73ABF0A
:1035D800022914D104A9FFF761FF002883D0D8F885
:1035E80000306968324604A89847044600283FF42A
:1035F8007AAF069B002BF2D1059B7B6082E70129FD
:1036080026D005292CD000297FF46DAF0C460DF18A
:10361800040901340B2C3FF466AF012249463846B1
:10362800FFF7F8FD00283FF45EAF19F9013B002BC6
:10363800EFDB104B049301ABCDE90534002307936E
:103648006968D8F80030324604A89847044659E714
:10365800082201A9FFF7DEFD08240028E9D142E786
:1036680004220DEB0201FFF7D5FD0424F5E700BFA6
:1036780020A50F00B5300F002DE9F04F91B004469A
:10368800002604A8CDE90266FFF7A8FCA3683BBBA7
:10369800DDE9053404A89D78FFF7B1FC0028F7D1CF
:1036A80015F0300F03D1059B1B8803B10134002CA2
:1036B80000F0A980630902A90022934240F09C808F
:1036C80010AA02EB830304F01F0453F8383CC4F13A
:1036D80020044FF0FF30E040C31A584258410DE033
:1036E8000DF1030301AA0DF102012046FFF78DFE3B
:1036F80038B99DF80330002BCAD1002011B0BDE8BD
:10370800F08F019904A8FFF7BAFC002850D1019B5B
:10371800B3427DD3059D059A937803F00F03082BD8
:103728007FD004A8FFF76BFC059B9D42F3D14FF0B7
:10373800FF36019FB7426BD3089B9DF802A0D4F8CF
:1037480008801D684FF00109A368002D5DD09845D9
:103758009CD12B68D3F800B0BBF1000F08D05346BA
:103768003A4629462046D8470028C6D0AD68EBE738
:10377800D3F808B0BBF800309F42F7D16A685946C1
:103788000AA8FFF72BFC6B680E9305F10C030F9347
:103798009BF8023003F0C003802B04BF2B1D0E934F
:1037A8000AAA85F80C9051462046FFF78FFEDBE702
:1037B800059B9B7813F0300F0FD1069A3F2A0CD83F
:1037C800510910AB03EB810102F01F020123934062
:1037D80051F8382C134341F8383CE5682DB19DF871
:1037E8000220019904AB2046A8479DF8021004AABC
:1037F8002046FFF76BFE10E051F8045B01357FF4BB
:103808007DAF013259E7012078E798457FF43EAF54
:103818009DF802102046FFF715FE00287FF436AF0A
:103828006BE7168885E737B50C46054611462046EE
:103838000192FFF7A0FC019A2146284603B0BDE893
:103848003040FFF719BF70B586B0CE6801920C46BC
:1038580002A90546FFF722FE68B1E06858B1A378CF
:10386800019A03F03003202B314602A805D1FFF757
:10387800DAFF039B6B6006B070BDFFF7FDFEF8E74B
:1038880013B50C466946FFF73BFD60B1DDE900134F
:103898004A0842EAC372C9074FEA530344BFD243F6
:1038A800DB43C4E9002302B010BD37B50D466946B5
:1038B8001446FFF7E5FF70B12B89082B0DD1DDE920
:1038C8000032C4E90032DDE90001914208BF9842A4
:1038D8000CBF0120002003B030BD042B03D1009B96
:1038E8002360DA17EFE7022B03D1BDF900302380FC
:1038F800F7E7012B03D19DF900302370F1E7002091
:10390800E9E713B504220C460DEB0201FFF782FC30
:1039180008B1019B236002B010BD1146FFF7F1BF4B
:1039280013B508220C466946FFF774FC18B1DDE9A7
:103938000023C4E9002302B010BD1146FFF7F0BF11
:1039480038B52022044608300D4605F0F5FE202241
:10395800A91804F1280005F0EFFE002038BD00008A
:103968002DE9F3411B4D98461B4B036004460E4658
:10397800284601211746FEF721FCBFF35F8F30BBB5
:1039880000F0F6F83B46089ACDF8008006F10801E9
:10399800204604F0CFFC044600F0F8F82B68012B11
:1039A80003D00E499320FEF753FBBFF35F8F00232C
:1039B8002B6044B10A4948F2165248F242538C42ED
:1039C80014BF14461C46204602B0BDE8F08148F2F8
:1039D8000454F8E7D87D0020DD55AABB50A50F0098
:1039E8008408F0000E4B984214D00AD8B8B10D499B
:1039F80048F2165248F20153884214BF104618463E
:103A08007047094B984208D0084948F2165248F2C4
:103A18000353F1E748F20350704748F202507047E9
:103A28000102F0000002F0000202F0000F02F000B4
:103A380008B5083004F0E8FCBDE80840FFF7D2BF3D
:103A480010B5064C2368012B03D005499320FEF7D7
:103A5800FFFABFF35F8F0023236010BDD87D0020DD
:103A680050A50F0013681F2B73B505460E46144664
:103A78001AD901210F48FEF7A1FBBFF35F8FB0B938
:103A880000F076F8314605F1080004F029FD0190B0
:103A980000F07CF8FFF7D4FF0198FFF7A3FF08B9FF
:103AA8002023236002B070BD48F21450FAE748F2B0
:103AB8000450F7E7D87D00202DE9F04105460E4671
:103AC800184801211446FEF779FBBFF35F8F20BB2E
:103AD80000F04EF8DFF850800835B4F5805F2746CF
:103AE80028BF4FF4805731463A46404605F024FE39
:103AF8003A464146284604F0A1FCE41B3E4450B92E
:103B0800002CEAD100F042F8FFF79AFF2046BDE802
:103B1800F041FFF767BF0446F4E748F20450BDE8F8
:103B2800F08100BFD87D0020D86D0020024B002016
:103B3800C3F80005704700BF00A0025038B50A4B13
:103B480000251D60BFF35F8F084C0123C4F80035C2
:103B580004F0F6FCC4F8005520B1052848F20350DB
:103B680018BF032038BD00BFD87D002000A0025038
:103B7800044B0122C3F80025034B4FF480625A60BE
:103B8800704700BF00A0025000E100E0064B002291
:103B9800C3F80025054B4FF48062C3F88420BFF3B7
:103BA8004F8FBFF36F8F704700A0025000E100E015
:103BB8000268530910B5044618D0012B4FF6FF735D
:103BC80018BF002302F01F02D340DB0704D40949C1
:103BD8004FF4F670FEF73CFA23681F2B83BF03F0FF
:103BE8001F03054823604FF0A04010BD4FF0FF337E
:103BF800E8E700BF9CA50F0000030050032813B599
:103C0800044603D908494720FEF722FA074B01A8C2
:103C18001B5D0193FFF7CCFF019A01239340C0F885
:103C2800083502B010BD00BFC7A50F0044A60F009D
:103C380008B50020FFF7E2FF0120FFF7DFFF0220B1
:103C4800FFF7DCFFBDE808400320FFF7D7BF0000FF
:103C5800F7B5C207044612D5134E0025032716F8F8
:103C6800013B019301A8FFF7A3FF019B013503F571
:103C7800E073042D40F82370F1D1FFF7D9FFA307B3
:103C880010D50A4D00240C2615F8013B019301A814
:103C9800FFF78EFF019B013403F5E073042C40F815
:103CA8002360F1D103B0F0BD44A60F0040A60F0079
:103CB80010DF704711DF704713B50446094968469D
:103CC800FFF72EF9019808B902B010BDD0E900211C
:103CD8002046904718B16846FFF73CF9F2E71120F3
:103CE800F2E700BF54A60F0013B50446074968461B
:103CF800FFF716F9019B0BB902B010BD2046D3E9B6
:103D0800002190476846FFF725F9F3E76CA60F00F6
:103D1800084B9A6822B11A6822F480021A60704728
:103D2800054B4FF48002C3F88020BFF34F8FBFF3D9
:103D38006F8F7047C06B002000E100E00B4991F8DD
:103D480016335A09EC231341DB0706D5084B9A684A
:103D58003AB94FF480030B60704742F2020000F05A
:103D6800EFBB1A6842F480021A60704700E100E075
:103D7800C06B0020F7B5194F3C7864BB184E01257D
:103D880020463570FFF798FF112821D02046FFF70D
:103D9800ABFF144B8DF80340186801900DF1030038
:103DA800FEF7EAF8104901A8FFF782FF0446B0FAC7
:103DB80080F0400938709DF80300FEF70DF93CB912
:103DC8000A4B34701C70FFF7B9FF2846FFF78CFFC9
:103DD800204603B0F0BD0824FAE700BFDD7D0020CF
:103DE800DC7D002050A60F001D450F00DE7D002061
:103DF800F7B5154F3B781BB3144E01203070FFF711
:103E08005BFF11284FF000051CD00220FFF76CFF64
:103E18000DF107008DF80750FEF7AEF8FFF74AFFDF
:103E280004469DF807003D70FEF7D6F82CB903202C
:103E38003470FFF76DFFFFF757FF204603B0F0BD62
:103E48000824FAE72C46F8E7DD7D0020DC7D002019
:103E5800054B1B7833B1054B1B780BB1FFF7C8BF77
:103E6800FFF788BF08207047DC7D0020DD7D00203B
:103E7800014B1878704700BFDD7D002007B5084961
:103E88006846FFF74DF8019B13B903B05DF804FBD2
:103E9800D3E9002090476846FFF75CF8F3E700BFD6
:103EA80060A60F00FFF7EABF60DF704769DF704761
:103EB80061DF704730B5134DADF5017D4FF4FA74ED
:103EC8000DF1020103A8ADF80240FFF7F1FF70B948
:103ED800294601A8FFF724F8029B002BF0D003A87D
:103EE800D3E90021904701A8FFF734F8F4E7052843
:103EF80005D00DF5017DBDE8304000F021BB0DF582
:103F0800017D30BDF4A80F00024B1B780BB1FFF701
:103F1800D1BF7047DF7D002018B1034B036000203C
:103F280070470E20704700BF7859002030B505460D
:103F380085B00C46002900F0B5805B4B0B600C2265
:103F4800002101A805F021FC01238DF80630226824
:103F58008DF80450062301A92020ADF80830FFF79A
:103F6800A5FF60B1FFF730F8504B51490246514860
:103F78001B1ADB081B0443F00100FDF747FD0C2268
:103F8800002101A805F001FC01238DF80530226805
:103F9800002301A94020ADF80630FFF787FF60B184
:103FA800FFF712F8414B4449024642481B1ADB0806
:103FB8001B0443F00100FDF729FD0C22002101A894
:103FC80005F0E3FBF72322688DF8045001A92320AC
:103FD800ADF80630FFF76AFF60B1FEF7F5FF334B27
:103FE8003649024633481B1ADB081B0443F001001C
:103FF800FDF70CFD0C22002101A805F0C6FB0120ED
:1040080022688DF8040001A9FFF750FF60B1FEF7A0
:10401800DBFF264B2A49024626481B1ADB081B04ED
:1040280043F00100FDF7F2FC0C22002101A805F085
:10403800ACFB4FF4B0632268019301A9A120FFF7FC
:1040480035FF60B1FEF7C0FF184B1E4902461948FC
:104058001B1ADB081B0443F00100FDF7D7FC0C22F8
:10406800002101A805F091FB9DF8043022686FF348
:10407800000301A9A0208DF80430FFF717FF0346BD
:1040880068B1FEF7A1FF094B0F49024609481B1A00
:10409800DB081B0443F00100FDF7B8FC00231846B9
:1040A80005B030BD0E23FAE77859002018990F00A3
:1040B80078A60F00B8980F00BEA60F000AA70F0039
:1040C80051A70F009DA70F00EEA70F0073B5054677
:1040D8000668FFF7E9FE2B68B34204461DD91A4863
:1040E8001A4B1B491B1ADB081B0443F00200019002
:1040F800FDF788FC2B68174901983246FDF78FFCBD
:104108004FF080532A68D3F80C31134901989B0269
:1041180003F100539A1AFDF779FC2CB90F4B0122D1
:104128001A70204602B070BD2046FEF74DFF074BBF
:104138000B49024604481B1ADB081B0443F0010024
:10414800FDF764FCEDE700BFB8980F0018990F0061
:1041580041A80F0070A80F00A1A80F00DF7D002064
:10416800CBA80F004BDF70471FB50E4C01A8FFF717
:10417800F9FF70B9214602A8FEF7D2FE039B002B77
:10418800F4D00198D3E90021904702A8FEF7E2FE97
:10419800F4E7052804D004B0BDE8104000F0D0B919
:1041A80004B010BD0CA90F00024AD2F80034002B4D
:1041B800FBD0704700E001400A4908B50223C1F866
:1041C8000435BFF36F8FBFF34F8FC1F80805FFF7B2
:1041D800EBFF0023C1F80435BFF36F8FBFF34F8F98
:1041E80008BD00BF00E0014070B50E4E0123154622
:1041F800C6F80435BFF36F8FBFF34F8F0024AC426E
:1042080007D10023C6F80435BFF36F8FBFF34F8F74
:1042180070BD51F8243040F82430FFF7C5FF013451
:10422800EDE700BF00E0014028B139B10023C1E942
:1042380000301846704748F21050704748F2135043
:10424800704730B1036848F240508B4208BF0020E5
:10425800704748F21050704728B148F21150914207
:1042680008BF0020704748F21050704770B50646E6
:104278000C461D46FFF7D8FF50B9B3794AB1AB4297
:104288000AD111462046FFF75BFB08B9044B2360AF
:1042980070BD48F21050FBE748F21150F8E700BF34
:1042A8007052464D2DE9F0470C4605461449204604
:1042B800DDE9088916461F46FFF7C3FF80B9636822
:1042C8005A79494652004046FFF7C6FF40B99EB1A9
:1042D80045B94FF4DA700B49FDF7BAFE48F21550AC
:1042E800BDE8F087CDF820803B4632462146284677
:1042F800BDE8F047FFF734BB48F21050F0E700BFC5
:104308007052464D18A90F0010B5044638B149B18E
:104318000B684160984708B9044B236010BD48F208
:104328000150FBE748F21050F8E700BF6E524648CC
:10433800F0B4134648B10768094EB7420AD161B1D3
:104348002AB14368F0BC5B68184748F20153184625
:10435800F0BC704748F20253F9E748F21053F6E709
:104368006E524648F0B460B107680C4EB7420CD1A3
:1043780071B143681568DC68A5420CD3F0BC9B6832
:10438800184748F20150F0BC704748F20250FAE76B
:1043980048F21350F7E748F21450F4E76E524648D3
:1043A800F7B50446DDE9086715460193FFF7ACFF4A
:1043B80068B9019A29462046FFF7BAFF38B93A4644
:1043C8003146204603B0BDE8F040FFF7CBBF03B04D
:1043D800F0BD0000F8B50A4F0A4C0B4EE41B012350
:1043E800E40833700025A54203D10223337000206E
:1043F800F8BD57F8353098470028F9D10135F2E76C
:104408009C980F00A4980F00E07D002038B50D4659
:10441800044618B908493320FDF71AFE691E2144DD
:104428002046814200D238BD03780A7800F8012B73
:1044380001F80139F5E700BFA5A90F0070B50D46D1
:104448001446064618B90A494520FDF701FE1DB96C
:1044580007494620FDF7FCFD621E3244013DB24289
:1044680000D270BD15F8013F02F80139F7E700BF27
:10447800A5A90F0070B5164604460D46FFF7DEFFE6
:104488003246A919A019BDE87040FFF7D7BF38B563
:104498000D460446FFF7BAFF29466019BDE83840C3
:1044A800FFF7B4BF08B510B1012805D008BDBDE8B5
:1044B80008400120FFF7CCBBFDF73EF90028FBD1EF
:1044C800F4E7000008B5FDF75BFBFDF735F90028B8
:1044D800FBD10D4D642445F001054FF47A40A847FF
:1044E800013CFAD1094BD3F8F020D20700D500BE21
:1044F800BFF34F8FD968064A01F4E0610A43DA60D6
:10450800BFF34F8F00BFFDE700AB0F0000ED00E0E9
:104518000400FA0507B50B46064C07490092641AD1
:10452800E40824040246054944F00100FDF781FA35
:10453800FFF7C8FFB8980F00B8980F0074AA0F00CB
:1045480008B50246054B064806491B1ADB081B043A
:1045580043F00100FDF75AFAFFF7B4FFB8980F00CF
:10456800B8980F00ABAA0F0010B54FF48051002087
:1045780000F07CFB08B1FFF7E3FF1548C0F57E218A
:1045880000F074FB01460028F5D11248124CFDF7E3
:1045980081F8FCF7A9FF114B1149E41AE408240437
:1045A80044F00300FDF72EFA0E4800F0F3F9002856
:1045B800E1D1FDF7C1F80028FBD10B4944F0010017
:1045C800FDF720FAFDF7B8F80028FBD1D3E700BFC4
:1045D80000100F00E14F0F00B8980F00B8980F00B7
:1045E800C6AA0F00AD440F00D2AA0F0038B1054B80
:1045F8000360054B436001230372002070470E20BF
:10460800704700BF3B460F0015460F0069B10B7895
:10461800022B0CD1022804D0032814BF0820112033
:10462800704703230B70002070470E207047082046
:10463800704710B50C4681B10B78012B06D00ED906
:10464800033B012B94BF0820112010BD02F0ACFCE5
:104658000028FAD102232370F7E70E20F5E7082097
:10466800F3E7000070B5144B144A0C21D21AB2FBC0
:10467800F1F2816911F8025C044635B9006900213C
:10468800914205D1012323600EE04FF0FF30F6E799
:104698001E68AE420CD1461C07D19D68D4E90001C2
:1046A800D4E90223A847206070BD5E688642F4D032
:1046B80001310C33E4E700BFAC980F00B8980F0045
:1046C8001EF0040F0CBFEFF30880EFF30980FFF72B
:1046D800C9BF00BF0369C26893429CBF80681B18AA
:1046E800013B981A70472DE9F843D0E90294054632
:1046F800A9EB04084068904520440F46144404D9A7
:1047080005F01AF8EC60BDE8F8834246A4EB09040A
:1047180005F012F86868224607EB0801F0E72DE972
:10472800F843C5680646894617464FF000083469BD
:10473800B3687068A54228BFE418013C621B5C1B83
:10474800BC4228BF3C46944228BF144649462844E8
:10475800224604F0F1FFB3682544AB4208BF0025A8
:104768003F1BA044A144F560E1D14046BDE8F88371
:1047780010B5114C114AA2610223C4E90433104B4D
:10478800E361A2644FF480530E4A0F492362E26446
:1047980000231022E01DA3626362E362A3656365E0
:1047A800E365226505F024F80849204605F020F85D
:1047B8002023A37110BD00BFE47D002006AB0F00CD
:1047C8006C7E00205C7E00200FAB0F0013AB0F0047
:1047D80070B5164B182400FB04451D4404FB003338
:1047E8001646DC6A012C0ED0022C18D0E4B92846F3
:1047F800FFF770FF864204D832462846FFF773FF5A
:104808003446204670BD2846FFF764FF864234468A
:1048180028BF044622462846FFF765FFF1E72846E9
:10482800BDE87040FFF77BBF0024EAE7E47D002085
:10483800FFF79EBF41DF7047014B01221A70704796
:104848008C9200200268530910B5044618D0012B39
:104858004FF6FF7318BF002302F01F02D340DB0797
:1048680004D409494FF4F670FDF7F2FB23681F2BB7
:1048780083BF03F01F03054823604FF0A04010BD1D
:104888004FF0FF33E8E700BF9CA50F00000300507E
:1048980008B5FDF775F9FCF74FFF0028FBD1BFF30A
:1048A8004F8F0549054BCA6802F4E0621343CB6099
:1048B800BFF34F8F00BFFDE700ED00E00400FA05ED
:1048C80008B50948094B0A49C01AC008000440F055
:1048D8000400FDF797F8074B074800221A70BDE857
:1048E800084002F007BB00BFB8980F00B8980F0047
:1048F8001AAB0F008C92002099480F0008B50748A2
:10490800074B0849C01AC008000440F00300FDF72F
:1049180079F8BDE80840FFF7D3BF00BFB8980F008B
:10492800B8980F0030AB0F00042810B5044609D81A
:1049380002280DD812D00B4B1B6893B12046BDE856
:1049480010401847831F012BF5D8FFF7B9FFF2E78E
:1049580005494FF4701000F0FFFAECE702F0C2F9D5
:10496800E9E710BD9092002005490F0008B50648F8
:10497800064B0749C01AC008000440F00400FDF7C0
:1049880041F8002008BD00BFB8980F00B8980F0084
:1049980044AB0F00F7B57B4B7B4C7C49E41AE40829
:1049A800240444F0040605463046FDF72BF8784BFE
:1049B80068461D6019230093FFF744FF009B754A62
:1049C80003F5E07340F82320002002F0A9FA00283C
:1049D80040F0D28000F06EFC012800F0C68002286A
:1049E80000F0CD80002840F0C7804FF08043D3F816
:1049F800005415F4803553D04FF48032C3F80024A6
:104A08000546654F3B6A012B58D0644944F00300C2
:104A1800FCF7F8FF62493046FCF7F4FF4FF47014D6
:104A280000F082FD5F4A20211820FDF7DDF908B16A
:104A3800FFF786FD4FF08043D3F81C2502F0F902FA
:104A4800B12A02BFD3F81C2502F04E02C3F81C2578
:104A5800514B9A6D012A06D10020986502F0F4F9AD
:104A680008B1FFF76DFDFFF781FF002840F0848053
:104A780020464D4900F070FA4C4800F0CFFE00285F
:104A88007AD14B493046FCF7BDFF00F093FDFDF7A6
:104A980037FAFCF751FE0028F7D1FFF7CBFEF4E711
:104AA800D3F8202502F0F902A92A03BFD3F820255C
:104AB80002F05602C3F820250125A2E74FF440531F
:104AC8005A683C4B9A420FD17A6B1DB997F86032FD
:104AD800012B09D038484FF4805103F079F818B900
:104AE800364944F0020093E702F03EFBBA690146FA
:104AF8001DB997F8A132012B05D0314803F068F8A9
:104B080008B93049EDE730493046FCF77BFF1923F7
:104B180001A80193FFF796FE019AD0F81035D3400B
:104B2800DB0701D4294976E74FF08043D3F81C35D9
:104B380003F0F903B12B01D125496CE7BB6D012BBB
:104B480001D1244967E702F067FAA8B9224D287015
:104B5800224802F0CFF92B7823B9214940F20620E8
:104B6800FDF776FA00F040F801E0FFF7A9FE1D49CD
:104B780044F00100FCF746FF032003B0F0BD4FF4FA
:104B8800A0244DE7B8980F00B8980F005EAB0F004F
:104B9800909200200C00030064AA002075AB0F005F
:104BA80013AC0F006C8E002005490F0031490F002F
:104BB800AEAC0F00DBE5B151C4AC0020A3AB0F00D5
:104BC80005AD0020DEAB0F0006AC0F0036AC0F00C1
:104BD80055AC0F0076AC0F008C92002041480F00B6
:104BE800BEAC0F00A2AC0F0037B5184B184C194DCE
:104BF8001949E41AE408240444F004004FF48052EC
:104C08000190FCF703FFD5F8802014490198FCF7C0
:104C1800FDFE4FF0FF33C5F88030C5F88031C5F888
:104C28008430C5F8843101F015FD20B10C4944F0F9
:104C38000100FCF7E7FEFCF77FFD0028FBD14FF4ED
:104C4800805003B0BDE8304000F032B8B8980F008B
:104C5800B8980F0000E100E04DAD0F0083AD0F00E4
:104C6800ADAD0F0080F308880847000070B5054611
:104C7800C1F30B00A8B9B5F57F2F12D80B4E3268D7
:104C8800072A10D8130103F1804404F5F0340132E7
:104C9800C4F80058C4F804180221C4F8081832608F
:104CA80070BD0720FCE70420FAE700BF94920020BB
:104CB80038B504462648C0F57F21FFF7D7FF0546DB
:104CC80068B12448244B25491B1ADB081B0443F010
:104CD80001002A46FCF79AFE2846FFF731FC02F04D
:104CE80043FA1F4B9B6903F6FF7323F47F6323F09A
:104CF8000F0319180020FFF7B9FF054668B11548DA
:104D0800154B18491B1ADB081B0443F001002A46FF
:104D1800FCF77CFE2846FFF713FCEFF3058200231F
:104D2800D4E9005483F3148883F3108883F311883B
:104D380083F31388C2F308021AB10B495820FDF710
:104D480087F921462846BDE83840FFF78BBF00BFEA
:104D580000100F00B8980F00B8980F00E2AD0F00D0
:104D680064AA002019AE0F004DAE0F0073B5274B93
:104D7800064627481B1ADB081B040C463246254901
:104D880043F00400FCF742FEB4F1807F39D3224996
:104D98008F20FDF75DF96FF07F41A14228BF2146C2
:104DA8001E4B641AD3F80455631E942B96BF963491
:104DB800746074600D44347B25F07F4598BF963D40
:104DC800032C03D914497720FDF742F9134E04F553
:104DD800A8734FF4F86046F82350114B43F00103D1
:104DE8009847104BA200134400221A601B680193D5
:104DF800019B4FF4803303FA04F4C6F8044302B06D
:104E080070BD952CC7D804499020C2E7B8980F0008
:104E1800B8980F00ECAE0F0002AF0F000040024040
:104E2800C0AF0F00404102401FB518490B7853BB73
:104E38004FF08043A024D3F81824D2035CBF01228A
:104E48009A60134B0022C3F80021D3F800010390A5
:104E58000398C3F84021D3F8400102900298C3F8A0
:104E68004421D3F84401019001980A4880F824436A
:104E7800102444600220C3F8082501229A601A60B1
:104E8800C3F804030A7004B010BD00BF9C92002050
:104E98000040024000E100E0264B2DE9F743D3F83B
:104EA800042152B124490A6801320A600022C3F879
:104EB8000421D3F804310093009B204D204B214C52
:104EC800214EDFF89080DFF86C90204FED1AED0846
:104ED8002D0445F004053368CBB1002333603368F3
:104EE8000193224641462846019BFCF78FFD227B11
:104EF80017494FF480339340C9F8083322462846AF
:104F0800FCF784FD616851B12046FFF72FFF043696
:104F1800BE4204F11004DED103B0BDE8F083A168FD
:104F280011B12046FFF722FF2368002BEFD09847E6
:104F3800EDE700BF0040024098920020B8980F00AB
:104F4800B8980F009459002040410240484102405F
:104F5800AEAF0F009CAF0F00F8B5114B114E0446D1
:104F6800114837681B1ADB081B043A4643F0040053
:104F78000D460E49FCF74AFD3A7B4FF480339340C7
:104F88000B4AC2F808334CB13668FFF74DFF35605D
:104F980021463046BDE8F840FFF7E8BEF8BD00BF3F
:104FA800B8980F00B4590020B8980F009CAF0F00B4
:104FB8000040024070B5074B1D6804460E46A860C5
:104FC800FFF732FF2E6021462846BDE87040FFF704
:104FD800CDBE00BFB8590020034A044B1068D3F86F
:104FE800043503EB006070479892002000400240AF
:104FF800014B01221A7070479D920020224BDA6AF9
:10500800AC2A2DE9F3415F6A9D6C1FD15B6B1D448F
:10501800FF1A1E4B1E4E1F4A1F490097F61AF60824
:10502800360446F004082B464046FCF702FD1948B2
:105038003A46294604F049FB044668B917494046F0
:10504800FCF7E0FC204602B0BDE8F081002DE0D17D
:1050580002F09EF80546DCE711493B462A464046E1
:10506800FCF7DDFCFCF768FB0028FBD100F0A2FA96
:105078003946284601F0D0FA04460028E2D009490A
:1050880046F00100DCE700BF64AA0020B8980F00D2
:10509800B8980F0000100F00C6AF0F00FBAF0F004D
:1050A80032B00F005FB00F002DE9F04F3C4B1646B1
:1050B8003C4A9B1A87B0DB081B04814205460F4611
:1050C800049343F0040B08D137495846FCF79AFC7F
:1050D8000024204607B0BDE8F08F03D233494F20A3
:1050E800FCF7B6FF36B1C5F30B031BB12F495320AC
:1050F800FCF7AEFF7B1BB3F5805F4FEA133403D296
:105108002A495720FCF7A4FF00F00EFA082C28BF04
:10511800082406F6FF7923034FEA19390394059307
:105128000EB93446D5E7039B4B453ABFDDF80CA0D2
:10513800DDF81480CA464FF000025146284628BFC1
:10514800B04601F023FA04460028C2D11849CDF828
:1051580000802B463A465846FCF76BFC08F10302E0
:10516800234622F003023946284601F0D1F90446C5
:105178000028AED10F4A136B4344136301F0C0FEFD
:10518800A9EB0A09A6EB080645444744044600284B
:10519800C6D0049B084943F00100FCF733FC98E7AC
:1051A800B8980F00B8980F0079B00F0088B00F00BA
:1051B80025B10F0064AA002046B10F002DE9F7437E
:1051C80001F0F6FF314C324BDFF8E4903149D9F861
:1051D8004860D9F83080D9F83450E41AE408240437
:1051E800074644F004000190FCF70CFC06F5005358
:1051F80001985A68284B9A4209D0284944F001007E
:10520800FCF700FC0325284603B0BDE8F083D9F875
:105218003030AB421E4404D12149FCF7F3FB002592
:10522800F1E7C3B94FF440521178142982BF1D49E0
:105238005269B2FBF1F206F5005198BF1A4691F88F
:1052480000C0BCF1140F82BF4969164BB1FBF3F3E0
:105258001549FCF7E4FBA5EB080202F6FF7222F4FD
:105268007F6222F00F02314607EB0800FFF71CFFB0
:10527800054628B10D4944F00100FCF7C3FBC2E71D
:1052880003B0BDE8F04301F03BBE00BFB8980F0083
:10529800B8980F007FB10F00DBE5B151A4B10F0042
:1052A800D8B10F0040420F00EAB10F0013B20F004F
:1052B80064AA00202DE9F047624B634D634E6449B0
:1052C800ED1AED082D0445F004073846FCF79AFB63
:1052D800F36AAA2B00F09A800CD8012B22D0A52BB8
:1052E80000F0888045F003005A49FCF78BFB00204A
:1052F800BDE8F087AC2BF5D157493846FCF782FB5F
:1053080056493846FCF77EFBFFF758FF044600284D
:1053180000F08680524945F00100FCF773FB4FF01E
:10532800010823E04F493846FCF76CFBD6F8249077
:10533800D6F848A001F018FF346B4B4900EB04087D
:105348003846FCF75FFB316B5144884514BFA9EB25
:10535800040200224046FFF7A7FE044670B1434905
:1053680045F00100FCF74EFB4FF00008F36A404996
:10537800224645F00100FCF752FB13E001F0F4FE71
:1053880022464946FCF748FEB26A904280462AD136
:1053980038493846FCF736FB0123C6E90783C6F8C7
:1053A8001890A0463448DFF8F49001F0D1FE0023AD
:1053B800324889F8003001F0A3FD99F8003004461E
:1053C80023B92F4940F2A510FCF742FE8CBBB8F177
:1053D800000F35D0336A012B32D138462949FCF702
:1053E80011FB022084E70346274945F00100FCF73A
:1053F80016FBD6E725493846FCF704FBFFF7DEFE27
:105408004FF001080446002CCCD0AFE720493846BD
:10541800FCF7F8FAFFF7F2FD4FF000080446F2E750
:10542800FFF7ECFD044608B11A4974E74FF001088C
:10543800B8E745F001001849FCF7E4FA032057E7FC
:10544800012055E7B8980F00B8980F0064AA00200B
:105458002CB20F0038B30F00E1B20F00EFB20F000B
:105468000CB30F004DB20F0057B20F0013B20F006C
:1054780051B30F0072B20F0088AA0020F94F0F0035
:1054880088B00F0083B30F0087B20F00CFB20F00B0
:10549800D8B20F0022B30F00DFB30F009D92002097
:1054A8000A4AD2F800347BB109480023D2F808151B
:1054B800D940C90748BF03F5C07103F1010348BFCC
:1054C80042F82100072BF1D1704700BF00000140CE
:1054D8003546526E08B50748074B0849C01AC00838
:1054E800000440F00300FCF78DFABDE80840FFF720
:1054F800D7BF00BFC8980F00B8980F00F9B30F00C6
:1055080007B5084B0022C3F80021D3F800310193F6
:10551800019BFCF735FBFCF70FF90028FBD103B022
:105528005DF804FB0000014037B5194D2B784BBBE3
:1055380018481949194B401AC008D3F80024000428
:1055480040F0030002B3D3F8044515490190224600
:10555800FCF75CFA40F616529442B8BF1446A4F51C
:105568004864FFF79DFF01980E492246FCF74EFA62
:105578000D492046FFF71EFD0C4B4FF480321A6090
:1055880001232B7003B030BD0949FCF73BFAF7E75C
:105598009E920020C8980F00B8980F0000000140A4
:1055A80007B40F0020B40F00DD540F0000E100E045
:1055B80052B40F00034BD3F800340BB1FFF770BFA0
:1055C800704700BF000001404FF08053D3F830010E
:1055D800A0F1080358425841704700004FF080532B
:1055E800D3F83021082A06D1D3F83431052B02D854
:1055F800024AD05C70470020704700BF7EB40F009D
:10560800024AD2F80034002BFBD0704700E001407A
:1056180010B5FFF7D9FF40B14FF080430022C3F81F
:105628000C21C3F81021C3F83825FFF7CDFF002857
:1056380046D04FF08052654BD2F80414C3F82015B9
:10564800D2F80814C3F82415D2F80C14C3F8281596
:10565800D2F81014C3F82C15D2F81414C3F8301566
:10566800D2F81814C3F83415D2F81C14C3F840152E
:10567800D2F82014C3F84415D2F82414C3F84815F6
:10568800D2F82814C3F84C15D2F82C14C3F85015C6
:10569800D2F83014C3F85415D2F83414C3F860158E
:1056A800D2F83814C3F86415D2F83C14C3F8681556
:1056B800D2F84014C3F86C15D2F84424C3F8702506
:1056C800FFF78CFF18B1424B424AC3F88C26FFF70C
:1056D80085FF18B1404BFB22C3F81825FFF77EFF62
:1056E80070B14FF080414FF08053D1F8E42ED3F8D9
:1056F800583222F00F0203F00F031343C1F8E43EBF
:10570800FFF76CFF20B1354B4FF40072C3F8402609
:10571800FFF75AFF48B14FF08043D3F80024D2076F
:1057280044BF6FF00102C3F800242D4AD2F8883034
:1057380043F47003C2F88830BFF34F8FBFF36F8F05
:105748004FF08053D3F83021082A0ED1D3F83431E2
:10575800052B02D8234AD35C3BB14FF01023D3F872
:1057680008224FF08043C3F858254FF01023D3F890
:105778000022002A03DBD3F80432002B22DA1A496C
:1057880001234FF01020C1F804351224FFF738FF29
:10579800C0F80042FFF734FFC0F80442FFF730FFBB
:1057A8000023C1F80435FFF72BFFBFF34F8F0C49D7
:1057B8000E4BCA6802F4E0621343CB60BFF34F8F0D
:1057C80000BFFDE70A4B0B4A1A6010BD00C000403D
:1057D800005000404881030000F000400090024063
:1057E80000ED00E078B40F0000E001400400FA0585
:1057F800BC5900200090D003831F012B10B504462C
:1058080002D8002001F06AFC034B1B681BB120463C
:10581800BDE81040184710BDA092002038B5104BC5
:10582800104C1860104B1149E41AE408240444F0A1
:105838000300FCF7E7F80020FFF7DEFF0C4801F053
:1058480013FC054620B9BDE83840094801F0C0B945
:105858000246084944F00100FCF7D8F8284638BD4C
:10586800A0920020B8980F00B8980F0038B60F0023
:1058780001580F004BB60F006CDF70476DDF7047A3
:1058880072DF704773DF704774DF704775DF7047EA
:1058980076DF70477ADF70477CDF70477DDF7047BF
:1058A8007FDF704786DF70478FDF704790DF704774
:1058B800A8DF7047AADF7047ADDF7047AEDF7047DB
:1058C800B0DF7047B1DF7047B5DF704762DF704700
:1058D80066DF704713DF704710B5094B0949044666
:1058E80009481B1ADB081B04224643F00400FCF796
:1058F8008DF821460548BDE81040FCF729BD00BFDA
:10590800D0980F0075B60F00B8980F003C990F009B
:1059180070B518228CB00DEB0200002103F035FFA2
:10592800282308932348244B2449254CC01AC0082F
:105938000004012540F004008DF818508DF82D5012
:10594800FCF760F81623ADF806300023CDE90333E1
:105958000593022306222370237159230926A27076
:1059680063710322FE236570E270A3710DF10601D5
:10597800A0190294ADF80C60FFF790FFB8B9BDF814
:10598800063026725A19E271BDF80C200D4C1344EA
:1059980002A906AA2046ADF80C30FFF771FF30B90E
:1059A8002078FFF771FF20782946FFF76BFF0CB0CE
:1059B80070BD00BFD0980F00B8980F0087B60F00D1
:1059C80022A30020C0590020F0B50388242B8FB0F3
:1059D800044651D80BB90FB0F0BD013B232BFAD8C0
:1059E80001A252F823F000BFE15D0F00DF590F005C
:1059F800DF590F00DF590F00DF590F00DF590F0083
:105A0800DF590F00DF590F00DF590F00DF590F0072
:105A1800DF590F00DF590F00DF590F00DF590F0062
:105A2800DF590F00B15A0F00F55A0F00995C0F00AB
:105A38004D5C0F00F15E0F00DF590F00DF590F00BA
:105A4800DF590F00DF590F00DF590F00135F0F00F8
:105A5800DF590F00DF590F00DF590F00DF590F0022
:105A6800D55C0F00DF590F00335D0F00155D0F0087
:105A7800015C0F002F5C0F00503B9AB2062AAAD88F
:105A8800062BA8D801A252F823F000BF235B0F0011
:105A9800ED5D0F00135F0F00DF590F00DF590F0096
:105AA800A95B0F005B5D0F00AF4BB04DB049B14E25
:105AB800ED1AED082D0445F00400FBF7A3FFA388B9
:105AC8003380AD4B1B680BB101209847AB49308838
:105AD800FFF7DCFE024600283FF47DAFA84945F0F9
:105AE80001000FB0BDE8F040FBF790BFA14B4FF6A7
:105AF800FF721A80A34B1B685A0704D4FFF708FFEC
:105B080008B1FEF71DFD9C4B1B68002B3FF463AFEB
:105B180002200FB0BDE8F04018479B4FE288BB88D1
:105B28009A427FF458AF9948904DFCF7E5FB8E4BAD
:105B3800ED1AED082D04064638B9954945F00200DE
:105B48000FB0BDE8F040FBF75DBFF4230093238A54
:105B58009049024645F00400FBF76BFF228A04F1E6
:105B68001201304603F0E8FD1822002108A803F0CE
:105B78000CFE08238DF82030874B0A93874B099732
:105B8800CDE90B3608A8238AADF8343001F000F8C7
:105B980000283FF420AF7D483146FCF7D9FB1AE7CF
:105BA800E288F62A24D8D31E9B0723D0D31F9BB2A2
:105BB800013B594201F0030103F0030302F1FF34F2
:105BC80058BF4B42E31A9CB2674B68487449C01AE5
:105BD800C0080004234640F00400FBF720FF654B93
:105BE80021461888FFF770FE00283FF4F4AE88E0DD
:105BF800F724E9E71446E7E75B4B5C486949C01AB4
:105C0800C008000440F00400FBF7FCFE0022A08856
:105C180008A9CDE90822FFF749FE00283FF4DBAECA
:105C2800FEF78EFCD7E6504B504862895E49C01A91
:105C3800C008E389000440F004000FB0BDE8F0405C
:105C4800FBF7EDBE484B494C58494A4DE41AE40865
:105C5800240444F004042046FBF7D4FE02230893EE
:105C6800288806AB08AA42F605210993FFF724FE07
:105C780008B1FEF765FCBDF818204D492046FBF732
:105C8800C5FE002328881A468521FFF709FEC4E7C8
:105C9800354B36484749C01AC008000440F0040094
:105CA8000390FBF7AFFE628943490398FBF7AEFE0A
:105CB800228942490398FBF7A9FEA2894049039823
:105CC800FBF7A4FEE2893F4903980AE7264B274DD4
:105CD8003D49ED1AED082D0445F00400FBF792FE4E
:105CE800244B04F108011888FFF7D0FD044600286A
:105CF8003FF471AE0246354945F00100FBF786FED8
:105D080020460FB0BDE8F040FEF71ABC164B174806
:105D18002F49C01AC008237A00930004637AA27A34
:105D280040F00400FBF785FE55E60F4B0F48294964
:105D3800C01AC008000440F00400FBF763FE00230B
:105D4800A0888DF8203008A98DF82130FFF7ACFD28
:105D580063E7A379002B7FF43EAE064B1321188826
:105D6800FFF796FD40E700BFB8980F00D0980F00E6
:105D780096B60F00C259002048A3002006BC0F00A9
:105D8800A0B60F0044A300200EA300203C990F00EA
:105D9800CEB60F00EDB60F0055600F00E1580F00AA
:105DA8000DB70F0053B70F0084B70F00C2B70F002D
:105DB800EAB70F000DB80F0034B80F004AB80F004B
:105DC80060B80F0072B80F0087B80F00B6B80F00A0
:105DD800EBB80F0025B90F00554B00211888FFF7C5
:105DE80077FD01E7A379002B3FF4F5AD022B7FF493
:105DF800F2AD504D2189AA8991427FF4ECADA27B86
:105E0800012A7FF4E8AD4FF480320992228A484E85
:105E1800ADF82820628AADF82A2004F114020B920A
:105E280005AF298A3088089306AA06930797FFF7D3
:105E380043FD60B9384602F091F940B940F2FD13CC
:105E48003088ADF8243008A9FFF73AFDC3E50023F0
:105E580008A93088ADF82430FFF732FD0146002844
:105E68007FF4B9AD182208A803F08FFC237D324ACD
:105E78008DF82030022B09950A9224D0062B10D0D9
:105E8800012B10D12D4B1A882D4B1A80637DD4F825
:105E980016200C93012B0D9205D12A4801F01EF90A
:105EA80001E0637D0C9308A800F072FE00283FF41F
:105EB80092AD254A254B26499B1ADB081B0402464E
:105EC80043F001000DE6204B20482249C01AC008C3
:105ED800000440F00400FBF795FD184AB4F81530AB
:105EE8001380174A1380DEE7174B18481A49C01A5F
:105EF800C008000440F00400FBF784FD0023A088DC
:105F08001A461946FFF7CEFC6EE60023A0881A460B
:105F18001946FFF7D7FC08B1FEF712FB0B480A4BEE
:105F28000E49C01AC008000440F0040008E600BF8B
:105F3800C25900200EA3002055600F004CA300207A
:105F48004EA30020A4980F00B8980F00D0980F0017
:105F580060B90F004EB90F0094B90F00BAB90F001D
:105F680070B5204E346814F0010432D01E4B9842AC
:105F780036D01E4B1E4D1F4C1F49ED1AED082D043F
:105F880045F004052846FBF73DFD22884FF6FF73D0
:105F98009A4220D019492846FBF734FD33682088F7
:105FA80043F0040313213360FFF772FC044680B901
:105FB800134EC82446F001064FF47A40B047013C1E
:105FC800FAD1FDF715FF044618B90E492846FBF724
:105FD80019FD204670BD0C4B1878FFF755FCF0E70B
:105FE8000024F6E744A30020A4980F00B8980F00F7
:105FF800D0980F00C2590020DCB90F00F9B90F0082
:1060080000BC0F0008BA0F00C05900207FB500235C
:10601800CDF80B308DF80F300A4BADF806109B8980
:10602800ADF8083001238DF80A300DF10603CDE9EB
:106038000430054B02A91888FFF740FC07B05DF84B
:1060480004FB00BF0EA30020C259002030B50D4646
:1060580087B0044620B9464940F28710FBF7F8FF9D
:1060680025B943494FF4C470FBF7F2FF00210D2214
:1060780002A8019103F089FB2378082B0BD13D4A34
:106088003D4913880988013B9BB2138031B32BBB70
:10609800032311802370637822788DF8052060210E
:1060A800012B8DF804108DF8063019D03349344887
:1060B800401AC0080004334940F00200FBF7AFFC67
:1060C80063780B2B12D100F09DFA8DF807000020A1
:1060D80000F092FA042101A8FFF798FF07B030BD3D
:1060E800062A05D0082A29D0032A27D00321F2E757
:1060F800E1688DF80710D4E90123080A8DF8080033
:10610800080C090E8DF80A10110A8DF80B208DF86D
:106118000C10110C120E8DF80E201A0A8DF80F3083
:106128008DF810201A0C1B0E8DF80D108DF8090033
:106138008DF811208DF812300F21CCE7D4E9012316
:10614800110A8DF807208DF80810110C120E8DF821
:106158000A201A0A8DF80B308DF80C201A0C1B0E29
:106168008DF809108DF80D208DF80E300B21B2E74F
:1061780021BA0F004EA300204CA30020B8980F00AE
:10618800D0980F00B5BA0F002DE9F041054694B03C
:1061980020B9404940F24F40FBF75AFF3E4B4FF6BB
:1061A800FF721A8001204FF659632A4602A98DF81A
:1061B8000A00ADF80830FFF77BFB0446002865D1DC
:1061C800364B04AA03F11007164618685968144696
:1061D80003C40833BB422246F7D1A91C3046FFF757
:1061E80075FB0446002851D101461C220DA803F076
:1061F800CCFA9DF834308DF8044043F004038DF850
:1062080034300223ADF80C30AB788DF80E30032310
:106218008DF80630F423CDE90A44ADF82C302B462E
:106228004FF0110833F8040B0C9403AF01AE08AA21
:106238000DA98DF8058008970996FFF73BFB0446E2
:1062480020BB01461C220DA803F09FFA18238DF8E5
:1062580034300123ADF80C30AB788DF80E301323B1
:106268008DF806301723CDE90A44ADF82C302B46BB
:1062780008AA33F80C0B8DF804400DA90C94CDE94D
:1062880008768DF80580FFF715FB0446204614B004
:10629800BDE8F08121BA0F00C2590020ECBB0F0005
:1062A800F0B5524E336813F0010485B0074640F04C
:1062B8009B804F4B4F4D5049ED1AED082D0445F08A
:1062C80004052846FBF79EFB4C4B4D481F60FBF727
:1062D800D5FF029400F0B1F90446002873D1494A69
:1062E80049492846FBF792FB4648FFF7F3FA04466C
:1062F800002868D145492846FBF784FBFDF73AFD9D
:10630800044600285FD102A8FDF706FE04460028CF
:1063180059D13F492846FBF775FB02A90120FDF733
:1063280005FE044600284ED13A492846FBF76AFB89
:1063380002A8FDF7CBFE0446002844D100F05CFE1D
:10634800002843D0344800F04BFE336843F0020382
:106358003360112302A88DF80430FFF78FFA044642
:1063680088BB9DF8093002A801338DF80930FFF782
:1063780083FA044638BB33689B072CD5264C27493B
:10638800A3692846221DFBF74AFBA069211D82B29A
:1063980001A8FFF781FA0446A8B92148FFF77AFA5D
:1063A800044680B91F48FFF7EFFE044658B9FFF7C7
:1063B800AFFA044638B933681B4943F0010328464D
:1063C8003360FBF71FFB204605B0F0BD1749284690
:1063D800FBF718FBBDE716492846FBF713FB1548E2
:1063E80003F028FA1349D2E70024ECE744A300207D
:1063F800B8980F00D0980F00E4BA0F0048A3002007
:106408003C990F0000100F0003BB0F0023BB0F00C7
:1064180038BB0F004FBB0F00A492002081BB0F00B8
:1064280006BC0F000EA30020C1BB0F0067BB0F0006
:10643800A2BB0F00DCBA0F0030B51A490B6885B053
:1064480004460BB1013B0B601748184A636825786E
:10645800121AD208120442F004008BB90B68144ACD
:1064680014490093012D08BF0A46A3681249FBF797
:10647800E0FA63699BB1E06805B0BDE830401847B1
:106488000A68029222690192A2680A490092084A9F
:10649800012D08BF0A460949FBF7E5FAE9E705B007
:1064A80030BD00BF50A30020B8980F00D8980F0047
:1064B80014BC0F000EBC0F001ABC0F0040BC0F002C
:1064C80008B502460B4B0C481B1ADB081B0443F0AB
:1064D80004004AB10949FBF795FA09490948BDE89A
:1064E80008400022FCF772B90749FBF78BFA074905
:1064F800F4E700BFD8980F00B8980F007CBC0F00D5
:10650800E49E0F0078590020A2BC0F00B89E0F002F
:106518002DE9F7439846174C174BDFF86C90E41AAF
:10652800E408D9F800302404CDE9002305460B46D9
:106538000E4617461149024644F00400FBF785FA57
:1065480029460F48CDF800803B463246FCF756F9FD
:10655800054640B9D9F800300133C9F8003028465B
:1065680003B0BDE8F0830246064944F00200FBF799
:106578004DFAF4E7D8980F00B8980F00CABC0F007E
:10658800785900200DBD0F0050A300202DE9F341DC
:10659800134B144C144FE41AE4083B68009324048A
:1065A80005460B460E4690461049024644F0040044
:1065B800FBF73FFA29460E4843463246FCF76EF988
:1065C800054630B93B6801333B60284602B0BDE858
:1065D800F0810246074944F00200FBF717FAF4E796
:1065E800B8980F00D8980F0050A300203ABD0F00AC
:1065F8007859002077BD0F00014B18700B207047A9
:1066080054A30020024B002218781A70704700BF6C
:1066180054A3002018DF704730B585B00546102216
:106628000C466846002103F0B0F8A40868460195B6
:106638000294FFF7EFFF05B030BD1FB50023CDE989
:1066480001330393684602230093FFF7E3FF05B085
:106658005DF804FB4FF000534FF480521A6000209D
:1066680070470000084B09480949C01A10B5C0080E
:10667800000440F00400FBF7C5F9064BBDE81040E4
:106688001B680620184700BFB8980F00E0980F0055
:10669800B2BD0F0060A300200A2803D90B38C0B28E
:1066A800FFF7AABF7047000070B5054686B0002006
:1066B800FCF730F90146A0B1274A18212846FBF714
:1066C800B7FB00283DD0254A254B26499B1ADB08F5
:1066D8001B04024643F0010006B0BDE87040FBF71A
:1066E80095B91822684603F050F804231C4C8DF81D
:1066F80000301A4B1C4EE41A1C4B1A6D3368E40820
:1067080024049A4244F004041DD119492046FBF799
:1067180079F9184B3168186801F066FC8DF80100AA
:10672800FFF7BAFFD5E901138DF8010068469847CD
:10673800114800F0E5FB9DF8012010492046FBF7C1
:1067480065F906B070BD01238DF801306846D5E9BA
:1067580001139847EFE700BFB1660F00B8980F0024
:10676800E0980F00E6BD0F0058A3002064AA00209F
:106778000FBE0F005CA300206D660F003EBE0F0029
:106788002DE9F041836888B0044623B9974940F25F
:10679800CF20FBF75DFC1822002102A802F0F5FFCC
:1067A8000123934E8DF80930924B22788DF80820FA
:1067B800F61AF6083604531E46F004050B2B00F2B1
:1067C800C581DFE813F02C000C002C002C00C3015D
:1067D8002C00C3012C00C301C301C3011100864969
:1067E8002846FBF70FF907E028468449FBF70AF922
:1067F800834B07201B6898479DF809208149284644
:10680800FBF704F9D4E9011302A898479DF8093069
:10681800012B00F085817A4B05201B687FE1062A51
:10682800794F01D0012A01D122693A703A78012AB8
:1068380009D0022A74D0754946F00100FBF7E2F846
:1068480000233B70C6E0072B64D8DFE803F004633D
:106858001443635B631E6E492846FBF7D3F8684B05
:1068680003201B689847606901F08CF8FFF714FF54
:106878008DF80900C0E767492846FBF7C3F8664B5F
:10688800DA6B1B6C03920493B6E7236923B9574963
:1068980040F21310FBF7DCFBA38A23B953494FF4EA
:1068A8008A70FBF7D5FB5D492846FBF7ABF8A18A50
:1068B800206901F07FF8FFF7EFFE574B8DF80900CC
:1068C800DA6B1B6C0493E3680392002B94D0206965
:1068D800984791E752492846FBF794F8514952489E
:1068E80001F0E6F8FFF7D8FE01288DF8090083D1FA
:1068F800002000F005FB08B94C4971E70A238DF820
:10690800093079E74A492846FBF77CF84FF40073C9
:106918000593B4E735494FF4BC70FBF799FB6BE777
:10692800072B00F20F81DFE813F008000D01CF00FC
:10693800DE000D01FE000D0195003E492846FBF7DB
:1069480061F801F067F830B93B4946F00100FBF700
:1069580059F80823D3E7626932B9384946F001008B
:10696800FBF750F80323CAE7C2F30B0343B12A4BE2
:106978002C495B6D096813448B4201D03049EDE71F
:10698800B2F5805F06D92F4946F00100FBF73AF8C7
:106998000423B4E7204F23497B6D0968D018884247
:1069A80006D9009146F001002749FBF742F8D0E7E5
:1069B8007A64FA6CBA641C4A3B6510683B6300222F
:1069C80001211844FFF7E2FD30B1204946F00100EB
:1069D800FBF718F8052392E7BB6C00933B6D7A6CC4
:1069E8001B492846FBF725F806E700BF66BE0F00DF
:1069F800E0980F00B8980F00FEBE0F0022BF0F00EE
:106A080060A300203EBE0F00C4590020BAC20F0088
:106A18003ABF0F0064BF0F0064AA002088BF0F00B0
:106A2800B1BF0F0058A300205CA30020DCBF0F00FB
:106A380001C00F002BC00F0052C00F0087C00F000D
:106A4800A0C00F00C1C00F00E5C00F0056C10F0065
:106A58006DC10F0041492846FAF7D4FF00F0DAFF6C
:106A680000283FF476AF3E4FA18AD7E914329B1A2B
:106A78007A6C0B44934201D93A496FE73A4A3B6B27
:106A88001268206903EB020807F14802FBF7C4FA11
:106A9800E368064623B935494FF4F870FBF7D8FA8E
:106AA800E368A28A21694046FFF732FD08B1E3682E
:106AB8000DE7A38A3A6BBE641A443A633A6D0496AA
:106AC80013443B65039397E6254E29492846FAF770
