:020000022000DC
:106000000000012019620200016202000362020026
:10601000056202000762020009620200000000003F
:106020000000000000000000000000000B62020001
:106030000D620200000000000F6202001162020007
:10604000E9D002001362020081D602009DED020039
:1060500013620200136202007DD502003DDA0200E5
:106060001362020013620200136202001362020054
:106070001362020013620200136202001362020044
:106080001362020099FF0200136202001362020011
:10609000D9FF020013620200B12D03001362020057
:1060A0001362020013620200136202001362020014
:1060B00013620200136202000000000000000000F2
:1060C00013620200136202001362020013620200F4
:1060D000136202001362020013620200000000005B
:1060E00000000000000000000000000000000000B0
:1060F00000000000000000000000000000000000A0
:10610000000000000000000000000000000000008F
:10611000000000000000000000000000000000007F
:10612000000000000000000000000000000000006F
:10613000000000000000000000000000000000005F
:10614000000000000000000000000000000000004F
:10615000000000000000000000000000000000003F
:10616000000000000000000000000000000000002F
:10617000000000000000000000000000000000001F
:10618000000000000000000000000000000000000F
:1061900000000000000000000000000000000000FF
:1061A00000000000000000000000000000000000EF
:1061B00000000000000000000000000000000000DF
:1061C00000000000000000000000000000000000CF
:1061D00000000000000000000000000000000000BF
:1061E00000000000000000000000000000000000AF
:1061F000000000000000000000000000000000009F
:10620000FEE7FEE7FEE7FEE7FEE7FEE7FEE7FEE766
:10621000FEE7FEE700F002B8FFF7FCBF0F484FF0C3
:106220000701884385460E4880470E48016841F4BF
:1062300070010160BFF34F8FBFF36F8F00F01AB88A
:1062400009480A490A4A884207D0521A05D00378F9
:1062500001300B700131013AF9D170470000012083
:106260000597020088ED00E0F0420300D82A0020E4
:10627000D82A0020354936480A1A02D0072291430D
:106280008D46344934480A1A06D00722914381F3D7
:106290000988022282F3148830483149314A00F0DB
:1062A00044F831483149324A00F03FF83148324928
:1062B000324A00F03AF832483249334A00F035F8B1
:1062C00032483349334A00F030F833483349344ACE
:1062D00000F02BF833483449344A00F026F83448AB
:1062E0003449002200F02CF833483449002200F0F1
:1062F00027F833483349091A082902DB00220260D3
:106300004160314A90471F481F49884205D00268C2
:10631000043003B4904703BCF7E700208646EC4600
:1063200000200021294A9047FEE7884207D0521AF0
:1063300005D0037801300B700131013AF9D1704773
:10634000884202D002700130FAE770470000012055
:1063500000E0002000000120000001203065030063
:10636000D82A0020D02B0020D0630200D063020086
:10637000E441030030650300D82A0020D82A002019
:10638000F0420300F0420300F0420300F042030039
:10639000F0420300F0420300F0420300F042030029
:1063A0002F65030028660300D02B0020D02B00208F
:1063B000D02B0020A43F0020A43F0020A43F0020B9
:1063C000A43F0020A45F002041620200C9810200B6
:1063D00000B583B001900091019B002B01D1054BCA
:1063E00001930099019807F059FC0346184603B041
:1063F0005DF804FBA443030000B587B00190019B46
:106400001B78002B53D1019B5B681B88ADF81630BD
:10641000019B5B680121184607F042FD0490049B34
:106420000393039B002B04D0234A1E21039808F0FA
:106430005FFFBDF916304FF4167202FB03F3002B19
:1064400001DA03F2FF339B121A4613465B00134432
:106450005B001A46194B1A60184B1B68642202FB3A
:1064600003F3A3F52133883B9B08154AA2FB0323C2
:106470005B09DAB2134B1A70124B1B78142B94BFC2
:1064800001230023DAB20D4B1B6840F6D4018B4286
:1064900094BF01230023DBB21343DBB2002B03D0F4
:1064A000094B01221A7002E0074B00221A7000BF4C
:1064B00007B05DF804FB00BFF0420300D42B0020BE
:1064C0004FE0044ED82B0020D92B002000B589B016
:1064D0001B4A01AB07CA03C31A701A490020FFF711
:1064E00077FF0790079B0693069B002B04D0164A64
:1064F0003B21069808F0FCFE01AB1946002007F08E
:106500003DFC0790079B0593059B002B04D00E4A8A
:106510003E21059808F0ECFE01210C4807F0C0FC74
:106520000790079B0493049B002B04D0064A41214B
:10653000049808F0DDFE00BF09B05DF804FB00BF61
:1065400098430300F9630200F0420300D02B0020BF
:1065500076DF704700BF184677DF704700BF1846E8
:106560007ADF704700BF18467CDF704700BF1846CF
:106570007FDF704700BF18468FDF704700BF1846A7
:10658000B1DF704700BF184633DF704700BF1846C1
:1065900000B585B00190019B002B0AD0074B43F05A
:1065A00001030393019B9B010293039B029898476D
:1065B00000E000BF05B05DF804FB00BF004703002A
:1065C00000B583B00190019B1B68184600F0C0F82D
:1065D0000346002B04D105494FF4F67000F04CF946
:1065E0004FF0A043184603B05DF804FBA843030036
:1065F00000B585B00190084611461A4603468DF84D
:1066000003300B468DF8023013468DF8013001AB94
:106610001846FFF7D5FF03909DF803209DF8023040
:106620005B001A439DF801309B001A439DF8183017
:106630001B0242EA03019DF81C301B04019A194316
:10664000039B02F5E07243F8221000BF05B05DF82D
:1066500004FB00B585B00390002301930023009351
:106660000023012201210398FFF7C2FF00BF05B0FC
:106670005DF804FB00B585B003900B468DF80B3038
:106680009DF80B300022019200220092002200218E
:106690000398FFF7ADFF00BF05B05DF804FB00B540
:1066A00085B0019001AB1846FFF78AFF0390019B6C
:1066B000012202FA03F31946039800F035F800BFEF
:1066C00005B05DF804FB00B585B0019001AB18463C
:1066D000FFF776FF0390019B012202FA03F31946AC
:1066E000039800F02BF800BF05B05DF804FB00B57F
:1066F00085B0019001AB1846FFF762FF0390039845
:1067000000F00AF80246019B22FA03F303F00103AA
:10671000184605B05DF804FB82B00190019BD3F8E8
:106720001035184602B0704782B001900091019B6D
:10673000009AC3F8082500BF02B0704782B00190EC
:106740000091019B009AC3F80C2500BF02B070476E
:1067500084B00190019B5B09029300230393029B89
:10676000002B03D14FF0FF33039300BF019B03F0D5
:106770001F030193039A019B22FA03F303F0010321
:10678000002B14BF01230023DBB2184604B070476E
:1067900000B583B00190019B002B0AD04FF47A70B2
:1067A000FFF7F6FE019B013B0193019B002BF5D106
:1067B00000E000BF03B05DF804FB00B583B00190BA
:1067C000019B0433184607F0B9FE00BF03B05DF823
:1067D00004FB00B589B0059003921A460B468DF86C
:1067E000133013468DF8123000230793059B181DB4
:1067F0009DF812209DF813109DF828300093134641
:10680000039A08F0E1F90790079B184609B05DF874
:1068100004FB00B587B0039001921A460B468DF831
:106820000B3013468DF80A3000230593039B181D87
:106830009DF80A309DF80B10019A08F0EDF90590CB
:10684000059B184607B05DF804FB00B583B003460E
:106850008DF807300A20FFF7FCFE9DF80730002B6B
:1068600003D10A20FFF72FFF02E00A20FFF717FFEE
:1068700000BF03B05DF804FB00B583B00346009190
:10688000ADF80630BDF80630009A1946034808F006
:106890002FFD00BF03B05DF804FB00BFEFBEADDE0F
:1068A00000B585B009F09EFB0390039B0293029B09
:1068B000002B05D00D4A4FF48271029808F018FDA4
:1068C0000B4A01210B4809F0C1FB0390039B019384
:1068D000019B002B05D0054A40F20911019808F0F0
:1068E00007FD00BF05B05DF804FB00BFD8430300FF
:1068F000CD740200E446030000B587B09DF8003077
:10690000012262F303038DF800309DF8003001226C
:1069100062F307138DF800306B4606221C491846B7
:10692000FFF722FE0590059B0493049B002B05D0E6
:10693000184A4FF48E71049808F0DAFC01AB082273
:10694000002118460DF0ADF84FF4A073ADF80430F7
:106950004FF40273ADF806300023ADF808304FF461
:10696000C873ADF80A3001AB1846FFF7F9FD059082
:10697000059B0393039B002B05D0064A4FF49371AC
:10698000039808F0B5FC00BF07B05DF804FB00BF3A
:1069900068440300D843030000B583B00190054A62
:1069A00040F23311019808F0A3FC00BF03B05DF87A
:1069B00004FB00BFD843030000B587B00190019BE2
:1069C0001B78002B44D1002305932BE0019B1A690F
:1069D000059B13441B78184609F020FC0490049B87
:1069E000002B19D0049B112B16D01B4A1B4BD31A1A
:1069F000DB081B0443F00103049A194918460BF005
:106A00003FFA049B0393039B002B05D0154A40F2E9
:106A10005111039808F06CFC049B112BD6D0059BF8
:106A200001330593019B9B8A1A46059B9342CDD364
:106A3000019B1A69019B9B8A013B13441B780D2B18
:106A400006D100BF0A2009F0E9FB0346112BF9D05B
:106A500000BF07B05DF804FB9842030058420300F2
:106A600070440300D843030000B587B000230193AE
:106A7000174B019301AB1946164805F07DFB0590B5
:106A8000059B0493049B002B05D0134A40F26B1125
:106A9000049808F02DFC02AB0422002118460DF0EA
:106AA00000F80E4B029302AB19460D4805F0AAFD03
:106AB0000590059B0393039B002B05D0064A40F2EB
:106AC0007311039808F014FC00BF07B05DF804FBD5
:106AD00099690200A02E0020D8430300B969020082
:106AE0003C2B002000B585B00190019B1B78002B4A
:106AF00011D10B4B1B883B211846FFF729FD039052
:106B0000039B0293029B002B05D0064A40F2891199
:106B1000029808F0EDFB00BF05B05DF804FB00BF74
:106B2000582B0020D843030000B583B00190054ADC
:106B30004FF4CA71019808F0DBFB00BF03B05DF8A9
:106B400004FB00BFD843030000B58BB001AB1C228F
:106B5000002118460CF0A5FF002301934FF42033C9
:106B600002934FF47023039303238DF81030002316
:106B7000ADF8123000238DF814300C4B06930C4BFB
:106B8000079301AB184604F0C7FA0990099B0893D4
:106B9000089B002B05D0074A40F2AB11089808F07B
:106BA000A7FB00BF0BB05DF804FB00BFE56A020065
:106BB000296B0200D843030000B583B0002002F027
:106BC0007DF90190019B0093009B002B05D0064AA4
:106BD0004FF4DB71009808F08BFBFFF7D5FC0190B8
:106BE00000BF03B05DF804FBD843030000B585B0D7
:106BF00003468DF807309DF80730002B11D0032B8A
:106C000012D1022002F05AF90390039B0293029BD7
:106C1000002B0BD0084A4FF4E871029808F068FB8B
:106C200004E0FFF7C9FF02E000BF00E000BF00BFC3
:106C300005B05DF804FB00BFD843030000B58DB07C
:106C400001900091019B1B88562B00F0F880562B79
:106C500000F30881522B00F0CB80522B00F302810D
:106C6000212B2DDC102BC0F2FD80103B112B00F2EC
:106C7000F98001A252F823F0C96C0200536D0200A2
:106C8000656E0200C96D0200656E0200656E02004D
:106C9000656E0200656E0200656E0200656E0200A0
:106CA000656E0200656E0200656E0200656E020090
:106CB000656E0200656E0200656E0200956D020051
:106CC0003B2B00F0A980CDE06E4A6F4BD31ADB0856
:106CD0001B0443F003036D4918460BF0C3F807206B
:106CE00002F0ECF80B900B9B0593059B002B05D055
:106CF000674A40F2E911059808F0FAFA019B9A8870
:106D0000644B1A80634B1B881946634805F056FA9A
:106D10000B900B9B0493049B002B05D05C4A4FF413
:106D2000F671049808F0E4FA5A4B1B8804221946BD
:106D30000320FFF711FC00F04DFE524A524BD31ACC
:106D4000DB081B0443F00303544918460BF08AF890
:106D500093E04C4A4C4BD31ADB081B0443F003036B
:106D60004F4918460BF07EF84A4B4FF6FF721A80D7
:106D700001F0F2F9434A444BD31ADB081B0443F0F9
:106D80000303484918460BF06DF8474B184609F0C5
:106D9000C3F972E000238DF80C3000238DF80D301C
:106DA000019B9B8803AA11461846FFF7E5FB0B9051
:106DB0000B9B0793079B002B56D0354A40F20721C7
:106DC000079808F095FA4FE0324B1888002300220C
:106DD0008521FFF7CDFB0B900B9B0693069B002BA9
:106DE00044D02B4A40F20D21069808F081FA3DE08C
:106DF000284B1888002300220021FFF7C1FB0B90CD
:106E00000B9B0993099B002B32D0214A40F213219E
:106E1000099808F06DFA2BE0019B9B881321184616
:106E2000FFF796FB0B900B9B0893089B002B21D040
:106E3000174A40F21A21089808F05AFA1AE0019B02
:106E40009B8813211846FFF783FB0B900B9B0A933B
:106E50000A9B002B10D00E4A40F221210A9808F01C
:106E600047FA09E000BF08E000BF06E000BF04E009
:106E700000BF02E000BF00E000BF00BF0DB05DF842
:106E800004FB00BF98420300584203009C440300E7
:106E9000D8430300582B0020A02E0020AC44030050
:106EA000B8440300CC440300682E002000B587B02E
:106EB0000BF0FCFE0590059B0493049B002B05D072
:106EC000164A4FF40D71049808F012FA002301934A
:106ED00001AB194601200BF0A1FF0590059B039320
:106EE000039B002B05D00D4A40F23A21039808F08D
:106EF000FFF901AB18460CF0AFF80590059B029323
:106F0000029B002B05D0054A40F23E21029808F072
:106F1000EFF900BF07B05DF804FB00BFD8430300E2
:106F200000B583B001900091009B5A88114B1B88DB
:106F30009A421AD1009B1B8840F67722934214D1C3
:106F4000009B9B88033B9AB20B4B1A800B4A0C4B5D
:106F5000D31ADB081B0443F00300074B1B881A46B7
:106F6000054B1B8807490AF09CFF00BF03B05DF882
:106F700004FB00BF582B00205A2B0020984203002E
:106F800058420300D444030000B585B011491248AB
:106F900004F0F2FF0390039B0293029B002B05D0A9
:106FA0000E4A40F25921029808F0A2F9F7210A4846
:106FB00005F00DF80390039B0193019B002B05D076
:106FC000064A4FF41771019808F092F900BF05B016
:106FD0005DF804FB216F02008C2E0020D8430300D3
:106FE00000B5AFB001ABAC22002118460CF059FD42
:106FF00002238DF8043000238DF8063006238DF827
:1070000007300123ADF85030124B159301238DF852
:1070100080304FF448732393002324930E4B2A931C
:1070200001AB19460D4803F015FD2D902D9B2C93B7
:107030002C9B002B05D00A4A40F2DA212C9808F04C
:1070400057F90121054803F0F8FC00BF2FB05DF8A7
:1070500004FB00BF5C2B0020ED6B0200AC2E002077
:10706000D843030000B583B04FF4004100200AF07C
:1070700021FC0190019B0093009B002B05D0064A48
:1070800040F2F721009808F033F90AF0A9FB00BF9D
:1070900003B05DF804FB00BFD843030000B583B024
:1070A0000AF076F90190019B0093009B002B05D01C
:1070B000044A40F20331009808F01AF900BF03B007
:1070C0005DF804FBD843030008B50AF03FFF034610
:1070D00083F00103DBB2002B01D00AF06FF900BF8F
:1070E00008BD000000B583B00321094803F08AFD04
:1070F0000190019B0093009B002B05D0054A40F2B4
:107100001931009808F0F4F800BF03B05DF804FBF3
:10711000AC2E0020D843030000B587B06B46002298
:107120001A605A609A60DA601D2300931423019359
:107130004FF0CD63029302238DF80C306946002393
:1071400000220B4805F018FE0590059B0493049B54
:10715000002B05D0074A4FF44C71049808F0C8F88A
:107160000348FFF72AFB00BF07B05DF804FB00BF30
:10717000E8460300D843030030B5ADF6244D0023A4
:10718000CDF8143C0023CDF8103C0023CDF8183C7A
:107190000020FFF75AFB4FF49670FFF7F9F9994B6F
:1071A00000221A6012238DF8043C00238DF8053C60
:1071B0005523D9B20DF604420023009302239248CE
:1071C000FFF707FB6420FFF7E3F95523D9B213AAB1
:1071D00002238D48FFF71DFB0DF54263A3F6D43360
:1071E0005B788DF80F3C0DF54263A3F6D4335B78E2
:1071F000CDF8143C12238DF8043C01238DF8053C96
:107200005523D9B20DF604420023009302237E4891
:10721000FFF7DFFA6420FFF7BBF95523D9B29DF8D9
:107220000F3C1A4652001344DB00DBB20133DBB2E1
:1072300013AA7548FFF7EDFA0DF54263A3F6D433B0
:107240001B781A46714B1A600123CDF8183C0023B5
:107250008DF81F3CC7E0DDF8183CCDF8103C0DF56B
:107260004263A3F6D432DDF8103C13441B781A466F
:10727000674B1A60DDF8103C01330DF54262A2F64F
:10728000D432D35C1B02DDF8102C02320DF54261C2
:10729000A1F6D4318A5C13445E4A1360DDF8103CD9
:1072A00003330DF54262A2F6D432D35C1A465A4B30
:1072B0001A60DDF8103C04330DF54262A2F6D432B8
:1072C000D35C1A46554B1A60DDF8103C05330DF5BA
:1072D0004262A2F6D432D35C1B02DDF8102C0632D7
:1072E0000DF54261A1F6D4318A5C13444C4A136017
:1072F000DDF8103C07330DF54262A2F6D432D35CC0
:107300001A46484B1A60DDF8103C08330DF542620E
:10731000A2F6D432D35C1B02DDF8102C09320DF535
:107320004261A1F6D4318A5C13443F4A1360DDF810
:10733000103C0A330DF54262A2F6D432D35C1A46F1
:107340003A4B1A60DDF8103C0B330DF54262A2F6A1
:10735000D432D35C1B02DDF8102C0C320DF54261E7
:10736000A1F6D4318A5C1344314A1360DDF8103C35
:1073700013330DF54262A2F6D432D35C1A462D4B7C
:107380001A60DDF8183C1833CDF8183C2A4A2B4B0C
:10739000D31ADB081B0443F003001E4B1B681C467A
:1073A0001D4B1B681D46224B1B681A461F4B1B6852
:1073B0001946204B1B680293019100922B462246EE
:1073C0001F490AF09AFD1C4A1C4BD31ADB081B0408
:1073D00043F003031B4918460AF044FD9DF81F3C87
:1073E00001338DF81F3C9DF81F3CDDF8142C9A42A8
:1073F0003FF731AF0120FFF728FA00BF0DF6244D0B
:1074000030BD00BFE0320020E84603003C2E0020E3
:10741000402E0020442E0020482E00204C2E00201C
:10742000502E0020542E0020582E0020602E0020C8
:107430005C2E0020642E0020984203005842030076
:10744000F04403000045030008B500F00FFF00F012
:1074500042FF00F0F3FF00BF08BD000000B583B09D
:1074600005238DF8073023E000F04CFF03468DF82C
:1074700006309DF8063003F00103002B13D00023E3
:107480008DF8053000F0E2FF01F03EF810EE103A02
:1074900018460CF0FBF802460B460B49C1E90023E5
:1074A00000F0CCFF01E000F0C9FFC820FFF770F941
:1074B0009DF807305A1E8DF80720002BD4D100BF4D
:1074C00000BF03B05DF804FB182D002070B586B036
:1074D000924B1B680133914A1360914A914BD31A26
:1074E000DB081B0443F003038C4A12688E491846DC
:1074F0000AF0C6FC8D4BD3E900014FF000028C4B23
:107500000BF0DAFF02460B46104619460CF096F8CF
:1075100003469AB2874B1A80814A824BD31ADB0802
:107520001B0443F00303834A1288834918460AF078
:10753000A7FC804B1B88B3F58C7F1AD27F4B1B684E
:1075400001337E4A13607D4B1B68032B28D1744A9C
:10755000744BD31ADB081B0443F003037849184625
:107560000AF080FC774B00221A70744B00221A60DC
:1075700016E0744B1B7883F00103DBB2002B0FD0B5
:10758000704B01221A7000F025FA654A654BD31A38
:10759000DB081B0443F003036B4918460AF062FC46
:1075A000FFF7EAFD694B1B68694A82FB03129210E0
:1075B000DB17D31A674A1360674B1B68644A82FB68
:1075C00003129210DB17D31A644A1360644B1B68D2
:1075D000012B0CBF01230023DAB2614B1B68022B85
:1075E0000CBF01230023DBB21343DBB2002B02D01C
:1075F000584B00221A60494B1B68042B02DC554B88
:1076000000221A60534B1B68002B02D1534B0022FF
:107610001A6006F0E9FC534B1B780A2252491846BF
:107620000CF09DF94F4B1B78002B03D04D4B1B7872
:10763000092B08D84D494E480CF066FA4A494C4887
:107640000CF0AFF918E0474B1B78092B0CD9454BD0
:107650001B78632B08D8474945480CF055FA424936
:1076600043480CF09EF907E0434941480CF04CFABE
:107670003D493F480CF095F9384B1B680A223F49B9
:1076800018460CF06CF9354B1B68002B0CDB334BA8
:107690001B68092B08DC3A493A480CF035FA37499F
:1076A00038480CF07EF90FE02C4B1B680A2B0BDDE1
:1076B0002A4B1B68632B07DC334932480CF024FA51
:1076C0002E4930480CF06DF9224B1B680A222F49D5
:1076D00018460CF044F91F4B1B68002B0CDB1D4BAC
:1076E0001B68092B08DC2A492A480CF00DFA2749A7
:1076F00028480CF056F95DE0164B1B680A2B4DDD4F
:10770000144B1B68632B49DC234922480CF0FCF91D
:107710001E4920480CF045F94CE000BFE43200203F
:10772000984203005842030004450300202D002026
:1077300000002440282D002010450300E8320020DE
:107740001C450300EC32002030450300442E00208D
:10775000676666662C2D00205C2E0020302D0020F0
:10776000642E0020D82B0020DC2A0020EC2A0020E8
:10777000E02A0020E82A0020F02A00200C2B00201C
:107780001C2B0020102B0020182B0020F42A002096
:10779000042B0020F82A0020002B0020724B1B68CD
:1077A000632B07DD714972480CF0AEF971497048DE
:1077B0000CF0F7F8FFF752FE6F4BD3E900231046A9
:1077C00019460BF015FF06466B4BD3E900456A4B93
:1077D000D3E90023104619460BF00AFF034618466A
:1077E0000BF040FF02460B46204629460BF060FE98
:1077F00002460B46104619464FF000025F4B0BF055
:107800005BFE02460B46104619460BF0F1FE03469E
:10781000009333465A4A5B495B480CF0ADF85B4A2B
:107820005B4BD31ADB081B0443F00303564A594948
:1078300018460AF025FB00BF0AF088FB0346002B20
:10784000FAD10B20FEF753FF05900220FEF74FFF01
:107850000490049B0A22504918460CF080F8049BBF
:10786000012B0BD1059B002B08D14C494C480CF047
:107870004BF949494A480CF094F80DE0049B002B61
:107880000AD1059B012B07D1444945480CF03CF92E
:10789000414943480CF085F83C4A3D4BD31ADB087C
:1078A0001B0443F003033E4A3E4918460AF0E8FA37
:1078B00000BF0AF04BFB0346002BFAD13A493B4884
:1078C0000CF022F9364939480CF06BF82849374852
:1078D0000CF067F8354936480CF016F9354934484C
:1078E0000CF05FF8324934480CF00EF93349324855
:1078F0000CF057F8254A264BD31ADB081B0443F03B
:1079000003032E4A2E4918460AF0BAFA00BF0AF0BD
:107910001DFB0346002BFAD127492A480CF0F4F846
:10792000194928480CF03DF8184A194BD31ADB08BE
:107930001B0443F00303234A234918460AF0A0FA24
:1079400000BF0AF003FB0346002BFAD11B23ADF85E
:107950000E301E4B1B880DF10E021A491C4804F014
:10796000F7FE00BF06B070BD2C2D0020082B0020B4
:10797000F82A0020F42A0020182D00200000594089
:10798000D82A002048450300DC2B00209842030041
:107990005842030054450300282B0020302B0020C0
:1079A0002C2B002060450300202B0020FC2B002006
:1079B0000C2C0020102B0020542C0020E02A00204A
:1079C0006C450300AC2C002074450300582B0020AC
:1079D0003C2B002010B582B00120FEF736FF0A20B4
:1079E000FEF7D6FE0020FEF730FF4FF49670FEF74C
:1079F000CFFDCA4B02221A70C84B00225A70552381
:107A0000D9B2002300930223C44AC548FEF7E1FE21
:107A10000120FEF71AFF0220FEF7BAFE0020FEF753
:107A200014FF4FF49670FEF7B3FD5523D9B202232D
:107A3000BC4ABB48FEF7EDFE0120FEF706FF002022
:107A4000FEF703FF4FF49670FEF7A2FDB64AB74B60
:107A5000D31ADB081B0443F00300B24B1B781A4611
:107A6000B04B5B78B2490AF01CFA00BF0AF06EFA1C
:107A70000346002BFAD1A94B01221A70A74B002212
:107A80005A70A64B00229A705523D9B20023009356
:107A90000323A24AA248FEF79CFE40F2DC50FEF708
:107AA00077FE0120FEF7D1FE0220FEF771FE0020D6
:107AB000FEF7CBFE4FF49670FEF76AFD5523D9B260
:107AC0000223984A9648FEF7A4FE0120FEF7BDFE69
:107AD0000020FEF7BAFE4FF49670FEF759FD924A69
:107AE000924BD31ADB081B0443F003039149184659
:107AF0000AF0B8F900BF0AF029FA0346002BFAD1C0
:107B0000864B02221A70854B00225A705523D9B237
:107B1000002300930223814A8148FEF75AFE012088
:107B2000FEF793FE0220FEF733FE0020FEF78DFEE7
:107B30004FF49670FEF72CFD5523D9B20223794AF3
:107B40007748FEF766FE0120FEF77FFE0020FEF775
:107B50007CFE4FF49670FEF71BFD734A734BD31AED
:107B6000DB081B0443F003006E4B1B781A466D4B79
:107B70005B7871490AF095F900BF0AF0E7F903460E
:107B8000002BFAD1654BFF221A70644B03225A7006
:107B90005523D9B2002300930223604A6048FEF7C0
:107BA00018FE0120FEF751FE0220FEF7F1FD002035
:107BB000FEF74BFE4FF49670FEF7EAFC4FF496701A
:107BC000FEF7E6FC5523D9B20423564A5448FEF783
:107BD00020FE0120FEF739FE0020FEF736FE4FF4AE
:107BE0009670FEF7D5FC504A504BD31ADB081B04A5
:107BF00043F003004B4B1B7819464A4B5B781C46FD
:107C0000484B9B781A46474BDB78019300922346FA
:107C10000A464A490AF059F900BF0AF097F90346A3
:107C2000002BFAD13D4B10221A703C4B00225A70A7
:107C30003A4B02229A705523D9B2002300930323B2
:107C4000364A3748FEF7C5FD0120FEF7FEFD02204B
:107C5000FEF79EFD0020FEF7F8FD4FF49670FEF74C
:107C600097FC5523D9B201232E4A2D48FEF7D1FDAA
:107C70000120FEF7EAFD0020FEF7E7FD4FF49670C5
:107C8000FEF786FC284A294BD31ADB081B0443F075
:107C90000303244A12782A4918460AF0F1F800BF73
:107CA0000AF054F90346002BFAD11C4B50221A70EB
:107CB0001A4B07225A70194B0A229A70174B00224E
:107CC000DA705523D9B2002300930423134A1448D1
:107CD000FEF77FFD0120FEF7B8FD0220FEF758FDFC
:107CE0000020FEF7B2FD4FF49670FEF751FC5523CD
:107CF000D9B201230B4A0A48FEF78BFD0120FEF79B
:107D0000A4FD0020FEF7A1FD4FF49670FEF740FCA5
:107D1000054A064BD31ADB0814E000BF342D0020BF
:107D2000E84603003C2D002098420300584203001F
:107D300078450300A0450300B0450300D845030083
:107D4000EC4503001B0443F00303C84A1278C849FA
:107D500018460AF095F800BF0AF0F8F80346002B21
:107D6000FAD1C44B10221A70C24B02225A70C14B76
:107D700064229A705523D9B2002300930323BD4A8D
:107D8000BD48FEF726FD0120FEF75FFD0220FEF74D
:107D9000FFFC0020FEF759FD4FF49670FEF7F8FB4C
:107DA0005523D9B20123B14AB348FEF732FD012071
:107DB000FEF74BFD0020FEF748FD4FF49670FEF7EE
:107DC000E7FBAE4AAE4BD31ADB081B0443F00303B8
:107DD000A64A1278AB4918460AF052F800BF0AF0DA
:107DE000B5F80346002BFAD1A24B41221A70A14BE1
:107DF00000225A709F4BFF229A705523D9B200235C
:107E0000009303239B4A9C48FEF7E3FC0120FEF706
:107E10001CFD0220FEF7BCFC0020FEF716FD4FF40F
:107E20009670FEF7B5FB5523D9B202238F4A9248CC
:107E3000FEF7EFFC0120FEF708FD0020FEF705FD30
:107E40004FF49670FEF7A4FB8C4A8D4BD31ADB08D7
:107E50001B0443F00300854B1B781A46834B5B7869
:107E600089490AF01EF800BF0AF070F80346002B9B
:107E7000FAD1804B41221A707E4B04225A707D4BFE
:107E80000F229A705523D9B2002300930323794A15
:107E90007948FEF79EFC0120FEF7D7FC0220FEF792
:107EA00077FC0020FEF7D1FC4FF49670FEF770FBD4
:107EB0005523D9B202236D4A6F48FEF7AAFC012070
:107EC000FEF7C3FC0020FEF7C0FC4FF49670FEF7EF
:107ED0005FFB6A4A6A4BD31ADB081B0443F00300BA
:107EE000624B1B781A46614B5B78684909F0D9FFF1
:107EF00000BF0AF02BF80346002BFAD15D4B50224D
:107F00001A705C4B07225A705A4B19229A70594BBF
:107F10001322DA70574B56221A71564B00225A71AF
:107F20005523D9B2002300930623524A5248FEF744
:107F300050FC0120FEF789FC0220FEF729FC0020FE
:107F4000FEF783FC4FF49670FEF722FB5523D9B25F
:107F50000123464A4848FEF75CFC0120FEF775FC09
:107F60000020FEF772FC4FF49670FEF711FB434AB7
:107F7000434BD31ADB081B0443F003033B4A12783C
:107F80004349184609F07CFF00BF09F0DFFF0346B4
:107F9000002BFAD1374B50221A70364B07225A70F9
:107FA000344B17229A70334B0022DA70314B112276
:107FB0001A715523D9B20023009305232D4A2E4868
:107FC000FEF707FC0120FEF740FC0220FEF7E0FB75
:107FD0000020FEF73AFC4FF49670FEF7D9FA5523CD
:107FE000D9B20123214A2448FEF713FC0120FEF7F1
:107FF0002CFC0020FEF729FC4FF49670FEF7C8FA1F
:108000001E4A1F4BD31ADB081B0443F00303174A15
:1080100012782049184609F033FF00BF09F096FF97
:108020000346002BFAD1134B50221A70114B072232
:108030005A70104B18229A700E4B3022DA700D4B8A
:1080400020221A715523D9B2002300930523094A2F
:108050000948FEF7BEFB0120FEF7F7FB0220FEF702
:1080600097FB0020FEF7F1FB16E000BF3C2D00203F
:1080700000460300342D0020E84603009842030028
:1080800058420300144603002846030044460300F8
:108090005C460300744603004FF49670FEF778FACE
:1080A0005523D9B20123254A2548FEF7B2FB01200A
:1080B000FEF7CBFB0020FEF7C8FB4FF49670FEF7EF
:1080C00067FA204B52221A701E4B07225A701D4B22
:1080D00001229A705523D9B2002300930323194A31
:1080E0001748FEF776FB40F2D110FEF751FB5523FF
:1080F000D9B20123114A1248FEF78BFB124A134BE7
:10810000D31ADB081B0443F003030C4A127810490E
:10811000184609F0B5FE00BF09F018FF0346002B12
:10812000FAD10120FEF791FB0A4B00224FF40031F7
:10813000184607F0BBFF00BF02B010BD3C2D002069
:10814000E8460300342D0020984203005842030003
:1081500090460300682E002000B583B0174B002224
:108160001A600120FEF771FB0020FEF76EFB4FF452
:108170009670FEF70DFA124B52221A70104B07221E
:108180005A700F4B00229A705523D9B200230093E6
:1081900003230B4A0B48FEF71CFB0120FEF755FB9F
:1081A0007820FEF7F5FA0020FEF74FFB4FF49670AB
:1081B000FEF7EEF900BF03B05DF804FBE4320020E7
:1081C000342D0020E846030008B5FEF74BFFFEF70C
:1081D00067FBFEF763FFFEF769FEFEF78DFBFEF718
:1081E000D3FEFEF741FCFEF7FBFEFEF7ADFC1A4A9C
:1081F0001A4BD31ADB081B0443F003031849184633
:1082000009F030FE144A154BD31ADB081B0443F067
:1082100003031449184609F025FE00210B20FEF740
:1082200029FA00210220FEF725FA0F4B93F854306B
:108230009BB2042219460120FEF78EF9FEF752FF89
:10824000FEF76AFFFFF700F9FFF786FFFEF73EF93A
:10825000FEF73AFFFCE700BF9842030058420300D4
:10826000A4460300B0460300AC2E002008B500F081
:108270002BF80346302B12D00F4A104BD31ADB08D1
:108280001B0443F003030E49184609F0EBFD00BF41
:1082900009F05CFE0346002BFAD1002309E000F050
:1082A00031F800F071F82222002106480BF0F9FBAA
:1082B0000123184608BD00BF98420300584203003E
:1082C00008470300F032002008B5FF2000F028F82E
:1082D0000346184608BD08B50122FE21012000F022
:1082E00055F800BF08BD08B5062000F019F8034690
:1082F000002B01D0202303E0072000F011F80346F3
:10830000184608BD00B583B0002000F009F8034608
:108310008DF807309DF80730184603B05DF804FB70
:1083200000B585B003468DF807300DF10701012334
:108330000122502000F0A6F90DF10F030122194689
:10834000502000F079F99DF80F30184605B05DF81F
:1083500004FB00B585B003460A468DF80730134686
:108360008DF806309DF807308DF80C309DF80630FA
:108370008DF80D3003A900230222502000F082F96D
:1083800000BF05B05DF804FB00BF704700B585B0C5
:1083900003468DF807300B468DF8063013468DF8EE
:1083A00005309DF807301846FFF7BAFF03468DF8F1
:1083B0000F309DF80F209DF8063013408DF80F30D8
:1083C0009DF80F209DF805301343DAB29DF8073071
:1083D00011461846FFF7BDFF00BF05B05DF804FB6E
:1083E00000B585B001900B468DF8033008238DF859
:1083F0000E300DF10E0101230122502000F042F950
:1084000000238DF80F300CE09DF80F305A1C8DF8CA
:108410000F201A46019B134401221946502000F0F8
:108420000BF99DF803305A1E8DF80320002BEBD179
:108430009DF80F30184605B05DF804FB08B5012122
:108440001420FFF786FF00BF08BD000010B582B002
:10845000FFF749FF03468DF807309DF8073003F01A
:108460000103DBB2002B04D09DF80730013B8DF8EF
:1084700007309DF8073019462148FFF7B1FF002368
:108480008DF806302DE01E4B93F820300133DAB220
:108490001B4B83F820201A4B93F8203003F00F0376
:1084A000DAB2174B83F820209DF80630144AD25CCC
:1084B0009DF8063001331249CB5C114991F8201028
:1084C0000C461946104600F02FF8F0EE407A0D4A9F
:1084D000A3001344C3ED007A9DF8063002338DF8F3
:1084E00006309DF807305B08DBB29DF806209A4203
:1084F000C9D39DF807305B08DBB2184602B010BD47
:10850000F032002014330020054B93F82030054A48
:108510009B0013441B6807EE903AB0EE670A704761
:10852000F03200201433002000B583B003460A4621
:108530008DF8073013468DF806309DF90730002B73
:108540001DDA9DF807301A029DF8063013431846CD
:108550000BF088F818A3D3E900230AF0ADFF024618
:108560000B464FF000004FF000010AF0A1FF024659
:108570000B46104619460BF0A3F8034614E09DF88D
:1085800007301A029DF80630134318460BF06AF8BC
:1085900009A3D3E900230AF08FFF02460B461046D9
:1085A00019460BF08DF8034607EE903AB0EE670AD5
:1085B00003B05DF804FB00BF7B14AE47E17A743F63
:1085C00000B589B0059003921A460B468DF813301A
:1085D00013468DF8123000230793059B181D9DF854
:1085E00012209DF813109DF8283000931346039A2B
:1085F00006F0EAFA0790079B184609B05DF804FBFD
:1086000000B587B0039001921A460B468DF80B30E7
:1086100013468DF80A3000230593039B181D9DF81F
:108620000A309DF80B10019A06F0F6FA0590059BAA
:10863000184607B05DF804FB00B585B0034600910D
:108640008DF807301346ADF80430BDF80430DBB2C6
:108650009DF80710009A0948FFF7D2FF0390039B8B
:108660000293029B002B04D0054A2E21029806F0AB
:108670003FFE00BF05B05DF804FB00BF1C470300D0
:108680002C47030000B587B0029111461A460346F5
:108690008DF80F300B46ADF80C3013468DF80E30C8
:1086A000BDF80C30DAB29DF80F109DF80E30009333
:1086B0001346029A0848FFF783FF0590059B049331
:1086C000049B002B04D0054A3421049806F010FEC8
:1086D00000BF07B05DF804FB1C4703002C470300F4
:1086E00000B583B00190019B1B68184600F09DF80F
:1086F0000346002B04D105494FF4F670FEF7BCF891
:108700004FF0A043184603B05DF804FBAC470300EC
:1087100000B585B0019001AB1846FFF7E1FF03906B
:10872000019B012202FA03F31946039800F069F84D
:1087300000BF05B05DF804FB00B585B0019001AB4A
:108740001846FFF7CDFF0390019B012202FA03F3C5
:108750001946039800F05FF800BF05B05DF804FB10
:1087600000B585B0019001AB1846FFF7B9FF039043
:10877000039BD3F804350293029BDA43019B01214A
:1087800001FA03F31A40039BC3F80825019B012259
:108790009A40029B1A40039BC3F80C2500BF05B00A
:1087A0005DF804FB00B583B001900091009B002BA5
:1087B00003D10198FFF7C0FF02E00198FFF7A8FF7F
:1087C00000BF03B05DF804FB00B585B0019001ABBC
:1087D0001846FFF785FF0390039800F00AF8024659
:1087E000019B22FA03F303F00103184605B05DF87C
:1087F00004FB82B00190019BD3F80435184602B007
:10880000704782B001900091019B009AC3F808253F
:1088100000BF02B0704782B001900091019B009AA6
:10882000C3F80C2500BF02B0704784B00190019BD3
:108830005B09029300230393029B002B03D14FF0AB
:10884000FF33039300BF019B03F01F030193039ABF
:10885000019B22FA03F303F00103002B14BF012351
:108860000023DBB2184604B07047000000B585B0A5
:108870000190019B032B03D911493A20FDF7FCFF1E
:10888000104A019B13441B781846FFF79DFF0346CF
:10889000002B14BF012300238DF80F309DF80F30FB
:1088A000002B14BF01230023DBB283F00103DBB2F2
:1088B00003F00103DBB2184605B05DF804FB00BF0E
:1088C000DC4703004C48030000B583B00190019BD6
:1088D000032B03D907494120FDF7CEFF064A019B30
:1088E00013441B7800211846FFF75CFF00BF03B05C
:1088F0005DF804FBDC4703004C48030000B583B07F
:108900000190019B032B03D907494720FDF7B4FFD2
:10891000064A019B13441B7801211846FFF742FFCA
:1089200000BF03B05DF804FBDC4703004C480300C4
:1089300000B583B00023019305E00198FFF7DEFF47
:10894000019B01330193019B032BF6D900BF00BFAC
:1089500003B05DF804FB00B583B00023019305E08C
:108960000198FFF7B1FF019B01330193019B032B9A
:10897000F6D900BF00BF03B05DF804FB00B583B0BB
:108980000190019B032B03D907495F20FDF774FF7A
:10899000064A019B13441B781846FFF7E1FE00BF0F
:1089A00003B05DF804FB00BFDC4703004C48030044
:1089B00000B583B00C4B1B78002B0FD00023019324
:1089C00008E0019B022B02D00198FFF797FF019B63
:1089D00001330193019B032BF3D901E0FFF7A8FFBB
:1089E00000BF03B05DF804FB5C3300202DE9D04FDD
:1089F00092B003468DF83F3000231193002310936B
:108A0000CC4B1B78002B04D0CA4A00231370FFF70D
:108A1000CFFF9DF83F30172B00F23F8201A252F8A2
:108A200023F000BF858A02009D8A02009D8A020011
:108A3000398B0200D58B0200518C0200E58C0200BC
:108A4000058D0200158D0200418D02005F8D020030
:108A50007D8D02009B8D0200A98D0200A98D020070
:108A6000A98D0200A98D0200A98D02003D8E020091
:108A70004B8E02005F8E0200738E02008D8E02000C
:108A80008D8E0200FFF794FFAB4B184607F044FBB6
:108A90001190AA4A9DF83F301370FFE10020FFF7C4
:108AA000E5FE0346002B0DD00020FFF727FF9DF8C1
:108AB0003F30022B02D14FF4E16301E04FF47A63BF
:108AC00010930BE00020FFF7FFFE9DF83F30022BD4
:108AD00001D1C82301E04FF4C8731093974A9DF861
:108AE0003F301370944C109B0022009301924FF082
:108AF00000024FF00003DDE900673946CB03314641
:108B000043EA51433146CA0312F5FA71029143F127
:108B1000000303934FF47A724FF00003DDE9020182
:108B20000AF0F8FD02460B4613460022194620467D
:108B300007F0BCFA1190B1E10020FFF797FE034661
:108B4000002B0DD00020FFF7D9FE9DF83F30032BFE
:108B500002D14FF4487301E04FF47A6310930BE0B5
:108B60000020FFF7B1FE9DF83F30032B01D1C82351
:108B700001E04FF4C8731093704A9DF83F301370B2
:108B80006D4C109B0022049305924FF000024FF0B1
:108B90000003DDE904673946CB03314643EA51431C
:108BA0003146CA0312F5FA71069143F100030793A7
:108BB0004FF47A724FF00003DDE906010AF0AAFDD6
:108BC00002460B46134600221946204607F06EFA6D
:108BD000119063E10020FFF749FE0346002B06D009
:108BE0000020FFF78BFE4FF47A63109305E000201E
:108BF000FFF76AFE4FF4C8731093504A9DF83F3058
:108C000013704D4C109B00229A4693464FF0000281
:108C10004FF000034FEACB3343EA5A434FEACA32DC
:108C200012F5FA71089143F1000309934FF47A7237
:108C30004FF00003DDE908010AF06CFD02460B4627
:108C4000134600221946204607F030FA119025E11C
:108C50000020FFF70BFE0346002B0CD00020FFF78F
:108C60004DFE9DF83F30052B01D1C82301E04FF4A4
:108C70007A6310930BE00020FFF726FE9DF83F304B
:108C8000052B01D1C82301E04FF4C87310932B4A80
:108C90009DF83F301370284C109B00229846914657
:108CA0004FF000024FF000034FEAC93343EA584344
:108CB0004FEAC83212F5FA710A9143F100030B939F
:108CC0004FF47A724FF00003DDE90A010AF022FD49
:108CD00002460B46134600221946204607F0E6F9E5
:108CE0001190DBE00020FFF749FE144A9DF83F3069
:108CF0001370114B002240F6CD41184607F0D6F90B
:108D00001190CBE00020FFF7DFFD0C4A9DF83F30CB
:108D10001370C3E0074B01221A700120FFF72EFEEB
:108D2000054B002240F6CD41184607F0BFF91190DF
:108D3000B4E000BF553300206033002054330020DE
:108D4000594B01221A700120FFF718FE574B0022E1
:108D50004FF48041184607F0A9F911909EE0524B5C
:108D600001221A700120FFF709FE504B002240F645
:108D7000CD41184607F09AF911908FE04A4B012235
:108D80001A700120FFF7FAFD484B00224FF4804192
:108D9000184607F08BF9119080E0FFF7DCFD444A9C
:108DA0009DF83F30137079E0424B184607F0B4F954
:108DB00011909DF83F30C3F111031093109B002BCD
:108DC00035D0119B002B32D1109B012B28D9394C67
:108DD000109B9BB21A46C82302FB03F3DA171E4608
:108DE00017464FF000024FF00003FB0343EA5643DF
:108DF000F20312F5FA710C9143F100030D934FF455
:108E00007A724FF00003DDE90C010AF083FC0246A0
:108E10000B46134600221946204607F047F91190E9
:108E20000220FFF751FD244B01221A7036E0022088
:108E3000FFF764FD204B00221A702FE0FFF7B8FD0A
:108E40001B4A9DF83F30137028E0FFF7B1FD00206A
:108E5000FFF73AFD164A9DF83F3013701EE0FFF70A
:108E6000A7FD0120FFF730FD114A9DF83F30137038
:108E700014E0FFF79DFD0020FFF726FD0120FFF71E
:108E800023FD0B4A9DF83F30137007E0FFF763FDA9
:108E9000074A9DF83F30137000E000BF119B184651
:108EA00012B0BDE8D08F00BF5533002060330020E2
:108EB00054330020803300205C33002000B585B09F
:108EC00003468DF8073000230393084B1B6803F01B
:108ED0000103002B05D09DF807301846FFF786FDEB
:108EE0000390039B184605B05DF804FB583300203F
:108EF00084B001900B468DF8033013468DF8023094
:108F000000230393019B032B3CD89DF80230012BD7
:108F10000BD19DF80330012B04D1019BDBB20E3342
:108F2000DBB200E000238DF802309DF80330022B05
:108F30000FD0022B23DC002B16D0012B1FD114499C
:108F4000019A13465B0013440B449DF802201A70EB
:108F50001AE00F49019A13465B0013440B44013396
:108F60009DF802201A700FE00949019A13465B0030
:108F700013440B4402339DF802201A7004E00723C7
:108F8000039301E007230393039B184604B0704743
:108F9000A033002000B583B0012200210020FFF79C
:108FA000A7FF0190019B002B04D0019B072B01D050
:108FB000019B1CE0072202210120FFF799FF01908D
:108FC000019B002B04D0019B072B01D0019B0EE0DD
:108FD000042202210020FFF78BFF0190019B002B50
:108FE00004D0019B072B01D0019B00E00023184611
:108FF00003B05DF804FB00B583B00122022100201C
:10900000FFF776FF0190019B002B04D0019B072BFB
:1090100001D0019B1CE0072202210120FFF768FF1D
:109020000190019B002B04D0019B072B01D0019BD9
:109030000EE00A2200210020FFF75AFF0190019B59
:10904000002B04D0019B072B01D0019B00E00023E3
:10905000184603B05DF804FB00B585B0019000919F
:10906000019B1B88102B02D0112B18D02FE01A4B1C
:109070001B68002B0DD1FFF78DFF0390039B002B86
:1090800007D0164B1B68002B03D0144B1B680398AA
:109090009847114B1B6801330F4A136017E00E4BC2
:1090A0001B68013B0C4A13600B4B1B68002B0DD156
:1090B000FFF7A1FF0390039B002B07D0074B1B6812
:1090C000002B03D0054B1B680398984700BF00BFD7
:1090D00005B05DF804FB00BFB0330020AC330020C6
:1090E000BFF34F8F00BF064BDB6803F4E062044917
:1090F000044B1343CB60BFF34F8F00BF00BFFDE7AE
:1091000000ED00E00400FA0582B01D4B1B68B3F1CE
:10911000FF3F0AD11B4B1B68DBB201931A4B1B6844
:109120001B0903F00F03009305E0154B1B68019327
:10913000164B1B680093019B062B1DD1009B033B24
:10914000042B17D801A252F823F000BF619102004E
:1091500065910200699102006D9102007191020017
:1091600001230AE0012308E0012306E0012304E0D3
:10917000012302E0012300E00023184602B07047FB
:1091800030010010E00F00F0E80F00F03401001093
:1091900082B0174B1B68DBB20193164B1B681B098F
:1091A00003F00F030093019B062B1DD1009B033B93
:1091B000042B17D801A252F823F000BFD19102006E
:1091C000D5910200D9910200DD910200E1910200E7
:1091D00001230AE0002308E0002306E0002304E066
:1091E000002302E0002300E00023184602B070478D
:1091F000E00F00F0E80F00F082B01D4B1B68B3F1E8
:10920000FF3F0AD11B4B1B68DBB201931A4B1B6853
:109210001B0903F00F03009305E0154B1B68019336
:10922000164B1B680093019B062B1DD1009B033B33
:10923000042B17D801A252F823F000BF519202006C
:1092400055920200599202005D9202006192020062
:1092500001230AE0012308E0012306E0012304E0E2
:10926000012302E0012300E00023184602B070470A
:1092700030010010E00F00F0E80F00F034010010A2
:1092800082B0174B1B68DBB20193164B1B681B099E
:1092900003F00F030093019B062B1DD1009B033BA2
:1092A000042B17D801A252F823F000BFC19202008C
:1092B000C5920200C9920200CD920200D192020032
:1092C00001230AE0002308E0002306E0002304E075
:1092D000002302E0002300E00023184602B070479C
:1092E000E00F00F0E80F00F082B01D4B1B68B3F1F7
:1092F000FF3F0AD11B4B1B68DBB201931A4B1B6863
:109300001B0903F00F03009305E0154B1B68019345
:10931000164B1B680093019B062B1DD1009B033B42
:10932000042B17D801A252F823F000BF419302008A
:1093300045930200499302004D93020051930200AD
:1093400001230AE0012308E0012306E0012304E0F1
:10935000012302E0012300E00023184602B0704719
:1093600030010010E00F00F0E80F00F034010010B1
:1093700082B0174B1B68DBB20193164B1B681B09AD
:1093800003F00F030093019B062B1DD1009B033BB1
:10939000042B17D801A252F823F000BFB1930200AA
:1093A000B5930200B9930200BD930200C19302007D
:1093B00001230AE0002308E0002306E0002304E084
:1093C000002302E0002300E00023184602B07047AB
:1093D000E00F00F0E80F00F082B0174B1B68DBB223
:1093E0000193164B1B681B0903F00F030093019BAD
:1093F000062B1DD1009B033B042B17D801A252F86A
:1094000023F000BF199402001D9402002194020071
:10941000259402002994020001230AE0002308E0B9
:10942000002306E0002304E0002302E0002300E024
:109430000023184602B07047E00F00F0E80F00F07C
:1094400082B01D4B1B68B3F1FF3F0AD11B4B1B6859
:10945000DBB201931A4B1B681B0903F00F03009347
:1094600005E0154B1B680193164B1B680093019B8D
:10947000062B1DD1009B033B042B17D801A252F8E9
:1094800023F000BF999402009D940200A194020071
:10949000A5940200A994020000230AE0002308E03A
:1094A000012306E0012304E0012302E0012300E0A0
:1094B0000023184602B0704730010010E00F00F0A2
:1094C000E80F00F03401001082B01D4B1B68B3F1AF
:1094D000FF3F0AD11B4B1B68DBB201931A4B1B6881
:1094E0001B0903F00F03009305E0154B1B68019364
:1094F000164B1B680093019B062B1DD1009B033B61
:10950000042B17D801A252F823F000BF21950200C6
:1095100025950200299502002D9502003195020043
:1095200001230AE0012308E0012306E0012304E00F
:10953000012302E0012300E00023184602B0704737
:1095400030010010E00F00F0E80F00F034010010CF
:1095500082B01D4B1B68B3F1FF3F0AD11B4B1B6848
:10956000DBB201931A4B1B681B0903F00F03009336
:1095700005E0154B1B680193164B1B680093019B7C
:10958000062B1DD1009B033B042B17D801A252F8D8
:1095900023F000BFA9950200AD950200B19502002D
:1095A000B5950200B995020001230AE0012308E005
:1095B000012306E0012304E0012302E0012300E08F
:1095C0000023184602B0704730010010E00F00F091
:1095D000E80F00F03401001082B0154B1B680193B6
:1095E000144B1B680093019B062B1DD1009B033B72
:1095F000042B17D801A252F823F000BF11960200E5
:1096000015960200199602001D960200219602008E
:1096100000230AE0002308E0002306E0012304E021
:10962000012302E0012300E00023184602B0704746
:10963000300100103401001082B0154B1B680193FB
:10964000144B1B680093019B062B1DD1009B033B11
:10965000042B17D801A252F823F000BF7196020024
:1096600075960200799602007D96020081960200AE
:1096700000230AE0002308E0002306E0002304E0C2
:10968000012302E0012300E00023184602B07047E6
:10969000300100103401001008B5FFF7CDFF03467C
:1096A000002B07D04FF010234FF08042D3F8083240
:1096B000C2F8583500BF08BD00BF044BD3F80034D2
:1096C000002BFAD000BF00BF704700BF00E0014090
:1096D00000B583B00190054A019BC2F80435FFF73D
:1096E000EBFF00BF03B05DF804FB00BF00E00140EA
:1096F000024B034A1A6000BF704700BF602B002076
:109700000090D00308B5FFF7FFFC0346002B06D0FE
:10971000964B1B681B0A964A03F01F031360FFF762
:1097200037FD0346002B02D0924B934A1A60FFF795
:1097300063FD0346002B06D0904B1B685B0B904AE1
:1097400003F007031360FFF79BFD0346002B05D0D2
:109750008C4BDB688B4A23F08073D360FFF7C4FD2A
:109760000346002B0ED04FF080430022C3F80C219B
:109770004FF080430022C3F810214FF080430022B5
:10978000C3F83825FFF7F4FD0346002B02D07E4BCB
:1097900003221A60FFF720FE0346002B0BD07B4B01
:1097A00005221A607A4B01221A607A4B00221A6055
:1097B000794B3F221A60FFF743FE0346002B76D019
:1097C0004FF08053754AD3F80434C2F820354FF077
:1097D0008053724AD3F80834C2F824354FF08053CE
:1097E0006E4AD3F80C34C2F828354FF080536B4AD8
:1097F000D3F81034C2F82C354FF08053674AD3F8B1
:109800001434C2F830354FF08053644AD3F818341A
:10981000C2F834354FF08053604AD3F81C34C2F894
:1098200040354FF080535D4AD3F82034C2F84435B8
:109830004FF08053594AD3F82434C2F848354FF0DA
:109840008053564AD3F82834C2F84C354FF0805331
:10985000524AD3F82C34C2F850354FF080534F4A57
:10986000D3F83034C2F854354FF080534B4AD3F814
:109870003434C2F860354FF08053484AD3F8383456
:10988000C2F864354FF08053444AD3F83C34C2F8F0
:1098900068354FF08053414AD3F84034C2F86C35F4
:1098A0004FF080533D4AD3F84434C2F87035FFF787
:1098B0000BFE0346002B05D0394B1B68394A03F0D9
:1098C0004F031360FFF744FE0346002B0DD04FF00B
:1098D0008043D3F8003403F00103002B05D04FF090
:1098E00080436FF00102C3F80024FFF775FE0346C2
:1098F000002B05D02C4B1B682B4A43F4806313606C
:109900002A4BD3F88830294A43F47003C2F88830D0
:10991000BFF34F8F00BFBFF36F8F00BFFFF7BCFED9
:109920004FF01023D3F80032002B05DB4FF010234B
:10993000D3F80432002B15DA0120FFF7C9FE4FF0EF
:1099400010231522C3F80022FFF7B6FE4FF01023B4
:109950001522C3F80422FFF7AFFE0020FFF7B8FE80
:10996000FFF7BEFBFFF7C4FE00BF08BD24030010D5
:109970004035014074C007400DF0ADBA44020010FC
:109980003C050040F0ED00E0A0050040105600400E
:1099900088560040185600401456004000C0004051
:1099A00058020010E40E00403C17004000ED00E0BB
:1099B0006DDF704700BF184679DF704700BF18465B
:1099C0007DDF704700BF184664DF704700BF184650
:1099D00082B003460091ADF80630BDF80630DAB229
:1099E000009B1A70BDF806301B0A9AB2009B013327
:1099F000D2B21A700223184602B0704700B589B07F
:109A0000039002911346ADF80630029B1B8803F1C8
:109A10000902BDF806309A4201D90C2353E004AB89
:109A20001846FFF7C5FF0790079B0693069B002B80
:109A300001D0069B47E0029B1B881A46039B1344F8
:109A400008221A70029B1B8801339AB2029B1A806B
:109A5000029B1B881A46039B13441B221A70029B0D
:109A60001B8801339AB2029B1A80029B1B881A46FC
:109A7000039B981804AB01330622194609F0E8FF4E
:109A8000029B1B8806339AB2029B1A809DF8103005
:109A900023F00103DBB2002B07D1029B1B881A467F
:109AA000039B134400221A7006E0029B1B881A468F
:109AB000039B134401221A70029B1B8801339AB244
:109AC000029B1A800023184609B05DF804FB00B51C
:109AD00089B0039002910192ADF80230039B1B788C
:109AE000012B05D1039B5B78002B01D1072392E06A
:109AF000019B1B889A1CBDF802309A420ED8039B2A
:109B00001B78012B0CD1019B1B881A46039B5B78A9
:109B100013449A1CBDF802309A4201D90C237AE012
:109B2000019B1B88BDF80220D31A9BB2023BADF803
:109B30001C30BDF81C30ADF81230019B1B8802337D
:109B4000029A13440DF1120211461846FFF738FF2E
:109B50000690069B0593059B002B01D0059B5AE0C0
:109B6000039B1B78022B06D0039B5B789AB2BDF84F
:109B700012309A4209D3BDF81230BDF81C209A4227
:109B800003D309238DF81F3017E008238DF81F3009
:109B9000039B1B78012B0CD1039B5B789BB2BDF818
:109BA0001C209A4205D3039B5B789BB2ADF8123020
:109BB00003E0BDF81C30ADF81230BDF81230FE2BBA
:109BC00001D90C2327E0BDF81230DAB2019B1B88C3
:109BD0001946029B0B440132D2B21A70019B1B88BA
:109BE00001339AB2019B1A80019B1B881A46029B83
:109BF00013449DF81F201A70019B1B8801339AB2F1
:109C0000019B1A80019B1A88BDF8123013449AB246
:109C1000019B1A800023184609B05DF804FB00B5CB
:109C200089B0039002911346ADF80630029B1B8861
:109C30001A1DBDF806309A4201D90C233BE00DF104
:109C400016031846FFF7B8FE0790079B0693069B7E
:109C5000002B01D0069B2EE0029B1B881A46039B1B
:109C6000134403221A70029B1B8801339AB2029B91
:109C70001A80029B1B881A46039B134419221A70F0
:109C8000029B1B8801339AB2029B1A80BDF81620F2
:109C9000029B1B881946039B0B4419461046FFF78D
:109CA00097FE03461946029B1A888BB213449AB258
:109CB000029B1A800023184609B05DF804FB84B0AB
:109CC000029101921A4603468DF80F301346ADF803
:109CD0000C30019B1B88DA1CBDF80C309A4201D96C
:109CE0000C2328E0019B1B881A46029B1344022286
:109CF0001A70019B1B8801339AB2019B1A80019B49
:109D00001B881A46029B134401221A70019B1B8870
:109D100001339AB2019B1A80019B1B881A46029B51
:109D200013449DF80F201A70019B1B8801339AB2CF
:109D3000019B1A800023184604B0704784B002913A
:109D400001921A4603468DF80F301346ADF80C30D9
:109D5000019B1B88DA1CBDF80C309A4201D90C23F8
:109D600028E0019B1B881A46029B134402221A70AA
:109D7000019B1B8801339AB2019B1A80019B1B88AF
:109D80001A46029B13440A221A70019B1B88013356
:109D90009AB2019B1A80019B1B881A46029B1344AE
:109DA0009DF80F201A70019B1B8801339AB2019B0A
:109DB0001A800023184604B0704700B58FB0039096
:109DC00001930B468DF80B3013468DF80A300023B3
:109DD0008DF83330109B1B88ADF8303000230D9385
:109DE00071E0039B5A680D9B9B001A4405AB1068F9
:109DF00018600DF11B0105AB00221846FFF7E4FDCA
:109E00000A900A9B0993099B002B01D0099B7CE0D7
:109E10009DF81B309DF80A209A4251D19DF83330AD
:109E2000002B01D0002300E002238DF82330109B8B
:109E30001B881A469DF81B301A449DF823301A449B
:109E4000BDF844309A4201DD0C235EE09DF83330CA
:109E500083F00103DBB2002B16D0109B1B8801336B
:109E60009AB2109B1A80109B1B881A46019B1344C0
:109E70009DF80B201A70109B1B8801339AB2109B1F
:109E80001A8001238DF83330109B1B881A46019BE2
:109E90001A440DF11B0105AB1846FFF795FD0A901A
:109EA0000A9B0793079B002B01D0079B2DE0109B7B
:109EB0001A889DF81B309BB213449AB2109B1A80EB
:109EC0000D9B01330D93039B1B881A460D9B9342F8
:109ED00087DB9DF83330002B16D0109B1A88BDF815
:109EE0003030D31A9BB2013BADF82E30BDF82E3086
:109EF000FF2B01D90C2308E0BDF83030019A134440
:109F0000BDF82E20D2B21A70002318460FB05DF8AB
:109F100004FB00B58BB0059003930B468DF813300E
:109F200013468DF812309DF81310BDF834300193AC
:109F30000C9B0093039B02220598FFF73EFF0990BC
:109F4000099B0893089B002B01D0089B14E09DF807
:109F50001210BDF8343001930C9B0093039B102228
:109F60000598FFF72AFF0990099B0793079B002B91
:109F700001D0079B00E0002318460BB05DF804FBFE
:109F800082B00190019B1B88052B0AD9019B1B887D
:109F9000B3F5486F07D9019B1B884FF6FF729342B8
:109FA00001D0072325E0019B5B88052B0AD9019B83
:109FB0005B88B3F5486F07D9019B5B884FF6FF724A
:109FC000934201D0072314E0019B1B884FF6FF72D8
:109FD00093420DD0019B5B884FF6FF72934207D0EE
:109FE000019B1A88019B5B889A4201D9072300E0F4
:109FF0000023184602B0704700B587B00390029165
:10A000000192ADF80230019B1B889A1DBDF8023009
:10A010009A4201D90C234DE00398FFF7B1FF059058
:10A02000059B0493049B002B01D0049B42E0019B01
:10A030001B881A46029B134405221A70019B1B8839
:10A0400001339AB2019B1A80019B1B881A46029B1E
:10A05000134412221A70019B1B8801339AB2019B90
:10A060001A80039B1A88019B1B881946029B0B448C
:10A0700019461046FFF7ACFC03461946019B1A88A7
:10A080008BB213449AB2019B1A80039B5A88019B9E
:10A090001B881946029B0B4419461046FFF798FC93
:10A0A00003461946019B1A888BB213449AB2019B4E
:10A0B0001A800023184607B05DF804FB00B587B08E
:10A0C000039002910192ADF80230039B9B8802330A
:10A0D0000593019B1B881A46059B13449A1CBDF8E7
:10A0E00002309A4201D90C2354E0059BFE2B01D982
:10A0F0000C234FE0059BDAB2019B1B881946029B9B
:10A100000B440132D2B21A70019B1B8801339AB200
:10A11000019B1A80019B1B881A46029B1344FF2255
:10A120001A70019B1B8801339AB2019B1A80039B12
:10A130001A88019B1B881946029B0B44194610463E
:10A14000FFF746FC03461946019B1A888BB213445D
:10A150009AB2019B1A80039B9B88002B19D0039B0A
:10A160009B68002B01D1072314E0019B1B881A4632
:10A17000029B9818039B9968039B9B881A4609F0D9
:10A1800067FC019B1A88039B9B8813449AB2019B2E
:10A190001A800023184607B05DF804FB00B589B0AB
:10A1A000039002910192ADF80230039B9B6A002B51
:10A1B00001D1072372E000238DF81F3066E0039B76
:10A1C000996A9DF81F2013465B0013449B000B44C3
:10A1D0000693069B9B8802330593059BFE2B01D9B2
:10A1E0000C235BE0059BDAB2019B1B881946029B9E
:10A1F0000B440132D2B21A70019B1B8801339AB210
:10A20000019B1A80019B1B881A46029B134416224D
:10A210001A70019B1B8801339AB2019B1A80069B1E
:10A220001A88019B1B881946029B0B44194610464D
:10A23000FFF7CEFB03461946019B1A888BB21344E5
:10A240009AB2019B1A80069B9B88002B19D0069B13
:10A250009B68002B01D1072320E0019B1B881A4635
:10A26000029B9818069B9968069B9B881A4609F0E2
:10A27000EFFB019B1A88069B9B8813449AB2019BB3
:10A280001A809DF81F3001338DF81F30039B93F81F
:10A290002C309DF81F209A4291D30023184609B014
:10A2A0005DF804FB00B595B005900491039200237E
:10A2B0001393039B1B88ADF84A30039B00221A803E
:10A2C000059B93F82D30002B0ED0BDF84A301A466E
:10A2D00003990498FFF792FB1390139B1193119B22
:10A2E000002B01D0119BD8E0059B9B78002B0ED052
:10A2F000BDF84A301A4603990498FFF790FC139072
:10A30000139B1093109B002B01D0109BC5E0059B65
:10A31000DB78002B10D0059BDB7858B2BDF84A30B3
:10A32000039A0499FFF7CBFC1390139B0F930F9B99
:10A33000002B01D00F9BB0E0059B5B68002B11D078
:10A34000059B5B6893F90000BDF84A30039A0499B5
:10A35000FFF7F4FC1390139B0E930E9B002B01D080
:10A360000E9B9AE0059B1B89002B14D0059B03F1E3
:10A370000800BDF84A300193039B0093049B06221A
:10A380000221FFF7C6FD1390139B0D930D9B002B2D
:10A3900001D00D9B81E0059B1B8A002B14D0059BEF
:10A3A00003F11000BDF84A300193039B0093049B16
:10A3B00007220321FFF7ADFD1390139B0C930C9B19
:10A3C000002B01D00C9B68E0059B1B8B002B14D04D
:10A3D000059B03F11800BDF84A300193039B0093DD
:10A3E000049B15221421FFF794FD1390139B0B93EC
:10A3F0000B9B002B01D00B9B4FE0059B1B6A002B96
:10A400000FD0059B186ABDF84A30039A0499FFF7EC
:10A41000F3FD1390139B0A930A9B002B01D00A9B18
:10A420003BE0059B5B6A002B0FD0059B586ABDF88B
:10A430004A30039A0499FFF741FE1390139B099346
:10A44000099B002B01D0099B27E0059B93F82C303A
:10A45000002B0ED0BDF84A30039A04990598FFF7F7
:10A460009DFE1390139B0893089B002B01D0089B23
:10A4700013E0059B1B78002B0ED0BDF84A30039AE1
:10A4800004990598FFF723FB1390139B0793079BF1
:10A49000002B01D0079B00E0139B184615B05DF818
:10A4A00004FB86B0039001921A460B46ADF80A30C1
:10A4B00013468DF80930039B002B02D0019B002B23
:10A4C00001D100235CE00023ADF816300CE0BDF8AC
:10A4D0001630039A13441B789AB2BDF81630134411
:10A4E0009BB20133ADF81630BDF816305A1CBDF8DA
:10A4F0000A309A420FDA019B1B88BDF816209A4257
:10A50000E5D3BDF816300133039A13441B789DF848
:10A5100009209A42DBD1BDF81620BDF80A309A42D4
:10A5200001D300232CE0BDF816300233ADF814300F
:10A53000BDF81630039A13441B78002B08D0BDF8E1
:10A540001630039A13441B789BB2013B9BB200E088
:10A550000023ADF81230BDF81230002B08D0BDF842
:10A560001420BDF812301A44BDF80A309A4201DDB9
:10A57000002305E0019BBDF814201A80BDF81230BD
:10A58000184606B0704700B585B001900B46ADF88F
:10A59000023013468DF801300023ADF80C309DF8E1
:10A5A000013003AABDF802100198FFF77AFF0346B5
:10A5B000ADF80E30BDF80E30002B01D1002304E0C1
:10A5C000BDF80C301A46019B1344184605B05DF8DF
:10A5D00004FB72DF704700BF184673DF704700BF8F
:10A5E000184682B00190019B93F83034184602B0AF
:10A5F000704784B00190002303930AE0019A039B03
:10A6000013441B78002B01D0012306E0039B013388
:10A610000393039B052BF1D90023184604B0704720
:10A6200082B003468DF807309DF807305A1C074B5F
:10A6300083FB02135910D317C91A0B469B000B4416
:10A64000D11ACBB2184602B0704700BF6766666683
:10A6500082B001900091009BDB7B012B04D1009B19
:10A660009A88019BA3F8242400BF02B0704700B56C
:10A6700085B001900091019B002283F82E24009B5D
:10A680009A88019BB3F824349A4216D1019B1B7916
:10A6900083F00103DBB2002B0FD00121019800F001
:10A6A000B1FA0390039B002B07D0019B9B6B002BFF
:10A6B00003D0019B9B6B0398984700BF05B05DF8E2
:10A6C00004FB00B585B001900091009B1B88262BF0
:10A6D0001ED1009B1B7A012B03D0009B1B7A022BFF
:10A6E00017D1019B9B781846FFF79AFF034619463E
:10A6F000019800F087FA0390039B002B09D0019B7F
:10A700009B6B002B05D0019B9B6B0398984700E047
:10A7100000BF05B05DF804FB00B585B001900B46A5
:10A720008DF80330019B03F227431846FFF761FFC2
:10A7300003468DF80F309DF80330013B032B33D8CF
:10A7400001A252F823F000BF59A702007DA7020022
:10A7500091A702009DA70200019B9B79002B0DD0C1
:10A76000019B93F8243083F00103DBB2002B05D06A
:10A770009DF80F30002B01D0012316E0019BDB79FF
:10A78000002B05D09DF80F30002B01D002230CE0E8
:10A79000019B1B7A002B01D0032306E0019B5B7A0F
:10A7A000002B01D0042300E00023184605B05DF81B
:10A7B00004FB00BF82B001900091019B012283F84D
:10A7C0003120019B0022C3F82024019B03F2264282
:10A7D000009B5A60009B00229A60009B02221A7024
:10A7E000009B80229A810023184602B0704782B0F5
:10A7F00001900091019B022283F83120019B93F884
:10A800002430002B03D0009B07221A7002E0009B2B
:10A8100003221A70019B1B699AB2009B9A81019BCB
:10A820000022C3F82024019B03F22642009B5A60B9
:10A83000019BDA68009B9A600023184602B07047BB
:10A8400000B583B00190019B5B79002B0FD0019B79
:10A8500093F82E3483F00103DBB2002B07D001986C
:10A86000FFF7BFFE0346002B01D0012300E00023C9
:10A8700003F00103DBB2184603B05DF804FB00B53A
:10A8800085B001900B468DF80330019BD3F810047E
:10A89000019BB3F8143401221946FFF774FE0390AC
:10A8A000039B002B03D0039B9DF803201A70019B90
:10A8B00003F15400019B03F58261019B3C331A466E
:10A8C000FFF787FE0346184605B05DF804FB00B5A8
:10A8D00085B001900091019B5A69009B9A60019B91
:10A8E0009B699AB2009B9A81019B93F82430002BBC
:10A8F00004D0019B062283F83C2003E0019B012247
:10A9000083F83C200198FFF79BFF0346002B13D0F0
:10A91000009B02221A7504210198FFF7B0FF0390F3
:10A92000039B0293029B002B01D0029B0FE0019B33
:10A93000052283F8312003E0019B032283F83120B4
:10A94000019B03F58262019BC3F820240023184673
:10A9500005B05DF804FB00B585B001900091019B46
:10A96000DA69009B9A60019B1B6A9AB2009B9A81EC
:10A97000019B93F82430002B04D0019B062283F81E
:10A980003C2003E0019B012283F83C200198FFF763
:10A9900057FF0346002B13D0009B02221A75042197
:10A9A0000198FFF76CFF0390039B0293029B002B1F
:10A9B00001D0029B0FE0019B062283F8312003E0C7
:10A9C000019B042283F83120019B03F58262019BE5
:10A9D000C3F820240023184605B05DF804FB82B0BC
:10A9E0000190019B9B78002B06D0019B93F82030AF
:10A9F000002B01D000230AE0019B9B6A042B03D0AB
:10AA0000019B5B6A042B01D1002300E0012318465F
:10AA100002B0704784B00190019B93F82430002B62
:10AA200003D0EE23ADF80E3002E01F23ADF80E3058
:10AA3000BDF80E30184604B0704782B001900B4646
:10AA40008DF80330019B9DF8032083F8302000BF70
:10AA500002B0704730B587B001900091009B002B89
:10AA600002D0019B002B01D10E23B8E0009B78336C
:10AA70001846FFF7B4FF034683F00103DBB2002B57
:10AA800001D00723ABE0019B00229A70019A009B42
:10AA9000141D03F178050FCD0FC40FCD0FC495E839
:10AAA000070084E80700019B002283F83020009B08
:10AAB000D3F8A420019B5A63009BD3F8A820019BE4
:10AAC0009A63019B4FF6FF72A3F82424019B03F5C0
:10AAD0008262019BC3F82024019B03F226430722D4
:10AAE0000021184608F0DDFF019B1B7883F001036D
:10AAF000DBB2002B03D0019BFF2283F85420019B83
:10AB000003F15502019BC3F810240198FFF782FF5F
:10AB100003461A46019BA3F814240098019B03F1F5
:10AB20005501019B03F214431A46FFF7BBFB059046
:10AB3000059B0493049B002B01D0049B4FE0019BD9
:10AB400003F23122019BC3F818240198FFF762FF3A
:10AB500003461A46019BA3F81C24009B03F13C000A
:10AB6000019BD3F81814019B03F21C431A46FFF70C
:10AB700099FB0590059B0393039B002B01D0039B3E
:10AB80002DE0019B012283F85120019B9B699AB221
:10AB9000019BA3F84820019B012283F83C20019BE4
:10ABA00000221A64019B002283F85020019B5A69FD
:10ABB000019B5A64019B03F15400019B3C331A46EC
:10ABC0000021FFF706FD0590059B0293029B002BD9
:10ABD00001D0029B03E0019B01221A70059B1846DD
:10ABE00007B030BD82B00190019B1B68012B03D0E0
:10ABF000019B1B68022B01D1012300E000231846B2
:10AC000002B0704700B585B001900B468DF8033057
:10AC1000019B1B7883F00103DBB2002B01D00823DA
:10AC200009E1019B9DF803209A70019B03F22643E2
:10AC300007220021184608F034FF019B9B79002B66
:10AC400003D0019B9B78012B0FD0019BDB79002B5C
:10AC500003D0019B9B78012B07D0019BDB79002B54
:10AC600014D0019B9B78022B10D1019B5B6B002BB6
:10AC700008D0019B012283F82D24019B5B6B0820E7
:10AC8000984703E0019B002283F82D249DF80330B0
:10AC900019460198FFF740FD03461A46019B9A703A
:10ACA000019B5B6B002B20D0019B9B78032B03D077
:10ACB000019B9B78042B18D1019B5B79002B14D04E
:10ACC000019B93F82E3483F00103DBB2002B0CD0F0
:10ACD000019B002283F83024019B012283F82F245A
:10ACE000019B5B6B0720984703E0019B002283F8E0
:10ACF0002F24019B3C3318220021184608F0D1FE76
:10AD0000019B012283F83C20019B2C331846FFF75E
:10AD100069FF0346002B06D0019BDB6ADAB2019B78
:10AD200083F8512003E0019B012283F85120019B0D
:10AD300093F82430002B12D0019B28331846FFF7DC
:10AD400051FF0346002B06D0019B9B6ADAB2019BA0
:10AD500083F8522003E0019B012283F85220019BDB
:10AD6000002283F85020019B9B78042B31D801A24C
:10AD700052F823F0C9AD020089AD020099AD02007E
:10AD8000A9AD0200B9AD0200019B3C331946019800
:10AD9000FFF710FD03901DE0019B3C33194601981D
:10ADA000FFF725FD039015E0019B3C331946019800
:10ADB000FFF78DFD03900DE0019B3C331946019890
:10ADC000FFF7C9FD039005E0019B002283F83120C5
:10ADD00000E000BF019B9B78002B20D0019B03F17A
:10ADE0005400019BD3F82014019B3C331A46FFF713
:10ADF000F0FB0390039B002B01D0039B1BE0019B06
:10AE000093F85420019B93F8303019461046FFF711
:10AE1000E4FB0390039B002B01D0039B0BE0019B01
:10AE20005B6B002B06D0019B5B6B019A92F8312083
:10AE3000104698470023184605B05DF804FB00BF94
:10AE400000B585B001900091009B0393019B1B8886
:10AE5000262B10D0262B13DC102B02D0112B05D063
:10AE60000EE001990398FFF7F3FB0AE001990398BC
:10AE7000FFF7FDFB05E001990398FFF722FC00E0D6
:10AE800000BF00BF05B05DF804FB75DF704700BF71
:10AE9000184676DF704700BF18467ADF704700BF5C
:10AEA00018467BDF704700BF1846000084B0034699
:10AEB000ADF806300023039316E00F49039A1346BA
:10AEC0009B0013449B000B441B88BDF806209A424C
:10AED00007D1039A13469B0013449B00064A134470
:10AEE00006E0039B01330393039B002BE5D0002373
:10AEF000184604B0704700BFD433002082B00190E0
:10AF00000B46ADF80230019BBDF802201A80019B70
:10AF100000221A72019B054903F10A020B4603CB7A
:10AF20001060516000BF02B0704700BF04340020C1
:10AF300082B00190019B4FF6FF721A8000BF02B0F1
:10AF4000704788B00390029111461A460B46ADF83F
:10AF500006301346ADF80430039B9B881A46BDF8B3
:10AF6000063013440793039B9B881946039B9B88D9
:10AF7000BDF80620934228BF13469BB2CB1A069316
:10AF8000039BDB881A46BDF8043013440593039BEA
:10AF9000DB881946039BDB88BDF80420934228BF59
:10AFA00013469BB2CB1A0493029B5A88039B1B88BF
:10AFB0009A4205D3029B5A88039B5B889A4201D927
:10AFC00000231CE0029B9B881A46069B934205D8EF
:10AFD000029B9B881A46079B934201D200230EE0F6
:10AFE000029BDB881A46049B934205D8029BDB88B0
:10AFF0001A46059B934201D2002300E00123184624
:10B0000008B0704700B583B00190064B9B69002BD8
:10B0100003D0044B9B690198984700BF03B05DF8CB
:10B0200004FB00BFE833002000B585B00346009163
:10B03000ADF80630BDF8063000991846FFF725FF39
:10B040000390039B002B05D0039B112B02D0039888
:10B05000FFF7D8FF039B002B0CBF01230023DBB2BB
:10B06000184605B05DF804FB00B589B00190019B5E
:10B070000793079B9BB21846FFF718FF0690069BA5
:10B08000002B42D0069B1A7A224B1B7B9A4215D288
:10B09000079B9AB2069B0A3319461046FFF7C4FF76
:10B0A00003468DF813309DF81330002B2DD0069BEE
:10B0B0001B7A0133DAB2069B1A7226E0069B002245
:10B0C0001A72144B1B7C002B0FD0079B9BB23B21A9
:10B0D0001846FFF7DEFE0590059B002B05D0059B6B
:10B0E000082B02D00598FFF78DFF0A4B5B69002BF8
:10B0F0000BD000238DF80C30079B9BB2ADF80E30BF
:10B10000044B5B6903AA1046984700BF09B05DF87D
:10B1100004FB00BFE833002030B587B00190019BED
:10B12000002B01D10E2353E02B4A019B14461D46F0
:10B130000FCD0FC495E8070084E80700264B274A87
:10B140001A60019B1B68002B11D0019B1B681846DD
:10B15000FFF7A3FE0490049B002B01D0049B37E073
:10B16000019B1A681D4B1068516803C308E01B4817
:10B17000FFF797FE0490049B002B01D0049B27E06F
:10B180000023059320E0059A13469B0013449B007F
:10B19000134A134403930398FFF7CAFE059B5B0110
:10B1A000104A1A44039B5A60039B04330E4A002141
:10B1B000184604F04BFF0490049B002B01D003239E
:10B1C00006E0059B01330593059B002BDBD0002394
:10B1D000184607B030BD00BFE8330020043400201B
:10B1E000D4330020B433002069B0020000B587B02A
:10B1F00003460091ADF80630009B5B7A002B1AD114
:10B20000009B1B7A002B03D1164B5B68059302E071
:10B21000144B9B680593009B5B68BDF8062005995D
:10B22000184604F043FF0490049B002B16D00498AA
:10B23000FFF7E8FE12E0009B00221A72094B5B69DF
:10B24000002B0BD001238DF80C30BDF80630ADF883
:10B250000E30044B5B6903AA1046984700BF07B045
:10B260005DF804FBE833002000B585B00190019B38
:10B27000DB7B8DF80F30019B9B88ADF80C309DF87F
:10B280000F30012B2CD14FF6FF70FFF70FFE02900D
:10B29000029B002B03D10420FFF7B4FE21E0BDF890
:10B2A0000C3019460298FFF729FE029B03F10A00B1
:10B2B000019B03F110014FF6FF7340F2F312FFF709
:10B2C00040FE03461A46029B5A72074BDB89002B4D
:10B2D00007D1BDF80C3002991846FFF787FF00E050
:10B2E00000BF05B05DF804FBE833002000B587B06F
:10B2F0000190019B9B88ADF81630BDF816301846BA
:10B30000FFF7D4FD0490049B002B0ED0049B5B68D8
:10B31000184604F001FF0390039B002B02D0039812
:10B32000FFF770FE0498FFF703FE00BF07B05DF85B
:10B3300004FB000000B587B00190019B0633059324
:10B34000059B1A88194BDB899A422BD1059B5B8997
:10B35000022B27D1019B9B88ADF81230BDF812302B
:10B360001846FFF7A3FD0390039B002B1AD0059B03
:10B370000C33184600F074FA0346002B06D0BDF8D3
:10B38000123003991846FFF731FF0BE0039B5B680F
:10B39000184604F0C1FE0290029B002B02D00298D6
:10B3A000FFF730FE00BF07B05DF804FBE833002074
:10B3B00000B585B00190019B9B88ADF80E30BDF8BB
:10B3C0000E301846FFF772FD0290029B002B15D03D
:10B3D000029B03F10A00019B03F108014FF6FF7382
:10B3E00040F2F312FFF7ADFD03461A46029B5A7274
:10B3F000BDF80E3002991846FFF7F8FE00BF05B001
:10B400005DF804FB00B583B001900091019B1B889F
:10B41000502B12D0502B18DC122B12D0122B14DC14
:10B42000102B02D0112B04D00FE00198FFF71CFF66
:10B430000CE00198FFF75AFF08E00198FFF77AFF48
:10B4400004E00198FFF7B4FF00E000BF00BF03B0C5
:10B450005DF804FB30B58FB001900091002302939A
:10B46000009B002B1AD000230D9314E06B460D991E
:10B47000184604F0F5FF0346002B09D0029B5A1C26
:10B4800002920D9A92B25B000EA90B4423F82C2C69
:10B490000D9B01330D930D9B132BE7D9019B1D468B
:10B4A00002AC0FCC0FC50FCC0FC594E8070085E8A0
:10B4B000070001980FB030BD00B583B00346ADF86A
:10B4C0000630BDF80630132B01D900230CE0BDF87F
:10B4D00006301946064804F092FFBDF806301946BA
:10B4E000044804F08CFF0123184603B05DF804FB08
:10B4F000143400201034002000B585B00346ADF8A8
:10B500000630002303930DE0039B9B00094A13447C
:10B510000433BDF806201146184604F088FF039B4B
:10B5200001330393039B1D2BEED900BF00BF05B071
:10B530005DF804FB0C34002000B583B00346ADF881
:10B540000630BDF806301946034804F070FF00BF0E
:10B5500003B05DF804FB00BF1434002030B59BB08D
:10B56000184B9B68DB431893164B5A6818AB11466F
:10B57000184604F0D4FF189A6B4611461846FFF798
:10B5800069FF0DAC6D460FCD0FC40FCD0FC495E80C
:10B59000070084E80700002319930BE0199B5B0068
:10B5A0001AAA134433F8303C1846FFF7A5FF199B3D
:10B5B000013319930D9B199A9A42EFD300BF00BF34
:10B5C0001BB030BD0C34002000B583B001900B4699
:10B5D000ADF8023013468DF801309DF80130002B94
:10B5E00006D0BDF802301946019804F008FF05E0C6
:10B5F000BDF802301946019804F019FF00BF03B0EE
:10B600005DF804FB00B585B001900091019B9B881B
:10B61000ADF80E30019B1B88103B0A2B00F288808E
:10B6200001A252F823F000BF55B6020091B6020005
:10B6300031B7020031B7020031B7020031B7020062
:10B6400031B7020031B7020031B70200FBB6020089
:10B650009DB60200FFF782FFBDF80E301846FFF7D7
:10B660002BFF034683F00103DBB2002B05D0324AE7
:10B67000F021042003F03CFE57E0019BDB7B022B12
:10B6800053D1BDF80E3019462C4804F0B8FE4CE0FA
:10B69000BDF80E301846FFF74FFF49E0019B1B7ABB
:10B6A000C3F30313DBB28DF80D309DF80D30032B7F
:10B6B0008CBF01230023DAB2BDF80E3019462048B2
:10B6C000FFF782FF9DF80D30022B8CBF0123002372
:10B6D000DAB2BDF80E3019461A48FFF775FF9DF82B
:10B6E0000D30012B8CBF01230023DAB2BDF80E30E0
:10B6F00019461548FFF768FF1AE0019B1B7A002BDB
:10B7000015D1019B5B7AC3F3C003DBB2002B14BFDE
:10B71000012300238DF80C309DF80C20BDF80E306D
:10B7200019460748FFF750FF01E000BF00E000BFE7
:10B7300000BF05B05DF804FB50480300183400203A
:10B7400024340020203400201C34002000B583B0B5
:10B750000346ADF80630BDF80630132B01D900239F
:10B7600006E0BDF806301946034804F079FE0346AA
:10B77000184603B05DF804FB1034002000B583B018
:10B780000346ADF80630BDF806301846FFF7DEFF79
:10B790000346002B02D0BDF8063000E01423184603
:10B7A00003B05DF804FB00B587B003900B4601922F
:10B7B000ADF80A30019B002B01D10E2338E0019B2C
:10B7C00000221A60039B002B01D10E2330E0039B63
:10B7D0001B68002B01D10E232AE0039BDB8803F0BA
:10B7E00003039BB2002B01D0072321E0BDF80A30F0
:10B7F0001846FFF7C3FF03468DF817309DF8173042
:10B80000142B01D1052313E0039B1B799DF817200E
:10B810009A4201D304230BE0039B1B689DF8172079
:10B820000399C98801FB02F21A44019B1A600023A4
:10B83000184607B05DF804FB82B00190019B1B78AD
:10B840001AB2019B01331B781B021BB213431BB2BC
:10B850009BB2184602B07047AADF704700BF184677
:10B8600000B585B001900198FFF7E6FF0346ADF8FB
:10B870000E30BDF80E3003F00103002B14BF01237E
:10B880000023DBB2184605B05DF804FB82B0034626
:10B8900000918DF80730009A13786FF3030313704B
:10B8A000009A13786FF3071313709DF80730052B78
:10B8B0005BD801A252F823F0D1B80200E7B8020029
:10B8C00001B902001BB9020035B902004FB90200EC
:10B8D000009A13786FF303031370009A13786FF3D1
:10B8E0000713137040E0009A1378012161F30303FA
:10B8F0001370009A1378012161F30713137033E07A
:10B90000009A1378012161F303031370009A1378EE
:10B91000022161F30713137026E0009A13780121C6
:10B9200061F303031370009A1378032161F3071383
:10B93000137019E0009A1378022161F30303137066
:10B94000009A1378012161F3071313700CE0009A39
:10B950001378022161F303031370009A1378022114
:10B9600061F30713137000BF00BF00BF02B0704740
:10B9700000B595B0034602910192ADF80E30029BDE
:10B980009B78002B03D101238DF81E3003E0029B2E
:10B990009B788DF81E30029B1B88ADF81C3006ABDF
:10B9A00003220021184608F07CF8029B5B7C06AA63
:10B9B00011461846FFF76AFF029B9A7C06AB0133DB
:10B9C00019461046FFF762FF029BDA7B9DF81A309A
:10B9D00062F3C3038DF81A30029B1A7C9DF81A306B
:10B9E00062F304138DF81A30029B1A7B9DF81A300B
:10B9F00062F300038DF81A30029B1B7D002B01D0EF
:10BA0000022200E001229DF81A3062F342038DF811
:10BA10001A300DAB1C220021184608F042F8029B98
:10BA20005B7B03F01003DBB2002B06D1029B5B7B38
:10BA300003F02003DBB2002B24D004AB032200214F
:10BA4000184608F02EF8029BDA7C04AB0133194645
:10BA50001046FFF71BFF9DF81030012262F303032D
:10BA60008DF810309DF81030012262F307138DF825
:10BA700010309DF81230012262F342038DF812302B
:10BA800004AB1293029B5B7B8DF83430029B9B7B53
:10BA90008DF8353008AB14220021184608F001F863
:10BAA00007AB089306AB0993029B9B88ADF82C303B
:10BAB000029B9B68002B06D0029BDB88ADF82830E8
:10BAC000029B9B680C93029B9B69002B4FD005AB9C
:10BAD00003220021184607F0E4FF029B9B691B88A4
