:1000000000000420750300005D0300005F03000092
:1000100061030000630300006503000000000000AE
:100020000000000000000000000000006703000066
:1000300069030000000000006B0300006D03000076
:100040006F0300006F030000150800006F0300003D
:100050006F0300006F0300006F0300006F030000D8
:100060006F0300006F0300006F0300006F030000C8
:100070006F0300006F0300006F0300006F030000B8
:100080006F0300006F0300006F0300006F030000A8
:100090006F0300006F0300006F0300006F03000098
:1000A0006F0300006F0300006F0300006F03000088
:1000B0006F0300006F03000000000000000000005C
:1000C0006F0300006F0300006F0300006F03000068
:1000D0006F0300006F0300006F0300006F03000058
:1000E0006F0300006F0300006F03000000000000BA
:1000F000000000006F030000000000006F0300001C
:1001000000000000000000000000000000000000EF
:1001100000000000000000000000000000000000DF
:1001200000000000000000000000000000000000CF
:1001300000000000000000000000000000000000BF
:1001400000000000000000000000000000000000AF
:10015000000000000000000000000000000000009F
:10016000000000000000000000000000000000008F
:10017000000000000000000000000000000000007F
:10018000000000000000000000000000000000006F
:10019000000000000000000000000000000000005F
:1001A000000000000000000000000000000000004F
:1001B000000000000000000000000000000000003F
:1001C000000000000000000000000000000000002F
:1001D000000000000000000000000000000000001F
:1001E000000000000000000000000000000000000F
:1001F00000000000000000000000000000000000FF
:10020000354936480A1A02D0072291438D463449AF
:1002100034480A1A06D00722914381F30988022242
:1002200082F3148830483149314A00F044F83148AB
:100230003149324A00F03FF831483249324A00F041
:100240003AF832483249334A00F035F832483349F7
:10025000334A00F030F833483349344A00F02BF881
:1002600033483449344A00F026F8344834490022EF
:1002700000F02CF833483449002200F027F83348C6
:100280003349091A082902DB002202604160314A21
:1002900090471F481F49884205D00268043003B4C4
:1002A000904703BCF7E700208646EC46002000217B
:1002B000294A9047FEE7884207D0521A05D00378B2
:1002C00001300B700131013AF9D17047884202D0F8
:1002D00002700130FAE770470000042000E00320BC
:1002E0000000042000000420F01C0000000000209A
:1002F00018000020D0030000D0030000681C00009C
:10030000F01C00000000002000000020681C00001D
:10031000681C0000681C0000681C0000681C0000CD
:10032000681C0000681C0000681C0000F01C000035
:10033000081D0000180000201800002018000020F0
:10034000B8020020B8020020B8020020B802002045
:10035000B82200209D03000021120000FEE7FEE706
:10036000FEE7FEE7FEE7FEE7FEE7FEE7FEE7FEE765
:1003700000F002B8FFF7FCBF0F484FF007018843B9
:1003800085460E4880470E48016841F470010160BF
:10039000BFF34F8FBFF36F8FFFF732BF09480A4992
:1003A0000A4A884207D0521A05D0037801300B70F0
:1003B0000131013AF9D1704700000420C512000054
:1003C00088ED00E0681C0000000000200000002014
:1003D000074B1B5C1F2B86BF064903F01F034FF022
:1003E000A041012202FA03F3C1F80835704700BFAB
:1003F000681C00000003005008B50020FFF7E8FF6C
:100400000120FFF7E5FF0220FFF7E2FFBDE808400B
:100410000320FFF7DDBFC20710B504460CD54FF02F
:10042000A0430322C3F83427C3F83827C3F83C2776
:10043000C3F84027FFF7E0FFA3070AD54FF0A0431A
:100440000C22C3F82C27C3F83027C3F86027C3F861
:10045000642710BD1FB50021039001AA44F20100DA
:10046000CDE9011100F004F805B05DF804FB0000CF
:1004700072B6094BD3F8F020D20700D500BEBFF307
:100480004F8FD968054A01F4E0610A43DA60BFF38F
:100490004F8F00BFFDE700BF00ED00E00400FA054C
:1004A00049B152B1531E1A4007D182600160838066
:1004B000C260104670470E2070470920704710B583
:1004C0008468C2688388121B934208D3C2681340B1
:1004D0000268D154C3680133C360002010BD0420FA
:1004E000FCE78268C3689A420AD082688388134016
:1004F0000268D35C0B70836801338360002070470F
:10050000052070470648074A03780749D35C012253
:1005100013B1043000F00EBE0C3000F0B7BB00BFCA
:100520000000002058000020400000200648074A34
:1005300003780749D35C012213B1043000F0ACBD4D
:100540000C3000F053BB00BF00000020580000201A
:100550004100002037B50578012D0DD0022D30D097
:1005600075B91F491F48FFF7BCFF002834D103B0FD
:10057000BDE83040FFF7DABF037A1BB9FFF7C2FFCF
:1005800003B030BD4368184C19782046FFF797FF39
:1005900080B18DF800500190144B68461B68984755
:1005A000A168E368A2885B1A9A42E7D2104B012245
:1005B0001A70E5E7A268E3689A42F1D08DF800006E
:1005C000EAE7C3688DF800500193FFF79BFF074BE4
:1005D00068461B689847D3E703238DF80030F6E799
:1005E00041000020300000201C00002018000020E6
:1005F0002C000020F0B51F46234B89B004461A603A
:100600000D4600293DD08A8820480968FFF748FF39
:10061000002834D1AA89A9681D48FFF741FF0028A6
:100620002DD11C4E0FCE6D460FC596E80F0085E804
:100630000F0063690693237C174A18488DF81C70D5
:10064000003B18BF01238DF81430637C002B14BFCE
:100650000E2300238DF81530E3680293A3680393FB
:100660002368019369466368009300F095F830B9F8
:100670000B4B18702368013301D0FFF743FF09B01B
:10068000F0BD0720FBE700BF180000201C00002081
:10069000300000206C1C0000550500000000002008
:1006A0002C00002010B501460E48FFF708FF044655
:1006B000A8B90D480D4A0378D35C63B1043000F04B
:1006C000DFFC60B90A490748FFF70BFF38B9BDE8FE
:1006D0001040FFF72BBF0C3000F07CFAF1E720460A
:1006E00010BD00BF30000020000000205800002096
:1006F0004100002072B6024A13680133136070474C
:1007000044000020034A1368013B136003B962B63A
:10071000704700BF44000020FFF7ECBFFFF7F2BFB7
:1007200010B50446C0B2FFF7BDFF204610BD000063
:100730001FB503788DF800304368019383688DF806
:100740000830C368054A0393054B684653F82130C7
:1007500052F82110984705B05DF804FB48000020CE
:10076000500000201FB503788DF8003043680193D6
:1007700083688DF80830C368054A0393054B6846C3
:1007800053F8213052F82110984705B05DF804FB6A
:100790004800002050000020F0B5194B90F800C030
:1007A000DFF86CE043F82C20164B16460A6943F834
:1007B0002C204B7F0EF80C300C4607460FCC89B02E
:1007C0006D460FC594E80F0085E80F003B78CDF823
:1007D00010C01EF803304BB1002E0B4A694608BF0B
:1007E0003246381D00F070FB09B0F0BD002E074AFC
:1007F000694608BF324607F10C0000F01BF9F3E729
:10080000500000204800002031070000650700006C
:1008100058000020014B1B68184700BF5C000020F7
:1008200038B50B4B98420C4601D0002038BD002053
:10083000FFF772FF074B1D7915B901221C601A7171
:100840000020FFF76BFF002DEFD01120EEE700BF77
:10085000002000405C0000200023435082B0435839
:100860000193019B02B070470A4610B54FF48E7198
:10087000FFF7F2FF136A9168C95C136A01331362D0
:10088000C0F81C1510BD024608B500684FF49271FF
:10089000FFF7E2FF10684FF48471FFF7DDFF136884
:1008A00001221A6008BD8B690A4610B54FF48471A5
:1008B00023B9FFF7D1FFD0F8183510BDFFF7CCFFF3
:1008C000536AD168D0F81805C854536A013353628B
:1008D000F3E700001FB501238DF80030044BCDE98C
:1008E0000110D3E900126846904705B05DF804FB9B
:1008F0006400002030B54D4DD5F804339A0585B01D
:1009000051D5D5F82431002B4DD04FF492712846A3
:10091000FFF7A2FF4FF40173C5F80833444B93F877
:1009200029200AB901226A60404902228DF800207C
:10093000D1F88024C1F8802403929A690292DA687F
:1009400001920022C3E906226846D3E900129047CB
:100950003648D0F81C315BB1354A5169136A994267
:100960004DD992F82830002B49D11146FFF77CFF72
:100970002E48D0F84431002B56D04FF4A271FFF727
:100980006BFF2B4B93F829200AB1012202609A6970
:10099000002A49D0586AD96800229A6105B0BDE89A
:1009A0003040FFF797BFD5F804335B07D0D5D5F8B3
:1009B0000831002BCCD01E4C1C482146FFF773FF9A
:1009C000636AA2699A42C3D1E369E1684BB1A3614A
:1009D0002369E3600023606AE3616362FFF77AFFE3
:1009E000B6E794F829300BB901236B600F4B4FF435
:1009F0000172C3F808230023606AA361EEE70B4885
:100A00004FF48E71FFF728FF5369002BB0D0516966
:100A10000291002391688DF800300191536168467E
:100A2000D2E900139847A3E705B030BD002000408D
:100A3000640000202DE9F843604D90F804802C23D9
:100A400003FB0853064693F82A300C469146002BC8
:100A500040F0AF805A490068FFF7E2FE07460028E1
:100A600040F0A9802268531C10D01F2A87BF554927
:100A700002F01F0313464FF0A0410120984003F5F8
:100A8000E073C1F80805032041F823006168481CA1
:100A90000DD01F298BBF01F01F030B4649484FF0B3
:100AA000A04003F5E0734FF0000C40F823C030681D
:100AB000A369C0F8243594F814C0637DBCF1010F1C
:100AC0004CEA0303C0F86C35C0F81415C0F80C25C7
:100AD0002BD1A368591C0DD01F2B8BBF03F01F0215
:100AE0001A4638494FF0A04102F5E0724FF0000C71
:100AF00041F822C0E1684A1C13D01F2987BF314A40
:100B000001F01F0C8C464FF0A0424FF0010E0EFA80
:100B10000CFE0CF5E07CC2F808E54FF0030E42F83D
:100B20002CE0C0F80815C0F810352C2202FB08F2A2
:100B3000AB18C3F804902369AB50B9F1000F20D073
:100B40004FF48E71247FFFF787FE4FF4A271306857
:100B5000FFF782FE32681C4BC2F80433130B42F3DA
:100B600007326101002AC9B21EDB1848841884F8D4
:100B700000130121520903F01F0301FA03F340F8A7
:100B8000223033680422C3F800252C2303FB0853CA
:100B90000022C3E9062283F829205A61012283F842
:100BA0002A203846BDE8F883094A03F00F03D154E0
:100BB000E7E70827F5E71127F3E700BF6400002007
:100BC000F5080000000300508000020000E100E092
:100BD00014ED00E00279044B2C2101FB023358692B
:100BE000003818BF01207047640000202DE9F84F3D
:100BF000064690F8048089469246FFF7EBFF0446CC
:100C000000283CD1204F2C2508FB057B4FF48E712A
:100C1000CBF814A0CBF80890CBF820008BF8280074
:100C20003068FFF719FE3068012383605946FFF7EB
:100C30001BFEDBF804305D461BBB3068DBF814405C
:100C40002B6A9C4211D83368D3F81C21002AFBD0B0
:100C50000122DA6000202C2303FB087700237B614C
:100C6000BDE8F88F95F828303BB9D0F81C31002B3F
:100C7000F8D05946FFF7F8FDE2E70F20EBE7112027
:100C8000EEE72046ECE700BF640000202DE9F047C6
:100C90003A4D07792C2303FB075306465C6824B1C1
:100CA00003684FF40170C3F808032C2303FB0753B8
:100CB000986950B1D869002841D024B133684FF405
:100CC0000172C3F80423112436E09A61D960586296
:100CD000D8612C2303FB075393F829301BB910B9B3
:100CE0003046FFF7D0FD4FF02C0808FB075A30685C
:100CF000DAF80430002B37D14FF4A271D046FFF759
:100D0000ABFD3068D0F82491D0F80831D0F84441D8
:100D1000CBB914B9B9F1000FF3D02C2303FB07555D
:100D20000023AB61B9F1000F24D12CBB95F8291039
:100D300033680122B1B11A602046BDE8F08719611D
:100D4000DA610120C5E7B9F1000FE6D1002CE4D14A
:100D50004146FFF7A8FDDAF82430DAF818209A4265
:100D6000CFD8DAE75A60E7E74FF40173C0F80433ED
:100D70000024E1E70324DFE70F24DDE7640000201F
:100D80000023435082B043580193019B02B0704747
:100D90001FB501238DF80030044BCDE90110D3E9D4
:100DA00000126846904705B05DF804FB90000020F3
:100DB0007FB5434AD2F82461002E60D010464FF42C
:100DC0009271FFF7DDFF02238DF80030D2F88034F6
:100DD000C2F880340393D2F83C350293394BDA6879
:100DE00001920022C3E906226846D3E90012904727
:100DF0003348D0F8443173B14FF4A271FFF7C0FF0C
:100E0000304B9A693AB10022C3E90622D968D0F87A
:100E10003C05FFF7BDFF2A48D0F82031ABB14FF4B5
:100E20009071FFF7ADFF0123C360264B5A6962B191
:100E3000D0F84C150291002299688DF8002001919C
:100E40005A616846D3E9001290471D48D0F85831DE
:100E50009BB14FF4AC71FFF793FF1A4B5A6962B123
:100E6000D0F84C150291002299688DF8002001916C
:100E70005A616846D3E90012904704B070BDD2F8B9
:100E80001031002BB4D04FF488711046FFF778FF73
:100E90000C4BD2F83C0599698842A9D1DC69D96824
:100EA00064B1D2F8005225F02005C2F800521A6948
:100EB0009C61DA60DE61FFF76BFF99E79C61FAE7FE
:100EC00000200040900000202DE9F843664E90F885
:100ED0000480242303FB0863044693F820300D4666
:100EE0009146002B40F0BC8060490068FFF798FCF9
:100EF0000746002840F0B68029684B1C10D01F29F7
:100F000087BF5B4A01F01F030B464FF0A042012050
:100F1000984003F5E073C2F80805032042F8230067
:100F20006A68501C0DD01F2A8BBF02F01F031346A6
:100F30004F484FF0A04003F5E0734FF0000C40F82D
:100F400023C02068AB69C0F8243595F814C06B7DC8
:100F5000BCF1010F4CEA0303C0F86C35C0F80C1566
:100F6000C0F814252BD1AB68591C0DD01F2B8BBF9B
:100F700003F01F021A463E494FF0A04102F5E0720D
:100F80004FF0000C41F822C0E9684A1C13D01F2919
:100F900087BF374A01F01F0C8C464FF0A0424FF03C
:100FA000010E0EFA0CFE0CF5E07CC2F808E54FF0DD
:100FB000030E42F82CE0C0F80815C0F810352422C2
:100FC00002FB08F2B318C3F804902B69B350B9F1CF
:100FD000000F2FD04FF488712A7FFFF7D1FE2068D1
:100FE0004FF49071FFF7CCFE20684FF49271FFF739
:100FF000C7FE20684FF4A271FFF7C2FE4FF4AC7138
:101000002068FFF7BDFE23681A49C3F80413190BC3
:1010100043F307335201002BD2B21CDB1648C5182C
:1010200085F8002301225B0901F01F0102FA01F19A
:1010300040F8231023680822C3F80025242303FB6B
:1010400008660023C6E906337361012386F8203061
:101050003846BDE8F883094B01F00F015A54E9E71F
:101060000827F5E71127F3E790000020B10D0000F5
:10107000000300501003420000E100E014ED00E026
:101080000279044B242101FB02335869003818BF50
:10109000012070479000002001F06043B3F1005F31
:1010A0002DE9F0470646884692463BD190F80490D9
:1010B000FFF7E6FF0446002836D11D4F306824258F
:1010C00005FB09754FF49071C5F814A0C5F80880A8
:1010D000FFF756FE4FF4AC713068FFF751FE3368EE
:1010E0006A69A968C3F84415C3F8482501229A60C3
:1010F0006A68DAB9D3F82021D3F858011AB9002860
:10110000F8D00F2007E00028FBD10122DA60D3F8E5
:101110005821002AFBD0242303FB097700237B619D
:10112000BDE8F0871020FBE71120F9E72046F7E73C
:1011300090000020F8B501F06043B3F1005F044671
:101140000F465ED10379304D242101FB03514968DC
:1011500021B100684FF40476C0F80863242000FB36
:1011600003539E6956B1D869002839D021B123684C
:101170004FF40472C3F80423112030E09A61DF6059
:10118000DE6120684FF48871FFF7FAFD20684FF4A4
:10119000A271FFF7F5FD2368C3F83475C3F838254D
:1011A00016BB01221A602479242202FB04525268E1
:1011B0000ABBD3F81011D3F84421D3F8240111430A
:1011C00002D10028F5D00A46242303FB045500234E
:1011D000984218BF03209A42AB6118BF0F20F8BD98
:1011E0001F61DA610126CCE7D3F8002242F0200229
:1011F000C3F80022D7E74FF40472C3F80423002099
:10120000EDE71020EBE700BF900000200378022BF1
:1012100002D14068FFF71EB9012BFAD070470000D9
:1012200030B5114D8BB00120FFF7F5F80FCD04ACB0
:101230000FC495E803000D4B0D4A00934FF48073E3
:1012400084E80300CDE9022301930A4A0723694693
:1012500004A8FFF7CFF908B1FFF7FCF8064800F043
:101260009BF900200BB030BDA41C0000B40000208E
:10127000B40100200D1200008C1C00004FF08053C0
:10128000D3F83001A0F108035842584170470000DC
:101290004FF08053D3F83021082A06D1D3F83431E7
:1012A000052B02D8024AD05C70470020704700BF6F
:1012B000C21C0000024AD2F80034002BFBD0704759
:1012C00000E0014010B5FFF7D9FF40B14FF0804377
:1012D0000022C3F80C21C3F81021C3F83825FFF70A
:1012E000CDFF002846D04FF08052654BD2F8041451
:1012F000C3F82015D2F80814C3F82415D2F80C143A
:10130000C3F82815D2F81014C3F82C15D2F8141409
:10131000C3F83015D2F81814C3F83415D2F81C14D9
:10132000C3F84015D2F82014C3F84415D2F8241499
:10133000C3F84815D2F82814C3F84C15D2F82C1469
:10134000C3F85015D2F83014C3F85415D2F8341439
:10135000C3F86015D2F83814C3F86415D2F83C14F9
:10136000C3F86815D2F84014C3F86C15D2F84424B9
:10137000C3F87025FFF78CFF18B1424B424AC3F8FF
:101380008C26FFF785FF18B1404BFB22C3F81825C8
:10139000FFF77EFF70B14FF080414FF08053D1F8DE
:1013A000E42ED3F8583222F00F0203F00F03134358
:1013B000C1F8E43EFFF76CFF20B1354B4FF40072EB
:1013C000C3F84026FFF75AFF48B14FF08043D3F8E7
:1013D0000024D20744BF6FF00102C3F800242D4A55
:1013E000D2F8883043F47003C2F88830BFF34F8FCF
:1013F000BFF36F8F4FF08053D3F83021082A0ED1FE
:10140000D3F83431052B02D8234AD35C3BB14FF0DB
:101410001023D3F808224FF08043C3F858254FF02B
:101420001023D3F80022002A03DBD3F80432002B68
:1014300022DA1A4901234FF01020C1F80435122492
:10144000FFF738FFC0F80042FFF734FFC0F804424E
:10145000FFF730FF0023C1F80435FFF72BFFBFF380
:101460004F8F0C490E4BCA6802F4E0621343CB6005
:10147000BFF34F8F00BFFDE70A4B0B4A1A6010BD48
:1014800000C00040005000404881030000F00040D0
:101490000090024000ED00E0BC1C000000E00140B4
:1014A0000400FA05140000200090D00338B58568C8
:1014B0000446084645B122686168531C8B4208BF48
:1014C00000208A420AD2A854E26823682AB16168DF
:1014D0008B4202D22146904723680133236038BDF6
:1014E00070B54D1E22D413681446C6B20EE0D05417
:1014F0002368E2682AB16168994202D9214690477F
:101500002368013D01336A1C23600FD0A26872B1C9
:10151000616803F1010C8C4514BF304600209942EC
:10152000E5D8013D63466A1C2360EFD170BD3046AB
:10153000DFE700BFC3062BD410F4007F70B514BFE3
:10154000302620264D1E22D413681446F6B20EE033
:10155000D0542368E2682AB16168994202D92146D1
:1015600090472368013D01336A1C23600FD0A268B5
:101570007AB1616803F1010C8C4514BF304600203C
:101580009942E5D8013D63466A1C2360EFD170BDE6
:1015900070473046DEE700BF0FB410B588B00AAB25
:1015A0000D4A53F8041B03936FF000400024CDE96B
:1015B00005040191079200F053FB039A019904A8D6
:1015C00000F050F8019000F04DFB019808B0BDE824
:1015D000104004B0704700BF21070000027862B1DC
:1015E00069B100EB010C034601E0634503D013F839
:1015F000011F0029F9D1181A704710467047084694
:10160000704700BF00F1010110F0030F11D010F876
:10161000012B002A23D010F0030F0AD010F8012B61
:10162000002A1CD010F0030F03D010F8012B002A61
:1016300015D02DE970004FF001324FF0803350F893
:10164000044BA4EB020525EA04051D4000D1F6E792
:10165000A0F1040070BC10F8012B002AFBD1A0EB14
:10166000010070472DE9F04F00230C46036089B05C
:1016700014F8011B03920746002900F0E582DFF809
:10168000DC9507E03846FFF711FF14F8011B00292D
:1016900000F058812529F5D12246002612F8010BC9
:1016A000302800F29E801F280ED9A0F12003102BB5
:1016B0000AD8DFE803F0AC0909A8090909A4090957
:1016C00009A0099C09098D002A2840F0FC80039B91
:1016D00010781D680433002D0393BCBF6D4246F0A3
:1016E0001006A21C2E2800F004810021742800F0AE
:1016F00092807A2800F08F806C2800F032814C288C
:1017000000F03581682800F0BE811446002800F002
:101710008880A0F12503DAB2532A00F22B81532BE3
:1017200000F22881DFE813F0EB01260126012601F3
:101730002601260126012601260126012601260171
:101740002601260126012601260126012601260161
:101750002601260126012601260126012601260151
:101760002601260126012601260126012601260141
:101770002601260126012601260126012601260131
:1017800026012601260126012601260126018200C6
:101790002601260126012601260126012601260111
:1017A00026012601D601F600260126012601260182
:1017B000F6002601260126012601500248021302E6
:1017C00026012601ED012601CB0126012601840018
:1017D00046F400761446224612F8010B30287FF6B4
:1017E00062AF5E286FD146F480561446F3E746F0A8
:1017F00010061446EFE746F020061446EBE746F4E1
:1018000000461446E7E746F080061446E3E746F054
:1018100040061446DFE7144614F8010B00287FF455
:1018200078AF4FF0FF3009B0BDE8F08F46F40056B6
:1018300016F0800A06D043F2780A43F2580378285B
:1018400018BF9A4616F4807307BF06F48042B0466C
:1018500026F4007806F48042002A61D1039A18F039
:10186000040F02F104060396126800F0A08092B201
:10187000002B65D028F400785838202800F29D808D
:10188000DFE810F073019B009B009B009B009B0016
:101890009B009B009B009B009B009B00D4009B0037
:1018A0009B009B009B00D4009B009B009B009B0027
:1018B0009B00090173019B009B009B009B00D400CF
:1018C0009B009B007301A0F13004E3B2092B4FF0A1
:1018D00000053FF607AF12F8010B05EB850504EB99
:1018E0004505A0F13004E3B2092BF4D92E287FF48A
:1018F000FCAE10782A2840F07781039B5078196855
:10190000941C0433002903932246FFF6EFAE46F4FD
:101910008076EBE646F4804806F480734FF0000AC8
:10192000039A18F0040F02F104060396126830D0EF
:1019300012B2002A31DA52424FF02D0A002B99D10F
:10194000012199E73868BB68002B3FF46CAF7A68D7
:1019500082427FF668AF00221A54386809B0BDE8A9
:10196000F08F144646F0010614F8010BCEE646F05F
:1019700001061446B54BD3F80080B8F1000F3FF4D0
:1019800084AE009103A901912B4632463946C047E7
:101990007BE618F0080FCCD0D2B218F0200F40F040
:1019A0003E8118F0400F18BF4FF0200A60E718F092
:1019B000080F3FF45DAFD2B25AE74FF0FF36002375
:1019C00021EAE17BA5EB0B05BAF1FF0FA5EB0305BF
:1019D00040F20481CAF307213846023DFFF766FD55
:1019E0005FFA8AF13846FFF761FD40463A462946DC
:1019F000FFF7A0FD3A4659463020FFF771FD731CF2
:101A00000AD001360DF1140A564416F8011D384665
:101A1000FFF74CFDB245F8D118F0100F3FF435AE8A
:101A200029463A462020FFF75BFD2EE61046002AA5
:101A300000F0068108F4004C624600238C464FF00B
:101A40002C0E114603F0030209B1032A14D01E46DE
:101A5000A9FB0032D20802EB820306F1200BA0EBB7
:101A60004303EB44303309280BF80C3C06F1010327
:101A700040F2D2801046E5E703F120026A445E1C82
:101A800002F80CECE4E71078682800F0D480541CCD
:101A900046F004063AE61046002A00F0D1800DF127
:101AA000140C002302F007023032C0080CF8012B9E
:101AB0001E46024601330028F4D1C91A80E716F405
:101AC000807300F0AF8026F4007806F480424FF077
:101AD000000AC1E6039B013D191D93F800800391A4
:101AE0003A4629463046FFF725FD41463846FFF77E
:101AF000DDFCB3461BF0100F3FF4C7AD90E7252186
:101B0000C0E5039B524A181D0390D3F800A0BAF118
:101B1000000F08BF9246F205D04626F4007B5046DF
:101B200040F18580FFF75AFD0646AD1B3A4629462F
:101B30005846FFF7FFFC002EDCD018F8011B384692
:101B4000FFF7B4FCAAEB0803F342F6D1D2E7039BFC
:101B50001A1D039216F0800F1A6846F480780CBFA5
:101B60004FF0000A4FF0230A08211046002A67D0E0
:101B700008F4005C634605AA8C460026A346194675
:101B800009E0344B000913F80E3002F8013B06F16E
:101B900001030DD01E4600F00F0E0029F1D12E4C8E
:101BA000000914F80E3002F8013B06F10103F1D1EF
:101BB00061465C46C91A03E716F0800F0CBF4FF070
:101BC000000A4FF0300A3DE6039B3A68191D039165
:101BD0001B6831074CBF1A701A6056E5BAF1000F46
:101BE0003FF403AF013DFBE6A0F13004E3B2092B63
:101BF00002F101024FF000013FF689AE12F8010B2D
:101C000001EB810104EB4101A0F13004E3B2092BA7
:101C1000F4D946F4807669E56146C91AD0E64FF0FA
:101C20002B0A25E606F48042B0469A4614E6FFF7F2
:101C3000E9FC064679E7507846F00806941C65E50D
:101C400013464FF0FF36BBE608467CE6B4020020A0
:101C5000E81C0000D81C0000C81C0000CDCCCCCC77
:081C6000704700BF704700BF90
:101C68000D0E0F10FFFFFFFFFFFFFFFFFFFFFFFF3E
:101C7800FFFFFFFF00000000000000000000D60189
:101C88000601000024504D544B3136312C302A3295
:101C9800383C43523E3C4C463E00000024000000C5
:101CA8001900000005000000070000000000000007
:101CB80000502700000000000101010000000000A2
:101CC80030313233343536373839616263646566AA
:101CD800303132333435363738394142434445465A
:081CE800286E756C6C290000E8
:101CF0000000000000200040000000000020004024
:081D0000000000000090D00378
:040000030000037581
:00000001FF
