:1010000000600020751300005D1300005F130000F6
:10101000611300006313000065130000000000006E
:101020000000000000000000000000006713000046
:1010300069130000000000006B1300006D13000036
:101040006F1300006F1300006F1300006F13000098
:101050006F130000000000006F1300006F1300000A
:101060006F1300006F1300006F1300006F13000078
:101070006F1300006F1300006F1300006F13000068
:101080006F1300006F1300006F1300006F13000058
:101090006F1300006F1300006F1300006F13000048
:1010A0006F1300006F13000000000000000000003C
:1010B0006F1300006F13000000000000000000002C
:1010C0000000000000000000000000000000000020
:1010D0000000000000000000000000000000000010
:1010E0000000000000000000000000000000000000
:1010F00000000000000000000000000000000000F0
:1011000000000000000000000000000000000000DF
:1011100000000000000000000000000000000000CF
:1011200000000000000000000000000000000000BF
:1011300000000000000000000000000000000000AF
:10114000000000000000000000000000000000009F
:10115000000000000000000000000000000000008F
:10116000000000000000000000000000000000007F
:10117000000000000000000000000000000000006F
:10118000000000000000000000000000000000005F
:10119000000000000000000000000000000000004F
:1011A000000000000000000000000000000000003F
:1011B000000000000000000000000000000000002F
:1011C000000000000000000000000000000000001F
:1011D000000000000000000000000000000000000F
:1011E00000000000000000000000000000000000FF
:1011F00000000000000000000000000000000000EF
:10120000354936480A1A02D0072291438D4634499F
:1012100034480A1A06D00722914381F30988022232
:1012200082F3148830483149314A00F044F831489B
:101230003149324A00F03FF831483249324A00F031
:101240003AF832483249334A00F035F832483349E7
:10125000334A00F030F833483349344A00F02BF871
:1012600033483449344A00F026F8344834490022DF
:1012700000F02CF833483449002200F027F83348B6
:101280003349091A082902DB002202604160314A11
:1012900090471F481F49884205D00268043003B4B4
:1012A000904703BCF7E700208646EC46002000216B
:1012B000294A9047FEE7884207D0521A05D00378A2
:1012C00001300B700131013AF9D17047884202D0E8
:1012D00002700130FAE770470060002000580020DB
:1012E000006000200060002024170000080000209B
:1012F0000C000020BC130000BC1300000C17000001
:101300002417000008000020080000200C1700002F
:101310000C1700000C1700000C1700000C17000041
:101320000C1700000C1700000C1700002417000019
:10133000281700000C0000200C0000200C000020EA
:101340000C0000200C0000200C0000200C000020ED
:101350000C0800208B13000059140000FEE7FEE784
:10136000FEE7FEE7FEE7FEE7FEE7FEE7FEE7FEE755
:1013700000F002B8FFF7FCBF0B484FF007018843AD
:1013800085460A488047FFF73BBF094809490A4A92
:10139000884207D0521A05D0037801300B70013112
:1013A000013AF9D17047000000600020FD140000F0
:0C13B0000C1700000800002008000020BE
:1013BC00044B1A5C012393404FF0A042C2F808354D
:1013CC00704700BF0C17000008B50020FFF7F0FFB6
:1013DC000120FFF7EDFF0220FFF7EAFFBDE8084010
:1013EC000320FFF7E5BF0000074A4FF0A041105C57
:1013FC00D1F804350122824022EA03001340C1F8DF
:10140C000805C1F80C3570470C170000C20708B569
:10141C0001460CD54FF0A0430322C3F83427C3F880
:10142C003827C3F83C27C3F84027FFF7CDFF8B07BD
:10143C000AD54FF0A0430C22C3F82C27C3F8302751
:10144C00C3F86027C3F8642708BD000070B50120FD
:10145C00094DFFF7DBFF45F0010500242046FFF79F
:10146C00C3FF4FF4FA764FF47A40A847013EFAD105
:10147C000134042CF2D1F0E710170000BFF34F8FAA
:10148C000549064BCA6802F4E0621343CB60BFF314
:10149C004F8F00BFFDE700BF00ED00E00400FA0530
:1014AC004FF08053D3F83001082804D0A0F10E037C
:1014BC005842584170470120704700004FF080534C
:1014CC00D3F83021082A06D1D3F83431052B02D8B1
:1014DC00024AD05C70470020704700BF1C17000008
:1014EC00024AD2F80034002BFBD0704700E00140D8
:1014FC004FF0805310B5D3F830210E2A01BFD3F82A
:10150C0044324FF08042C3F34233C2F83C35FFF70C
:10151C00C7FF40B14FF080430022C3F80C21C3F841
:10152C001021C3F83825FFF7BBFF002846D04FF039
:10153C0080526A4BD2F80414C3F82015D2F8081460
:10154C00C3F82415D2F80C14C3F82815D2F81014CB
:10155C00C3F82C15D2F81414C3F83015D2F818149B
:10156C00C3F83415D2F81C14C3F84015D2F8201463
:10157C00C3F84415D2F82414C3F84815D2F828142B
:10158C00C3F84C15D2F82C14C3F85015D2F83014FB
:10159C00C3F85415D2F83414C3F86015D2F83814C3
:1015AC00C3F86415D2F83C14C3F86815D2F840148B
:1015BC00C3F86C15D2F84424C3F87025FFF77EFFEE
:1015CC0018B1474B474AC3F88C26FFF777FF18B181
:1015DC00454BFB22C3F81825FFF770FF70B14FF095
:1015EC0080414FF08053D1F8E42ED3F8583222F0DA
:1015FC000F0203F00F031343C1F8E43EFFF75EFF45
:10160C0020B13A4B4FF40072C3F84026FFF748FF65
:10161C0048B14FF08043D3F80024D20744BF6FF099
:10162C000102C3F800244FF08053D3F830310E2B55
:10163C0001BF4FF08042D2F8E43E43F00F03C2F8F2
:10164C00E43E4FF08053D3F83021082A0ED1D3F862
:10165C003431052B02D8264AD35C3BB14FF0102312
:10166C00D3F808224FF08043C3F858254FF01021CF
:10167C00D1F80032002B03DBD1F80432002B17DA3F
:10168C001C4901234FF01020C1F804351224FFF738
:10169C0027FFC0F80042FFF723FFC0F80442FFF712
:1016AC001FFF0023C1F80435FFF71AFFFFF7E6FE12
:1016BC00D1F80C32DB070DD50E480123C0F80435E8
:1016CC000024FFF70DFFC1F80C42FFF709FFC0F82B
:1016DC000445E9E7084B094A1A6010BD00C00040F8
:1016EC00005000404881030000F000400090024090
:1016FC001617000000E00140080000200090D00305
:10170C000D0E0F100338FDD87047000000000101CA
:08171C000100000000000000C4
:041724000090D0035E
:040000030000137571
:00000001FF
