:1000000000000420750300005D0300005F03000092
:1000100061030000630300006503000000000000AE
:100020000000000000000000000000006703000066
:1000300069030000000000006B0300006D03000076
:100040006F0300006F030000991400006F030000AD
:100050006F0300006F0300006F0300006F030000D8
:100060006F0300006F0300006F0300006F030000C8
:100070006F0300006F0300006F0300006F030000B8
:100080006F0300006F0300006F0300006F030000A8
:100090006F0300006F0300006F0300006F03000098
:1000A0006F0300006F0300006F0300006F03000088
:1000B0006F0300006F03000000000000000000005C
:1000C0006F0300006F0300006F0300006F03000068
:1000D0006F0300006F0300006F0300006F03000058
:1000E0006F0300007D1900006F0300000000000096
:1000F000000000006F030000000000006F0300001C
:1001000000000000000000000000000000000000EF
:1001100000000000000000000000000000000000DF
:1001200000000000000000000000000000000000CF
:1001300000000000000000000000000000000000BF
:1001400000000000000000000000000000000000AF
:10015000000000000000000000000000000000009F
:10016000000000000000000000000000000000008F
:10017000000000000000000000000000000000007F
:10018000000000000000000000000000000000006F
:10019000000000000000000000000000000000005F
:1001A000000000000000000000000000000000004F
:1001B000000000000000000000000000000000003F
:1001C000000000000000000000000000000000002F
:1001D000000000000000000000000000000000001F
:1001E000000000000000000000000000000000000F
:1001F00000000000000000000000000000000000FF
:10020000354936480A1A02D0072291438D463449AF
:1002100034480A1A06D00722914381F30988022242
:1002200082F3148830483149314A00F044F83148AB
:100230003149324A00F03FF831483249324A00F041
:100240003AF832483249334A00F035F832483349F7
:10025000334A00F030F833483349344A00F02BF881
:1002600033483449344A00F026F8344834490022EF
:1002700000F02CF833483449002200F027F83348C6
:100280003349091A082902DB002202604160314A21
:1002900090471F481F49884205D00268043003B4C4
:1002A000904703BCF7E700208646EC46002000217B
:1002B000294A9047FEE7884207D0521A05D00378B2
:1002C00001300B700131013AF9D17047884202D0F8
:1002D00002700130FAE770470000042000E00320BC
:1002E0000000042000000420142E00000000002064
:1002F00038000020D0030000D003000034290000A3
:10030000142E0000000000200000002078290000CA
:100310007829000078290000782900007829000059
:10032000782900007829000078290000142E0000A8
:100330004C2E00003800002038000020380000203B
:100340008108002084080020840800208408002000
:10035000842800209D03000075230000FEE7FEE7CF
:10036000FEE7FEE7FEE7FEE7FEE7FEE7FEE7FEE765
:1003700000F002B8FFF7FCBF0F484FF007018843B9
:1003800085460E4880470E48016841F470010160BF
:10039000BFF34F8FBFF36F8FFFF732BF09480A4992
:1003A0000A4A884207D0521A05D0037801300B70F0
:1003B0000131013AF9D17047000004204D250000B9
:1003C00088ED00E0782900000000002000000020F7
:1003D000F0B595B01D46164608460C4600F0BAFF2B
:1003E0001A9B0D93CDE9086500252B46082205A927
:1003F00020460A958DF82C500C9500F0C7FF079BFE
:100400000293069B03939DF814308DF8115003F06E
:100410000302012A1DD1BDF81420059DC3F3C203B8
:10042000C2F383168DF81030B20008230EA92046BF
:1004300000F0ACFFC5F3952508AB0093324602AB44
:100440000EA9284600F07CFB204600F087FF15B07F
:10045000F0BD022AF8D1BDF81650C3F3C203C5F3AC
:1004600089158DF810300827082D2E4628BF08263C
:100470003B4632460EA9204600F088FFAD1B08AB74
:1004800002AA31460EA8374400F0BEFB002DEBD186
:10049000DAE7704707B5044B0093044A4023FFF79F
:1004A00097FF03B05DF804FBF10400003900002061
:1004B00030B50C4D0FCD89B06C460FC495E80F00D8
:1004C00084E80F000623084800930022694600F0E4
:1004D000A5FF08B100F0F8FB044B00221A7009B028
:1004E00030BD00BF78290000000000203800002047
:1004F00038B50D480D4C0E4D002323700378EB5C8E
:10050000D2B263B1043001F0E1FE08B100F0DCFBCF
:10051000084B1A7812B12378002BFBD038BD0C3071
:1005200001F064FCF1E700BF00000020790000202A
:10053000180600203800002008B50848084A03784B
:10054000D35C33B1043001F031FEBDE80840FFF761
:10055000AFBF0C3001F0E2FBF7E700BF0000002066
:1005600018060020FFF7A4BF08B5FFF7FBFF0448FB
:10057000042100F04FFA034B01225A7108BD00BF5D
:100580005429000014000020037813F0040216D050
:1005900003F00303012B03D0022B09D00120704785
:1005A0000A6800880232C0F3831002440A60F5E74B
:1005B0000B684288023303EB92130B60EEE71046A0
:1005C000704700002DE9F04FDFF810A10F4685B00D
:1005D0000446861C0020154600F0CCFBDAF8042007
:1005E0003A60DAF8083003F580739B1A0AF21C4768
:1005F0000AF583690AF21448B34219D30020002D8A
:1006000068D004F00F039B0143F0050363F30F0070
:10061000DAF80430DAB2033233444AF82200002018
:10062000CAF8043000F0A8FB012005B0BDE8F08F47
:100630000121384600F0C5FB484600F0DAFB404691
:1006400000F0D7FBDAF808000090C0B203300AEBE4
:1006500080006946FFF798FF009B30BBDAB20AEBD7
:100660008202D16801919A1C0133DBB20AEB830349
:100670000092D3F80CB001F00303012B22D0022B1F
:1006800015D08346404600F0B7FB10B1009BCAF876
:1006900008305946384600F094FBDAF80830DAF8AA
:1006A000042003F580739B1AA6E7D8B2CEE7BDF805
:1006B0000630C3F3891303334FEA1B4B02EB93035A
:1006C0000093DFE7BDF80430C3F383134FEA1B4BFD
:1006D0001344F5E7A40544F0060099E74C01002017
:1006E000064B074810B501221A7000F0ECFD0446D5
:1006F00010B9044800F054FE204610BD4C01002003
:1007000064290000CC29000030B50A4C71B10A4AB6
:100710000A49121BD20800239A4201D1002030BDA1
:1007200031F82350854202D00133F5E7034654F8EF
:100730003300F4E7342900005429000000000020B1
:10074000094B013903EBC000032909D8DFE801F0A8
:100750000A02040604207047007970474079704708
:10076000002070470220704734290000034BD3E972
:100770000130C31A58425841704700BF4C01002055
:100780002DE9FF41FFF7F2FF0546002840F0E98020
:10079000754CC4F81804BFF34F8FA3680093DBB205
:1007A000033304EB83006946FFF7EEFE009B18B1AC
:1007B000D4F81824002A5AD0DAB2991C013304EB79
:1007C0008202DBB204EB8303D268DB68029302F09F
:1007D0000303022B0192009154D1BDF80630634807
:1007E000C3F38917502F3E4628BF502606F1080153
:1007F00066F38F13C1F30901ADF8063000F07BFDFD
:100800000546002800F0988000F0A4FD002308228F
:1008100001A9284600F0B0FD0099CB43DBB20133BB
:10082000C9B20331B6EB830F4FEA830204EB8101B7
:1008300025D95FFA82F80823A6EB0806284600F0BF
:100840009BFDF6B208F10803494903F0FC03324668
:10085000284600F091FD009B033703EB97070097B4
:10086000D4F81834002B43D1D4F8106453E06268F4
:100870009A4294D8A260284604B0BDE8F0810823CB
:100880003246E5E7012B57D1BDF804303748C3F3B2
:100890008311062928BF062161F38913023101F073
:1008A0000F018900ADF8043000F025FD0546002851
:1008B00042D000F04FFD0023082201A9284600F095
:1008C0005BFD0026BDF80420C2F38312B3009642FC
:1008D00003F10803C4D200994A1CC9B20331009243
:1008E00004EB81010422284600F046FD0136E9E7C9
:1008F000284600F033FDFFF739FF80F00100C5B254
:10090000B9E7F3685B7923B1336829461B68304641
:100910009847F3681E68002EF3D1284600F01EFDAC
:10092000304600F027FAD4F818340BB9009BA360C6
:10093000002000F021FADEE7D4F8104454B90D4B42
:100940000D480E49C01AC008000440F0020000F033
:100950005DF8D0E7236820469B689847E3681C68E9
:10096000ECE7002587E700BF4C0100206429000068
:1009700058010020342900004C290000B52900004E
:100980002DE9F34704460E46924601A90122184676
:100990009946FFF717FE1B4F10B3019D4FF000085B
:1009A000AA1CC84508EB020123D11748002100F01A
:1009B000E5F980F31000000440EA1440E4006B1CE9
:1009C00004F03804DBB2EDB244F0010407EB83031A
:1009D000033544EA881444EA8624D86047F8254061
:1009E0003B781BB1FFF7CCFE0028FBD102B0BDE87D
:1009F000F087C9B207EB81015AF82830CB6008F1C3
:100A00000108CEE74C0100206805002000231A46AB
:100A1000FFF7B6BF30B50F4CD4F8102403460020C2
:100A2000114631B9D96808714AB9C4F810340A605E
:100A300030BDC9680D79854206D00968F1E7D268F2
:100A400014680C601360F3E701300A28E8D14FF016
:100A5000FF30EDE74C01002038B5084B0125D3F8F5
:100A600010441D7004B938BDE3685D7123682046E9
:100A70005B689847E3681C68F4E700BF4C010020FE
:100A800030B5C38885B004460D4633B1144A009290
:100A90001449154A284600F009FA217A05291DD083
:100AA000637A4BB1A088FFF74BFE104B104953F807
:100AB0002020284600F0FAF9227A0E4BA08853F83D
:100AC000222003920021FFF71FFE039A0A490346E2
:100AD000284605B0BDE8304000F0E8B905B030BDAB
:100AE000F8290000E0290000D8290000642A00004D
:100AF000FD290000882A0000002A000007B50346EF
:100B00000846197A052911D05B7A2BB1094A0A499E
:100B1000019000F0CBF901980849019000F0C6F966
:100B2000019803B05DF804EB00F0B5B9002AF8D0E5
:100B3000F2E700BFF8290000FD290000F5290000B8
:100B40002DE9F04385B01F460C9D002395F80C90CD
:100B50002B7306460C46904629463846FFF790FF11
:100B6000B8F1060F09D8DFE808F00412181F28337F
:100B700040003146284600F099F9002229463846BF
:100B8000FFF7BCFF85F80C9005B0BDE8F083226844
:100B90003146284600F08AF9EFE7D4E900233146D0
:100BA000284600F083F9E8E7A36800933146D4E9CA
:100BB0000023284600F07AF9DFE7E3680193A36891
:100BC00000933146D4E90023284600F06FF9D4E7BA
:100BD00023690293E3680193A36800933146D4E943
:100BE0000023284600F062F9C7E76369039323698D
:100BF0000293E3680193A36800933146D4E900238C
:100C0000284600F053F9B8E708292DE9F74F804648
:100C10000E4617461C463DD800251B7B25732146F2
:100C200010460193FFF72CFFDFF88CA0DFF88CB0A3
:100C3000AE4232D918F805205946204600F036F960
:100C40000135082DF4D11B49DFF874A0DFF874B02A
:100C5000204600F02BF94FF000094E4524D918F832
:100C600009507E2D1ED8284601F0B2FD002814BF81
:100C70002A462E225946204600F018F909F10109AA
:100C8000B9F1080FE9D1012221463846FFF736FFB6
:100C9000019B237303B0BDE8F08F5146204600F05E
:100CA00005F9CDE72E22E5E75146204600F0FEF893
:100CB000E4E700BF142A0000102A00000A2A0000FE
:100CC000122A0000162A00001FB50021039001AA75
:100CD00044F20100CDE9011100F004F805B05DF81F
:100CE00004FB000038B572B6FFF7B6FEFFF748FD0B
:100CF0000028FBD1104B114C114D1249E41AE408A5
:100D0000240444F00100FFF781FED5F8F030DB0742
:100D100000D500BE0C4944F00200FFF777FEBFF398
:100D20004F8FEA68094B02F4E0621343EB60BFF3B4
:100D30004F8F00BFFDE700BF342900004C290000A1
:100D400000ED00E09C2A0000A82A00000400FA053B
:100D500072B6024A1368013313607047040600201C
:100D6000034A1368013B136003B962B6704700BFC2
:100D700004060020FFF7ECBFFFF7F2BF10B50346F3
:100D800053E8000F0A4643E8002494F0000FF7D11F
:100D900010BD10B5034653E8002F42EA010043E8B6
:100DA000000494F0000FF6D110BD10B5034653E8CF
:100DB000000F00EA010243E8002494F0000FF6D18E
:100DC00010BD10B5034653E8002F02EB010043E8C5
:100DD000000494F0000FF6D110BD10B5034653E89F
:100DE000002FA2EB010043E8000494F0000FF6D1BD
:100DF00010BD0121FFF7CDBF0021FFF7D6BF10B511
:100E000090B1D0E9012301689B1ADBB20A60013B73
:100E1000DBB2FF2B026802D10020107110BD1168F7
:100E20004C1C14600B70F2E70E20F7E738B504464F
:100E30000020FFF79FFF226863681168994213D969
:100E4000481E106011F8013CE568218A01FB03553A
:100E5000A36811791B1ADBB2994200D213710020EA
:100E6000FFF78AFF284638BD0025F8E738B5054664
:100E700000200C46FFF77EFF2A681368591C11609A
:100E8000E968641A298AB4FBF1F41C70BDE83840A3
:100E90000020FFF771BF826810B504462AB143698C
:100EA0000168006998470023A36010BD0EB403B524
:100EB000039921B104AB01AA019300F077F802B0C5
:100EC0005DF804EB03B070470A2938B504460D46B7
:100ED00002D10D21FFF7F8FFA3682268591CA16019
:100EE000D554D4E901329A4204D32046BDE83840B3
:100EF000FFF7D1BF38BD00002DE9F84F9846DDE976
:100F00000A43154682460F460A464FF00109AA4297
:100F10000FD2C14538BFC14613F0010B01D16CB9E6
:100F200000240126B8F1010F1BD908F1FF386E43E8
:100F3000F8E709F10109B2FBF5F2E8E79B070ED5E6
:100F4000B8F1000F0CBF30262026A145E9D2013CA4
:100F500031465046FFF7B8FF002CF6D1E0E72026D7
:100F6000F3E7B7FBF6F39D42E1D9DFF83C80B7FB2E
:100F7000F6F3504618F8031006FB1377FFF7A4FFAB
:100F80003346AB42B6FBF5F6F1D2BBF1000F02D00F
:100F90000CB1A14501D3BDE8F88F20215046013C9A
:100FA000FFF792FFF4E700BFB52A00002DE9F74FE5
:100FB000054617468846002900F03E8118F8011BB7
:100FC00049B92B7B002B00F03781284603B0BDE8E0
:100FD000F04FFFF760BF252940F0B780002698F852
:100FE00000302D2B424608F1010823D0302B24D0AD
:100FF0002B2B25D000242A2B02F1010123D13B68A1
:101000001A1D1B683A601C440A4613782E2B26D101
:1010100001324FF0000A104610F8011BA1F1300C0C
:10102000BCF1090F1DD80A2303FB0A13A3F1300AF0
:101030000246F0E746F00106D1E746F00206CEE7A9
:1010400046F00406CBE711F8013CA3F13000092873
:10105000DBD80A2202FB0434303C0A46CBE74FF0CF
:10106000000A12F8011B01F0FB0068289046F8D036
:10107000782909D86F290CD8632962D022D825296C
:1010800063D0582900F0888098F80030002B95D163
:1010900097E770390829F7D801A353F821F000BF6A
:1010A000131200008910000089100000A91100002F
:1010B00089100000871100008910000089100000CD
:1010C00099110000642901D06929DDD13A68D2F86C
:1010D0000090111D89EAE9723960A2EBE9724FF0C4
:1010E000010B092A35DCD34538BFD3462CB1B9F101
:1010F000000F01DB720700D5013CB30702D5BAF13E
:10110000000F03D0F00701D44CBB0024B9F1000F4D
:101110002DDAC9F100092D212846FFF7D5FE06F08A
:101120000302022A04D1BAF1000F01D11CBB002432
:10113000CDE9004653460A2249462846FFF7DCFE21
:10114000A2E73B681A1D19783A602846FFF7BCFEF3
:101150009AE70A230BF1010BB2FBF3F2C1E7A345B7
:10116000D4D220212846013CFFF7AEFECCE7710720
:10117000D5D52B21D0E7A345DAD230212846013C32
:10118000FFF7A2FED2E73968CDE900460A1D3A60B2
:1011900053460A220968D0E739680A1D3A60CDE94A
:1011A000004653461022F5E73B681A1D3A6016F0D8
:1011B0000106D3F8009024D1B9F1000F03D04846BE
:1011C00001F087FB0646B4421DD809F1FF3919F832
:1011D000011F00293FF458AF2846FFF775FEF6E7D8
:1011E00028460136FFF770FE19F806100029F7D1DE
:1011F000A642BFF449AF20212846013CFFF764FE18
:10120000F6E70026F0E720212846013CFFF75CFEC8
:10121000D9E73B681A1D3A60302128461C68FFF761
:1012200053FE78212846FFF74FFE00220823CDE920
:1012300000322146102280E703B0BDE8F08F00BFE6
:101240002DE9F84FB0F806A04579D2F800B09DF826
:1012500028900AFB05F5043D88460BEB0301A942E3
:1012600003F1040488BFA5EB030BB4FBFAF60746B1
:101270000AFB1644C2F800B04EB9AAEB04055D455E
:1012800028BF5D46BBF1000F04D1BDE8F88F3F6871
:10129000013EF1E7043408EB06003C442A46B9F16C
:1012A000000F0DD02146ABEB050B01F0E9FADA4552
:1012B0002E443F6855464FF0000428BF5D46E1E7E5
:1012C00001462046EFE7FFF79ABDF8B5467901469B
:1012D000721E0546002393422D6803D30024A642C4
:1012E00002D8F8BD0133F6E70F682846FFF7BEFDC8
:1012F00001343946F3E72DE9F843068ACD1C074649
:10130000FFF794FD043E35440446B5FBF6F5F0B115
:101310004FF48073EDB28380C680013D0760814643
:101320004FF00008A84512D23846FFF77FFD064669
:1013300048B163790133637108F10108C9F800000D
:1013400007608146EEE72046FFF7BFFF34462046A0
:10135000BDE8F88301210430FFF733BD10B501214A
:1013600004460430FFF739FDC0B220B92046BDE87D
:101370001040FFF7AABF10BD1FB5039200220092D4
:1013800003AAFFF75DFF05B05DF804FB1FB50392EC
:101390000122009203AAFFF753FF05B05DF804FB9A
:1013A000836800225A60C3E904229A60DA601A60F6
:1013B000704700001FB503788DF800304368019333
:1013C00083688DF80830C368054A0393054B684667
:1013D00053F8213052F82110984705B05DF804FB0E
:1013E00008060020100600201FB503788DF8003095
:1013F0004368019383688DF80830C368054A0393F6
:10140000054B684653F8213052F82110984705B033
:101410005DF804FB0806002010060020F0B5194B0B
:1014200090F800C0DFF86CE043F82C20164B16460D
:101430000A6943F82C204B7F0EF80C300C46074607
:101440000FCC89B06D460FC594E80F0085E80F00FA
:101450003B78CDF810C01EF803304BB1002E0B4A7C
:10146000694608BF3246381D00F0C4FD09B0F0BD22
:10147000002E074A694608BF324607F10C0000F00B
:101480007DFBF3E71006002008060020B5130000DE
:10149000E913000018060020014B1B68184700BF25
:1014A0001C06002038B50B4B98420C4601D000209A
:1014B00038BD0020FFF75EFC074B1D7915B90122EE
:1014C0001C601A710020FFF757FC002DEFD011208F
:1014D000EEE700BF002000401C060020034B9842AE
:1014E00001BF034B00221A601A71704700200040B0
:1014F0001C0600201F2886BF00F01F00044B4FF081
:10150000A04300F5E070022243F82020704700BF9E
:10151000000300500F4B5A7910B502F0FF04B2B926
:101520000D491A68C1F800411AB101245C71C1F873
:10153000044300F1804000F524300123036022B908
:10154000054AD2F80031002BFBD0002000E011202A
:1015500010BD00BF24060020009002400E4B023850
:10156000D3F83C26D3F83836072813D8DFE800F044
:10157000110F0D0B0A080604100EC871100C8871AB
:10158000100A48710A711A0ECA701A0C8A701A0A67
:101590004A700B70704700BF009002400238072865
:1015A0001FD8DFE800F02927251123211F04CB795C
:1015B0001B068A7943EA02434A7943EA02230A79FD
:1015C00013430E4AC2F83C36CB781B068A7843EAAE
:1015D00002434A7843EA02230A781343074AC2F8CF
:1015E000383670470023E4E70023E5E70023E6E709
:1015F0000023EBE70023ECE70023EDE70090024037
:1016000070B5084D084E642445F00105D6F8003148
:1016100033B94FF42070A847013CF7D10D2070BDBD
:101620000020FCE7D02A0000009002402DE9F0479E
:101630006D4E3379002B40F0D18090F80480B8F1E2
:10164000FF0F00F0CE8090F805E0BEF1FF0F00F034
:10165000C88090F806C0BCF1FF0F00F0C280C779C7
:10166000FF2F00F0BE80B8F11F0F8BBF08F01F03E3
:1016700043465E4C4FF0A04403F5E073BEF11F0FEC
:1016800040F2023544F823508BBF0EF01F0373461F
:10169000564C4FF0A04403F5E073BCF11F0F40F22D
:1016A000023544F823508BBF0CF01F0363464F4CA8
:1016B0004FF0A04403F5E0731F2F40F2023544F8C9
:1016C00023508BBF07F01F033B46484C4FF0A0440C
:1016D00003F5E07340F2023544F82350047AFF2CFE
:1016E0000DD01F2C93BF234604F01F033F4D4FF036
:1016F000A04503F5E07340F2023945F82390437AA0
:10170000FF2B0ED01F2B93BF1D4603F01F05DFF8E4
:10171000DC904FF0A04905F5E07540F2023A49F837
:1017200025A0FF2C324D08BF4FF0FF34FF2B08BF20
:101730004FF0FF33C5F82485C5F828E5C5F830C556
:10174000C5F83475C5F83845C5F83C350368C5F8A3
:101750004035037BC77A847A9B0143EAC70323435E
:10176000447B002C14BF802400242343C5F8443557
:10177000D5F80036847B90F810C0477C23F07F4377
:1017800023F0FF032343C47B43EA4C63002C14BFC4
:101790004FF08074002443EA07732343C5F80036F2
:1017A0000023737101233160B260C5F8083341B181
:1017B000837C104A5B01DBB282F829334FF400735B
:1017C00053600B4B012200213271C3F80025BDE8A4
:1017D000F047C3F800111A60FFF712BF0820BDE8F8
:1017E000F0870720FBE700BF24060020000300501D
:1017F0000090024000E100E0F8B51546194A527920
:10180000044602F0FF004ABB174EC6F8000111B1B2
:101810006078FFF7C3FE0123C6F80833A378627827
:101820001B0343EA022322781343E27843EA42335C
:10183000227943EA8233627943EAC233C6F8343606
:10184000FFF7DEFE0D2808D00027C6F800713DB175
:1018500060782946FFF782FE3846F8BD1120FCE784
:101860002846FAE72406002000900240F8B5224BF3
:10187000D3F8342602F44032B2F5803F04BF1F4A49
:10188000C3F834261E4A4FF40071C2F88410BFF327
:101890004F8FBFF36F8F0122C3F808231A615A6577
:1018A0000022C3F80025C3F80021D3F82405D3F89B
:1018B0002875D3F83065D3F83455D3F83845D3F8C4
:1018C0003C15C0B2FFF716FEF8B2FFF713FEF0B2F8
:1018D000FFF710FEE8B2FFF70DFEE0B2FF28C9B235
:1018E00001D0FFF707FEFF2902D00846FFF702FEEE
:1018F000044B00221A71F8BD009002400001030061
:1019000000E100E02406002000F06043B3F1005F36
:101910000BD1830709D1064BC3F81025C3F8140572
:10192000C3F818150820FFF7F5BD1020704700BF59
:101930000090024000F06043B3F1005F0BD18307D9
:1019400009D1064BC3F80425C3F80805C3F80C15E4
:101950000420FFF7DFBD1020704700BF0090024059
:101960008B0707D1044BC3F81C15C3F820050C20C6
:10197000FFF7D0BD1020704700900240064AD2F811
:1019800000313BB1054B002058719968C2F8000145
:101990001A681047704700BF0090024024060020DC
:1019A0000023435082B043580193019B02B070471B
:1019B0000A4610B54FF48E71FFF7F2FF136A916873
:1019C000C95C136A01331362C0F81C1510BD8B6922
:1019D0000A4610B54FF4847123B9FFF7E1FFD0F840
:1019E000183510BDFFF7DCFF536AD168D0F8180531
:1019F000C854536A01335362F3E700001FB5012353
:101A00008DF80030044BCDE90110D3E9001268468F
:101A1000904705B05DF804FB3006002030B54D4D11
:101A2000D5F804339A0585B051D5D5F82431002B6B
:101A30004DD04FF492712846FFF7B2FF4FF4017377
:101A4000C5F80833444B93F829200AB901226A608B
:101A5000404902228DF80020D1F88024C1F880246A
:101A600003929A690292DA6801920022C3E906227F
:101A70006846D3E9001290473648D0F81C315BB174
:101A8000354A5169136A99424DD992F82830002B92
:101A900049D11146FFF78CFF2E48D0F84431002B76
:101AA00056D04FF4A271FFF77BFF2B4B93F8292000
:101AB0000AB1012202609A69002A49D0586AD9689D
:101AC00000229A6105B0BDE83040FFF797BFD5F816
:101AD00004335B07D0D5D5F80831002BCCD01E4C91
:101AE0001C482146FFF773FF636AA2699A42C3D17B
:101AF000E369E1684BB1A3612369E3600023606A95
:101B0000E3616362FFF77AFFB6E794F829300BB917
:101B100001236B600F4B4FF40172C3F808230023BD
:101B2000606AA361EEE70B484FF48E71FFF738FF50
:101B30005369002BB0D051690291002391688DF850
:101B40000030019153616846D2E900139847A3E73A
:101B500005B030BD00200040300600201F2886BFA1
:101B600000F01F00044B4FF0A04300F5E07002228C
:101B700043F82020704700BF000300502DE9F843D0
:101B8000604D90F804802C2303FB0853064693F81D
:101B90002A300C469146002B40F0AF805A4900682D
:101BA000FFF780FC0746002840F0A9802268531CFC
:101BB00010D01F2A87BF554902F01F0313464FF06C
:101BC000A0410120984003F5E073C1F80805032007
:101BD00041F823006168481C0DD01F298BBF01F01C
:101BE0001F030B4649484FF0A04003F5E0734FF048
:101BF000000C40F823C03068A369C0F8243594F87D
:101C000014C0637DBCF1010F4CEA0303C0F86C35CE
:101C1000C0F81415C0F80C252BD1A368591C0DD0A1
:101C20001F2B8BBF03F01F021A4638494FF0A0410B
:101C300002F5E0724FF0000C41F822C0E1684A1C46
:101C400013D01F2987BF314A01F01F0C8C464FF07B
:101C5000A0424FF0010E0EFA0CFE0CF5E07CC2F82B
:101C600008E54FF0030E42F82CE0C0F80815C0F864
:101C700010352C2202FB08F2AB18C3F8049023693C
:101C8000AB50B9F1000F20D04FF48E71247FFFF7D5
:101C900087FE4FF4A2713068FFF782FE32681C4B5A
:101CA000C2F80433130B42F307326101002AC9B2B0
:101CB0001EDB1848841884F800130121520903F030
:101CC0001F0301FA03F340F8223033680422C3F8FB
:101CD00000252C2303FB08530022C3E9062283F8C6
:101CE00029205A61012283F82A203846BDE8F8836A
:101CF000094A03F00F03D154E7E70827F5E7112756
:101D0000F3E700BF300600201D1A0000000300505A
:101D10008000020000E100E014ED00E02DE9F04158
:101D200003680579284C0022C3F800252C2202FB09
:101D3000054201465268A2B1244AC3F808231A0B8F
:101D400043F30733002B0CDB02F01F005B09012279
:101D5000824020331E4840F82320BFF34F8FBFF34B
:101D60006F8F0B68D3F80C05D3F81485D3F808658A
:101D7000D3F810754FF0FF329042C3F81425C3F822
:101D80000C25C3F80825C3F8102501D0FFF7E6FE9F
:101D9000B8F1FF3F02D04046FFF7E0FE7A1C02D0C8
:101DA0003846FFF7DBFE731C02D03046FFF7D6FE45
:101DB0000868FFF793FB2C2303FB0544002384F8FA
:101DC0002A306360BDE8F081300600208402020002
:101DD00000E100E00279044B2C2101FB0233586939
:101DE000003818BF01207047300600202DE9F84F59
:101DF000064690F8048089469246FFF7EBFF0446BA
:101E000000283CD1204F2C2508FB057B4FF48E7118
:101E1000CBF814A0CBF80890CBF820008BF8280062
:101E20003068FFF7BDFD3068012383605946FFF736
:101E3000BFFDDBF804305D461BBB3068DBF81440A7
:101E40002B6A9C4211D83368D3F81C21002AFBD09E
:101E50000122DA6000202C2303FB087700237B613A
:101E6000BDE8F88F95F828303BB9D0F81C31002B2D
:101E7000F8D05946FFF79CFDE2E70F20EBE7112071
:101E8000EEE72046ECE700BF300600200023435079
:101E900082B043580193019B02B070471FB50123E4
:101EA0008DF80030044BCDE90110D3E900126846EB
:101EB000904705B05DF804FB5C0600207FB5434AFF
:101EC000D2F82461002E60D010464FF49271FFF7D3
:101ED000DDFF02238DF80030D2F88034C2F8803460
:101EE0000393D2F83C350293394BDA680192002211
:101EF000C3E906226846D3E9001290473348D0F878
:101F0000443173B14FF4A271FFF7C0FF304B9A69AF
:101F10003AB10022C3E90622D968D0F83C05FFF7A0
:101F2000BDFF2A48D0F82031ABB14FF49071FFF7D4
:101F3000ADFF0123C360264B5A6962B1D0F84C153E
:101F40000291002299688DF8002001915A6168463B
:101F5000D3E9001290471D48D0F858319BB14FF497
:101F6000AC71FFF793FF1A4B5A6962B1D0F84C1568
:101F70000291002299688DF8002001915A6168460B
:101F8000D3E90012904704B070BDD2F81031002B95
:101F9000B4D04FF488711046FFF778FF0C4BD2F89D
:101FA0003C0599698842A9D1DC69D96864B1D2F845
:101FB000005225F02005C2F800521A699C61DA60CF
:101FC000DE61FFF76BFF99E79C61FAE700200040B4
:101FD0005C0600201F2886BF00F01F00044B4FF056
:101FE000A04300F5E070022243F82020704700BFB4
:101FF000000300502DE9F843664E90F80480242336
:1020000003FB0863044693F820300D469146002BED
:1020100040F0BC8060490068FFF744FA074600289A
:1020200040F0B68029684B1C10D01F2987BF5B4A3F
:1020300001F01F030B464FF0A0420120984003F52A
:10204000E073C2F80805032042F823006A68501CB8
:102050000DD01F2A8BBF02F01F0313464F484FF0CD
:10206000A04003F5E0734FF0000C40F823C0206857
:10207000AB69C0F8243595F814C06B7DBCF1010F35
:102080004CEA0303C0F86C35C0F80C15C0F81425F1
:102090002BD1AB68591C0DD01F2B8BBF03F01F0237
:1020A0001A463E494FF0A04102F5E0724FF0000C95
:1020B00041F822C0E9684A1C13D01F2987BF374A5C
:1020C00001F01F0C8C464FF0A0424FF0010E0EFAAB
:1020D0000CFE0CF5E07CC2F808E54FF0030E42F868
:1020E0002CE0C0F80815C0F81035242202FB08F2D5
:1020F000B318C3F804902B69B350B9F1000F2FD077
:102100004FF488712A7FFFF7C1FE20684FF4907169
:10211000FFF7BCFE20684FF49271FFF7B7FE20680E
:102120004FF4A271FFF7B2FE4FF4AC712068FFF7D5
:10213000ADFE23681A49C3F80413190B43F30733A0
:102140005201002BD2B21CDB1648C51885F80023BB
:1021500001225B0901F01F0102FA01F140F823108E
:1021600023680822C3F80025242303FB0866002304
:10217000C6E906337361012386F820303846BDE88E
:10218000F883094B01F00F015A54E9E70827F5E7F6
:102190001127F3E75C060020BD1E0000000300507D
:1021A0001003420000E100E014ED00E02DE9F041F1
:1021B0003D4D06790468242303FB065302465B6801
:1021C000ABB13A4BC4F8083344F30733002B4FEA62
:1021D00014310CDB01F01F005B0901218140203329
:1021E000334840F82310BFF34F8FBFF36F8FD4F8FD
:1021F000003223F02003C4F80032242303FB0653EB
:102200009B6933B14FF4A2712046FFF73FFE0123D3
:1022100063604FF4AC712046FFF738FE0123E360A2
:10222000242303FB0653D4F858110029FBD09969E5
:1022300019B1D4F844110029F5D00023C4F80035B1
:102240001368D3F80C05D3F81485D3F80815D3F820
:1022500010754FF0FF329042C3F80C25C3F81425D7
:10226000C3F80825C3F8102501D0FFF7B3FEB8F175
:10227000FF3F02D04046FFF7ADFE7A1C02D0384641
:10228000FFF7A8FE4B1C02D00846FFF7A3FE20462E
:10229000FFF724F9242303FB0655002385F820309B
:1022A0006B60BDE8F08100BF5C06002010034200B7
:1022B00000E100E00279044B242101FB023358695C
:1022C000003818BF012070475C06002001F0604311
:1022D000B3F1005F2DE9F0470646884692463BD1B0
:1022E00090F80490FFF7E6FF0446002836D11D4F12
:1022F0003068242505FB09754FF49071C5F814A0CA
:10230000C5F80880FFF7C2FD4FF4AC713068FFF7E5
:10231000BDFD33686A69A968C3F84415C3F8482548
:1023200001229A606A68DAB9D3F82021D3F85801FB
:102330001AB90028F8D00F2007E00028FBD10122AD
:10234000DA60D3F85821002AFBD0242303FB097755
:1023500000237B61BDE8F0871020FBE71120F9E73F
:102360002046F7E75C060020014B01221A707047F7
:102370008008002070B5002188B00846FEF7B0F94B
:1023800008B1FEF7A1FCFEF7EFF84E4C4E4B4F495B
:102390004F4EE41AE408240444F003042046FEF7F8
:1023A00035FB002000F066FA002500F053FA0135F5
:1023B000B5F5807F06F8010BF7D1464D0FCD03AE82
:1023C0000FC655F8103944493360002203A8FFF7BF
:1023D0002DF908B1FEF778FC40492046FEF716FBC0
:1023E00040238DF803303E4B68699B8801900022A2
:1023F000114601A8ADF80830FFF7FEF908B1FEF765
:1024000063FC00229923114601A88DF80430FFF7E0
:10241000F3F908B1FEF758FC01238DF804300022CF
:1024200002230DF1030101A88DF80530FFF7E4F94F
:1024300008B1FEF749FC2B4D002101202970FFF760
:102440008FFA08B1FEF740FC2B78002BFCD0264910
:10245000002620462E70FEF7D9FA1D4832464FF46A
:102460008071FFF751FA08B1FEF72EFC2B78002B94
:10247000FCD01E49002620462E70FEF7C7FA1C48E5
:1024800032464FF48071FFF755FA2B78002BFCD0C1
:10249000002318492B702046FEF7B8FA164920464B
:1024A000FEF7B4FA12490A484FF4807200F098F926
:1024B00030B912492046FEF7A9FAFFF7D7F9FEE72F
:1024C0000F49F7E74C29000034290000E12A0000F9
:1024D00080070020AC2B000069230000192B0000AE
:1024E000C02B0000800800202F2B0000542B000080
:1024F00080060020722B00007C2B0000872B000040
:10250000972B00004FF08053D3F83001A0F108035F
:1025100058425841704700004FF08053D3F83021A3
:10252000082A06D1D3F83431052B02D8024AD05CF0
:1025300070470020704700BFCC2B0000024AD2F841
:102540000034002BFBD0704700E0014010B5FFF7CE
:10255000D9FF40B14FF080430022C3F80C21C3F8EB
:102560001021C3F83825FFF7CDFF002846D04FF0E3
:102570008052654BD2F80414C3F82015D2F8081421
:10258000C3F82415D2F80C14C3F82815D2F8101487
:10259000C3F82C15D2F81414C3F83015D2F8181457
:1025A000C3F83415D2F81C14C3F84015D2F820141F
:1025B000C3F84415D2F82414C3F84815D2F82814E7
:1025C000C3F84C15D2F82C14C3F85015D2F83014B7
:1025D000C3F85415D2F83414C3F86015D2F838147F
:1025E000C3F86415D2F83C14C3F86815D2F8401447
:1025F000C3F86C15D2F84424C3F87025FFF78CFF9C
:1026000018B1424B424AC3F88C26FFF785FF18B138
:10261000404BFB22C3F81825FFF77EFF70B14FF047
:1026200080414FF08053D1F8E42ED3F8583222F095
:102630000F0203F00F031343C1F8E43EFFF76CFFF2
:1026400020B1354B4FF40072C3F84026FFF75AFF14
:1026500048B14FF08043D3F80024D20744BF6FF055
:102660000102C3F800242D4AD2F8883043F47003E5
:10267000C2F88830BFF34F8FBFF36F8F4FF0805396
:10268000D3F83021082A0ED1D3F83431052B02D8E3
:10269000234AD35C3BB14FF01023D3F808224FF00C
:1026A0008043C3F858254FF01023D3F80022002AA6
:1026B00003DBD3F80432002B22DA1A4901234FF04E
:1026C0001020C1F804351224FFF738FFC0F800428B
:1026D000FFF734FFC0F80442FFF730FF0023C1F8D2
:1026E0000435FFF72BFFBFF34F8F0C490E4BCA6821
:1026F00002F4E0621343CB60BFF34F8F00BFFDE7EE
:102700000A4B0B4A1A6010BD00C000400050004048
:102710004881030000F000400090024000ED00E01E
:10272000C62B000000E001400400FA051C00002058
:102730000090D0037F2805D8034A044B105C5B5CF3
:102740001840704700207047E02B0000602C00000C
:10275000A0F16103192B98BF20387047A0F1410305
:10276000192B98BF203070477F299ABF0170012034
:102770006FF02E00704700BF5AB10A787F2A0AD83E
:1027800000B102600021501AC3E9001118BF0120F6
:102790007047104670476FF02E007047A0F161033C
:1027A000192B98BF20387047A0F14103192B98BF0F
:1027B000203070477F2805D8034A044B105C5B5CCF
:1027C0001840704700207047E02B0000602C00008C
:1027D000024B5B689B6809211B681847200000209A
:1027E0006AB30F2A70B511D8013A2FD0034600EB17
:1027F000020C01E09C4524D08E461C4611F8012BAA
:1028000013F8010B9042F5D0801A70BD40EA010C1C
:102810001CF0030F04460B4606D0013AE6E7043AE3
:10282000042A20461946DFD9194620460E68056855
:10283000B54203F1040304F10404F0D0D4E71046D8
:10284000704760789EF80120801A70BD00780A7881
:10285000DAE700BF054B06491A6843F2390001FB6D
:1028600002001860C0F30E40704700BF3400002023
:102870006D4EC641014B1860704700BF3400002008
:10288000844640EA010313F0030F18D18446202A3E
:102890000BD32DE9F007B1E8F807A0E8F807A2F19B
:1028A0002002202AF7D2BDE8F007042A07D351F806
:1028B000043B40F8043BA2F10402042AF7D2002AA8
:1028C00005D011F8013B00F8013B013AF9D160460F
:1028D000704700F1010110F0030F11D010F8012B27
:1028E000002A23D010F0030F0AD010F8012B002A81
:1028F0001CD010F0030F03D010F8012B002A15D0C4
:102900002DE970004FF001324FF0803350F8044B46
:10291000A4EB020525EA04051D4000D1F6E7A0F16D
:10292000040070BC10F8012B002AFBD1A0EB0100C1
:0429300070470000EC
:10293400C52A000000000000D62A000000000000A4
:10294400DB2A000000000000C62900000000030389
:102954009829000000000000A429000014000020B1
:102964007C000020440100204C0100208400002051
:042974001800000047
:10297800FFFFFFFFFFFFFFFFFFFFFFFFFFFFFFFF5F
:1029880000000000000000000000D6010601000061
:102998009504000039050000930400007561727405
:1029A8005F6C6F675F6261636B656E640042616351
:1029B8006B656E647320666C75736865640061701E
:1029C800700000006C0500207F000000EC0500206E
:1029D8001B5B313B33316D0025734C6F677320648B
:1029E800726F70706564202825642925730D0A00AC
:1029F8001B5B306D002573003C25733E2025733A20
:102A08002000202530327800202020007C0025631B
:102A1800001B5B313B33306D001B5B313B33326D48
:102A2800001B5B313B33336D001B5B313B33346D33
:102A3800001B5B313B33356D001B5B313B33366D1F
:102A4800001B5B313B33376D007761726E696E67CF
:102A580000696E666F00646562756700F82900009A
:102A6800192A0000D8290000212A0000292A00007C
:102A7800312A0000392A0000412A0000492A0000B2
:102A880000000000A22A0000512A0000592A000074
:102A98005E2A0000466174616C206572726F720074
:102AA80053797374656D20726573657400303132C3
:102AB800333435363738394142434445465052530A
:102AC80000000000000000000338FDD870475541A1
:102AD8005254005541525445005153504920777281
:102AE80069746520616E642072656164206578612F
:102AF8006D706C65207573696E6720323462697415
:102B08002061646472657373696E67206D6F6465B4
:102B18000051535049206578616D706C652073745D
:102B280061727465642E0050726F63657373206FF1
:102B3800662065726173696E6720666972737420B6
:102B4800626C6F636B2073746172740050726F6390
:102B5800657373206F662077726974696E67206485
:102B680061746120737461727400446174612072CD
:102B780065616400436F6D706172652E2E2E00448E
:102B880061746120636F6E73697374656E74004459
:102B980061746120696E636F6E73697374656E74B6
:102BA800000000000000000013111415161704039C
:102BB800000001000001060066010101010100009A
:102BC80000000101010000000000000043000000B7
:102BD800504F53495800000020202020202020205A
:102BE8002068282828282020202020202020202075
:102BF8002020202020202020481010101010101015
:102C0800101010101010101084848484848484841C
:102C1800848410101010101010818181818181012D
:102C2800010101010101010101010101010101018C
:102C3800010101101010101010828282828282021B
:102C4800020202020202020202020202020202025C
:102C580002020210101010200007032004170201BE
:102C68000857104080000000D42B0000D82C00002A
:102C7800EC2D000053756E004D6F6E0054756500A5
:102C880057656400546875004672690053617400A2
:102C9800000000004A616E00466562004D617200E6
:102CA800417072004D6179004A756E004A756C007A
:102CB80041756700536570004F6374004E6F76006E
:102CC8004465630000000000414D00504D000000C5
:102CD800102E00000C2E00000C2E00000C2E000000
:102CE8000C2E00000C2E00000C2E00000C2E0000F4
:102CF8000C2E00000C2E0000FFFFFFFFFFFFFFFF60
:102D0800FFFFFFFFFFFF00004C2D00007C2C0000A0
:102D1800882D00009C2C0000D02C0000302D0000D5
:102D2800E02D00003C2D0000256D2F25642F25790E
:102D380000000000256120256220256520255420FB
:102D48002559000053756E646179004D6F6E64619A
:102D5800790054756573646179005765646E6573AD
:102D680064617900546875727364617900467269A8
:102D780064617900536174757264617900000000C0
:102D88004A616E7561727900466562727561727921
:102D9800004D6172636800417072696C004D617921
:102DA800004A756E65004A756C79004175677573E0
:102DB800740053657074656D626572004F63746F5B
:102DC800626572004E6F76656D6265720044656378
:102DD800656D62657200000025483A254D3A255315
:102DE8000000000035270000512700005D27000083
:102DF800B52700009D270000A927000069270000CB
:0C2E080079270000000000002E000000F0
:102E140000000000002000400000000000200040EE
:102E24000000000000000000FF0000000090D0033C
:102E3400702C0000702C0000702C0000702C00001E
:082E4400702C000001000000E9
:040000030000037581
:00000001FF
