:020000022000DC
:1060000000000120756302005D6302005F6302000F
:106010006163020063630200656302000000000028
:1060200000000000000000000000000067630200A4
:1060300069630200000000006B6302006D630200F0
:106040008DAA02006F63020025B00200F1C50200B4
:106050006F6302006F63020021AF0200FDC80200FF
:106060006F6302006F6302006F6302006F630200E0
:106070006F6302006F6302006F6302006F630200D0
:106080006F630200E98202006F6302006F63020027
:10609000298302006F630200452E03006F63020034
:1060A0006F6302006F6302006F6302006F630200A0
:1060B0006F6302006F630200000000000000000038
:1060C0006F6302006F6302006F6302006F63020080
:1060D0006F6302006F6302006F6302000000000044
:1060E00000000000000000000000000000000000B0
:1060F00000000000000000000000000000000000A0
:10610000000000000000000000000000000000008F
:10611000000000000000000000000000000000007F
:10612000000000000000000000000000000000006F
:10613000000000000000000000000000000000005F
:10614000000000000000000000000000000000004F
:10615000000000000000000000000000000000003F
:10616000000000000000000000000000000000002F
:10617000000000000000000000000000000000001F
:10618000000000000000000000000000000000000F
:1061900000000000000000000000000000000000FF
:1061A00000000000000000000000000000000000EF
:1061B00000000000000000000000000000000000DF
:1061C00000000000000000000000000000000000CF
:1061D00000000000000000000000000000000000BF
:1061E00000000000000000000000000000000000AF
:1061F000000000000000000000000000000000009F
:10620000354936480A1A02D0072291438D4634494F
:1062100034480A1A06D00722914381F309880222E2
:1062200082F3148830483149314A00F044F831484B
:106230003149324A00F03FF831483249324A00F0E1
:106240003AF832483249334A00F035F83248334997
:10625000334A00F030F833483349344A00F02BF821
:1062600033483449344A00F026F83448344900228F
:1062700000F02CF833483449002200F027F8334866
:106280003349091A082902DB002202604160314AC1
:1062900090471F481F49884205D00268043003B464
:1062A000904703BCF7E700208646EC46002000211B
:1062B000294A9047FEE7884207D0521A05D0037852
:1062C00001300B700131013AF9D17047884202D098
:1062D00002700130FAE770470000012000E0002062
:1062E000000001200000012034670300982A0020EC
:1062F000842B0020D0630200D063020078420300A8
:1063000034670300982A0020982A00208443030061
:106310008443030084430300844303008443030055
:106320008443030084430300844303003367030072
:1063300020680300842B0020842B0020842B002065
:106340005C3F00205C3F00205C3F00205C3F002061
:106350005C5F00209D6302001DF30200FEE7FEE784
:10636000FEE7FEE7FEE7FEE7FEE7FEE7FEE7FEE705
:1063700000F002B8FFF7FCBF0F484FF00701884359
:1063800085460E4880470E48016841F4700101605F
:10639000BFF34F8FBFF36F8FFFF732BF09480A4932
:1063A0000A4A884207D0521A05D0037801300B7090
:1063B0000131013AF9D1704700000120F99E020035
:1063C00088ED00E084430300982A0020982A0020EA
:1063D00000B585B00190019B002B0AD0074B43F01C
:1063E00001030393019B9B010293039B029898472F
:1063F00000E000BF05B05DF804FB00BF9043030060
:1064000000B583B00190019B002B0AD04FF47A7045
:10641000FFF7DEFF019B013B0193019B002BF5D1B0
:1064200000E000BF03B05DF804FB08B509F010FC04
:1064300000BF08BD00B589B0039002910192019B95
:10644000002B33D00023079303230693029A079B64
:106450001344019A1946002009F0AAFB0590079AF7
:10646000059B13440793019A059BD31A0193059B3F
:10647000002B13D10F4B1B7883F00103DBB2002BF1
:1064800013D10120FFF7BCFF069B013B0693069B3F
:10649000002B03D1074B00221A7007E0054B0122A5
:1064A0001A70019B002BD1D100E000BF00BF09B0E2
:1064B0005DF804FB842B002000B585B003900291A9
:1064C000054B00934023054A0299039800F012F807
:1064D00000BF05B05DF804FB35640200882B002086
:1064E00082B0019000BF02B0704782B0019000BF3F
:1064F00002B0704700B5A1B00590049103920293D9
:10650000049802F08DFF039B1593029B16930023C2
:10651000179300238DF8603000231993229B1A9360
:1065200000231F930FA91F9B0822049803F052F821
:1065300008231F93119B1293BDF84030ADF84C30E7
:10654000BDF84230ADF84E3000238DF851309DF843
:106550003C3003F00303DBB2012B26D10F9BC3F3C6
:1065600095231C939DF83C30C3F3C203DBB28DF836
:106570005030BDF83C30C3F38313DBB21B931B9B3D
:106580009A0009A91F9B049803F024F81B9B9B0009
:106590001F9A13441F9312AA09A915AB009313461F
:1065A0001B9A1C9800F0E6FE2FE09DF83C3003F0AB
:1065B0000303DBB2022B28D1BDF83E30C3F38913AD
:1065C0009BB21E939DF83C30C3F3C203DBB28DF83F
:1065D00050301E9B082B28BF08231D9307A91F9B23
:1065E0001D9A049802F0F6FF1F9A1D9B13441F93F7
:1065F0001E9A1D9BD31A1E9315AB12AA07A81D99AC
:1066000000F05AFF1E9B002BE3D1049802F017FF05
:1066100000BF21B05DF804FB82B00190019BDB68F4
:1066200001225A7100BF02B07047000000B583B06C
:106630004FF0FF330193FFF7F8FE0421084800F004
:10664000B5FD0190019B002B03DA0649412007F0BC
:1066500005FA0348FFF7E0FF00BF03B05DF804FB55
:1066600074430300A843030000B583B00190009178
:10667000019B1B681B6800990198984700BF03B0F5
:106680005DF804FB00B583B00190019B1B685B685B
:106690000198984700BF03B05DF804FB00B583B0D4
:1066A0000190019B1B689B680198984700BF03B04D
:1066B0005DF804FB82B001900B468DF80330019B1E
:1066C000DB689DF803201A7100BF02B0704782B0EA
:1066D0000190019BDB681B79184602B0704782B0BD
:1066E0000190019BDB6801225A7100BF02B0704724
:1066F00082B00190019BDB685B79184602B070475D
:1067000000B585B0019000910C4B00221A700C4826
:1067100002F0EAFD0390039B002B01D0039B08E0ED
:10672000084803F015F8084A084BD31ADB0802930F
:106730000023184605B05DF804FB00BF302D002093
:10674000D84203004044030074430300EC420300BA
:10675000024A034BD31ADB08184670477443030000
:10676000EC42030000B587B001900B468DF8033072
:106770009DF80330002B1FD0FFF7EAFF04900023A1
:10678000059313E0059B9B000E4A13440393039B60
:106790001B881A46019B1B689A4204D1019B059AEB
:1067A0001A60002309E0059B01330593059A049BB9
:1067B0009A42E7D3052300E00023184607B05DF8AE
:1067C00004FB00BF982A002000B585B001900B465D
:1067D0008DF803309DF8032001AB11461846FFF7F2
:1067E000C1FF0346002B07D1019BDB00054A134480
:1067F0000393039B1B6800E00023184605B05DF877
:1068000004FB00BFEC42030084B001900B468DF8FE
:106810000330019BDB00174A134402939DF80330B9
:10682000013B032B1CD801A252F823F03D68020063
:10683000456802004D6802005768020002238DF887
:106840000F3011E004238DF80F300DE0029B1B790F
:106850008DF80F3008E0029B5B798DF80F3003E074
:1068600000238DF80F3000BF9DF80F30184604B09C
:10687000704700BFEC42030084B0019000910023F8
:106880008DF80F30019B1B7803F00403DBB2002B63
:1068900024D0019B1B78C3F30103DBB2012B02D090
:1068A000022B0CD017E0009B1B68019A1288C2F3E0
:1068B0008312D2B213449A1C009B1A600BE0009B17
:1068C0001B68019A5288C2F3891292B213449A1C2F
:1068D000009B1A6000BF01238DF80F309DF80F3028
:1068E000184604B07047000000B58BB00023ADF827
:1068F00026303E4802F003F83D4802F000F83D4BD8
:106900009B6804933C4B1B680693049A069B1340B8
:1069100002339B00374A13440433089304AB1946EF
:106920000898FFF7A9FF0346002B09D0049A069B9D
:10693000134002339B002F4A134404330893EDE7BE
:1069400000BF0023079311E0049B5A1C0492069A8F
:106950001340079A920001A90A44264902339B007A
:106960000B445B681360079B01330793079B012B64
:10697000EAD99DF80430C3F30103DBB2012B10D038
:10698000022B1CD1BDF80A30ADF82630BDF8063018
:10699000C3F389139BB203339A08049B13440493F3
:1069A00013E0BDF80A30ADF82630BDF80430C3F36B
:1069B0008313DBB21A46049B1344049305E00F498A
:1069C0004FF4C27007F04AF800BF094801F0A3FF76
:1069D0000590059B002B02D0049B064A9360BDF8EE
:1069E000263018460BB05DF804FB00BF483100208C
:1069F00044310020302D0020A02A00205044030004
:106A000000B585B00021074801F0EAFE0390039B22
:106A10000293029B83F310030193019B184605B078
:106A20005DF804FB4C31002000B589B00390029161
:106A300001920093039B1B0C0793FFF7E1FF069065
:106A4000FFF786FE0246079B934204D3214940F29A
:106A5000A91007F003F8069B1904009B5A1C0A9B17
:106A60001340079A0A431C4902339B000B445A60A7
:106A7000009A0A9B134002339B00174A13440433C5
:106A80000593039B03F00703D9B2059A137861F3CA
:106A9000C5031370019B03F00F03D9B2059A138845
:106AA00061F389131380029BC3F31501059A1368E0
:106AB00061F39F231360059A1378012161F30103A9
:106AC0001370059A13786FF38203137000BF09B037
:106AD0005DF804FB50440300302D002000BF7047D8
:106AE00000B58DB00390029113468DF80730039BDB
:106AF00002330A9301238DF8273000238DF81B30D1
:106B00000DF11B03184601F0D5FD404B5A68029B5E
:106B10001A603F4B1A683D4B99683C4B5B68CB1A37
:106B2000134401330B9314E001213A4801F0B7FEFE
:106B3000FFF7DAFE07900799364801F0B0FE344BB4
:106B40001A68324B9968314B5B68CB1A1344013396
:106B50000B930A9A0B9B9A42E6D89DF82730002B9C
:106B600048D0002305939DF80730002B17D09DF8DF
:106B70001430012262F301038DF814309DF81430B3
:106B800043F004038DF81430039B03F00F03DAB2D3
:106B9000BDF8143062F38913ADF8143016E09DF897
:106BA0001430022262F301038DF814309DF8143082
:106BB00043F004038DF81430039BC3F309039AB226
:106BC000BDF8163062F38F13ADF816300F4B5A68CC
:106BD0000F4B1B68134002339B000C4A13440433D1
:106BE0000893059A089B1A60084B5A680A9B13443D
:106BF000064A53609DF81B30184601F071FD9DF860
:106C0000273018460DB05DF804FB00BF302D002082
:106C1000A02A00204C31002000B58BB005900491D3
:106C200003920293204B1B68079306AB012219467F
:106C30000298FFF755FF0346002B24D0069B023332
:106C400009930023089311E0089B9B00039A1A44C0
:106C5000099B591C099107990B401268134902338B
:106C60009B000B445A60089B01330893089A029BCF
:106C70009A42E9D3069A079B00931346029A049915
:106C80000598FFF7D1FE094B1B78002B05D000BFFC
:106C900000F082F80346002BFAD1FFF71FFF00BF78
:106CA0000BB05DF804FB00BFA02A0020302D0020AF
:106CB00000B583B001900091002300220099019853
:106CC000FFF7AAFF00BF03B05DF804FB00B587B073
:106CD000039002910192019B059305AA0123029959
:106CE0000398FFF799FF00BF07B05DF804FB00B5FC
:106CF00087B00390029101920093019B0493009B43
:106D0000059304AA022302990398FFF785FF00BFA9
:106D100007B05DF804FB00B589B0039002910192C1
:106D20000093019B0493009B05930A9B06930B9B86
:106D3000079304AA042302990398FFF76DFF00BF8D
:106D400009B05DF804FB00B58BB00390029101928D
:106D50000093019B0593009B06930C9B07930D9B4F
:106D600008930E9B099305AA052302990398FFF740
:106D700053FF00BF0BB05DF804FB0000054B9A68A1
:106D8000044B5B689A420CBF01230023DBB2184618
:106D9000704700BF302D002000B599B0FFF7EEFF1F
:106DA0000346002B01D00023C0E19B4B0022C3F817
:106DB0001824BFF34F8F00BF974B9B680493974BEA
:106DC0001B681093049A109B134002339B00924A55
:106DD00013440433119300231793002316930023C5
:106DE0000F9304AB19461198FFF746FD0346002B9D
:106DF00019D0894BD3F81834002B14D1864B5A681C
:106E0000049B9A4205D8844B5B68834A93600023B5
:106E10008CE1049A109B134002339B007E4A13447A
:106E200004331193DDE70023159311E0049B5A1CF2
:106E30000492109A1340159A920001A90A447649C7
:106E400002339B000B445B681360159B0133159361
:106E5000159B012BEAD99DF8043003F00303DBB244
:106E6000022B40F09C80BDF80630C3F389139BB21F
:106E70000D93BDF80630C3F389139BB2502B28BF86
:106E800050239BB20C930C9BC3F309039AB2BDF839
:106E9000063062F38F13ADF806300C9B08330B936A
:106EA0009DF80430C3F3C203DBB20F930B995C4827
:106EB00002F025FA1790179B002B00F0D38017984B
:106EC00002F0AEFA01A9169B0822179802F064FBA3
:106ED000169B08331693049BDA43109B134001332F
:106EE0009B000A930C9A0A9B9A4242D90A9B002B58
:106EF00008D0049A109B134002339B00464A134467
:106F0000043300E0474B08930A9B002B02D00A9BF6
:106F1000DBB201E00C9BDBB28DF81F300A9B002B2B
:106F200001D0404B00E0002306930A9B002B06D0C3
:106F30000C9BDAB20A9BDBB2D31ADBB200E000236F
:106F40008DF817309DF81F20169B0899179802F0AE
:106F500023FB9DF81F30169A13441693069B002BB3
:106F600016D09DF81720169B0699179802F014FB6F
:106F70000EE0049A109B134002339B00264A1344F0
:106F800004330993169B0C9A0999179802F004FB95
:106F90000D9B03339A08049B1344049362E09DF80D
:106FA000043003F00303DBB2012B5BD1BDF80430E6
:106FB000C3F38313DBB2062B28BF0623DAB2BDF876
:106FC000043062F38913ADF80430BDF80430C3F324
:106FD0008313DBB202330E939DF80430C3F3C20374
:106FE000DBB20F930E9B9B0019460D4802F087F908
:106FF0001790179B002B35D0179802F011FA01A9B2
:10700000169B0822179802F0C7FA169B08331693AE
:10701000002315931DE000BF302D0020A02A002082
:10702000D84203003C2D0020049B5A1C0492109A65
:10703000134002339B003F4A1344191D169B042240
:10704000179802F0A9FA169B04331693159B013387
:107050001593BDF80430C3F38313DBB21A46159BB6
:107060009342E1D3179B002B40D0324BD3F810341E
:107070001493304BD3F81834002B1BD0179802F020
:10708000DEF94DE000238DF84F301498FFF730FB08
:107090000346002B02D001238DF84F309DF84F306E
:1070A000002B03D017991498FFF7DEFA149BDB68C6
:1070B0001B681493149B002BE4D1179802F0BFF9BE
:1070C00000238DF803300DF10303184601F0F2FAA6
:1070D000184BD3F81834002B02D1049B154A936047
:1070E0009DF80330184601F0FBFA19E0114BD3F874
:1070F0001034129306E01298FFF7D0FA129BDB6867
:107100001B681293129B002BF5D10B4A0B4BD31A21
:10711000DB081B0443F0020309491846FFF7C8FDCA
:10712000FFF72CFE034683F00103DBB2184619B0CB
:107130005DF804FB302D00202C430300EC420300DB
:10714000E044030000B585B00023039323E0164B11
:10715000D3F81034029301238DF807300FE0029822
:10716000FFF7B5FA03461A46039B934203D1002367
:107170008DF8073006E0029BDB681B680293029BD8
:10718000002BECD19DF80730002B01D0039B07E0CA
:10719000039B01330393039B092BD8DD4FF0FF338F
:1071A000184605B05DF804FB302D002000B585B011
:1071B00001900B468DF80330FFF7C4FF0390039B4B
:1071C000B3F1FF3F01D1039B22E0039BDBB21946E1
:1071D0000198FFF76FFA104BD3F81034002B08D149
:1071E0000D4A019BC2F81034019BDB6800221A6033
:1071F0000DE0094BD3F81034DA68019BDB681268A4
:107200001A60054BD3F81034DB68019A1A60039BAF
:10721000184605B05DF804FB302D002000B583B0A2
:107220000C4BD3F8103401930A4B01221A7009E079
:107230000198FFF754FA0198FFF724FA019BDB68E5
:107240001B680193019B002BF2D100BF00BF03B06C
:107250005DF804FB302D002082B00190009100BF4A
:1072600002B0704710B584B003900291039BDB8895
:10727000002B0AD0039BDB881A461F4B0093134652
:107280001E4A1F49029801F083FC039B1B7A052BC1
:107290002ED0039B5B7A002B12D0039B9B881A464F
:1072A000039B1B7A19461046FFF7AEFA03461A46AF
:1072B000144B53F822301A461349029801F068FC27
:1072C000039B1B6819460298FFF7C6FF039B1B7AB6
:1072D0001A460E4B53F82240039B9B880021184608
:1072E000FFF772FA034622460949029801F050FC62
:1072F00000BF04B010BD00BF1445030024450300C7
:107300005C450300B82A002074450300A42A00202D
:107310007845030000B585B00390029113468DF8BF
:107320000730039B1B7A052B0FD0039B5B7A002B46
:1073300006D00D4B1B681A460C49029801F028FC38
:107340000B49029801F024FC07E09DF80730002B60
:1073500003D00749029801F01BFC029801F0F6FBEC
:1073600000BF05B05DF804FBB82A00207445030097
:107370008445030030B58BB00790069105920493C5
:107380000E9B1B7B8DF827300E9B00221A730E99E3
:107390000498FFF767FF059B062B7FD801A252F8E0
:1073A00023F000BFC1730200CB730200DB73020045
:1073B000EF7302000D740200357402006574020060
:1073C00007990E9801F0E4FB69E0069B1B681A46DA
:1073D00007990E9801F0DCFB61E0069B1A68069B9A
:1073E00004331B6807990E9801F0D2FB57E0069B07
:1073F0001A68069B04331968069B08331B680093C0
:107400000B4607990E9801F0C3FB48E0069B1968EC
:10741000069B04331868069B08331B68069A0C32D7
:1074200012680192009303460A4607990E9801F0EC
:10743000AFFB34E0069B1868069B04331C68069B70
:1074400008331B68069A0C321268069910310968D5
:107450000291019200932346024607990E9801F08B
:1074600097FB1CE0069B1C68069B04331D68069B6B
:1074700008331B68069A0C321268069910310968A5
:1074800006981430006803900291019200932B46F5
:10749000224607990E9801F07BFB00E000BF002216
:1074A0000E990498FFF736FF0E9B9DF827201A735C
:1074B00000BF0BB030BD00BF00B587B00390029194
:1074C00001920093029B082B60D8009B1B7B8DF8D8
:1074D0001330009B00221A7300990198FFF7C2FE37
:1074E0000023059314E0059A029B9A4209D2039A5D
:1074F000059B13441B781A462649009801F048FB67
:1075000003E02549009801F043FB059B01330593F7
:10751000059B072BE7D92149009801F039FB00238F
:10752000059326E0059A029B9A421BD2039A059B7B
:1075300013441B788DF812309DF812307E2B0AD838
:107540009DF8123018460CF04FFA0346002B02D07B
:107550009DF8123000E02E231A461149009801F0E0
:1075600017FB03E00F49009801F012FB059B013364
:107570000593059B072BD5D9012200990198FFF7A8
:10758000C9FE009B9DF813201A7300E000BF07B0EE
:107590005DF804FB88450300904503009445030013
:1075A000984503009C45030086B003900291019228
:1075B00001238DF817309DF81730204A039B136084
:1075C0001E4A029B53601D4A019B9360039B44F239
:1075D0000102934212D0039B44F20202934220D153
:1075E000019B164AD360154BDB681B68134A9361F5
:1075F000124BDB685B68114AD36112E0019B0F4AB2
:1076000013610E4B1B699B680C4A53610B4B1B6942
:107610001B680A4A9361094B1B695B68074AD3617F
:1076200000BF72B600BF00BF9DF81730DBB2002B61
:10763000FAD162B600BF00BF06B0704750310020DB
:1076400000B583B002900091019244F201007146AE
:107650006A4600F003F803B000BD00BF30B58BB040
:1076600007900691059272B600BFFFF7D7FD00BFE5
:10767000FFF792FB0346002BFAD1079B44F202026C
:1076800093422FD0079B44F20202934269D8079B92
:1076900044F20102934237D0079B44F20102934225
:1076A0005FD8079B012B05D0079B41F20102934253
:1076B0000CD056E0394A3A4BD31ADB081B0443F08E
:1076C000010338491846FFF7F3FA57E0334A344BC1
:1076D000D31ADB081B0443F0010333491846FFF7B4
:1076E000E7FA4BE0059B09932C4A2D4BD31ADB0894
:1076F0001B0443F00100099B5B681A46099B1B6849
:107700002A49FFF7F4FA39E0059B0893234A244BF2
:10771000D31ADB081B0443F00104089B9D68089BF7
:107720009B68184602F08EF803461846089B5B6873
:107730001946089B1B68069A029201930091034622
:107740002A461B492046FFF7FEFA144A144BD31A67
:10775000DB081B0443F0010316491846FFF7A8FA9B
:107760000CE00E4A0E4BD31ADB081B0443F0010356
:10777000069A11491846FFF7A9FA00BF0F4B1B687C
:1077800003F00103002B00D000BE059A069907986C
:10779000FFF70AFF00BF0BB030BD00BF2C43030052
:1077A000EC420300344603005446030078460300CD
:1077B00094460300BC460300D0460300F0ED00E011
:1077C00084B00190019B9B680393019BDA68039B43
:1077D000D31A184604B0704782B001900B468DF85A
:1077E0000330019B1A68019BDB68019989880B4073
:1077F00013449DF803201A70019BDB685A1C019BFF
:10780000DA6000BF02B0704784B003900B4601926B
:10781000ADF80A30039B1A68039B9968BDF80A30DB
:107820000B44039989880B4013441A78019B1A7002
:1078300000BF04B0704700B583B001900091009A7A
:1078400000210198FFF7E0FF019B9B685A1C019BF8
:107850009A6000BF03B05DF804FB00B583B00190EF
:107860000B468DF803300198FFF7AAFF0246019BF3
:107870009B889A4207D89DF8033019460198FFF774
:10788000ABFF002300E00423184603B05DF804FBBF
:1078900000B583B0019000910198FFF791FF034676
:1078A000002B05D000990198FFF7C5FF002300E0E9
:1078B0000523184603B05DF804FB000082B00346C0
:1078C0008DF807309DF90730002B0CDB9DF8073051
:1078D00003F01F0205499DF907305B09012000FAFA
:1078E00002F241F8232000BF02B0704700E100E03F
:1078F00082B003468DF807309DF90730002B13DB6B
:107900009DF8073003F01F0209499DF907305B0914
:10791000012000FA02F2203341F82320BFF34F8FF9
:1079200000BFBFF36F8F00BF00BF02B0704700BF42
:1079300000E100E082B003468DF807309DF9073082
:10794000002B0DDB9DF8073003F01F0206499DF95F
:1079500007305B09012000FA02F2403341F823208E
:1079600000BF02B0704700BF00E100E082B00346F4
:107970008DF807309DF90730002B0DDB9DF807309F
:1079800003F01F0206499DF907305B09012000FA48
:1079900002F2603341F8232000BF02B0704700BFFD
:1079A00000E100E082B0034600918DF807309DF9B8
:1079B0000730002B0ADB009BDAB20C499DF9073037
:1079C0005201D2B20B4483F800230BE0009BDAB2E1
:1079D00007499DF8073003F00F03043B5201D2B270
:1079E0000B441A7600BF02B0704700BF00E100E010
:1079F00000ED00E000B585B00190019B002B0AD09E
:107A0000074B43F001030393019B9B010293039BEC
:107A10000298984700E000BF05B05DF804FB00BF86
:107A2000F046030000B583B00190064A019BC2F8FE
:107A3000083506211120FFF7B5FF00BF03B05DF840
:107A400004FB00BF0010014008B50D4B4FF480321D
:107A5000C3F844230A4B4FF48032C3F804231120A7
:107A6000FFF784FF1120FFF729FF054B01221A6061
:107A70002F20FFF7BFFF034B01221A7000BF08BD84
:107A8000001001408E32002008B51120FFF730FFB2
:107A90000E4B4FF48032C3F848230C4B4FF4803226
:107AA000C3F80823094B01225A602F20FFF7A2FFD9
:107AB000064B01229A60064B00221A602F20FFF726
:107AC00099FF044B00221A7000BF08BD001001404E
:107AD000803200208E320020024BD3F80435184645
:107AE000704700BF0010014082B001900091019AE0
:107AF000009BD31A23F07F43184602B07047000062
:107B000082B00190034A019BC2F8403500BF02B029
:107B1000704700BF0010014086B00190284B1B68E1
:107B2000002B03D1264A019B136045E0019B1A6894
:107B3000234B1B681B689A4210D8214B1B6819689D
:107B4000019B1A681E4B1B688A1A1A601C4B1A6824
:107B5000019BDA611A4A019B13602DE0019B1B68AF
:107B60000393174B1B680593154B1B68049309E09F
:107B7000049B1B68039AD31A0393049B0593049BED
:107B8000DB690493049B002B04D0049B1B68039ABD
:107B90009A42EDD8049B002B05D0049B1A68039BE6
:107BA000D21A049B1A60019B039A1A60019B049AE3
:107BB000DA61059B019ADA6100BF06B0704700BF29
:107BC0007C32002000B587B001902A4B1B680393DC
:107BD000284B1B680593059B049308E0049A019BBE
:107BE0009A4208D0049B0593049BDB690493049B91
:107BF000002BF3D100E000BF049B002B01D1002338
:107C000033E0059A049B9A4214D11A4B1B68DB6936
:107C1000184A1360174B1B68002B0BD1164B01221F
:107C20009A60164B00221A60154B01221A702F2001
:107C3000FFF7E0FE049B1B680293049BDA69059B37
:107C4000DA61059BDB690493049B002B05D0049B40
:107C50001A68029B1A44049B1A60064B1B68039A1D
:107C60009A4214BF01230023DBB2184607B05DF827
:107C700004FB00BF7C320020001001408032002055
:107C80008F32002008B51120FFF754FE00BF08BD59
:107C900008B51420FFF74EFE00BF08BD00B583B045
:107CA0000190019B5B69019A92691046984700BF59
:107CB00003B05DF804FB000000B585B02B4B1B68DA
:107CC000002B4ED000230193FFF706FF0246284BFE
:107CD0001B6819461046FFF707FF0290234B1B68ED
:107CE00003931DE0039B1B68029A9A421CD3039BDB
:107CF0001B68029AD31A0293039B1B68019A1344D0
:107D00000193039B0093039BDB690393009B1B7C04
:107D1000002B05D0009B00221A740098FFF7BEFFCD
:107D2000039B002BDED100E000BF124B1A78124BF0
:107D30001B789A420CD1104B1B780133DAB20E4BF0
:107D40001A700D4B1B78022B02D10B4B00221A70BC
:107D5000094B1B781946094A019B42F82130FFF76D
:107D600097FF00BF05B05DF804FB00BF7C32002028
:107D7000803200208C3200208D320020843200209E
:107D800082B00190184B1A78184B1B789A4223D076
:107D9000154B1B780133DAB2134B1A70124B1B7858
:107DA000022B02D1104B00221A700F4B1B781A467F
:107DB0000F4B53F82220019B1A60019B1A680D4B50
:107DC0001B6813440B4A13600A4B1B6823F07F4364
:107DD000084A1360012303E0019B00221A6000237C
:107DE000184602B0704700BF8C3200208D32002050
:107DF000843200208032002088B0039002910192EA
:107E00000023079338E0204B1B680693069B1B68F2
:107E1000039A9A4206D2069B1A68039BD21A069BC3
:107E20001A602EE0069B1B68039AD31A0393069BE5
:107E30001B68079A13440793069B00221A60124B93
:107E40001B680593069BDB690F4A1360069BDB6882
:107E5000002B11D0029A079B134423F07F42069B0C
:107E60005A60069BDA68069B9A60019B1A68069B1B
:107E7000DA61019B059A1A60034B1B68002BC2D183
:107E800000BF00BF08B070477C32002000B589B049
:107E9000019000238DF81F30664B1B680593AAE004
:107EA000019B002B05D0019B0693069BDB69019388
:107EB00061E0614B1B781A4613465B001344DB00FC
:107EC0005D4A1344043304935B4B1B780133DAB2ED
:107ED000594B1A70584B1A78574B9B789A4202D1DB
:107EE000554B00221A70049B5B680693049B1B7819
:107EF000032B1ED0032B7EDC012B1FD0022B7AD14B
:107F0000049B5B681846FFF75DFE0346002B02D01A
:107F100001238DF81F30069B00221A746BE0454B3D
:107F20001B680393039B00221A74039BDB69414A7D
:107F30001360404B1B68002BF1D15CE000BF069B37
:107F40001B7C002B00D056E0049B9A68069B5A606D
:107F5000049BDA68069B9A60049B1A69069BDA60A8
:107F6000049B5A69069B9A61344B1B78002B02D004
:107F7000069B00225A60069B5A68314B1B68D31A35
:107F800023F07F432F4A93420ED8069B5B682C4A0E
:107F9000126811461846FFF7A7FD0246069B9B682C
:107FA0001A44069B1A6017E0254B1A68069B5B680B
:107FB00019461046FFF798FD0290069B9B68029AAF
:107FC0009A4206D2069B9A68029BD21A069B1A60B6
:107FD00002E0069B00221A60069B00225A60069B64
:107FE00000229A60069B01221A74069B0022DA6125
:107FF0000698FFF791FD019B002B7FF451AF0E4BCC
:108000001A780D4B5B789A427FF44AAF9DF81F3087
:10801000002B04D1074B1B68059A9A4201D001231B
:1080200000E0002303F00103DBB2184609B05DF85D
:1080300004FB00BF7C320020703100208F32002012
:1080400080320020FEFF7F0010B588B00190274BE2
:108050001B68002B44D0254B1B681B680793FFF758
:108060003BFD0690224B1B68059305990698FFF788
:108070003BFD0346033304931E4B1B7883F001033F
:10808000DBB2002B01D0FFF7DFFC049A079B934281
:1080900038BF1346059A13440593059B23F07F438D
:1080A00005930598FFF72CFDFFF716FD0390069941
:1080B0000398FFF719FD0346DC1C06990598FFF7A6
:1080C00013FD03469C420DD9FFF706FD03461846F3
:1080D000FFF716FD2F20FFF78DFCFFF7D3FD01E022
:1080E000FFF7D2FC00BF08B010BD00BF7C320020FB
:1080F000803200208E32002000B587B0002301932B
:1081000000238DF81730194B1B680493184B1B681C
:1081100003936B461846FFF733FE03468DF80B308A
:108120009DF80B30002B08D0009B01AA049918463B
:10813000FFF762FE01238DF81730019B1846FFF709
:10814000A5FE0346002B02D001238DF817309DF8C1
:108150001730002B02D00398FFF776FF054B002263
:108160001A7000BF07B05DF804FB00BF803200202A
:108170007C3200208F32002082B003468DF8073019
:10818000034A9DF80730537000BF02B0704700BF2C
:108190007031002084B00190144B5B7801338DF86E
:1081A0000F30124B9B789DF80F209A4202D100238A
:1081B0008DF80F300D4B1B789DF80F209A4201D19E
:1081C00000230FE0019B9DF80F201A70074B5B788E
:1081D0001A4613465B001344DB00044A134404337D
:1081E0000293029B184604B0704700BF7031002014
:1081F00000B589B003900291019200930023079388
:1082000000238DF816300DF11603184600F052FACF
:108210000DF117031846FFF7BDFF0690069B002BD4
:1082200002D10423079318E0069B01221A70069BD3
:10823000039A5A60FFF750FC0246069B9A60069B21
:10824000029ADA60069B019A1A61069B009A5A61AB
:108250009DF817301846FFF78FFF9DF81630184627
:1082600000F03EFA079B002B01D1FFF711FD079BA1
:10827000184609B05DF804FB00B587B001900B46C5
:108280008DF803300023059300238DF80E300DF197
:108290000E03184600F00EFA0DF10F031846FFF713
:1082A00079FF0490049B002B02D1042305930BE07B
:1082B000049B9DF803201A70049B019A5A609DF854
:1082C0000F301846FFF758FF9DF80E30184600F0A3
:1082D00007FA059B002B01D1FFF7DAFC059B184636
:1082E00007B05DF804FB000008B50E4B0022C3F890
:1082F00040210C4B0022C3F844210A4B0022C3F852
:108300004821084B0022C3F84C21064B0022C3F839
:108310000021044B0022C3F80421FFF7CDFC00BF6D
:1083200008BD00BF0010014008B5FFF7E5FE00BF23
:1083300008BD000008B5FFF7A7FB134B00221A7019
:10834000114B00225A70104B0B229A700F4B0022D7
:108350001A600F4B00221A700E4B00221A70142064
:10836000FFF704FB06211420FFF71CFB1420FFF786
:10837000A5FA0020FFF756FBFFF7AEFB0346064ABF
:1083800013600023184608BD703100207C320020A5
:108390008C3200208D3200208032002086B0039085
:1083A0000B4601928DF80B30134B9B78002B01D1BB
:1083B00008231EE0019B002B01D1072319E0039B3A
:1083C000002B01D1072314E0039B1B681B7C002BAF
:1083D00001D008230DE0039B1B680593059B002239
:1083E0001A74059B9DF80B205A74059B019A5A61DB
:1083F0000023184606B070477031002000B587B0E2
:10840000039002910192039B0593164B9B78002BDE
:1084100001D1082322E0039B002B01D108231DE09A
:10842000029B042B03D9029BB3F1807F01D3072366
:1084300014E0059B5B69002B01D108230EE0059B2E
:108440005B7C012B01D1029B00E000230493019B84
:10845000049A02990598FFF7CBFE0346184607B029
:108460005DF804FB7031002000B585B00190019BE0
:1084700003930D4B9B78002B01D1082310E0019B47
:10848000002B03D0039B5B69002B01D1082307E07D
:10849000039B00221A7402210398FFF7EDFE0346A6
:1084A000184605B05DF804FB7031002000B587B0B8
:1084B0000390029113468DF8073000230593039B28
:1084C0001B781A46114B9B5C002B09D0039B04338D
:1084D0009DF807200299184602F084FF05900FE0EE
:1084E000039B1B781A46094B9B5C002B08D1039B0E
:1084F0000C339DF807200299184602F083FE059080
:10850000059B184607B05DF804FB00BFD43200207D
:1085100000B585B0019000238DF80F30019B1B78CA
:108520001A46114B9B5C002B08D0019B0433184664
:1085300003F016F803468DF80F300EE0019B1B7810
:108540001A46094B9B5C002B07D1019B0C33184644
:1085500002F0E0FE03468DF80F309DF80F3018460C
:1085600005B05DF804FB00BFD432002000B585B033
:1085700003468DF807309DF8073019461048FFF77D
:108580006CF90390039B002B15D10E48FFF7C0FF39
:10859000034683F00103DBB2002B0CD00A490848E4
:1085A000FFF776F90346002B05D10122064905485D
:1085B000FFF77CFF0390039B184605B05DF804FBB2
:1085C00094320020DC2A00209032002082B0EFF3A9
:1085D00010830093009B019372B600BF019B184665
:1085E00002B0704762B600BF00BF704700B585B0EB
:1085F0000190FFF7EBFF0390164B9B68002B1BD1FC
:10860000144B01229A60144BD3F88020134B134073
:10861000104A1360104B114AC3F880200E4BD3F858
:1086200084300C4A53600C4B4FF0FF32C3F8842067
:10863000019B00221A7002E0019B01221A70039B29
:10864000002B01D1FFF7CEFF0023184605B05DF8DF
:1086500004FB00BFA432002000E100E0FC06FFBDE7
:1086600000B585B003468DF80730104B9B68002B92
:1086700016D09DF80730002B12D1FFF7A7FF03900B
:108680000B4A0A4B1B681360094A084B5B6853602E
:10869000064B00229A60039B002B01D1FFF7A2FF3B
:1086A0000023184605B05DF804FB00BFA43200208B
:1086B00000E100E000B583B0019000F02BF8034624
:1086C000012B03D00549432005F0C8F90198FFF7B5
:1086D0008DFF00BF03B05DF804FB00BFF846030048
:1086E00000B583B003468DF8073000F013F8034659
:1086F000012B03D00649512005F0B0F99DF8073051
:108700001846FFF7ADFF00BF03B05DF804FB00BFE4
:10871000F846030084B0EFF305830193019BC3F394
:1087200008030393039B002B0DD1EFF314830093F5
:10873000009B0293029B03F00103002B0CBF01235B
:108740000023DBB200E00123184604B0704700B5F7
:1087500085B001900091009B5B099B00019A1A442F
:10876000009B03F01F03012101FA03F31946104691
:1087700000F04DF8039000BF05B05DF804FB00B5B4
:1087800085B001900091009B5B099B00019A1A44FF
:10879000009B03F01F03012101FA03F3DB43194699
:1087A000104600F064F8039000BF05B05DF804FBCC
:1087B00082B001900091009B5B099B00019A1344D9
:1087C0001A68009B03F01F0322FA03F303F001036E
:1087D000002B14BF01230023DBB2184602B0704700
:1087E00010B487B001900091019B009A53E8004FAC
:1087F000104643E8000191F0000FF7D10594049072
:108800000391059B184607B05DF8044B704710B400
:1088100087B001900091019B009A53E8004F44EA11
:10882000020043E8000191F0000FF6D10594049096
:108830000391049B184607B05DF8044B704710B4D1
:1088400087B001900091019B009A53E8004F04EA21
:10885000020043E8000191F0000FF6D10594049066
:108860000391059B184607B05DF8044B704710B4A0
:1088700087B001900091019B009A53E8004F04EAF1
:10888000020043E8000191F0000FF6D10594049036
:108890000391049B184607B05DF8044B704710B471
:1088A00087B001900091019B009A53E8004F04EBC0
:1088B000020043E8000191F0000FF6D10594049006
:1088C0000391049B184607B05DF8044B704710B441
:1088D00087B001900091019B009A53E8004FA4EBF0
:1088E000020043E8000191F0000FF6D105940490D6
:1088F0000391049B184607B05DF8044B704700B520
:1089000083B0019001210198FFF781FF03461846CB
:1089100003B05DF804FB00B583B00190002101981D
:10892000FFF78DFF0346184603B05DF804FB000017
:1089300000B583B001900B468DF80330019B002BEE
:1089400003D10849E82005F089F8019BDA689DF811
:1089500003300199098A01FB03F31344184603B05D
:108960005DF804FB8447030000B583B001900091DB
:10897000019B002B03D10849F52005F06FF8009BFF
:10898000019AD2689B1A019A128AB3FBF2F3DBB206
:10899000184603B05DF804FB8447030000B585B0BA
:1089A0000190019B002B01D10E234CE0019B1B6821
:1089B000002B03D12649FF2005F050F8019B5B688E
:1089C000002B04D122494FF4807005F047F8019B39
:1089D0009B68002B04D11E4940F2011005F03EF8BF
:1089E000019BDB68002B04D119494FF4817005F01D
:1089F00035F8019B1B8A002B04D1154940F2031066
:108A000005F02CF8019B9A68019B5B68D31A8DF8DE
:108A10000F30019B1B68019A52681A6007E0019BA6
:108A20001A681368591C11609DF80F201A709DF880
:108A30000F305A1E8DF80F20002BF0D1019B1B68C0
:108A400000221A710023184605B05DF804FB00BF30
:108A50008447030000B585B00190019B002B04D131
:108A60001F494FF4927004F0F9FF00230393002391
:108A70008DF80A300DF10A031846FFF71BFE019B23
:108A80001B681A68019B5B689A421FD9019B1B688F
:108A90001A68013A1A601B681B7819460198FFF79B
:108AA00047FF0390019B9A68019B1B681B68D31AC0
:108AB0008DF80B30019B1B681B799DF80B209A42A7
:108AC00004D9019B1B689DF80B201A719DF80A3090
:108AD0001846FFF705FE039B184605B05DF804FB3A
:108AE0008447030010B584B001900091019B002BD6
:108AF00004D1154940F2471004F0B0FF009B002B51
:108B000004D111494FF4A47004F0A8FF009B039313
:108B100000238DF80B300DF10B031846FFF7CAFD4B
:108B2000019B1B681C68621C1A6003990198FFF77F
:108B30001BFF034623709DF80B301846FFF7D0FD4E
:108B400000BF04B010BD00BF8447030000B583B070
:108B50000190019B002B03D10C49312004F07EFFD2
:108B6000019B9B68002B0CD0019B5B69019A1069EB
:108B7000019A1168019A92689847019B00229A60B5
:108B800000E000BF03B05DF804FB00BF0C48030029
:108B90000EB400B584B00190019B002B03D118499D
:108BA000422004F05BFF019B5B69002B03D1144959
:108BB000432004F053FF019B1B68002B03D1104995
:108BC000442004F04BFF019B5B68002B03D10C4950
:108BD000452004F043FF059B002B0AD0002303939C
:108BE00006AB039303AB1A460599019800F0B8F958
:108BF00000E000BF04B05DF804EB03B0704700BFB5
:108C00000C48030000B583B001900B468DF803308B
:108C10009DF803300A2B03D10D210198FFF7F2FFD5
:108C2000019B1A68019B9B68581C0199886013443A
:108C30009DF803201A70019B9A68019B5B689A4219
:108C400002D30198FFF782FF00BF03B05DF804FB79
:108C500000B587B003900291019200930023059321
:108C6000009B03F00103002B24D00BE0029B013397
:108C70000293059B013305939DF813301946039821
:108C8000FFF7C0FF029B1B788DF813309DF813305F
:108C9000002BEBD106E0019B013B019320210398BF
:108CA000FFF7B0FF019A059B9A422ED9019B002B3A
:108CB000F1D12AE0029B002B0BD002980AF090FF22
:108CC000059006E0019B013B019320210398FFF7EB
:108CD00099FF019A059B9A420FD9019B002BF1D174
:108CE0000BE0029B01330293059B013305939DF832
:108CF000133019460398FFF785FF029B1B788DF808
:108D000013309DF81330002BEBD100BF07B05DF896
:108D100004FB000000B589B003900291019200931A
:108D2000029B07930123069307E0079A019BB2FB7E
:108D3000F3F30793069B01330693079A019B9A422C
:108D4000F3D2009A069B9A4201D9009B06930B9B93
:108D500003F00103002B22D10A9B002B1FD00B9B99
:108D600003F00203002B06D0009B002B03D130231D
:108D70008DF8173002E020238DF8173008E00A9BA9
:108D8000013B0A939DF8173019460398FFF73AFF05
:108D90000A9B002B03D0069A0A9B9A42EFD3012329
:108DA0000793009B012B03D9009B013B009309E033
:108DB000029A079BB2FBF3F30493049A019B9A4235
:108DC00000D205E0079B019A02FB03F30793E8E753
:108DD000029A079BB2FBF3F30493049B079A02FBEE
:108DE00003F3029AD31A0293154A049B13441B7887
:108DF00019460398FFF706FF079A019BB2FBF3F3AE
:108E00000793079B002BE3D10B9B03F00103002B7F
:108E100011D00A9B002B0ED006E00A9B013B0A935F
:108E200020210398FFF7EEFE0A9B002B03D0069A41
:108E30000A9B9A42F1D300BF09B05DF804FB00BF62
:108E40001049030000B589B0059004910392029384
:108E5000049B002BB8BF5B4206930123079307E0F6
:108E6000039B069A92FBF3F30693079B0133079348
:108E7000039B069A9A42F3DA029A079B9A4201D917
:108E8000029B07930A9B002B0AD0049B002B04DB58
:108E90000B9B03F00403002B02D00A9B013B0A93B7
:108EA0000B9B03F00203002B02D0029B002B16D079
:108EB0000B9B03F00103002B11D10A9B002B0ED05A
:108EC00006E00A9B013B0A9320210598FFF79AFED2
:108ED0000A9B002B03D0079A0A9B9A42F1D3049B6A
:108EE000002B07DA049B5B4204932D210598FFF7C2
:108EF00089FE08E00B9B03F00403002B03D02B2119
:108F00000598FFF77FFE0B9B03F00203002B19D09F
:108F10000B9B03F00103002B14D1029B002B11D1FA
:108F20000A9B002B0ED006E00A9B013B0A933021DE
:108F30000598FFF767FE0A9B002B03D0079A0A9B50
:108F40009A42F1D304990B9B01930A9B0093029BD5
:108F5000039A0598FFF7DEFE00BF09B05DF804FB39
:108F600000B58FB0059004910392059B002B04D1AE
:108F7000AD4940F2522004F071FD059B5B69002B66
:108F800004D1A9494FF4157004F068FD059B1B68D6
:108F9000002B04D1A44940F2552004F05FFD059B4D
:108FA0005B68002B04D1A04940F2562004F056FD26
:108FB000049B002B00F09381049B1B788DF83730C5
:108FC000049B013304939DF83730002B00F07E8121
:108FD0009DF83730252B40F06D8100230A93012343
:108FE0000C93049B1B788DF837309DF83730302B6D
:108FF0000DD0302B1BDC2B2B11D02D2B17D10A9B26
:1090000043F001030A93049B0133049312E00A9B8B
:1090100043F002030A93049B013304930AE00A9B82
:1090200043F004030A93049B0133049302E00023FA
:109030000C9300BF0C9B002BD3D1002309939DF808
:1090400037302A2B0CD1039B1B68191D039A116022
:109050001B68099A13440993049B013304931AE093
:10906000049B1B788DF837309DF837302F2B12D9A1
:109070009DF83730392B0ED8049B01330493099A9D
:1090800013469B0013445B001A469DF83730134487
:10909000303B0993D3E700230B93049B1B788DF897
:1090A00037309DF837302E2B1DD1049B01330493AC
:1090B000049B1B788DF837309DF837302F2B12D951
:1090C0009DF83730392B0ED8049B013304930B9A4B
:1090D00013469B0013445B001A469DF83730134437
:1090E000303B0B93E4E7049B1B788DF837309DF8F9
:1090F00037306C2B03D09DF83730682B07D1049B99
:1091000001330493049B1B788DF83730EFE79DF80B
:109110003730252B00F0C480252BC0F2C680782B79
:1091200000F3C380582BC0F2C080583B202B00F2C4
:10913000BC8001A252F823F02D920200AB920200F3
:10914000AB920200AB920200AB920200AB92020023
:10915000AB920200AB920200AB920200AB92020013
:10916000AB920200BD910200DF910200AB920200BF
:10917000AB920200AB920200AB920200DF910200C0
:10918000AB920200AB920200AB920200AB920200E3
:10919000AB920200AB9202006D920200AB92020011
:1091A000AB92020051920200AB92020003920200C5
:1091B000AB920200AB9202002D920200039B1B684F
:1091C000191D039A11601B680C930C9B8DF81F30BE
:1091D0009DF81F3019460598FFF714FD66E0039BC4
:1091E0001B68191D039A11601B680C930A9B01935D
:1091F000099B00930B9B0A220C990598FFF722FE0E
:1092000054E0039B1B68191D039A11601B680C93A3
:109210000C990A9B0193099B00930B9B0A220598CA
:10922000FFF778FD42E000BF8C480300039B1B68FA
:10923000191D039A11601B680C930C990A9B0193EA
:10924000099B00930B9B10220598FFF763FD2DE00F
:10925000039B1B68191D039A11601B6808930A9BE6
:10926000099A08990598FFF7F3FC1FE0039B1B6818
:10927000191D039A11601B680C9330210598FFF7A4
:10928000C1FC78210598FFF7BDFC0C9900230193E0
:1092900008230093082310220598FFF73BFD05E003
:1092A00025210598FFF7AEFC00E000BF049B0133C9
:1092B000049305E09DF8373019460598FFF7A2FCA6
:1092C000049B1B78002B7FF477AE00E000BF059B6A
:1092D0001B7B002B04D00598FFF738FC00E000BF93
:1092E0000FB05DF804FB00BF00B583B0019001989A
:1092F000FFF754FB0346184603B05DF804FB00B5C6
:109300008BB001900091019B1B8A043B0793009A4C
:10931000079B1344DA1C079BB2FBF3F38DF81B3059
:109320000198FFF797FB0590059B002B01D10023C7
:1093300038E0059B00221A71059B01225A71079B98
:109340009AB2059BDA80059B09939DF81B30013B7F
:109350000493099B019A1A60002308931DE0019869
:10936000FFF778FB0390039B002B0ED0059B5B79E6
:109370000133DAB2059B5A71099B039A1A60039B69
:10938000019A1A60039B099304E0059800F00EF817
:10939000002307E0089B01330893089A049B9A4234
:1093A000DDD3059B18460BB05DF804FB00B58BB010
:1093B0000190019B0793079B5B798DF81B30019B04
:1093C00008939DF81B30013B05930023099305E0AA
:1093D000089B1B680893099B01330993099A059B15
:1093E0009A42F5D3089B1B680493019B08930023C2
:1093F00009930BE0089B1B68039308990498FFF7F7
:1094000071FB039B0893099B013309939DF81B3063
:10941000099A9A42EED300BF00BF0BB05DF804FB7F
:1094200000B585B00190019B0393039B0433012198
:109430001846FFF734FA00BF05B05DF804FB00B52D
:1094400087B00190019B0593059B043301211846C9
:10945000FFF73DFA0346039303AB0493049B1B7889
:10946000002B02D10198FFF7A1FF00BF07B05DF804
:1094700004FB000000B591B00390029101920093AB
:10948000039B002B03D14349B62004F0E7FA039B6A
:109490000993039B0F93099BDB881A46099B5B7911
:1094A00002FB03F3043B0893009A089B9A4203D300
:1094B0003849C42004F0D2FA099BDB880793009B4B
:1094C0001A1D079BB2FBF3F30E93009B0433079A1C
:1094D000B3FBF2F2079901FB02F29B1A0D93019B79
:1094E0001A68009B1344089A9A4203D2089A009B78
:1094F000D31A01E0019B1B680C93019B0C9A1A6024
:1095000005E00F9B1B680F930E9B013B0E930E9B78
:10951000002BF6D100230B93079A0D9BD31A0A93C5
:109520000A9A0C9B934228BF13460A932AE0029A98
:109530000B9B134406930F9A0D9B1344043305931E
:109540009DF84830002B05D00A9A059906980AF034
:10955000C9FA04E00A9A069905980AF0C3FA0023AA
:109560000D930F9B1B680F930C9A0A9BD31A0C93B5
:109570000B9A0A9B13440B93079A0C9B934228BFA8
:1095800013460A930C9B002BD1D100BF00BF11B032
:109590005DF804FB2049030000B589B005900491F3
:1095A00003920293039B079307AA00230093029B55
:1095B00004990598FFF75EFF079B039A9A4203D030
:1095C0000349F62004F04AFA00BF09B05DF804FB35
:1095D0002049030000B589B00590049103920293DD
:1095E000039B079307AA01230093029B0499059804
:1095F000FFF740FF079B039A9A4204D004494FF4B7
:10960000807004F02BFA00BF09B05DF804FB00BFC6
:109610002049030082B003468DF807309DF90730DA
:10962000002B0DDB9DF8073003F01F0206499DF962
:1096300007305B09012000FA02F2603341F8232071
:1096400000BF02B0704700BF00E100E000B583B08A
:109650000190019B002B03D10649722004F0FEF912
:10966000019B00221A60BFF35F8F00BF00BF03B0F1
:109670005DF804FBFC49030041DF704700BF18465A
:1096800000B585B000238DF807300DF107031846AB
:10969000FFF710F8F1EE103A0393039B23F09F03BA
:1096A0000293029BE1EE103A00BFBFF35F8F00BF51
:1096B0002620FFF7AFFF9DF807301846FFF710F898
:1096C000039B03F00703002B03D004497D2004F023
:1096D000C5F900BF05B05DF804FB00BF404A0300B8
:1096E00008B5064B00221A700548FFF7AFFF054981
:1096F000054800F04BF80023184608BDB43200209E
:10970000B0320020CC4A0300B832002000B583B04C
:10971000FFF7B6FF09F068FB0346002B0ED0FFF7FA
:10972000ABFF0190019B002B0BD0019B022B08D0BB
:1097300006494FF4B07004F091F902E020BF40BF39
:1097400020BF00BF03B05DF804FB00BF404A030028
:1097500082B00190019B9B6800229A60019B9B68EC
:1097600000221A61019B9B6800225A61019B9B6841
:109770000022DA60019B9B6800225A60019B9B6873
:1097800000221A6000BF02B07047000000B583B02D
:1097900001900091019B002B03D11049502004F04F
:1097A0005DF9009B002B03D10C49512004F056F9C0
:1097B000019B009A1A60019B1B681A68019B5A6002
:1097C000019B5A68019B1B685B689A4202D1019B0E
:1097D00000225A6000BF03B05DF804FBD84A0300C2
:1097E00000B583B00190019B002B03D11449632085
:1097F00004F034F9019B1B68002B03D1104964204D
:1098000004F02CF9019B5B68002B14D0019B5B6872
:109810001A46019B1B689B6813441A46019B5A60B9
:10982000019B5A68019B1B685B689A4204D1019BAB
:1098300000225A6000E000BF03B05DF804FB00BFE7
:10984000D84A030000B585B00190019800F00EF8E9
:109850000390039B002B01D0039B00E0024B1846B2
:1098600005B05DF804FB00BF784B030086B00190A3
:10987000164B0593164B04931FE0049A059BD31ACD
:10988000DB10DA0F13445B10DB00059A13440393DB
:10989000039B1B680293029A019B9A4202D9039B85
:1098A00004930AE0029A019B9A4203D2039B083375
:1098B000059302E0039B5B6804E0059A049B9A42CF
:1098C000DBD30023184606B0704700BF784F030073
:1098D000A0500300BFF34F8F00BF064BDB6803F4BB
:1098E000E0620449044B1343CB60BFF34F8F00BFCA
:1098F00000BFFDE700ED00E00400FA0582B01D4B5B
:109900001B68B3F1FF3F0AD11B4B1B68DBB201930D
:109910001A4B1B681B0903F00F03009305E0154B5E
:109920001B680193164B1B680093019B062B1DD1EE
:10993000009B033B042B17D801A252F823F000BF71
:1099400055990200599902005D990200619902003F
:109950006599020001230AE0012308E0012306E0E3
:10996000012304E0012302E0012300E00023184664
:1099700002B0704730010010E00F00F0E80F00F077
:109980003401001082B0174B1B68DBB20193164BF9
:109990001B681B0903F00F030093019B062B1DD1CD
:1099A000009B033B042B17D801A252F823F000BF01
:1099B000C5990200C9990200CD990200D19902000F
:1099C000D599020001230AE0002308E0002306E005
:1099D000002304E0002302E0002300E000231846F7
:1099E00002B07047E00F00F0E80F00F082B01D4BAE
:1099F0001B68B3F1FF3F0AD11B4B1B68DBB201931D
:109A00001A4B1B681B0903F00F03009305E0154B6D
:109A10001B680193164B1B680093019B062B1DD1FD
:109A2000009B033B042B17D801A252F823F000BF80
:109A3000459A0200499A02004D9A0200519A02008A
:109A4000559A020001230AE0012308E0012306E001
:109A5000012304E0012302E0012300E00023184673
:109A600002B0704730010010E00F00F0E80F00F086
:109A70003401001082B0174B1B68DBB20193164B08
:109A80001B681B0903F00F030093019B062B1DD1DC
:109A9000009B033B042B17D801A252F823F000BF10
:109AA000B59A0200B99A0200BD9A0200C19A02005A
:109AB000C59A020001230AE0002308E0002306E023
:109AC000002304E0002302E0002300E00023184606
:109AD00002B07047E00F00F0E80F00F082B01D4BBD
:109AE0001B68B3F1FF3F0AD11B4B1B68DBB201932C
:109AF0001A4B1B681B0903F00F03009305E0154B7D
:109B00001B680193164B1B680093019B062B1DD10C
:109B1000009B033B042B17D801A252F823F000BF8F
:109B2000359B0200399B02003D9B0200419B0200D5
:109B3000459B020001230AE0012308E0012306E01F
:109B4000012304E0012302E0012300E00023184682
:109B500002B0704730010010E00F00F0E80F00F095
:109B60003401001082B0174B1B68DBB20193164B17
:109B70001B681B0903F00F030093019B062B1DD1EB
:109B8000009B033B042B17D801A252F823F000BF1F
:109B9000A59B0200A99B0200AD9B0200B19B0200A5
:109BA000B59B020001230AE0002308E0002306E041
:109BB000002304E0002302E0002300E00023184615
:109BC00002B07047E00F00F0E80F00F082B0174BD2
:109BD0001B68DBB20193164B1B681B0903F00F03D4
:109BE0000093019B062B1DD1009B033B042B17D830
:109BF00001A252F823F000BF0D9C0200119C02004C
:109C0000159C0200199C02001D9C020001230AE021
:109C1000002308E0002306E0002304E0002302E024
:109C2000002300E00023184602B07047E00F00F068
:109C3000E80F00F082B01D4B1B68B3F1FF3F0AD163
:109C40001B4B1B68DBB201931A4B1B681B0903F00B
:109C50000F03009305E0154B1B680193164B1B681F
:109C60000093019B062B1DD1009B033B042B17D8AF
:109C700001A252F823F000BF8D9C0200919C0200CB
:109C8000959C0200999C02009D9C020000230AE022
:109C9000002308E0012306E0012304E0012302E0A1
:109CA000012300E00023184602B070473001001085
:109CB000E00F00F0E80F00F03401001082B01D4BFF
:109CC0001B68B3F1FF3F0AD11B4B1B68DBB201934A
:109CD0001A4B1B681B0903F00F03009305E0154B9B
:109CE0001B680193164B1B680093019B062B1DD12B
:109CF000009B033B042B17D801A252F823F000BFAE
:109D0000159D0200199D02001D9D0200219D02006B
:109D1000259D020001230AE0012308E0012306E05B
:109D2000012304E0012302E0012300E000231846A0
:109D300002B0704730010010E00F00F0E80F00F0B3
:109D40003401001082B01D4B1B68B3F1FF3F0AD1F4
:109D50001B4B1B68DBB201931A4B1B681B0903F0FA
:109D60000F03009305E0154B1B680193164B1B680E
:109D70000093019B062B1DD1009B033B042B17D89E
:109D800001A252F823F000BF9D9D0200A19D020098
:109D9000A59D0200A99D0200AD9D020001230AE0DD
:109DA000012308E0012306E0012304E0012302E08F
:109DB000012300E00023184602B070473001001074
:109DC000E00F00F0E80F00F03401001082B0154BF6
:109DD0001B680193144B1B680093019B062B1DD13C
:109DE000009B033B042B17D801A252F823F000BFBD
:109DF000059E0200099E02000D9E0200119E0200B7
:109E0000159E020000230AE0002308E0002306E07C
:109E1000012304E0012302E0012300E000231846AF
:109E200002B07047300100103401001082B0154BB1
:109E30001B680193144B1B680093019B062B1DD1DB
:109E4000009B033B042B17D801A252F823F000BF5C
:109E5000659E0200699E02006D9E0200719E0200D6
:109E6000759E020000230AE0002308E0002306E0BC
:109E7000002304E0012302E0012300E00023184650
:109E800002B07047300100103401001008B5FFF730
:109E9000CDFF0346002B07D04FF010234FF0804238
:109EA000D3F80832C2F8583500BF08BD00BF044BD4
:109EB000D3F80034002BFAD000BF00BF704700BFBA
:109EC00000E0014000B583B00190054A019BC2F853
:109ED0000435FFF7EBFF00BF03B05DF804FB00BFE4
:109EE00000E00140024B034A1A6000BF704700BF08
:109EF000F02A00200090D00308B5FFF7FFFC0346CE
:109F0000002B06D0964B1B681B0A964A03F01F03D2
:109F10001360FFF737FD0346002B02D0924B934AA4
:109F20001A60FFF763FD0346002B06D0904B1B68B9
:109F30005B0B904A03F007031360FFF79BFD03469A
:109F4000002B05D08C4BDB688B4A23F08073D360E9
:109F5000FFF7C4FD0346002B0ED04FF080430022D4
:109F6000C3F80C214FF080430022C3F810214FF0BA
:109F700080430022C3F83825FFF7F4FD0346002B89
:109F800002D07E4B03221A60FFF720FE0346002B0F
:109F90000BD07B4B05221A607A4B01221A607A4B58
:109FA00000221A60794B3F221A60FFF743FE0346F6
:109FB000002B76D04FF08053754AD3F80434C2F8A2
:109FC00020354FF08053724AD3F80834C2F8243554
:109FD0004FF080536E4AD3F80C34C2F828354FF056
:109FE00080536B4AD3F81034C2F82C354FF08053AD
:109FF000674AD3F81434C2F830354FF08053644ABE
:10A00000D3F81834C2F834354FF08053604AD3F88F
:10A010001C34C2F840354FF080535D4AD3F82034E9
:10A02000C2F844354FF08053594AD3F82434C2F86B
:10A0300048354FF08053564AD3F82834C2F84C358F
:10A040004FF08053524AD3F82C34C2F850354FF0B9
:10A0500080534F4AD3F83034C2F854354FF0805310
:10A060004B4AD3F83434C2F860354FF08053484A35
:10A07000D3F83834C2F864354FF08053444AD3F8EB
:10A080003C34C2F868354FF08053414AD3F840342D
:10A09000C2F86C354FF080533D4AD3F84434C2F8CF
:10A0A0007035FFF70BFE0346002B05D0394B1B68BC
:10A0B000394A03F04F031360FFF744FE0346002BB9
:10A0C0000DD04FF08043D3F8003403F00103002B90
:10A0D00005D04FF080436FF00102C3F80024FFF772
:10A0E00075FE0346002B05D02C4B1B682B4A43F40E
:10A0F000806313602A4BD3F88830294A43F47003F5
:10A10000C2F88830BFF34F8F00BFBFF36F8F00BF1F
:10A11000FFF7BCFE4FF01023D3F80032002B05DB15
:10A120004FF01023D3F80432002B15DA0120FFF78B
:10A13000C9FE4FF010231522C3F80022FFF7B6FE28
:10A140004FF010231522C3F80422FFF7AFFE0020C2
:10A15000FFF7B8FEFFF7BEFBFFF7C4FE00BF08BD68
:10A16000240300104035014074C007400DF0ADBA23
:10A17000440200103C050040F0ED00E0A005004066
:10A1800010560040885600401856004014560040B3
:10A1900000C0004058020010E40E00403C17004090
:10A1A00000ED00E000B583B00190019B1B681846EC
:10A1B00000F09DF80346002B04D105494FF4F670DA
:10A1C00003F04CFC4FF0A043184603B05DF804FBCD
:10A1D000A050030000B585B0019001AB1846FFF711
:10A1E000E1FF0390019B012202FA03F31946039851
:10A1F00000F069F800BF05B05DF804FB00B585B05C
:10A20000019001AB1846FFF7CDFF0390019B01229F
:10A2100002FA03F31946039800F05FF800BF05B097
:10A220005DF804FB00B585B0019001AB1846FFF75F
:10A23000B9FF0390039BD3F804350293029BDA43E2
:10A24000019B012101FA03F31A40039BC3F808257F
:10A25000019B01229A40029B1A40039BC3F80C25E4
:10A2600000BF05B05DF804FB00B583B0019000911C
:10A27000009B002B03D10198FFF7C0FF02E001987B
:10A28000FFF7A8FF00BF03B05DF804FB00B585B081
:10A29000019001AB1846FFF785FF0390039800F08B
:10A2A0000AF80246019B22FA03F303F00103184661
:10A2B00005B05DF804FB82B00190019BD3F8043532
:10A2C000184602B0704782B001900091019B009A3D
:10A2D000C3F8082500BF02B0704782B0019000911A
:10A2E000019B009AC3F80C2500BF02B0704784B0F0
:10A2F0000190019B5B09029300230393029B002BB7
:10A3000003D14FF0FF33039300BF019B03F01F0302
:10A310000193039A019B22FA03F303F00103002B3C
:10A3200014BF01230023DBB2184604B070470000BD
:10A3300000B585B00190019B032B03D911493A2048
:10A3400003F08CFB104A019B13441B781846FFF75F
:10A350009DFF0346002B14BF012300238DF80F300F
:10A360009DF80F30002B14BF01230023DBB283F0D4
:10A370000103DBB203F00103DBB2184605B05DF860
:10A3800004FB00BFD05003004C51030000B583B064
:10A390000190019B032B03D90749412003F05EFB89
:10A3A000064A019B13441B7800211846FFF75CFF07
:10A3B00000BF03B05DF804FBD05003004C51030014
:10A3C00000B583B00190019B032B03D907494720B7
:10A3D00003F044FB064A019B13441B7801211846F5
:10A3E000FFF742FF00BF03B05DF804FBD05003004D
:10A3F0004C51030000B583B00023019305E00198A0
:10A40000FFF7DEFF019B01330193019B032BF6D97C
:10A4100000BF00BF03B05DF804FB00B583B00023AC
:10A42000019305E00198FFF7B1FF019B0133019310
:10A43000019B032BF6D900BF00BF03B05DF804FBFE
:10A4400000B583B00190019B032B03D907495F201E
:10A4500003F004FB064A019B13441B781846FFF7E0
:10A46000E1FE00BF03B05DF804FB00BFD050030065
:10A470004C51030000B583B00190019B032B03D91D
:10A480000549CB2003F0EAFA044A019B13441B78E8
:10A49000184603B05DF804FBD05003005051030090
:10A4A00082B003468DF807309DF90730002B13DB8F
:10A4B0009DF8073003F01F0209499DF907305B0939
:10A4C000012000FA02F2203341F82320BFF34F8F1E
:10A4D00000BFBFF36F8F00BF00BF02B0704700BF67
:10A4E00000E100E0044BD3F80034002B14BF01233B
:10A4F0000023DBB2184670470000014008B508F0A1
:10A5000073FC034683F00103DBB2002B03D109493E
:10A510007B2003F0A3FAFFF7E5FF034683F0010376
:10A52000DBB2002B04D000F091FA034B00229A70AA
:10A5300000BF08BD5C510300C032002000B583B0ED
:10A5400000230193184B1B78002B02D08523019325
:10A550001CE0154B00229A60134B00225A60124BEC
:10A5600000221A61104B0022DA60104800F034FA21
:10A57000019008F039FC034683F00103DBB2002BA5
:10A5800001D000F04FFA084B01221A70FFF7AAFF22
:10A590000346002B02D0044B01229A70019B1846FF
:10A5A00003B05DF804FB00BFC032002085A60200A6
:10A5B00084B00190019B1B680393039B002B03D085
:10A5C000039B1A68019B1A60039B184604B07047EE
:10A5D00000B583B0164B1B78002B04D1154940F20F
:10A5E000171003F03BFA124BDB68002B04D1114922
:10A5F0004FF48C7003F032FA00238DF807300DF120
:10A6000007031846FEF756F8094BDB68013B084A7A
:10A61000D360074BDB68002B01D1FFF76FFF9DF87C
:10A6200007301846FEF75CF800BF03B05DF804FB86
:10A63000C03200205C51030000B585B003468DF8A0
:10A6400007309DF80730002B02D10C4B039301E03B
:10A650000B4B03930398FFF7ABFF0290029B002B79
:10A6600006D0029B5B689DF8072010469847F1E7EB
:10A6700000BF00BF05B05DF804FB00BFC83200207A
:10A68000D032002000B583B003468DF807309DF826
:10A690000730002B05D10A4B01225A700020FFF72A
:10A6A000CBFF9DF80730012B05D1054B01229A7095
:10A6B0000120FFF7C1FF00BF03B05DF804FB00BF3E
:10A6C000C032002000B583B001900091019B002BA7
:10A6D00005D1054B01225A700020FFF7ADFF00BFE6
:10A6E00003B05DF804FB00BFC032002000B585B0A8
:10A6F000034600918DF807309DF80730032B29D0D1
:10A70000032B35DC002B02D0012B04D030E00020DD
:10A71000FFF7C6FE2DE000238DF80F300DF10F037B
:10A720001846FDF7C7FF154B1B7883F00103DBB21A
:10A73000002B01D0FFF702FF104BDB6801330F4AFB
:10A74000D3600E4B01229A709DF80F301846FDF72A
:10A75000C7FF0EE0094B1B78002B04D1084940F2DB
:10A76000522003F07BF900F05DF9FFF731FF00E0C4
:10A7700000BF00BF05B05DF804FB00BFC032002081
:10A780005C51030082B003468DF807309DF9073015
:10A79000002B0CDB9DF8073003F01F0205499DF9E3
:10A7A00007305B09012000FA02F241F8232000BFC4
:10A7B00002B0704700E100E082B0034600918DF8DE
:10A7C00007309DF90730002B0ADB009BDAB20C49F9
:10A7D0009DF907305201D2B20B4483F800230BE0FD
:10A7E000009BDAB207499DF8073003F00F03043BE2
:10A7F0005201D2B20B441A7600BF02B0704700BFBC
:10A8000000E100E000ED00E082B00190019B1B0B35
:10A810005BB2184602B0704700B583B003460A46E3
:10A820008DF8073013468DF806309DF80630012B61
:10A8300003D99DF80630032B0BD99DF80630042B65
:10A8400003D99DF80630072B03D908496B2003F084
:10A8500005F99DF806209DF9073011461846FFF7C7
:10A86000ABFF00BF03B05DF804FB00BFE451030081
:10A8700000B583B003468DF807309DF907301846C0
:10A88000FFF780FF00BF03B05DF804FB82B0034612
:10A890008DF807300F4A9DF90730002B00DA1F337F
:10A8A0005B115BB252F823209DF90730594203F047
:10A8B0001F0301F01F0158BF4B425BB222FA03F3A2
:10A8C00003F00103002B14BF01230023DBB2184661
:10A8D00002B0704700E100E082B001904FF080428A
:10A8E000019BC2F8083300BF02B0704782B0034634
:10A8F0008DF807309DF8073003F1804301221A607C
:10A9000000BF02B0704784B00346ADF80630BDF812
:10A91000063003F1804300221A60BDF8063003F1CF
:10A9200080431B680393039B00BF04B0704782B051
:10A930000346ADF80630BDF8063003F180431B68CE
:10A94000002B14BF01230023DBB2184602B070476E
:10A9500082B001904FF08042019BC2F8183500BFD1
:10A9600002B070474FF08043D3F818341B0C03F04B
:10A970000103002B14BF01230023DBB218467047EC
:10A9800000B583B006238DF807304FF08040FFF705
:10A990003BFF03461846FFF779FF034683F00103A8
:10A9A000DBB2002B13D04FF08040FFF72DFF0346A2
:10A9B0001A469DF8073019461046FFF72DFF4FF055
:10A9C0008040FFF721FF03461846FFF751FF00BF05
:10A9D00003B05DF804FB000000B585B00190019B59
:10A9E000002B03D10D49A42003F038F80023039372
:10A9F0000B4B1B79002B02D08523039308E0084AF8
:10AA0000019B1360064B01221A71054B00225A71FB
:10AA1000039B184605B05DF804FB00BF1C52030001
:10AA2000D832002008B5074B1B79002B03D106490B
:10AA3000BD2003F013F8FFF7A3FF0120FFF788FF05
:10AA400000BF08BDD83200201C52030008B50D4BD2
:10AA50001B79002B03D10C49F72002F0FFFF0220E5
:10AA6000FFF73AFF4FF48270FFF74DFF0C20FFF71E
:10AA70003DFF00BFFFF776FF0346002BFAD100BF72
:10AA800000BF08BDD83200201C52030008B54FF4A7
:10AA90008070FFF74CFF0346002B14D04FF48070FA
:10AAA000FFF731FF0120FFF717FF114B5B7983F0B0
:10AAB0000103DBB2002B06D00D4B01225A710C4B67
:10AAC0001B68002098474FF48270FFF730FF034661
:10AAD000002B0AD04FF48270FFF715FF0220FFF71A
:10AAE000FBFE034B1B680120984700BF08BD00BF59
:10AAF000D832002000B583B00346ADF80630BDF86B
:10AB00000630184600F026F803461B68012B0CBFE0
:10AB100001230023DBB2184603B05DF804FB00B547
:10AB200085B00346ADF80630BDF80630184600F093
:10AB300011F803461A4600231360BDF80630184684
:10AB400000F008F803461B680393039B00BF05B0A1
:10AB50005DF804FB82B00346ADF80630BDF8063060
:10AB600003F1804303F5C043184602B0704700006C
:10AB700082B00190034BD3F80423019B1340184685
:10AB800002B070470060004082B00190054A019B0E
:10AB900003F5A27352F823301B0A03F01F03184673
:10ABA00002B070470060004082B00190064A019BED
:10ABB00003F5A27352F823301B0C03F00303DBB23E
:10ABC000184602B0704700BF0060004000B583B077
:10ABD0000190019B1B68184600F096F80346002B75
:10ABE00004D105494FF4F67002F038FF4FF0A0434E
:10ABF000184603B05DF804FBD052030000B585B0E1
:10AC000001900B468DF8033001AB1846FFF7DEFFCD
:10AC10000390019A039B02F5E07253F82230019AE7
:10AC200023F44031039B02F5E07243F82210019AAD
:10AC3000039B02F5E07253F822309DF803201204C2
:10AC40001146019A1943039B02F5E07243F8221062
:10AC500000BF05B05DF804FB00B585B0019001AB05
:10AC60001846FFF7B3FF0390019A039B02F5E072C9
:10AC700053F822301B0C03F00303DBB2184605B077
:10AC80005DF804FB86B00390029101924FF0A0435F
:10AC90000493039B059319E0059B9B0006AA1344AC
:10ACA00053F8083CD3F82025019B1A60059B9B00B4
:10ACB00006AA134453F8083C019A1268C3F82025E9
:10ACC000019B04330193059B01330593039A029B77
:10ACD0001344059A9A42DFD300BF00BF06B0704705
:10ACE00000B585B0019001AB1846FFF76FFF0390E8
:10ACF000019B012202FA03F31A46039BC3F82025A5
:10AD000000BF05B05DF804FB84B00190019B5B09B6
:10AD1000029300230393029B002B03D14FF0FF33D8
:10AD2000039300BF019B03F01F030193039A019B50
:10AD300022FA03F303F00103002B14BF01230023C5
:10AD4000DBB2184604B0704784B001900091009BBC
:10AD50000393019BDB080293019B03F0070301931C
:10AD60000122019B02FA03F30399029A0A44127822
:10AD70001340184604B0704782B00190044A019B0A
:10AD80001344303393F90030184602B0704700BFC7
:10AD9000E032002082B00190034A019B52F8233038
:10ADA000184602B0704700BFE032002084B0019026
:10ADB000074A019B1344503393F900308DF80F304C
:10ADC0009DF80F3023F0C003184604B0704700BF51
:10ADD000E032002084B00190074A019B13445033B5
:10ADE00093F900308DF80F309DF80F309B09DBB2DE
:10ADF000184604B0704700BFE032002000B585B0AF
:10AE00000190019A01210020FFF73CFF00230393EA
:10AE10000BE0039B9B00019A13441B68002B01D09D
:10AE2000012306E0039B01330393039B002BF0D027
:10AE30000023184605B05DF804FB000000B587B09C
:10AE40000190002305935BE0344A059B1344503383
:10AE500093F90030B3F1FF3F4ED00598FFF7A6FFFE
:10AE6000049001990498FFF76FFF0346002B44D02C
:10AE70000598FFF7AFFF03468DF80F300498FFF7F2
:10AE8000EBFE03468DF80E309DF80E30022B01D1FB
:10AE9000032300E002238DF80D309DF80D30194694
:10AEA0000498FFF7ABFE0498FFF71AFF0498FFF72A
:10AEB00063FF03461846FFF76DFF0290029B002BCD
:10AEC0001BD09DF80F30032B0FD09DF80E30022BB6
:10AED00003D19DF80F30012B07D09DF80E30032BC6
:10AEE0000BD19DF80F30022B07D19DF80F20029B4C
:10AEF00011460498984700E000BF059B0133059375
:10AF0000059B032BA0D90198FFF778FF0346002B80
:10AF100097D100BF00BF07B05DF804FBE03200200E
:10AF200000B589B000230693002300934FF480738B
:10AF3000ADF81230012307930023059321E0BDF8FB
:10AF400012301846FFF7D6FD0346002B0ED00798A7
:10AF5000FFF70EFE0346002B08D0BDF8123018464E
:10AF6000FFF7DDFD069A079B13430693079B5B00E3
:10AF70000793BDF812300433ADF81230059B01334E
:10AF80000593059B072BDAD94FF4BE70FFF7B2FD8E
:10AF90000346002B0DD04FF4BE70FFF7C0FD069B9B
:10AFA00043F0004306936B461A4601210020FFF749
:10AFB00069FE069BDBB2002B29D0012307930023F7
:10AFC000059321E0079A069B1340002B16D00598A5
:10AFD000FFF7DAFD03900598FFF7E6FD03468DF8CD
:10AFE0000B300598FFF7D6FE0190019B002B05D092
:10AFF0009DF80B20019B114603989847079B5B0027
:10B000000793059B01330593059B072BDAD9069B14
:10B01000002B03DA6B461846FFF710FF00BF09B09C
:10B020005DF804FB08B5064B1B68002B03D10549EE
:10B03000512002F013FD024B1B68984700BF08BD6A
:10B040003C3300209453030082B00190019B044ADA
:10B05000934201D1034B00E00023184602B0704731
:10B06000002000403C33002000B587B001900091E3
:10B07000019B002B03D11C49772002F0EFFC0198C3
:10B08000FFF7E2FF0590059B002B25D000238DF8EC
:10B09000133000238DF80B300DF10B031846FDF72C
:10B0A00009FB059B1B79002B03D001238DF813307E
:10B0B00005E0059B009A1A60059B01221A719DF814
:10B0C0000B301846FDF70CFB9DF81330002B03D016
:10B0D00011230393039B02E000230393039B184671
:10B0E00007B05DF804FB00BF9453030084B00190E7
:10B0F0000B46ADF80230BDF80230019A134400222D
:10B100001A60BDF80230019A13441B680393039B35
:10B1100000BF04B0704782B001900B46ADF802301A
:10B12000BDF80230019A13441B68002B14BF0123A1
:10B130000023DBB2184602B0704782B001900B4684
:10B140008DF803309DF80320019BC3F81C2500BF38
:10B1500002B0704782B001900B468DF803309DF825
:10B160000330019A134401221A6000BF02B07047F5
:10B1700000B585B0019000914FF48E710198FFF7F2
:10B18000B5FF009B9A68009B1B6A13441B788DF8DF
:10B190000F30009B1B6A5A1C009B1A629DF80F30EF
:10B1A00019460198FFF7C9FF00BF05B05DF804FB21
:10B1B00000B585B001900091009B5B69039316E098
:10B1C000009B93F82830DBB2002B01D0002314E061
:10B1D0004FF48E710198FFF79EFF034683F0010341
:10B1E000DBB2002BECD100990198FFF7C1FF009B67
:10B1F0001B6A039A9A42EBD80123184605B05DF802
:10B2000004FB000000B587B0039002910192039BFC
:10B210001B791A462C2302FB03F33C4A1344049384
:10B22000049B93F82A30012B04D039494FF48C70D9
:10B2300002F014FC029B002B04D1354940F2191096
:10B2400002F00CFC019B002B04D131494FF48D70AE
:10B2500002F004FC039800F05DF80346002B03D0D5
:10B2600011230593059B4CE0049B019A5A61049BB2
:10B27000029A9A60049B00221A62049B002283F8BF
:10B28000282000230593039B1B684FF48E711846FA
:10B29000FFF72CFF039B1B6808211846FFF75AFF96
:10B2A000039B1B6804991846FFF762FF049B5B68C9
:10B2B000002B25D1039B1B6804991846FFF778FFE4
:10B2C000034683F00103DBB2002B02D00F2305936A
:10B2D00013E000BF039B1B684FF48E711846FFF705
:10B2E0001AFF034683F00103DBB2002BF2D1039B6C
:10B2F0001B680C211846FFF72DFF049B00225A61A2
:10B30000059B184607B05DF804FB00BF44330020DE
:10B310008454030082B00190019B1B791946074AAF
:10B320002C2301FB03F3134414331B68002B14BFBD
:10B3300001230023DBB2184602B0704744330020DB
:10B3400082B00190019B03F06043B3F1005F0CBF3A
:10B3500001230023DBB2184602B0704784B001908D
:10B360000B46ADF80230BDF80230019A13440022BA
:10B370001A60BDF80230019A13441B680393039BC3
:10B3800000BF04B0704782B001900B46ADF80230A8
:10B39000BDF80230019A13441B68002B14BF01232F
:10B3A0000023DBB2184602B0704782B001900B4612
:10B3B0008DF803309DF80330019A134401221A607E
:10B3C00000BF02B0704784B0039002910192029ACC
:10B3D000039BC3F84425039B019AC3F8482500BF8B
:10B3E00004B0704700B589B0039002910192039BAD
:10B3F0001B791A461346DB0013449B00564A13443C
:10B400000593059B93F82030012B04D0534940F25B
:10B41000531002F023FB029B002B04D14F494FF441
:10B42000AA7002F01BFB019B002B04D14B4940F298
:10B43000551002F013FB039B1B79002B02D1019BDB
:10B44000FF2B04D945494FF4AB7002F007FB02987B
:10B45000FFF776FF034683F00103DBB2002B03D036
:10B4600010230793079B73E0039800F079F80346D5
:10B47000002B03D011230793079B69E0059B019ADA
:10B480005A61059B029A9A6000230793039B1B68ED
:10B490004FF490711846FFF761FF039B1B684FF450
:10B4A000AC711846FFF75AFF039B1868059B996813
:10B4B000059B5B691A46FFF786FF039B1B68082103
:10B4C0001846FFF772FF059B5B68002B3FD1039B7B
:10B4D0001B684FF490711846FFF755FF03468DF82F
:10B4E0001B30039B1B684FF4AC711846FFF74BFFF2
:10B4F00003468DF81A309DF81B3083F00103DBB250
:10B50000002B06D09DF81A3083F00103DBB2002B2C
:10B51000DDD19DF81A30002B02D00F23079313E0E2
:10B52000039B1B680C211846FFF73FFF00BF039BDE
:10B530001B684FF4AC711846FFF725FF034683F0F4
:10B540000103DBB2002BF2D1059B00225A61079B5D
:10B55000184609B05DF804FB7033002070550300F5
:10B5600082B00190019B1B791946084A0B46DB000B
:10B570000B449B00134414331B68002B14BF01239E
:10B580000023DBB2184602B0704700BF70330020C2
:10B5900000B585B00190019B002B0AD0074B43F00A
:10B5A00001030393019B9B010293039B029898471D
:10B5B00000E000BF05B05DF804FB00BF305603009B
:10B5C00000B583B00190019B1B68184600F069F834
:10B5D0000346002B04D105494FF4F67002F03EFA01
:10B5E0004FF0A043184603B05DF804FBF455030088
:10B5F00000B585B0019001AB1846FFF7E1FF03905D
:10B60000019B012202FA03F31946039800F035F872
:10B6100000BF05B05DF804FB00B585B0019001AB3B
:10B620001846FFF7CDFF0390019B012202FA03F3B6
:10B630001946039800F02BF800BF05B05DF804FB35
:10B6400000B585B0019001AB1846FFF7B9FF039034
:10B65000039800F00AF80246019B22FA03F303F074
:10B660000103184605B05DF804FB82B00190019B10
:10B67000D3F81035184602B0704782B0019000919F
:10B68000019B009AC3F8082500BF02B0704782B042
:10B6900001900091019B009AC3F80C2500BF02B0F5
:10B6A000704784B00190019B5B09029300230393D0
:10B6B000029B002B03D14FF0FF33039300BF019B8C
:10B6C00003F01F030193039A019B22FA03F303F093
:10B6D0000103002B14BF01230023DBB2184604B082
:10B6E000704700B585B001904FF0A042019B1B68E8
:10B6F00003F5E07340F20C6142F823104FF0A042D2
:10B70000019B5B6803F5E07340F20C6142F8231083
:10B71000019B1B681846FFF76BFF019B5B6818468F
:10B72000FFF766FF4FF0A042019B1B6803F5E07333
:10B7300040F20D6142F823104FF0A042019B5B687C
:10B7400003F5E07340F20D6142F823100420FFF787
:10B750001FFF002303931EE0019B5B681846FFF761
:10B760006FFF0346002B03D0039B002B17D124E06F
:10B77000019B1B681846FFF74FFF0420FFF708FFE7
:10B78000019B1B681846FFF733FF0420FFF700FFFB
:10B79000039B01330393039B082BDDDD00E000BF17
:10B7A000019B5B681846FFF737FF0420FFF7F0FEA8
:10B7B000019B5B681846FFF71BFF05B05DF804FBB3
:10B7C00000B589B001900091009B0793019B1B7805
:10B7D0008DF80C30019B1B798DF81030019B5B7943
:10B7E0008DF81130019B9B68DBB28DF81230019B04
:10B7F000DB68DBB28DF81330019B1B690593019B5D
:10B800005B690693074A079B52F823300649079A5B
:10B8100051F8221003AA1046984700BF09B05DF8FE
:10B8200004FB00BF943300209C33002000B587B098
:10B830000390029101920093039B1B780593124998
:10B84000059B019A41F823201049059B009A41F875
:10B850002320029B5B7B002B02D00298FFF741FF65
:10B8600000230493039B181D019B002B01D0084A61
:10B8700000E00022059B029900F0E0F90490049B8F
:10B88000184607B05DF804FB943300209C33002079
:10B89000C1B7020082B003468DF807309DF907302A
:10B8A000002B0CDB9DF8073003F01F0205499DF9C2
:10B8B00007305B09012000FA02F241F8232000BFA3
:10B8C00002B0704700E100E082B0034600918DF8BD
:10B8D00007309DF90730002B0ADB009BDAB20C49D8
:10B8E0009DF907305201D2B20B4483F800230BE0DC
:10B8F000009BDAB207499DF8073003F00F03043BC1
:10B900005201D2B20B441A7600BF02B0704700BF9A
:10B9100000E100E000ED00E082B00190019B1B0B14
:10B920005BB2184602B0704700B583B003460A46C2
:10B930008DF8073013468DF806309DF80630012B40
:10B9400003D99DF80630032B0BD99DF80630042B44
:10B9500003D99DF80630072B03D908496B2002F064
:10B960007DF89DF806209DF9073011461846FFF72F
:10B97000ABFF00BF03B05DF804FB00BF3856030007
:10B9800000B583B003468DF807309DF9073018469F
:10B99000FFF780FF00BF03B05DF804FB82B00190A9
:10B9A0000B468DF803309DF80330019A13440122B1
:10B9B0001A6000BF02B0704784B001900B46ADF82A
:10B9C0000230BDF80230019A134400221A60BDF81B
:10B9D0000230019A13441B680393039B00BF04B019
:10B9E000704782B001900B46ADF80230BDF80230CE
:10B9F000019A13441B68002B14BF01230023DBB200
:10BA0000184602B0704782B001900091019B009AE5
:10BA1000C3F8042300BF02B0704782B001900091C8
:10BA2000019B009AC3F8082300BF02B0704782B0A0
:10BA30000190019B0522C3F8002500BF02B07047AA
:10BA400082B00190019B0022C3F8002500BF02B024
:10BA5000704784B0039002910192039B029AC3F84D
:10BA60000825039B019AC3F80C2500BF04B070475A
:10BA700082B001900091019B009AC3F8242500BF79
:10BA800002B0704784B00190019BD3F8C434039393
:10BA9000019B039AC3F8C424039B184604B0704763
:10BAA00082B001900B468DF803309DF80320019B76
:10BAB000C3F8882500BF02B0704782B00190019B97
:10BAC000D3F81835DBB2184602B0704782B0019047
:10BAD0000B468DF803309DF80320019BC3F81C250D
